:10000000ADC000000C942E1F0C945B1FCFC00000ED
:10001000CDC00000CBC00000C9C000000C94991CEA
:10002000C5C00000C3C000000C94A7230C94BE22DE
:100030000C9485240C94D327B9C00000B7C00000ED
:100040000C94EA20B3C000000C94EC1A0C942D1B05
:100050000C94BF25ABC00000A9C00000A7C00000E1
:100060000C94041EA3C000001118171819181C18AE
:100070003018DC194C1867184E186918B118B518E3
:10008000DC19EB1808000000BE922449123EABAA0E
:10009000AA2ABECDCCCC4C3E00000080BEABAAAAA2
:1000A000AA3E00000000BF000000803F00000000EA
:1000B00000084178D3BB4387D1133D190E3CC3BD23
:1000C0004282AD2B3E68EC8276BED98FE1A93E4CD0
:1000D00080EFFFBE01C4FF7F3F0000000000076308
:1000E0004236B79BD8A71A39685618AEBAAB558CAA
:1000F0001D3CB7CC5763BD6DEDFD753EF6177231F3
:10010000BF000000803F0200000007000201000065
:1001100003040600000000000000000102040810B3
:10012000204080010204081020010204081020046D
:10013000040404040404040202020202020303038E
:1001400003030300000000250028002B000000002E
:1001500000240027002A0000F11BE72011241FBE05
:10016000CFEFD8E0DEBFCDBF11E0A0E0B1E0E0E628
:10017000F8E502C005900D92AE34B107D9F725E03D
:10018000AEE4B1E001C01D92A537B207E1F710E07F
:10019000CEEAD0E004C02197FE010E942F28CC3A7D
:1001A000D107C9F70E942D1C0C942E2C29CF0C943A
:1001B000182C0C94202CCF92DF92EF92FF920F9389
:1001C0001F93CF93DF93E1E0E0936D01EFE6F2E060
:1001D000CFECD2E0AFE9CA2EA2E0DA2E61937193A0
:1001E000819391932993399349935993D601ED9231
:1001F000FD920D931D936D01B2E0E338FB0771F79B
:10020000EAEFF1E0A2E1B2E06193719381939193FF
:10021000AE17BF07C9F7E6E1F2E0AEE2B2E0219324
:10022000319341935193AE17BF07C9F7E2E3F2E070
:10023000AAE4B2E0E192F19201931193AE17BF07E5
:10024000C9F760934F0270935002809351029093CC
:10025000520220935302309354024093550250931C
:100260005602E0925702F0925802009359021093FE
:100270005A02DF91CF911F910F91FF90EF90DF9085
:10028000CF90089580914E028F5F863018F480934E
:100290004E0202C010924E0220914E02AFE5B2E033
:1002A00084E0289F9001112480E090E04D915D91C1
:1002B0006D917D91FC01E20FF31FE650FE4F4083EC
:1002C0005183628373834C968435910579F7089541
:1002D0008F929F92AF92BF92CF92DF92EF92FF9256
:1002E00080916A018111EEC0C0901803D09019036B
:1002F000E0901A03F0901B0320E030E0A901C70151
:10030000B6010E94AE2887FF09C080918A039091B0
:100310008B03816090938B0380938A0320E030E409
:100320004CE955E4C701B6010E94FD2918164CF4AA
:1003300080918A0390918B03826090938B038093CA
:100340008A0320E030E44CE156E4C701B6010E9484
:10035000FD29181654F020E030E048EC52ECC701BB
:10036000B6010E94AE2887FF09C080918A03909150
:100370008B03846090938B0380938A03C090140353
:10038000D0901503E0901603F090170320E030E0C2
:1003900040E752ECC701B6010E94AE2887FF09C0B2
:1003A00080918A0390918B03886090938B03809354
:1003B0008A0320E030E040EA52E4C701B6010E941F
:1003C000FD2918164CF480918A0390918B0380616B
:1003D00090938B0380938A03C0905503D09056036B
:1003E000E0905703F09058036091540370E080E070
:1003F00090E00E944D29A70196010E94AE2887FF38
:1004000009C080918A0390918B03806490938B0341
:1004100080938A036091530370E080E090E00E9433
:100420004D299B01AC01C701B6010E94FD29181698
:100430004CF480918A0390918B03806890938B0396
:1004400080938A0360914E0370E080E090E00E9408
:100450004D294B015C01C0904F03D0905003E090B8
:100460005103F0905203A70196010E94FD2918162E
:100470004CF480918A0390918B03986090938B0346
:1004800080938A03A7019601C501B4010E94AE289A
:1004900087FF18C060914D0370E080E090E00E94FB
:1004A0004D299B01AC01C701B6010E94AE2887FF10
:1004B00009C080918A0390918B03906190938B0384
:1004C00080938A0380910703882349F080918A03EF
:1004D00090918B03906290938B0380938A03FF909B
:1004E000EF90DF90CF90BF90AF909F908F90089546
:1004F0002F923F924F925F926F927F928F929F9234
:10050000AF92BF92CF92DF92EF92FF920F931F9321
:10051000CF93DF93CDB7DEB728970FB6F894DEBF41
:100520000FBECDBF8FE592E09A838983EFE4F2E0BE
:10053000F887EF8381E291E09C838B83E5E1F1E032
:10054000FE83ED833AEF232E31E0332EE12CF12CA4
:10055000612C80E5782E93EC892E27E4922EA12C35
:10056000B12C0AE714ECF101EE0DFF1D5080C180A3
:10057000D28043809501A801652D7C2D8D2D942D71
:100580000E94FD29181624F4A52CBC2C0D2D142D29
:100590009301A401652D7C2D8D2D942D0E94AE28F4
:1005A00087FF04C0652C7C2C8D2C942CF4E0EF0E7E
:1005B000F11C24E1E216F104B1F6EF81F885C08068
:1005C000D180E280F38024EA30E74DE75FE3B301B6
:1005D000C4010E944C2AA70196010E94AE2887FF01
:1005E00011C02EEA37E441E85FE3B501C8010E947B
:1005F0004C2AA70196010E94FD2918161CF4EB81D4
:10060000FC8102C0ED81FE8180809180A280B38058
:10061000E981FA816191719181919191FA83E983E4
:10062000A70196010E944928A50194010E944C2A25
:10063000A70196010E944A28EF81F8856193719382
:1006400081939193F887EF838B819C8104969C839F
:100650008B83ED81FE813496FE83ED83FCE12F0ECA
:10066000311C89819A818B56924009F06FCF289670
:100670000FB6F894DEBF0FBECDBFDF91CF911F91B3
:100680000F91FF90EF90DF90CF90BF90AF909F9031
:100690008F907F906F905F904F903F902F90089534
:1006A0000FB6F894A89580916000886180936000EF
:1006B000109260000FBE98E088E10FB6F894A895FC
:1006C000809360000FBE90936000FFCF8091DF01A8
:1006D0009091E001A091E101B091E2014091D3013C
:1006E0005091D4016091D5017091D601841B950B76
:1006F000A60BB70B89389341A105B10558F098E0D6
:1007000088E10FB6F894A895809360000FBE90938F
:100710006000FFCF08950F931F938091DF019091A8
:10072000E001A091E101B091E2014091D701509127
:10073000D8016091D9017091DA018C019D01041BEF
:10074000150B260B370BB901A801453F5140610538
:10075000710578F08093D7019093D801A093D901C7
:10076000B093DA0180916B01811103C081E0809325
:100770006B011F910F910895FC018FEF21E3662318
:1007800069F09191892798E087FF03C0880F82273D
:1007900001C0880F9150C1F76150F1CF08952F9299
:1007A0003F924F925F926F927F928F929F92AF9201
:1007B000BF92CF92DF92EF92FF920F931F93CF934E
:1007C000DF93A0911C03E4E0AE9FE0011124FE0141
:1007D000E159FD4F6083718382839383FE01E1536E
:1007E000FD4F2083318342835383FE01E156FD4F49
:1007F000E082F1820283138381E08A0F853018F44E
:1008000080931C0302C010921C03CFE6D2E00FECD1
:1008100012E08FE9282E82E0382EC12CD12C7601EF
:100820004601570126013701299139914991599182
:10083000C301B2010E944A282B013C01F801219119
:100840003191419151918F01C501B4010E944A2813
:100850004B015C01F10121913191419151911F01B5
:10086000C701B6010E944A286B017C01F2E0C3383F
:10087000DF07D1F62DEC3CEC4CE45EE3C301B201A2
:100880000E944C2A60935F02709360028093610221
:10089000909362022DEC3CEC4CE45EE3C501B401A4
:1008A0000E944C2A609363027093640280936502F5
:1008B000909366022DEC3CEC4CE45EE3C701B6017C
:1008C0000E944C2A609367027093680280936902C9
:1008D00090936A02DF91CF911F910F91FF90EF905B
:1008E000DF90CF90BF90AF909F908F907F906F9050
:1008F0005F904F903F902F9008950F931F93E0913A
:10090000ED01E150E73050F4F0E0EE0FFF1FE95F3A
:10091000FE4F4081518160E070E004C040E855E244
:1009200060E070E08091EC01813011F026E001C0C0
:1009300026E230E009EE13E08FE893E00E94DA242B
:1009400069ED76E08FE893E00E946B2581E080936B
:100950008F031F910F910895CF93DF9300D000D0A4
:10096000CDB7DEB769837A838B839C8350E0440FD5
:10097000551FFE01E40FF51F828190E0982F882714
:10098000FE01E40FF51F2181822B0F900F900F9035
:100990000F90DF91CF9108951F93CF93DF93162F80
:1009A000C82FD0E0CE0103DC811731F08F3F21F456
:1009B000612FCE01FEDB812FDF91CF911F91089532
:1009C0007F928F929F92AF92BF92CF92DF92EF92DF
:1009D000FF920F931F93CF93DF9300D000D0CDB73A
:1009E000DEB77A018B016C015E0185E0A80EB11CB7
:1009F000FE0131964F01712CC601D9DBF5018293BE
:100A00005F01C601D4DB8F3F09F47394FFEFCF1A67
:100A1000DF0AA814B90481F784E0781629F0498127
:100A20005A813B812C8103C0A701302F212FBA01AD
:100A3000832F922F0F900F900F900F90DF91CF91F7
:100A40001F910F91FF90EF90DF90CF90BF90AF90EC
:100A50009F908F907F900895FF920F931F93CF9355
:100A6000DF938C01F62ED72FA2DBC82FC801019689
:100A70009EDBCF3F29F48F3F19F48F2D9D2F02C0AD
:100A80008C2B90E0DF91CF911F910F91FF900895F3
:100A90001F93CF93DF93EC01172F8BDB612FCE01D8
:100AA0000196DF91CF911F9184CB0F931F93CF932A
:100AB000DF938C017CDBC82FC801019678DBD0E086
:100AC000D82BCF3F8FEFD80711F4C0E0D0E0C8019A
:100AD00002966DDB811102C0CE0104C088279927E0
:100AE0008C1B9D0BDF91CF911F910F910895CF9299
:100AF000DF92EF92FF9261E084E64EDF8093030184
:100B000063E085E649DF8093ED0160E086E644DF3F
:100B10008093EC0169E672E088E690E09DDF9093B7
:100B2000EA018093E90160E089E636DF8093EB011A
:100B30006AEA7AEA8AE690E08FDF9093F101809387
:100B4000F0016AEA7AEA8CE690E086DF9093EF01A2
:100B50008093EE0160E081E71FDF80938D014BEC15
:100B600051EA65EC70E482E890E02ADF6093E501E9
:100B70007093E6018093E7019093E80165E886E8C9
:100B80000BDF8093540360E587E806DF809353030F
:100B90006CE388E801DF80934D0362E389E8FCDEC3
:100BA00080934E038AE890E080DFBC01990F880BA8
:100BB000990B0E944D292DEC3CEC4CEC5DE30E941E
:100BC0004C2A609388017093890180938A019093E5
:100BD0008B018DE890E069DFBC01990F880B990BC0
:100BE0000E944D292AE037ED43E25CE30E944C2A43
:100BF00060938401709385018093860190938701AF
:100C000080E990E052DFBC01990F880B990B0E949C
:100C10004D292FE632E143E85AE30E944C2A6B014A
:100C20007C0120E030E0A9010E94AE28882349F031
:100C3000C0928001D0928101E0928201F092830102
:100C40000CC080E090E0A0E8BFE380938001909327
:100C50008101A0938201B093830161E084E99CDE6D
:100C600080937F0164E185E997DE80937E0166E3EE
:100C700073E386E990E0F0DE90937D0180937C0140
:100C800066E676E088E990E0E7DE90937B0180936A
:100C90007A0183E39AEFA1EDBAE380937601909312
:100CA0007701A0937801B093790140E050E060EAC9
:100CB00071EC8AE990E084DE6093720170937301B5
:100CC000809374019093750160E08FE965DE8093F5
:100CD0008C03FF90EF90DF90CF9008950FB6F894BB
:100CE000A8958091600088618093600010926000F8
:100CF0000FBE9FE088E10FB6F894A895809360003E
:100D00000FBE90936000F3DE61E082E00E94542207
:100D100060E082E00E94902261E083E00E94542221
:100D200061E085E00E94542261E086E00E94542246
:100D300060E086E00E949022E0DD62E370E080E007
:100D400090E00E9465218FEB94E00E94542040EADD
:100D500056E861E070E08FEB94E00E9463204AE087
:100D600050E060E070E08FEB94E00E94601CA8957A
:100D70000895FF920F931F93CF93DF938C01EB01A4
:100D800077FF06C0D195C195D109FF24F39401C026
:100D9000F12C6C2FC8010DDA6D2FC801019609DA0C
:100DA0006F2DC8010296DF91CF911F910F91FF9097
:100DB00000CA2F923F924F925F926F927F928F92D2
:100DC0009F92AF92BF92CF92DF92EF92FF920F93DA
:100DD0001F93CF93DF93CDB7DEB728970FB6F89464
:100DE000DEBF0FBECDBF7C01962E5E834D836901B1
:100DF00080919103BB24B394803119F0863009F0BF
:100E0000B12C8091DF019091E001A091E101B091BE
:100E1000E2018093D3019093D401A093D501B093C4
:100E2000D6018D2C092D172FAA24A394C6010D2CB1
:100E3000000CAA0BBB0B89839A83AB83BC8322244F
:100E40002394312C402F902F9919A92FB0E0B88707
:100E5000AF83ED81FE81AE17BF0714F00C94A91487
:100E60000536110509F49EC70CF03CC20D31110581
:100E700009F4ADC50CF01CC10E30110509F4AFC466
:100E80000CF08BC00630110509F419C40CF044C0F5
:100E90000230110509F4CBC30CF50115110509F455
:100EA000AEC30130110511F00C949A142F813885CE
:100EB000220F331F2E0D3F1D38872F836091810332
:100EC00070918203809183039091840341E044DD1B
:100ED000AF81B8858D939C930C94A51404301105B3
:100EE00009F4BDC30CF0D3C3EF81F885EE0FFF1FEB
:100EF000EE0DFF1DF887EF8360917D0370917E03F7
:100F000080917F039091800341E026DDAF81B88519
:100F10008D939C930C94A5140A30110509F417C401
:100F2000F4F40830110509F4E2C30CF0F8C3EF81C2
:100F3000F885EE0FFF1FEE0DFF1DF887EF83609120
:100F4000850370918603809187039091880341E027
:100F500003DDAF81B8858D939C930C94A5140C3060
:100F6000110509F40CC40CF022C4EF81F885EE0FD2
:100F7000FF1FEE0DFF1DF887EF83609171037091E5
:100F80007203809173039091740341E0E5DCAF81BB
:100F9000B8858D939C930C94A5140531110509F423
:100FA00086C40CF044C00131110509F448C40CF5A5
:100FB0000F30110509F42BC40031110511F00C9408
:100FC0009A14EF81F885EE0FFF1FEE0DFF1DF887D5
:100FD000EF836091590370915A0380915B03909164
:100FE0005C0340E0B9DCAF81B8858D939C930C9491
:100FF000A514609155037091560380915703909109
:1010000058030331110509F432C40CF040C4EF81D8
:10101000F885EE0FFF1FEE0DFF1DF887EF8340E010
:101020009BDCAF81B8858D939C930C94A5140931FA
:10103000110509F484C4F4F40731110509F44FC40F
:101040000CF065C4EF81F885EE0FFF1FEE0DFF1D5C
:10105000F887EF8360914F037091500380915103A3
:101060009091520340E078DCAF81B8858D939C93DA
:101070000C94A5140B31110509F479C40CF08FC43C
:10108000EF81F885EE0FFF1FEE0DFF1DF887EF8350
:101090006091310370913203809133039091340356
:1010A00040E05ADCAF81B8858D939C930C94A514D5
:1010B0000634110509F493C50CF09AC000331105EC
:1010C00009F4FDC40CF049C00832110509F4AFC49D
:1010D0000CF50E31110509F492C40F31110511F010
:1010E0000C949A14EF81F885EE0FFF1FEE0DFF1D93
:1010F000F887EF8360913503709136038091370351
:101100009091380341E028DCAF81B8858D939C93A2
:101110000C94A5140A32110509F4B9C40CF49FC447
:101120000B32110511F00C949A14EF81F885EE0F33
:10113000FF1FEE0DFF1DF887EF836091250370916F
:101140002603809127039091280341E005DCAF81BD
:10115000B8858D939C930C94A5140C33110509F458
:10116000F6C41CF50A33110509F4C1C40CF0D7C448
:101170000133110511F00C949A14EF81F885EE0FEC
:10118000FF1FEE0DFF1DF887EF8360910C03709138
:101190000D0380910E0390910F0341E0DDDBAF81E1
:1011A000B8858D939C930C94A5140E33110509F406
:1011B000FEC40CF4E4C40F33110511F00C949A141E
:1011C000EF81F885EE0FFF1FEE0DFF1DF887EF830F
:1011D00060914103709142038091430390914403D5
:1011E00041E0BADBAF81B8858D939C930C94A51434
:1011F0000E34110509F483C50CF041C00A34110501
:1012000009F435C5F4F40834110509F400C50CF0EF
:1012100016C5EF81F885EE0FFF1FEE0DFF1DF88755
:10122000EF83609118037091190380911A039091D4
:101230001B0341E091DBAF81B8858D939C930C94A7
:10124000A5140C34110509F42AC50CF040C5EF8132
:10125000F885EE0FFF1FEE0DFF1DF887EF836091FD
:101260006D0370916E0380916F039091700341E064
:1012700073DBAF81B8858D939C930C94A5140235D4
:10128000110509F461C5ACF40035110509F443C535
:101290000CF04DC52F813885220F331F2E0D3F1DB9
:1012A0008091670190916801D9018D939C930C9472
:1012B000A5140336110509F454C50CF05BC50335BC
:1012C000110511F00C949A142F813885220F331FC9
:1012D0002E0D3F1D8091890390E0D9018D939C9341
:1012E0000C94A5140C39110511F40C9443130CF053
:1012F00089C00938110509F4B3C60CF048C00F368F
:10130000110509F4E1C534F50936110509F48DC557
:1013100054F40636110509F45AC50836110509F4C6
:101320006CC50C949A140B36110509F4B0C50CF475
:1013300092C50E36110511F00C949A14EF81F885C0
:10134000EE0FFF1FEE0DFF1D25E030E031832083FF
:101350000C94A5140338110509F40DC664F4013783
:10136000110509F4C7C50CF4BBC50238110509F411
:10137000DAC50C949A140738110509F448C60CF024
:101380005BC60638110509F42EC60C949A1404396C
:10139000110511F40C94D811DCF40C38110509F482
:1013A000ECC654F40A38110509F46FC60B38110560
:1013B00009F4A7C60C949A140E38110509F470C7E5
:1013C0000CF417C70F38110509F4BBC70C949A1415
:1013D0000839110511F40C94B31254F406391105AF
:1013E00011F40C94551214F40C9416120C949612D9
:1013F0000A39110511F40C94131314F40C94DB1234
:101400000C942B13083C110511F40C94CE130CF022
:101410006CC00C3B110511F40C9497136CF50A3B4E
:1014200011058CF4043B110514F00C947B130D3959
:10143000110511F40C944F130E39110511F40C948D
:101440005D130C949A140A3B110511F40C948A1341
:101450000B3B110511F00C949A142F813885220F43
:10146000331F2E0D3F1D8091030390910403D9017A
:101470008D939C930C94A514043C1105CCF4023C70
:10148000110514F00C94B6130D3B110511F00C94DA
:10149000A4132F813885220F331F2E0D3F1D8091FD
:1014A000FF0290910003D9018D939C930C94A51495
:1014B000063C110514F00C949A14EF81F885EE0F98
:1014C000FF1FEE0DFF1DF887EF83445C6091F20172
:1014D0007091F3018091F4019091F5013DDAAF81B3
:1014E000B8858D939C930C94A5140231F2E01F07EC
:1014F00011F40C940B140CF040C0073B31E01307BF
:101500000CF5003981E0180714F00C94FC130A3C28
:10151000110511F40C94E81314F40C94DB130F3838
:1015200091E0190711F00C949A14EF81F885EE0FF1
:10153000FF1FEE0DFF1D8091630190E0918380837A
:101540000C94A514C801825C91408731910510F07C
:101550000C949A14EF81F885EE0FFF1FEE0DFF1D1E
:10156000F887EF83FC01EE56FE4F808190E0AF815B
:10157000B8858D939C930C94A5140235A2E01A07AC
:1015800011F40C9453143CF50431E2E01E0711F4FD
:101590000C943B1414F40C942314053122E012072C
:1015A00011F00C949A14EF81F885EE0FFF1FEE0DE9
:1015B000FF1DF887EF8360911003709111038091F4
:1015C00012039091130341E0C7D9AF81B8858D9381
:1015D0009C930C94A514003233E0130711F40C947F
:1015E0007B14043883E0180711F40C949314083525
:1015F00092E0190711F00C949A140C946414AF81C2
:10160000B885AA0FBB1FAE0DBF1DB887AF83609111
:10161000810370918203809183039091840340E061
:101620009BD9EF81F885918380830C94A514EF8179
:10163000F885EE0FFF1FEE0DFF1DF887EF83609119
:101640007D0370917E0380917F039091800340E041
:1016500083D9AF81B8858D939C930C94A514EF81A9
:10166000F885EE0FFF1FEE0DFF1DF887EF836091E9
:10167000790370917A0380917B0390917C0340E021
:101680006BD9AF81B8858D939C930C94A514EF8191
:10169000F885EE0FFF1FEE0DFF1DF887EF836091B9
:1016A000790370917A0380917B0390917C0341E0F0
:1016B00053D9AF81B8858D939C930C94A514EF8179
:1016C000F885EE0FFF1FEE0DFF1DF887EF83609189
:1016D000850370918603809187039091880340E091
:1016E0003BD9AF81B8858D939C930C94A514EF8161
:1016F000F885EE0FFF1FEE0DFF1DF887EF83609159
:10170000750370917603809177039091780340E0A0
:1017100023D9AF81B8858D939C930C94A514EF8148
:10172000F885EE0FFF1FEE0DFF1DF887EF83609128
:10173000750370917603809177039091780341E06F
:101740000BD9AF81B8858D939C930C94A514EF8130
:10175000F885EE0FFF1FEE0DFF1DF887EF836091F8
:10176000710370917203809173039091740340E050
:10177000F3D8AF81B8858D939C930C94A514EF8119
:10178000F885EE0FFF1FEE0DFF1DF887EF836091C8
:10179000610370916203809163039091640340E060
:1017A000DBD8AF81B8858D939C930C94A514EF8101
:1017B000F885EE0FFF1FEE0DFF1DF887EF83609198
:1017C000610370916203809163039091640341E02F
:1017D000C3D8AF81B8858D939C930C94A514EF81E9
:1017E000F885EE0FFF1FEE0DFF1DF887EF83609168
:1017F0005D0370915E0380915F039091600340E010
:10180000ABD8AF81B8858D939C930C94A514EF81D0
:10181000F885EE0FFF1FEE0DFF1DF887EF83609137
:101820005D0370915E0380915F039091600341E0DE
:1018300093D8AF81B8858D939C930C94A514EF81B8
:10184000F885EE0FFF1FEE0DFF1DF887EF83609107
:10185000590370915A0380915B0390915C0341E0BE
:101860007BD8AF81B8858D939C930C94A514EF81A0
:10187000F885EE0FFF1FEE0DFF1DF887EF8341E0A7
:101880006BD8AF81B8858D939C930C94A514EF8190
:10189000F885EE0FFF1FEE0DFF1DF887EF8340E088
:1018A0005BD8AF81B8858D939C930C94A514EF8180
:1018B000F885EE0FFF1FEE0DFF1DF887EF83609197
:1018C000550370915603809157039091580341E05E
:1018D00043D8AF81B8858D939C930C94A514EF8168
:1018E000F885EE0FFF1FEE0DFF1DF887EF83609167
:1018F0004F0370915003809151039091520341E046
:101900002BD8AF81B8858D939C930C94A514EF814F
:10191000F885EE0FFF1FEE0DFF1DF887EF83609136
:101920002D0370912E0380912F039091300340E09E
:1019300013D8AF81B8858D939C930C94A514EF8137
:10194000F885EE0FFF1FEE0DFF1DF887EF83609106
:101950002D0370912E0380912F039091300341E06D
:101960000E94AC04AF81B8858D939C93EEC7EF8144
:10197000F885EE0FFF1FEE0DFF1DF887EF836091D6
:10198000310370913203809133039091340341E02D
:101990000E94AC04AF81B8858D939C93D6C7EF812C
:1019A000F885EE0FFF1FEE0DFF1DF887EF836091A6
:1019B0001D0370911E0380911F039091200340E04E
:1019C0000E94AC04AF81B8858D939C93BEC7EF8114
:1019D000F885EE0FFF1FEE0DFF1DF887EF83609176
:1019E0001D0370911E0380911F039091200341E01D
:1019F0000E94AC04AF81B8858D939C93A6C7EF81FC
:101A0000F885EE0FFF1FEE0DFF1DF887EF83609145
:101A1000350370913603809137039091380340E08D
:101A20000E94AC04AF81B8858D939C938EC7EF81E3
:101A3000F885EE0FFF1FEE0DFF1DF887EF83609115
:101A4000290370912A0380912B0390912C0340E08D
:101A50000E94AC04AF81B8858D939C9376C7EF81CB
:101A6000F885EE0FFF1FEE0DFF1DF887EF836091E5
:101A7000290370912A0380912B0390912C0341E05C
:101A80000E94AC04AF81B8858D939C935EC7EF81B3
:101A9000F885EE0FFF1FEE0DFF1DF887EF836091B5
:101AA000250370912603809127039091280340E03D
:101AB0000E94AC04AF81B8858D939C9346C7EF819B
:101AC000F885EE0FFF1FEE0DFF1DF887EF83609185
:101AD0000C0370910D0380910E0390910F0340E071
:101AE0000E94AC04AF81B8858D939C932EC7EF8183
:101AF000F885EE0FFF1FEE0DFF1DF887EF83609155
:101B0000490370914A0380914B0390914C0340E04C
:101B10000E94AC04AF81B8858D939C9316C7EF816A
:101B2000F885EE0FFF1FEE0DFF1DF887EF83609124
:101B3000490370914A0380914B0390914C0341E01B
:101B40000E94AC04AF81B8858D939C93FEC6EF8153
:101B5000F885EE0FFF1FEE0DFF1DF887EF836091F4
:101B6000450370914603809147039091480340E0FC
:101B70000E94AC04AF81B8858D939C93E6C6EF813B
:101B8000F885EE0FFF1FEE0DFF1DF887EF836091C4
:101B9000450370914603809147039091480341E0CB
:101BA0000E94AC04AF81B8858D939C93CEC6EF8123
:101BB000F885EE0FFF1FEE0DFF1DF887EF83609194
:101BC000410370914203809143039091440340E0AC
:101BD0000E94AC04AF81B8858D939C93B6C6EF810B
:101BE000F885EE0FFF1FEE0DFF1DF887EF83609164
:101BF00018037091190380911A0390911B0340E020
:101C00000E94AC04AF81B8858D939C939EC6EF81F2
:101C1000F885EE0FFF1FEE0DFF1DF887EF83609133
:101C2000140370911503809116039091170340E0FF
:101C30000E94AC04AF81B8858D939C9386C6EF81DA
:101C4000F885EE0FFF1FEE0DFF1DF887EF83609103
:101C5000140370911503809116039091170341E0CE
:101C60000E94AC04AF81B8858D939C936EC6EF81C2
:101C7000F885EE0FFF1FEE0DFF1DF887EF836091D3
:101C80006D0370916E0380916F039091700340E03B
:101C90000E94AC04AF81B8858D939C9356C6EF81AA
:101CA000F885EE0FFF1FEE0DFF1DF887EF836091A3
:101CB000690370916A0380916B0390916C0340E01B
:101CC0000E94AC04AF81B8858D939C933EC6EF8192
:101CD000F885EE0FFF1FEE0DFF1DF887EF83609173
:101CE000690370916A0380916B0390916C0341E0EA
:101CF0000E94AC04AF81B8858D939C9326C6EF817A
:101D0000F885EE0FFF1FEE0DFF1D8091690190E039
:101D1000918380831AC6EF81F885EE0FFF1FEE0DC9
:101D2000FF1D80916A0190E0918380830EC62F8110
:101D30003885220F331F2E0D3F1D8091660190E0E4
:101D4000D9018D939C9301C6EF81F885EE0FFF1F9B
:101D5000EE0DFF1D80916401909165019183808358
:101D6000F4C5EF81F885EE0FFF1FEE0DFF1DD18248
:101D7000C082EBC5BB2049F0C0920301C0928F0323
:101D80006C2D84E690E00E94D9002F813885220FC7
:101D9000331F2E0D3F1D8091030190E0D9018D93DB
:101DA0009C93D3C5BB2039F0C092ED016C2D85E624
:101DB00090E00E94D900EF81F885EE0FFF1FEE0D35
:101DC000FF1D8091ED0190E091838083BEC5BB2013
:101DD00039F0C092EC016C2D86E690E00E94D900AB
:101DE0002F813885220F331F2E0D3F1D8091EC016E
:101DF00090E0D9018D939C93A8C5BB2049F0D09267
:101E0000EA01C092E901B60188E690E00E94480527
:101E1000EF81F885EE0FFF1FEE0DFF1D8091E901A8
:101E20009091EA019183808390C5BB2039F0C092E4
:101E3000EB016C2D89E690E00E94D9002F81388556
:101E4000220F331F2E0D3F1D8091EB0190E0D90131
:101E50008D939C937AC5BB2069F08091D201882331
:101E600049F0D092EF01C092EE01B6018CE690E00D
:101E70000E9448058091EE019091EF01EF81F88575
:101E8000EE0FFF1FEE0DFF1D918380835EC5BB200B
:101E900069F08091D201882349F0D092F101C0927B
:101EA000F001B6018AE690E00E9448058091F001B9
:101EB0009091F1012F813885220F331F2E0D3F1D88
:101EC000D9018D939C9341C58F819885880F991F67
:101ED0008E0D9F1DEFE0F0E0DC01ED93FC9335C526
:101EE0002F813885220F331F2E0D3F1DD9012D92D2
:101EF0003C922BC5BB2059F08091D201882339F048
:101F0000C0928D016C2D81E790E00E94D900EF8195
:101F1000F885EE0FFF1FEE0DFF1D80918D0190E003
:101F20009183808312C5BB2071F08091D2018823F8
:101F300051F0682D84E890E00E94D9006C2D85E86E
:101F400090E00E94D9002F813885220F331F2E0D7B
:101F50003F1D38872F836091E5017091E6018091E4
:101F6000E7019091E80140E00E94AC04AF81B885A0
:101F70008D939C93EAC4BB20F1F08091D201882319
:101F8000D1F0682D82E890E00E94D9006C2D83E8A2
:101F900090E00E94D9004BEC51EA65EC70E482E8D5
:101FA00090E00E94E0046093E5017093E601809365
:101FB000E7019093E801EF81F885EE0FFF1FEE0D2A
:101FC000FF1DF887EF836091E5017091E601809134
:101FD000E7019091E80141E00E94AC04AF81B8852F
:101FE0008D939C93B2C4BB2031F06091540386E87A
:101FF00090E00E94D900EF81F885EE0FFF1FEE0DF3
:10200000FF1D8091540390E0918380839EC4BB2088
:1020100031F06091530387E890E00E94D9002F814E
:102020003885220F331F2E0D3F1D8091530390E002
:10203000D9018D939C9389C4BB2031F060914D03ED
:1020400088E890E00E94D900EF81F885EE0FFF1F2D
:10205000EE0DFF1D80914D0390E09183808375C448
:10206000BB2031F060914E0389E890E00E94D900D6
:102070002F813885220F331F2E0D3F1D80914E0377
:1020800090E0D9018D939C9360C4BB20E9F08091CE
:10209000D2018823C9F069817A818B819C810E9459
:1020A0004D292DEC3CEC4CEC5DE30E944C2A6093F6
:1020B00088017093890180938A0190938B01B60106
:1020C0008AE890E00E94B906EF81F885EE0FFF1FC5
:1020D000EE0DFF1DF887EF8320E030E040E251E491
:1020E000609188017091890180918A0190918B01A2
:1020F0000E944C2A0E941A29AF81B8856D937C9367
:1021000024C4BB20E9F08091D2018823C9F0698101
:102110007A818B819C810E944D292AE037ED43E230
:102120005CE30E944C2A6093840170938501809344
:10213000860190938701B6018DE890E00E94B90670
:10214000EF81F885EE0FFF1FEE0DFF1DF887EF837F
:1021500020E030E048EC52E4609184017091850108
:1021600080918601909187010E944C2A0E941A2931
:10217000AF81B8856D937C93E8C3BB20E9F0809173
:10218000D2018823C9F069817A818B819C810E9468
:102190004D292FE632E143E85AE30E944C2A60932E
:1021A0008001709381018093820190938301B60135
:1021B00080E990E00E94B906EF81F885EE0FFF1FDD
:1021C000EE0DFF1DF887EF8320E030E04AE754E48E
:1021D00060918001709181018091820190918301D1
:1021E0000E944C2A0E941A29AF81B8856D937C9376
:1021F000ACC3BB20C1F18091D2018823A1F16981D8
:102200007A818B819C810E944D292AE037ED43E23F
:102210005CE30E944C2A2091840130918501409119
:102220008601509187010E944928209165033091D1
:10223000660340916703509168030E94B22860933F
:10224000800170938101809382019093830120E04B
:1022500030E04AE754E40E944C2A0E941A2980E99F
:1022600090E00E94B906EF81F885EE0FFF1FEE0D9A
:10227000FF1DF887EF8320E030E04AE754E46091E7
:1022800080017091810180918201909183010E946F
:102290004C2A0E941A29AF81B8856D937C9355C34F
:1022A000BB2091F18091D201882371F120916503C7
:1022B00030916603409167035091680360918001FB
:1022C0007091810180918201909183010E944C2A3A
:1022D0009B01AC016AE077ED83E29CE30E94492810
:1022E00060938401709385018093860190938701A8
:1022F00020E030E048EC52E40E944C2A0E941A2967
:102300008DE890E00E94B906EF81F885EE0FFF1F7F
:10231000EE0DFF1DF887EF8320E030E048EC52E43B
:10232000609184017091850180918601909187016F
:102330000E944C2A0E941A29AF81B8856D937C9324
:1023400004C3BB2061F18091D201882341F1109236
:10235000840110928501109286011092870160E03D
:1023600070E08DE890E00E94B90680E090E0A0E87F
:10237000BFE38093800190938101A0938201B09389
:10238000830168EE73E080E990E00E94B906EF8176
:10239000F885EE0FFF1FEE0DFF1D31822082AF8109
:1023A000B885AA0FBB1FAE0DBF1D1D921C92CDC2DA
:1023B000BB2081F18091D201882361F1C0927F011D
:1023C0006C2D84E990E00E94D90080917E0160919B
:1023D0007F0170E0680F711D072E000C880B990BB0
:1023E0000E944D292B013C0160917C0170917D017F
:1023F00080E090E00E944B299B01AC01C301B20137
:102400000E94B228609376017093770180937801DF
:1024100090937901EF81F885EE0FFF1FEE0DFF1D00
:1024200080917F0190E0918380838FC2BB2081F1F6
:102430008091D201882361F1C0927E016C2D85E9E3
:1024400090E00E94D90080917E0160917F0170E050
:10245000680F711D072E000C880B990B0E944D29E7
:102460002B013C0160917C0170917D0180E090E046
:102470000E944B299B01AC01C301B2010E94B2280A
:10248000609376017093770180937801909379013E
:102490002F813885220F331F2E0D3F1D80917E0125
:1024A00090E0D9018D939C9350C2BB2091F1809113
:1024B000D201882371F1D0927D01C0927C01B601D6
:1024C00086E990E00E94480580917E0160917F013D
:1024D00070E0680F711D072E000C880B990B0E948D
:1024E0004D292B013C0160917C0170917D0180E0C0
:1024F00090E00E944B299B01AC01C301B2010E94F4
:10250000B22860937601709377018093780190935D
:102510007901EF81F885EE0FFF1FEE0DFF1D809111
:102520007C0190917D01918380830FC2BB2069F073
:102530008091D201882349F0D0927B01C0927A0128
:10254000B60186E990E00E9448052F813885220F68
:10255000331F2E0D3F1D80917A0190917B01D9018F
:102560008D939C93F2C1BB2071F08091D20188239E
:1025700051F0682D8CE990E00E94D9006C2D8DE916
:1025800090E00E94D900EF81F885EE0FFF1FEE0D5D
:10259000FF1DF887EF836091720170917301809144
:1025A00074019091750140E00E94AC04AF81B88540
:1025B0008D939C93CAC1BB20F1F08091D2018823F6
:1025C000D1F0682D8AE990E00E94D9006C2D8BE94A
:1025D00090E00E94D90040E050E060EA71EC8AE9A6
:1025E00090E00E94E0046093720170937301809305
:1025F000740190937501EF81F885EE0FFF1FEE0DCA
:10260000FF1DF887EF8360917201709173018091D3
:1026100074019091750141E00E94AC04AF81B885CE
:102620008D939C9392C1EF81F885EE0FFF1FEE0D05
:10263000FF1DF887EF8360916E0170916F018091AB
:1026400070019091710140E00E94AC04AF81B885A7
:102650008D939C937AC1EF81F885EE0FFF1FEE0DED
:10266000FF1DF887EF8360916E0170916F0180917B
:1026700070019091710141E00E94AC04AF81B88576
:102680008D939C9362C1EF81F885EE0FFF1FEE0DD5
:10269000FF1D8091620190E09183808356C18091FB
:1026A0008D0390918E032F813885220F331F2E0DBD
:1026B0003F1DD9018D939C9348C1BB2081F080912F
:1026C000D201882361F06C2D8FE990E00E94D9003F
:1026D000C0928C0360E070E083E00E94CE21EF8125
:1026E000F885EE0FFF1FEE0DFF1D80918C0390E02B
:1026F000918380832AC12F813885220F331F2E0DAD
:102700003F1DF801E656FF4F808190E0D9018D937F
:102710009C931BC1EF81F885EE0FFF1FEE0DFF1D8F
:102720008091050390910603918380830EC1EF8110
:10273000F885EE0FFF1FEE0DFF1D809101039091B4
:1027400002039183808301C1EF81F885EE0FFF1FA3
:10275000EE0DFF1DF887EF83F801E656FF4F8081ED
:1027600090E0AF81B8858D939C93EFC0EF81F885A1
:10277000EE0FFF1FEE0DFF1DF887EF83425C6091A7
:10278000F6017091F7018091F8019091F9010E9492
:10279000AC04AF81B8858D939C93D7C080918A0398
:1027A00090918B03EF81F885EE0FFF1FEE0DFF1D5B
:1027B00091838083CAC0BB2009F4C7C0F1E0CF1663
:1027C000D10409F0C2C010928B0310928A03BDC0DD
:1027D000BB2041F021E0C216D10421F4A092E40113
:1027E000A092E3018F819885880F991F8E0D9F1D00
:1027F000DC011D921C92A9C02F813885220F331F46
:102800002E0D3F1DF801E65EFF4F808190E0D9015B
:102810008D939C939AC0EF81F885EE0FFF1FEE0D0C
:10282000FF1DF887EF836091080370910903809181
:102830000A0390910B0340E00E94AC04AF81B8857D
:102840008D939C9382C0EF81F885EE0FFF1FEE0DF4
:10285000FF1DF887EF836091080370910903809151
:102860000A0390910B0341E00E94AC04AF81B8854C
:102870008D939C936AC0EF81F885EE0FFF1FEE0DDC
:10288000FF1DF887EF836091100370911103809111
:1028900012039091130340E00E94AC04AF81B8850D
:1028A0008D939C9352C0BB2031F0B1E0CB16D10484
:1028B00011F4A092E401EF81F885EE0FFF1FEE0DF9
:1028C000FF1D1182108241C0BB2031F0F1E0CF1614
:1028D000D10411F4A0928C0180918C012F81388554
:1028E000220F331F2E0D3F1D90E0880F991FD90135
:1028F0008D939C932AC0BB2051F0B2EACB16B8E06E
:10290000DB0619F4A092D20102C01092D201EF812D
:10291000F885EE0FFF1FEE0DFF1D8091D20190E0B4
:102920009183808312C0F894E0910101F09102013B
:1029300009950BC02F813885220F331F2E0D3F1DA7
:10294000EFEFFFEFD901ED93FC930F5F1F4F0C9456
:10295000220728960FB6F894DEBF0FBECDBFDF91D9
:10296000CF911F910F91FF90EF90DF90CF90BF908C
:10297000AF909F908F907F906F905F904F903F901F
:102980002F9008954F925F926F927F928F929F92B5
:10299000AF92BF92CF92DF92EF92FF92CF93DF93ED
:1029A00000D000D0CDB7DEB720916503309166032B
:1029B000409167035091680360918001709181019B
:1029C00080918201909183010E944C2A2091840180
:1029D0003091850140918601509187010E944A28DB
:1029E00060930C0370930D0380930E0390930F0379
:1029F0002AE037ED43E25CE30E94AE2887FF10C077
:102A00008AE097EDA3E2BCE380930C0390930D035F
:102A1000A0930E03B0930F0381E08093070302C0DD
:102A200010920703C0906103D0906203E0906303AB
:102A3000F090640322EA3CEE42EF50E4C701B60195
:102A40000E944C2A4B015C012FEE39EB40E753E426
:102A5000C701B6010E944A289B01AC01C501B4011F
:102A60000E94B2289B01AC0160E070E080E291E43A
:102A70000E94AF2A22EE39EB43EC50E40E944C2A2C
:102A80004B015C0160933D0370933E0380933F03D1
:102A90009093400380910C0390910D03A0910E033D
:102AA000B0910F0389839A83AB83BC839C01AD01F2
:102AB000C501B4010E944C2A2AE037ED43E25CE3F1
:102AC0000E944C2A6B017C016093390370933A0396
:102AD00080933B0390933C0322EE39EB43EC50E4AC
:102AE0000E94B2280E94012A9B01AC0162EA7CEE9E
:102AF00082EF90E40E94B22820E030E040E85FE3FB
:102B00000E9449289B01AC016FEE79EB80E793E4CA
:102B10000E94B2282B013C0120E030E042E852EC58
:102B20000E94AE2887FD09C04092350350923603BB
:102B300060923703709238030CC080E090E0A2E806
:102B4000B2EC8093350390933603A0933703B09390
:102B5000380320913503309136034091370350916B
:102B600038036AEE7DE385E19CE30E94492820E872
:102B70003DE048E85BE30E944C2A9B01AC016DE418
:102B80007EE984EA9FE30E9449280E94FF2A27EBFE
:102B900038E241E95FE30E94492820E83DE048E04F
:102BA0005BE30E94B2282B013C0120E030E0A90148
:102BB0000E94FD2918164CF040921D0350921E03EE
:102BC00060921F037092200308C010921D031092A0
:102BD0001E0310921F031092200340906D0350902B
:102BE0006E0360906F037090700320E030E048EC5B
:102BF00052E469817A818B819C810E944C2AA301D5
:102C000092010E94B2289B01AC0160932103709352
:102C100022038093230390932403C501B4010E94EF
:102C20004C2A2AE037ED43E25CE30E944C2A22EE74
:102C300039EB43EC50E40E94B2280E94012A9B0128
:102C4000AC0162EA7CEE82EF90E40E94B22820E0C0
:102C500030E040E85FE30E9449289B01AC016FEE41
:102C600079EB80E793E40E94B2289B01AC0160936A
:102C700031037093320380933303909334036AEEED
:102C80007DE385E19CE30E94492820E83DE048E897
:102C90005BE30E944C2A9B01AC016DE47EE984EA6F
:102CA0009FE30E9449280E94FF2A27EB38E241E96E
:102CB0005FE30E94492820E83DE048E05BE30E9492
:102CC000B2284B015C0120E030E0A9010E94FD29FF
:102CD00018164CF080922D0390922E03A0922F0391
:102CE000B092300308C010922D0310922E03109260
:102CF0002F031092300320E034E244E759E4C70187
:102D0000B6010E944C2A4B015C0120E030E040E219
:102D100051E4C301B2010E944C2AA70196010E940E
:102D200049289B01AC01C501B4010E94B2286093FF
:102D3000290370932A0380932B0390932C032BE495
:102D40003FE140E951E40E944C2A2CE53FE042E19A
:102D500053E40E94B2286093250370932603809366
:102D60002703909328030F900F900F900F90DF91FF
:102D7000CF91FF90EF90DF90CF90BF90AF909F905A
:102D80008F907F906F905F904F9008950F931F9357
:102D9000CF93DF9364E470E08FEB94E00E947020A7
:102DA00064E28FEB94E00E94162060E08FEB94E0E9
:102DB0000E9416208FEB94E00E94E5208093890307
:102DC00086E990E00E9489218091890381117AC06F
:102DD00046E064E48FEB94E00E94E320CEE4D1E08F
:102DE00004E511E08FEB94E00E94901F89930C178B
:102DF0001D07C1F7C091500162E08EE491E00E948E
:102E0000BC03C81721F088E5809389035BC0C0919B
:102E1000530162E081E591E00E94BC03C813F3CF47
:102E200060914E0170E0762F662780914F01680F08
:102E3000711D70930403609303038091510190E02E
:102E4000982F882720915201EC01C20FD11DD093F9
:102E50000603C093050380E090E00E944B2920E028
:102E600030E04FE253E40E944C2A20E03FEF4FE76E
:102E700057E40E94B22820E030E044E352E40E948C
:102E80004928609308037093090380930A03909381
:102E90000B03BE0180E090E00E944B2920E030E06F
:102EA00048EC52E40E944C2A20E03FEF4FE757E401
:102EB0000E94B22860931003709311038093120351
:102EC00090931303DF91CF911F910F910895CF93AA
:102ED000DF93609100018FEB94E00E94662060E533
:102EE0008FEB94E00E9416208FEB94E00E94E52087
:102EF00080936A01811173C044E0609100018FEBFF
:102F000094E00E94E320C8E5D1E08FEB94E00E94BA
:102F1000901F899381E0CC35D807B9F760915801AB
:102F20006F7370E0762F662780915901682B70933C
:102F30000203609301036656764080E090E00E94B1
:102F40004B2923E33AEF41ED5AE30E944C2A20E05B
:102F500030E040E85FE30E94492820E030E048ECA0
:102F600052E40E944C2A20E030E048EC52E40E94F7
:102F70004A286093F6017093F7018093F8019093CB
:102F8000F90160915A0188E0689FB0011124809195
:102F90005B01829586958770682B70930003609320
:102FA000FF0280E090E00E944B2920E030E048E4FE
:102FB00053E40E944C2A20E030EE4FEF54E40E948C
:102FC000B22820E030E048E452E40E9449286093AF
:102FD000F2017093F3018093F4019093F50186E977
:102FE00090E0DF91CF910C9489214F925F926F9284
:102FF0007F928F929F92AF92BF92CF92DF92EF9289
:10300000FF920F931F93E0916B018E2F90E0FC01D4
:103010003197EE30F10508F0CFC1EC5CFF4F0C9416
:103020002F2861E086E00E94902282E0D1C083E0F8
:10303000CFC04DDF84E0CCC085E080936B018091F0
:10304000DF019091E001A091E101B091E201809354
:103050008E0190938F01A0939001B0939101ACC128
:103060008091DF019091E001A091E101B091E20136
:1030700040918E0150918F0160919001709191016A
:10308000841B950BA60BB70B85369105A105B105E1
:1030900008F492C187E09CC079DE19C08091DF01FD
:1030A0009091E001A091E101B091E20140918E0187
:1030B00050918F016091900170919101841B950B4B
:1030C000A60BB70BC397A105B10508F475C18AE03B
:1030D0007FC060E086E00E94902280916A018111A9
:1030E00022C08091690181111EC080916D01811102
:1030F0001AC0E0901003F090110300911203109198
:1031000013032091F2013091F3014091F4015091A9
:10311000F5016091F6017091F7018091F8019091AD
:10312000F9010E94DB000E946801E0901003F0901A
:10313000110300911203109113032091F2013091B9
:10314000F3014091F4015091F5016091F601709105
:10315000F7018091F8019091F9010E94CF038BE073
:1031600037C00E9442018CE033C00E9478028091F7
:103170004F0290915002A0915102B091520280935F
:103180006D0390936E03A0936F03B09370038091CF
:10319000530290915402A0915502B091560280932F
:1031A000690390936A03A0936B03B0936C038091BF
:1031B000570290915802A0915902B0915A028093FF
:1031C000650390936603A0936703B09368038EE052
:1031D00080936B01F1C0C0906D03D0906E03E090BE
:1031E0006F03F09070032AE037ED43E25CE3C70120
:1031F000B6010E944C2A4B015C01609381037093DD
:10320000820380938303909384032DEC3CEC4CEC7D
:103210005DE30E944C2A60937D0370937E0380934C
:103220007F039093800320E030E04AE754E4C70135
:10323000B6010E944C2A6093790370937A038093BD
:103240007B0390937C03C0928503D0928603E09227
:103250008703F092880327ED34E844E15EE3C70179
:10326000B6010E944C2A6093750370937603809395
:103270007703909378032DEC3CEC4CEC5DE3C701B5
:10328000B6010E944C2A609371037093720380937D
:10329000730390937403C0906903D0906A03E09025
:1032A0006B03F0906C03C0926103D0926203E092D2
:1032B0006303F092640323E333E948E853E4C7016E
:1032C000B6010E944A282B013C0160935D03709374
:1032D0005E0380935F039093600326E636E646EE36
:1032E0005FE3C701B6010E944C2A20E030E040E0D5
:1032F00052E40E944A286093590370935A038093C2
:103300005B0390935C03A301920163E373E982E999
:1033100093E40E94B228A50194010E944C2A6B01FB
:103320007C0160934F0370935003809351039093FB
:10333000520320E030E040E85FE30E9449286093B8
:10334000490370934A0380934B0390934C032DECF5
:103350003CEC4CEC5DE3C701B6010E944C2A609343
:1033600045037093460380934703909348032DECE5
:103370003CEC4CEC5DE30E94492860934103709360
:1033800042038093430390934403A7019601609105
:10339000E5017091E6018091E7019091E8010E94BA
:1033A0004C2A609355037093560380935703909370
:1033B0005803E8DA10926B011F910F91FF90EF9084
:1033C000DF90CF90BF90AF909F908F907F906F9045
:1033D0005F904F9008950F931F938091DF0190911C
:1033E000E001A091E101B091E2014091DB01509137
:1033F000DC016091DD017091DE018C019D01041BF7
:10340000150B260B370B093711052105310570F017
:103410008093DB019093DC01A093DD01B093DE018A
:10342000E4DD8091E40181110E9450031F910F910E
:1034300008951AD76093DF017093E0018093E10152
:103440009093E20120918C01213071F422E02093CD
:103450008C010FB6F894A895209160002861209304
:103460006000109260000FBE693B7B4081059105B2
:1034700038F080916C01811103C081E080936C0170
:1034800080916C01882349F00E9466030E948B039F
:10349000A2DF8FE893E00E941427A8950895FC010D
:1034A00024853585F901E05CFF4F8081918132965A
:1034B00020813181805C9F4F821B930B60E470E020
:1034C0000C94FA27DC011C96ED91FC911D97DF010D
:1034D000A05CBF4F2D913C91119712968D919C91BC
:1034E00011972817390739F08D919C91E80FF91F32
:1034F000808190E008958FEF9FEF0895FC01A485EF
:10350000B585FD01E05CFF4F2081318132968081DD
:1035100091812817390779F080819181A80FB91F0F
:103520008C91208131812F5F3F4F2F73332731835F
:10353000208390E008958FEF9FEF0895FC0181A113
:10354000882329F0A489B5898C9186FFFBCF11A22D
:1035500008950F931F93CF93DF93FC01A685B78542
:103560008D01005C1F4FE8018881998101968F735E
:103570009927AD014E5B5F4FEA012881398182179F
:103580009307D1F3E80128813981A20FB31F6C930F
:10359000A685B785A05CBF4F11969C938E93A68994
:1035A000B7892C9181E090E0078C02C0880F991FA9
:1035B0000A94E2F7822B8C9381E081A30488F58939
:1035C000E02D80818064808381E090E0DF91CF9165
:1035D0001F910F91089508951F920F920FB60F92A9
:1035E00011242F934F935F938F939F93EF93FF93A8
:1035F0008091C00082FD1CC02091C60080914204D1
:103600009091430401968F739927409144045091FF
:1036100045048417950771F0E0914204F09143044A
:10362000EE5FFB4F2083909343048093420402C0DB
:103630008091C600FF91EF919F918F915F914F9183
:103640002F910F900FBE0F901F9018958CE993E06B
:1036500026DF892B09F0BFCF08951F920F920FB676
:103660000F9211242F933F938F939F93EF93FF9388
:103670002091FE033091FF0380910004909101049A
:103680002817390731F48091C1008F7D8093C100E4
:1036900014C0E0910004F0910104E254FC4F208139
:1036A000809100049091010401968F739927909363
:1036B0000104809300042093C600FF91EF919F9135
:1036C0008F913F912F910F900FBE0F901F901895E3
:1036D000CF92DF92EF92FF921F93CF93DF93EC0193
:1036E0006A017B01122F4115514E6105710509F1E7
:1036F000EC89FD8981E090E008A002C0880F991F45
:103700000A94E2F7808360E079E08DE390E0A7011E
:1037100096010E940D28DA01C9010197A109B1099A
:10372000B695A795979587959C01211580E1380757
:10373000A8F0EC89FD89108260E874E88EE190E0E1
:10374000A70196010E940D28DA01C9010197A1097C
:10375000B109B695A795979587959C01E889F98950
:103760003083EA89FB892083E88DF98D1083EE8907
:10377000FF89408181E090E09C010C8C02C0220F07
:10378000331F0A94E2F7242B2083EE89FF894081BE
:103790009C010D8C02C0220F331F0A94E2F7242BE8
:1037A0002083EE89FF8940819C010E8C02C0220F8C
:1037B000331F0A94E2F7242B2083EE89FF892081AE
:1037C0000F8C02C0880F991F0A94E2F7809582231C
:1037D0008083DF91CF911F91FF90EF90DF90CF908A
:1037E0000895ECE9F3E01382128288EE93E0A0E002
:1037F000B0E084839583A683B78381E391E09183CE
:10380000808382E094E0958784878EEB93E09787AE
:10381000868785EC90E0918B808B84EC90E0938B95
:10382000828B80EC90E0958B848B81EC90E0978B81
:10383000868B82EC90E0918F808F86EC90E0938F66
:10384000828F84E0848F83E0858F87E0868F85E098
:10385000878F81E080A30895089565D5FDDF0E94DC
:103860006E06C6E2DBE1E5DD2097E9F3EFDEFBCF94
:10387000CF92DF92EF92FF920F931F93CF93DF933C
:103880006C01EB017B01E40EF51E00E010E0CE15AB
:10389000DF0561F06991D601ED91FC910190F08115
:1038A000E02DC6010995080F191FF1CFC801DF915E
:1038B000CF911F910F91FF90EF90DF90CF900895DF
:1038C000FC0144835583668377830895813039F002
:1038D00018F0823051F0089510926E000895809192
:1038E0006F008D7F80936F000895809170008D7FB1
:1038F0008093700081E08093B0008091B100887F58
:1039000084608093B1001092B3000895CF93C82FC4
:1039100080910401C81307C0E6E0F1E084919FEFB5
:103920009093040101C08FEFD1DF60E08C2FCF9125
:10393000F7C51F920F920FB60F9211242F933F934A
:103940004F935F936F937F938F939F93AF93BF93A7
:10395000EF93FF938091490490914A04A0914B0406
:10396000B0914C04892B8A2B8B2B51F190914604FA
:10397000E0914704F09148048081892780838091F9
:10398000490490914A04A0914B04B0914C0418163C
:1039900019061A061B06BCF48091490490914A044A
:1039A000A0914B04B0914C040197A109B1098093F7
:1039B000490490934A04A0934B04B0934C0403C071
:1039C00080910401A3DFFF91EF91BF91AF919F918F
:1039D0008F917F916F915F914F913F912F910F90B8
:1039E0000FBE0F901F9018951092BA0481E080933B
:1039F000B8041092B70461E082E192D561E083E1FE
:103A00008FD5E9EBF0E080818E7F808380818D7F90
:103A1000808388E48093B80085E48093BC00089597
:103A20009B01AC0160E074E284EF90E00E940D28FD
:103A3000DA01C9014097A109B109B695A7959795F3
:103A400087958093B8000895413208F043C0909163
:103A5000BA049111FCCF91E09093BA042093B8047A
:103A60002FEF20934D0410929204240F2093910481
:103A70009093B9049091B904880F892B8093B9046D
:103A80008091B704813061F41092B7048091B90439
:103A90008093BB008091BC0083FDF8CF85EC01C012
:103AA00085EE8093BC008091BA048130E1F380916F
:103AB0009204841710F440919204A3E9B4E0962F85
:103AC000FB018E2F891B841718F48D918193F9CFF8
:103AD000842F089580E008950F93413208F04AC082
:103AE0009091BA049111FCCF32E03093BA04009364
:103AF000B8043FEF30934D04109292044093910428
:103B0000562FA3E9B4E0FB013E2F351B341718F400
:103B100031913D93F9CF1092B9043091B904880FD7
:103B2000832B8093B9048091B704813061F41092A3
:103B3000B7048091B9048093BB008091BC0083FDE1
:103B4000F8CF85EC01C085EE8093BC00222321F0E4
:103B50008091BA048230D1F380914D048F3F79F087
:103B600080914D04803241F080914D04803331F0DA
:103B700094E005C091E003C092E001C093E0892F7A
:103B80000F91089540916F04262F30E0240F311DCE
:103B900021323105DCF42091BA042430C9F4FC014F
:103BA00080E090E0861758F430916F042191DC0199
:103BB000AF58BB4FA30FB11D2C930196F3CF80914B
:103BC0006F04680F60936F0480E0089581E00895AA
:103BD00082E008959093B4048093B3040895909381
:103BE000B6048093B504089585ED8093BC00809160
:103BF000BC0084FDFCCF1092BA04089585EC80933C
:103C0000BC001092BA0408951F920F920FB60F9243
:103C100011242F933F934F935F936F937F938F93D1
:103C20009F93AF93BF93EF93FF938091B900887FE9
:103C3000803609F49DC070F5883209F45CC090F4B8
:103C4000803109F455C038F4882309F4F3C0883072
:103C500009F44EC0F2C0883109F44DC0803209F435
:103C60005EC0EBC0803409F469C050F4803309F4BD
:103C700056C0883309F0E1C080934D04BFDFDDC03A
:103C8000803509F44FC0883509F45DC0883409F0E7
:103C9000D4C0D2C0883909F4C3C0A8F4883709F465
:103CA00067C038F4883609F463C0803709F460C00F
:103CB000C4C0883809F4B4C0803909F45FC08038C2
:103CC00009F0BBC05BC0803B09F482C038F4803A85
:103CD00009F466C0883A09F47BC0AFC0803C09F49F
:103CE000A3C0883C09F4A0C0883B09F486C0A5C0E5
:103CF0008091B90410C0909192048091910498171A
:103D000070F5E091920481E08E0F80939204F0E0D0
:103D1000ED56FB4F80818093BB0085EC82C0809381
:103D20004D048AC0E091920481E08E0F809392044A
:103D30008091BB00F0E0ED56FB4F808390919204A0
:103D4000809191046AC0E091920481E08E0F80938B
:103D500092048091BB00F0E0ED56FB4F8083809190
:103D6000B804811169C081E08093B70484EA5DC022
:103D700083E08093BA0410924E04CFCF80914E041A
:103D8000803208F04DC0E0914E0481E08E0F8093A8
:103D90004E048091BB00F0E0E15BFB4F8083BDCF20
:103DA0002DDF80914E04803230F4E0914E04F0E03B
:103DB000E15BFB4F108260914E0470E0E091B30430
:103DC000F091B4048FE494E0099510924E0435C04C
:103DD00084E08093BA041092700410926F04E09112
:103DE000B504F091B604099580916F04811105C066
:103DF00081E080936F0410927104E091700481E07F
:103E00008E0F80937004F0E0EF58FB4F8081809319
:103E1000BB009091700480916F04981708F47DCFD7
:103E200085E88093BC0009C085EC8093BC001092AB
:103E3000BA0403C010924D04D7DEFF91EF91BF91F9
:103E4000AF919F918F917F916F915F914F913F9132
:103E50002F910F900FBE0F901F9018951F920F92E9
:103E60000FB60F9211242F933F934F935F936F934D
:103E70007F938F939F93AF93BF93EF93FF93809123
:103E8000BB049091BC04892B29F0E091BB04F09114
:103E9000BC040995FF91EF91BF91AF919F918F91D4
:103EA0007F916F915F914F913F912F910F900FBE36
:103EB0000F901F9018951F920F920FB60F9211241A
:103EC0002F933F934F935F936F937F938F939F9322
:103ED000AF93BF93EF93FF938091BD049091BE0485
:103EE000892B29F0E091BD04F091BE040995FF9162
:103EF000EF91BF91AF919F918F917F916F915F9162
:103F00004F913F912F910F900FBE0F901F901895DA
:103F10008091F30490E02091F404821B91090895AC
:103F20009091F4048091F304981750F4E92FF0E095
:103F3000EB50FB4F208130E09F5F9093F40402C070
:103F40002FEF3FEFC9010895E091F4048091F3044D
:103F5000E81730F4F0E0EB50FB4F808190E00895DB
:103F60008FEF9FEF08950895CF93DF93EC01E091D9
:103F7000CB04F091CC043097F1F09091F40480914F
:103F8000F3049817C0F090E0292F30E02617370788
:103F900054F4DE01A20FB31F4C91D901AB50BB4FBB
:103FA0004C939F5FF1CF1092F4046093F304CB0124
:103FB000DF91CF910994DF91CF910895E091CD04E5
:103FC000F091CE04309729F01092D1041092D004D1
:103FD00009940895CF92DF92EF92FF920F931F936F
:103FE000CF93DF937C01CB018A012091CF04222360
:103FF00089F0EB016B01C40ED51ECC15DD0561F017
:104000006991D701ED91FC910190F081E02DC701FC
:104010000995F3CF642FB6DDC801DF91CF911F91D1
:104020000F91FF90EF90DF90CF900895CF93DF93A3
:104030001F92CDB7DEB769832091CF042223D1F040
:104040002091D004203240F021E030E0FC013383A5
:10405000228380E090E014C08091D104E82FF0E04A
:10406000EE52FB4F998190838F5F8093D1048093B0
:10407000D00404C061E0CE01019684DD81E090E0CF
:104080000F90DF91CF910895FC011382128288EE88
:1040900093E0A0E0B0E084839583A683B78381E4B6
:1040A00091E09183808308951092F4041092F304B8
:1040B0001092D1041092D00497DC8EED9FE18FDD39
:1040C00084EB9FE187CDCB01BA01AACC81E080933C
:1040D000CF046093F2041092D1041092D00408959A
:1040E000F5CF0F93062F21E04091D00462ED74E0EC
:1040F0008091F204F1DC1092D1041092D00410925D
:10410000CF040F9108954F925F926F927F92AF927A
:10411000BF92CF92EF92FF920F931F93CF93DF93B3
:104120005C01F62ED42F28013901EE2011F1CEDFEB
:10413000CE2DC43008F0C3E0C150C0F028E0C29FCB
:10414000C0011124A301920104C0569547953795EB
:1041500027958A95D2F7CA01B901D501ED91FC9155
:104160000190F081E02DC5010995E6CF60E0C50121
:10417000B8DF4D2FD13208F040E22C2D65EF74E00E
:104180008F2D62DC1092F4048093F304DF91CF91C1
:104190001F910F91FF90EF90CF90BF90AF907F90C5
:1041A0006F905F904F900895CF92EF920F931F936F
:1041B000C22EE12C00E010E09801A5DF1F910F91C5
:1041C000EF90CF90089521E0EFCF61E08ACF8FEBA1
:1041D00094E05ACF1F920F920FB60F9211242F9393
:1041E0003F938F939F93AF93BF93809116059091C8
:1041F0001705A0911805B09119053091150523E018
:10420000230F2D3720F40196A11DB11D05C026E80E
:10421000230F0296A11DB11D20931505809316054D
:1042200090931705A0931805B093190580911A056E
:1042300090911B05A0911C05B0911D050196A11D33
:10424000B11D80931A0590931B05A0931C05B09394
:104250001D05BF91AF919F918F913F912F910F902D
:104260000FBE0F901F9018952FB7F8946091160508
:104270007091170580911805909119052FBF089529
:104280003FB7F89480911A0590911B05A0911C05E9
:10429000B0911D0526B5A89B05C02F3F19F00196CA
:1042A000A11DB11D3FBFBA2FA92F982F8827820FBC
:1042B000911DA11DB11DBC01CD0142E0660F771F0C
:1042C000881F991F4A95D1F70895CF92DF92EF92F8
:1042D000FF92CF93DF936B017C01D2DFEB01C1141E
:1042E000D104E104F10471F0CBDF6C1B7D0B683E5F
:1042F0007340A8F381E0C81AD108E108F108C85159
:10430000DC4FEDCFDF91CF91FF90EF90DF90CF901A
:104310000895019739F0880F991F880F991F029708
:104320000197F1F70895789484B5826084BD84B5CF
:10433000816084BD85B5826085BD85B5816085BDA0
:10434000EEE6F0E0808181608083E1E8F0E01082B9
:10435000808182608083808181608083E0E8F0E0FA
:10436000808181608083E1EBF0E0808184608083E4
:10437000E0EBF0E0808181608083EAE7F0E080811B
:10438000846080838081826080838081816080837B
:104390008081806880831092C10008951F93CF931D
:1043A000DF93182FEB0161E07FD0209711F460E0DC
:1043B00004C0CF3FD10531F461E0812FDF91CF916F
:1043C0001F91AEC0E12FF0E0E95FFE4FE491E330D2
:1043D000F9F048F4E130B9F0E230A1F584B580623B
:1043E00084BDC8BD34C0E630E9F0E73019F1E430EF
:1043F00049F580918000806280938000D0938B008B
:10440000C0938A0024C084B5806884BDC7BD1FC026
:1044100080918000806880938000D0938900C09351
:10442000880015C08091B00080688093B000C09370
:10443000B3000DC08091B00080628093B000C09343
:10444000B40005C0C038D1050CF0B6CFB0CFDF91B5
:10445000CF911F910895833081F028F4813099F035
:104460008230A1F008958630A9F08730B9F0843009
:10447000D1F4809180008F7D03C0809180008F7780
:1044800080938000089584B58F7702C084B58F7DB6
:1044900084BD08958091B0008F7703C08091B000F3
:1044A0008F7D8093B0000895CF93DF9390E0FC015F
:1044B000E55EFE4F2491FC01E15DFE4F849188236F
:1044C00061F190E0880F991FFC01E35BFE4FC591FD
:1044D000D491FC01ED5BFE4FA591B491611109C02F
:1044E0009FB7F8948881209582238883EC912E23AE
:1044F0000BC0623061F49FB7F8948881322F3095F9
:1045000083238883EC912E2B2C939FBF06C08FB7FB
:10451000F894E8812E2B28838FBFDF91CF910895E7
:104520001F93CF93DF93282F30E0F901E95FFE4F0F
:104530008491F901E55EFE4FD491F901E15DFE4FF2
:10454000C491CC23B9F0162F811185DFEC2FF0E058
:10455000EE0FFF1FED5BFE4FA591B4919FB7F8944E
:10456000111104C08C91D095D82302C0EC91DE2BA0
:10457000DC939FBFDF91CF911F9108951F920F92FF
:104580000FB60F9211242F933F934F935F936F9326
:104590007F938F939F93AF93BF93CF93DF93EF93CB
:1045A000FF9390913E05A0913D05209188003091A8
:1045B000890080912205482F50E0C0917205D0916A
:1045C0007305B0913C05E92FF0E04E175F07ECF062
:1045D0002C0F3D1FEA2FE170A6959F5FEB1799F313
:1045E00080918000EE2311F0806C02C08F7B806888
:1045F000809380003093890020938800E0933C05ED
:10460000A0933D0590933E058FC090912005911198
:1046100005C0EA012196EC17FD0729F0EA01229670
:10462000EC17FD07A1F48D5F80933E05809180001B
:10463000806C8093800060912105409172055091BB
:104640007305649FC001659F900D112467C04F5F83
:104650005F4FE417F507C9F48E5F80933E058091A4
:104660002305B81709F456C0882321F080918000F3
:10467000806C04C0809180008F7B80688093800074
:104680008091230580933C0545C080913B05E091D6
:104690003A058E130DC010923E05809180008F73F5
:1046A0008093800080916F008D7F80936F003CC06D
:1046B00081E080933E05EF5FE43108F0E0E0E093B5
:1046C0003A05F0E0EC5DFA4F808180933D05109251
:1046D0003C059923C9F0082E82958025082E8695E1
:1046E000869580258F5F81FB662760F970E041E049
:1046F00050E0923011F040E050E081E0641775071F
:1047000009F080E080932305809180008F7B806892
:10471000809380008091720590917305280F391F56
:104720003093890020938800FF91EF91DF91CF9122
:10473000BF91AF919F918F917F916F915F914F91B9
:104740003F912F910F900FBE0F901F9018951F92C1
:104750000F920FB60F9211241F932F933F934F93F5
:104760005F936F937F938F939F93AF93BF93CF93F9
:10477000DF93EF93FF932091860030918700909113
:104780006F0580918100992331F08F7B80938100A8
:1047900010926F0506C080648093810080E880934A
:1047A0006F0580917105811123C091119AC080918C
:1047B0006B0590916C05820F931F90938B008093F3
:1047C0008A0084E086BB80916F00846080936F00D4
:1047D0008091720590917305280F391F96958795E2
:1047E000280F391F30936E0520936D0581E074C04A
:1047F00040916D0550916E05C091220570916F0535
:1048000090917005A0917205B0917305D0911F052C
:1048100010911E05241B350B37FD58C0882321F04D
:10482000C81710F09695972B4A0F5B1F8F5F8D1757
:1048300008F446C09093700580916F008B7F809341
:104840006F00909120059923F9F080917005082E52
:1048500082958025082E8695869580258F5F81FB21
:10486000EE27E0F9F0E021E030E0923011F020E0B6
:1048700030E081E090E0E217F30711F080E090E093
:1048800070E08617970791F480916A058F5F8832F0
:1048900030F590916905891749F0E82FF0E0909183
:1048A0007005E15CFA4F908380936A0580918100E6
:1048B0008F7B8093810010926F051092710511C05B
:1048C000811708F4672F2A1B3B0BA6CF9093700526
:1048D00050936E0540936D058093710502C080E092
:1048E000D8CFFF91EF91DF91CF91BF91AF919F9181
:1048F0008F917F916F915F914F913F912F911F9178
:104900000F900FBE0F901F9018951F920F920FB629
:104910000F9211242F934F935F936F937F938F93F5
:104920009F93EF93FF9380916F008B7F80936F0035
:10493000809181008F7B809381008091710520910F
:104940006F0520584091220550E090917005682F26
:1049500070E04617570724F09695922B8F5FF7CF9C
:104960009093700580916A058F5F883208F080E02F
:1049700020916905821739F0E82FF0E0E15CFA4FE9
:10498000908380936A0510927105809181008F7BDE
:104990008093810010926F05FF91EF919F918F910D
:1049A0007F916F915F914F912F910F900FBE0F905C
:1049B0001F9018950F931F93CF93DF93EC0140E85E
:1049C00055E260E070E08CE993E00E94681BE1EC46
:1049D000F0E08081806480831E830D8384E0809377
:1049E0007405DF91CF911F910F9108958FEF9FEF85
:1049F0004217A8F4FB01E40FF11D3081832738E052
:104A0000FC01E170FF2796958795EF2B21F051E08F
:104A1000852750EA9527315099F74F5FE9CF9827BE
:104A20008927982708951F93CF93DF93EB01142FC5
:104A3000242F40E0DBDFFE01E10FF11D90831F5FBB
:104A4000C10FD11D8883DF91CF911F910895FB0184
:104A500041814330A9F0463029F0403189F081E0AE
:104A600090E00895228130E0322F22274381240FE5
:104A7000311DFC01858196812817390718F528C05A
:104A8000248130E0322F22275581250F311D4330FC
:104A900021F0403111F040E001C04EE02115310518
:104AA000A1F050E04217530780F0228130E0322F0E
:104AB00022274381240F311DFC01858196818217B5
:104AC000930730F482E090E0089583E090E0089549
:104AD00080E090E00895FC017483638308950F9350
:104AE0001F93CF93DF93DB01BA01A9019801EC0179
:104AF000EB81FC81CD01DF91CF911F910F91099442
:104B00006F927F928F929F92AF92BF92CF92DF92DD
:104B1000EF92FF920F931F93CF93DF935C014B01B2
:104B20006A0139017A01C0E0D0E082E0E80EF11CB0
:104B3000F601858190E0C817D90788F4F70105814F
:104B400010E0102F00278681082BAE01480D591D5B
:104B500021E030E0B301C501C2DF2196E6CFCE01EE
:104B6000DF91CF911F910F91FF90EF90DF90CF9049
:104B7000BF90AF909F908F907F906F9008951F92FD
:104B80000F920FB60F9211245A980F900FBE0F90EC
:104B90001F901895EF92FF920F931F93CF93DF937F
:104BA0008091C00080648093C0008FB7F8945A9AB7
:104BB0008FBFEB01042F10E07B01E00EF11ECE153C
:104BC000DF0531F069918CE993E00E94A91AF7CFD3
:104BD000C801DF91CF911F910F91FF90EF90089541
:104BE000EF92FF920F931F93CF938C017B01C42F01
:104BF0001ADF42E04C0FB701C801CF911F910F910E
:104C0000FF90EF90C7CFCF92DF92EF92FF920F937A
:104C10001F93CF93DF93CDB7DEB728970FB6F894E5
:104C2000DEBF0FBECDBF6C01842F752FA801698335
:104C300090E19A837B838C831D822E839701682F5A
:104C4000C6015EDF892B39F046E0BE016F5F7F4F02
:104C5000C601C6DF02C080E090E028960FB6F89447
:104C6000DEBF0FBECDBFDF91CF911F910F91FF909F
:104C7000EF90DF90CF900895EF92FF920F931F93E4
:104C8000CF93DF93CDB7DEB728970FB6F894DEBF8A
:104C90000FBECDBF7C01C801F90104811581102729
:104CA00001271027698326E02A835B834C831D83B9
:104CB0000E8321E030E0BC01C70111DF46E0BE01F8
:104CC0006F5F7F4FC7018CDF28960FB6F894DEBF69
:104CD0000FBECDBFDF91CF911F910F91FF90EF904D
:104CE0000895AF92BF92CF92DF92EF92FF920F930F
:104CF0001F93CF93DF93CDB7DEB7A8970FB6F89485
:104D0000DEBF0FBECDBF6C015801698383E08A838B
:104D1000822F880F8B83E22EF12C00E010E09701A8
:104D2000B501C601DCDED501FE01319680E090E0E0
:104D3000BF0132968E159F0548F42C9111963C9137
:104D400011971296318322830196F3CFA701440F66
:104D5000551F4D5F5F4FC60143DFA8960FB6F8940D
:104D6000DEBF0FBECDBFDF91CF911F910F91FF909E
:104D7000EF90DF90CF90BF90AF9008950F931F9367
:104D8000CF93DF938B01C0E0D0E08CE993E00E94E9
:104D90004F1A892B71F08CE993E00E947E1AF8017A
:104DA00081938F012196C632D10579F78FEF9FEF5E
:104DB00001C0CE01DF91CF911F910F910895DF9235
:104DC000EF92FF920F931F93CF93DF937C01D62E28
:104DD0008A01BA01D3DFEC0118161906CCF4282F8A
:104DE000225040E0B801C70101DEA8014C0F5D1F51
:104DF000FA013297208130E0322F2227319640810C
:104E0000242B8217930731F4F80180818D1102C0A1
:104E1000CE0102C08FEF9FEFDF91CF911F910F91D5
:104E2000FF90EF90DF9008958F929F92AF92BF9284
:104E3000CF92DF92EF92FF920F931F93CF93DF9366
:104E4000CDB7DEB7CC57D1090FB6F894DEBF0FBE91
:104E5000CDBF6C018CE993E00E944F1A5C01892B55
:104E600021F4F6011486138687C0FED92BB1122FC8
:104E7000147022FD81C0F60123853485A216B30685
:104E800039F0B486A386678370878187928775C05F
:104E9000F60187809084A184B284DC01CB0188195B
:104EA0009909AA09BB0980907405912CA12CB12CF9
:104EB00088159905AA05BB0508F45FC014861386FA
:104EC000AE014B5A5F4F6081C60179DF1816190693
:104ED0000CF050C0482FBE016B5A7F4FC601B7DDA2
:104EE0009C0167969FAD67972115310571F0122FD0
:104EF000F6018081898390589A832B8343E0BE0119
:104F00006F5F7F4FC6016CDE38C068964FAD689703
:104F100050E0542F442769968FAD6997480F511D73
:104F2000F60192839630E1F0903161F0933029F5EB
:104F30008E010F5F1F4F6B962FAD6B976081C6017F
:104F4000D0DE18C0CE0101967C018E010B5A1F4F96
:104F50006B962FAD6B97F6016081C60154DE0AC0D7
:104F60008E010F5F1F4F9E012B5A3F4FF60160814C
:104F7000C60182DE182F01C010E0812FC458DF4F18
:104F80000FB6F894DEBF0FBECDBFDF91CF911F915A
:104F90000F91FF90EF90DF90CF90BF90AF909F90D8
:104FA0008F90089508951F920F920FB60F921124BB
:104FB0002F933F934F935F936F937F938F939F9321
:104FC000AF93BF93EF93FF93E0910501F09106013A
:104FD0000995FF91EF91BF91AF919F918F917F9133
:104FE0006F915F914F913F912F910F900FBE0F9056
:104FF0001F90189597FB072E16F4009406D077FDA6
:1050000008D033D007FC05D03EF4909581959F4F92
:105010000895709561957F4F0895A1E21A2EAA1BFD
:10502000BB1BFD010DC0AA1FBB1FEE1FFF1FA21758
:10503000B307E407F50720F0A21BB30BE40BF50B55
:10504000661F771F881F991F1A9469F760957095DE
:10505000809590959B01AC01BD01CF010895EE0FA5
:10506000FF1F0590F491E02D0994AA1BBB1B51E191
:1050700007C0AA1FBB1FA617B70710F0A61BB70BC8
:10508000881F991F5A95A9F780959095BC01CD016D
:1050900008955058BB27AA270ED075C166D130F0AD
:1050A0006BD120F031F49F3F11F41EF45BC10EF47C
:1050B000E095E7FB51C1E92F77D180F3BA1762077A
:1050C00073078407950718F071F49EF58FC10EF4ED
:1050D000E0950B2EBA2FA02D0B01B90190010C0108
:1050E000CA01A0011124FF27591B99F0593F50F420
:1050F000503E68F11A16F040A22F232F342F442778
:10510000585FF3CF469537952795A795F04053956F
:10511000C9F77EF41F16BA0B620B730B840BBAF03F
:105120009150A1F0FF0FBB1F661F771F881FC2F7AA
:105130000EC0BA0F621F731F841F48F487957795BE
:105140006795B795F7959E3F08F0B3CF9395880F75
:1051500008F09927EE0F979587950895D9D008F410
:1051600081E008950CD00FC107D140F0FED030F09F
:1051700021F45F3F19F0F0C0511139C1F3C014D1CF
:1051800098F39923C9F35523B1F3951B550BBB270E
:10519000AA2762177307840738F09F5F5F4F220FBB
:1051A000331F441FAA1FA9F333D00E2E3AF0E0E8B4
:1051B00030D091505040E695001CCAF729D0FE2F00
:1051C00027D0660F771F881FBB1F26173707480792
:1051D000AB07B0E809F0BB0B802DBF01FF27935848
:1051E0005F4F2AF09E3F510568F0B6C000C15F3F97
:1051F000ECF3983EDCF3869577956795B795F79530
:105200009F5FC9F7880F911D9695879597F9089527
:10521000E1E0660F771F881FBB1F621773078407C3
:10522000BA0720F0621B730B840BBA0BEE1F88F7D2
:10523000E095089504D06894B111D9C00895BCD008
:1052400088F09F5790F0B92F9927B751A0F0D1F06F
:10525000660F771F881F991F1AF0BA95C9F712C0F9
:10526000B13081F0C3D0B1E00895C0C0672F782F6E
:105270008827B85F39F0B93FCCF386957795679565
:10528000B395D9F73EF490958095709561957F4FD1
:105290008F4F9F4F0895E89409C097FB3EF4909577
:1052A0008095709561957F4F8F4F9F4F9923A9F0FF
:1052B000F92F96E9BB279395F6958795779567958E
:1052C000B795F111F8CFFAF4BB0F11F460FF1BC0D2
:1052D0006F5F7F4F8F4F9F4F16C0882311F096E965
:1052E00011C0772321F09EE8872F762F05C0662313
:1052F00071F096E8862F70E060E02AF09A95660FCC
:10530000771F881FDAF7880F9695879597F9089584
:10531000990F0008550FAA0BE0E8FEEF16161706C6
:10532000E807F907C0F012161306E407F50798F02E
:10533000621B730B840B950B39F40A2661F0232B47
:10534000242B252B21F408950A2609F4A140A695C3
:105350008FEF811D811D089597F99F6780E870E0A8
:1053600060E008959FEF80EC089500240A941616DB
:10537000170618060906089500240A941216130643
:10538000140605060895092E0394000C11F48823D1
:1053900052F0BB0F40F4BF2B11F460FF04C06F5FED
:1053A0007F4F8F4F9F4F089557FD9058440F551FC3
:1053B00059F05F3F71F04795880F97FB991F61F097
:1053C0009F3F79F087950895121613061406551F0E
:1053D000F2CF4695F1DF08C0161617061806991F7A
:1053E000F1CF86957105610508940895E894BB276F
:1053F00066277727CB0197F908958ADF08F48FEFA6
:1054000008950AD029ED3BE54EED5EE345C00EF070
:1054100065C1A8CF6894A0CFCFDFC8F39923D1F39B
:10542000C6F3DF93CF931F930F93FF92C92FDD270E
:1054300088232AF02197660F771F881FDAF720E06C
:1054400030E040E85FEB9FE3883920F0803E30F0A9
:1054500021968F771FDEE4E8F0E003C01BDEE1EB6E
:10546000F0E051D18B01BE01EC01FB2E6F577109A9
:105470007595771F880B990B10DF28E132E741E320
:105480005FE316D0AF2D9801AE01FF900F911F91F1
:10549000CF91DF9110DE77CF0BD075CF66DF28F08C
:1054A0006BDF18F0952309F057CF5CCF11249FCF05
:1054B0007BDFA0F3959FD1F3950F50E0551F629FBE
:1054C000F001729FBB27F00DB11D639FAA27F00D5D
:1054D000B11DAA1F649F6627B00DA11D661F829F84
:1054E0002227B00DA11D621F739FB00DA11D621F69
:1054F000839FA00D611D221F749F3327A00D611D86
:10550000231F849F600D211D822F762F6A2F112467
:105510009F5750408AF0E1F088234AF0EE0FFF1FBA
:10552000BB1F661F771F881F91505040A9F79E3FF1
:10553000510570F011CF5BCF5F3FECF3983EDCF389
:10554000869577956795B795F795E7959F5FC1F72E
:10555000FE2B880F911D9695879597F90895FA016E
:10556000EE0FFF1F30962105310599F16115710588
:1055700061F48038BFE39B0749F168949038810556
:1055800061F08038BFEF9B0741F0992342F5FF3F60
:10559000E1053105210511F1E8940894E795D90159
:1055A000AA2329F4AB2FBE2FF85FD0F310C0FF5F02
:1055B00070F4A695E0F7F73950F019F0FF3A38F497
:1055C0009F779F930CD00F9007FC905808953EF062
:1055D000C9CE60E070E080E89FE308954FE79F77D1
:1055E0005F934F933F932F9317DF2F913F914F91ED
:1055F0005F9152DF47C011F40EF4B4CE6FC0DCDE11
:10560000D0F39923D9F3CEF39F57550B87FF74D06E
:105610000024A0E640EA900180585695979528F41A
:10562000805C660F771F881F20F026173707480712
:1056300030F4621B730B840B202931294A2BA69569
:1056400017940794202531254A2758F7660F771FAE
:10565000881F20F026173707480730F4620B730BBA
:10566000840B200D311D411DA09581F7B901842FB8
:105670009158880F96958795089519F40EF06CCE81
:10568000B5CE70CE99DEC8F39638C0F707F80F9202
:10569000E8942BE33AEA48EB5FE70CDF0F920F92B6
:1056A0000F924DB75EB70F9290D0EEEDF0E02BD099
:1056B0004F915F91EF91FF91E595EE1FFF1F49F02C
:1056C000FE57E0684427EE0F441FFA95E1F7419535
:1056D000550B47D00F9007FE3BC008959F3F31F018
:1056E000915020F4879577956795B795880F911D10
:1056F0009695879597F9089591505040660F771FBA
:10570000881FD2F70895DF93CF931F930F93FF92D3
:10571000EF92DF927B018C01689405C0DA2EEF01D5
:10572000C7DEFE01E894A5912591359145915591EB
:10573000AEF3EF01C0DCFE019701A801DA9479F71E
:10574000DF90EF90FF900F911F91CF91DF9108951F
:105750009B01AC0160E070E080E89FE303CDFCCDED
:10576000BDCF2ADEE8F39923D9F3940F511DBBF383
:105770009150504094F059F0882332F0660F771F13
:10578000881F91505040C1F79E3F510544F7880F44
:10579000911D9695879597F908955F3FACF0983ED7
:1057A0009CF0BB27869577956795B79508F4B1600F
:1057B0009395C1F7BB0F58F711F460FFE8CF6F5F07
:1057C0007F4F8F4F9F4FE3CF12CEFA01DC01AA0F1C
:1057D000BB1F9B01AC01BF5728F422273327442766
:1057E00050781FC0B75188F4AB2F002446953795E9
:1057F0002795011CA395D2F3002069F0220F331FD7
:10580000441FB395DAF30DD044CC61307105A0E8A4
:105810008A07B94630F49B01AC01662777278827B1
:105820009078309621F0208331834283538308950A
:10583000F999FECF92BD81BDF89A992780B5089558
:10584000262FF999FECF1FBA92BD81BD20BD0FB69C
:10585000F894FA9AF99A0FBE01960895F894FFCF3A
:1058600028073F01FFD2276009C012802540380079
:105870004B0096C0DA0000003F0000003F0000002F
:105880003F8FC2F53C8FC2F53C8FC2F53C00000053
:1058900000A91A381C4F1A7E1A621A9E1A000000BC
:0E58A000001620EA1F881F901FA41FB31F00D0
:00000001FF
