S0100000444D2D3931302D782E7372656317
S1130000ADC000000C94B81B0C94E51BCFC00000DD
S1130010CDC00000CBC00000C9C000000C9423195F
S1130020C5C00000C3C000000C9412200C94291F0A
S11300300C94F0200C943F24B9C00000B7C0000019
S11300400C94741DB3C000000C9464170C94A51791
S11300500C942B22ABC00000A9C00000A7C0000074
S11300600C948E1AA3C0000045144B144D14501464
S1130070641423168F14AA149114AC14F414F814F1
S113008023162E1508000000BE922449123EABAA86
S1130090AA2ABECDCCCC4C3E00000080BEABAAAA9E
S11300A0AA3E00000000BF000000803F00000000E6
S11300B000084178D3BB4387D1133D190E3CC3BD1F
S11300C04282AD2B3E68EC8276BED98FE1A93E4CCC
S11300D080EFFFBE01C4FF7F3F0000000000076304
S11300E04236B79BD8A71A39685618AEBAAB558CA6
S11300F01D3CB7CC5763BD6DEDFD753EF6177231EF
S1130100BF000000803F0200000007000201000061
S113011003040600000000000000000102040810AF
S11301202040800102040810200102040810200469
S1130130040404040404040202020202020303038A
S113014003030300000000250028002B000000002A
S113015000240027002A00006918711D11241FBE05
S1130160CFEFD8E0DEBFCDBF11E0A0E0B1E0ECE01E
S1130170F1E502C005900D92AE37B107D9F725E03D
S1130180AEE7B1E001C01D92AF37B207E1F710E06E
S1130190CEEAD0E004C02197FE010E949B24CC3A11
S11301A0D107C9F70E94A5180C94842829CFCF92AF
S11301B0DF92EF92FF920F931F93CF93DF93E1E0CF
S11301C0E0939F01E8E7F2E0C8EDD2E0A8EACA2E86
S11301D0A2E0DA2E619371938193919329933993D9
S11301E049935993D601ED92FD920D931D936D01A0
S11301F0B2E0EC38FB0771F7E3E0F2E0ABE1B2E028
S11302006193719381939193AE17BF07C9F7EFE19F
S1130210F2E0A7E3B2E02193319341935193AE17F7
S1130220BF07C9F7EBE3F2E0A3E5B2E0E192F19294
S113023001931193AE17BF07C9F7609358027093E7
S1130240590280935A0290935B0220935C0230938C
S11302505D0240935E0250935F02E0926002F0926E
S113026061020093620210936302DF91CF911F91A8
S11302700F91FF90EF90DF90CF90089580915702F7
S11302808F5F863018F48093570202C01092570291
S113029020915702A8E6B2E084E0289F900111243F
S11302A080E090E04D915D916D917D91FC01E20FB4
S11302B0F31FED5FFD4F40835183628373834C963C
S11302C08435910579F708958F929F92AF92BF92EA
S11302D0CF92DF92EF92FF9280919A018111EDC04B
S11302E0C0902103D0902203E0902303F0902403D4
S11302F020E030E0A901C701B6010E941A2587FF5A
S113030009C0809193039091940381609093940326
S11303108093930320E030E44CE955E4C701B6012F
S11303200E94692618164CF48091930390919403CB
S11303308260909394038093930320E030E44CE133
S113034056E4C701B6010E946926181654F020E04D
S113035030E048EC52ECC701B6010E941A2587FF31
S113036009C08091930390919403846090939403C3
S113037080939303C0901D03D0901E03E0901F034D
S1130380F090200320E030E040E752ECC701B601D2
S11303900E941A2587FF09C08091930390919403CA
S11303A08860909394038093930320E030E040EAC4
S11303B052E4C701B6010E94692618164CF48091D4
S11303C09303909194038061909394038093930397
S11303D0C0905A03D0905B03E0905C03F0905D03FF
S11303E060916B0170E080E090E00E94B925A70164
S11303F096010E941A2587FF09C08091930390916A
S113040094038064909394038093930320916701F1
S1130410309168014091690150916A01C701B601A8
S11304200E94692618164CF48091930390919403CA
S113043080689093940380939303C0905603D09064
S11304405703E0905803F090590380905F01909017
S11304506001A0906101B0906201A5019401C701FF
S1130460B6010E941A2587FF09C0809193039091D9
S1130470940398609093940380939303A50194014B
S1130480C701B6010E9469261816BCF420916301C5
S1130490309164014091650150916601C701B60134
S11304A00E941A2587FF09C08091930390919403B9
S11304B09061909394038093930380911003882315
S11304C049F08091930390919403906290939403E4
S11304D080939303FF90EF90DF90CF90BF90AF9005
S11304E09F908F9008952F923F924F925F926F92B8
S11304F07F928F929F92AF92BF92CF92DF92EF92B0
S1130500FF920F931F93CF93DF93CDB7DEB7289756
S11305100FB6F894DEBF0FBECDBF88E692E09A8393
S11305208983E8E5F2E0F887EF838EE191E09C832C
S11305308B83E2E1F1E0FE83ED8333E0232E32E0AE
S1130540332EE12CF12C612C80E5782E93EC892E4E
S113055027E4922EA12CB12C0AE714ECF101EE0D44
S1130560FF1D5080C180D28043809501A801652D74
S11305707C2D8D2D942D0E946926181624F4A52C0B
S1130580BC2C0D2D142D9301A401652D7C2D8D2DD6
S1130590942D0E941A2587FF04C0652C7C2C8D2C79
S11305A0942CF4E0EF0EF11C24E1E216F104B1F610
S11305B0EF81F885C080D180E280F38024EA30E7BF
S11305C04DE75FE3B301C4010E94B826A701960179
S11305D00E941A2587FF11C02EEA37E441E85FE341
S11305E0B501C8010E94B826A70196010E94692698
S11305F018161CF4EB81FC8102C0ED81FE81808021
S11306009180A280B380E981FA8161917191819195
S11306109191FA83E983A70196010E94B524A5016B
S113062094010E94B826A70196010E94B624EF8186
S1130630F8856193719381939193F887EF838B810C
S11306409C8104969C838B83ED81FE813496FE838A
S1130650ED83FCE12F0E311C89819A8184579240ED
S113066009F06FCF28960FB6F894DEBF0FBECDBF4A
S1130670DF91CF911F910F91FF90EF90DF90CF907A
S1130680BF90AF909F908F907F906F905F904F90AE
S11306903F902F9008950FB6F894A895809160002C
S11306A0886180936000109260000FBE98E088E13A
S11306B00FB6F894A895809360000FBE90936000E5
S11306C0FFCF4091F2015091F3016091F4017091D8
S11306D0F5018091980390919903A0919A03B091A8
S11306E09B03481B590B6A0B7B0B809176019091FD
S11306F07701A0E0B0E084179507A607B70758F480
S113070098E088E10FB6F894A895809360000FBE36
S113071090936000FFCF08950F931F938091F2018F
S11307209091F301A091F401B091F5014091EA0197
S11307305091EB016091EC017091ED018C019D01F0
S1130740041B150B260B370BB901A801453F51407B
S113075061057105C0F08093EA019093EB01A093C9
S1130760EC01B093ED0180919B01811103C081E004
S113077080939B0180919C0190919D01019690939F
S11307809D0180939C011F910F910895FC018FEFAF
S113079021E3662369F09191892798E087FF03C0DC
S11307A0880F822701C0880F9150C1F76150F1CFA3
S11307B008952F923F924F925F926F927F928F9201
S11307C09F92AF92BF92CF92DF92EF92FF920F93DC
S11307D01F93CF93DF93A0912503E4E0AE9FE00144
S11307E01124FE01E858FD4F608371838283938353
S11307F0FE01E852FD4F2083318342835383FE017F
S1130800E855FD4FE082F1820283138381E08A0F71
S1130810853018F48093250302C010922503C8E79D
S1130820D2E008ED12E088EA282E82E0382EC12CAE
S1130830D12C7601460157012601370129913991BE
S113084049915991C301B2010E94B6242B013C0184
S1130850F80121913191419151918F01C501B40168
S11308600E94B6244B015C01F10121913191419127
S113087051911F01C701B6010E94B6246B017C018E
S1130880F2E0CC38DF07D1F62DEC3CEC4CE45EE32F
S1130890C301B2010E94B826609368027093690292
S11308A080936A0290936B022DEC3CEC4CE45EE383
S11308B0C501B4010E94B82660936C0270936D0266
S11308C080936E0290936F022DEC3CEC4CE45EE35B
S11308D0C701B6010E94B82660937002709371023A
S11308E08093720290937302DF91CF911F910F91C5
S11308F0FF90EF90DF90CF90BF90AF909F908F903C
S11309007F906F905F904F903F902F9008950F933A
S11309101F93E0917501E150E73050F4F0E0EE0FE1
S1130920FF1FEC5FFE4F4081518160E070E004C026
S113093040E855E260E070E080917401813011F08C
S113094026E001C026E230E009EE13E085E993E0F9
S11309500E94452167ED74E085E993E00E94D72168
S113096080917C01809395031F910F910895CF93FB
S1130970DF9300D000D0CDB7DEB769837A838B8351
S11309809C8350E0440F551FFE01E40FF51F828144
S113099090E0982F8827FE01E40FF51F2181822B18
S11309A00F900F900F900F90DF91CF9108952F9299
S11309B03F924F925F926F927F928F929F92AF92EB
S11309C0BF92CF92DF92EF92FF920F931F93CF9338
S11309D0DF93CDB7DEB764970FB6F894DEBF0FBED2
S11309E0CDBF7C01A62E5A83498369018091970368
S11309F0BB24B394803119F0863009F0B12C809176
S1130A00F2019091F301A091F401B091F50180936A
S1130A10980390939903A0939A03B0939B030A2D90
S1130A20172F80917401282F30E03C832B83809111
S1130A304A01E82FF0E0FE83ED83209176013091A6
S1130A40770138872F8340904B0150904C01052C3F
S1130A50000C660877084B865C866D867E868091DE
S1130A605201E82FF0E0FA87E9872090780130906E
S1130A70790180907A0190907B012F86388A898A47
S1130A809A8A402FF02FFA192F2F30E03C8B2B8BB2
S1130A9089819A812817390714F00C94701006364E
S1130AA0110509F4A3C70CF035C20E31110509F480
S1130AB0CDC50CF019C10E30110509F4C3C40CF0F6
S1130AC08BC00630110509F433C40CF044C0023065
S1130AD0110509F4E8C30CF50115110509F4CCC39B
S1130AE00130110511F00C9461102B893C89220FFF
S1130AF0331F2E0D3F1D3C8B2B8B60918603709111
S1130B008703809188039091890341E030DFEB896A
S1130B10FC89918380830C946C100430110509F4D2
S1130B20D9C30CF0EEC32B893C89220F331F2E0D41
S1130B303F1D3C8B2B8B60918203709183038091CA
S1130B4084039091850341E012DFEB89FC89918352
S1130B5080830C946C100A30110509F42EC4F4F44B
S1130B600830110509F4FBC30CF010C42B893C892F
S1130B70220F331F2E0D3F1D3C8B2B8B60918A035C
S1130B8070918B0380918C0390918D0341E0EFDE93
S1130B90EB89FC89918380830C946C100C301105D3
S1130BA009F422C40CF037C42B893C89220F331F6B
S1130BB02E0D3F1D3C8B2B8B609176037091770338
S1130BC0809178039091790341E0D1DEEB89FC892F
S1130BD0918380830C946C100631110509F4ACC424
S1130BE00CF041C00231110509F471C4F4F4003170
S1130BF0110509F43EC40CF053C42B893C89220F1F
S1130C00331F2E0D3F1D3C8B2B8B60916203709123
S1130C106303809164039091650341E0A8DEEB894E
S1130C20FC89918380830C946C1060915A037091B9
S1130C305B0380915C0390915D030431110509F419
S1130C405DC40CF06AC42B893C89220F331F2E0D1E
S1130C503F1D3C8B2B8B41E08ADEEB89FC89918321
S1130C6080830C946C100A31110509F4AAC4F4F4BD
S1130C700831110509F477C40CF08CC42B893C8924
S1130C80220F331F2E0D3F1D3C8B2B8B609156037F
S1130C9070915703809158039091590341E067DEA6
S1130CA0EB89FC89918380830C946C100C311105C1
S1130CB009F49EC40CF0B3C42B893C89220F331F62
S1130CC02E0D3F1D3C8B2B8B60913A0370913B039F
S1130CD080913C0390913D0341E049DEEB89FC891E
S1130CE0918380830C946C100734110509F4ABC50F
S1130CF00CF09AC00133110509F41BC50CF049C06E
S1130D000932110509F4D0C40CF50F31110509F4A9
S1130D10B4C40832110511F00C9461102B893C897C
S1130D20220F331F2E0D3F1D3C8B2B8B6091320302
S1130D3070913303809134039091350340E017DEC2
S1130D40EB89FC89918380830C946C100B32110520
S1130D5009F4D8C40CF4BFC40033110511F00C9489
S1130D6061102B893C89220F331F2E0D3F1D3C8BB4
S1130D702B8B60911503709116038091170390914A
S1130D80180340E0F4DDEB89FC89918380830C94A3
S1130D906C100D33110509F411C51CF50B33110545
S1130DA009F4DEC40CF0F3C40A33110511F00C94F9
S1130DB061102B893C89220F331F2E0D3F1D3C8B64
S1130DC02B8B609152037091530380915403909143
S1130DD0550340E0CCDDEB89FC89918380830C943E
S1130DE06C100F33110509F417C50CF4FEC4063456
S1130DF0110511F00C9461102B893C89220F331FCB
S1130E002E0D3F1D3C8B2B8B60912103709122038F
S1130E10809123039091240340E0A9DDEB89FC89B0
S1130E20918380830C946C100F34110509F48BC5E5
S1130E300CF041C00B34110509F44AC5F4F409342B
S1130E40110509F417C50CF02CC52B893C89220F18
S1130E50331F2E0D3F1D3C8B2B8B60911D03709116
S1130E601E0380911F039091200340E080DDEB89F5
S1130E70FC89918380830C946C100D34110509F462
S1130E803EC50CF053C52B893C89220F331F2E0D10
S1130E903F1D3C8B2B8B60916E0370916F0380918F
S1130EA070039091710340E062DDEB89FC899183CA
S1130EB080830C946C100335110509F46DC5A4F4FA
S1130EC00135110509F44DC50CF058C52B893C8931
S1130ED0220F331F2E0D3F1D80919A0190E0F901DE
S1130EE0918380830C946C100436110509F461C558
S1130EF00CF06FC50336110511F00C9461102B89A9
S1130F003C89220F331F2E0D3F1DF901D182C0826F
S1130F100C946C100E39110509F45BC70CF0CEC0AB
S1130F200A38110509F44EC60CF055C000371105F6
S1130F3009F4B7C54CF50A36110509F48AC554F409
S1130F400836110509F45EC50936110509F471C5A1
S1130F500C9461100E36110509F489C50CF094C582
S1130F600B36110511F00C9461102B893C89220F6A
S1130F70331F2E0D3F1D8091720190917301F90171
S1130F80918380830C946C100638110509F4BCC558
S1130F90DCF40238110509F491C50338110509F48C
S1130FA09FC50137110511F00C9461102B893C8900
S1130FB0220F331F2E0D3F1D80916C0190E0F9012B
S1130FC0918380830C946C100838110509F4C6C50C
S1130FD00CF4AAC5DDC50639110509F49DC6ACF5A6
S1130FE00E38110509F445C624F50C38110509F429
S1130FF006C60CF021C62B893C89220F331F2E0D07
S11310003F1D3C8B2B8B20E030E048EC52E4609198
S11310105701709158018091590190915A010E9491
S1131020B8260E948625EB89FC89718360830C9421
S11310306C100439110509F453C60CF05DC60F3861
S1131040110509F433C60C9461100A39110509F429
S11310509BC6ACF40839110509F46CC60CF07EC6C5
S11310602B893C89220F331F2E0D3F1D80914D018A
S113107090914E01F901918380830C946C100C398A
S1131080110509F499C614F00C946C102B893C8951
S1131090220F331F2E0D3F1D3C8B2B8B6091A00123
S11310A07091A1018091A2019091A30141E05FDCC4
S11310B0EB89FC89918380830C946C10093C1105A5
S11310C009F40AC70CF05CC00D3B110509F4C6C64F
S11310D05CF50A3B1105A4F4043B11050CF090C621
S11310E0013A110509F0EDC78B899C89880F991F76
S11310F08E0D9F1D2F813885FC0131832083ECC721
S11311000B3B110509F48EC60CF09AC62B893C8959
S1131110220F331F2E0D3F1D80910E0390910F035C
S1131120F90191838083D8C7043C11059CF4023CE7
S113113011050CF0A1C62B893C89220F331F2E0DFB
S11311403F1DF801E653FF4F808190E0F901918340
S11311508083C2C7063C11050CF4A6C6083C1105E1
S113116009F0AFC780919303909194032B893C8934
S1131170220F331F2E0D3F1DF90191838083ACC7CD
S1131180033192E0190709F4E7C60CF045C0073BA8
S1131190F1E01F07DCF4003921E012070CF0BEC6B1
S11311A00A3C110509F4A5C60F3831E0130709F00C
S11311B088C72B893C89220F331F2E0D3F1D809138
S11311C0930190E0F9019183808386C7023C81E01A
S11311D018070CF476C7093D91E019070CF4ADC665
S11311E00231E2E01E0709F06CC72B893C89220F0B
S11311F0331F2E0D3F1D3C8B2B8B6091110370917F
S11312001203809113039091140340E0B0DBEB8947
S1131210FC899183808360C70835F2E01F0709F4D5
S1131220F6C66CF4053132E0130709F4C5C60CF4B4
S1131230ABC6023592E0190709F4D6C642C700329C
S1131240E3E01E0709F4FBC60438F3E01F0709F4C2
S113125010C7093023E0120709F033C72B893C89F2
S1131260220F331F2E0D3F1D80919C0190919D01F3
S1131270F9019183808330C78B899C89880F991FDA
S11312808E0D9F1D9C8B8B8B6091860370918703C1
S1131290809188039091890340E069DBEB89FC89A4
S11312A09183808319C72B893C89220F331F2E0D0C
S11312B03F1D3C8B2B8B6091820370918303809143
S11312C084039091850340E052DBEB89FC89918390
S11312D0808302C72B893C89220F331F2E0D3F1DAB
S11312E03C8B2B8B60917E0370917F0380918003F4
S11312F09091810340E03BDBEB89FC8991838083FF
S1131300EBC62B893C89220F331F2E0D3F1D3C8BCE
S11313102B8B60917E0370917F0380918003909169
S1131320810341E024DBEB89FC8991838083D4C66B
S11313302B893C89220F331F2E0D3F1D3C8B2B8B99
S113134060918A0370918B0380918C0390918D033B
S113135040E00DDBEB89FC8991838083BDC62B893A
S11313603C89220F331F2E0D3F1D3C8B2B8B60912C
S11313707A0370917B0380917C0390917D0340E01C
S1131380F6DAEB89FC8991838083A6C62B893C8994
S1131390220F331F2E0D3F1D3C8B2B8B60917A0344
S11313A070917B0380917C0390917D0341E0DFDAAF
S11313B0EB89FC89918380838FC62B893C89220F1A
S11313C0331F2E0D3F1D3C8B2B8B60917603709148
S11313D07703809178039091790340E0C8DAEB8930
S11313E0FC899183808378C62B893C89220F331F23
S11313F02E0D3F1D3C8B2B8B609166037091670310
S1131400809168039091690340E0B1DAEB89FC892B
S11314109183808361C62B893C89220F331F2E0D53
S11314203F1D3C8B2B8B6091660370916703809109
S113143068039091690341E09ADAEB89FC8991830E
S113144080834AC62B893C89220F331F2E0D3F1DF2
S11314503C8B2B8B609162037091630380916403D6
S11314609091650340E083DAEB89FC899183808362
S113147033C62B893C89220F331F2E0D3F1D3C8B15
S11314802B8B60915E0370915F0380916003909158
S1131490610340E06CDAEB89FC89918380831CC68C
S11314A02B893C89220F331F2E0D3F1D3C8B2B8B28
S11314B060915E0370915F0380916003909161037A
S11314C041E055DAEB89FC899183808305C62B8939
S11314D03C89220F331F2E0D3F1D3C8B2B8B6091BB
S11314E05A0370915B0380915C0390915D0340E02B
S11314F03EDAEB89FC8991838083EEC52B893C8994
S1131500220F331F2E0D3F1D3C8B2B8B40E02FDA17
S1131510EB89FC8991838083DFC52B893C89220F69
S1131520331F2E0D3F1D3C8B2B8B41E020DAEB89C2
S1131530FC8991838083D0C52B893C89220F331F7A
S11315402E0D3F1D3C8B2B8B6091560370915703DE
S1131550809158039091590340E009DAEB89FC89A2
S113156091838083B9C52B893C89220F331F2E0DAB
S11315703F1D3C8B2B8B6091360370913703809118
S113158038039091390340E0F2D9EB89FC899183C7
S11315908083A2C52B893C89220F331F2E0D3F1D4A
S11315A03C8B2B8B60913603709137038091380309
S11315B09091390341E0DBD9EB89FC8991838083E5
S11315C08BC52B893C89220F331F2E0D3F1D3C8B6D
S11315D02B8B60913A0370913B0380913C03909173
S11315E03D0340E0C4D9EB89FC899183808374C5B1
S11315F02B893C89220F331F2E0D3F1D3C8B2B8BD7
S11316006091260370912703809128039091290308
S113161040E0ADD9EB89FC89918380835DC52B893A
S11316203C89220F331F2E0D3F1D3C8B2B8B609169
S1131630260370912703809128039091290341E0A8
S113164096D9EB89FC899183808346C52B893C8993
S1131650220F331F2E0D3F1D3C8B2B8B60913E03BD
S113166070913F03809140039091410340E07FD902
S1131670EB89FC89918380832FC52B893C89220FB8
S1131680331F2E0D3F1D3C8B2B8B60913E037091BD
S11316903F03809140039091410341E068D9EB8975
S11316A0FC899183808318C52B893C89220F331FC1
S11316B02E0D3F1D3C8B2B8B6091320370913303B5
S11316C0809134039091350341E051D9EB89FC8931
S11316D09183808301C52B893C89220F331F2E0DF2
S11316E03F1D3C8B2B8B60912E0370912F038091B7
S11316F030039091310340E03AD9EB89FC8991831E
S11317008083EAC42B893C89220F331F2E0D3F1D91
S11317103C8B2B8B60912E0370912F0380913003AF
S11317209091310341E023D9EB89FC899183808333
S1131730D3C42B893C89220F331F2E0D3F1D3C8BB4
S11317402B8B609115037091160380911703909170
S1131750180341E00CD9EB89FC8991838083BCC4D4
S11317602B893C89220F331F2E0D3F1D3C8B2B8B65
S113177060915203709153038091540390915503E7
S113178041E0F5D8EB89FC8991838083A5C42B893A
S11317903C89220F331F2E0D3F1D3C8B2B8B6091F8
S11317A04E0370914F03809150039091510340E098
S11317B0DED8EB89FC89918380838EC42B893C8994
S11317C0220F331F2E0D3F1D3C8B2B8B60914E033C
S11317D070914F03809150039091510341E0C7D819
S11317E0EB89FC899183808377C42B893C89220F00
S11317F0331F2E0D3F1D3C8B2B8B60914A03709140
S11318004B0380914C0390914D0340E0B0D8EB8999
S1131810FC899183808360C42B893C89220F331F08
S11318202E0D3F1D3C8B2B8B60914A0370914B0313
S113183080914C0390914D0341E099D8EB89FC8948
S11318409183808349C42B893C89220F331F2E0D39
S11318503F1D3C8B2B8B609121037091220380915F
S113186023039091240341E082D8EB89FC8991837E
S1131870808332C42B893C89220F331F2E0D3F1DD8
S11318803C8B2B8B60911D0370911E0380911F0371
S11318909091200341E06BD8EB89FC89918380838C
S11318A01BC42B893C89220F331F2E0D3F1D3C8BFB
S11318B02B8B6091720370917303809174039091E8
S11318C0750340E054D8EB89FC899183808304C478
S11318D02B893C89220F331F2E0D3F1D3C8B2B8BF4
S11318E060917203709173038091740390917503F6
S11318F041E03DD8EB89FC8991838083EDC32B893A
S11319003C89220F331F2E0D3F1D3C8B2B8B609186
S11319106E0370916F03809170039091710341E0A5
S113192026D8EB89FC8991838083D6C32B893C8993
S1131930220F331F2E0D3F1D8091990190E0F90174
S113194091838083C9C32B893C89220F331F2E0DB9
S11319503F1D8091970190919801F90191838083B3
S1131960BBC32B893C89220F331F2E0D3F1D809151
S1131970960190E0F90191838083AEC32B893C8961
S1131980220F331F2E0D3F1D8091940190919501DC
S1131990F90191838083A0C32B893C89220F331FD3
S11319A02E0D3F1D8091920390E0F9019183808375
S11319B093C380917C01B110809395032B893C895A
S11319C0220F331F2E0D3F1D90E0F9019183808378
S11319D083C32B893C89220F331F2E0D3F1D809119
S11319E0750190E0F9019183808376C32B893C894A
S11319F0220F331F2E0D3F1DF9012B813C813183B2
S1131A0020836AC3BB2021F0D092F901C092F8016F
S1131A108B899C89880F991F8E0D9F1D9C8B8B8BA6
S1131A208091F8019091F901EB89FC89918380837D
S1131A3053C3B110C092FA012B893C89220F331F82
S1131A402E0D3F1D8091FA0190E0F901918380836E
S1131A5043C32B893C89220F331F2E0D3F1D8091D8
S1131A60700190917101F9019183808335C32B89B1
S1131A703C89220F331F2E0D3F1D80916F0190E092
S1131A80F9019183808328C32B893C89220F331F5A
S1131A902E0D3F1D80916E0190E0F90191838083AA
S1131AA01BC32B893C89220F331F2E0D3F1D8091B0
S1131AB06D0190E0F901918380830EC32B893C89E9
S1131AC0220F331F2E0D3F1D3C8B2B8B40E0B101A9
S1131AD0C4010E94B704EB89FC8991838083FCC212
S1131AE02B893C89220F331F2E0D3F1D3C8B2B8BE2
S1131AF041E06F85788989899A890E94B704EB89C6
S1131B00FC8991838083E8C2BB2009F4E5C22B8958
S1131B103C89220F331F2E0D3F1D80916B0190E0F5
S1131B20F90191838083D8C2BB2009F4D5C22B89E3
S1131B303C89220F331F2E0D3F1D3C8B2B8B609154
S1131B406701709168018091690190916A010E9416
S1131B508625EB89FC8971836083BEC2BB2009F4AE
S1131B60BBC22B893C89220F331F2E0D3F1D3C8B9A
S1131B702B8B609163017091640180916501909158
S1131B8066010E948625EB89FC8971836083A4C267
S1131B90BB2009F4A1C22B893C89220F331F2E0DCF
S1131BA03F1D3C8B2B8B60915F0170916001809194
S1131BB06101909162010E948625EB89FC89718301
S1131BC060838AC22B893C89220F331F2E0D3F1D4F
S1131BD03C8B2B8B20E030E040E251E460915B01D0
S1131BE070915C0180915D0190915E010E94B82624
S1131BF00E948625EB89FC89718360836DC22B89E1
S1131C003C89220F331F2E0D3F1D3C8B2B8B20E074
S1131C1030E04AE754E4609153017091540180919B
S1131C205501909156010E94B8260E948625EB89A1
S1131C30FC897183608350C22B893C89220F331F36
S1131C402E0D3F1D3C8B2B8B20E030E04AE754E403
S1131C506091530170915401809155019091560106
S1131C600E94B8260E948625EB89FC8971836083D3
S1131C7033C22B893C89220F331F2E0D3F1D3C8B11
S1131C802B8B20E030E048EC52E4609157017091D6
S1131C9058018091590190915A010E94B8260E94DE
S1131CA08625EB89FC897183608316C2BB2071F0A1
S1131CB08091E901882351F0EB89FC89EE0FFF1F25
S1131CC0EE0DFF1D81E090E0918380832B893C8998
S1131CD0220F331F2E0D3F1DF90111821082FCC10A
S1131CE02B893C89220F331F2E0D3F1DF9012985B5
S1131CF03A8531832083F0C18B899C89880F991F91
S1131D008E0D9F1D9C8B8B8B8091510190E0EB89F4
S1131D10FC8991838083E0C12B893C89220F331F86
S1131D202E0D3F1D80914F0190915001F901918337
S1131D308083D2C12B893C89220F331F2E0D3F1D76
S1131D403C8B2B8BC301B2010E94B92540E00E9459
S1131D50B704EB89FC8991838083BEC12B893C89BC
S1131D60220F331F2E0D3F1D3C8B2B8B6B857C85E7
S1131D708D859E850E94B92541E00E94B704EB89B8
S1131D80FC8991838083A8C12B893C89220F331F4E
S1131D902E0D3F1D3C8B2B8B6091A0017091A101F6
S1131DA08091A2019091A30140E00E94B704EB89C5
S1131DB0FC899183808390C12B893C89220F331F36
S1131DC02E0D3F1D8091920190E0F9019183808353
S1131DD083C1BB2049F08091E901882329F060E0A8
S1131DE070E083E00E94391E2B893C89220F331F47
S1131DF02E0D3F1DF9012D813E81318320836CC15D
S1131E008B899C89880F991F8E0D9F1D9C8B8B8BB2
S1131E10F801E653FF4F808190E0EB89FC899183C0
S1131E2080835AC12B893C89220F331F2E0D3F1DFD
S1131E3080910C0390910D03F901918380834CC12F
S1131E402B893C89220F331F2E0D3F1D80910A03DD
S1131E5090910B03F901918380833EC12B893C89C6
S1131E60220F331F2E0D3F1D80910803909109030B
S1131E70F9019183808330C12B893C89220F331F60
S1131E802E0D3F1D3C8B2B8B425C6091FF017091AA
S1131E90000280910102909102020E94B704EB8932
S1131EA0FC899183808318C12B893C89220F331FBD
S1131EB02E0D3F1D3C8B2B8B445C6091FB0170917C
S1131EC0FC018091FD019091FE010E94B704EB8911
S1131ED0FC899183808300C1BB2009F4FDC0F1E03B
S1131EE0CF16D10409F0F8C0109294031092930312
S1131EF0F3C0BB2049F021E0C216D10429F481E0EB
S1131F008093F7018093F6018B899C89880F991F30
S1131F108E0D9F1DFC0111821082DEC02B893C892D
S1131F20220F331F2E0D3F1DF801EF5CFF4F808100
S1131F3090E0F90191838083CFC02B893C89220FE3
S1131F40331F2E0D3F1DF801E951F040808190E0D0
S1131F50F90191838083C0C02B893C89220F331FF0
S1131F602E0D3F1D3C8B2B8B60911103709112033E
S1131F70809113039091140341E00E94B704EB890C
S1131F80FC8991838083A8C02B893C89220F331F4D
S1131F902E0D3F1D3C8B2B8B6091190370911A03FE
S1131FA080911B0390911C0340E00E94B704EB89CD
S1131FB0FC899183808390C02B893C89220F331F35
S1131FC02E0D3F1D3C8B2B8B6091190370911A03CE
S1131FD080911B0390911C0341E00E94B704EB899C
S1131FE0FC899183808378C0BB2039F0F1E0CF165F
S1131FF0D10419F481E08093F7012B893C89220FE5
S1132000331F2E0D3F1DF9011182108265C0BB20C4
S113201039F0F1E0CF16D10419F481E08093A401E2
S11320208091A4012B893C89220F331F2E0D3F1D63
S113203090E0880F991FF901918380834DC0BB20E4
S113204059F0F2EACF16F8E0DF0621F481E080933C
S1132050E90102C01092E9012B893C89220F331F48
S11320602E0D3F1D8091E90190E0F9019183808359
S113207033C0BB20E1F08091F2019091F301A09173
S1132080F401B091F50180938E0390938F03A09394
S11320909003B09391032B893C89220F331F2E0D9B
S11320A03F1D81E090E0F9019183808315C02B8965
S11320B03C89220F331F2E0D3F1DF901118210821E
S11320C00BC02B893C89220F331F2E0D3F1D8FEF30
S11320D09FEFF901918380830F5F1F4F0C9441059B
S11320E064960FB6F894DEBF0FBECDBFDF91CF91DB
S11320F01F910F91FF90EF90DF90CF90BF90AF9022
S11321009F908F907F906F905F904F903F902F9013
S113211008954F925F926F927F928F929F92AF92A7
S1132120BF92CF92DF92EF92FF92CF93DF9300D0D2
S113213000D0CDB7DEB720916A0330916B03409194
S11321406C0350916D03609153017091540180911F
S11321505501909156010E94B82620915701309163
S113216058014091590150915A010E94B62460933C
S113217015037093160380931703909318032AE0B2
S113218037ED43E25CE30E941A2587FF10C08AE022
S113219097EDA3E2BCE38093150390931603A093F9
S11321A01703B093180381E08093100302C01092C8
S11321B01003C0906603D0906703E0906803F0902A
S11321C0690322EA3CEE42EF50E4C701B6010E94E3
S11321D0B8264B015C012FEE39EB40E753E4C7010D
S11321E0B6010E94B6249B01AC01C501B4010E9452
S11321F01E259B01AC0160E070E080E291E40E9446
S11322001B2722EE39EB43EC50E40E94B8264B0125
S11322105C01609346037093470380934803909353
S113222049038091150390911603A0911703B0916F
S1132230180389839A83AB83BC839C01AD01C501D8
S1132240B4010E94B8262AE037ED43E25CE30E9421
S1132250B8266B017C01609342037093430380931F
S113226044039093450322EE39EB43EC50E40E947F
S11322701E250E946D269B01AC0162EA7CEE82EF72
S113228090E40E941E2520E030E040E85FE30E94D5
S1132290B5249B01AC016FEE79EB80E793E40E94D7
S11322A01E252B013C0120E030E042E852EC0E9464
S11322B01A2587FD09C040923E0350923F03609265
S11322C04003709241030CC080E090E0A2E8B2ECBD
S11322D080933E0390933F03A0934003B093410344
S11322E020913E0330913F034091400350914103BC
S11322F06AEE7DE385E19CE30E94B52420E83DE09D
S113230048E85BE30E94B8269B01AC016DE47EE9DA
S113231084EA9FE30E94B5240E946B2727EB38E2EE
S113232041E95FE30E94B52420E83DE048E05BE337
S11323300E941E252B013C0120E030E0A9010E94EF
S1132340692618164CF04092260350922703609297
S113235028037092290308C01092260310922703C1
S11323601092280310922903409072035090730333
S1132370609074037090750320E030E048EC52E400
S113238069817A818B819C810E94B826A301920184
S11323900E941E259B01AC0160932A0370932B03BA
S11323A080932C0390932D03C501B4010E94B82699
S11323B02AE037ED43E25CE30E94B82622EE39EBD3
S11323C043EC50E40E941E250E946D269B01AC0143
S11323D062EA7CEE82EF90E40E941E2520E030E069
S11323E040E85FE30E94B5249B01AC016FEE79EBFA
S11323F080E793E40E941E259B01AC0160933A039D
S113240070933B0380933C0390933D036AEE7DE31A
S113241085E19CE30E94B52420E83DE048E85BE3C5
S11324200E94B8269B01AC016DE47EE984EA9FE337
S11324300E94B5240E946B2727EB38E241E95FE351
S11324400E94B52420E83DE048E05BE30E941E259D
S11324504B015C0120E030E0A9010E9469261816B6
S11324604CF08092360390923703A0923803B092D6
S1132470390308C0109236031092370310923803C0
S11324801092390320E034E244E759E4C701B6016D
S11324900E94B8264B015C0120E030E040E251E4A8
S11324A0C301B2010E94B826A70196010E94B52477
S11324B09B01AC01C501B4010E941E256093320347
S11324C07093330380933403909335032BE43FE1FB
S11324D040E951E40E94B8262CE53FE042E153E490
S11324E00E941E2560932E0370932F038093300364
S11324F0909331030F900F900F900F90DF91CF9135
S1132500FF90EF90DF90CF90BF90AF909F908F900F
S11325107F906F905F904F900895CF93A8959FE020
S113252088E10FB6F894A895809360000FBE90934D
S1132530600062E370E080E090E00E94EF1D61E0E3
S113254082E00E94BF1E60E082E00E94FB1E61E008
S113255083E00E94BF1E61E085E00E94BF1E61E02F
S113256086E00E94BF1E60E086E00E94FB1E0E947F
S11325708704E0ECF0E08081806480838FB7F89476
S11325805A9A8FBF0E94870462E370E080E090E073
S11325900E94EF1DC0917C016C2F86EA93E051D418
S11325A06C2F86EA93E04DD462E370E080E090E023
S11325B00E94EF1D89EC94E00E94DE1C40EA56E87C
S11325C061E070E089EC94E00E94ED1C4AE050E088
S11325D060E070E089EC94E0FDD50E94BE1D60933C
S11325E098037093990380939A0390939B03A895FF
S11325F0CF9108950F931F93CF93DF9364E470E01A
S113260089EC94E00E94FA1C64E289EC94E00E9454
S1132610A01C60E089EC94E00E94A01C89EC94E08A
S11326200E946F1D8093920386E990E00E94131E1E
S11326308091920381117AC046E064E489EC94E0CD
S11326400E946D1DCEE7D1E004E811E089EC94E02E
S11326500E941A1C89930C171D07C1F7C0918001B1
S113266062E08EE791E00E94C603C81721F088E576
S1132670809392035BC0C091830162E081E891E0A2
S11326800E94C603C813F3CF60917E0170E0762FD9
S1132690662780917F01680F711D70930D0360930D
S11326A00C038091810190E0982F8827209182016A
S11326B0EC01C20FD11DD0930F03C0930E0380E031
S11326C090E00E94B72520E030E04FE253E40E94FE
S11326D0B82620E03FEF4FE757E40E941E2520E094
S11326E030E044E352E40E94B524609311037093F4
S11326F012038093130390931403BE0180E090E0CF
S11327000E94B72520E030E048EC52E40E94B8264D
S113271020E03FEF4FE757E40E941E256093190322
S113272070931A0380931B0390931C03DF91CF9142
S11327301F910F910895CF93DF936091000189EC6D
S113274094E00E94F01C60E589EC94E00E94A01CD7
S113275089EC94E00E946F1D80939A01811173C0EB
S113276044E06091000189EC94E00E946D1DC8E88A
S1132770D1E089EC94E00E941A1C899381E0CC3862
S1132780D807B9F7609188016F7370E0762F6627D8
S113279080918901682B70930B0360930A0366563A
S11327A0764080E090E00E94B72523E33AEF41EDC4
S11327B05AE30E94B82620E030E040E85FE30E943C
S11327C0B52420E030E048EC52E40E94B82620E032
S11327D030E048EC52E40E94B6246093FF01709309
S11327E00002809301029093020260918A0188E0C2
S11327F0689FB001112480918B0182958695877022
S1132800682B709309036093080380E090E00E94B2
S1132810B72520E030E048E453E40E94B82620E0E5
S113282030EE4FEF54E40E941E2520E030E048E4EF
S113283052E40E94B5246093FB017093FC018093E1
S1132840FD019093FE0186E990E0DF91CF910C9415
S1132850131E4F925F926F927F928F929F92AF92CC
S1132860BF92CF92DF92EF92FF920F931F93E0916A
S11328709B018E2F90E0FC013197EE30F10508F0BA
S1132880E2C1EC5CFF4F0C949B2461E086E00E9463
S1132890FB1E82E0E0C083E0DEC04DDF84E0DBC0ED
S11328A085E080939B018091F2019091F301A091C6
S11328B0F401B091F5018093A5019093A601A09332
S11328C0A701B093A801BFC18091F2019091F301D7
S11328D0A091F401B091F5014091A5015091A60198
S11328E06091A7017091A8018C019D01041B150B37
S11328F0260B370B053611052105310508F4A3C154
S113290020916D01213011F487E0A5C08093A501C9
S11329109093A601A093A701B093A8011BC06ADEFF
S113292019C08091F2019091F301A091F401B0914A
S1132930F5014091A5015091A6016091A701709104
S1132940A801841B950BA60BB70BC397A105B10572
S113295008F479C18AE07FC060E086E00E94FB1E33
S113296080919A01811122C08091990181111EC028
S113297080919F0181111AC0E0901903F0901A030D
S113298000911B0310911C032091FB013091FC0169
S11329904091FD015091FE016091FF017091000290
S11329A080910102909102020E94D7000E9464016A
S11329B0E0901903F0901A0300911B0310911C037B
S11329C02091FB013091FC014091FD015091FE01E9
S11329D06091FF01709100028091010290910202C6
S11329E00E94D9038BE037C00E943E018CE033C0C3
S11329F00E9473028091580290915902A0915A0248
S1132A00B0915B028093720390937303A093740359
S1132A10B093750380915C0290915D02A0915E0277
S1132A20B0915F0280936E0390936F03A093700341
S1132A30B09371038091600290916102A09162024F
S1132A40B091630280936A0390936B03A0936C0329
S1132A50B0936D038EE080939B01F5C0C090720328
S1132A60D0907303E0907403F09075032AE037ED7F
S1132A7043E25CE3C701B6010E94B8264B015C0146
S1132A8060938603709387038093880390938903EC
S1132A902DEC3CEC4CEC5DE30E94B8266093820381
S1132AA070938303809384039093850320E030E044
S1132AB04AE754E4C701B6010E94B82660937E0336
S1132AC070937F038093800390938103C0928A0361
S1132AD0D0928B03E0928C03F0928D0327ED34E8BF
S1132AE044E15EE3C701B6010E94B82660937A030D
S1132AF070937B0380937C0390937D032DEC3CECDB
S1132B004CEC5DE3C701B6010E94B82660937603DE
S1132B10709377038093780390937903C0906E0346
S1132B20D0906F03E0907003F0907103C09266033D
S1132B30D0926703E0926803F092690323E333E9D8
S1132B4048E853E4C701B6010E94B6242B013C01B6
S1132B5060936203709363038093640390936503AB
S1132B6026E636E646EE5FE3C701B6010E94B826C4
S1132B7020E030E040E052E40E94B62460935E031B
S1132B8070935F038093600390936103A3019201A8
S1132B9063E373E982E993E40E941E25A50194018D
S1132BA00E94B8266B017C0160935603709357030F
S1132BB0809358039093590320E030E040E85FE3AA
S1132BC00E94B5246093520370935303809354037B
S1132BD0909355032DEC3CEC4CEC5DE3C701B6013E
S1132BE00E94B82660934E0370934F038093500362
S1132BF0909351032DEC3CEC4CEC5DE30E94B52426
S1132C0060934A0370934B0380934C0390934D035A
S1132C10A7019601609178017091790180917A0100
S1132C2090917B010E94B82660935A0370935B03D2
S1132C3080935C0390935D0380916D01813009F46E
S1132C4068DA10929B011F910F91FF90EF90DF9033
S1132C50CF90BF90AF909F908F907F906F905F9038
S1132C604F9008950F931F938091F2019091F30177
S1132C70A091F401B091F5014091EE015091EF0162
S1132C806091F0017091F1018C019D01041B150B01
S1132C90260B370B093711052105310508F450C0FF
S1132CA08093EE019093EF01A093F001B093F101B2
S1132CB0D0DD40918E0350918F0360919003709109
S1132CC091034115510561057105A9F18091F20146
S1132CD09091F301A091F401B091F501841B950B3F
S1132CE0A60BB70BC397A105B10528F110928E036B
S1132CF010928F031092900310929103F8940FB6E0
S1132D00F894A89580916000886180936000109287
S1132D1060000FBE1092C1001CBC1092BC001124B4
S1132D208FEF98E09EBF8DBF81E085BF82E085BFB5
S1132D30E0E0F8E309958091F70181110E944B03CB
S1132D401F910F9108951AD76093F2017093F301C4
S1132D508093F4019093F501693B7B4081059105D3
S1132D6038F080919E01811103C081E080939E011F
S1132D7080919E01882349F00E9461030E948C0384
S1132D8071DF85E993E00E948023A8950895FC01F2
S1132D9024853585F901E05CFF4F8081918132966D
S1132DA020813181805C9F4F821B930B60E470E033
S1132DB00C946624DC011C96ED91FC911D97DF01B7
S1132DC0A05CBF4F2D913C91119712968D919C91CF
S1132DD011972817390739F08D919C91E80FF91F45
S1132DE0808190E008958FEF9FEF0895FC01A48502
S1132DF0B585FD01E05CFF4F2081318132968081F1
S1132E0091812817390779F080819181A80FB91F22
S1132E108C91208131812F5F3F4F2F733327318372
S1132E20208390E008958FEF9FEF0895FC0181A126
S1132E30882329F0A489B5898C9186FFFBCF11A240
S1132E4008950F931F93CF93DF93FC01A685B78555
S1132E508D01005C1F4FE8018881998101968F7371
S1132E609927AD014E5B5F4FEA01288139818217B2
S1132E709307D1F3E80128813981A20FB31F6C9322
S1132E80A685B785A05CBF4F11969C938E93A689A7
S1132E90B7892C9181E090E0078C02C0880F991FBC
S1132EA00A94E2F7822B8C9381E081A30488F5894C
S1132EB0E02D80818064808381E090E0DF91CF9178
S1132EC01F910F91089508951F920F920FB60F92BC
S1132ED011242F934F935F938F939F93EF93FF93BB
S1132EE08091C00082FD1CC02091C60080914C04DA
S1132EF090914D0401968F73992740914E045091FF
S1132F004F048417950771F0E0914C04F0914D043F
S1132F10E45FFB4F208390934D0480934C0402C0E4
S1132F208091C600FF91EF919F918F915F914F9196
S1132F302F910F900FBE0F901F90189586EA93E083
S1132F4026DF892B09F0BFCF08951F920F920FB689
S1132F500F9211242F933F938F939F93EF93FF939B
S1132F60209108043091090480910A0490910B0483
S1132F702817390731F48091C1008F7D8093C100F7
S1132F8014C0E0910A04F0910B04E853FC4F208133
S1132F9080910A0490910B0401968F739927909362
S1132FA00B0480930A042093C600FF91EF919F9134
S1132FB08F913F912F910F900FBE0F901F901895F6
S1132FC0CF92DF92EF92FF921F93CF93DF93EC01A6
S1132FD06A017B01122F4115514E6105710509F1FA
S1132FE0EC89FD8981E090E008A002C0880F991F58
S1132FF00A94E2F7808360E079E08DE390E0A70132
S113300096010E947924DA01C9010197A109B10945
S1133010B695A795979587959C01211580E138076A
S1133020A8F0EC89FD89108260E874E88EE190E0F4
S1133030A70196010E947924DA01C9010197A10927
S1133040B109B695A795979587959C01E889F98963
S11330503083EA89FB892083E88DF98D1083EE891A
S1133060FF89408181E090E09C010C8C02C0220F1A
S1133070331F0A94E2F7242B2083EE89FF894081D1
S11330809C010D8C02C0220F331F0A94E2F7242BFB
S11330902083EE89FF8940819C010E8C02C0220F9F
S11330A0331F0A94E2F7242B2083EE89FF892081C1
S11330B00F8C02C0880F991F0A94E2F7809582232F
S11330C08083DF91CF911F91FF90EF90DF90CF909D
S11330D00895E6EAF3E01382128288EE93E0A0E01A
S11330E0B0E084839583A683B7838EE291E09183D5
S11330F080838CE094E09587848788EC93E09787BD
S1133100868785EC90E0918B808B84EC90E0938BA8
S1133110828B80EC90E0958B848B81EC90E0978B94
S1133120868B82EC90E0918F808F86EC90E0938F79
S1133130828F84E0848F83E0858F87E0868F85E0AB
S1133140878F81E080A308950895A8959FE088E182
S11331500FB6F894A895809360000FBE909360001A
S11331601092BC001092C0001092C1001092C200D4
S113317064D5EADFD2D9CEE9D7E1E5DD2097E9F3DA
S1133180DDDEFBCFCF92DF92EF92FF920F931F937E
S1133190CF93DF936C01EB017B01E40EF51E00E09D
S11331A010E0CE15DF0561F06991D601ED91FC9137
S11331B00190F081E02DC6010995080F191FF1CF88
S11331C0C801DF91CF911F910F91FF90EF90DF9095
S11331D0CF900895FC0144835583668377830895D3
S11331E0813039F018F0823051F0089510926E0059
S11331F0089580916F008D7F80936F000895809172
S113320070008D7F8093700081E08093B000809186
S1133210B100887F84608093B1001092B300089558
S1133220CF93C82F80910101C81307C0E6E0F1E0F5
S113323084919FEF9093010101C08FEFD1DF60E093
S11332408C2FCF91D8C51F920F920FB60F921124D5
S11332502F933F934F935F936F937F938F939F939A
S1133260AF93BF93EF93FF938091530490915404D1
S1133270A0915504B0915604892B8A2B8B2B51F1C4
S113328090915004E0915104F09152048081892777
S113329080838091530490915404A0915504B0917B
S11332A05604181619061A061B06BCF4809153041A
S11332B090915404A0915504B09156040197A1092A
S11332C0B1098093530490935404A0935504B0938C
S11332D0560403C080910101A3DFFF91EF91BF91D8
S11332E0AF919F918F917F916F915F914F913F919A
S11332F02F910F900FBE0F901F9018951092C40439
S113330081E08093C2041092C10461E082E173D52C
S113331061E083E170D5E9EBF0E080818E7F80830A
S113332080818D7F808388E48093B80085E48093D6
S1133330BC0008959B01AC0160E074E284EF90E06E
S11333400E947924DA01C9014097A109B109B6950F
S1133350A795979587958093B8000895413208F012
S113336043C09091C4049111FCCF91E09093C404A4
S11333702093C2042FEF2093570410929C04240F2F
S113338020939B049093C3049091C304880F892BCA
S11333908093C3048091C104813061F41092C1040C
S11333A08091C3048093BB008091BC0083FDF8CF5F
S11333B085EC01C085EE8093BC008091C40481300B
S11333C0E1F380919C04841710F440919C04ADE9CE
S11333D0B4E0962FFB018E2F891B841718F48D916E
S11333E08193F9CF842F089580E008950F9341329B
S11333F008F04AC09091C4049111FCCF32E030939C
S1133400C4040093C2043FEF3093570410929C0409
S113341040939B04562FADE9B4E0FB013E2F351BCE
S1133420341718F431913D93F9CF1092C3043091BD
S1133430C304880F832B8093C3048091C10481301B
S113344061F41092C1048091C3048093BB00809105
S1133450BC0083FDF8CF85EC01C085EE8093BC00F1
S1133460222321F08091C4048230D1F38091570447
S11334708F3F79F080915704803241F08091570456
S1133480803331F094E005C091E003C092E001C0C4
S113349093E0892F0F91089540917904262F30E00D
S11334A0240F311D21323105DCF42091C404243071
S11334B0C9F4FC0180E090E0861758F43091790457
S11334C02191DC01A558BB4FA30FB11D2C9301968C
S11334D0F3CF80917904680F6093790480E00895B4
S11334E081E0089582E008959093BE048093BD0422
S11334F008959093C0048093BF04089585ED80934C
S1133500BC008091BC0084FDFCCF1092C4040895DB
S113351085EC8093BC001092C40408951F920F920E
S11335200FB60F9211242F933F934F935F936F9392
S11335307F938F939F93AF93BF93EF93FF93809168
S1133540B900887F803609F49DC070F5883209F48B
S11335505CC090F4803109F455C038F4882309F430
S1133560F3C0883009F44EC0F2C0883109F44DC06C
S1133570803209F45EC0EBC0803409F469C050F4B1
S1133580803309F456C0883309F0E1C080935704AE
S1133590BFDFDDC0803509F44FC0883509F45DC054
S11335A0883409F0D4C0D2C0883909F4C3C0A8F45F
S11335B0883709F467C038F4883609F463C0803763
S11335C009F460C0C4C0883809F4B4C0803909F46F
S11335D05FC0803809F0BBC05BC0803B09F482C087
S11335E038F4803A09F466C0883A09F47BC0AFC065
S11335F0803C09F4A3C0883C09F4A0C0883B09F4CA
S113360086C0A5C08091C30410C090919C04809191
S11336109B04981770F5E0919C0481E08E0F8093D1
S11336209C04F0E0E356FB4F80818093BB0085EC63
S113363082C0809357048AC0E0919C0481E08E0F7D
S113364080939C048091BB00F0E0E356FB4F8083A1
S113365090919C0480919B046AC0E0919C0481E059
S11336608E0F80939C048091BB00F0E0E356FB4FE7
S113367080838091C204811169C081E08093C10478
S113368084EA5DC083E08093C40410925804CFCFD1
S113369080915804803208F04DC0E091580481E0D4
S11336A08E0F809358048091BB00F0E0E75AFB4FE3
S11336B08083BDCF2DDF80915804803230F4E091B7
S11336C05804F0E0E75AFB4F10826091580470E010
S11336D0E091BD04F091BE0489E594E0099510924F
S11336E0580435C084E08093C40410927A04109284
S11336F07904E091BF04F091C004099580917904A4
S1133700811105C081E08093790410927B04E091DB
S11337107A0481E08E0F80937A04F0E0E558FB4F41
S113372080818093BB0090917A04809179049817EA
S113373008F47DCF85E88093BC0009C085EC8093B4
S1133740BC001092C40403C010925704D7DEFF914A
S1133750EF91BF91AF919F918F917F916F915F9105
S11337604F913F912F910F900FBE0F901F9018957E
S11337701F920F920FB60F9211242F933F934F93E2
S11337805F936F937F938F939F93AF93BF93EF93C5
S1133790FF938091C5049091C604892B29F0E09190
S11337A0C504F091C6040995FF91EF91BF91AF91C3
S11337B09F918F917F916F915F914F913F912F9145
S11337C00F900FBE0F901F9018951F920F920FB677
S11337D00F9211242F933F934F935F936F937F9393
S11337E08F939F93AF93BF93EF93FF938091C704FD
S11337F09091C804892B29F0E091C704F091C80482
S11338000995FF91EF91BF91AF919F918F917F9116
S11338106F915F914F913F912F910F900FBE0F9039
S11338201F9018958091FD0490E02091FE04821B66
S1133830910908959091FE048091FD04981750F425
S1133840E92FF0E0E150FB4F208130E09F5F90933F
S1133850FE0402C02FEF3FEFC9010895E091FE047A
S11338608091FD04E81730F4F0E0E150FB4F8081D3
S113387090E008958FEF9FEF08950895CF93DF931D
S1133880EC01E091D504F091D6043097F1F09091D9
S1133890FE048091FD049817C0F090E0292F30E0D9
S11338A02617370754F4DE01A20FB31F4C91D90138
S11338B0A150BB4F4C939F5FF1CF1092FE046093D5
S11338C0FD04CB01DF91CF910994DF91CF9108954D
S11338D0E091D704F091D804309729F01092DB04DA
S11338E01092DA0409940895CF92DF92EF92FF9236
S11338F00F931F93CF93DF937C01CB018A01209117
S1133900D904222389F0EB016B01C40ED51ECC151A
S1133910DD0561F06991D701ED91FC910190F08191
S1133920E02DC7010995F3CF642FB6DDC801DF91FF
S1133930CF911F910F91FF90EF90DF90CF9008955A
S1133940CF93DF931F92CDB7DEB769832091D9045B
S11339502223D1F02091DA04203240F021E030E03B
S1133960FC013383228380E090E014C08091DB0467
S1133970E82FF0E0E452FB4F998190838F5F8093AE
S1133980DB048093DA0404C061E0CE01019684DD97
S113399081E090E00F90DF91CF910895FC011382B4
S11339A0128288EE93E0A0E0B0E084839583A6833E
S11339B0B7838EE391E09183808308951092FE048F
S11339C01092FD041092DB041092DA0497DC88E66E
S11339D09CE18FDD8EE39CE187CDCB01BA01AACCBB
S11339E081E08093D9046093FC041092DB0410926C
S11339F0DA040895F5CF0F93062F21E04091DA04FD
S1133A006CED74E08091FC04F1DC1092DB04109204
S1133A10DA041092D9040F9108954F925F926F9235
S1133A207F92AF92BF92CF92EF92FF920F931F9328
S1133A30CF93DF935C01F62ED42F28013901EE20B9
S1133A4011F1CEDFCE2DC43008F0C3E0C150C0F078
S1133A5028E0C29FC0011124A301920104C056951D
S1133A604795379527958A95D2F7CA01B901D501AB
S1133A70ED91FC910190F081E02DC5010995E6CF0F
S1133A8060E0C501B8DF4D2FD13208F040E22C2DA3
S1133A906FEF74E08F2D62DC1092FE048093FD04BE
S1133AA0DF91CF911F910F91FF90EF90CF90BF9036
S1133AB0AF907F906F905F904F900895CF92EF9268
S1133AC00F931F93C22EE12C00E010E09801A5DFB4
S1133AD01F910F91EF90CF90089521E0EFCF61E017
S1133AE08ACF89EC94E05ACF1F920F920FB60F92AF
S1133AF011242F933F938F939F93AF93BF93809100
S1133B00200590912105A0912205B09123053091C3
S1133B101F0523E0230F2D3720F40196A11DB11DAD
S1133B2005C026E8230F0296A11DB11D20931F0591
S1133B308093200590932105A0932205B09323053B
S1133B408091240590912505A0912605B091270523
S1133B500196A11DB11D8093240590932505A09382
S1133B602605B0932705BF91AF919F918F913F9107
S1133B702F910F900FBE0F901F9018952FB7F894A8
S1133B806091200570912105809122059091230573
S1133B902FBF08953FB7F89480912405909125058F
S1133BA0A0912605B091270526B5A89B05C02F3FF7
S1133BB019F00196A11DB11D3FBFBA2FA92F982F4F
S1133BC08827820F911DA11DB11DBC01CD0142E0CA
S1133BD0660F771F881F991F4A95D1F70895CF92D2
S1133BE0DF92EF92FF92CF93DF936B017C01D2DFE0
S1133BF0EB01C114D104E104F10471F0CBDF6C1BBF
S1133C007D0B683E7340A8F381E0C81AD108E1082F
S1133C10F108C851DC4FEDCFDF91CF91FF90EF90C9
S1133C20DF90CF900895019739F0880F991F880F7E
S1133C30991F02970197F1F70895789484B58260EB
S1133C4084BD84B5816084BD85B5826085BD85B53C
S1133C50816085BDEEE6F0E0808181608083109212
S1133C607A0010927B008FEF80937E001092C10047
S1133C7008951F93CF93DF93182FEB0161E07FD05A
S1133C80209711F460E004C0CF3FD10531F461E026
S1133C90812FDF91CF911F91AEC0E12FF0E0E95F5A
S1133CA0FE4FE491E330F9F048F4E130B9F0E2304A
S1133CB0A1F584B5806284BDC8BD34C0E630E9F0A6
S1133CC0E73019F1E43049F58091800080628093F7
S1133CD08000D0938B00C0938A0024C084B5806890
S1133CE084BDC7BD1FC08091800080688093800020
S1133CF0D0938900C093880015C08091B00080687B
S1133D008093B000C093B3000DC08091B000806276
S1133D108093B000C093B40005C0C038D1050CF046
S1133D20B6CFB0CFDF91CF911F910895833081F04A
S1133D3028F4813099F08230A1F008958630A9F0FA
S1133D408730B9F08430D1F4809180008F7D03C036
S1133D50809180008F7780938000089584B58F7759
S1133D6002C084B58F7D84BD08958091B0008F77A3
S1133D7003C08091B0008F7D8093B0000895CF93ED
S1133D80DF9390E0FC01E55EFE4F2491FC01E15DD0
S1133D90FE4F8491882361F190E0880F991FFC0104
S1133DA0E35BFE4FC591D491FC01ED5BFE4FA59101
S1133DB0B491611109C09FB7F8948881209582233A
S1133DC08883EC912E230BC0623061F49FB7F89482
S1133DD08881322F309583238883EC912E2B2C936A
S1133DE09FBF06C08FB7F894E8812E2B28838FBF1E
S1133DF0DF91CF9108951F93CF93DF93282F30E065
S1133E00F901E95FFE4F8491F901E55EFE4FD4911B
S1133E10F901E15DFE4FC491CC23B9F0162F811155
S1133E2085DFEC2FF0E0EE0FFF1FED5BFE4FA59159
S1133E30B4919FB7F894111104C08C91D095D823F4
S1133E4002C0EC91DE2BDC939FBFDF91CF911F91D9
S1133E5008951F920F920FB60F9211242F933F9340
S1133E604F935F936F937F938F939F93AF93BF937E
S1133E70CF93DF93EF93FF9390914805A09147056B
S1133E80209188003091890080912C05482F50E0C2
S1133E90C0917C05D0917D05B0914605E92FF0E0F5
S1133EA04E175F07ECF02C0F3D1FEA2FE170A6952B
S1133EB09F5FEB1799F380918000EE2311F0806CE3
S1133EC002C08F7B806880938000309389002093A8
S1133ED08800E0934605A0934705909348058FC05A
S1133EE090912A05911105C0EA012196EC17FD076E
S1133EF029F0EA012296EC17FD07A1F48D5F809367
S1133F00480580918000806C8093800060912B052F
S1133F1040917C0550917D05649FC001659F900D83
S1133F20112467C04F5F5F4FE417F507C9F48E5F34
S1133F308093480580912D05B81709F456C088234D
S1133F4021F080918000806C04C0809180008F7B80
S1133F5080688093800080912D058093460545C03C
S1133F6080914505E09144058E130DC010924805DB
S1133F70809180008F738093800080916F008D7F8B
S1133F8080936F003CC081E080934805EF5FE4318B
S1133F9008F0E0E0E0934405F0E0E25DFA4F808150
S1133FA080934705109246059923C9F0082E8295FF
S1133FB08025082E8695869580258F5F81FB662750
S1133FC060F970E041E050E0923011F040E050E0E0
S1133FD081E06417750709F080E080932D058091D6
S1133FE080008F7B80688093800080917C05909115
S1133FF07D05280F391F3093890020938800FF9195
S1134000EF91DF91CF91BF91AF919F918F917F916C
S11340106F915F914F913F912F910F900FBE0F9031
S11340201F9018951F920F920FB60F9211241F9391
S11340302F933F934F935F936F937F938F939F93AC
S1134040AF93BF93CF93DF93EF93FF9320918600B9
S1134050309187009091790580918100992331F006
S11340608F7B809381001092790506C080648093D1
S1134070810080E88093790580917B05811123C0BC
S113408091119AC08091750590917605820F931FC6
S113409090938B0080938A0084E086BB80916F00AC
S11340A0846080936F0080917C0590917D05280F3A
S11340B0391F96958795280F391F309378052093DB
S11340C0770581E074C04091770550917805C091DF
S11340D02C057091790590917A05A0917C05B09199
S11340E07D05D091290510912805241B350B37FD3A
S11340F058C0882321F0C81710F09695972B4A0FC3
S11341005B1F8F5F8D1708F446C090937A058091EA
S11341106F008B7F80936F0090912A059923F9F0AB
S113412080917A05082E82958025082E869586959D
S113413080258F5F81FBEE27E0F9F0E021E030E09D
S1134140923011F020E030E081E090E0E217F307D4
S113415011F080E090E070E08617970791F4809169
S113416074058F5F883230F590917305891749F093
S1134170E82FF0E090917A05E75BFA4F9083809303
S11341807405809181008F7B809381001092790562
S113419010927B0511C0811708F4672F2A1B3B0B73
S11341A0A6CF90937A055093780540937705809332
S11341B07B0502C080E0D8CFFF91EF91DF91CF91D2
S11341C0BF91AF919F918F917F916F915F914F912B
S11341D03F912F911F910F900FBE0F901F90189534
S11341E01F920F920FB60F9211242F934F935F9348
S11341F06F937F938F939F93EF93FF9380916F00BF
S11342008B7F80936F00809181008F7B80938100EE
S113421080917B0520917905205840912C0550E030
S113422090917A05682F70E04617570724F0969509
S1134230922B8F5FF7CF90937A05809174058F5FEF
S1134240883208F080E020917305821739F0E82F56
S1134250F0E0E75BFA4F90838093740510927B053E
S1134260809181008F7B8093810010927905FF916A
S1134270EF919F918F917F916F915F914F912F91CA
S11342800F900FBE0F901F9018950F931F93CF930D
S1134290DF93EC0126E040E855E260E070E086EA56
S11342A093E00E94E017E1ECF0E080818064808379
S11342B01A87098784E080937E05DF91CF911F914F
S11342C00F9108958FEF9FEF4217A8F4FB01E40FBD
S11342D0F11D3081832738E0FC01E170FF279695BA
S11342E08795EF2B21F051E0852750EA952731502F
S11342F099F74F5FE9CF98278927982708951F9347
S1134300CF93DF93EB01142F242F40E0DBDFFE017A
S1134310E10FF11D90831F5FC10FD11D8883DF91D1
S1134320CF911F910895FB0141814330A9F046309C
S113433029F0403189F081E090E00895228130E055
S1134340322F22274381240F311DFC018185928560
S11343502817390718F528C0248130E0322F222786
S11343605581250F311D433021F0403111F040E0DB
S113437001C04EE021153105A1F050E0421753076A
S113438080F0228130E0322F22274381240F311D17
S1134390FC01818592858217930730F482E090E0D6
S11343A0089583E090E0089580E090E00895FC0192
S11343B07087678308950F931F93CF93DF93DB0177
S11343C0BA01A9019801EC01EF81F885CD01DF91D3
S11343D0CF911F910F9109946F927F928F929F9228
S11343E0AF92BF92CF92DF92EF92FF920F931F93FF
S11343F0CF93DF935C014B016A0139017A01C0E07C
S1134400D0E082E0E80EF11CF601858190E0C81747
S1134410D90788F4F701058110E0102F0027868161
S1134420082BAE01480D591D21E030E0B301C50150
S1134430C2DF2196E6CFCE01DF91CF911F910F917C
S1134440FF90EF90DF90CF90BF90AF909F908F90B0
S11344507F906F9008951F920F920FB60F921124C0
S11344605A980F900FBE0F901F901895EF92FF92DD
S11344700F931F93CF93DF938091C0008064809348
S1134480C0008FB7F8945A9A8FBFEB01042F10E045
S11344907B01E00EF11ECE15DF0531F0699186EA4D
S11344A093E00E942117F7CFC801DF91CF911F91AC
S11344B00F91FF90EF900895EF92FF920F931F9347
S11344C0CF938C017B01C42F1ADF42E04C0FB7015C
S11344D0C801CF911F910F91FF90EF90C7CFCF925A
S11344E0DF92EF92FF920F931F93CF93DF93CDB799
S11344F0DEB728970FB6F894DEBF0FBECDBF6C01B0
S1134500842F752FA801698390E19A837B838C8320
S11345101D822E839701682FC6015EDF892B39F037
S113452046E0BE016F5F7F4FC601C6DF02C080E078
S113453090E028960FB6F894DEBF0FBECDBFDF9192
S1134540CF911F910F91FF90EF90DF90CF9008953E
S1134550EF92FF920F931F93CF93DF93CDB7DEB704
S113456028970FB6F894DEBF0FBECDBF7C01C801FB
S1134570F90104811581102701271027698326E09A
S11345802A835B834C831D830E8321E030E0BC01CE
S1134590C70111DF46E0BE016F5F7F4FC7018CDFAB
S11345A028960FB6F894DEBF0FBECDBFDF91CF9132
S11345B01F910F91FF90EF900895AF92BF92CF9209
S11345C0DF92EF92FF920F931F93CF93DF93CDB7B8
S11345D0DEB7A8970FB6F894DEBF0FBECDBF6C014F
S11345E05801698383E08A83822F880F8B83E22EAC
S11345F0F12C00E010E09701B501C601DCDED50125
S1134600FE01319680E090E0BF0132968E159F0541
S113461048F42C9111963C91119712963183228380
S11346200196F3CFA701440F551F4D5F5F4FC6019D
S113463043DFA8960FB6F894DEBF0FBECDBFDF915F
S1134640CF911F910F91FF90EF90DF90CF90BF908B
S1134650AF9008950F931F93CF93DF938B01C0E026
S1134660D0E086EA93E00E94C716892B71F086EAAF
S113467093E00E94F616F80181938F012196C632C9
S1134680D10579F78FEF9FEF01C0CE01DF91CF9174
S11346901F910F910895DF92EF92FF920F931F9352
S11346A0CF93DF937C01D62E8A01BA01D3DFEC01CC
S11346B018161906CCF4282F225040E0B801C7017F
S11346C001DEA8014C0F5D1FFA013297208130E012
S11346D0322F222731964081242B8217930731F4FD
S11346E0F80180818D1102C0CE0102C08FEF9FEFCF
S11346F0DF91CF911F910F91FF90EF90DF9008957C
S11347008F929F92AF92BF92CF92DF92EF92FF92DD
S11347100F931F93CF93DF93CDB7DEB7CC57D10957
S11347200FB6F894DEBF0FBECDBF6C0186EA93E0EE
S11347300E94C7165C01892B21F4F601108A1786A2
S113474087C01CDA2BB1122F147022FD81C0F60130
S113475027853089A216B30639F0B08AA786638705
S113476074878587968775C0F60183849484A584AD
S1134770B684DC01CB0188199909AA09BB09809088
S11347807E05912CA12CB12C88159905AA05BB0591
S113479008F45FC0108A1786AE014B5A5F4F6081E0
S11347A0C60179DF181619060CF050C0482FBE0157
S11347B06B5A7F4FC601B7DD9C0167969FAD679723
S11347C02115310571F0122FF601808189839058EB
S11347D09A832B8343E0BE016F5F7F4FC6016CDE7B
S11347E038C068964FAD689750E0542F44276996B7
S11347F08FAD6997480F511DF60192839630E1F011
S1134800903161F0933029F58E010F5F1F4F6B9645
S11348102FAD6B976081C601D0DE18C0CE01019622
S11348207C018E010B5A1F4F6B962FAD6B97F601CF
S11348306081C60154DE0AC08E010F5F1F4F9E01C6
S11348402B5A3F4FF6016081C60182DE182F01C04A
S113485010E0812FC458DF4F0FB6F894DEBF0FBEAF
S1134860CDBFDF91CF911F910F91FF90EF90DF901B
S1134870CF90BF90AF909F908F90089508951F920E
S11348800F920FB60F9211242F933F934F935F9380
S11348906F937F938F939F93AF93BF93EF93FF9304
S11348A0E0910201F09103010995FF91EF91BF910D
S11348B0AF919F918F917F916F915F914F913F91B4
S11348C02F910F900FBE0F901F90189597FB072EF6
S11348D016F4009406D077FD08D033D007FC05D039
S11348E03EF4909581959F4F0895709561957F4F03
S11348F00895A1E21A2EAA1BBB1BFD010DC0AA1F1D
S1134900BB1FEE1FFF1FA217B307E407F50720F034
S1134910A21BB30BE40BF50B661F771F881F991FAF
S11349201A9469F760957095809590959B01AC01F8
S1134930BD01CF010895EE0FFF1F0590F491E02D06
S11349400994AA1BBB1B51E107C0AA1FBB1FA617D2
S1134950B70710F0A61BB70B881F991F5A95A9F724
S113496080959095BC01CD0108955058BB27AA2786
S11349700ED075C166D130F06BD120F031F49F3F79
S113498011F41EF45BC10EF4E095E7FB51C1E92F6D
S113499077D180F3BA17620773078407950718F075
S11349A071F49EF58FC10EF4E0950B2EBA2FA02D55
S11349B00B01B90190010C01CA01A0011124FF27C8
S11349C0591B99F0593F50F4503E68F11A16F040C3
S11349D0A22F232F342F4427585FF3CF46953795C2
S11349E02795A795F0405395C9F77EF41F16BA0B87
S11349F0620B730B840BBAF09150A1F0FF0FBB1F35
S1134A00661F771F881FC2F70EC0BA0F621F731F7D
S1134A10841F48F4879577956795B795F7959E3FDA
S1134A2008F0B3CF9395880F08F09927EE0F979568
S1134A3087950895D9D008F481E008950CD00FC16A
S1134A4007D140F0FED030F021F45F3F19F0F0C000
S1134A50511139C1F3C014D198F39923C9F35523E3
S1134A60B1F3951B550BBB27AA276217730784075D
S1134A7038F09F5F5F4F220F331F441FAA1FA9F313
S1134A8033D00E2E3AF0E0E830D091505040E69505
S1134A90001CCAF729D0FE2F27D0660F771F881F66
S1134AA0BB1F261737074807AB07B0E809F0BB0B55
S1134AB0802DBF01FF2793585F4F2AF09E3F510579
S1134AC068F0B6C000C15F3FECF3983EDCF3869516
S1134AD077956795B795F7959F5FC9F7880F911DEF
S1134AE09695879597F90895E1E0660F771F881FDB
S1134AF0BB1F621773078407BA0720F0621B730B8E
S1134B00840BBA0BEE1F88F7E095089504D06894DF
S1134B10B111D9C00895BCD088F09F5790F0B92F37
S1134B209927B751A0F0D1F0660F771F881F991FFE
S1134B301AF0BA95C9F712C0B13081F0C3D0B1E010
S1134B400895C0C0672F782F8827B85F39F0B93F20
S1134B50CCF3869577956795B395D9F73EF4909500
S1134B608095709561957F4F8F4F9F4F0895E8947E
S1134B7009C097FB3EF490958095709561957F4FA1
S1134B808F4F9F4F9923A9F0F92F96E9BB2793954F
S1134B90F695879577956795B795F111F8CFFAF45F
S1134BA0BB0F11F460FF1BC06F5F7F4F8F4F9F4F90
S1134BB016C0882311F096E911C0772321F09EE8EE
S1134BC0872F762F05C0662371F096E8862F70E054
S1134BD060E02AF09A95660F771F881FDAF7880F2E
S1134BE09695879597F90895990F0008550FAA0B84
S1134BF0E0E8FEEF16161706E807F907C0F01216EC
S1134C001306E407F50798F0621B730B840B950BEE
S1134C1039F40A2661F0232B242B252B21F4089543
S1134C200A2609F4A140A6958FEF811D811D0895E0
S1134C3097F99F6780E870E060E008959FEF80EC4B
S1134C40089500240A9416161706180609060895EE
S1134C5000240A9412161306140605060895092E54
S1134C600394000C11F4882352F0BB0F40F4BF2BC3
S1134C7011F460FF04C06F5F7F4F8F4F9F4F089503
S1134C8057FD9058440F551F59F05F3F71F04795F9
S1134C90880F97FB991F61F09F3F79F087950895DE
S1134CA0121613061406551FF2CF4695F1DF08C0FD
S1134CB0161617061806991FF1CF8695710561051A
S1134CC008940895E894BB2766277727CB0197F9C2
S1134CD008958ADF08F48FEF08950AD029ED3BE5A3
S1134CE04EED5EE345C00EF065C1A8CF6894A0CF39
S1134CF0CFDFC8F39923D1F3C6F3DF93CF931F9388
S1134D000F93FF92C92FDD2788232AF02197660F7E
S1134D10771F881FDAF720E030E040E85FEB9FE37D
S1134D20883920F0803E30F021968F771FDEE4E84A
S1134D30F0E003C01BDEE1EBF0E051D18B01BE01DA
S1134D40EC01FB2E6F5771097595771F880B990B32
S1134D5010DF28E132E741E35FE316D0AF2D98017D
S1134D60AE01FF900F911F91CF91DF9110DE77CFAD
S1134D700BD075CF66DF28F06BDF18F0952309F0B0
S1134D8057CF5CCF11249FCF7BDFA0F3959FD1F346
S1134D90950F50E0551F629FF001729FBB27F00DE5
S1134DA0B11D639FAA27F00DB11DAA1F649F66273A
S1134DB0B00DA11D661F829F2227B00DA11D621F89
S1134DC0739FB00DA11D621F839FA00D611D221F43
S1134DD0749F3327A00D611D231F849F600D211D27
S1134DE0822F762F6A2F11249F5750408AF0E1F0CA
S1134DF088234AF0EE0FFF1FBB1F661F771F881F13
S1134E0091505040A9F79E3F510570F011CF5BCFF0
S1134E105F3FECF3983EDCF3869577956795B795FD
S1134E20F795E7959F5FC1F7FE2B880F911D969527
S1134E30879597F90895FA01EE0FFF1F3096210523
S1134E40310599F16115710561F48038BFE39B0761
S1134E5049F168949038810561F08038BFEF9B0771
S1134E6041F0992342F5FF3FE1053105210511F198
S1134E70E8940894E795D901AA2329F4AB2FBE2F0F
S1134E80F85FD0F310C0FF5F70F4A695E0F7F73930
S1134E9050F019F0FF3A38F49F779F930CD00F909D
S1134EA007FC905808953EF0C9CE60E070E080E8B9
S1134EB09FE308954FE79F775F934F933F932F931B
S1134EC017DF2F913F914F915F9152DF47C011F44B
S1134ED00EF4B4CE6FC0DCDED0F39923D9F3CEF355
S1134EE09F57550B87FF74D00024A0E640EA900139
S1134EF080585695979528F4805C660F771F881F15
S1134F0020F026173707480730F4621B730B840B15
S1134F10202931294A2BA695179407942025312559
S1134F204A2758F7660F771F881F20F02617370780
S1134F30480730F4620B730B840B200D311D411DA7
S1134F40A09581F7B901842F9158880F969587957C
S1134F50089519F40EF06CCEB5CE70CE99DEC8F378
S1134F609638C0F707F80F92E8942BE33AEA48EB37
S1134F705FE70CDF0F920F920F924DB75EB70F925F
S1134F8090D0EEEDF0E02BD04F915F91EF91FF9137
S1134F90E595EE1FFF1F49F0FE57E0684427EE0F2A
S1134FA0441FFA95E1F74195550B47D00F9007FE42
S1134FB03BC008959F3F31F0915020F48795779539
S1134FC06795B795880F911D9695879597F90895DC
S1134FD091505040660F771F881FD2F70895DF93D2
S1134FE0CF931F930F93FF92EF92DF927B018C017B
S1134FF0689405C0DA2EEF01C7DEFE01E894A5919E
S11350002591359145915591AEF3EF01C0DCFE0138
S11350109701A801DA9479F7DF90EF90FF900F9150
S11350201F91CF91DF9108959B01AC0160E070E086
S113503080E89FE303CDFCCDBDCF2ADEE8F39923BE
S1135040D9F3940F511DBBF39150504094F059F093
S1135050882332F0660F771F881F91505040C1F7A4
S11350609E3F510544F7880F911D9695879597F9B2
S113507008955F3FACF0983E9CF0BB2786957795EA
S11350806795B79508F4B1609395C1F7BB0F58F7CE
S113509011F460FFE8CF6F5F7F4F8F4F9F4FE3CFD7
S11350A012CEFA01DC01AA0FBB1F9B01AC01BF5752
S11350B028F422273327442750781FC0B75188F497
S11350C0AB2F0024469537952795011CA395D2F361
S11350D0002069F0220F331F441FB395DAF30DD07B
S11350E044CC61307105A0E88A07B94630F49B01CD
S11350F0AC016627772788279078309621F02083A3
S10F51003183428353830895F894FFCF59
S113510C28FF3E246009C01280254038004B0096CD
S113511CC0DA0000003F0000003F0000003F8FC2D7
S113512CF53C8FC2F53C8FC2F53C00000000211702
S113513CC218C716F616DA16161700000000A01CC3
S113514C741C121C1A1C2E1C3D1C00ECFF6606362B
S113515C33140100000000000000000000000000F7
S113516C004842000070420000A0428500006765C0
S111517CAAAAAAAA00038813CBA1C5400A0060
S9030000FC
