:10000000ADC000000C94B41F0C94E11FCFC00000E1
:10001000CDC00000CBC00000C9C000000C941F1D63
:10002000C5C00000C3C000000C942D240C944423D0
:100030000C940B250C946628B9C00000B7C00000D2
:100040000C947021B3C000000C94731B0C94B41B6F
:100050000C944626ABC00000A9C00000A7C0000059
:100060000C948A1EA3C0000085188B188D18901858
:10007000A418631ACF18EA18D118EC1834193819D3
:10008000631A6E1908000000BE922449123EABAA02
:10009000AA2ABECDCCCC4C3E00000080BEABAAAAA2
:1000A000AA3E00000000BF000000803F00000000EA
:1000B00000084178D3BB4387D1133D190E3CC3BD23
:1000C0004282AD2B3E68EC8276BED98FE1A93E4CD0
:1000D00080EFFFBE01C4FF7F3F0000000000076308
:1000E0004236B79BD8A71A39685618AEBAAB558CAA
:1000F0001D3CB7CC5763BD6DEDFD753EF6177231F3
:10010000BF000000803F0200000007000201000065
:1001100003040600000000000000000102040810B3
:10012000204080010204081020010204081020046D
:10013000040404040404040202020202020303038E
:1001400003030300000000250028002B000000002E
:1001500000240027002A0000781C6D2111241FBEF6
:10016000CFEFD8E0DEBFCDBF11E0A0E0B1E0E6E820
:10017000F9E502C005900D92A035B107D9F725E049
:10018000A0E5B1E001C01D92A937B207E1F710E088
:10019000CEEAD0E004C02197FE010E94C228CC3AEA
:1001A000D107C9F70E94B41C0C94C12C29CF0C9420
:1001B000AB2C0C94B32CCF92DF92EF92FF920F9363
:1001C0001F93CF93DF93E1E0E0937101EFE6F2E05C
:1001D000CFECD2E0AFE9CA2EA2E0DA2E61937193A0
:1001E000819391932993399349935993D601ED9231
:1001F000FD920D931D936D01B2E0E338FB0771F79B
:10020000EAEFF1E0A2E1B2E06193719381939193FF
:10021000AE17BF07C9F7E6E1F2E0AEE2B2E0219324
:10022000319341935193AE17BF07C9F7E2E3F2E070
:10023000AAE4B2E0E192F19201931193AE17BF07E5
:10024000C9F760934F0270935002809351029093CC
:10025000520220935302309354024093550250931C
:100260005602E0925702F0925802009359021093FE
:100270005A02DF91CF911F910F91FF90EF90DF9085
:10028000CF90089580914E028F5F863018F480934E
:100290004E0202C010924E0220914E02AFE5B2E033
:1002A00084E0289F9001112480E090E04D915D91C1
:1002B0006D917D91FC01E20FF31FE650FE4F4083EC
:1002C0005183628373834C968435910579F7089541
:1002D0008F929F92AF92BF92CF92DF92EF92FF9256
:1002E00080916C018111EEC0C0901803D090190369
:1002F000E0901A03F0901B0320E030E0A901C70151
:10030000B6010E94412987FF09C080918A0390911C
:100310008B03816090938B0380938A0320E030E409
:100320004CE955E4C701B6010E94902A18164CF416
:1003300080918A0390918B03826090938B038093CA
:100340008A0320E030E44CE156E4C701B6010E9484
:10035000902A181654F020E030E048EC52ECC70127
:10036000B6010E94412987FF09C080918A039091BC
:100370008B03846090938B0380938A03C090140353
:10038000D0901503E0901603F090170320E030E0C2
:1003900040E752ECC701B6010E94412987FF09C01E
:1003A00080918A0390918B03886090938B03809354
:1003B0008A0320E030E040EA52E4C701B6010E941F
:1003C000902A18164CF480918A0390918B038061D7
:1003D00090938B0380938A03C0905503D09056036B
:1003E000E0905703F09058036091540370E080E070
:1003F00090E00E94E029A70196010E94412987FF11
:1004000009C080918A0390918B03806490938B0341
:1004100080938A036091530370E080E090E00E9433
:10042000E0299B01AC01C701B6010E94902A181671
:100430004CF480918A0390918B03806890938B0396
:1004400080938A0360914E0370E080E090E00E9408
:10045000E0294B015C01C0904F03D0905003E09025
:100460005103F0905203A70196010E94902A18169A
:100470004CF480918A0390918B03986090938B0346
:1004800080938A03A7019601C501B4010E94412906
:1004900087FF18C060914D0370E080E090E00E94FB
:1004A000E0299B01AC01C701B6010E94412987FFE9
:1004B00009C080918A0390918B03906190938B0384
:1004C00080938A0380910703882349F080918A03EF
:1004D00090918B03906290938B0380938A03FF909B
:1004E000EF90DF90CF90BF90AF909F908F90089546
:1004F0002F923F924F925F926F927F928F929F9234
:10050000AF92BF92CF92DF92EF92FF920F931F9321
:10051000CF93DF93CDB7DEB728970FB6F894DEBF41
:100520000FBECDBF8FE592E09A838983EFE4F2E0BE
:10053000F887EF8384E291E09C838B83E8E1F1E02C
:10054000FE83ED833AEF232E31E0332EE12CF12CA4
:10055000612C80E5782E93EC892E27E4922EA12C35
:10056000B12C0AE714ECF101EE0DFF1D5080C180A3
:10057000D28043809501A801652D7C2D8D2D942D71
:100580000E94902A181624F4A52CBC2C0D2D142D95
:100590009301A401652D7C2D8D2D942D0E94412960
:1005A00087FF04C0652C7C2C8D2C942CF4E0EF0E7E
:1005B000F11C24E1E216F104B1F6EF81F885C08068
:1005C000D180E280F38024EA30E74DE75FE3B301B6
:1005D000C4010E94DF2AA70196010E94412987FFDA
:1005E00011C02EEA37E441E85FE3B501C8010E947B
:1005F000DF2AA70196010E94902A18161CF4EB81AD
:10060000FC8102C0ED81FE8180809180A280B38058
:10061000E981FA816191719181919191FA83E983E4
:10062000A70196010E94DC28A50194010E94DF2AFF
:10063000A70196010E94DD28EF81F88561937193EF
:1006400081939193F887EF838B819C8104969C839F
:100650008B83ED81FE813496FE83ED83FCE12F0ECA
:10066000311C89819A818B56924009F06FCF289670
:100670000FB6F894DEBF0FBECDBFDF91CF911F91B3
:100680000F91FF90EF90DF90CF90BF90AF909F9031
:100690008F907F906F905F904F903F902F90089534
:1006A0000FB6F894A89580916000886180936000EF
:1006B000109260000FBE98E088E10FB6F894A895FC
:1006C000809360000FBE90936000FFCF4091DF01E8
:1006D0005091E0016091E1017091E20180919203FB
:1006E00090919303A0919403B0919503481B590BEB
:1006F0006A0B7B0B8091030190910401A0E0B0E0B4
:1007000084179507A607B70758F498E088E10FB655
:10071000F894A895809360000FBE90936000FFCF7F
:1007200008950F931F938091DF019091E001A091B4
:10073000E101B091E2014091D7015091D80160915F
:10074000D9017091DA018C019D01041B150B260B58
:10075000370BB901A801453F514061057105C0F053
:100760008093D7019093D801A093D901B093DA0177
:1007700080916D01811103C081E080936D018091B2
:100780006E0190916F01019690936F0180936E01BD
:100790001F910F910895FC018FEF21E3662369F00B
:1007A0009191892798E087FF03C0880F822701C0B5
:1007B000880F9150C1F76150F1CF08952F923F9269
:1007C0004F925F926F927F928F929F92AF92BF9261
:1007D000CF92DF92EF92FF920F931F93CF93DF930D
:1007E000A0911C03E4E0AE9FE0011124FE01E15959
:1007F000FD4F6083718382839383FE01E153FD4F3C
:100800002083318342835383FE01E156FD4FE08212
:10081000F1820283138381E08A0F853018F480937C
:100820001C0302C010921C03CFE6D2E00FEC12E0D2
:100830008FE9282E82E0382EC12CD12C760146017A
:100840005701260137012991399149915991C301E5
:10085000B2010E94DD282B013C01F8012191319168
:10086000419151918F01C501B4010E94DD284B01D6
:100870005C01F10121913191419151911F01C70119
:10088000B6010E94DD286B017C01F2E0C338DF076E
:10089000D1F62DEC3CEC4CE45EE3C301B2010E94C6
:1008A000DF2A60935F0270936002809361029093ED
:1008B00062022DEC3CEC4CE45EE3C501B4010E9405
:1008C000DF2A6093630270936402809365029093C1
:1008D00066022DEC3CEC4CE45EE3C701B6010E94DD
:1008E000DF2A609367027093680280936902909395
:1008F0006A02DF91CF911F910F91FF90EF90DF90EF
:10090000CF90BF90AF909F908F907F906F905F90AF
:100910004F903F902F9008950F931F93E091ED011A
:10092000E150E73050F4F0E0EE0FFF1FE65FFE4FBE
:100930004081518160E070E004C040E855E260E031
:1009400070E08091EC01813011F026E001C026E2D8
:1009500030E009EE13E08FE893E00E9460256EEA34
:1009600076E08FE893E00E94F22580910601809363
:100970008F031F910F910895CF93DF9300D000D084
:10098000CDB7DEB769837A838B839C8350E0440FB5
:10099000551FFE01E40FF51F828190E0982F8827F4
:1009A000FE01E40FF51F2181822B0F900F900F9015
:1009B0000F90DF91CF9108951F93CF93DF93162F60
:1009C000C82FD0E0CE01F3DB811741F09FEF980FE5
:1009D0009E3F20F0612FCE01ECDB812FDF91CF9184
:1009E0001F9108957F928F929F92AF92BF92CF9264
:1009F000DF92EF92FF920F931F93CF93DF9300D07C
:100A000000D0CDB7DEB77A018B016C015E0185E0C5
:100A1000A80EB11CFE0131964F01712CC601C7DB37
:100A2000F50182935F01C601C2DB8F3F09F4739425
:100A3000FFEFCF1ADF0AA814B90481F784E0781613
:100A400029F049815A813B812C8103C0A701302FB5
:100A5000212FBA01832F922F0F900F900F900F909C
:100A6000DF91CF911F910F91FF90EF90DF90CF908A
:100A7000BF90AF909F908F907F900895FF920F93BB
:100A80001F93CF93DF938C01F62ED72F90DBC82FC7
:100A9000C80101968CDBCF3F29F48F3F19F48F2DCD
:100AA0009D2F02C08C2B90E0DF91CF911F910F9171
:100AB000FF9008951F93CF93DF93EC01172F79DBFD
:100AC000612FCE010196DF91CF911F9172CB0F93D1
:100AD0001F93CF93DF938C016ADBC82FC801019667
:100AE00066DBD0E0D82BCF3F8FEFD80711F4C0E002
:100AF000D0E0C80102965BDB811102C0CE0104C0C8
:100B0000882799278C1B9D0BDF91CF911F910F9107
:100B10000895CF92DF92EF92FF9261E084E64CDF7E
:100B20008093060163E085E647DF8093ED0160E096
:100B300086E642DF8093EC0169E672E088E690E0A9
:100B40009DDF9093EA018093E90160E089E634DF5C
:100B50008093EB016AEA7AEA8AE690E08FDF90936D
:100B6000F1018093F0016AEA7AEA8CE690E086DF90
:100B70009093EF018093EE0160E080E71DDF8093AA
:100B8000050160E081E718DF809391014BEC51EAA9
:100B900065EC70E482E890E025DF6093E5017093F6
:100BA000E6018093E7019093E80165E886E804DFB9
:100BB0008093540360E587E8FFDE809353036CE382
:100BC00088E8FADE80934D0362E389E8F5DE8093DE
:100BD0004E038AE890E07BDFBC01990F880B990BEC
:100BE0000E94E0292DEC3CEC4CEC5DE30E94DF2AF6
:100BF00060938C0170938D0180938E0190938F018F
:100C00008DE890E064DFBC01990F880B990B0E947E
:100C1000E0292AE037ED43E25CE30E94DF2A60939B
:100C200088017093890180938A0190938B0180E9F8
:100C300090E04DDFBC01990F880B990B0E94E029D1
:100C40002FE632E143E85AE30E94DF2A6B017C0180
:100C500020E030E0A9010E944129882349F0C09298
:100C60008401D0928501E0928601F09287010CC048
:100C700080E090E0A0E8BFE3809384019093850139
:100C8000A0938601B093870161E084E995DE8093AB
:100C9000830164E185E990DE8093820166E373E37A
:100CA00086E990E0EBDE909381018093800166E617
:100CB00076E088E990E0E2DE90937F0180937E0108
:100CC00083E39AEFA1EDBAE380937A0190937B01DD
:100CD000A0937C01B0937D0140E050E060EA71ECAC
:100CE0008AE990E07FDE60937601709377018093CC
:100CF00078019093790160E08FE95EDE80938C0348
:100D000068E873E181EA90E0B9DE90930401809392
:100D10000301FF90EF90DF90CF900895FF920F9323
:100D20001F93CF93DF938C01EB0177FF06C0D19522
:100D3000C195D109FF24F39401C0F12C6C2FC80197
:100D400038DA6D2FC801019634DA6F2DC80102968A
:100D5000DF91CF911F910F91FF902BCA2F923F925D
:100D60004F925F926F927F929F92AF92BF92CF927B
:100D7000DF92EF92FF920F931F93CF93DF9300D0F8
:100D800000D000D0CDB7DEB77C01A62E1A016901D4
:100D900080919103BB24B394803119F0863009F01F
:100DA000B12C8091DF019091E001A091E101B0911F
:100DB000E2018093920390939303A0939403B093E2
:100DC00095039D2C0A2D172FC6010D2C000CAA0B84
:100DD000BB0B89839A83AB83BC83402F902F9A19D6
:100DE000A92FB0E0BE83AD83A215B30514F00C9417
:100DF000AB140636110509F4A9C70CF033C20E3145
:100E0000110509F4B5C50CF019C10E30110509F42E
:100E1000A0C40CF08BC00630110509F40AC40CF014
:100E200044C00230110509F4BCC30CF501151105CD
:100E300009F49FC30130110511F00C949D14ED814C
:100E4000FE81EE0FFF1FEE0DFF1DFE83ED8360910F
:100E5000810370918203809183039091840341E028
:100E60008BDDAD81BE818D939C930C94A7140430CF
:100E7000110509F4AEC30CF0C4C3ED81FE81EE0F81
:100E8000FF1FEE0DFF1DFE83ED8360917D037091CA
:100E90007E0380917F039091800341E06DDDAD8101
:100EA000BE818D939C930C94A7140A30110509F40C
:100EB00008C4F4F40830110509F4D3C30CF0E9C3F5
:100EC000ED81FE81EE0FFF1FEE0DFF1DFE83ED8312
:100ED00060918503709186038091870390918803C8
:100EE00041E04ADDAD81BE818D939C930C94A714A3
:100EF0000C30110509F4FDC30CF013C4ED81FE8123
:100F0000EE0FFF1FEE0DFF1DFE83ED836091710359
:100F100070917203809173039091740341E02CDD12
:100F2000AD81BE818D939C930C94A714063111055D
:100F300009F48FC40CF041C00231110509F451C409
:100F4000F4F40031110509F41CC40CF032C4ED8135
:100F5000FE81EE0FFF1FEE0DFF1DFE83ED836091FE
:100F60005D0370915E0380915F039091600341E0A7
:100F700003DDAD81BE818D939C930C94A714609189
:100F80005503709156038091570390915803043193
:100F9000110509F43EC40CF04CC4ED81FE81EE0F46
:100FA000FF1FEE0DFF1DFE83ED8341E0E5DCAD810B
:100FB000BE818D939C930C94A7140A31110509F4FA
:100FC00090C4F4F40831110509F45BC40CF071C449
:100FD000ED81FE81EE0FFF1FEE0DFF1DFE83ED8301
:100FE00060914F037091500380915103909152038F
:100FF00041E0C2DCAD81BE818D939C930C94A7141B
:101000000C31110509F485C40CF09BC4ED81FE81FF
:10101000EE0FFF1FEE0DFF1DFE83ED836091310388
:1010200070913203809133039091340341E0A4DC4A
:10103000AD81BE818D939C930C94A7140734110548
:1010400009F49EC50CF09AC00133110509F408C5D6
:101050000CF049C00932110509F4BAC40CF50F317E
:10106000110509F49DC40832110511F00C949D146A
:10107000ED81FE81EE0FFF1FEE0DFF1DFE83ED8360
:101080006091290370912A0380912B0390912C0386
:1010900040E072DCAD81BE818D939C930C94A714CB
:1010A0000B32110509F4C4C40CF4AAC400331105B1
:1010B00011F00C949D14ED81FE81EE0FFF1FEE0DDB
:1010C000FF1DFE83ED8360910C0370910D038091F1
:1010D0000E0390910F0340E04FDCAD81BE818D93F4
:1010E0009C930C94A7140D33110509F401C51CF54C
:1010F0000B33110509F4CCC40CF0E2C40A3311051A
:1011000011F00C949D14ED81FE81EE0FFF1FEE0D8A
:10111000FF1DFE83ED836091490370914A03809126
:101120004B0390914C0340E027DCAD81BE818D9351
:101130009C930C94A7140F33110509F409C50CF402
:10114000EFC40634110511F00C949D14ED81FE815D
:10115000EE0FFF1FEE0DFF1DFE83ED836091180360
:101160007091190380911A0390911B0340E004DCF5
:10117000AD81BE818D939C930C94A7140F341105FF
:1011800009F482C50CF041C00B34110509F440C5C7
:10119000F4F40934110509F40BC50CF021C5ED81F7
:1011A000FE81EE0FFF1FEE0DFF1DFE83ED836091AC
:1011B000140370911503809116039091170340E07A
:1011C000DBDBAD81BE818D939C930C94A7140D3411
:1011D000110509F435C50CF04BC5ED81FE81EE0F0C
:1011E000FF1FEE0DFF1DFE83ED836091690370917B
:1011F0006A0380916B0390916C0340E0BDDBAD818D
:10120000BE818D939C930C94A7140335110509F4AA
:1012100063C59CF40135110509F444C50CF04FC5B4
:10122000ED81FE81EE0FFF1FEE0DFF1D80916C0121
:1012300090E0918380830C94A7140436110509F47F
:1012400058C50CF06EC50336110511F00C949D14B1
:10125000ED81FE81EE0FFF1FEE0DFF1DD182C082DA
:101260000C94A7140E39110511F40C9421130CF0F1
:101270008FC00A38110509F4E2C6D4F5003711050C
:1012800009F4F8C5DCF40A36110509F4A3C554F4D1
:101290000836110509F470C50936110509F484C52D
:1012A0000C949D140E36110509F4CDC50CF0D6C56D
:1012B0000B36110509F4AAC50C949D1406381105C6
:1012C00009F46BC674F40238110509F406C6033834
:1012D000110509F42AC60137110511F00C949D146B
:1012E000E3C50838110509F481C60CF46AC692C634
:1012F0000639110511F40C943112D4F40E3811058D
:1013000009F4A8C73CF40C38110509F410C70CF413
:10131000D2C649C70439110511F40C94B41114F064
:101320000C94F3110F38110509F4E5C70C949D14C2
:101330000A39110511F40C94EF1254F4083911050F
:1013400011F40C948F1214F40C9473120C94B712C1
:101350000C39110511F40C94071314F00C941313A9
:10136000ED81FE81EE0FFF1FEE0DFF1DFE83ED836D
:101370006091720170917301809174019091750177
:1013800041E0FADAAD81BE818D939C930C94A71451
:10139000093C110511F40C94C7130CF05EC00D3B11
:1013A000110511F40C9489132CF50A3B110564F412
:1013B000043B110514F00C945C13013A110511F46F
:1013C0000C943F130C949D140B3B110511F40C94D9
:1013D0006E1314F00C947C13ED81FE81EE0FFF1F51
:1013E000EE0DFF1D8091050390910603918380838C
:1013F0000C94A714043C1105C4F4023C110514F02C
:101400000C949713ED81FE81EE0FFF1FEE0DFF1D73
:10141000FE83ED83F801E456FF4F808190E0AD81BB
:10142000BE818D939C930C94A714063C110514F473
:101430000C94AF13083C110511F00C949D1480918D
:101440008A0390918B03ED81FE81EE0FFF1FEE0D5D
:10145000FF1D918380830C94A7140331E2E01E07E3
:1014600011F40C940A140CF04CC0073B21E0120755
:10147000F4F4003931E0130714F00C94E9130A3C3A
:10148000110511F40C94D4130F3881E0180711F0F2
:101490000C949D14ED81FE81EE0FFF1FEE0DFF1DDC
:1014A0008091650190E0918380830C94A714023CA5
:1014B00091E0190714F40C949D14093DA1E01A075A
:1014C00014F40C94F8130231B2E01B0711F00C94E1
:1014D0009D14ED81FE81EE0FFF1FEE0DFF1DFE83BB
:1014E000ED83609108037091090380910A03909144
:1014F0000B0340E041DAAD81BE818D939C930C9447
:10150000A7140835E2E01E0711F40C9464148CF45F
:10151000053122E0120711F40C943A1414F40C94DF
:101520002214023582E0180711F40C9452140C9422
:101530009D14003293E0190711F40C947C140438C4
:10154000A3E01A0711F40C9496140930B3E01B07BA
:1015500011F00C949D14ED81FE81EE0FFF1FEE0D36
:10156000FF1D80916E0190916F01918380830C9497
:10157000A714ED81FE81EE0FFF1FEE0DFF1DFE8310
:10158000ED83609181037091820380918303909138
:10159000840340E0F1D9AD81BE818D939C930C947E
:1015A000A714ED81FE81EE0FFF1FEE0DFF1DFE83E0
:1015B000ED8360917D0370917E0380917F03909114
:1015C000800340E0D9D9AD81BE818D939C930C946A
:1015D000A714ED81FE81EE0FFF1FEE0DFF1DFE83B0
:1015E000ED836091790370917A0380917B039091F0
:1015F0007C0340E0C1D9AD81BE818D939C930C9456
:10160000A714ED81FE81EE0FFF1FEE0DFF1DFE837F
:10161000ED836091790370917A0380917B039091BF
:101620007C0341E0A9D9AD81BE818D939C930C943C
:10163000A714ED81FE81EE0FFF1FEE0DFF1DFE834F
:10164000ED8360918503709186038091870390916B
:10165000880340E091D9AD81BE818D939C930C9419
:10166000A714ED81FE81EE0FFF1FEE0DFF1DFE831F
:10167000ED8360917503709176038091770390916B
:10168000780340E079D9AD81BE818D939C930C9411
:10169000A714ED81FE81EE0FFF1FEE0DFF1DFE83EF
:1016A000ED8360917503709176038091770390913B
:1016B000780341E061D9AD81BE818D939C930C94F8
:1016C000A714ED81FE81EE0FFF1FEE0DFF1DFE83BF
:1016D000ED83609171037091720380917303909117
:1016E000740340E049D9AD81BE818D939C930C94E5
:1016F000A714ED81FE81EE0FFF1FEE0DFF1DFE838F
:10170000ED83609161037091620380916303909116
:10171000640340E031D9AD81BE818D939C930C94DC
:10172000A714ED81FE81EE0FFF1FEE0DFF1DFE835E
:10173000ED836091610370916203809163039091E6
:10174000640341E019D9AD81BE818D939C930C94C3
:10175000A714ED81FE81EE0FFF1FEE0DFF1DFE832E
:10176000ED8360915D0370915E0380915F039091C2
:10177000600340E001D9AD81BE818D939C930C94B0
:10178000A714ED81FE81EE0FFF1FEE0DFF1DFE83FE
:10179000ED836091590370915A0380915B0390919E
:1017A0005C0340E0E9D8AD81BE818D939C930C949D
:1017B000A714ED81FE81EE0FFF1FEE0DFF1DFE83CE
:1017C000ED836091590370915A0380915B0390916E
:1017D0005C0341E0D1D8AD81BE818D939C930C9484
:1017E000A714ED81FE81EE0FFF1FEE0DFF1DFE839E
:1017F000ED8360915503709156038091570390914A
:10180000580340E0B9D8AD81BE818D939C930C9470
:10181000A714ED81FE81EE0FFF1FEE0DFF1DFE836D
:10182000ED8340E0A9D8AD81BE818D939C930C944B
:10183000A714ED81FE81EE0FFF1FEE0DFF1DFE834D
:10184000ED8341E099D8AD81BE818D939C930C943A
:10185000A714ED81FE81EE0FFF1FEE0DFF1DFE832D
:10186000ED8360914F0370915003809151039091EB
:10187000520340E081D8AD81BE818D939C930C943E
:10188000A714ED81FE81EE0FFF1FEE0DFF1DFE83FD
:10189000ED8360912D0370912E0380912F03909121
:1018A000300340E069D8AD81BE818D939C930C9448
:1018B000A714ED81FE81EE0FFF1FEE0DFF1DFE83CD
:1018C000ED8360912D0370912E0380912F039091F1
:1018D000300341E051D8AD81BE818D939C930C942F
:1018E000A714ED81FE81EE0FFF1FEE0DFF1DFE839D
:1018F000ED836091310370913203809133039091B5
:10190000340340E039D8AD81BE818D939C930C9413
:10191000A714ED81FE81EE0FFF1FEE0DFF1DFE836C
:10192000ED8360911D0370911E0380911F039091C0
:10193000200340E021D8AD81BE818D939C930C940F
:10194000A714ED81FE81EE0FFF1FEE0DFF1DFE833C
:10195000ED8360911D0370911E0380911F03909190
:10196000200341E009D8AD81BE818D939C93EFC7E0
:10197000ED81FE81EE0FFF1FEE0DFF1DFE83ED8357
:10198000609135037091360380913703909138034D
:1019900040E00E94BC04AD81BE818D939C93D7C76B
:1019A000ED81FE81EE0FFF1FEE0DFF1DFE83ED8327
:1019B000609135037091360380913703909138031D
:1019C00041E00E94BC04AD81BE818D939C93BFC752
:1019D000ED81FE81EE0FFF1FEE0DFF1DFE83ED83F7
:1019E0006091290370912A0380912B0390912C031D
:1019F00041E00E94BC04AD81BE818D939C93A7C73A
:101A0000ED81FE81EE0FFF1FEE0DFF1DFE83ED83C6
:101A100060912503709126038091270390912803FC
:101A200040E00E94BC04AD81BE818D939C938FC722
:101A3000ED81FE81EE0FFF1FEE0DFF1DFE83ED8396
:101A400060912503709126038091270390912803CC
:101A500041E00E94BC04AD81BE818D939C9377C709
:101A6000ED81FE81EE0FFF1FEE0DFF1DFE83ED8366
:101A700060910C0370910D0380910E0390910F0300
:101A800041E00E94BC04AD81BE818D939C935FC7F1
:101A9000ED81FE81EE0FFF1FEE0DFF1DFE83ED8336
:101AA0006091490370914A0380914B0390914C03DC
:101AB00041E00E94BC04AD81BE818D939C9347C7D9
:101AC000ED81FE81EE0FFF1FEE0DFF1DFE83ED8306
:101AD00060914503709146038091470390914803BC
:101AE00040E00E94BC04AD81BE818D939C932FC7C2
:101AF000ED81FE81EE0FFF1FEE0DFF1DFE83ED83D6
:101B0000609145037091460380914703909148038B
:101B100041E00E94BC04AD81BE818D939C9317C7A8
:101B2000ED81FE81EE0FFF1FEE0DFF1DFE83ED83A5
:101B3000609141037091420380914303909144036B
:101B400040E00E94BC04AD81BE818D939C93FFC692
:101B5000ED81FE81EE0FFF1FEE0DFF1DFE83ED8375
:101B6000609141037091420380914303909144033B
:101B700041E00E94BC04AD81BE818D939C93E7C679
:101B8000ED81FE81EE0FFF1FEE0DFF1DFE83ED8345
:101B9000609118037091190380911A0390911B03AF
:101BA00041E00E94BC04AD81BE818D939C93CFC661
:101BB000ED81FE81EE0FFF1FEE0DFF1DFE83ED8315
:101BC000609114037091150380911603909117038F
:101BD00041E00E94BC04AD81BE818D939C93B7C649
:101BE000ED81FE81EE0FFF1FEE0DFF1DFE83ED83E5
:101BF00060916D0370916E0380916F0390917003FB
:101C000040E00E94BC04AD81BE818D939C939FC631
:101C1000ED81FE81EE0FFF1FEE0DFF1DFE83ED83B4
:101C200060916D0370916E0380916F0390917003CA
:101C300041E00E94BC04AD81BE818D939C9387C618
:101C4000ED81FE81EE0FFF1FEE0DFF1DFE83ED8384
:101C50006091690370916A0380916B0390916C03AA
:101C600041E00E94BC04AD81BE818D939C936FC600
:101C7000ED81FE81EE0FFF1FEE0DFF1D80916B01C8
:101C800090E09183808363C62D813E81220F331FB4
:101C90002E0D3F1D8091690190916A01D9018D93AC
:101CA0009C9355C62D813E81220F331F2E0D3F1D63
:101CB0008091680190E0D9018D939C9348C6ED8195
:101CC000FE81EE0FFF1FEE0DFF1D809166019091CA
:101CD0006701918380833BC62D813E81220F331F94
:101CE0002E0D3F1D8091890390E0D9018D939C9327
:101CF0002EC6BB2049F0C0920601C0928F036C2D06
:101D000084E690E00E94D9002D813E81220F331F8E
:101D10002E0D3F1D8091060190E0D9018D939C937B
:101D200016C6BB2039F0C092ED016C2D85E690E01F
:101D30000E94D900ED81FE81EE0FFF1FEE0DFF1D09
:101D40008091ED0190E09183808301C6BB2039F042
:101D5000C092EC016C2D86E690E00E94D9002D81A6
:101D60003E81220F331F2E0D3F1D8091EC0190E02C
:101D7000D9018D939C93EBC5BB2049F0D092EA0129
:101D8000C092E901B60188E690E00E945A05ED8113
:101D9000FE81EE0FFF1FEE0DFF1D8091E901909176
:101DA000EA0191838083D3C5BB2039F0C092EB0157
:101DB0006C2D89E690E00E94D9002D813E81220F92
:101DC000331F2E0D3F1D8091EB0190E0D9018D93C3
:101DD0009C93BDC5BB2069F08091D601882349F052
:101DE000D092EF01C092EE01B6018CE690E00E9425
:101DF0005A058091EE019091EF01ED81FE81EE0F89
:101E0000FF1FEE0DFF1D91838083A1C5BB2069F0EC
:101E10008091D601882349F0D092F101C092F0015F
:101E2000B6018AE690E00E945A058091F0019091F7
:101E3000F1012D813E81220F331F2E0D3F1DD9014F
:101E40008D939C9384C5ED81FE81EE0FFF1FEE0DF7
:101E5000FF1D25E030E03183208379C58D819E818F
:101E6000880F991F8E0D9F1DEFE0F0E0DC01ED93D0
:101E7000FC936DC5BB2059F08091D601882339F0C1
:101E8000C09205016C2D80E790E00E94D9002D8161
:101E90003E81220F331F2E0D3F1D8091050190E0E2
:101EA000D9018D939C9353C5BB2059F08091D601E5
:101EB000882339F0C09291016C2D81E790E00E9457
:101EC000D900ED81FE81EE0FFF1FEE0DFF1D809109
:101ED000910190E0918380833AC5BB2071F080919D
:101EE000D601882351F0692D84E890E00E94D90042
:101EF0006C2D85E890E00E94D9002D813E81220F53
:101F0000331F2E0D3F1D3E832D836091E50170919F
:101F1000E6018091E7019091E80140E00E94BC0455
:101F2000AD81BE818D939C9312C5BB20F1F0809151
:101F3000D6018823D1F0692D82E890E00E94D90073
:101F40006C2D83E890E00E94D9004BEC51EA65ECDF
:101F500070E482E890E00E94F2046093E5017093DF
:101F6000E6018093E7019093E801ED81FE81EE0F99
:101F7000FF1FEE0DFF1DFE83ED836091E501709163
:101F8000E6018091E7019091E80141E00E94BC04E4
:101F9000AD81BE818D939C93DAC4BB2031F06091FA
:101FA000540386E890E00E94D900ED81FE81EE0F97
:101FB000FF1FEE0DFF1D8091540390E091838083FD
:101FC000C6C4BB2031F06091530387E890E00E94C3
:101FD000D9002D813E81220F331F2E0D3F1D809190
:101FE000530390E0D9018D939C93B1C4BB2031F091
:101FF00060914D0388E890E00E94D900ED81FE8158
:10200000EE0FFF1FEE0DFF1D80914D0390E09183B9
:1020100080839DC4BB2031F060914E0389E890E03D
:102020000E94D9002D813E81220F331F2E0D3F1DAE
:1020300080914E0390E0D9018D939C9388C4BB207E
:10204000E9F08091D6018823C9F069817A818B817A
:102050009C810E94E0292DEC3CEC4CEC5DE30E945D
:10206000DF2A60938C0170938D0180938E01909391
:102070008F01B6018AE890E00E948E06ED81FE8114
:10208000EE0FFF1FEE0DFF1DFE83ED8320E030E01D
:1020900040E251E460918C0170918D0180918E013C
:1020A00090918F010E94DF2A0E94AD29AD81BE81EF
:1020B0006D937C934CC4BB20E9F08091D6018823BA
:1020C000C9F069817A818B819C810E94E0292AE094
:1020D00037ED43E25CE30E94DF2A6093880170934E
:1020E000890180938A0190938B01B6018DE890E07D
:1020F0000E948E06ED81FE81EE0FFF1FEE0DFF1D8B
:10210000FE83ED8320E030E048EC52E460918801EA
:102110007091890180918A0190918B010E94DF2A40
:102120000E94AD29AD81BE816D937C9310C4BB200C
:10213000E9F08091D6018823C9F069817A818B8189
:102140009C810E94E0292FE632E143E85AE30E9495
:10215000DF2A6093840170938501809386019093B8
:102160008701B60180E990E00E948E06ED81FE8134
:10217000EE0FFF1FEE0DFF1DFE83ED8320E030E02C
:102180004AE754E460918401709185018091860151
:10219000909187010E94DF2A0E94AD29AD81BE8106
:1021A0006D937C93D4C3BB20C1F18091D601882369
:1021B000A1F169817A818B819C810E94E0292AE0CA
:1021C00037ED43E25CE30E94DF2A209188013091E1
:1021D000890140918A0150918B010E94DC28209155
:1021E00065033091660340916703509168030E9434
:1021F00045296093840170938501809386019093B3
:10220000870120E030E04AE754E40E94DF2A0E9480
:10221000AD2980E990E00E948E06ED81FE81EE0FEF
:10222000FF1FEE0DFF1DFE83ED8320E030E04AE747
:1022300054E46091840170918501809186019091B0
:1022400087010E94DF2A0E94AD29AD81BE816D9376
:102250007C937DC3BB2091F18091D601882371F1DD
:1022600020916503309166034091670350916803A4
:102270006091840170918501809186019091870120
:102280000E94DF2A9B01AC016AE077ED83E29CE3C8
:102290000E94DC28609388017093890180938A01F1
:1022A00090938B0120E030E048EC52E40E94DF2A5A
:1022B0000E94AD298DE890E00E948E06ED81FE819E
:1022C000EE0FFF1FEE0DFF1DFE83ED8320E030E0DB
:1022D00048EC52E4609188017091890180918A01F3
:1022E00090918B010E94DF2A0E94AD29AD81BE81B1
:1022F0006D937C932CC3BB2071F18091D601882310
:1023000051F1109288011092890110928A01109265
:102310008B0160E070E08DE890E00E948E0680E026
:1023200090E0A0E8BFE38093840190938501A0939F
:102330008601B093870168EE73E080E990E00E9427
:102340008E06ED81FE81EE0FFF1FEE0DFF1DA1E059
:10235000B0E0B183A083ED81FE81EE0FFF1FEE0D93
:10236000FF1D11821082F3C2BB2081F18091D60142
:10237000882361F1C09283016C2D84E990E00E9472
:10238000D900809182016091830170E0680F711D16
:10239000072E000C880B990B0E94E0292B013C01B1
:1023A000609180017091810180E090E00E94DE29BF
:1023B0009B01AC01C301B2010E94452960937A01DF
:1023C00070937B0180937C0190937D012D813E81F0
:1023D000220F331F2E0D3F1D8091830190E0D90104
:1023E0008D939C93B4C2BB2081F18091D601882348
:1023F00061F1C09282016C2D85E990E00E94D900C4
:10240000809182016091830170E0680F711D072E39
:10241000000C880B990B0E94E0292B013C01609174
:1024200080017091810180E090E00E94DE299B0193
:10243000AC01C301B2010E94452960937A017093F7
:102440007B0180937C0190937D01ED81FE81EE0FF5
:10245000FF1FEE0DFF1D8091820190E0918380832C
:1024600076C2BB2091F18091D601882371F1D09280
:102470008101C0928001B60186E990E00E945A0570
:10248000809182016091830170E0680F711D072EB9
:10249000000C880B990B0E94E0292B013C016091F4
:1024A00080017091810180E090E00E94DE299B0113
:1024B000AC01C301B2010E94452960937A01709377
:1024C0007B0180937C0190937D012D813E81220FC1
:1024D000331F2E0D3F1D8091800190918101D90104
:1024E0008D939C9334C2BB2069F08091D6018823E0
:1024F00049F0D0927F01C0927E01B60186E990E05A
:102500000E945A05ED81FE81EE0FFF1FEE0DFF1DAB
:1025100080917E0190917F019183808318C2BB20BE
:1025200071F08091D601882351F0692D8CE990E0FB
:102530000E94D9006C2D8DE990E00E94D9002D8178
:102540003E81220F331F2E0D3F1D3E832D83609150
:10255000760170917701809178019091790140E046
:102560000E94BC04AD81BE818D939C93F0C1BB20C1
:10257000F1F08091D6018823D1F0692D8AE990E0AD
:102580000E94D9006C2D8BE990E00E94D90040E0B8
:1025900050E060EA71EC8AE990E00E94F2046093F6
:1025A0007601709377018093780190937901ED81A2
:1025B000FE81EE0FFF1FEE0DFF1DFE83ED83609188
:1025C000760170917701809178019091790141E0D5
:1025D0000E94BC04AD81BE818D939C93B8C1ED81F6
:1025E000FE81EE0FFF1FEE0DFF1DFE83ED83609158
:1025F000720170917301809174019091750140E0B6
:102600000E94BC04AD81BE818D939C93A0C1ED81DD
:10261000FE81EE0FFF1FEE0DFF1D8091640190E023
:102620009183808394C180918D0390918E032D813D
:102630003E81220F331F2E0D3F1DD9018D939C9398
:1026400086C1BB2081F08091D601882361F06C2D7A
:102650008FE990E00E94D900C0928C0360E070E0A6
:1026600083E00E945422ED81FE81EE0FFF1FEE0DEC
:10267000FF1D80918C0390E09183808368C1BB2013
:1026800069F08091D601882349F0B60181EA90E093
:102690000E945A05D0920401C09203012D813E810F
:1026A000220F331F2E0D3F1D8091030190910401D5
:1026B000D9018D939C934BC1ED81FE81EE0FFF1FDD
:1026C000EE0DFF1DFE83ED83F801E456FF4F808180
:1026D00090E0AD81BE818D939C9339C12D813E8167
:1026E000220F331F2E0D3F1D809103039091040391
:1026F000D9018D939C932BC1ED81FE81EE0FFF1FBD
:10270000EE0DFF1D80910103909102039183808360
:102710001EC12D813E81220F331F2E0D3F1D809142
:10272000FF0290910003D9018D939C9310C1ED811C
:10273000FE81EE0FFF1FEE0DFF1DFE83ED83425C59
:102740006091F6017091F7018091F8019091F90183
:102750000E94BC04AD81BE818D939C93F8C0ED8135
:10276000FE81EE0FFF1FEE0DFF1DFE83ED83445C27
:102770006091F2017091F3018091F4019091F50163
:102780000E94BC04AD81BE818D939C93E0C0BB20B0
:1027900009F4DDC0F1E0CF16D10409F0D8C01092E1
:1027A0008B0310928A03D3C0BB2049F021E0C216EC
:1027B000D10429F481E08093E4018093E3018D81C9
:1027C0009E81880F991F8E0D9F1DDC011D921C920A
:1027D000BEC02D813E81220F331F2E0D3F1DF801FB
:1027E000E25EFF4F808190E0D9018D939C93AFC052
:1027F000ED81FE81EE0FFF1FEE0DFF1DFE83ED83C9
:10280000F801EC52F040808190E0AD81BE818D9363
:102810009C939DC0ED81FE81EE0FFF1FEE0DFF1D0D
:10282000FE83ED83609108037091090380910A0390
:1028300090910B0341E00E94BC04AD81BE818D9359
:102840009C9385C0ED81FE81EE0FFF1FEE0DFF1DF5
:10285000FE83ED8360911003709111038091120348
:102860009091130340E00E94BC04AD81BE818D9322
:102870009C936DC0ED81FE81EE0FFF1FEE0DFF1DDD
:10288000FE83ED8360911003709111038091120318
:102890009091130341E00E94BC04AD81BE818D93F1
:1028A0009C9355C0BB2039F0B1E0CB16D10419F48C
:1028B00081E08093E401ED81FE81EE0FFF1FEE0DBC
:1028C000FF1D1182108243C0BB2039F0F1E0CF160A
:1028D000D10419F481E080939001809190012D81C1
:1028E0003E81220F331F2E0D3F1D90E0880F991F50
:1028F000D9018D939C932BC0BB2059F0F2EACF16DF
:10290000F8E0DF0621F481E08093D60102C0109246
:10291000D6012D813E81220F331F2E0D3F1D809148
:10292000D60190E0D9018D939C9311C0F894E09169
:102930000101F091020109950AC0ED81FE81EE0FBF
:10294000FF1FEE0DFF1D2FEF3FEF318320830F5F41
:102950001F4F0C94ED0626960FB6F894DEBF0FBEFF
:10296000CDBFDF91CF911F910F91FF90EF90DF903E
:10297000CF90BF90AF909F907F906F905F904F905F
:102980003F902F9008954F925F926F927F928F9217
:102990009F92AF92BF92CF92DF92EF92FF92CF932E
:1029A000DF9300D000D0CDB7DEB720916503309122
:1029B00066034091670350916803609184017091B0
:1029C000850180918601909187010E94DF2A2091E4
:1029D00088013091890140918A0150918B010E94B8
:1029E000DD2860930C0370930D0380930E03909386
:1029F0000F032AE037ED43E25CE30E94412987FFA1
:102A000010C08AE097EDA3E2BCE380930C0390939F
:102A10000D03A0930E03B0930F0381E0809307038F
:102A200002C010920703C0906103D0906203E0904F
:102A30006303F090640322EA3CEE42EF50E4C701E6
:102A4000B6010E94DF2A4B015C012FEE39EB40E713
:102A500053E4C701B6010E94DD289B01AC01C5010A
:102A6000B4010E9445299B01AC0160E070E080E266
:102A700091E40E94422B22EE39EB43EC50E40E9499
:102A8000DF2A4B015C0160933D0370933E0380930A
:102A90003F039093400380910C0390910D03A0910C
:102AA0000E03B0910F0389839A83AB83BC839C018F
:102AB000AD01C501B4010E94DF2A2AE037ED43E2EF
:102AC0005CE30E94DF2A6B017C0160933903709301
:102AD0003A0380933B0390933C0322EE39EB43ECA3
:102AE00050E40E9445290E94942A9B01AC0162EAAD
:102AF0007CEE82EF90E40E94452920E030E040E83F
:102B00005FE30E94DC289B01AC016FEE79EB80E76C
:102B100093E40E9445292B013C0120E030E042E88B
:102B200052EC0E94412987FD09C040923503509222
:102B3000360360923703709238030CC080E090E057
:102B4000A2E8B2EC8093350390933603A093370349
:102B5000B093380320913503309136034091370309
:102B6000509138036AEE7DE385E19CE30E94DC2806
:102B700020E83DE048E85BE30E94DF2A9B01AC01CE
:102B80006DE47EE984EA9FE30E94DC280E94922B98
:102B900027EB38E241E95FE30E94DC2820E83DE0D2
:102BA00048E05BE30E9445292B013C0120E030E036
:102BB000A9010E94902A18164CF040921D035092D1
:102BC0001E0360921F037092200308C010921D0321
:102BD00010921E0310921F031092200340906D0369
:102BE00050906E0360906F037090700320E030E0AF
:102BF00048EC52E469817A818B819C810E94DF2AB2
:102C0000A30192010E9445299B01AC01609321031D
:102C1000709322038093230390932403C501B4018E
:102C20000E94DF2A2AE037ED43E25CE30E94DF2ABC
:102C300022EE39EB43EC50E40E9445290E94942A8D
:102C40009B01AC0162EA7CEE82EF90E40E94452990
:102C500020E030E040E85FE30E94DC289B01AC010B
:102C60006FEE79EB80E793E40E9445299B01AC016C
:102C70006093310370933203809333039093340352
:102C80006AEE7DE385E19CE30E94DC2820E83DE0DC
:102C900048E85BE30E94DF2A9B01AC016DE47EE91A
:102CA00084EA9FE30E94DC280E94922B27EB38E203
:102CB00041E95FE30E94DC2820E83DE048E05BE377
:102CC0000E9445294B015C0120E030E0A9010E94EF
:102CD000902A18164CF080922D0390922E03A09209
:102CE0002F03B092300308C010922D0310922E03D0
:102CF00010922F031092300320E034E244E759E4AD
:102D0000C701B6010E94DF2A4B015C0120E030E0E0
:102D100040E251E4C301B2010E94DF2AA7019601FB
:102D20000E94DC289B01AC01C501B4010E94452929
:102D30006093290370932A0380932B0390932C03B1
:102D40002BE43FE140E951E40E94DF2A2CE53FE01B
:102D500042E153E40E9445296093250370932603C2
:102D600080932703909328030F900F900F900F905C
:102D7000DF91CF91FF90EF90DF90CF90BF90AF9019
:102D80009F908F907F906F905F904F9008950FB6B7
:102D9000F894A895809160008861809360001092FB
:102DA00060000FBE9FE088E10FB6F894A89580936D
:102DB00060000FBE909360000E94890561E082E090
:102DC0000E94DA2260E082E00E94162361E083E044
:102DD0000E94DA2261E085E00E94DA2261E086E06A
:102DE0000E94DA2260E086E00E9416230E948C0492
:102DF00062E370E080E090E00E94EB21E0ECF0E024
:102E00008081806480838FB7F8945A9A8FBF6091D5
:102E1000060180EA93E024D46091060180EA93E001
:102E20001FD46091060180EA93E01AD460910601F4
:102E300080EA93E015D483EC94E00E94DA2040EA23
:102E400056E861E070E083EC94E00E94E9204AE0FB
:102E500050E060E070E083EC94E0B8D50E94BA21C5
:102E600060939203709393038093940390939503DC
:102E7000A89508950F931F93CF93DF9364E470E0B8
:102E800083EC94E00E94F62064E283EC94E00E94DC
:102E90009C2060E083EC94E00E949C2083EC94E012
:102EA0000E946B218093890386E990E00E940F22A3
:102EB0008091890381117AC046E064E483EC94E058
:102EC0000E946921C0E5D1E006E511E083EC94E0C1
:102ED0000E94162089930C171D07C1F7C09152015B
:102EE00062E080E591E00E94CB03C81721F088E5FD
:102EF000809389035BC0C091550162E083E591E056
:102F00000E94CB03C813F3CF6091500170E0762F7D
:102F1000662780915101680F711D709304036093BF
:102F200003038091530190E0982F8827209154014A
:102F3000EC01C20FD11DD0930603C093050380E0BE
:102F400090E00E94DE2920E030E04FE253E40E944E
:102F5000DF2A20E03FEF4FE757E40E94452920E0B9
:102F600030E044E352E40E94DC286093080370934D
:102F7000090380930A0390930B03BE0180E090E065
:102F80000E94DE2920E030E048EC52E40E94DF2A73
:102F900020E03FEF4FE757E40E944529609310037C
:102FA000709311038093120390931303DF91CF91D9
:102FB0001F910F910895CF93DF936091000183ECEF
:102FC00094E00E94EC2060E583EC94E00E949C2059
:102FD00083EC94E00E946B2180936C01811173C09B
:102FE00044E06091000183EC94E00E946921CAE50D
:102FF000D1E083EC94E00E941620899381E0CE35E5
:10300000D807B9F760915A016F7370E0762F662781
:1030100080915B01682B70930203609301036656F5
:10302000764080E090E00E94DE2923E33AEF41ED14
:103030005AE30E94DF2A20E030E040E85FE30E948C
:10304000DC2820E030E048EC52E40E94DF2A20E057
:1030500030E048EC52E40E94DD286093F601709362
:10306000F7018093F8019093F90160915C0188E089
:10307000689FB001112480915D01829586958770CB
:10308000682B709300036093FF0280E090E00E9441
:10309000DE2920E030E048E453E40E94DF2A20E00B
:1030A00030EE4FEF54E40E94452920E030E048E440
:1030B00052E40E94DC286093F2017093F301809344
:1030C000F4019093F50186E990E0DF91CF910C94A3
:1030D0000F224F925F926F927F928F929F92AF9248
:1030E000BF92CF92DF92EF92FF920F931F93E091E6
:1030F0006D018E2F90E0FC013197EE30F10508F064
:10310000E2C1EC5CFF4F0C94C22861E086E00E94B3
:10311000162382E0E0C083E0DEC04DDF84E0DBC048
:1031200085E080936D018091DF019091E001A09195
:10313000E101B091E2018093920190939301A093F9
:103140009401B0939501BFC18091DF019091E0019E
:10315000A091E101B091E20140919201509193015F
:1031600060919401709195018C019D01041B150BD8
:10317000260B370B053611052105310508F4A3C1CF
:1031800020910501213011F487E0A5C080939201C0
:1031900090939301A0939401B09395011BC06ADEB4
:1031A00019C08091DF019091E001A091E101B091FF
:1031B000E2014091920150919301609194017091CC
:1031C0009501841B950BA60BB70BC397A105B10501
:1031D00008F479C18AE07FC060E086E00E9416238F
:1031E00080916C01811122C080916B0181111EC000
:1031F0008091710181111AC0E0901003F0901103C9
:1032000000911203109113032091F2013091F30108
:103210004091F4015091F5016091F6017091F70130
:103220008091F8019091F9010E94DB000E946801F1
:10323000E0901003F090110300911203109113031A
:103240002091F2013091F3014091F4015091F50188
:103250006091F6017091F7018091F8019091F90168
:103260000E94DE038BE037C00E9442018CE033C035
:103270000E94780280914F0290915002A0915102D9
:10328000B091520280936D0390936E03A0936F03ED
:10329000B09370038091530290915402A091550213
:1032A000B09156028093690390936A03A0936B03D5
:1032B000B0936C038091570290915802A0915902EB
:1032C000B0915A028093650390936603A0936703BD
:1032D000B09368038EE080936D01F5C0C0906D03DC
:1032E000D0906E03E0906F03F09070032AE037ED0A
:1032F00043E25CE3C701B6010E94DF2A4B015C0197
:10330000609381037093820380938303909384037B
:103310002DEC3CEC4CEC5DE30E94DF2A60937D03D6
:1033200070937E0380937F039093800320E030E0CE
:103330004AE754E4C701B6010E94DF2A609379038B
:1033400070937A0380937B0390937C03C0928503F0
:10335000D0928603E0928703F092880327ED34E849
:1033600044E15EE3C701B6010E94DF2A6093750362
:103370007093760380937703909378032DEC3CEC65
:103380004CEC5DE3C701B6010E94DF2A6093710334
:10339000709372038093730390937403C0906903D6
:1033A000D0906A03E0906B03F0906C03C0926103CD
:1033B000D0926203E0926303F092640323E333E963
:1033C00048E853E4C701B6010E94DD282B013C0107
:1033D00060935D0370935E0380935F03909360033B
:1033E00026E636E646EE5FE3C701B6010E94DF2A15
:1033F00020E030E040E052E40E94DD286093590371
:1034000070935A0380935B0390935C03A301920132
:1034100063E373E982E993E40E944529A5019401DD
:103420000E94DF2A6B017C0160934F03709350036D
:10343000809351039093520320E030E040E85FE333
:103440000E94DC286093490370934A0380934B03E6
:1034500090934C032DEC3CEC4CEC5DE3C701B601C2
:103460000E94DF2A609345037093460380934703CD
:10347000909348032DEC3CEC4CEC5DE30E94DC287F
:1034800060934103709342038093430390934403FA
:10349000A70196016091E5017091E6018091E70135
:1034A0009091E8010E94DF2A6093550370935603C0
:1034B000809357039093580380910501813009F45C
:1034C00062DA10926D011F910F91FF90EF90DF90E3
:1034D000CF90BF90AF909F908F907F906F905F90B4
:1034E0004F9008950F931F938091DF019091E00119
:1034F000A091E101B091E2014091DB015091DC012A
:103500006091DD017091DE018C019D01041B150BA2
:10351000260B370B093711052105310570F0809313
:10352000DB019093DC01A093DD01B093DE01D1DDDE
:103530008091E40181110E9450031F910F91089521
:1035400019D76093DF017093E0018093E1019093BC
:10355000E20120919001213071F422E0209390014A
:103560000FB6F894A8952091600028612093600020
:10357000109260000FBE693B7B408105910538F0D9
:1035800080917001811103C081E08093700180916E
:103590007001882349F00E9466030E949103A2DF14
:1035A0008FE893E00E949B27A8950895FC0124854D
:1035B0003585F901E05CFF4F808191813296208151
:1035C0003181805C9F4F821B930B60E470E00C9410
:1035D0008D28DC011C96ED91FC911D97DF01A05C0C
:1035E000BF4F2D913C91119712968D919C911197FF
:1035F0002817390739F08D919C91E80FF91F8081C8
:1036000090E008958FEF9FEF0895FC01A485B585A4
:10361000FD01E05CFF4F20813181329680819181F4
:103620002817390779F080819181A80FB91F8C91F3
:10363000208131812F5F3F4F2F73332731832083C8
:1036400090E008958FEF9FEF0895FC0181A18823FA
:1036500029F0A489B5898C9186FFFBCF11A208952A
:103660000F931F93CF93DF93FC01A685B7858D0140
:10367000005C1F4FE8018881998101968F7399271B
:10368000AD014E5B5F4FEA012881398182179307B4
:10369000D1F3E80128813981A20FB31F6C93A6856D
:1036A000B785A05CBF4F11969C938E93A689B7896E
:1036B0002C9181E090E0078C02C0880F991F0A943A
:1036C000E2F7822B8C9381E081A30488F589E02DB9
:1036D00080818064808381E090E0DF91CF911F91B1
:1036E0000F91089508951F920F920FB60F92112413
:1036F0002F934F935F938F939F93EF93FF938091BB
:10370000C00082FD1CC02091C600809146049091AB
:10371000470401968F7399274091480450914904BA
:103720008417950771F0E0914604F0914704EA5F31
:10373000FB4F2083909347048093460402C08091FE
:10374000C600FF91EF919F918F915F914F912F91C3
:103750000F900FBE0F901F90189580EA93E026DF20
:10376000892B09F0BFCF08951F920F920FB60F92C9
:1037700011242F933F938F939F93EF93FF93209167
:1037800002043091030480910404909105042817E9
:10379000390731F48091C1008F7D8093C10014C03E
:1037A000E0910404F0910504EE53FC4F20818091D8
:1037B00004049091050401968F7399279093050452
:1037C000809304042093C600FF91EF919F918F9105
:1037D0003F912F910F900FBE0F901F901895CF9291
:1037E000DF92EF92FF921F93CF93DF93EC016A0178
:1037F0007B01122F4115514E6105710509F1EC89CC
:10380000FD8981E090E008A002C0880F991F0A940A
:10381000E2F7808360E079E08DE390E0A701960114
:103820000E94A028DA01C9010197A109B109B69542
:10383000A795979587959C01211580E13807A8F0F9
:10384000EC89FD89108260E874E88EE190E0A701C0
:1038500096010E94A028DA01C9010197A109B109C6
:10386000B695A795979587959C01E889F989308346
:10387000EA89FB892083E88DF98D1083EE89FF8921
:10388000408181E090E09C010C8C02C0220F331F2C
:103890000A94E2F7242B2083EE89FF8940819C0162
:1038A0000D8C02C0220F331F0A94E2F7242B2083D1
:1038B000EE89FF8940819C010E8C02C0220F331FCC
:1038C0000A94E2F7242B2083EE89FF8920810F8C54
:1038D00002C0880F991F0A94E2F7809582238083A3
:1038E000DF91CF911F91FF90EF90DF90CF900895DF
:1038F000E0EAF3E01382128288EE93E0A0E0B0E009
:1039000084839583A683B78384E391E09183808346
:1039100086E094E09587848782EC93E0978786879A
:1039200085EC90E0918B808B84EC90E0938B828B84
:1039300080EC90E0958B848B81EC90E0978B868B6C
:1039400082EC90E0918F808F86EC90E0938F828F55
:1039500084E0848F83E0858F87E0868F85E0878F82
:1039600081E080A30895089564D5FDDF10DACDEAE3
:10397000DBE1E6DD2097E9F3F0DEFBCFCF92DF92CB
:10398000EF92FF920F931F93CF93DF936C01EB01A4
:103990007B01E40EF51E00E010E0CE15DF0561F0BE
:1039A0006991D601ED91FC910190F081E02DC60165
:1039B0000995080F191FF1CFC801DF91CF911F9111
:1039C0000F91FF90EF90DF90CF900895FC0144831A
:1039D0005583668377830895813039F018F08230FB
:1039E00051F0089510926E00089580916F008D7FC0
:1039F00080936F000895809170008D7F8093700098
:103A000081E08093B0008091B100887F84608093D2
:103A1000B1001092B3000895CF93C82F8091070191
:103A2000C81307C0E6E0F1E084919FEF909307018F
:103A300001C08FEFD1DF60E08C2FCF91F7C51F92CF
:103A40000F920FB60F9211242F933F934F935F93D2
:103A50006F937F938F939F93AF93BF93EF93FF9356
:103A600080914D0490914E04A0914F04B091500468
:103A7000892B8A2B8B2B51F190914A04E0914B04B6
:103A8000F0914C0480818927808380914D0490912E
:103A90004E04A0914F04B0915004181619061A064E
:103AA0001B06BCF480914D0490914E04A0914F04EC
:103AB000B09150040197A109B10980934D049093EE
:103AC0004E04A0934F04B093500403C080910701AB
:103AD000A3DFFF91EF91BF91AF919F918F917F9164
:103AE0006F915F914F913F912F910F900FBE0F906B
:103AF0001F9018951092BE0481E08093BC04109230
:103B0000BB0461E082E192D561E083E18FD5E9EB0E
:103B1000F0E080818E7F808380818D7F808388E448
:103B20008093B80085E48093BC0008959B01AC01AC
:103B300060E074E284EF90E00E94A028DA01C901FD
:103B40004097A109B109B695A79597958795809358
:103B5000B8000895413208F043C09091BE0491111D
:103B6000FCCF91E09093BE042093BC042FEF2093F0
:103B7000510410929604240F209395049093BD0451
:103B80009091BD04880F892B8093BD048091BB0464
:103B9000813061F41092BB048091BD048093BB001E
:103BA0008091BC0083FDF8CF85EC01C085EE809349
:103BB000BC008091BE048130E1F3809196048417AB
:103BC00010F440919604A7E9B4E0962FFB018E2FE4
:103BD000891B841718F48D918193F9CF842F089550
:103BE00080E008950F93413208F04AC09091BE04DE
:103BF0009111FCCF32E03093BE040093BC043FEF40
:103C0000309351041092960440939504562FA7E9DF
:103C1000B4E0FB013E2F351B341718F431913D936E
:103C2000F9CF1092BD043091BD04880F832B80938F
:103C3000BD048091BB04813061F41092BB0480917B
:103C4000BD048093BB008091BC0083FDF8CF85EC60
:103C500001C085EE8093BC00222321F08091BE0438
:103C60008230D1F3809151048F3F79F080915104DB
:103C7000803241F080915104803331F094E005C0EE
:103C800091E003C092E001C093E0892F0F91089565
:103C900040917304262F30E0240F311D213231056D
:103CA000DCF42091BE042430C9F4FC0180E090E0F3
:103CB000861758F4309173042191DC01AB58BB4F47
:103CC000A30FB11D2C930196F3CF80917304680F5D
:103CD0006093730480E0089581E0089582E0089580
:103CE0009093B8048093B70408959093BA04809396
:103CF000B904089585ED8093BC008091BC0084FDDB
:103D0000FCCF1092BE04089585EC8093BC00109205
:103D1000BE0408951F920F920FB60F9211242F9395
:103D20003F934F935F936F937F938F939F93AF9343
:103D3000BF93EF93FF938091B900887F803609F499
:103D40009DC070F5883209F45CC090F4803109F4AC
:103D500055C038F4882309F4F3C0883009F44EC004
:103D6000F2C0883109F44DC0803209F45EC0EBC066
:103D7000803409F469C050F4803309F456C08833A4
:103D800009F0E1C080935104BFDFDDC0803509F444
:103D90004FC0883509F45DC0883409F0D4C0D2C062
:103DA000883909F4C3C0A8F4883709F467C038F427
:103DB000883609F463C0803709F460C0C4C088380D
:103DC00009F4B4C0803909F45FC0803809F0BBC081
:103DD0005BC0803B09F482C038F4803A09F466C0C5
:103DE000883A09F47BC0AFC0803C09F4A3C0883C8A
:103DF00009F4A0C0883B09F486C0A5C08091BD0429
:103E000010C09091960480919504981770F5E091F8
:103E1000960481E08E0F80939604F0E0E956FB4F04
:103E200080818093BB0085EC82C0809351048AC05E
:103E3000E091960481E08E0F809396048091BB0000
:103E4000F0E0E956FB4F80839091960480919504B1
:103E50006AC0E091960481E08E0F80939604809171
:103E6000BB00F0E0E956FB4F80838091BC048111D8
:103E700069C081E08093BB0484EA5DC083E08093E5
:103E8000BE0410925204CFCF80915204803208F0C9
:103E90004DC0E091520481E08E0F809352048091D6
:103EA000BB00F0E0ED5AFB4F8083BDCF2DDF80914A
:103EB0005204803230F4E0915204F0E0ED5AFB4FAE
:103EC00010826091520470E0E091B704F091B80460
:103ED00083E594E009951092520435C084E0809304
:103EE000BE041092740410927304E091B904F0912E
:103EF000BA04099580917304811105C081E0809313
:103F0000730410927504E091740481E08E0F809325
:103F10007404F0E0EB58FB4F80818093BB009091DC
:103F2000740480917304981708F47DCF85E880931A
:103F3000BC0009C085EC8093BC001092BE0403C095
:103F400010925104D7DEFF91EF91BF91AF919F91F5
:103F50008F917F916F915F914F913F912F910F9032
:103F60000FBE0F901F9018951F920F920FB60F92D1
:103F700011242F933F934F935F936F937F938F936E
:103F80009F93AF93BF93EF93FF938091BF04909162
:103F9000C004892B29F0E091BF04F091C004099579
:103FA000FF91EF91BF91AF919F918F917F916F9111
:103FB0005F914F913F912F910F900FBE0F901F90E7
:103FC00018951F920F920FB60F9211242F933F93C3
:103FD0004F935F936F937F938F939F93AF93BF9311
:103FE000EF93FF938091C1049091C204892B29F033
:103FF000E091C104F091C2040995FF91EF91BF9146
:10400000AF919F918F917F916F915F914F913F9170
:104010002F910F900FBE0F901F9018958091F7046D
:1040200090E02091F804821B910908959091F80482
:104030008091F704981750F4E92FF0E0E750FB4F18
:10404000208130E09F5F9093F80402C02FEF3FEF94
:10405000C9010895E091F8048091F704E81730F45D
:10406000F0E0E750FB4F808190E008958FEF9FEFE5
:1040700008950895CF93DF93EC01E091CF04F09180
:10408000D0043097F1F09091F8048091F7049817DC
:10409000C0F090E0292F30E02617370754F4DE01F6
:1040A000A20FB31F4C91D901A750BB4F4C939F5FF8
:1040B000F1CF1092F8046093F704CB01DF91CF9118
:1040C0000994DF91CF910895E091D104F091D20449
:1040D000309729F01092D5041092D40409940895D1
:1040E000CF92DF92EF92FF920F931F93CF93DF93C4
:1040F0007C01CB018A012091D304222389F0EB01BA
:104100006B01C40ED51ECC15DD0561F06991D70198
:10411000ED91FC910190F081E02DC7010995F3CF5D
:10412000642FB6DDC801DF91CF911F910F91FF90F1
:10413000EF90DF90CF900895CF93DF931F92CDB78C
:10414000DEB769832091D3042223D1F02091D404D7
:10415000203240F021E030E0FC013383228380E014
:1041600090E014C08091D504E82FF0E0EA52FB4FB4
:10417000998190838F5F8093D5048093D40404C089
:1041800061E0CE01019684DD81E090E00F90DF9147
:10419000CF910895FC011382128288EE93E0A0E093
:1041A000B0E084839583A683B78384E491E0918310
:1041B000808308951092F8041092F7041092D504A9
:1041C0001092D40497DC84E690E28FDD8AE390E2DB
:1041D00087CDCB01BA01AACC81E08093D304609350
:1041E000F6041092D5041092D4040895F5CF0F93DD
:1041F000062F21E04091D40466ED74E08091F6042E
:10420000F1DC1092D5041092D4041092D3040F91D3
:1042100008954F925F926F927F92AF92BF92CF922A
:10422000EF92FF920F931F93CF93DF935C01F62ED3
:10423000D42F28013901EE2011F1CEDFCE2DC4306C
:1042400008F0C3E0C150C0F028E0C29FC0011124B3
:10425000A301920104C056954795379527958A95F5
:10426000D2F7CA01B901D501ED91FC910190F0811D
:10427000E02DC5010995E6CF60E0C501B8DF4D2FFF
:10428000D13208F040E22C2D69EF74E08F2D62DC12
:104290001092F8048093F704DF91CF911F910F9152
:1042A000FF90EF90CF90BF90AF907F906F905F9016
:1042B0004F900895CF92EF920F931F93C22EE12C4F
:1042C00000E010E09801A5DF1F910F91EF90CF90D3
:1042D000089521E0EFCF61E08ACF83EC94E05ACFDC
:1042E0001F920F920FB60F9211242F933F938F932B
:1042F0009F93AF93BF9380911A0590911B05A09156
:104300001C05B0911D053091190523E0230F2D37B1
:1043100020F40196A11DB11D05C026E8230F0296C9
:10432000A11DB11D2093190580931A0590931B05BB
:10433000A0931C05B0931D0580911E0590911F054B
:10434000A0912005B09121050196A11DB11D80937A
:104350001E0590931F05A0932005B0932105BF91E2
:10436000AF919F918F913F912F910F900FBE0F9022
:104370001F9018952FB7F89460911A0570911B053E
:1043800080911C0590911D052FBF08953FB7F894AB
:1043900080911E0590911F05A0912005B0912105E7
:1043A00026B5A89B05C02F3F19F00196A11DB11D90
:1043B0003FBFBA2FA92F982F8827820F911DA11DCB
:1043C000B11DBC01CD0142E0660F771F881F991F08
:1043D0004A95D1F70895CF92DF92EF92FF92CF9353
:1043E000DF936B017C01D2DFEB01C114D104E10446
:1043F000F10471F0CBDF6C1B7D0B683E7340A8F3BA
:1044000081E0C81AD108E108F108C851DC4FEDCFAE
:10441000DF91CF91FF90EF90DF90CF9008950197BB
:1044200039F0880F991F880F991F02970197F1F7AC
:104430000895789484B5826084BD84B5816084BD1C
:1044400085B5826085BD85B5816085BDEEE6F0E00D
:10445000808181608083E1E8F0E010828081826069
:104460008083808181608083E0E8F0E080818160EA
:104470008083E1EBF0E0808184608083E0EBF0E01A
:10448000808181608083EAE7F0E0808184608083BE
:104490008081826080838081816080838081806868
:1044A00080831092C10008951F93CF93DF93182F3C
:1044B000EB0161E07FD0209711F460E004C0CF3FB2
:1044C000D10531F461E0812FDF91CF911F91AEC012
:1044D000E12FF0E0E95FFE4FE491E330F9F048F4BA
:1044E000E130B9F0E230A1F584B5806284BDC8BD89
:1044F00034C0E630E9F0E73019F1E43049F5809155
:104500008000806280938000D0938B00C0938A00EB
:1045100024C084B5806884BDC7BD1FC08091800061
:10452000806880938000D0938900C093880015C074
:104530008091B00080688093B000C093B3000DC03C
:104540008091B00080628093B000C093B40005C039
:10455000C038D1050CF0B6CFB0CFDF91CF911F910D
:104560000895833081F028F4813099F08230A1F0F1
:1045700008958630A9F08730B9F08430D1F4809165
:1045800080008F7D03C0809180008F7780938000B2
:10459000089584B58F7702C084B58F7D84BD08955A
:1045A0008091B0008F7703C08091B0008F7D8093A1
:1045B000B0000895CF93DF9390E0FC01E55EFE4FDD
:1045C0002491FC01E15DFE4F8491882361F190E02C
:1045D000880F991FFC01E35BFE4FC591D491FC014C
:1045E000ED5BFE4FA591B491611109C09FB7F8949E
:1045F0008881209582238883EC912E230BC0623022
:1046000061F49FB7F8948881322F30958323888393
:10461000EC912E2B2C939FBF06C08FB7F894E881A6
:104620002E2B28838FBFDF91CF9108951F93CF93B7
:10463000DF93282F30E0F901E95FFE4F8491F90103
:10464000E55EFE4FD491F901E15DFE4FC491CC23AC
:10465000B9F0162F811185DFEC2FF0E0EE0FFF1F70
:10466000ED5BFE4FA591B4919FB7F894111104C072
:104670008C91D095D82302C0EC91DE2BDC939FBFA8
:10468000DF91CF911F9108951F920F920FB60F9255
:1046900011242F933F934F935F936F937F938F9347
:1046A0009F93AF93BF93CF93DF93EF93FF9390913B
:1046B0004205A091410520918800309189008091A8
:1046C0002605482F50E0C0917605D0917705B0912E
:1046D0004005E92FF0E04E175F07ECF02C0F3D1F6F
:1046E000EA2FE170A6959F5FEB1799F38091800008
:1046F000EE2311F0806C02C08F7B80688093800075
:104700003093890020938800E0934005A0934105F1
:10471000909342058FC090912405911105C0EA0144
:104720002196EC17FD0729F0EA012296EC17FD0708
:10473000A1F48D5F8093420580918000806C80930E
:104740008000609125054091760550917705649F22
:10475000C001659F900D112467C04F5F5F4FE41744
:10476000F507C9F48E5F8093420580912705B8173D
:1047700009F456C0882321F080918000806C04C029
:10478000809180008F7B80688093800080912705D6
:104790008093400545C080913F05E0913E058E1312
:1047A0000DC010924205809180008F73809380002D
:1047B00080916F008D7F80936F003CC081E080937B
:1047C0004205EF5FE43108F0E0E0E0933E05F0E001
:1047D000E85DFA4F8081809341051092400599234E
:1047E000C9F0082E82958025082E8695869580250D
:1047F0008F5F81FB662760F970E041E050E0923006
:1048000011F040E050E081E06417750709F080E0A6
:1048100080932705809180008F7B80688093800043
:104820008091760590917705280F391F3093890084
:1048300020938800FF91EF91DF91CF91BF91AF91CD
:104840009F918F917F916F915F914F913F912F91A8
:104850000F900FBE0F901F9018951F920F920FB6DA
:104860000F9211241F932F933F934F935F936F9356
:104870007F938F939F93AF93BF93CF93DF93EF93E8
:10488000FF9320918600309187009091730580916D
:104890008100992331F08F7B809381001092730502
:1048A00006C080648093810080E8809373058091C6
:1048B0007505811123C091119AC080916F05909167
:1048C0007005820F931F90938B0080938A0084E081
:1048D00086BB80916F00846080936F008091760525
:1048E00090917705280F391F96958795280F391FC6
:1048F000309372052093710581E074C04091710579
:1049000050917205C09126057091730590917405C0
:10491000A0917605B0917705D091230510912205DD
:10492000241B350B37FD58C0882321F0C81710F021
:104930009695972B4A0F5B1F8F5F8D1708F446C023
:104940009093740580916F008B7F80936F0090919E
:1049500024059923F9F080917405082E829580250D
:10496000082E8695869580258F5F81FBEE27E0F9DE
:10497000F0E021E030E0923011F020E030E081E022
:1049800090E0E217F30711F080E090E070E0861706
:10499000970791F480916E058F5F883230F5909182
:1049A0006D05891749F0E82FF0E090917405ED5BF3
:1049B000FA4F908380936E05809181008F7B809366
:1049C0008100109273051092750511C0811708F4CB
:1049D000672F2A1B3B0BA6CF90937405509372054B
:1049E000409371058093750502C080E0D8CFFF9198
:1049F000EF91DF91CF91BF91AF919F918F917F9177
:104A00006F915F914F913F912F911F910F900FBE2A
:104A10000F901F9018951F920F920FB60F921124AE
:104A20002F934F935F936F937F938F939F93EF9306
:104A3000FF9380916F008B7F80936F008091810046
:104A40008F7B80938100809175052091730520589C
:104A50004091260550E090917405682F70E046174C
:104A6000570724F09695922B8F5FF7CF909374059C
:104A700080916E058F5F883208F080E020916D058F
:104A8000821739F0E82FF0E0ED5BFA4F90838093C6
:104A90006E0510927505809181008F7B8093810057
:104AA00010927305FF91EF919F918F917F916F917C
:104AB0005F914F912F910F900FBE0F901F901895FF
:104AC0000F931F93CF93DF93EC0126E040E855E26C
:104AD00060E070E080EA93E00E94EF1BE1ECF0E020
:104AE0008081806480831A87098784E080937805B9
:104AF000DF91CF911F910F9108958FEF9FEF421794
:104B0000A8F4FB01E40FF11D3081832738E0FC019C
:104B1000E170FF2796958795EF2B21F051E08527CF
:104B200050EA9527315099F74F5FE9CF98278927A9
:104B3000982708951F93CF93DF93EB01142F242F11
:104B400040E0DBDFFE01E10FF11D90831F5FC10F2D
:104B5000D11D8883DF91CF911F910895FB01418181
:104B60004330A9F0463029F0403189F081E090E0EF
:104B70000895228130E0322F22274381240F311DF6
:104B8000FC01818592852817390718F528C02481F2
:104B900030E0322F22275581250F311D433021F07F
:104BA000403111F040E001C04EE021153105A1F087
:104BB00050E04217530780F0228130E0322F222745
:104BC0004381240F311DFC01818592858217930753
:104BD00030F482E090E0089583E090E0089580E072
:104BE00090E00895FC017087678308950F931F93E9
:104BF000CF93DF93DB01BA01A9019801EC01EF81AA
:104C0000F885CD01DF91CF911F910F9109946F929B
:104C10007F928F929F92AF92BF92CF92DF92EF924C
:104C2000FF920F931F93CF93DF935C014B016A01B7
:104C300039017A01C0E0D0E082E0E80EF11CF60113
:104C4000858190E0C817D90788F4F701058110E045
:104C5000102F00278681082BAE01480D591D21E039
:104C600030E0B301C501C2DF2196E6CFCE01DF916E
:104C7000CF911F910F91FF90EF90DF90CF90BF9059
:104C8000AF909F908F907F906F9008951F920F929A
:104C90000FB60F9211245A980F900FBE0F901F90CD
:104CA0001895EF92FF920F931F93CF93DF9380910C
:104CB000C00080648093C0008FB7F8945A9A8FBF69
:104CC000EB01042F10E07B01E00EF11ECE15DF0595
:104CD00031F0699180EA93E00E94301BF7CFC80160
:104CE000DF91CF911F910F91FF90EF900895EF9278
:104CF000FF920F931F93CF938C017B01C42F1ADF78
:104D000042E04C0FB701C801CF911F910F91FF9066
:104D1000EF90C7CFCF92DF92EF92FF920F931F9346
:104D2000CF93DF93CDB7DEB728970FB6F894DEBFE9
:104D30000FBECDBF6C01842F752FA801698390E150
:104D40009A837B838C831D822E839701682FC601F3
:104D50005EDF892B39F046E0BE016F5F7F4FC601F1
:104D6000C6DF02C080E090E028960FB6F894DEBF60
:104D70000FBECDBFDF91CF911F910F91FF90EF90AC
:104D8000DF90CF900895EF92FF920F931F93CF93F0
:104D9000DF93CDB7DEB728970FB6F894DEBF0FBE0E
:104DA000CDBF7C01C801F9010481158110270127BD
:104DB0001027698326E02A835B834C831D830E833F
:104DC00021E030E0BC01C70111DF46E0BE016F5FAA
:104DD0007F4FC7018CDF28960FB6F894DEBF0FBE59
:104DE000CDBFDF91CF911F910F91FF90EF9008956C
:104DF000AF92BF92CF92DF92EF92FF920F931F93E9
:104E0000CF93DF93CDB7DEB7A8970FB6F894DEBF88
:104E10000FBECDBF6C015801698383E08A83822F66
:104E2000880F8B83E22EF12C00E010E09701B50192
:104E3000C601DCDED501FE01319680E090E0BF01C5
:104E400032968E159F0548F42C9111963C9111973E
:104E50001296318322830196F3CFA701440F551F89
:104E60004D5F5F4FC60143DFA8960FB6F894DEBFD3
:104E70000FBECDBFDF91CF911F910F91FF90EF90AB
:104E8000DF90CF90BF90AF9008950F931F93CF9373
:104E9000DF938B01C0E0D0E080EA93E00E94D61A55
:104EA000892B71F080EA93E00E94051BF801819341
:104EB0008F012196C632D10579F78FEF9FEF01C0A0
:104EC000CE01DF91CF911F910F910895DF92EF9264
:104ED000FF920F931F93CF93DF937C01D62E8A010D
:104EE000BA01D3DFEC0118161906CCF4282F225092
:104EF00040E0B801C70101DEA8014C0F5D1FFA01B7
:104F00003297208130E0322F222731964081242BA6
:104F10008217930731F4F80180818D1102C0CE0110
:104F200002C08FEF9FEFDF91CF911F910F91FF9004
:104F3000EF90DF9008954F925F926F927F928F92E1
:104F40009F92AF92BF92CF92DF92EF92FF920F9318
:104F50001F93CF93DF93CDB7DEB7CC57D1090FB6F0
:104F6000F894DEBF0FBECDBF6C0180EA93E00E94D3
:104F7000D61A5C01892B21F4F601108A17868BC0A2
:104F8000F9D92BB1122F147022FD85C0F6012785A7
:104F90003089A216B30639F0B08AA7866387748772
:104FA0008587968779C0F60183849484A584B68426
:104FB0002B013C01481859086A087B088090780545
:104FC000912CA12CB12C481459046A047B0408F4D8
:104FD00063C0108A17866383748385839683AE01CA
:104FE0004B5A5F4F6081C60171DF181619060CF02D
:104FF00050C0482FBE016B5A7F4FC601AFDD9C01E8
:1050000067969FAD67972115310571F0122FF60154
:105010008081898390589A832B8343E0BE016F5F20
:105020007F4FC60164DE38C068964FAD689750E088
:10503000542F442769968FAD6997480F511DF6018B
:1050400092839630E1F0903161F0933029F58E0132
:105050000F5F1F4F6B962FAD6B976081C601C8DE47
:1050600018C0CE0101967C018E010B5A1F4F6B9622
:105070002FAD6B97F6016081C6014CDE0AC08E0130
:105080000F5F1F4F9E012B5A3F4FF6016081C601F3
:105090007ADE182F01C010E0812FC458DF4F0FB601
:1050A000F894DEBF0FBECDBFDF91CF911F910F915E
:1050B000FF90EF90DF90CF90BF90AF909F908F9038
:1050C0007F906F905F904F90089508951F920F9278
:1050D0000FB60F9211242F933F934F935F936F93CB
:1050E0007F938F939F93AF93BF93EF93FF93E09141
:1050F0000801F09109010995FF91EF91BF91AF91DE
:105100009F918F917F916F915F914F913F912F91DF
:105110000F900FBE0F901F90189597FB072E16F457
:10512000009406D077FD08D033D007FC05D03EF4BC
:10513000909581959F4F0895709561957F4F089543
:10514000A1E21A2EAA1BBB1BFD010DC0AA1FBB1F8B
:10515000EE1FFF1FA217B307E407F50720F0A21BFD
:10516000B30BE40BF50B661F771F881F991F1A946A
:1051700069F760957095809590959B01AC01BD0194
:10518000CF010895EE0FFF1F0590F491E02D0994D3
:10519000AA1BBB1B51E107C0AA1FBB1FA617B7075D
:1051A00010F0A61BB70B881F991F5A95A9F7809579
:1051B0009095BC01CD0108955058BB27AA270ED069
:1051C00075C166D130F06BD120F031F49F3F11F4FE
:1051D0001EF45BC10EF4E095E7FB51C1E92F77D1D6
:1051E00080F3BA17620773078407950718F071F404
:1051F0009EF58FC10EF4E0950B2EBA2FA02D0B015A
:10520000B90190010C01CA01A0011124FF27591B0B
:1052100099F0593F50F4503E68F11A16F040A22F11
:10522000232F342F4427585FF3CF46953795279582
:10523000A795F0405395C9F77EF41F16BA0B620B81
:10524000730B840BBAF09150A1F0FF0FBB1F661FC8
:10525000771F881FC2F70EC0BA0F621F731F841F0B
:1052600048F4879577956795B795F7959E3F08F031
:10527000B3CF9395880F08F09927EE0F97958795F0
:105280000895D9D008F481E008950CD00FC107D15A
:1052900040F0FED030F021F45F3F19F0F0C0511122
:1052A00039C1F3C014D198F39923C9F35523B1F34D
:1052B000951B550BBB27AA2762177307840738F085
:1052C0009F5F5F4F220F331F441FAA1FA9F333D0E4
:1052D0000E2E3AF0E0E830D091505040E695001C98
:1052E000CAF729D0FE2F27D0660F771F881FBB1F54
:1052F000261737074807AB07B0E809F0BB0B802D2E
:10530000BF01FF2793585F4F2AF09E3F510568F079
:10531000B6C000C15F3FECF3983EDCF3869577950D
:105320006795B795F7959F5FC9F7880F911D96957B
:10533000879597F90895E1E0660F771F881FBB1FD7
:10534000621773078407BA0720F0621B730B840B84
:10535000BA0BEE1F88F7E095089504D06894B11158
:10536000D9C00895BCD088F09F5790F0B92F9927E5
:10537000B751A0F0D1F0660F771F881F991F1AF060
:10538000BA95C9F712C0B13081F0C3D0B1E0089529
:10539000C0C0672F782F8827B85F39F0B93FCCF3AA
:1053A000869577956795B395D9F73EF49095809556
:1053B000709561957F4F8F4F9F4F0895E89409C076
:1053C00097FB3EF490958095709561957F4F8F4F38
:1053D0009F4F9923A9F0F92F96E9BB279395F6954E
:1053E000879577956795B795F111F8CFFAF4BB0FCC
:1053F00011F460FF1BC06F5F7F4F8F4F9F4F16C030
:10540000882311F096E911C0772321F09EE8872FB9
:10541000762F05C0662371F096E8862F70E060E075
:105420002AF09A95660F771F881FDAF7880F9695EE
:10543000879597F90895990F0008550FAA0BE0E892
:10544000FEEF16161706E807F907C0F01216130646
:10545000E407F50798F0621B730B840B950B39F486
:105460000A2661F0232B242B252B21F408950A26EC
:1054700009F4A140A6958FEF811D811D089597F92C
:105480009F6780E870E060E008959FEF80EC0895EA
:1054900000240A9416161706180609060895002413
:1054A0000A9412161306140605060895092E03948D
:1054B000000C11F4882352F0BB0F40F4BF2B11F401
:1054C00060FF04C06F5F7F4F8F4F9F4F089557FD60
:1054D0009058440F551F59F05F3F71F04795880F62
:1054E00097FB991F61F09F3F79F0879508951216F9
:1054F00013061406551FF2CF4695F1DF08C01616A5
:1055000017061806991FF1CF869571056105089455
:105510000895E894BB2766277727CB0197F908956C
:105520008ADF08F48FEF08950AD029ED3BE54EEDB0
:105530005EE345C00EF065C1A8CF6894A0CFCFDF71
:10554000C8F39923D1F3C6F3DF93CF931F930F933F
:10555000FF92C92FDD2788232AF02197660F771F36
:10556000881FDAF720E030E040E85FEB9FE38839FE
:1055700020F0803E30F021968F771FDEE4E8F0E0E7
:1055800003C01BDEE1EBF0E051D18B01BE01EC0169
:10559000FB2E6F5771097595771F880B990B10DFDC
:1055A00028E132E741E35FE316D0AF2D9801AE0169
:1055B000FF900F911F91CF91DF9110DE77CF0BD02D
:1055C00075CF66DF28F06BDF18F0952309F057CF11
:1055D0005CCF11249FCF7BDFA0F3959FD1F3950F74
:1055E00050E0551F629FF001729FBB27F00DB11D67
:1055F000639FAA27F00DB11DAA1F649F6627B00DF7
:10560000A11D661F829F2227B00DA11D621F739FDF
:10561000B00DA11D621F839FA00D611D221F749FED
:105620003327A00D611D231F849F600D211D822F34
:10563000762F6A2F11249F5750408AF0E1F088237B
:105640004AF0EE0FFF1FBB1F661F771F881F915088
:105650005040A9F79E3F510570F011CF5BCF5F3FDF
:10566000ECF3983EDCF3869577956795B795F795BB
:10567000E7959F5FC1F7FE2B880F911D9695879543
:1056800097F90895FA01EE0FFF1F309621053105B5
:1056900099F16115710561F48038BFE39B0749F109
:1056A00068949038810561F08038BFEF9B0741F026
:1056B000992342F5FF3FE1053105210511F1E894F9
:1056C0000894E795D901AA2329F4AB2FBE2FF85FE0
:1056D000D0F310C0FF5F70F4A695E0F7F73950F0F3
:1056E00019F0FF3A38F49F779F930CD00F9007FC86
:1056F000905808953EF0C9CE60E070E080E89FE3E6
:1057000008954FE79F775F934F933F932F9317DF52
:105710002F913F914F915F9152DF47C011F40EF4EA
:10572000B4CE6FC0DCDED0F39923D9F3CEF39F570C
:10573000550B87FF74D00024A0E640EA9001805802
:105740005695979528F4805C660F771F881F20F088
:1057500026173707480730F4621B730B840B202988
:1057600031294A2BA69517940794202531254A27DD
:1057700058F7660F771F881F20F02617370748074E
:1057800030F4620B730B840B200D311D411DA0956D
:1057900081F7B901842F9158880F969587950895C0
:1057A00019F40EF06CCEB5CE70CE99DEC8F39638F3
:1057B000C0F707F80F92E8942BE33AEA48EB5FE76B
:1057C0000CDF0F920F920F924DB75EB70F9290D0F1
:1057D000EEEDF0E02BD04F915F91EF91FF91E595C9
:1057E000EE1FFF1F49F0FE57E0684427EE0F441FED
:1057F000FA95E1F74195550B47D00F9007FE3BC056
:1058000008959F3F31F0915020F4879577956795E3
:10581000B795880F911D9695879597F908959150A2
:105820005040660F771F881FD2F70895DF93CF93FC
:105830001F930F93FF92EF92DF927B018C0168948C
:1058400005C0DA2EEF01C7DEFE01E894A59125918F
:10585000359145915591AEF3EF01C0DCFE01970102
:10586000A801DA9479F7DF90EF90FF900F911F91E4
:10587000CF91DF9108959B01AC0160E070E080E87A
:105880009FE303CDFCCDBDCF2ADEE8F39923D9F306
:10589000940F511DBBF39150504094F059F0882360
:1058A00032F0660F771F881F91505040C1F79E3F1E
:1058B000510544F7880F911D9695879597F908959E
:1058C0005F3FACF0983E9CF0BB2786957795679537
:1058D000B79508F4B1609395C1F7BB0F58F711F471
:1058E00060FFE8CF6F5F7F4F8F4F9F4FE3CF12CEA8
:1058F000FA01DC01AA0FBB1F9B01AC01BF5728F4C2
:1059000022273327442750781FC0B75188F4AB2F84
:105910000024469537952795011CA395D2F30020C6
:1059200069F0220F331F441FB395DAF30DD044CC36
:1059300061307105A0E88A07B94630F49B01AC01DB
:105940006627772788279078309621F02083318347
:10595000428353830895F999FECF92BD81BDF89A91
:10596000992780B50895262FF999FECF1FBA92BDC9
:1059700081BD20BD0FB6F894FA9AF99A0FBE019630
:065980000895F894FFCF2A
:1059860028073F88130101FF65286009C01280259A
:105996004038004B0096C0DA0000003F0000003F90
:1059A6000000003F8FC2F53C8FC2F53C8FC2F53C2C
:1059B60000000000301BBE1CD61A051BE91A251B69
:1059C600000000009C2070200E2016202A2039207E
:00000001FF
