:10000000ADC000000C94191F0C94461FCFC0000017
:10001000CDC00000CBC00000C9C000000C94841CFF
:10002000C5C00000C3C000000C9492230C94A92208
:100030000C9470240C94BE27B9C00000B7C0000017
:100040000C94D520B3C000000C94D71A0C94181B44
:100050000C94AA25ABC00000A9C00000A7C00000F6
:100060000C94EF1DA3C00000FC1702180418071819
:100070001B18C71937185218391854189C18A0188B
:10008000C719D61808000000BE922449123EABAA38
:10009000AA2ABECDCCCC4C3E00000080BEABAAAAA2
:1000A000AA3E00000000BF000000803F00000000EA
:1000B00000084178D3BB4387D1133D190E3CC3BD23
:1000C0004282AD2B3E68EC8276BED98FE1A93E4CD0
:1000D00080EFFFBE01C4FF7F3F0000000000076308
:1000E0004236B79BD8A71A39685618AEBAAB558CAA
:1000F0001D3CB7CC5763BD6DEDFD753EF6177231F3
:10010000BF000000803F0200000007000201000065
:1001100003040600000000000000000102040810B3
:10012000204080010204081020010204081020046D
:10013000040404040404040202020202020303038E
:1001400003030300000000250028002B000000002E
:1001500000240027002A0000DC1BD22011241FBE2F
:10016000CFEFD8E0DEBFCDBF11E0A0E0B1E0E6E325
:10017000F8E502C005900D92A034B107D9F725E04B
:10018000A0E4B1E001C01D92A736B207E1F710E08C
:10019000CEEAD0E004C02197FE010E941A28CC3A92
:1001A000D107C9F70E94181C0C94192C29CF0C9464
:1001B000032C0C940B2CCF92DF92EF92FF920F93B3
:1001C0001F93CF93DF93E1E0E0935F01E1E6F2E07C
:1001D000C1ECD2E0A1E9CA2EA2E0DA2E61937193BC
:1001E000819391932993399349935993D601ED9231
:1001F000FD920D931D936D01B2E0E537FB0771F79A
:10020000ECEEF1E0A4E0B2E06193719381939193FD
:10021000AE17BF07C9F7E8E0F2E0A0E2B2E0219331
:10022000319341935193AE17BF07C9F7E4E2F2E06F
:10023000ACE3B2E0E192F19201931193AE17BF07E4
:10024000C9F76093410270934202809343029093F6
:100250004402209345023093460240934702509354
:100260004802E0924902F0924A0200934B02109336
:100270004C02DF91CF911F910F91FF90EF90DF9093
:10028000CF900895809140028F5F863018F480935C
:10029000400202C01092400220914002A1E5B2E06B
:1002A00084E0289F9001112480E090E04D915D91C1
:1002B0006D917D91FC01E20FF31FE451FE4F4083ED
:1002C0005183628373834C968435910579F7089541
:1002D0008F929F92AF92BF92CF92DF92EF92FF9256
:1002E00080915C018111EEC0C0900A03D0900B0395
:1002F000E0900C03F0900D0320E030E0A901C7016D
:10030000B6010E94992887FF09C080917C039091D3
:100310007D03816090937D0380937C0320E030E433
:100320004CE955E4C701B6010E94E82918164CF4BF
:1003300080917C0390917D03826090937D038093F4
:100340007C0320E030E44CE156E4C701B6010E9492
:10035000E829181654F020E030E048EC52ECC701D0
:10036000B6010E94992887FF09C080917C03909173
:100370007D03846090937D0380937C03C09006038B
:10038000D0900703E0900803F090090320E030E0EC
:1003900040E752ECC701B6010E94992887FF09C0C7
:1003A00080917C0390917D03886090937D0380937E
:1003B0007C0320E030E040EA52E4C701B6010E942D
:1003C000E82918164CF480917C0390917D0380619C
:1003D00090937D0380937C03C0904703D0904803A3
:1003E000E0904903F0904A036091460370E080E09A
:1003F00090E00E943829A70196010E94992887FF62
:1004000009C080917C0390917D03806490937D036B
:1004100080937C036091450370E080E090E00E944F
:1004200038299B01AC01C701B6010E94E8291816C2
:100430004CF480917C0390917D03806890937D03C0
:1004400080937C036091400370E080E090E00E9424
:1004500038294B015C01C0904103D0904203E090E9
:100460004303F0904403A70196010E94E82918165F
:100470004CF480917C0390917D03986090937D0370
:1004800080937C03A7019601C501B4010E949928BD
:1004900087FF18C060913F0370E080E090E00E9409
:1004A00038299B01AC01C701B6010E94992887FF3A
:1004B00009C080917C0390917D03906190937D03AE
:1004C00080937C038091F902882349F080917C031A
:1004D00090917D03906290937D0380937C03FF90C5
:1004E000EF90DF90CF90BF90AF909F908F90089546
:1004F0002F923F924F925F926F927F928F929F9234
:10050000AF92BF92CF92DF92EF92FF920F931F9321
:10051000CF93DF93CDB7DEB728970FB6F894DEBF41
:100520000FBECDBF81E592E09A838983E1E4F2E0DA
:10053000F887EF8383E191E09C838B83E7E0F1E030
:10054000FE83ED833CEE232E31E0332EE12CF12CA3
:10055000612C80E5782E93EC892E27E4922EA12C35
:10056000B12C0AE714ECF101EE0DFF1D5080C180A3
:10057000D28043809501A801652D7C2D8D2D942D71
:100580000E94E829181624F4A52CBC2C0D2D142D3E
:100590009301A401652D7C2D8D2D942D0E94992809
:1005A00087FF04C0652C7C2C8D2C942CF4E0EF0E7E
:1005B000F11C24E1E216F104B1F6EF81F885C08068
:1005C000D180E280F38024EA30E74DE75FE3B301B6
:1005D000C4010E94372AA70196010E94992887FF2B
:1005E00011C02EEA37E441E85FE3B501C8010E947B
:1005F000372AA70196010E94E82918161CF4EB81FE
:10060000FC8102C0ED81FE8180809180A280B38058
:10061000E981FA816191719181919191FA83E983E4
:10062000A70196010E943428A50194010E94372A4F
:10063000A70196010E943528EF81F8856193719397
:1006400081939193F887EF838B819C8104969C839F
:100650008B83ED81FE813496FE83ED83FCE12F0ECA
:10066000311C89819A818D55924009F06FCF28966F
:100670000FB6F894DEBF0FBECDBFDF91CF911F91B3
:100680000F91FF90EF90DF90CF90BF90AF909F9031
:100690008F907F906F905F904F903F902F90089534
:1006A0000FB6F894A89580916000886180936000EF
:1006B000109260000FBE98E088E10FB6F894A895FC
:1006C000809360000FBE90936000FFCF8091D101B6
:1006D0009091D201A091D301B091D4014091C50174
:1006E0005091C6016091C7017091C801841B950BA0
:1006F000A60BB70B89389341A105B10558F098E0D6
:1007000088E10FB6F894A895809360000FBE90938F
:100710006000FFCF08950F931F938091D1019091B6
:10072000D201A091D301B091D4014091C90150915F
:10073000CA016091CB017091CC018C019D01041B19
:10074000150B260B370BB901A801453F5140610538
:10075000710578F08093C9019093CA01A093CB01F1
:10076000B093CC0180915D01811103C081E0809341
:100770005D011F910F910895FC018FEF21E3662326
:1007800069F09191892798E087FF03C0880F82273D
:1007900001C0880F9150C1F76150F1CF08952F9299
:1007A0003F924F925F926F927F928F929F92AF9201
:1007B000BF92CF92DF92EF92FF920F931F93CF934E
:1007C000DF93A0910E03E4E0AE9FE0011124FE014F
:1007D000EF59FD4F6083718382839383FE01EF5352
:1007E000FD4F2083318342835383FE01EF56FD4F3B
:1007F000E082F1820283138381E08A0F853018F44E
:1008000080930E0302C010920E03C1E6D2E001EC09
:1008100012E081E9282E82E0382EC12CD12C7601FD
:100820004601570126013701299139914991599182
:10083000C301B2010E9435282B013C01F80121912E
:100840003191419151918F01C501B4010E94352828
:100850004B015C01F10121913191419151911F01B5
:10086000C701B6010E9435286B017C01F2E0C53753
:10087000DF07D1F62DEC3CEC4CE45EE3C301B201A2
:100880000E94372A60935102709352028093530260
:10089000909354022DEC3CEC4CE45EE3C501B401B2
:1008A0000E94372A60935502709356028093570234
:1008B000909358022DEC3CEC4CE45EE3C701B6018A
:1008C0000E94372A6093590270935A0280935B0208
:1008D00090935C02DF91CF911F910F91FF90EF9069
:1008E000DF90CF90BF90AF909F908F907F906F9050
:1008F0005F904F903F902F9008950F931F9309EEB4
:1009000013E026E030E040E855E260E070E081E886
:1009100093E00E94C52464EC76E081E893E00E94B5
:10092000562581E0809381031F910F910895CF9305
:10093000DF9300D000D0CDB7DEB769837A838B8395
:100940009C8350E0440F551FFE01E40FF51F828188
:1009500090E0982F8827FE01E40FF51F2181822B5C
:100960000F900F900F900F90DF91CF9108951F93EC
:10097000CF93DF93162FC82FD0E0CE0118DC81175C
:1009800031F08F3F21F4612FCE0113DC812FDF91F5
:10099000CF911F9108957F928F929F92AF92BF92B5
:1009A000CF92DF92EF92FF920F931F93CF93DF933B
:1009B00000D000D0CDB7DEB77A018B016C015E01AB
:1009C00085E0A80EB11CFE0131964F01712CC601C5
:1009D000EEDBF50182935F01C601E9DB8F3F09F48D
:1009E0007394FFEFCF1ADF0AA814B90481F784E0EB
:1009F000781629F049815A813B812C8103C0A701D7
:100A0000302F212FBA01832F922F0F900F900F902C
:100A10000F90DF91CF911F910F91FF90EF90DF909A
:100A2000CF90BF90AF909F908F907F900895FF924E
:100A30000F931F93CF93DF938C01F62ED72FB7DB45
:100A4000C82FC8010196B3DBCF3F29F48F3F19F4BB
:100A50008F2D9D2F02C08C2B90E0DF91CF911F91A5
:100A60000F91FF9008951F93CF93DF93EC01172F01
:100A7000A0DB612FCE010196DF91CF911F9199CB21
:100A80000F931F93CF93DF938C0191DBC82FC80185
:100A900001968DDBD0E0D82BCF3F8FEFD80711F434
:100AA000C0E0D0E0C801029682DB811102C0CE0115
:100AB00004C0882799278C1B9D0BDF91CF911F9134
:100AC0000F910895CF92DF92EF92FF9261E084E65A
:100AD0004EDF8093030163E085E649DF8093DF0109
:100AE00060E086E644DF8093DE0169E672E088E636
:100AF00090E09DDF9093DC018093DB0160E089E66C
:100B000036DF8093DD016AEA7AEA8AE690E08FDFD9
:100B10009093E3018093E2016AEA7AEA8CE690E03E
:100B200086DF9093E1018093E00160E081E71FDFC1
:100B300080937F014BEC51EA65EC70E482E890E031
:100B40002ADF6093D7017093D8018093D9019093E5
:100B5000DA0165E886E80BDF8093460360E587E805
:100B600006DF809345036CE388E801DF80933F0351
:100B700062E389E8FCDE809340038AE890E080DF4E
:100B8000BC01990F880B990B0E9438292DEC3CEC85
:100B90004CEC5DE30E94372A60937A0170937B01ED
:100BA00080937C0190937D018DE890E069DFBC012A
:100BB000990F880B990B0E9438292AE037ED43E200
:100BC0005CE30E94372A60937601709377018093EB
:100BD00078019093790180E990E052DFBC01990F90
:100BE000880B990B0E9438292FE632E143E85AE33B
:100BF0000E94372A6B017C0120E030E0A9010E94AD
:100C00009928882349F0C0927201D0927301E09232
:100C10007401F09275010CC080E090E0A0E8BFE3A1
:100C20008093720190937301A0937401B093750146
:100C300061E084E99CDE8093710164E185E997DEDF
:100C40008093700166E373E386E990E0F0DE9093B1
:100C50006F0180936E0166E676E088E990E0E7DE5A
:100C600090936D0180936C0183E39AEFA1EDBAE359
:100C70008093680190936901A0936A01B0936B011E
:100C800040E050E060EA71EC8AE990E084DE609335
:100C9000640170936501809366019093670160E041
:100CA0008FE965DE80937E03FF90EF90DF90CF9019
:100CB00008950FB6F894A89580916000886180939C
:100CC0006000109260000FBE9FE088E10FB6F894BC
:100CD000A895809360000FBE90936000F3DE61E002
:100CE00082E00E943F2260E082E00E947B2261E07D
:100CF00083E00E943F2261E085E00E943F2261E0A4
:100D000086E00E943F2260E086E00E947B22F5DDC3
:100D100062E370E080E090E00E94502181EB94E07B
:100D20000E943F2040EA56E861E070E081EB94E0E9
:100D30000E944E204AE050E060E070E081EB94E0D9
:100D40000E944B1CA8950895FF920F931F93CF9379
:100D5000DF938C01EB0177FF06C0D195C195D109D6
:100D6000FF24F39401C0F12C6C2FC80122DA6D2FFF
:100D7000C80101961EDA6F2DC8010296DF91CF914E
:100D80001F910F91FF9015CA2F923F924F925F9241
:100D90006F927F928F929F92AF92BF92CF92DF928B
:100DA000EF92FF920F931F93CF93DF93CDB7DEB7F0
:100DB00028970FB6F894DEBF0FBECDBF7C01962EEC
:100DC0005E834D83690180918303BB24B39480319A
:100DD00019F0863009F0B12C8091D1019091D201A7
:100DE000A091D301B091D4018093C5019093C60125
:100DF000A093C701B093C8018D2C092D172FAA24E9
:100E0000A394C6010D2C000CAA0BBB0B89839A83FB
:100E1000AB83BC8322242394312C402F902F99192B
:100E2000A92FB0E0B887AF83ED81FE81AE17BF0771
:100E300014F00C9494140536110509F49EC70CF0B7
:100E40003CC20D31110509F4ADC50CF01CC10E30CA
:100E5000110509F4AFC40CF08BC00630110509F47C
:100E600019C40CF044C00230110509F4CBC30CF5D1
:100E70000115110509F4AEC30130110511F00C94F0
:100E800085142F813885220F331F2E0D3F1D388783
:100E90002F83609173037091740380917503909117
:100EA000760341E044DDAF81B8858D939C930C942B
:100EB00090140430110509F4BDC30CF0D3C3EF81C5
:100EC000F885EE0FFF1FEE0DFF1DF887EF83609191
:100ED0006F0370917003809171039091720341E0F0
:100EE00026DDAF81B8858D939C930C9490140A30C5
:100EF000110509F417C4F4F40830110509F4E2C32C
:100F00000CF0F8C3EF81F885EE0FFF1FEE0DFF1D0B
:100F1000F887EF836091770370917803809179036C
:100F200090917A0341E003DDAF81B8858D939C9366
:100F30000C9490140C30110509F40CC40CF022C46C
:100F4000EF81F885EE0FFF1FEE0DFF1DF887EF8391
:100F500060916303709164038091650390916603CF
:100F600041E0E5DCAF81B8858D939C930C9490149F
:100F70000531110509F486C40CF044C00131110596
:100F800009F448C40CF50F30110509F42BC40031E5
:100F9000110511F00C948514EF81F885EE0FFF1FF9
:100FA000EE0DFF1DF887EF8360914B0370914C03AA
:100FB00080914D0390914E0340E0B9DCAF81B8853C
:100FC0008D939C930C949014609147037091480307
:100FD0008091490390914A030331110509F432C409
:100FE0000CF040C4EF81F885EE0FFF1FEE0DFF1DE2
:100FF000F887EF8340E09BDCAF81B8858D939C93AD
:101000000C9490140931110509F484C4F4F40731E7
:10101000110509F44FC40CF065C4EF81F885EE0F9B
:10102000FF1FEE0DFF1DF887EF8360914103709164
:101030004203809143039091440340E078DCAF8108
:10104000B8858D939C930C9490140B31110509F481
:1010500079C40CF08FC4EF81F885EE0FFF1FEE0D01
:10106000FF1DF887EF836091230370912403809123
:1010700025039091260340E05ADCAF81B8858D931B
:101080009C930C9490140634110509F493C50CF04C
:101090009AC00033110509F4FDC40CF049C00832B0
:1010A000110509F4AFC40CF50E31110509F492C411
:1010B0000F31110511F00C948514EF81F885EE0FB6
:1010C000FF1FEE0DFF1DF887EF83609127037091DE
:1010D00028038091290390912A0341E028DCAF8105
:1010E000B8858D939C930C9490140A32110509F4E1
:1010F000B9C40CF49FC40B32110511F00C94851483
:10110000EF81F885EE0FFF1FEE0DFF1DF887EF83CF
:1011100060911703709118038091190390911A033D
:1011200041E005DCAF81B8858D939C930C949014BD
:101130000C33110509F4F6C41CF50A33110509F442
:10114000C1C40CF0D7C40133110511F00C948514FF
:10115000EF81F885EE0FFF1FEE0DFF1DF887EF837F
:101160006091FE027091FF02809100039091010353
:1011700041E0DDDBAF81B8858D939C930C94901496
:101180000E33110509F4FEC40CF4E4C40F33110549
:1011900011F00C948514EF81F885EE0FFF1FEE0D12
:1011A000FF1DF887EF8360913303709134038091C2
:1011B00035039091360341E0BADBAF81B8858D935A
:1011C0009C930C9490140E34110509F483C50CF013
:1011D00041C00A34110509F435C5F4F40834110589
:1011E00009F400C50CF016C5EF81F885EE0FFF1F5E
:1011F000EE0DFF1DF887EF8360910A0370910B03DA
:1012000080910C0390910D0341E091DBAF81B88593
:101210008D939C930C9490140C34110509F42AC5F9
:101220000CF040C5EF81F885EE0FFF1FEE0DFF1D9E
:10123000F887EF8360915F03709160038091610391
:101240009091620341E073DBAF81B8858D939C93ED
:101250000C9490140235110509F461C5ACF4003505
:10126000110509F443C50CF04DC52F813885220FB7
:10127000331F2E0D3F1D8091590190915A01D901C4
:101280008D939C930C9490140336110509F454C566
:101290000CF05BC50335110511F00C9485142F81FA
:1012A0003885220F331F2E0D3F1D80917B0390E068
:1012B000D9018D939C930C9490140C39110511F461
:1012C0000C942E130CF089C00938110509F4B3C62B
:1012D0000CF048C00F36110509F4E1C534F50936A4
:1012E000110509F48DC554F40636110509F45AC5E3
:1012F0000836110509F46CC50C9485140B361105DC
:1013000009F4B0C50CF492C50E36110511F00C9419
:101310008514EF81F885EE0FFF1FEE0DFF1D25E010
:1013200030E0318320830C9490140338110509F4C4
:101330000DC664F40137110509F4C7C50CF4BBC52B
:101340000238110509F4DAC50C9485140738110523
:1013500009F448C60CF05BC60638110509F42EC620
:101360000C9485140439110511F40C94C311DCF4A8
:101370000C38110509F4ECC654F40A38110509F4C7
:101380006FC60B38110509F4A7C60C9485140E38E6
:10139000110509F470C70CF417C70F38110509F4CB
:1013A000BBC70C9485140839110511F40C949E12D6
:1013B00054F40639110511F40C94401214F40C94F1
:1013C00001120C9481120A39110511F40C94FE12C9
:1013D00014F40C94C6120C941613083C110511F465
:1013E0000C94B9130CF06CC00C3B110511F40C9467
:1013F00082136CF50A3B11058CF4043B110514F0C3
:101400000C9466130D39110511F40C943A130E392E
:10141000110511F40C9448130C9485140A3B110522
:1014200011F40C9475130B3B110511F00C948514F9
:101430002F813885220F331F2E0D3F1D8091F5021D
:101440009091F602D9018D939C930C949014043CD6
:101450001105CCF4023C110514F00C94A1130D3BC2
:10146000110511F00C948F132F813885220F331F33
:101470002E0D3F1D8091F1029091F202D9018D93C2
:101480009C930C949014063C110514F00C94851454
:10149000EF81F885EE0FFF1FEE0DFF1DF887EF833C
:1014A000445C6091E4017091E5018091E6019091C6
:1014B000E7013DDAAF81B8858D939C930C9490142D
:1014C0000231F2E01F0711F40C94F6130CF040C047
:1014D000073B31E013070CF5003981E0180714F0E1
:1014E0000C94E7130A3C110511F40C94D31314F473
:1014F0000C94C6130F3891E0190711F00C94851461
:10150000EF81F885EE0FFF1FEE0DFF1D8091550155
:1015100090E0918380830C949014C801825C914088
:101520008731910510F00C948514EF81F885EE0F4A
:10153000FF1FEE0DFF1DF887EF83FC01EC57FE4FF8
:10154000808190E0AF81B8858D939C930C9490142A
:101550000235A2E01A0711F40C943E143CF5043154
:10156000E2E01E0711F40C94261414F40C940E14EB
:10157000053122E0120711F00C948514EF81F885F3
:10158000EE0FFF1FEE0DFF1DF887EF836091020342
:1015900070910303809104039091050341E0C7D942
:1015A000AF81B8858D939C930C949014003233E0F6
:1015B000130711F40C946614043883E0180711F42F
:1015C0000C947E14083592E0190711F00C948514E0
:1015D0000C944F14AF81B885AA0FBB1FAE0DBF1D71
:1015E000B887AF8360917303709174038091750322
:1015F0009091760340E09BD9EF81F88591838083B9
:101600000C949014EF81F885EE0FFF1FEE0DFF1D77
:10161000F887EF8360916F0370917003809171037D
:101620009091720340E083D9AF81B8858D939C93EC
:101630000C949014EF81F885EE0FFF1FEE0DFF1D47
:10164000F887EF8360916B0370916C0380916D0359
:1016500090916E0340E06BD9AF81B8858D939C93D8
:101660000C949014EF81F885EE0FFF1FEE0DFF1D17
:10167000F887EF8360916B0370916C0380916D0329
:1016800090916E0341E053D9AF81B8858D939C93BF
:101690000C949014EF81F885EE0FFF1FEE0DFF1DE7
:1016A000F887EF83609177037091780380917903D5
:1016B00090917A0340E03BD9AF81B8858D939C939C
:1016C0000C949014EF81F885EE0FFF1FEE0DFF1DB7
:1016D000F887EF83609167037091680380916903D5
:1016E00090916A0340E023D9AF81B8858D939C9394
:1016F0000C949014EF81F885EE0FFF1FEE0DFF1D87
:10170000F887EF83609167037091680380916903A4
:1017100090916A0341E00BD9AF81B8858D939C937A
:101720000C949014EF81F885EE0FFF1FEE0DFF1D56
:10173000F887EF8360916303709164038091650380
:101740009091660340E0F3D8AF81B8858D939C9368
:101750000C949014EF81F885EE0FFF1FEE0DFF1D26
:10176000F887EF8360915303709154038091550380
:101770009091560340E0DBD8AF81B8858D939C9360
:101780000C949014EF81F885EE0FFF1FEE0DFF1DF6
:10179000F887EF8360915303709154038091550350
:1017A0009091560341E0C3D8AF81B8858D939C9347
:1017B0000C949014EF81F885EE0FFF1FEE0DFF1DC6
:1017C000F887EF8360914F0370915003809151032C
:1017D0009091520340E0ABD8AF81B8858D939C9334
:1017E0000C949014EF81F885EE0FFF1FEE0DFF1D96
:1017F000F887EF8360914F037091500380915103FC
:101800009091520341E093D8AF81B8858D939C931A
:101810000C949014EF81F885EE0FFF1FEE0DFF1D65
:10182000F887EF8360914B0370914C0380914D03D7
:1018300090914E0341E07BD8AF81B8858D939C9306
:101840000C949014EF81F885EE0FFF1FEE0DFF1D35
:10185000F887EF8341E06BD8AF81B8858D939C9377
:101860000C949014EF81F885EE0FFF1FEE0DFF1D15
:10187000F887EF8340E05BD8AF81B8858D939C9368
:101880000C949014EF81F885EE0FFF1FEE0DFF1DF5
:10189000F887EF8360914703709148038091490373
:1018A00090914A0341E043D8AF81B8858D939C93D2
:1018B0000C949014EF81F885EE0FFF1FEE0DFF1DC5
:1018C000F887EF8360914103709142038091430355
:1018D0009091440341E02BD8AF81B8858D939C93C0
:1018E0000C949014EF81F885EE0FFF1FEE0DFF1D95
:1018F000F887EF8360911F0370912003809121038B
:101900009091220340E013D8AF81B8858D939C93CA
:101910000C949014EF81F885EE0FFF1FEE0DFF1D64
:10192000F887EF8360911F0370912003809121035A
:101930009091220341E00E949704AF81B8858D9376
:101940009C93EEC7EF81F885EE0FFF1FEE0DFF1D94
:10195000F887EF836091230370912403809125031E
:101960009091260341E00E949704AF81B8858D9342
:101970009C93D6C7EF81F885EE0FFF1FEE0DFF1D7C
:10198000F887EF8360910F0370911003809111032A
:101990009091120340E00E949704AF81B8858D9327
:1019A0009C93BEC7EF81F885EE0FFF1FEE0DFF1D64
:1019B000F887EF8360910F037091100380911103FA
:1019C0009091120341E00E949704AF81B8858D93F6
:1019D0009C93A6C7EF81F885EE0FFF1FEE0DFF1D4C
:1019E000F887EF8360912703709128038091290382
:1019F00090912A0340E00E949704AF81B8858D93AF
:101A00009C938EC7EF81F885EE0FFF1FEE0DFF1D33
:101A1000F887EF8360911B0370911C0380911D0375
:101A200090911E0340E00E949704AF81B8858D938A
:101A30009C9376C7EF81F885EE0FFF1FEE0DFF1D1B
:101A4000F887EF8360911B0370911C0380911D0345
:101A500090911E0341E00E949704AF81B8858D9359
:101A60009C935EC7EF81F885EE0FFF1FEE0DFF1D03
:101A7000F887EF8360911703709118038091190321
:101A800090911A0340E00E949704AF81B8858D932E
:101A90009C9346C7EF81F885EE0FFF1FEE0DFF1DEB
:101AA000F887EF836091FE027091FF02809100033E
:101AB0009091010340E00E949704AF81B8858D9317
:101AC0009C932EC7EF81F885EE0FFF1FEE0DFF1DD3
:101AD000F887EF8360913B0370913C0380913D0355
:101AE00090913E0340E00E949704AF81B8858D93AA
:101AF0009C9316C7EF81F885EE0FFF1FEE0DFF1DBB
:101B0000F887EF8360913B0370913C0380913D0324
:101B100090913E0341E00E949704AF81B8858D9378
:101B20009C93FEC6EF81F885EE0FFF1FEE0DFF1DA3
:101B3000F887EF8360913703709138038091390300
:101B400090913A0340E00E949704AF81B8858D934D
:101B50009C93E6C6EF81F885EE0FFF1FEE0DFF1D8B
:101B6000F887EF83609137037091380380913903D0
:101B700090913A0341E00E949704AF81B8858D931C
:101B80009C93CEC6EF81F885EE0FFF1FEE0DFF1D73
:101B9000F887EF83609133037091340380913503AC
:101BA0009091360340E00E949704AF81B8858D93F1
:101BB0009C93B6C6EF81F885EE0FFF1FEE0DFF1D5B
:101BC000F887EF8360910A0370910B0380910C03F7
:101BD00090910D0340E00E949704AF81B8858D93EA
:101BE0009C939EC6EF81F885EE0FFF1FEE0DFF1D43
:101BF000F887EF83609106037091070380910803D3
:101C00009091090340E00E949704AF81B8858D93BD
:101C10009C9386C6EF81F885EE0FFF1FEE0DFF1D2A
:101C2000F887EF83609106037091070380910803A2
:101C30009091090341E00E949704AF81B8858D938C
:101C40009C936EC6EF81F885EE0FFF1FEE0DFF1D12
:101C5000F887EF8360915F03709160038091610367
:101C60009091620340E00E949704AF81B8858D9304
:101C70009C9356C6EF81F885EE0FFF1FEE0DFF1DFA
:101C8000F887EF8360915B0370915C0380915D0343
:101C900090915E0340E00E949704AF81B8858D93D8
:101CA0009C933EC6EF81F885EE0FFF1FEE0DFF1DE2
:101CB000F887EF8360915B0370915C0380915D0313
:101CC00090915E0341E00E949704AF81B8858D93A7
:101CD0009C9326C6EF81F885EE0FFF1FEE0DFF1DCA
:101CE00080915B0190E0918380831AC6EF81F88533
:101CF000EE0FFF1FEE0DFF1D80915C0190E09183C0
:101D000080830EC62F813885220F331F2E0D3F1D75
:101D10008091580190E0D9018D939C9301C6EF8189
:101D2000F885EE0FFF1FEE0DFF1D8091560190917B
:101D3000570191838083F4C5EF81F885EE0FFF1F73
:101D4000EE0DFF1DD182C082EBC5BB2049F0C092D1
:101D50000301C09281036C2D84E690E00E94D900BB
:101D60002F813885220F331F2E0D3F1D80910301D7
:101D700090E0D9018D939C93D3C5BB2039F0C092DC
:101D8000DF016C2D85E690E00E94D900EF81F88597
:101D9000EE0FFF1FEE0DFF1D8091DF0190E091839C
:101DA0008083BEC5BB2039F0C092DE016C2D86E673
:101DB00090E00E94D9002F813885220F331F2E0D0D
:101DC0003F1D8091DE0190E0D9018D939C93A8C5C1
:101DD000BB2049F0D092DC01C092DB01B60188E65D
:101DE00090E00E943305EF81F885EE0FFF1FEE0DA6
:101DF000FF1D8091DB019091DC019183808390C570
:101E0000BB2039F0C092DD016C2D89E690E00E9484
:101E1000D9002F813885220F331F2E0D3F1D809151
:101E2000DD0190E0D9018D939C937AC5BB2069F0C8
:101E30008091C401882349F0D092E101C092E00171
:101E4000B6018CE690E00E9433058091E00190910C
:101E5000E101EF81F885EE0FFF1FEE0DFF1D91836D
:101E600080835EC5BB2069F08091C401882349F05E
:101E7000D092E301C092E201B6018AE690E00E94AE
:101E800033058091E2019091E3012F813885220F83
:101E9000331F2E0D3F1DD9018D939C9341C58F811A
:101EA0009885880F991F8E0D9F1DEFE0F0E0DC01F3
:101EB000ED93FC9335C52F813885220F331F2E0DEE
:101EC0003F1DD9012D923C922BC5BB2059F080912A
:101ED000C401882339F0C0927F016C2D81E790E026
:101EE0000E94D900EF81F885EE0FFF1FEE0DFF1D58
:101EF00080917F0190E09183808312C5BB2071F0B7
:101F00008091C401882351F0682D84E890E00E94FC
:101F1000D9006C2D85E890E00E94D9002F8138858A
:101F2000220F331F2E0D3F1D38872F836091D7015D
:101F30007091D8018091D9019091DA0140E00E941E
:101F40009704AF81B8858D939C93EAC4BB20F1F0D0
:101F50008091C4018823D1F0682D82E890E00E942E
:101F6000D9006C2D83E890E00E94D9004BEC51EA37
:101F700065EC70E482E890E00E94CB046093D701A6
:101F80007093D8018093D9019093DA01EF81F8859D
:101F9000EE0FFF1FEE0DFF1DF887EF836091D70155
:101FA0007091D8018091D9019091DA0141E00E94AD
:101FB0009704AF81B8858D939C93B2C4BB2031F058
:101FC0006091460386E890E00E94D900EF81F88591
:101FD000EE0FFF1FEE0DFF1D8091460390E09183F1
:101FE00080839EC4BB2031F06091450387E890E078
:101FF0000E94D9002F813885220F331F2E0D3F1DDF
:102000008091450390E0D9018D939C9389C4BB20B6
:1020100031F060913F0388E890E00E94D900EF81A1
:10202000F885EE0FFF1FEE0DFF1D80913F0390E03E
:102030009183808375C4BB2031F06091400389E8AF
:1020400090E00E94D9002F813885220F331F2E0D7A
:102050003F1D8091400390E0D9018D939C9360C413
:10206000BB20E9F08091C4018823C9F069817A819D
:102070008B819C810E9438292DEC3CEC4CEC5DE37B
:102080000E94372A60937A0170937B0180937C01D0
:1020900090937D01B6018AE890E00E94A406EF814A
:1020A000F885EE0FFF1FEE0DFF1DF887EF8320E090
:1020B00030E040E251E460917A0170917B018091BF
:1020C0007C0190917D010E94372A0E940529AF81F1
:1020D000B8856D937C9324C4BB20E9F08091C40142
:1020E0008823C9F069817A818B819C810E9438297B
:1020F0002AE037ED43E25CE30E94372A60937601E1
:10210000709377018093780190937901B6018DE8FF
:1021100090E00E94A406EF81F885EE0FFF1FEE0D00
:10212000FF1DF887EF8320E030E048EC52E4609137
:1021300076017091770180917801909179010E94E8
:10214000372A0E940529AF81B8856D937C93E8C337
:10215000BB20E9F08091C4018823C9F069817A81AC
:102160008B819C810E9438292FE632E143E85AE3B3
:102170000E94372A609372017093730180937401F7
:1021800090937501B60180E990E00E94A406EF816A
:10219000F885EE0FFF1FEE0DFF1DF887EF8320E09F
:1021A00030E04AE754E460917201709173018091CC
:1021B0007401909175010E94372A0E940529AF8110
:1021C000B8856D937C93ACC3BB20C1F18091C401F1
:1021D0008823A1F169817A818B819C810E943829B1
:1021E0002AE037ED43E25CE30E94372A2091760132
:1021F0003091770140917801509179010E94342803
:1022000020915703309158034091590350915A033C
:102210000E949D28609372017093730180937401F2
:102220009093750120E030E04AE754E40E94372A99
:102230000E94052980E990E00E94A406EF81F885BC
:10224000EE0FFF1FEE0DFF1DF887EF8320E030E05B
:102250004AE754E4609172017091730180917401B6
:10226000909175010E94372A0E940529AF81B88597
:102270006D937C9355C3BB2091F18091C401882359
:1022800071F12091570330915803409159035091B7
:102290005A03609172017091730180917401909161
:1022A00075010E94372A9B01AC016AE077ED83E259
:1022B0009CE30E94342860937601709377018093A9
:1022C00078019093790120E030E048EC52E40E94DC
:1022D000372A0E9405298DE890E00E94A406EF812C
:1022E000F885EE0FFF1FEE0DFF1DF887EF8320E04E
:1022F00030E048EC52E46091760170917701809172
:102300007801909179010E94372A0E940529AF81B6
:10231000B8856D937C9304C3BB2061F18091C401A7
:10232000882341F110927601109277011092780182
:102330001092790160E070E08DE890E00E94A406C0
:1023400080E090E0A0E8BFE3809372019093730176
:10235000A0937401B093750168EE73E080E990E09A
:102360000E94A406EF81F885EE0FFF1FEE0DFF1D02
:1023700031822082AF81B885AA0FBB1FAE0DBF1D71
:102380001D921C92CDC2BB2081F18091C401882393
:1023900061F1C09271016C2D84E990E00E94D90036
:1023A000809170016091710170E0680F711D072EBE
:1023B000000C880B990B0E9438292B013C0160917D
:1023C0006E0170916F0180E090E00E9436299B01C0
:1023D000AC01C301B2010E949D2860936801709313
:1023E000690180936A0190936B01EF81F885EE0F8C
:1023F000FF1FEE0DFF1D8091710190E0918380839E
:102400008FC2BB2081F18091C401882361F1C09209
:1024100070016C2D85E990E00E94D90080917001D7
:102420006091710170E0680F711D072E000C880B20
:10243000990B0E9438292B013C0160916E0170912B
:102440006F0180E090E00E9436299B01AC01C3013E
:10245000B2010E949D286093680170936901809386
:102460006A0190936B012F813885220F331F2E0D47
:102470003F1D8091700190E0D9018D939C9350C2D3
:10248000BB2091F18091C401882371F1D0926F013A
:10249000C0926E01B60186E990E00E9433058091FA
:1024A00070016091710170E0680F711D072E000CC2
:1024B000880B990B0E9438292B013C0160916E0119
:1024C00070916F0180E090E00E9436299B01AC0181
:1024D000C301B2010E949D28609368017093690155
:1024E00080936A0190936B01EF81F885EE0FFF1FD7
:1024F000EE0DFF1D80916E0190916F01918380839D
:102500000FC2BB2069F08091C401882349F0D092AA
:102510006D01C0926C01B60186E990E00E9433051E
:102520002F813885220F331F2E0D3F1D80916C01A6
:1025300090916D01D9018D939C93F2C1BB2071F0F4
:102540008091C401882351F0682D8CE990E00E94AD
:10255000D9006C2D8DE990E00E94D900EF81F885BB
:10256000EE0FFF1FEE0DFF1DF887EF8360916401F2
:1025700070916501809166019091670140E00E9431
:102580009704AF81B8858D939C93CAC1BB20F1F0AD
:102590008091C4018823D1F0682D8AE990E00E94DF
:1025A000D9006C2D8BE990E00E94D90040E050E00A
:1025B00060EA71EC8AE990E00E94CB0460936401C8
:1025C000709365018093660190936701EF81F885B0
:1025D000EE0FFF1FEE0DFF1DF887EF836091640182
:1025E00070916501809166019091670141E00E94C0
:1025F0009704AF81B8858D939C9392C1EF81F88544
:10260000EE0FFF1FEE0DFF1DF887EF836091600155
:1026100070916101809162019091630140E00E949C
:102620009704AF81B8858D939C937AC1EF81F8852B
:10263000EE0FFF1FEE0DFF1DF887EF836091600125
:1026400070916101809162019091630141E00E946B
:102650009704AF81B8858D939C9362C1EF81F88513
:10266000EE0FFF1FEE0DFF1D8091540190E091834E
:10267000808356C180917F03909180032F8138859C
:10268000220F331F2E0D3F1DD9018D939C9348C1FE
:10269000BB2081F08091C401882361F06C2D8FE90B
:1026A00090E00E94D900C0927E0360E070E083E079
:1026B0000E94B921EF81F885EE0FFF1FEE0DFF1D7F
:1026C00080917E0390E0918380832AC12F81388599
:1026D000220F331F2E0D3F1DF801E457FF4F80815D
:1026E00090E0D9018D939C931BC1EF81F885EE0F8B
:1026F000FF1FEE0DFF1D8091F7029091F80291836C
:1027000080830EC1EF81F885EE0FFF1FEE0DFF1DD8
:102710008091F3029091F4029183808301C1EF8153
:10272000F885EE0FFF1FEE0DFF1DF887EF83F80110
:10273000E457FF4F808190E0AF81B8858D939C93E3
:10274000EFC0EF81F885EE0FFF1FEE0DFF1DF8873C
:10275000EF83425C6091E8017091E9018091EA01A8
:102760009091EB010E949704AF81B8858D939C9363
:10277000D7C080917C0390917D03EF81F885EE0FA7
:10278000FF1FEE0DFF1D91838083CAC0BB2009F49B
:10279000C7C0F1E0CF16D10409F0C2C010927D038A
:1027A00010927C03BDC0BB2041F021E0C216D104D1
:1027B00021F4A092D601A092D5018F819885880F2F
:1027C000991F8E0D9F1DDC011D921C92A9C02F81A7
:1027D0003885220F331F2E0D3F1DF801E45FFF4F98
:1027E000808190E0D9018D939C939AC0EF81F88508
:1027F000EE0FFF1FEE0DFF1DF887EF836091FA02C9
:102800007091FB028091FC029091FD0240E00E94D9
:102810009704AF81B8858D939C9382C0EF81F88532
:10282000EE0FFF1FEE0DFF1DF887EF836091FA0298
:102830007091FB028091FC029091FD0241E00E94A8
:102840009704AF81B8858D939C936AC0EF81F8851A
:10285000EE0FFF1FEE0DFF1DF887EF83609102035F
:1028600070910303809104039091050340E00E945E
:102870009704AF81B8858D939C9352C0BB2031F0F3
:10288000B1E0CB16D10411F4A092D601EF81F88506
:10289000EE0FFF1FEE0DFF1D1182108241C0BB2005
:1028A00031F0F1E0CF16D10411F4A0927E018091B5
:1028B0007E012F813885220F331F2E0D3F1D90E0A2
:1028C000880F991FD9018D939C932AC0BB2051F08A
:1028D000B2EACB16B8E0DB0619F4A092C40102C03C
:1028E0001092C401EF81F885EE0FFF1FEE0DFF1D62
:1028F0008091C40190E09183808312C0F894E091AC
:102900000101F091020109950BC02F813885220F3A
:10291000331F2E0D3F1DEFEFFFEFD901ED93FC9319
:102920000F5F1F4F0C940D0728960FB6F894DEBF6B
:102930000FBECDBFDF91CF911F910F91FF90EF9010
:10294000DF90CF90BF90AF909F908F907F906F90CF
:102950005F904F903F902F9008954F925F926F92AB
:102960007F928F929F92AF92BF92CF92DF92EF921F
:10297000FF92CF93DF9300D000D0CDB7DEB7209188
:102980005703309158034091590350915A03609175
:1029900072017091730180917401909175010E9490
:1029A000372A20917601309177014091780150913A
:1029B00079010E9435286093FE027093FF02809394
:1029C0000003909301032AE037ED43E25CE30E94A9
:1029D000992887FF10C08AE097EDA3E2BCE38093BB
:1029E000FE029093FF02A0930003B093010381E0E5
:1029F0008093F90202C01092F902C0905303D09064
:102A00005403E0905503F090560322EA3CEE42EF67
:102A100050E4C701B6010E94372A4B015C012FEE3A
:102A200039EB40E753E4C701B6010E9435289B010A
:102A3000AC01C501B4010E949D289B01AC0160E07E
:102A400070E080E291E40E949A2A22EE39EB43EC96
:102A500050E40E94372A4B015C0160932F0370936E
:102A6000300380933103909332038091FE02909162
:102A7000FF02A0910003B091010389839A83AB8385
:102A8000BC839C01AD01C501B4010E94372A2AE034
:102A900037ED43E25CE30E94372A6B017C016093CF
:102AA0002B0370932C0380932D0390932E0322EE1F
:102AB00039EB43EC50E40E949D280E94EC299B01D5
:102AC000AC0162EA7CEE82EF90E40E949D2820E057
:102AD00030E040E85FE30E9434289B01AC016FEED8
:102AE00079EB80E793E40E949D282B013C0120E0D4
:102AF00030E042E852EC0E94992887FD09C04092DC
:102B00002703509228036092290370922A030CC075
:102B100080E090E0A2E8B2EC809327039093280332
:102B2000A0932903B0932A0320912703309128030F
:102B30004091290350912A036AEE7DE385E19CE3ED
:102B40000E94342820E83DE048E85BE30E94372AF1
:102B50009B01AC016DE47EE984EA9FE30E94342886
:102B60000E94EA2A27EB38E241E95FE30E94342819
:102B700020E83DE048E05BE30E949D282B013C01FA
:102B800020E030E0A9010E94E82918164CF040929C
:102B90000F0350921003609211037092120308C049
:102BA00010920F031092100310921103109212034F
:102BB00040905F03509060036090610370906203E7
:102BC00020E030E048EC52E469817A818B819C817D
:102BD0000E94372AA30192010E949D289B01AC010B
:102BE000609313037093140380931503909316035B
:102BF000C501B4010E94372A2AE037ED43E25CE3C5
:102C00000E94372A22EE39EB43EC50E40E949D28C3
:102C10000E94EC299B01AC0162EA7CEE82EF90E419
:102C20000E949D2820E030E040E85FE30E943428C5
:102C30009B01AC016FEE79EB80E793E40E949D2845
:102C40009B01AC01609323037093240380932503BD
:102C5000909326036AEE7DE385E19CE30E9434288D
:102C600020E83DE048E85BE30E94372A9B01AC0185
:102C70006DE47EE984EA9FE30E9434280E94EA2AF8
:102C800027EB38E241E95FE30E94342820E83DE089
:102C900048E05BE30E949D284B015C0120E030E0AE
:102CA000A9010E94E82918164CF080921F03909207
:102CB0002003A0922103B092220308C010921F03A8
:102CC00010922003109221031092220320E034E29C
:102CD00044E759E4C701B6010E94372A4B015C0161
:102CE00020E030E040E251E4C301B2010E94372A03
:102CF000A70196010E9434289B01AC01C501B401D3
:102D00000E949D2860931B0370931C0380931D03F6
:102D100090931E032BE43FE140E951E40E94372ADF
:102D20002CE53FE042E153E40E949D2860931703A5
:102D3000709318038093190390931A030F900F90C8
:102D40000F900F90DF91CF91FF90EF90DF90CF9099
:102D5000BF90AF909F908F907F906F905F904F90BB
:102D600008950F931F93CF93DF9364E470E081EB9A
:102D700094E00E945B2064E281EB94E00E940120D9
:102D800060E081EB94E00E94012081EB94E00E94DE
:102D9000D02080937B0386E990E00E94742180918B
:102DA0007B0381117AC046E064E481EB94E00E94E9
:102DB000CE20C0E4D1E006E411E081EB94E00E9473
:102DC0007B1F89930C171D07C1F7C091420162E078
:102DD00080E491E00E94BC03C81721F088E580934D
:102DE0007B035BC0C091450162E083E491E00E94F7
:102DF000BC03C813F3CF6091400170E0762F6627C3
:102E000080914101680F711D7093F6026093F50285
:102E10008091430190E0982F882720914401EC0194
:102E2000C20FD11DD093F802C093F70280E090E06A
:102E30000E94362920E030E04FE253E40E94372A16
:102E400020E03FEF4FE757E40E949D2820E030E06C
:102E500044E352E40E9434286093FA027093FB0228
:102E60008093FC029093FD02BE0180E090E00E94FE
:102E7000362920E030E048EC52E40E94372A20E076
:102E80003FEF4FE757E40E949D2860930203709341
:102E900003038093040390930503DF91CF911F9167
:102EA0000F910895CF93DF936091000181EB94E03F
:102EB0000E94512060E581EB94E00E94012081EBAB
:102EC00094E00E94D02080935C01811173C044E0A3
:102ED0006091000181EB94E00E94CE20CAE4D1E031
:102EE00081EB94E00E947B1F899381E0CE34D80768
:102EF000B9F760914A016F7370E0762F6627809171
:102F00004B01682B7093F4026093F302665676408F
:102F100080E090E00E94362923E33AEF41ED5AE346
:102F20000E94372A20E030E040E85FE30E94342826
:102F300020E030E048EC52E40E94372A20E030E004
:102F400048EC52E40E9435286093E8017093E9014F
:102F50008093EA019093EB0160914C0188E0689FB7
:102F6000B001112480914D01829586958770682B60
:102F70007093F2026093F10280E090E00E943629A3
:102F800020E030E048E453E40E94372A20E030EEAD
:102F90004FEF54E40E949D2820E030E048E452E4E2
:102FA0000E9434286093E4017093E5018093E60168
:102FB0009093E70186E990E0DF91CF910C94742122
:102FC0004F925F926F927F928F929F92AF92BF9239
:102FD000CF92DF92EF92FF920F931F93E0915D01EA
:102FE0008E2F90E0FC013197EE30F10508F0CFC153
:102FF000EC5CFF4F0C941A2861E086E00E947B2273
:1030000082E0D1C083E0CFC04DDF84E0CCC085E05A
:1030100080935D018091D1019091D201A091D30163
:10302000B091D4018093800190938101A09382019B
:10303000B0938301ACC18091D1019091D201A09154
:10304000D301B091D40140918001509181016091F0
:10305000820170918301841B950BA60BB70B8536FB
:103060009105A105B10508F492C187E09CC079DE05
:1030700019C08091D1019091D201A091D301B0915A
:10308000D401409180015091810160918201709141
:103090008301841B950BA60BB70BC397A105B10544
:1030A00008F475C18AE07FC060E086E00E947B2260
:1030B00080915C01811122C080915B0181111EC051
:1030C00080915F0181111AC0E0900203F090030328
:1030D00000910403109105032091E4013091E50172
:1030E0004091E6015091E7016091E8017091E9019A
:1030F0008091EA019091EB010E94DB000E9468013F
:10310000E0900203F0900303009104031091050383
:103110002091E4013091E5014091E6015091E701F1
:103120006091E8017091E9018091EA019091EB01D1
:103130000E94CF038BE037C00E9442018CE033C075
:103140000E9478028091410290914202A091430234
:10315000B091440280935F0390936003A093610356
:10316000B09362038091450290914602A09147027C
:10317000B091480280935B0390935C03A0935D033E
:10318000B0935E038091490290914A02A0914B0254
:10319000B0914C028093570390935803A093590326
:1031A000B0935A038EE080935D01F1C0C0905F033D
:1031B000D0906003E0906103F09062032AE037ED65
:1031C00043E25CE3C701B6010E94372A4B015C0170
:1031D00060937303709374038093750390937603E5
:1031E0002DEC3CEC4CEC5DE30E94372A60936F03BE
:1031F00070937003809371039093720320E030E02A
:103200004AE754E4C701B6010E94372A60936B0372
:1032100070936C0380936D0390936E03C092770359
:10322000D0927803E0927903F0927A0327ED34E8A4
:1032300044E15EE3C701B6010E94372A6093670349
:10324000709368038093690390936A032DEC3CECC0
:103250004CEC5DE3C701B6010E94372A609363031B
:10326000709364038093650390936603C0905B033F
:10327000D0905C03E0905D03F0905E03C092530336
:10328000D0925403E0925503F092560323E333E9BE
:1032900048E853E4C701B6010E9435282B013C01E0
:1032A00060934F03709350038093510390935203A4
:1032B00026E636E646EE5FE3C701B6010E94372AEE
:1032C00020E030E040E052E40E94352860934B0358
:1032D00070934C0380934D0390934E03A30192018E
:1032E00063E373E982E993E40E949D28A5019401B8
:1032F0000E94372A6B017C01609341037093420363
:10330000809343039093440320E030E040E85FE380
:103310000E94342860933B0370933C0380933D03E9
:1033200090933E032DEC3CEC4CEC5DE3C701B60101
:103330000E94372A609337037093380380933903D0
:1033400090933A032DEC3CEC4CEC5DE30E94342866
:103350006093330370933403809335039093360363
:10336000A70196016091D7017091D8018091D90190
:103370009091DA010E94372A6093470370934803C3
:103380008093490390934A03E8DA10925D011F91FC
:103390000F91FF90EF90DF90CF90BF90AF909F90F4
:1033A0008F907F906F905F904F9008950F931F9331
:1033B0008091D1019091D201A091D301B091D4011B
:1033C0004091CD015091CE016091CF017091D0011B
:1033D0008C019D01041B150B260B370B09371105BA
:1033E0002105310570F08093CD019093CE01A0931B
:1033F000CF01B093D001E4DD8091D60181110E940C
:1034000050031F910F9108951AD76093D1017093C3
:10341000D2018093D3019093D40120917E01213079
:1034200071F422E020937E010FB6F894A8952091C4
:103430006000286120936000109260000FBE693B1D
:103440007B408105910538F080915E01811103C0B8
:1034500081E080935E0180915E01882349F00E94A3
:1034600066030E948B03A2DF81E893E00E94FF269F
:10347000A8950895FC0124853585F901E05CFF4F8E
:1034800080819181329620813181805C9F4F821BA7
:10349000930B60E470E00C94E527DC011C96ED9141
:1034A000FC911D97DF01A05CBF4F2D913C911197BE
:1034B00012968D919C9111972817390739F08D91AB
:1034C0009C91E80FF91F808190E008958FEF9FEFA6
:1034D0000895FC01A485B585FD01E05CFF4F2081C6
:1034E00031813296808191812817390779F0808166
:1034F0009181A80FB91F8C91208131812F5F3F4F9F
:103500002F7333273183208390E008958FEF9FEF4F
:103510000895FC0181A1882329F0A489B5898C91A3
:1035200086FFFBCF11A208950F931F93CF93DF93D4
:10353000FC01A685B7858D01005C1F4FE8018881DD
:10354000998101968F739927AD014E5B5F4FEA0118
:103550002881398182179307D1F3E80128813981C5
:10356000A20FB31F6C93A685B785A05CBF4F1196C1
:103570009C938E93A689B7892C9181E090E0078C6B
:1035800002C0880F991F0A94E2F7822B8C9381E086
:1035900081A30488F589E02D80818064808381E0A7
:1035A00090E0DF91CF911F910F91089508951F92A0
:1035B0000F920FB60F9211242F934F935F938F9317
:1035C0009F93EF93FF938091C00082FD1CC02091D8
:1035D000C600809134049091350401968F73992729
:1035E00040913604509137048417950771F0E091AB
:1035F0003404F0913504EC50FC4F20839093350453
:103600008093340402C08091C600FF91EF919F9196
:103610008F915F914F912F910F900FBE0F901F9040
:1036200018958EE893E026DF892B09F0BFCF089527
:103630001F920F920FB60F9211242F933F938F93E7
:103640009F93EF93FF932091F0033091F1038091CA
:10365000F2039091F3032817390731F48091C100E8
:103660008F7D8093C10014C0E091F203F091F303C9
:10367000E055FC4F20818091F2039091F303019675
:103680008F7399279093F3038093F2032093C600DE
:10369000FF91EF919F918F913F912F910F900FBECE
:1036A0000F901F901895CF92DF92EF92FF921F9389
:1036B000CF93DF93EC016A017B01122F4115514E2C
:1036C0006105710509F1EC89FD8981E090E008A0B0
:1036D00002C0880F991F0A94E2F7808360E079E0C6
:1036E0008DE390E0A70196010E94F827DA01C90155
:1036F0000197A109B109B695A795979587959C0162
:10370000211580E13807A8F0EC89FD89108260E876
:1037100074E88EE190E0A70196010E94F827DA0193
:10372000C9010197A109B109B695A7959795879504
:103730009C01E889F9893083EA89FB892083E88D37
:10374000F98D1083EE89FF89408181E090E09C0132
:103750000C8C02C0220F331F0A94E2F7242B208323
:10376000EE89FF8940819C010D8C02C0220F331F1E
:103770000A94E2F7242B2083EE89FF8940819C0183
:103780000E8C02C0220F331F0A94E2F7242B2083F1
:10379000EE89FF8920810F8C02C0880F991F0A943F
:1037A000E2F7809582238083DF91CF911F91FF9074
:1037B000EF90DF90CF900895EEE8F3E0138212824D
:1037C00088EE93E0A0E0B0E084839583A683B7837E
:1037D00083E291E09183808384EF93E095878487EF
:1037E00080EB93E09787868785EC90E0918B808BC8
:1037F00084EC90E0938B828B80EC90E0958B848BB3
:1038000081EC90E0978B868B82EC90E0918F808F9B
:1038100086EC90E0938F828F84E0848F83E0858FA5
:1038200087E0868F85E0878F81E080A308950895E3
:1038300065D5FDDF0E945906C1E1DBE1E5DD20979A
:10384000E9F3EFDEFBCFCF92DF92EF92FF920F937F
:103850001F93CF93DF936C01EB017B01E40EF51E08
:1038600000E010E0CE15DF0561F06991D601ED9121
:10387000FC910190F081E02DC6010995080F191FF8
:10388000F1CFC801DF91CF911F910F91FF90EF9081
:10389000DF90CF900895FC0144835583668377833E
:1038A0000895813039F018F0823051F00895109267
:1038B0006E00089580916F008D7F80936F00089552
:1038C000809170008D7F8093700081E08093B000C4
:1038D0008091B100887F84608093B1001092B30022
:1038E0000895CF93C82F80910401C81307C0E6E064
:1038F000F1E084919FEF9093040101C08FEFD1DF3D
:1039000060E08C2FCF91F7C51F920F920FB60F92E8
:1039100011242F933F934F935F936F937F938F93D4
:103920009F93AF93BF93EF93FF9380913B0490914C
:103930003C04A0913D04B0913E04892B8A2B8B2B33
:1039400051F190913804E0913904F0913A0480816A
:103950008927808380913B0490913C04A0913D0491
:10396000B0913E04181619061A061B06BCF4809185
:103970003B0490913C04A0913D04B0913E0401971A
:10398000A109B10980933B0490933C04A0933D04AA
:10399000B0933E0403C080910401A3DFFF91EF9137
:1039A000BF91AF919F918F917F916F915F914F9157
:1039B0003F912F910F900FBE0F901F90189510926E
:1039C000AC0481E08093AA041092A90461E082E132
:1039D00092D561E083E18FD5E9EBF0E080818E7FC5
:1039E000808380818D7F808388E48093B80085E424
:1039F0008093BC0008959B01AC0160E074E284EF09
:103A000090E00E94F827DA01C9014097A109B109A5
:103A1000B695A795979587958093B80008954132FC
:103A200008F043C09091AC049111FCCF91E09093C9
:103A3000AC042093AA042FEF20933F041092840437
:103A4000240F209383049093AB049091AB04880FD0
:103A5000892B8093AB048091A904813061F410928A
:103A6000A9048091AB048093BB008091BC0083FDCE
:103A7000F8CF85EC01C085EE8093BC008091AC044A
:103A80008130E1F380918404841710F44091840420
:103A9000A5E8B4E0962FFB018E2F891B841718F43C
:103AA0008D918193F9CF842F089580E008950F932D
:103AB000413208F04AC09091AC049111FCCF32E041
:103AC0003093AC040093AA043FEF30933F0410926C
:103AD000840440938304562FA5E8B4E0FB013E2FF5
:103AE000351B341718F431913D93F9CF1092AB0484
:103AF0003091AB04880F832B8093AB048091A90491
:103B0000813061F41092A9048091AB048093BB00D2
:103B10008091BC0083FDF8CF85EC01C085EE8093D9
:103B2000BC00222321F08091AC048230D1F380913B
:103B30003F048F3F79F080913F04803241F08091C3
:103B40003F04803331F094E005C091E003C092E07F
:103B500001C093E0892F0F91089540916104262FB1
:103B600030E0240F311D21323105DCF42091AC040A
:103B70002430C9F4FC0180E090E0861758F43091BD
:103B800061042191DC01AD59BB4FA30FB11D2C93F2
:103B90000196F3CF80916104680F6093610480E027
:103BA000089581E0089582E008959093A60480939B
:103BB000A50408959093A8048093A704089585ED23
:103BC0008093BC008091BC0084FDFCCF1092AC04BB
:103BD000089585EC8093BC001092AC0408951F9268
:103BE0000F920FB60F9211242F933F934F935F9331
:103BF0006F937F938F939F93AF93BF93EF93FF93B5
:103C00008091B900887F803609F49DC070F58832B4
:103C100009F45CC090F4803109F455C038F488236D
:103C200009F4F3C0883009F44EC0F2C0883109F4B9
:103C30004DC0803209F45EC0EBC0803409F469C025
:103C400050F4803309F456C0883309F0E1C0809302
:103C50003F04BFDFDDC0803509F44FC0883509F46B
:103C60005DC0883409F0D4C0D2C0883909F4C3C01B
:103C7000A8F4883709F467C038F4883609F463C0BB
:103C8000803709F460C0C4C0883809F4B4C08039F2
:103C900009F45FC0803809F0BBC05BC0803B09F409
:103CA00082C038F4803A09F466C0883A09F47BC0CF
:103CB000AFC0803C09F4A3C0883C09F4A0C0883B95
:103CC00009F486C0A5C08091AB0410C09091840413
:103CD00080918304981770F5E091840481E08E0F41
:103CE00080938404F0E0EB57FB4F80818093BB000E
:103CF00085EC82C080933F048AC0E091840481E017
:103D00008E0F809384048091BB00F0E0EB57FB4F53
:103D1000808390918404809183046AC0E09184043C
:103D200081E08E0F809384048091BB00F0E0EB571C
:103D3000FB4F80838091AA04811169C081E0809348
:103D4000A90484EA5DC083E08093AC04109240042F
:103D5000CFCF80914004803208F04DC0E091400404
:103D600081E08E0F809340048091BB00F0E0EF5B18
:103D7000FB4F8083BDCF2DDF80914004803230F433
:103D8000E0914004F0E0EF5BFB4F10826091400453
:103D900070E0E091A504F091A60481E494E0099517
:103DA0001092400435C084E08093AC041092620409
:103DB00010926104E091A704F091A8040995809104
:103DC0006104811105C081E0809361041092630455
:103DD000E091620481E08E0F80936204F0E0ED597F
:103DE000FB4F80818093BB009091620480916104BD
:103DF000981708F47DCF85E88093BC0009C085EC56
:103E00008093BC001092AC0403C010923F04D7DE34
:103E1000FF91EF91BF91AF919F918F917F916F91A2
:103E20005F914F913F912F910F900FBE0F901F9078
:103E300018951F920F920FB60F9211242F933F9354
:103E40004F935F936F937F938F939F93AF93BF93A2
:103E5000EF93FF938091AD049091AE04892B29F0EC
:103E6000E091AD04F091AE040995FF91EF91BF91FF
:103E7000AF919F918F917F916F915F914F913F9102
:103E80002F910F900FBE0F901F9018951F920F92B9
:103E90000FB60F9211242F933F934F935F936F931D
:103EA0007F938F939F93AF93BF93EF93FF938091F3
:103EB000AF049091B004892B29F0E091AF04F09108
:103EC000B0040995FF91EF91BF91AF919F918F91B0
:103ED0007F916F915F914F913F912F910F900FBE06
:103EE0000F901F9018958091E50490E02091E604D2
:103EF000821B910908959091E6048091E50498173A
:103F000050F4E92FF0E0E951FB4F208130E09F5F52
:103F10009093E60402C02FEF3FEFC9010895E091AE
:103F2000E6048091E504E81730F4F0E0E951FB4F36
:103F3000808190E008958FEF9FEF08950895CF93CB
:103F4000DF93EC01E091BD04F091BE043097F1F0F5
:103F50009091E6048091E5049817C0F090E0292F35
:103F600030E02617370754F4DE01A20FB31F4C913F
:103F7000D901A951BB4F4C939F5FF1CF1092E6043A
:103F80006093E504CB01DF91CF910994DF91CF914C
:103F90000895E091BF04F091C004309729F0109289
:103FA000C3041092C20409940895CF92DF92EF9255
:103FB000FF920F931F93CF93DF937C01CB018A0174
:103FC0002091C104222389F0EB016B01C40ED51EA0
:103FD000CC15DD0561F06991D701ED91FC9101905F
:103FE000F081E02DC7010995F3CF642FB6DDC8013C
:103FF000DF91CF911F910F91FF90EF90DF90CF90C5
:104000000895CF93DF931F92CDB7DEB769832091D8
:10401000C1042223D1F02091C204203240F021E0DB
:1040200030E0FC013383228380E090E014C0809173
:10403000C304E82FF0E0EC53FB4F998190838F5F2E
:104040008093C3048093C20404C061E0CE01019652
:1040500084DD81E090E00F90DF91CF910895FC0125
:104060001382128288EE93E0A0E0B0E0848395830F
:10407000A683B78383E391E09183808308951092B0
:10408000E6041092E5041092C3041092C20497DC77
:1040900089EC9FE18FDD8FE99FE187CDCB01BA01EC
:1040A000AACC81E08093C1046093E4041092C3041D
:1040B0001092C2040895F5CF0F93062F21E040918E
:1040C000C20464EC74E08091E404F1DC1092C30457
:1040D0001092C2041092C1040F9108954F925F9202
:1040E0006F927F92AF92BF92CF92EF92FF920F9317
:1040F0001F93CF93DF935C01F62ED42F2801390153
:10410000EE2011F1CEDFCE2DC43008F0C3E0C15057
:10411000C0F028E0C29FC0011124A301920104C095
:1041200056954795379527958A95D2F7CA01B901D3
:10413000D501ED91FC910190F081E02DC50109952B
:10414000E6CF60E0C501B8DF4D2FD13208F040E284
:104150002C2D67EE74E08F2D62DC1092E6048093C4
:10416000E504DF91CF911F910F91FF90EF90CF90D9
:10417000BF90AF907F906F905F904F900895CF92D7
:10418000EF920F931F93C22EE12C00E010E09801F4
:10419000A5DF1F910F91EF90CF90089521E0EFCF11
:1041A00061E08ACF81EB94E05ACF1F920F920FB655
:1041B0000F9211242F933F938F939F93AF93BF93AD
:1041C0008091080590910905A0910A05B0910B0511
:1041D0003091070523E0230F2D3720F40196A11D10
:1041E000B11D05C026E8230F0296A11DB11D209325
:1041F00007058093080590930905A0930A05B093DD
:104200000B0580910C0590910D05A0910E05B091C4
:104210000F050196A11DB11D80930C0590930D050E
:10422000A0930E05B0930F05BF91AF919F918F9111
:104230003F912F910F900FBE0F901F9018952FB7A1
:10424000F894609108057091090580910A05909194
:104250000B052FBF08953FB7F89480910C059091FE
:104260000D05A0910E05B0910F0526B5A89B05C0C0
:104270002F3F19F00196A11DB11D3FBFBA2FA92FE5
:10428000982F8827820F911DA11DB11DBC01CD0162
:1042900042E0660F771F881F991F4A95D1F708954E
:1042A000CF92DF92EF92FF92CF93DF936B017C016D
:1042B000D2DFEB01C114D104E104F10471F0CBDFD2
:1042C0006C1B7D0B683E7340A8F381E0C81AD108CF
:1042D000E108F108C851DC4FEDCFDF91CF91FF909D
:1042E000EF90DF90CF900895019739F0880F991FD4
:1042F000880F991F02970197F1F70895789484B574
:10430000826084BD84B5816084BD85B5826085BDD1
:1043100085B5816085BDEEE6F0E0808181608083B7
:10432000E1E8F0E01082808182608083808181609A
:104330008083E0E8F0E0808181608083E1EBF0E061
:10434000808184608083E0EBF0E080818160808305
:10435000EAE7F0E0808184608083808182608083EE
:104360008081816080838081806880831092C10019
:1043700008951F93CF93DF93182FEB0161E07FD057
:10438000209711F460E004C0CF3FD10531F461E023
:10439000812FDF91CF911F91AEC0E12FF0E0E95F57
:1043A000FE4FE491E330F9F048F4E130B9F0E23047
:1043B000A1F584B5806284BDC8BD34C0E630E9F0A3
:1043C000E73019F1E43049F58091800080628093F4
:1043D0008000D0938B00C0938A0024C084B580688D
:1043E00084BDC7BD1FC0809180008068809380001D
:1043F000D0938900C093880015C08091B000806878
:104400008093B000C093B3000DC08091B000806273
:104410008093B000C093B40005C0C038D1050CF043
:10442000B6CFB0CFDF91CF911F910895833081F047
:1044300028F4813099F08230A1F008958630A9F0F7
:104440008730B9F08430D1F4809180008F7D03C033
:10445000809180008F7780938000089584B58F7756
:1044600002C084B58F7D84BD08958091B0008F77A0
:1044700003C08091B0008F7D8093B0000895CF93EA
:10448000DF9390E0FC01E55EFE4F2491FC01E15DCD
:10449000FE4F8491882361F190E0880F991FFC0101
:1044A000E35BFE4FC591D491FC01ED5BFE4FA591FE
:1044B000B491611109C09FB7F89488812095822337
:1044C0008883EC912E230BC0623061F49FB7F8947F
:1044D0008881322F309583238883EC912E2B2C9367
:1044E0009FBF06C08FB7F894E8812E2B28838FBF1B
:1044F000DF91CF9108951F93CF93DF93282F30E062
:10450000F901E95FFE4F8491F901E55EFE4FD49118
:10451000F901E15DFE4FC491CC23B9F0162F811152
:1045200085DFEC2FF0E0EE0FFF1FED5BFE4FA59156
:10453000B4919FB7F894111104C08C91D095D823F1
:1045400002C0EC91DE2BDC939FBFDF91CF911F91D6
:1045500008951F920F920FB60F9211242F933F933D
:104560004F935F936F937F938F939F93AF93BF937B
:10457000CF93DF93EF93FF9390913005A0912F0598
:10458000209188003091890080911405482F50E0D7
:10459000C0916405D0916505B0912E05E92FF0E03A
:1045A0004E175F07ECF02C0F3D1FEA2FE170A69528
:1045B0009F5FEB1799F380918000EE2311F0806CE0
:1045C00002C08F7B806880938000309389002093A5
:1045D0008800E0932E05A0932F05909330058FC09F
:1045E00090911205911105C0EA012196EC17FD0783
:1045F00029F0EA012296EC17FD07A1F48D5F809364
:10460000300580918000806C80938000609113055C
:104610004091640550916505649FC001659F900DB0
:10462000112467C04F5F5F4FE417F507C9F48E5F31
:104630008093300580911505B81709F456C088237A
:1046400021F080918000806C04C0809180008F7B7D
:104650008068809380008091150580932E0545C069
:1046600080912D05E0912C058E130DC01092300520
:10467000809180008F738093800080916F008D7F88
:1046800080936F003CC081E080933005EF5FE431A0
:1046900008F0E0E0E0932C05F0E0EA5EFA4F80815C
:1046A00080932F0510922E059923C9F0082E82952C
:1046B0008025082E8695869580258F5F81FB66274D
:1046C00060F970E041E050E0923011F040E050E0DD
:1046D00081E06417750709F080E0809315058091EB
:1046E00080008F7B8068809380008091640590912A
:1046F0006505280F391F3093890020938800FF91AA
:10470000EF91DF91CF91BF91AF919F918F917F9169
:104710006F915F914F913F912F910F900FBE0F902E
:104720001F9018951F920F920FB60F9211241F938E
:104730002F933F934F935F936F937F938F939F93A9
:10474000AF93BF93CF93DF93EF93FF9320918600B6
:10475000309187009091610580918100992331F01B
:104760008F7B809381001092610506C080648093E6
:10477000810080E88093610580916305811123C0E9
:1047800091119AC080915D0590915E05820F931FF3
:1047900090938B0080938A0084E086BB80916F00A9
:1047A000846080936F008091640590916505280F67
:1047B000391F96958795280F391F309360052093F0
:1047C0005F0581E074C040915F0550916005C09124
:1047D00014057091610590916205A0916405B091F6
:1047E0006505D091110510911005241B350B37FD7F
:1047F00058C0882321F0C81710F09695972B4A0FC0
:104800005B1F8F5F8D1708F446C0909362058091FF
:104810006F008B7F80936F00909112059923F9F0C0
:1048200080916205082E82958025082E86958695B2
:1048300080258F5F81FBEE27E0F9F0E021E030E09A
:10484000923011F020E030E081E090E0E217F307D1
:1048500011F080E090E070E08617970791F4809166
:104860005C058F5F883230F590915B05891749F0C0
:10487000E82FF0E090916205EF5CFA4F908380930F
:104880005C05809181008F7B80938100109261058F
:104890001092630511C0811708F4672F2A1B3B0B88
:1048A000A6CF909362055093600540935F05809377
:1048B000630502C080E0D8CFFF91EF91DF91CF91E7
:1048C000BF91AF919F918F917F916F915F914F9128
:1048D0003F912F911F910F900FBE0F901F90189531
:1048E0001F920F920FB60F9211242F934F935F9345
:1048F0006F937F938F939F93EF93FF9380916F00BC
:104900008B7F80936F00809181008F7B80938100EB
:10491000809163052091610520584091140550E075
:1049200090916205682F70E04617570724F096951E
:10493000922B8F5FF7CF9093620580915C058F5F1C
:10494000883208F080E020915B05821739F0E82F6B
:10495000F0E0EF5CFA4F908380935C051092630562
:10496000809181008F7B8093810010926105FF917F
:10497000EF919F918F917F916F915F914F912F91C7
:104980000F900FBE0F901F9018950F931F93CF930A
:10499000DF93EC0140E855E260E070E08EE893E0E0
:1049A0000E94531BE1ECF0E08081806480831E83D1
:1049B0000D8384E080936605DF91CF911F910F9165
:1049C00008958FEF9FEF4217A8F4FB01E40FF11D4C
:1049D0003081832738E0FC01E170FF2796958795A9
:1049E000EF2B21F051E0852750EA9527315099F7B8
:1049F0004F5FE9CF98278927982708951F93CF9372
:104A0000DF93EB01142F242F40E0DBDFFE01E10FE9
:104A1000F11D90831F5FC10FD11D8883DF91CF915E
:104A20001F910895FB0141814330A9F0463029F0E0
:104A3000403189F081E090E00895228130E0322F0A
:104A400022274381240F311DFC018581968128177F
:104A5000390718F528C0248130E0322F22275581EC
:104A6000250F311D433021F0403111F040E001C0ED
:104A70004EE021153105A1F050E04217530780F0B8
:104A8000228130E0322F22274381240F311DFC0187
:104A9000858196818217930730F482E090E0089533
:104AA00083E090E0089580E090E00895FC01748335
:104AB000638308950F931F93CF93DF93DB01BA01B4
:104AC000A9019801EC01EB81FC81CD01DF91CF912F
:104AD0001F910F9109946F927F928F929F92AF9244
:104AE000BF92CF92DF92EF92FF920F931F93CF93DB
:104AF000DF935C014B016A0139017A01C0E0D0E02B
:104B000082E0E80EF11CF601858190E0C817D90714
:104B100088F4F701058110E0102F00278681082B0B
:104B2000AE01480D591D21E030E0B301C501C2DFDF
:104B30002196E6CFCE01DF91CF911F910F91FF908B
:104B4000EF90DF90CF90BF90AF909F908F907F902D
:104B50006F9008951F920F920FB60F9211245A98DA
:104B60000F900FBE0F901F901895EF92FF920F932A
:104B70001F93CF93DF938091C00080648093C00027
:104B80008FB7F8945A9A8FBFEB01042F10E07B0186
:104B9000E00EF11ECE15DF0531F069918EE893E04D
:104BA0000E94941AF7CFC801DF91CF911F910F9106
:104BB000FF90EF900895EF92FF920F931F93CF9382
:104BC0008C017B01C42F1ADF42E04C0FB701C801F2
:104BD000CF911F910F91FF90EF90C7CFCF92DF92AF
:104BE000EF92FF920F931F93CF93DF93CDB7DEB772
:104BF00028970FB6F894DEBF0FBECDBF6C01842F8F
:104C0000752FA801698390E19A837B838C831D8231
:104C10002E839701682FC6015EDF892B39F046E0AD
:104C2000BE016F5F7F4FC601C6DF02C080E090E02B
:104C300028960FB6F894DEBF0FBECDBFDF91CF919F
:104C40001F910F91FF90EF90DF90CF900895EF921A
:104C5000FF920F931F93CF93DF93CDB7DEB72897C3
:104C60000FB6F894DEBF0FBECDBF7C01C801F901BD
:104C700004811581102701271027698326E02A83E4
:104C80005B834C831D830E8321E030E0BC01C701B0
:104C900011DF46E0BE016F5F7F4FC7018CDF2896B2
:104CA0000FB6F894DEBF0FBECDBFDF91CF911F913D
:104CB0000F91FF90EF900895AF92BF92CF92DF9245
:104CC000EF92FF920F931F93CF93DF93CDB7DEB791
:104CD000A8970FB6F894DEBF0FBECDBF6C01580188
:104CE000698383E08A83822F880F8B83E22EF12CE5
:104CF00000E010E09701B501C601DCDED501FE0140
:104D0000319680E090E0BF0132968E159F0548F401
:104D10002C9111963C911197129631832283019622
:104D2000F3CFA701440F551F4D5F5F4FC60143DF0F
:104D3000A8960FB6F894DEBF0FBECDBFDF91CF911E
:104D40001F910F91FF90EF90DF90CF90BF90AF90A9
:104D500008950F931F93CF93DF938B01C0E0D0E0B2
:104D60008EE893E00E943A1A892B71F08EE893E066
:104D70000E94691AF80181938F012196C632D105EC
:104D800079F78FEF9FEF01C0CE01DF91CF911F9197
:104D90000F910895DF92EF92FF920F931F93CF939D
:104DA000DF937C01D62E8A01BA01D3DFEC011816FD
:104DB0001906CCF4282F225040E0B801C70101DECB
:104DC000A8014C0F5D1FFA013297208130E0322F8D
:104DD000222731964081242B8217930731F4F80162
:104DE00080818D1102C0CE0102C08FEF9FEFDF9155
:104DF000CF911F910F91FF90EF90DF9008958F92C8
:104E00009F92AF92BF92CF92DF92EF92FF920F9359
:104E10001F93CF93DF93CDB7DEB7CC57D1090FB631
:104E2000F894DEBF0FBECDBF6C018EE893E00E9408
:104E30003A1A5C01892B21F4F6011486138687C087
:104E4000FED92BB1122F147022FD81C0F6012385EB
:104E50003485A216B30639F0B486A38667837087BB
:104E60008187928775C0F60187809084A184B2847F
:104E7000DC01CB0188199909AA09BB098090660554
:104E8000912CA12CB12C88159905AA05BB0508F415
:104E90005FC014861386AE014B5A5F4F6081C60116
:104EA00079DF181619060CF050C0482FBE016B5A56
:104EB0007F4FC601B7DD9C0167969FAD67972115AF
:104EC000310571F0122FF6018081898390589A8301
:104ED0002B8343E0BE016F5F7F4FC6016CDE38C09D
:104EE00068964FAD689750E0542F442769968FAD70
:104EF0006997480F511DF60192839630E1F0903189
:104F000061F0933029F58E010F5F1F4F6B962FAD27
:104F10006B976081C601D0DE18C0CE0101967C017E
:104F20008E010B5A1F4F6B962FAD6B97F601608168
:104F3000C60154DE0AC08E010F5F1F4F9E012B5A1F
:104F40003F4FF6016081C60182DE182F01C010E0DC
:104F5000812FC458DF4F0FB6F894DEBF0FBECDBF10
:104F6000DF91CF911F910F91FF90EF90DF90CF9045
:104F7000BF90AF909F908F90089508951F920F92C9
:104F80000FB60F9211242F933F934F935F936F931C
:104F90007F938F939F93AF93BF93EF93FF93E09192
:104FA0000501F09106010995FF91EF91BF91AF9135
:104FB0009F918F917F916F915F914F913F912F9131
:104FC0000F900FBE0F901F90189597FB072E16F4A9
:104FD000009406D077FD08D033D007FC05D03EF40E
:104FE000909581959F4F0895709561957F4F089595
:104FF000A1E21A2EAA1BBB1BFD010DC0AA1FBB1FDD
:10500000EE1FFF1FA217B307E407F50720F0A21B4E
:10501000B30BE40BF50B661F771F881F991F1A94BB
:1050200069F760957095809590959B01AC01BD01E5
:10503000CF010895EE0FFF1F0590F491E02D099424
:10504000AA1BBB1B51E107C0AA1FBB1FA617B707AE
:1050500010F0A61BB70B881F991F5A95A9F78095CA
:105060009095BC01CD0108955058BB27AA270ED0BA
:1050700075C166D130F06BD120F031F49F3F11F44F
:105080001EF45BC10EF4E095E7FB51C1E92F77D127
:1050900080F3BA17620773078407950718F071F455
:1050A0009EF58FC10EF4E0950B2EBA2FA02D0B01AB
:1050B000B90190010C01CA01A0011124FF27591B5D
:1050C00099F0593F50F4503E68F11A16F040A22F63
:1050D000232F342F4427585FF3CF469537952795D4
:1050E000A795F0405395C9F77EF41F16BA0B620BD3
:1050F000730B840BBAF09150A1F0FF0FBB1F661F1A
:10510000771F881FC2F70EC0BA0F621F731F841F5C
:1051100048F4879577956795B795F7959E3F08F082
:10512000B3CF9395880F08F09927EE0F9795879541
:105130000895D9D008F481E008950CD00FC107D1AB
:1051400040F0FED030F021F45F3F19F0F0C0511173
:1051500039C1F3C014D198F39923C9F35523B1F39E
:10516000951B550BBB27AA2762177307840738F0D6
:105170009F5F5F4F220F331F441FAA1FA9F333D035
:105180000E2E3AF0E0E830D091505040E695001CE9
:10519000CAF729D0FE2F27D0660F771F881FBB1FA5
:1051A000261737074807AB07B0E809F0BB0B802D7F
:1051B000BF01FF2793585F4F2AF09E3F510568F0CB
:1051C000B6C000C15F3FECF3983EDCF3869577955F
:1051D0006795B795F7959F5FC9F7880F911D9695CD
:1051E000879597F90895E1E0660F771F881FBB1F29
:1051F000621773078407BA0720F0621B730B840BD6
:10520000BA0BEE1F88F7E095089504D06894B111A9
:10521000D9C00895BCD088F09F5790F0B92F992736
:10522000B751A0F0D1F0660F771F881F991F1AF0B1
:10523000BA95C9F712C0B13081F0C3D0B1E008957A
:10524000C0C0672F782F8827B85F39F0B93FCCF3FB
:10525000869577956795B395D9F73EF490958095A7
:10526000709561957F4F8F4F9F4F0895E89409C0C7
:1052700097FB3EF490958095709561957F4F8F4F89
:105280009F4F9923A9F0F92F96E9BB279395F6959F
:10529000879577956795B795F111F8CFFAF4BB0F1D
:1052A00011F460FF1BC06F5F7F4F8F4F9F4F16C081
:1052B000882311F096E911C0772321F09EE8872F0B
:1052C000762F05C0662371F096E8862F70E060E0C7
:1052D0002AF09A95660F771F881FDAF7880F969540
:1052E000879597F90895990F0008550FAA0BE0E8E4
:1052F000FEEF16161706E807F907C0F01216130698
:10530000E407F50798F0621B730B840B950B39F4D7
:105310000A2661F0232B242B252B21F408950A263D
:1053200009F4A140A6958FEF811D811D089597F97D
:105330009F6780E870E060E008959FEF80EC08953B
:1053400000240A9416161706180609060895002464
:105350000A9412161306140605060895092E0394DE
:10536000000C11F4882352F0BB0F40F4BF2B11F452
:1053700060FF04C06F5F7F4F8F4F9F4F089557FDB1
:105380009058440F551F59F05F3F71F04795880FB3
:1053900097FB991F61F09F3F79F08795089512164A
:1053A00013061406551FF2CF4695F1DF08C01616F6
:1053B00017061806991FF1CF8695710561050894A7
:1053C0000895E894BB2766277727CB0197F90895BE
:1053D0008ADF08F48FEF08950AD029ED3BE54EED02
:1053E0005EE345C00EF065C1A8CF6894A0CFCFDFC3
:1053F000C8F39923D1F3C6F3DF93CF931F930F9391
:10540000FF92C92FDD2788232AF02197660F771F87
:10541000881FDAF720E030E040E85FEB9FE388394F
:1054200020F0803E30F021968F771FDEE4E8F0E038
:1054300003C01BDEE1EBF0E051D18B01BE01EC01BA
:10544000FB2E6F5771097595771F880B990B10DF2D
:1054500028E132E741E35FE316D0AF2D9801AE01BA
:10546000FF900F911F91CF91DF9110DE77CF0BD07E
:1054700075CF66DF28F06BDF18F0952309F057CF62
:105480005CCF11249FCF7BDFA0F3959FD1F3950FC5
:1054900050E0551F629FF001729FBB27F00DB11DB8
:1054A000639FAA27F00DB11DAA1F649F6627B00D48
:1054B000A11D661F829F2227B00DA11D621F739F31
:1054C000B00DA11D621F839FA00D611D221F749F3F
:1054D0003327A00D611D231F849F600D211D822F86
:1054E000762F6A2F11249F5750408AF0E1F08823CD
:1054F0004AF0EE0FFF1FBB1F661F771F881F9150DA
:105500005040A9F79E3F510570F011CF5BCF5F3F30
:10551000ECF3983EDCF3869577956795B795F7950C
:10552000E7959F5FC1F7FE2B880F911D9695879594
:1055300097F90895FA01EE0FFF1F30962105310506
:1055400099F16115710561F48038BFE39B0749F15A
:1055500068949038810561F08038BFEF9B0741F077
:10556000992342F5FF3FE1053105210511F1E8944A
:105570000894E795D901AA2329F4AB2FBE2FF85F31
:10558000D0F310C0FF5F70F4A695E0F7F73950F044
:1055900019F0FF3A38F49F779F930CD00F9007FCD7
:1055A000905808953EF0C9CE60E070E080E89FE337
:1055B00008954FE79F775F934F933F932F9317DFA4
:1055C0002F913F914F915F9152DF47C011F40EF43C
:1055D000B4CE6FC0DCDED0F39923D9F3CEF39F575E
:1055E000550B87FF74D00024A0E640EA9001805854
:1055F0005695979528F4805C660F771F881F20F0DA
:1056000026173707480730F4621B730B840B2029D9
:1056100031294A2BA69517940794202531254A272E
:1056200058F7660F771F881F20F02617370748079F
:1056300030F4620B730B840B200D311D411DA095BE
:1056400081F7B901842F9158880F96958795089511
:1056500019F40EF06CCEB5CE70CE99DEC8F3963844
:10566000C0F707F80F92E8942BE33AEA48EB5FE7BC
:105670000CDF0F920F920F924DB75EB70F9290D042
:10568000EEEDF0E02BD04F915F91EF91FF91E5951A
:10569000EE1FFF1F49F0FE57E0684427EE0F441F3E
:1056A000FA95E1F74195550B47D00F9007FE3BC0A7
:1056B00008959F3F31F0915020F487957795679535
:1056C000B795880F911D9695879597F908959150F4
:1056D0005040660F771F881FD2F70895DF93CF934E
:1056E0001F930F93FF92EF92DF927B018C016894DE
:1056F00005C0DA2EEF01C7DEFE01E894A5912591E1
:10570000359145915591AEF3EF01C0DCFE01970153
:10571000A801DA9479F7DF90EF90FF900F911F9135
:10572000CF91DF9108959B01AC0160E070E080E8CB
:105730009FE303CDFCCDBDCF2ADEE8F39923D9F357
:10574000940F511DBBF39150504094F059F08823B1
:1057500032F0660F771F881F91505040C1F79E3F6F
:10576000510544F7880F911D9695879597F90895EF
:105770005F3FACF0983E9CF0BB2786957795679588
:10578000B79508F4B1609395C1F7BB0F58F711F4C2
:1057900060FFE8CF6F5F7F4F8F4F9F4FE3CF12CEF9
:1057A000FA01DC01AA0FBB1F9B01AC01BF5728F413
:1057B00022273327442750781FC0B75188F4AB2FD6
:1057C0000024469537952795011CA395D2F3002018
:1057D00069F0220F331F441FB395DAF30DD044CC88
:1057E00061307105A0E88A07B94630F49B01AC012D
:1057F0006627772788279078309621F02083318399
:10580000428353830895F999FECF92BD81BDF89AE2
:10581000992780B50895262FF999FECF1FBA92BD1A
:1058200081BD20BD0FB6F894FA9AF99A0FBE019681
:065830000895F894FFCF7B
:1058360028073F01FFBD270000003F0000003F0092
:1058460000003F8FC2F53C8FC2F53C8FC2F53C008D
:10585600000000941A231C3A1A691A4D1A891A0074
:105866000000000120D51F731F7B1F8F1F9E1F0086
:00000001FF
