S0100000444D2D3931302D782E7372656317
S1130000ADC000000C94D7180C940419CFC00000A4
S1130010CDC00000CBC00000C9C000000C94421643
S1130020C5C00000C3C000000C94F31C0C940A1C4F
S11300300C94D11D0C942B21B9C00000B7C0000052
S11300400C94931AB3C000000C9496140C94D71417
S11300500C940B1FABC00000A9C00000A7C0000097
S11300600C94AD17A3C00000BA11C011C211C51180
S1130070D911981304121F120612211269126D125B
S11300809813A31208000000BE922449123EABAAA2
S1130090AA2ABECDCCCC4C3E00000080BEABAAAA9E
S11300A0AA3E00000000BF000000803F00000000E6
S11300B000084178D3BB4387D1133D190E3CC3BD1F
S11300C04282AD2B3E68EC8276BED98FE1A93E4CCC
S11300D080EFFFBE01C4FF7F3F0000000000076304
S11300E04236B79BD8A71A39685618AEBAAB558CA6
S11300F01D3CB7CC5763BD6DEDFD753EF6177231EF
S1130100BF000000803F0200000007000201000061
S113011003040600000000000000000102040810AF
S11301202040800102040810200102040810200469
S1130130040404040404040202020202020303038A
S113014003030300000000250028002B000000002A
S113015000240027002A00009B15901A11241FBEBA
S1130160CFEFD8E0DEBFCDBF11E0A0E0B1E0E0E129
S1130170FBE402C005900D92A035B107D9F725E044
S1130180A0E5B1E001C01D92A033B207E1F710E091
S1130190CEEAD0E004C02197FE010E948721CC3A28
S11301A0D107C9F70E94D7150C94862529CF0C9442
S11301B070250C947825CF92DF92EF92FF920F93E3
S11301C01F93CF93DF93E1E0E0936F01E8E2F2E065
S11301D0C8E8D2E0A8E5CA2EA2E0DA2E61937193B2
S11301E0819391932993399349935993D601ED922D
S11301F0FD920D931D936D01B2E0EC33FB0771F793
S1130200E3EBF1E0ABECB1E06193719381939193F3
S1130210AE17BF07C9F7EFECF1E0A7EEB1E0219309
S1130220319341935193AE17BF07C9F7EBEEF1E059
S1130230A3E0B2E0E192F19201931193AE17BF07EC
S1130240C9F7609308027093090280930A0290939D
S11302500B0220930C0230930D0240930E02509334
S11302600F02E0921002F092110200931202109316
S11302701302DF91CF911F910F91FF90EF90DF90C8
S1130280CF900895809107028F5F863018F4809391
S1130290070202C01092070220910702A8E1B2E00F
S11302A084E0289F9001112480E090E04D915D91BD
S11302B06D917D91FC01E20FF31FED54FE4F4083DD
S11302C05183628373834C968435910579F708953D
S11302D08F929F92AF92BF92CF92DF92EF92FF9252
S11302E080916A018111EEC0C090D102D090D202F7
S11302F0E090D302F090D40220E030E0A901C701DD
S1130300B6010E94062287FF09C0809143039091A1
S113031044038160909344038093430320E030E4DA
S11303204CE955E4C701B6010E94552318164CF454
S1130330809143039091440382609093440380939B
S1130340430320E030E44CE156E4C701B6010E94C7
S11303505523181654F020E030E048EC52ECC70165
S1130360B6010E94062287FF09C080914303909141
S1130370440384609093440380934303C090CD026C
S1130380D090CE02E090CF02F090D00220E030E096
S113039040E752ECC701B6010E94062287FF09C05C
S11303A08091430390914403886090934403809325
S11303B0430320E030E040EA52E4C701B6010E9462
S11303C0552318164CF480914303909144038061A3
S11303D09093440380934303C0900E03D0900F0383
S11303E0E0901003F090110360910D0370E080E041
S11303F090E00E94A522A70196010E94062287FF91
S113040009C0809143039091440380649093440312
S11304108093430360910C0370E080E090E00E94BD
S1130420A5229B01AC01C701B6010E9455231816F1
S11304304CF4809143039091440380689093440367
S1130440809343036091070370E080E090E00E9492
S1130450A5224B015C01C0900803D0900903E090F1
S11304600A03F0900B03A70196010E945523181666
S11304704CF4809143039091440398609093440317
S113048080934303A7019601C501B4010E9406228B
S113049087FF18C06091060370E080E090E00E943E
S11304A0A5229B01AC01C701B6010E94062287FF69
S11304B009C0809143039091440390619093440355
S11304C0809343038091C002882349F080914303C1
S11304D09091440390629093440380934303FF906C
S11304E0EF90DF90CF90BF90AF909F908F90089542
S11304F02F923F924F925F926F927F928F929F9230
S1130500AF92BF92CF92DF92EF92FF920F931F931D
S1130510CF93DF93CDB7DEB728970FB6F894DEBF3D
S11305200FBECDBF88E192E09A838983E8E0F2E0D0
S1130530F887EF8384E291E09C838B83E8E1F1E028
S1130540FE83ED8333EB232E31E0332EE12CF12CAB
S1130550612C80E5782E93EC892E27E4922EA12C31
S1130560B12C0AE714ECF101EE0DFF1D5080C1809F
S1130570D28043809501A801652D7C2D8D2D942D6D
S11305800E945523181624F4A52CBC2C0D2D142DD3
S11305909301A401652D7C2D8D2D942D0E9406229E
S11305A087FF04C0652C7C2C8D2C942CF4E0EF0E7A
S11305B0F11C24E1E216F104B1F6EF81F885C08064
S11305C0D180E280F38024EA30E74DE75FE3B301B2
S11305D0C4010E94A423A70196010E94062287FF5A
S11305E011C02EEA37E441E85FE3B501C8010E9477
S11305F0A423A70196010E94552318161CF4EB812D
S1130600FC8102C0ED81FE8180809180A280B38054
S1130610E981FA816191719181919191FA83E983E0
S1130620A70196010E94A121A50194010E94A4237F
S1130630A70196010E94A221EF81F885619371932D
S113064081939193F887EF838B819C8104969C839B
S11306508B83ED81FE813496FE83ED83FCE12F0EC6
S1130660311C89819A818452924009F06FCF289677
S11306700FB6F894DEBF0FBECDBFDF91CF911F91AF
S11306800F91FF90EF90DF90CF90BF90AF909F902D
S11306908F907F906F905F904F903F902F90089530
S11306A00FB6F894A89580916000886180936000EB
S11306B0109260000FBE98E088E10FB6F894A895F8
S11306C0809360000FBE90936000FFCF409198012B
S11306D05091990160919A0170919B018091490315
S11306E090914A03A0914B03B0914C03481B590BC2
S11306F06A0B7B0B8091030190910401A0E0B0E0B0
S113070084179507A607B70758F498E088E10FB651
S1130710F894A895809360000FBE90936000FFCF7B
S113072008950F931F938091980190919901A0913E
S11307309A01B0919B014091900150919101609177
S11307409201709193018C019D01041B150B260BE2
S1130750370BB901A801453F514061057105C0F04F
S11307608093900190939101A0939201B09393018F
S113077080916B01811103C081E080936B018091B2
S11307806C0190916D01019690936D0180936C01C1
S11307901F910F910895FC018FEF21E3662369F007
S11307A09191892798E087FF03C0880F822701C0B1
S11307B0880F9150C1F76150F1CF08952F923F9265
S11307C04F925F926F927F928F929F92AF92BF925D
S11307D0CF92DF92EF92FF920F931F93CF93DF9309
S11307E0A091D502E4E0AE9FE0011124FE01E85D92
S11307F0FD4F6083718382839383FE01E857FD4F2D
S11308002083318342835383FE01E85AFD4FE08203
S1130810F1820283138381E08A0F853018F4809378
S1130820D50202C01092D502C8E2D2E008E812E074
S113083088E5282E82E0382EC12CD12C7601460181
S11308405701260137012991399149915991C301E1
S1130850B2010E94A2212B013C01F80121913191A6
S1130860419151918F01C501B4010E94A2214B0114
S11308705C01F10121913191419151911F01C70115
S1130880B6010E94A2216B017C01F2E0CC33DF07A8
S1130890D1F62DEC3CEC4CE45EE3C301B2010E94C2
S11308A0A423609318027093190280931A02909300
S11308B01B022DEC3CEC4CE45EE3C501B4010E9448
S11308C0A42360931C0270931D0280931E029093D4
S11308D01F022DEC3CEC4CE45EE3C701B6010E9420
S11308E0A4236093200270932102809322029093A8
S11308F02302DF91CF911F910F91FF90EF90DF9032
S1130900CF90BF90AF909F908F907F906F905F90AB
S11309104F903F902F9008950F931F93E091A6015D
S1130920E150E73050F4F0E0EE0FFF1FE65FFE4FBA
S11309304081518160E070E004C040E855E260E02D
S113094070E08091A501813011F026E001C026E21B
S113095030E009EE13E086E493E00E94261E6CEA80
S113096076E086E493E00E94B71E809106018093AE
S113097046031F910F910895CF93DF9300D000D0C9
S1130980CDB7DEB769837A838B839C8350E0440FB1
S1130990551FFE01E40FF51F828190E0982F8827F0
S11309A0FE01E40FF51F2181822B0F900F900F9011
S11309B00F90DF91CF9108951F93CF93DF93162F5C
S11309C0C82FD0E0CE01F3DB811731F08F3F21F443
S11309D0612FCE01EEDB812FDF91CF911F9108951E
S11309E07F928F929F92AF92BF92CF92DF92EF92BB
S11309F0FF920F931F93CF93DF9300D000D0CDB716
S1130A00DEB77A018B016C015E0185E0A80EB11C92
S1130A10FE0131964F01712CC601C9DBF5018293A9
S1130A205F01C601C4DB8F3F09F47394FFEFCF1A53
S1130A30DF0AA814B90481F784E0781629F0498103
S1130A405A813B812C8103C0A701302F212FBA0189
S1130A50832F922F0F900F900F900F90DF91CF91D3
S1130A601F910F91FF90EF90DF90CF90BF90AF90C8
S1130A709F908F907F900895FF920F931F93CF9331
S1130A80DF938C01F62ED72F92DBC82FC801019675
S1130A908EDBCF3F29F48F3F19F48F2D9D2F02C099
S1130AA08C2B90E0DF91CF911F910F91FF900895CF
S1130AB01F93CF93DF93EC01172F7BDB612FCE01C4
S1130AC00196DF91CF911F9174CB0F931F93CF9316
S1130AD0DF938C016CDBC82FC801019668DBD0E082
S1130AE0D82BCF3F8FEFD80711F4C0E0D0E0C80176
S1130AF002965DDB811102C0CE0104C088279927CC
S1130B008C1B9D0BDF91CF911F910F910895CF9274
S1130B10DF92EF92FF9261E084E64EDF809306015C
S1130B2063E085E649DF8093A60160E086E644DF62
S1130B308093A50169E672E088E690E09DDF9093DA
S1130B40A3018093A20160E089E636DF8093A401CB
S1130B506AEA7AEA8AE690E08FDF9093AA018093AA
S1130B60A9016AEA7AEA8CE690E086DF9093A8010C
S1130B708093A70160E080E71FDF8093050160E0B8
S1130B8081E71ADF80938A014BEC51EA65EC70E44B
S1130B9082E890E025DF60939E0170939F0180932B
S1130BA0A0019093A10165E886E806DF80930D0318
S1130BB060E587E801DF80930C036CE388E8FCDEE2
S1130BC08093060362E389E8F7DE809307038AE8EB
S1130BD090E07BDFBC01990F880B990B0E94A52242
S1130BE02DEC3CEC4CEC5DE30E94A4236093860165
S1130BF07093870180938801909389018DE890E038
S1130C0064DFBC01990F880B990B0E94A5222AE08E
S1130C1037ED43E25CE30E94A42360938201709366
S1130C208301809384019093850180E990E04DDFF6
S1130C30BC01990F880B990B0E94A5222FE632E183
S1130C4043E85AE30E94A4236B017C0120E030E0D6
S1130C50A9010E940622882349F0C0927E01D09205
S1130C607F01E0928001F09281010CC080E090E06D
S1130C70A0E8BFE380937E0190937F01A09380015D
S1130C80B093810161E084E997DE80937D0164E1A2
S1130C9085E992DE80937C0166E373E386E990E064
S1130CA0EBDE90937B0180937A0166E676E088E937
S1130CB090E0E2DE909379018093780183E39AEFE8
S1130CC0A1EDBAE38093740190937501A09376012A
S1130CD0B093770140E050E060EA71EC8AE990E07B
S1130CE07FDE609370017093710180937201909321
S1130CF0730160E08FE960DE8093450368E873E187
S1130D0081EA90E0B9DE9093040180930301FF909F
S1130D10EF90DF90CF900895FF920F931F93CF939E
S1130D20DF938C01EB0177FF06C0D195C195D10902
S1130D30FF24F39401C0F12C6C2FC8013ADA6D2F13
S1130D40C801019636DA6F2DC8010296DF91CF9162
S1130D501F910F91FF902DCA2F923F924F925F9255
S1130D606F927F929F92AF92BF92CF92DF92EF9257
S1130D70FF920F931F93CF93DF937C01A62E1A014A
S1130D80690180914803BB24B394803119F0863003
S1130D9009F0B12C8091980190919901A0919A0148
S1130DA0B0919B018093490390934A03A0934B0312
S1130DB0B0934C039D2C0A2D172F26010D2C000CEB
S1130DC066087708C02FCA19D0E0C215D3050CF005
S1130DD0FDC60F33110509F4E0C30CF052C105310F
S1130DE0110509F40AC30CF0A8C00A30110509F46E
S1130DF0A9C20CF05FC00430110509F46FC25CF5A0
S1130E000130110509F44BC28CF40115110509F0E8
S1130E10D2C6CC0FDD1FCE0DDF1D60913A03709159
S1130E203B0380913C0390913D0356C2023011056F
S1130E3009F446C20330110509F0BDC6CC0FDD1F0D
S1130E40CE0DDF1D60913603709137038091380316
S1130E509091390330C20730110509F459C2ACF43A
S1130E600530110509F447C20630110509F0A3C67F
S1130E70CC0FDD1FCE0DDF1D60913E0370913F034B
S1130E80809140039091410327C20830110509F471
S1130E904CC20930110509F08EC6CC0FDD1FCE0DF2
S1130EA0DF1D60912E0370912F0380913003909188
S1130EB0310301C20F30110509F478C2DCF40C309F
S1130EC0110509F459C20CF44AC20D30110509F494
S1130ED060C20E30110509F06EC6CC0FDD1FCE0DB9
S1130EE0DF1D609116037091170380911803909190
S1130EF01903F2C10231110509F472C2ACF40031D4
S1130F00110509F460C20131110509F054C6CC0F72
S1130F10DD1FCE0DDF1D60911203709113038091CC
S1130F20140390911503C7C10331110509F465C277
S1130F300431110509F454C23EC60832110509F4FE
S1130F40C4C20CF04FC00A31110509F48AC2DCF4A2
S1130F500731110509F46BC20CF45CC208311105A8
S1130F6009F472C20931110509F025C6CC0FDD1F41
S1130F70CE0DDF1D6091E6027091E7028091E802D8
S1130F809091E90298C10D31110509F484C2ACF4C1
S1130F900B31110509F472C20C31110509F00BC6AD
S1130FA0CC0FDD1FCE0DDF1D6091D6027091D702EC
S1130FB08091D8029091D9028FC10E31110509F4A4
S1130FC077C20F31110509F0F6C5CC0FDD1FCE0D28
S1130FD0DF1D6091EE027091EF028091F00290911A
S1130FE0F10269C10133110509F4A3C2DCF40A3228
S1130FF0110509F484C20CF475C20B32110509F40D
S11310008BC20033110509F0D6C5CC0FDD1FCE0D00
S1131010DF1D6091C5027091C6028091C702909154
S1131020C8025AC10C33110509F49DC2ACF40A3349
S1131030110509F48BC20B33110509F0BCC5CC0FA3
S1131040DD1FCE0DDF1D60910203709103038091BB
S11310500403909105032FC10D33110509F490C2C7
S11310600E33110509F0A7C5CC0FDD1FCE0DDF1D12
S11310706091FA027091FB028091FC029091FD0252
S11310802BC10B36110509F463C30CF092C0003573
S1131090110509F4D7C20CF05BC00A34110509F438
S11310A0A3C25CF50734110509F484C28CF4063438
S11310B0110509F080C5CC0FDD1FCE0DDF1D609139
S11310C0D1027091D2028091D3029091D40204C1D2
S11310D00834110509F47BC20934110509F06BC504
S11310E0CC0FDD1FCE0DDF1D6091CD027091CE02BD
S11310F08091CF029091D002DEC00D34110509F425
S11311008DC2ACF40B34110509F47BC20C34110507
S113111009F051C5CC0FDD1FCE0DDF1D60912203F8
S1131120709123038091240390912503D5C00E343C
S1131130110509F480C20F34110509F03CC5CC0F28
S1131140DD1FCE0DDF1D8091670190916801B5C050
S11311500436110509F494C2ACF40235110509F4FE
S11311607FC20CF476C20335110509F482C203363A
S1131170110509F020C5CC0FDD1FCE0DDF1DD9826E
S1131180C88221C50836110509F4ACC24CF40536F1
S1131190110509F487C20636110509F493C20BC57B
S11311A00936110509F4B1C20A36110509F4BDC2A4
S11311B002C50A38110509F492C3ACF502381105C9
S11311C009F408C3CCF40F36110509F4D4C25CF455
S11311D00E36110509F0EFC4CC0FDD1FCE0DDF1D57
S11311E085E090E06AC00037110509F4CBC20137ED
S11311F0110509F4DBC2DFC40738110509F442C341
S11312004CF40338110509F402C30638110509F436
S11312102AC3D1C40838110509F443C30938110598
S113122009F44EC3C8C4083C110509F47FC4BCF4D6
S11312300D38110509F4B8C34CF40B38110509F441
S11312407BC30C38110509F493C3B5C40E381105DA
S113125009F4F2C30F38110509F438C4ACC40930D9
S113126083E0180709F489C44CF4093C110509F416
S113127066C40A3C110509F46EC49DC40032A3E09F
S11312801A0709F483C40438B3E01B0709F093C4B4
S1131290F894E0910101F0910201099594C4CC0FF6
S11312A0DD1FCE0DDF1D60913A0370913B038091E9
S11312B03C0390913D0341E05FDB9983888383C4C1
S11312C0CC0FDD1FCE0DDF1D609136037091370307
S11312D0809138039091390340E0EECFCC0FDD1FAD
S11312E0CE0DDF1D6091320370913303809134037E
S11312F090913503F1CFCC0FDD1FCE0DDF1D609132
S11313003203709133038091340390913503D3CF2A
S1131310CC0FDD1FCE0DDF1D60913E0370913F03A6
S11313208091400390914103C6CFCC0FDD1FCE0DB9
S1131330DF1D60912E0370912F03809130039091F3
S11313403103CACFCC0FDD1FCE0DDF1D60912A0300
S113135070912B0380912C0390912D03BDCFCC0F62
S1131360DD1FCE0DDF1D60912A0370912B03809148
S11313702C0390912D039FCFCC0FDD1FCE0DDF1DCD
S113138060911A0370911B0380911C0390911D03BB
S1131390A3CFCC0FDD1FCE0DDF1D60911A0370911A
S11313A01B0380911C0390911D0385CFCC0FDD1F7F
S11313B0CE0DDF1D60911603709117038091180301
S11313C09091190378CFCC0FDD1FCE0DDF1D6091F6
S11313D012037091130380911403909115037CCF31
S11313E0CC0FDD1FCE0DDF1D60910E0370910F0336
S11313F080911003909111036FCFCC0FDD1FCE0DA0
S1131400DF1D60910E0370910F0380911003909182
S1131410110351CFCC0FDD1FCE0DDF1D60910803EA
S11314207091090380910A0390910B0355CFCC0F5F
S1131430DD1FCE0DDF1D60910803709109038091BB
S11314400A0390910B0337CFCC0FDD1FCE0DDF1DA8
S11314506091E6027091E7028091E8029091E902BE
S11314603BCFCC0FDD1FCE0DDF1D6091EA027091E2
S1131470EB028091EC029091ED022ECFCC0FDD1F98
S1131480CE0DDF1D6091EA027091EB028091EC02B7
S11314909091ED0210CFCC0FDD1FCE0DDF1D6091BA
S11314A0D6027091D7028091D8029091D90203CFCD
S11314B0CC0FDD1FCE0DDF1D6091EE027091EF02A7
S11314C08091F0029091F10207CFCC0FDD1FCE0D79
S11314D0DF1D6091E2027091E3028091E402909139
S11314E0E502FACECC0FDD1FCE0DDF1D6091E202C6
S11314F07091E3028091E4029091E502DCCECC0F7E
S1131500DD1FCE0DDF1D6091DE027091DF02809140
S1131510E0029091E102E0CECC0FDD1FCE0DDF1D85
S11315206091DE027091DF028091E0029091E1020D
S1131530C2CECC0FDD1FCE0DDF1D6091C5027091B0
S1131540C6028091C7029091C802B5CECC0FDD1FB0
S1131550CE0DDF1D6091020370910303809104039B
S113156090910503B9CECC0FDD1FCE0DDF1D609128
S1131570FE027091FF028091000390910103ACCEB2
S1131580CC0FDD1FCE0DDF1D6091FE027091FF02B6
S113159080910003909101038ECECC0FDD1FCE0D00
S11315A0DF1D6091FA027091FB028091FC02909120
S11315B0FD0281CECC0FDD1FCE0DDF1D6091D10267
S11315C07091D2028091D3029091D40274CECC0F48
S11315D0DD1FCE0DDF1D6091CD027091CE02809192
S11315E0CF029091D00278CECC0FDD1FCE0DDF1D3F
S11315F06091260370912703809128039091290319
S11316006BCECC0FDD1FCE0DDF1D609126037091D4
S1131610270380912803909129034DCECC0FDD1F21
S1131620CE0DDF1D6091220370912303809124036A
S11316309091250340CECC0FDD1FCE0DDF1D809190
S11316406901B7C2CC0FDD1FCE0DDF1D80916A0189
S1131650B0C2CC0FDD1FCE0DDF1D80916601A9C283
S1131660CC0FDD1FCE0DDF1D8091640190916501CB
S113167024CECC0FDD1FCE0DDF1D8091420399C215
S1131680BB2049F0C0920601C09246036C2D84E64B
S113169090E00E94D900CC0FDD1FCE0DDF1D80919C
S11316A0060187C2BB2039F0C092A6016C2D85E6E5
S11316B090E00E94D900CC0FDD1FCE0DDF1D80917C
S11316C0A60177C2BB2039F0C092A5016C2D86E635
S11316D090E00E94D900CC0FDD1FCE0DDF1D80915C
S11316E0A50167C2BB2041F0D092A301C092A20120
S11316F0B60188E690E0DCD9CC0FDD1FCE0DDF1DEE
S11317008091A2019091A301D8CDBB2039F0C09261
S1131710A4016C2D89E690E00E94D900CC0FDD1F56
S1131720CE0DDF1D8091A40144C2BB2061F08091E5
S11317308F01882341F0D092A801C092A701B6017D
S11317408CE690E0B5D98091A7019091A801F2C1EF
S1131750BB2061F080918F01882341F0D092AA01CF
S1131760C092A901B6018AE690E0A2D98091A901AC
S11317709091AA01DFC1CC0FDD1FCE0DDF1DAFE0BC
S1131780B0E01FC2BB2059F080918F01882339F04B
S1131790C09205016C2D80E790E00E94D900CC0F27
S11317A0DD1FCE0DDF1D8091050103C2BB2059F062
S11317B080918F01882339F0C0928A016C2D81E7D2
S11317C090E00E94D900CC0FDD1FCE0DDF1D80916B
S11317D08A01EFC1BB2071F080918F01882351F001
S11317E0692D84E890E00E94D9006C2D85E890E092
S11317F00E94D900CC0FDD1FCE0DDF1D60919E012C
S113180070919F018091A0019091A10165CDBB20B1
S1131810E9F080918F018823C9F0692D82E890E076
S11318200E94D9006C2D83E890E00E94D9004BEC13
S113183051EA65EC70E482E890E0D2D860939E01AE
S113184070939F018093A0019093A101CC0FDD1FA1
S1131850CE0DDF1D60919E0170919F018091A001CA
S11318609091A10128CDBB2031F060910D0386E851
S113187090E00E94D900CC0FDD1FCE0DDF1D8091BA
S11318800D0397C1BB2031F060910C0387E890E011
S11318900E94D900CC0FDD1FCE0DDF1D80910C03FB
S11318A088C1BB2031F06091060388E890E00E9473
S11318B0D900CC0FDD1FCE0DDF1D8091060379C149
S11318C0BB2031F06091070389E890E00E94D900C1
S11318D0CC0FDD1FCE0DDF1D809107036AC1BB2035
S11318E0D1F080918F018823B1F0C301B2010E942D
S11318F0A5222DEC3CEC4CEC5DE30E94A423609308
S11319008601709387018093880190938901B601C1
S11319108AE890E001DACC0FDD1FCE0DDF1D20E058
S113192030E040E251E4609186017091870180913A
S1131930880190918901C3C0BB2009F4B0C0809193
S11319408F01882309F4ABC0C301B2010E94A52210
S11319502AE037ED43E25CE30E94A4236093820112
S1131960709383018093840190938501B60194C0A0
S1131970BB2009F450C080918F01882309F44BC027
S1131980C301B2010E94A5222FE632E143E85AE3E3
S11319900E94A42360937E0170937F018093800151
S11319A090938101B60134C0BB20A9F180918F01CD
S11319B0882389F1C301B2010E94A5222AE037EDF0
S11319C043E25CE30E94A4232091820130918301CD
S11319D040918401509185010E94A12120911E0310
S11319E030911F0340912003509121030E940A2249
S11319F060937E0170937F018093800190938101B5
S1131A0020E030E04AE754E40E94A4230E947222BA
S1131A1080E990E081D9CC0FDD1FCE0DDF1D20E0E1
S1131A2030E04AE754E460917E0170917F01809137
S1131A3080019091810143C0BB2089F180918F0185
S1131A40882369F120911E0330911F0340912003E4
S1131A505091210360917E0170917F0180918001FA
S1131A60909181010E94A4239B01AC016AE077ED6F
S1131A7083E29CE30E94A12160938201709383011D
S1131A80809384019093850120E030E048EC52E497
S1131A900E94A4230E9472228DE890E03DD9CC0FCD
S1131AA0DD1FCE0DDF1D20E030E048EC52E46091F4
S1131AB082017091830180918401909185010E943B
S1131AC0A4230E947222798368837DC0BB2009F419
S1131AD04DC080918F01882309F448C0109282017F
S1131AE010928301109284011092850160E070E0ED
S1131AF08DE890E011D980E090E0A0E8BFE3809306
S1131B007E0190937F01A0938001B093810168EEE0
S1131B1073E080E990E000D9FE01EE0FFF1FEE0DA7
S1131B20FF1DA1E0B0E0B183A08320C080914303F6
S1131B3090914403CC0FDD1FCE0DDF1DBECBBB2027
S1131B4009F441C0B1E0CB16D104E9F51092440385
S1131B501092430338C0BB2049F081E0C816D10479
S1131B6029F481E080939D0180939C01CC0FDD1FBB
S1131B70CE0DDF1D1982188226C0CC0FDD1FCE0DBD
S1131B80DF1D80916C0190916D0197CBBB2059F0C2
S1131B9092EAC91698E0D90621F481E080938F0176
S1131BA002C010928F01CC0FDD1FCE0DDF1D80917E
S1131BB08F0190E082CBCC0FDD1FCE0DDF1DAFEF88
S1131BC0BFEFB983A8830F5F1F4FFCC8DF91CF918C
S1131BD01F910F91FF90EF90DF90CF90BF90AF9047
S1131BE09F907F906F905F904F903F902F900895BB
S1131BF04F925F926F927F928F929F92AF92BF9219
S1131C00CF92DF92EF92FF92CF93DF9300D000D078
S1131C10CDB7DEB720911E0330911F0340912003FE
S1131C205091210360917E0170917F018091800128
S1131C30909181010E94A42320918201309183011B
S1131C4040918401509185010E94A2216093C502B4
S1131C507093C6028093C7029093C8022AE037EDBE
S1131C6043E25CE30E94062287FF10C08AE097EDFE
S1131C70A3E2BCE38093C5029093C602A093C7027B
S1131C80B093C80281E08093C00202C01092C002E7
S1131C90C0901A03D0901B03E0901C03F0901D0326
S1131CA022EA3CEE42EF50E4C701B6010E94A423AD
S1131CB04B015C012FEE39EB40E753E4C701B60159
S1131CC00E94A2219B01AC01C501B4010E940A2219
S1131CD09B01AC0160E070E080E291E40E94072483
S1131CE022EE39EB43EC50E40E94A4234B015C0147
S1131CF06093F6027093F7028093F8029093F902CE
S1131D008091C5029091C602A091C702B091C80209
S1131D1089839A83AB83BC839C01AD01C501B40163
S1131D200E94A4232AE037ED43E25CE30E94A4234B
S1131D306B017C016093F2027093F3028093F402CE
S1131D409093F50222EE39EB43EC50E40E940A2210
S1131D500E9459239B01AC0162EA7CEE82EF90E47D
S1131D600E940A2220E030E040E85FE30E94A121C3
S1131D709B01AC016FEE79EB80E793E40E940A22A9
S1131D802B013C0120E030E042E852EC0E940622A4
S1131D9087FD09C04092EE025092EF026092F00279
S1131DA07092F1020CC080E090E0A2E8B2EC809363
S1131DB0EE029093EF02A093F002B093F10220910F
S1131DC0EE023091EF024091F0025091F1026AEE7E
S1131DD07DE385E19CE30E94A12120E83DE048E801
S1131DE05BE30E94A4239B01AC016DE47EE984EAD9
S1131DF09FE30E94A1210E94572427EB38E241E986
S1131E005FE30E94A12120E83DE048E05BE30E94FB
S1131E100A222B013C0120E030E0A9010E94552355
S1131E2018164CF04092D6025092D7026092D80213
S1131E307092D90208C01092D6021092D702109262
S1131E40D8021092D9024090260350902703609044
S1131E5028037090290320E030E048EC52E46981C3
S1131E607A818B819C810E94A423A30192010E9408
S1131E700A229B01AC016093DA027093DB02809327
S1131E80DC029093DD02C501B4010E94A4232AE080
S1131E9037ED43E25CE30E94A42322EE39EB43ECEA
S1131EA050E40E940A220E9459239B01AC0162EA79
S1131EB07CEE82EF90E40E940A2220E030E040E8C9
S1131EC05FE30E94A1219B01AC016FEE79EB80E7F7
S1131ED093E40E940A229B01AC016093EA0270938E
S1131EE0EB028093EC029093ED026AEE7DE385E1D0
S1131EF09CE30E94A12120E83DE048E85BE30E94C6
S1131F00A4239B01AC016DE47EE984EA9FE30E9473
S1131F10A1210E94572427EB38E241E95FE30E94A4
S1131F20A12120E83DE048E05BE30E940A224B0146
S1131F305C0120E030E0A9010E94552318164CF002
S1131F408092E6029092E702A092E802B092E9023F
S1131F5008C01092E6021092E7021092E802109272
S1131F60E90220E034E244E759E4C701B6010E94E3
S1131F70A4234B015C0120E030E040E251E4C301C2
S1131F80B2010E94A423A70196010E94A1219B01F2
S1131F90AC01C501B4010E940A226093E20270936D
S1131FA0E3028093E4029093E5022BE43FE140E9ED
S1131FB051E40E94A4232CE53FE042E153E40E9453
S1131FC00A226093DE027093DF028093E002909312
S1131FD0E1020F900F900F900F90DF91CF91FF903F
S1131FE0EF90DF90CF90BF90AF909F908F907F90B5
S1131FF06F905F904F9008950FB6F894A8958091D4
S11320006000886180936000109260000FBE9FE0C2
S113201088E10FB6F894A895809360000FBE909362
S113202060000E94870561E082E00E94A01B60E0DE
S113203082E00E94DC1B61E083E00E94A01B61E05F
S113204085E00E94A01B61E086E00E94A01B60E086
S113205086E00E94DC1B0E948C0462E370E080E056
S113206090E00E940E1BE0ECF0E0808180648083AD
S11320708FB7F8945A9A8FBF6091060187E593E071
S113208012D46091060187E593E00DD460910601B6
S113209087E593E008D46091060187E593E003D4D3
S11320A08AE794E00E94FD1940EA56E861E070E096
S11320B08AE794E00E940C1A4AE050E060E070E085
S11320C08AE794E0A6D50E94DD1A609349037093D1
S11320D04A0380934B0390934C03A89508950F9360
S11320E01F93CF93DF9364E470E08AE794E00E9447
S11320F0191A64E28AE794E00E94BF1960E08AE753
S113210094E00E94BF198AE794E00E948E1A80939B
S1132110420386E990E00E94321B809142038111C0
S11321207AC046E064E48AE794E00E948C1AC0E531
S1132130D1E006E511E08AE794E00E943919899319
S11321400C171D07C1F7C091520162E080E591E0D0
S11321500E94CB03C81721F088E5809342035BC03B
S1132160C091550162E083E591E00E94CB03C8135E
S1132170F3CF6091500170E0762F66278091510172
S1132180680F711D7093BD026093BC02809153016E
S113219090E0982F882720915401EC01C20FD11DA3
S11321A0D093BF02C093BE0280E090E00E94A322BD
S11321B020E030E04FE253E40E94A42320E03FEF0C
S11321C04FE757E40E940A2220E030E044E352E45F
S11321D00E94A1216093C1027093C2028093C30242
S11321E09093C402BE0180E090E00E94A32220E00C
S11321F030E048EC52E40E94A42320E03FEF4FE794
S113220057E40E940A226093C9027093CA02809321
S1132210CB029093CC02DF91CF911F910F9108953F
S1132220CF93DF93609100018AE794E00E940F1A34
S113223060E58AE794E00E94BF198AE794E00E946F
S11322408E1A80936A01811173C044E06091000189
S11322508AE794E00E948C1ACAE5D1E08AE794E008
S11322600E943919899381E0CE35D807B9F7609176
S11322705A016F7370E0762F662780915B01682B9B
S11322807093BB026093BA026656764080E090E099
S11322900E94A32223E33AEF41ED5AE30E94A423D0
S11322A020E030E040E85FE30E94A12120E030E03C
S11322B048EC52E40E94A42320E030E048EC52E4CD
S11322C00E94A2216093AF017093B0018093B10189
S11322D09093B20160915C0188E0689FB001112481
S11322E080915D01829586958770682B7093B90201
S11322F06093B80280E090E00E94A32220E030E0E6
S113230048E453E40E94A42320E030EE4FEF54E469
S11323100E940A2220E030E048E452E40E94A12115
S11323206093AB017093AC018093AD019093AE01C7
S113233086E990E0DF91CF910C94321B4F925F922B
S11323406F927F928F929F92AF92BF92CF92DF92C1
S1132350EF92FF920F931F93E0916B018E2F90E009
S1132360FC013197EE30F10508F0E2C1EC5CFF4F5F
S11323700C94872161E086E00E94DC1B82E0E0C0CF
S113238083E0DEC04DDF84E0DBC085E080936B0139
S11323908091980190919901A0919A01B0919B012B
S11323A080938B0190938C01A0938D01B0938E0147
S11323B0BFC18091980190919901A0919A01B09127
S11323C09B0140918B0150918C0160918D01709122
S11323D08E018C019D01041B150B260B370B053652
S11323E011052105310508F4A3C12091050121300F
S11323F011F487E0A5C080938B0190938C01A09386
S11324008D01B0938E011BC06ADE19C080919801C2
S113241090919901A0919A01B0919B0140918B01F7
S113242050918C0160918D0170918E01841B950BEC
S1132430A60BB70BC397A105B10508F479C18AE0CF
S11324407FC060E086E00E94DC1B80916A018111FC
S113245022C08091690181111EC080916F01811198
S11324601AC0E090C902F090CA020091CB02109108
S1132470CC022091AB013091AC014091AD0150915F
S1132480AE016091AF017091B0018091B101909162
S1132490B2010E94DB000E946801E090C902F09042
S11324A0CA020091CB021091CC022091AB01309171
S11324B0AC014091AD015091AE016091AF017091BA
S11324C0B0018091B1019091B2010E94DE038BE0D2
S11324D037C00E9442018CE033C00E947802809190
S11324E0080290910902A0910A02B0910B02809314
S11324F0260390932703A0932803B0932903809184
S11325000C0290910D02A0910E02B0910F028093E3
S1132510220390932303A0932403B0932503809173
S1132520100290911102A0911202B09113028093B3
S11325301E0390931F03A0932003B09321038EE006
S113254080936B01F5C0C0902603D0902703E090E0
S11325502803F09029032AE037ED43E25CE3C70146
S1132560B6010E94A4234B015C0160933A0370936B
S11325703B0380933C0390933D032DEC3CEC4CECEB
S11325805DE30E94A4236093360370933703809322
S113259038039093390320E030E04AE754E4C7015C
S11325A0B6010E94A4236093320370933303809393
S11325B0340390933503C0923E03D0923F03E092DC
S11325C04003F092410327ED34E844E15EE3C701A0
S11325D0B6010E94A42360932E0370932F0380936B
S11325E03003909331032DEC3CEC4CEC5DE3C701DC
S11325F0B6010E94A42360932A0370932B03809353
S11326002C0390932D03C0902203D0902303E090D9
S11326102403F0902503C0921A03D0921B03E09286
S11326201C03F0921D0323E333E948E853E4C70194
S1132630B6010E94A2212B013C0160931603709302
S11326401703809318039093190326E636E646EEA3
S11326505FE3C701B6010E94A42320E030E040E01C
S113266052E40E94A2216093120370931303809397
S1132670140390931503A301920163E373E982E9C0
S113268093E40E940A22A50194010E94A4236B01F1
S11326907C01609308037093090380930A03909369
S11326A00B0320E030E040E85FE30E94A121609347
S11326B002037093030380930403909305032DECAA
S11326C03CEC4CEC5DE3C701B6010E94A42360938B
S11326D0FE027093FF0280930003909301032DEC9C
S11326E03CEC4CEC5DE30E94A1216093FA027093F0
S11326F0FB028093FC029093FD02A7019601609176
S11327009E0170919F018091A0019091A1010E946E
S1132710A42360930E0370930F038093100390938C
S1132720110380910501813009F462DA10926B0182
S11327301F910F91FF90EF90DF90CF90BF90AF90DB
S11327409F908F907F906F905F904F9008950F931C
S11327501F938091980190919901A0919A01B09151
S11327609B01409194015091950160919601709163
S113277097018C019D01041B150B260B370B0937A0
S113278011052105310570F0809394019093950112
S1132790A0939601B0939701D1DD80919D018111A1
S11327A00E9450031F910F91089507D760939801D9
S11327B07093990180939A0190939B01693B7B40AC
S11327C08105910538F080916E01811103C081E08B
S11327D080936E0180916E01882349F00E94660304
S11327E00E949103B4DF86E493E00E946020A895E0
S11327F00895FC0124853585F901E05CFF4F808153
S11328009181329620813181805C9F4F821B930B92
S113281060E470E00C945221DC011C96ED91FC9173
S11328201D97DF01A05CBF4F2D913C91119712962B
S11328308D919C9111972817390739F08D919C91AE
S1132840E80FF91F808190E008958FEF9FEF0895BE
S1132850FC01A485B585FD01E05CFF4F2081318139
S11328603296808191812817390779F0808191818E
S1132870A80FB91F8C91208131812F5F3F4F2F7397
S113288033273183208390E008958FEF9FEF0895DD
S1132890FC0181A1882329F0A489B5898C9186FF44
S11328A0FBCF11A208950F931F93CF93DF93FC01E5
S11328B0A685B7858D01005C1F4FE8018881998149
S11328C001968F739927AD014E5B5F4FEA01288112
S11328D0398182179307D1F3E80128813981A20F46
S11328E0B31F6C93A685B785A05CBF4F11969C93CC
S11328F08E93A689B7892C9181E090E0078C02C061
S1132900880F991F0A94E2F7822B8C9381E081A3AC
S11329100488F589E02D80818064808381E090E0E3
S1132920DF91CF911F910F91089508951F920F92F7
S11329300FB60F9211242F934F935F938F939F930E
S1132940EF93FF938091C00082FD1CC02091C600CC
S11329508091FD039091FE0301968F739927409116
S1132960FF03509100048417950771F0E091FD0373
S1132970F091FE03E354FC4F20839093FE03809375
S1132980FD0302C08091C600FF91EF919F918F914A
S11329905F914F912F910F900FBE0F901F9018953C
S11329A087E593E026DF892B09F0BFCF08951F92B6
S11329B00F920FB60F9211242F933F938F939F93EF
S11329C0EF93FF932091B9033091BA038091BB0335
S11329D09091BC032817390731F48091C1008F7D91
S11329E08093C10014C0E091BB03F091BC03E7588D
S11329F0FC4F20818091BB039091BC0301968F739F
S1132A0099279093BC038093BB032093C600FF9146
S1132A10EF919F918F913F912F910F900FBE0F9047
S1132A201F901895CF92DF92EF92FF921F93CF934E
S1132A30DF93EC016A017B01122F4115514E6105B0
S1132A40710509F1EC89FD8981E090E008A002C0DC
S1132A50880F991F0A94E2F7808360E079E08DE3A0
S1132A6090E0A70196010E946521DA01C90101974E
S1132A70A109B109B695A795979587959C0121154C
S1132A8080E13807A8F0EC89FD89108260E874E8D9
S1132A908EE190E0A70196010E946521DA01C90147
S1132AA00197A109B109B695A795979587959C01BA
S1132AB0E889F9893083EA89FB892083E88DF98DD7
S1132AC01083EE89FF89408181E090E09C010C8CA9
S1132AD002C0220F331F0A94E2F7242B2083EE89CD
S1132AE0FF8940819C010D8C02C0220F331F0A9480
S1132AF0E2F7242B2083EE89FF8940819C010E8C10
S1132B0002C0220F331F0A94E2F7242B2083EE899C
S1132B10FF8920810F8C02C0880F991F0A94E2F765
S1132B20809582238083DF91CF911F91FF90EF9056
S1132B30DF90CF900895E7E5F3E01382128288EEE8
S1132B4093E0A0E0B0E084839583A683B78384E315
S1132B5091E0918380838DEB93E09587848789E767
S1132B6093E09787868785EC90E0918B808B84EC4B
S1132B7090E0938B828B80EC90E0958B848B81EC3E
S1132B8090E0978B868B82EC90E0918F808F86EC1F
S1132B9090E0938F828F84E0848F83E0858F87E039
S1132BA0868F85E0878F81E080A30895089564D59A
S1132BB0FDDF22DAC0EDD4E1F8DD2097E9F3F0DEA1
S1132BC0FBCFCF92DF92EF92FF920F931F93CF939D
S1132BD0DF936C01EB017B01E40EF51E00E010E0D5
S1132BE0CE15DF0561F06991D601ED91FC9101905C
S1132BF0F081E02DC6010995080F191FF1CFC80116
S1132C00DF91CF911F910F91FF90EF90DF90CF90C4
S1132C100895FC0144835583668377830895813046
S1132C2039F018F0823051F0089510926E00089532
S1132C3080916F008D7F80936F0008958091700064
S1132C408D7F8093700081E08093B0008091B1000B
S1132C50887F84608093B1001092B3000895CF936D
S1132C60C82F80910701C81307C0E6E0F1E0849102
S1132C709FEF9093070101C08FEFD1DF60E08C2FAD
S1132C80CF919AC51F920F920FB60F9211242F93D2
S1132C903F934F935F936F937F938F939F93AF93E0
S1132CA0BF93EF93FF938091040490910504A09146
S1132CB00604B0910704892B8A2B8B2B51F1909138
S1132CC00104E0910204F091030480818927808348
S1132CD08091040490910504A0910604B091070426
S1132CE0181619061A061B06BCF480910404909168
S1132CF00504A0910604B09107040197A109B10944
S1132D008093040490930504A0930604B0930704ED
S1132D1003C080910701A3DFFF91EF91BF91AF91B1
S1132D209F918F917F916F915F914F913F912F91DF
S1132D300F900FBE0F901F9018951092750481E0AC
S1132D40809373041092720461E082E135D561E0EE
S1132D5083E132D5E9EBF0E080818E7F808380814E
S1132D608D7F808388E48093B80085E48093BC00E1
S1132D7008959B01AC0160E074E284EF90E00E944E
S1132D806521DA01C9014097A109B109B695A79552
S1132D90979587958093B8000895413208F043C011
S1132DA0909175049111FCCF91E090937504209358
S1132DB073042FEF2093080410924D04240F2093E2
S1132DC04C049093740490917404880F892B80931D
S1132DD0740480917204813061F4109272048091C1
S1132DE074048093BB008091BC0083FDF8CF85EC14
S1132DF001C085EE8093BC00809175048130E1F3BD
S1132E0080914D04841710F440914D04AEE4B4E075
S1132E10962FFB018E2F891B841718F48D918193B3
S1132E20F9CF842F089580E008950F93413208F07C
S1132E304AC0909175049111FCCF32E0309375042F
S1132E40009373043FEF3093080410924D044093B1
S1132E504C04562FAEE4B4E0FB013E2F351B34176F
S1132E6018F431913D93F9CF1092740430917404A5
S1132E70880F832B8093740480917204813061F4F1
S1132E8010927204809174048093BB008091BC0002
S1132E9083FDF8CF85EC01C085EE8093BC0022232E
S1132EA021F0809175048230D1F3809108048F3F22
S1132EB079F080910804803241F0809108048033D5
S1132EC031F094E005C091E003C092E001C093E0CA
S1132ED0892F0F91089540912A04262F30E0240F62
S1132EE0311D21323105DCF4209175042430C9F4FC
S1132EF0FC0180E090E0861758F430912A04219177
S1132F00DC01A45DBB4FA30FB11D2C930196F3CF3D
S1132F1080912A04680F60932A0480E0089581E078
S1132F20089582E0089590936F0480936E04089549
S1132F309093710480937004089585ED8093BC0090
S1132F408091BC0084FDFCCF10927504089585EC3B
S1132F508093BC001092750408951F920F920FB6CF
S1132F600F9211242F933F934F935F936F937F930B
S1132F708F939F93AF93BF93EF93FF938091B90087
S1132F80887F803609F49DC070F5883209F45CC0EE
S1132F9090F4803109F455C038F4882309F4F3C05F
S1132FA0883009F44EC0F2C0883109F44DC0803233
S1132FB009F45EC0EBC0803409F469C050F4803376
S1132FC009F456C0883309F0E1C080930804BFDFD8
S1132FD0DDC0803509F44FC0883509F45DC08834FC
S1132FE009F0D4C0D2C0883909F4C3C0A8F4883722
S1132FF009F467C038F4883609F463C0803709F4EB
S113300060C0C4C0883809F4B4C0803909F45FC012
S1133010803809F0BBC05BC0803B09F482C038F43F
S1133020803A09F466C0883A09F47BC0AFC0803C9A
S113303009F4A3C0883C09F4A0C0883B09F486C005
S1133040A5C08091740410C090914D0480914C04EB
S1133050981770F5E0914D0481E08E0F80934D0434
S1133060F0E0E25BFB4F80818093BB0085EC82C083
S1133070809308048AC0E0914D0481E08E0F809310
S11330804D048091BB00F0E0E25BFB4F80839091A4
S11330904D0480914C046AC0E0914D0481E08E0F90
S11330A080934D048091BB00F0E0E25BFB4F808392
S11330B080917304811169C081E08093720484EA71
S11330C05DC083E08093750410920904CFCF809192
S11330D00904803208F04DC0E091090481E08E0FAC
S11330E0809309048091BB00F0E0E65FFB4F80838E
S11330F0BDCF2DDF80910904803230F4E0910904C2
S1133100F0E0E65FFB4F10826091090470E0E0910B
S11331106E04F0916F048AE094E00995109209041A
S113312035C084E08093750410922B0410922A0415
S1133130E0917004F0917104099580912A04811141
S113314005C081E080932A0410922C04E0912B04A2
S113315081E08E0F80932B04F0E0E45DFB4F8081CF
S11331608093BB0090912B0480912A04981708F453
S11331707DCF85E88093BC0009C085EC8093BC00BA
S11331801092750403C010920804D7DEFF91EF91EA
S1133190BF91AF919F918F917F916F915F914F916B
S11331A03F912F910F900FBE0F901F9018951F9273
S11331B00F920FB60F9211242F933F934F935F9367
S11331C06F937F938F939F93AF93BF93EF93FF93EB
S11331D08091760490917704892B29F0E09176040C
S11331E0F09177040995FF91EF91BF91AF919F9171
S11331F08F917F916F915F914F913F912F910F909C
S11332000FBE0F901F9018951F920F920FB60F923A
S113321011242F933F934F935F936F937F938F93D7
S11332209F93AF93BF93EF93FF9380917804909112
S11332307904892B29F0E0917804F09179040995B7
S1133240FF91EF91BF91AF919F918F917F916F917A
S11332505F914F913F912F910F900FBE0F901F9050
S113326018958091AE0490E02091AF04821B9109DF
S113327008959091AF048091AE04981750F4E92F0B
S1133280F0E0E055FB4F208130E09F5F9093AF0466
S113329002C02FEF3FEFC9010895E091AF04809180
S11332A0AE04E81730F4F0E0E055FB4F808190E085
S11332B008958FEF9FEF08950895CF93DF93EC0166
S11332C0E0918604F09187043097F1F09091AF0477
S11332D08091AE049817C0F090E0292F30E02617B3
S11332E0370754F4DE01A20FB31F4C91D901A05546
S11332F0BB4F4C939F5FF1CF1092AF046093AE0429
S1133300CB01DF91CF910994DF91CF910895E091A2
S11333108804F0918904309729F010928C0410925B
S11333208B0409940895CF92DF92EF92FF920F934A
S11333301F93CF93DF937C01CB018A0120918A04F0
S1133340222389F0EB016B01C40ED51ECC15DD05DB
S113335061F06991D701ED91FC910190F081E02D2C
S1133360C7010995F3CF642FB6DDC801DF91CF9172
S11333701F910F91FF90EF90DF90CF900895CF931E
S1133380DF931F92CDB7DEB7698320918A0422238D
S1133390D1F020918B04203240F021E030E0FC0198
S11333A03383228380E090E014C080918C04E82F62
S11333B0F0E0E357FB4F998190838F5F80938C04F7
S11333C080938B0404C061E0CE01019684DD81E02A
S11333D090E00F90DF91CF910895FC011382128247
S11333E088EE93E0A0E0B0E084839583A683B7835E
S11333F084E491E09183808308951092AF04109245
S1133400AE0410928C0410928B0497DC87E899E147
S11334108FDD8DE599E187CDCB01BA01AACC81E09E
S113342080938A046093AD0410928C0410928B04F0
S11334300895F5CF0F93062F21E040918B046DE89A
S113344074E08091AD04F1DC10928C0410928B0432
S113345010928A040F9108954F925F926F927F9217
S1133460AF92BF92CF92EF92FF920F931F93CF939D
S1133470DF935C01F62ED42F28013901EE2011F1DF
S1133480CEDFCE2DC43008F0C3E0C150C0F028E038
S1133490C29FC0011124A301920104C0569547950F
S11334A0379527958A95D2F7CA01B901D501ED91CF
S11334B0FC910190F081E02DC5010995E6CF60E013
S11334C0C501B8DF4D2FD13208F040E22C2D60EB5E
S11334D074E08F2D62DC1092AF048093AE04DF9110
S11334E0CF911F910F91FF90EF90CF90BF90AF902D
S11334F07F906F905F904F900895CF92EF920F93CB
S11335001F93C22EE12C00E010E09801A5DF1F916B
S11335100F91EF90CF90089521E0EFCF61E08ACF33
S11335208AE794E05ACF1F920F920FB60F9211249C
S11335302F933F938F939F93AF93BF938091D10425
S11335409091D204A091D304B091D4043091D004CA
S113355023E0230F2D3720F40196A11DB11D05C0D2
S113356026E8230F0296A11DB11D2093D004809359
S1133570D1049093D204A093D304B093D404809143
S1133580D5049091D604A091D704B091D8040196A3
S1133590A11DB11D8093D5049093D604A093D704A4
S11335A0B093D804BF91AF919F918F913F912F9188
S11335B00F900FBE0F901F9018952FB7F89460913D
S11335C0D1047091D2048091D3049091D4042FBF7C
S11335D008953FB7F8948091D5049091D604A091B2
S11335E0D704B091D80426B5A89B05C02F3F19F085
S11335F00196A11DB11D3FBFBA2FA92F982F88276F
S1133600820F911DA11DB11DBC01CD0142E0660FC9
S1133610771F881F991F4A95D1F70895CF92DF929B
S1133620EF92FF92CF93DF936B017C01D2DFEB012A
S1133630C114D104E104F10471F0CBDF6C1B7D0BE8
S1133640683E7340A8F381E0C81AD108E108F10884
S1133650C851DC4FEDCFDF91CF91FF90EF90DF9019
S1133660CF900895019739F0880F991F880F991FFB
S113367002970197F1F70895789484B5826084BD28
S113368084B5816084BD85B5826085BD85B5816062
S113369085BDEEE6F0E0808181608083E1E8F0E0C2
S11336A01082808182608083808181608083E0E8F1
S11336B0F0E0808181608083E1EBF0E080818460D0
S11336C08083E0EBF0E0808181608083EAE7F0E0D2
S11336D08081846080838081826080838081816036
S11336E080838081806880831092C1000895833034
S11336F081F028F4813099F08230A1F00895863069
S1133700A9F08730B9F08430D1F4809180008F7DA6
S113371003C0809180008F7780938000089584B5E2
S11337208F7702C084B58F7D84BD08958091B000E9
S11337308F7703C08091B0008F7D8093B00008958F
S1133740CF93DF9390E0FC01E55EFE4F2491FC01F2
S1133750E15DFE4F8491882361F190E0880F991F09
S1133760FC01E35BFE4FC591D491FC01ED5BFE4F80
S1133770A591B491611109C09FB7F89488812095EF
S113378082238883EC912E230BC0623061F49FB7AF
S1133790F8948881322F309583238883EC912E2BE3
S11337A02C939FBF06C08FB7F894E8812E2B2883F3
S11337B08FBFDF91CF9108951F93CF93DF93282F6D
S11337C030E0F901E95FFE4F8491F901E55EFE4FB7
S11337D0D491F901E15DFE4FC491CC23B9F0162FC9
S11337E0811185DFEC2FF0E0EE0FFF1FED5BFE4F44
S11337F0A591B4919FB7F894111104C08C91D09500
S1133800D82302C0EC91DE2BDC939FBFDF91CF91D4
S11338101F9108951F920F920FB60F9211242F93A8
S11338203F934F935F936F937F938F939F93AF9344
S1133830BF93CF93DF93EF93FF939091F904A091FB
S1133840F80420918800309189008091DD04482F8C
S113385050E0C0912D05D0912E05B091F704E92FC9
S1133860F0E04E175F07ECF02C0F3D1FEA2FE170DC
S1133870A6959F5FEB1799F380918000EE2311F0DA
S1133880806C02C08F7B80688093800030938900B5
S113389020938800E093F704A093F8049093F9042C
S11338A08FC09091DB04911105C0EA012196EC17B9
S11338B0FD0729F0EA012296EC17FD07A1F48D5FBC
S11338C08093F90480918000806C809380006091E3
S11338D0DC0440912D0550912E05649FC001659F25
S11338E0900D112467C04F5F5F4FE417F507C9F4CB
S11338F08E5F8093F9048091DE04B81709F456C0F2
S1133900882321F080918000806C04C08091800025
S11339108F7B8068809380008091DE048093F7041D
S113392045C08091F604E091F5048E130DC0109209
S1133930F904809180008F738093800080916F00E0
S11339408D7F80936F003CC081E08093F904EF5F2A
S1133950E43108F0E0E0E093F504F0E0E152FB4FDD
S113396080818093F8041092F7049923C9F0082EFB
S113397082958025082E8695869580258F5F81FB0C
S1133980662760F970E041E050E0923011F040E0C9
S113399050E081E06417750709F080E08093DE044D
S11339A0809180008F7B80688093800080912D05BA
S11339B090912E05280F391F309389002093880099
S11339C0FF91EF91DF91CF91BF91AF919F918F9133
S11339D07F916F915F914F913F912F910F900FBE07
S11339E00F901F9018951F920F920FB60F921124EB
S11339F01F932F933F934F935F936F937F938F9373
S1133A009F93AF93BF93CF93DF93EF93FF93209153
S1133A1086003091870090912A0580918100992336
S1133A2031F08F7B8093810010922A0506C0806458
S1133A308093810080E880932A0580912C05811170
S1133A4023C091119AC08091260590912705820F79
S1133A50931F90938B0080938A0084E086BB8091AF
S1133A606F00846080936F0080912D0590912E05E6
S1133A70280F391F96958795280F391F30932905EC
S1133A802093280581E074C04091280550912905B0
S1133A90C091DD0470912A0590912B05A0912D050C
S1133AA0B0912E05D091DA041091D904241B350B62
S1133AB037FD58C0882321F0C81710F09695972B2E
S1133AC04A0F5B1F8F5F8D1708F446C090932B0538
S1133AD080916F008B7F80936F009091DB0499231A
S1133AE0F9F080912B05082E82958025082E869565
S1133AF0869580258F5F81FBEE27E0F9F0E021E0D9
S1133B0030E0923011F020E030E081E090E0E21704
S1133B10F30711F080E090E070E08617970791F4C6
S1133B20809125058F5F883230F59091240589179F
S1133B3049F0E82FF0E090912B05E650FB4F90837D
S1133B4080932505809181008F7B80938100109262
S1133B502A0510922C0511C0811708F4672F2A1B1F
S1133B603B0BA6CF90932B05509329054093280532
S1133B7080932C0502C080E0D8CFFF91EF91DF91B4
S1133B80CF91BF91AF919F918F917F916F915F91F1
S1133B904F913F912F911F910F900FBE0F901F9047
S1133BA018951F920F920FB60F9211242F934F93D3
S1133BB05F936F937F938F939F93EF93FF93809182
S1133BC06F008B7F80936F00809181008F7B809347
S1133BD0810080912C0520912A0520584091DD0414
S1133BE050E090912B05682F70E04617570724F09A
S1133BF09695922B8F5FF7CF90932B058091250597
S1133C008F5F883208F080E020912405821739F014
S1133C10E82FF0E0E650FB4F908380932505109247
S1133C202C05809181008F7B8093810010922A055E
S1133C30FF91EF919F918F917F916F915F914F9140
S1133C402F910F900FBE0F901F9018950F931F93F5
S1133C50CF93DF93EC0140E855E260E070E087E544
S1133C6093E00E941215E1ECF0E08081806480838F
S1133C701A87098784E080932F05DF91CF911F91E4
S1133C800F9108958FEF9FEF4217A8F4FB01E40F03
S1133C90F11D3081832738E0FC01E170FF27969500
S1133CA08795EF2B21F051E0852750EA9527315075
S1133CB099F74F5FE9CF98278927982708951F938D
S1133CC0CF93DF93EB01142F242F40E0DBDFFE01C1
S1133CD0E10FF11D90831F5FC10FD11D8883DF9118
S1133CE0CF911F910895FB0141814330A9F04630E3
S1133CF029F0403189F081E090E00895228130E09C
S1133D00322F22274381240F311DFC0181859285A6
S1133D102817390718F528C0248130E0322F2227CC
S1133D205581250F311D433021F0403111F040E021
S1133D3001C04EE021153105A1F050E042175307B0
S1133D4080F0228130E0322F22274381240F311D5D
S1133D50FC01818592858217930730F482E090E01C
S1133D60089583E090E0089580E090E00895FC01D8
S1133D707087678308950F931F93CF93DF93DB01BD
S1133D80BA01A9019801EC01EF81F885CD01DF9119
S1133D90CF911F910F9109946F927F928F929F926E
S1133DA0AF92BF92CF92DF92EF92FF920F931F9345
S1133DB0CF93DF935C014B016A0139017A01C0E0C2
S1133DC0D0E082E0E80EF11CF601858190E0C8178E
S1133DD0D90788F4F701058110E0102F00278681A8
S1133DE0082BAE01480D591D21E030E0B301C50197
S1133DF0C2DF2196E6CFCE01DF91CF911F910F91C3
S1133E00FF90EF90DF90CF90BF90AF909F908F90F6
S1133E107F906F9008951F920F920FB60F92112406
S1133E205A980F900FBE0F901F901895EF92FF9223
S1133E300F931F93CF93DF938091C000806480938E
S1133E40C0008FB7F8945A9A8FBFEB01042F10E08B
S1133E507B01E00EF11ECE15DF0531F0699187E597
S1133E6093E00E945314F7CFC801DF91CF911F91C3
S1133E700F91FF90EF900895EF92FF920F931F938D
S1133E80CF938C017B01C42F1ADF42E04C0FB701A2
S1133E90C801CF911F910F91FF90EF90C7CFCF92A0
S1133EA0DF92EF92FF920F931F93CF93DF93CDB7DF
S1133EB0DEB728970FB6F894DEBF0FBECDBF6C01F6
S1133EC0842F752FA801698390E19A837B838C8367
S1133ED01D822E839701682FC6015EDF892B39F07E
S1133EE046E0BE016F5F7F4FC601C6DF02C080E0BF
S1133EF090E028960FB6F894DEBF0FBECDBFDF91D9
S1133F00CF911F910F91FF90EF90DF90CF90089584
S1133F10EF92FF920F931F93CF93DF93CDB7DEB74A
S1133F2028970FB6F894DEBF0FBECDBF7C01C80141
S1133F30F90104811581102701271027698326E0E0
S1133F402A835B834C831D830E8321E030E0BC0114
S1133F50C70111DF46E0BE016F5F7F4FC7018CDFF1
S1133F6028960FB6F894DEBF0FBECDBFDF91CF9178
S1133F701F910F91FF90EF900895AF92BF92CF924F
S1133F80DF92EF92FF920F931F93CF93DF93CDB7FE
S1133F90DEB7A8970FB6F894DEBF0FBECDBF6C0195
S1133FA05801698383E08A83822F880F8B83E22EF2
S1133FB0F12C00E010E09701B501C601DCDED5016B
S1133FC0FE01319680E090E0BF0132968E159F0588
S1133FD048F42C9111963C911197129631832283C7
S1133FE00196F3CFA701440F551F4D5F5F4FC601E4
S1133FF043DFA8960FB6F894DEBF0FBECDBFDF91A6
S1134000CF911F910F91FF90EF90DF90CF90BF90D1
S1134010AF9008950F931F93CF93DF938B01C0E06C
S1134020D0E087E593E00E94F913892B71F087E5CE
S113403093E00E942814F80181938F012196C632DF
S1134040D10579F78FEF9FEF01C0CE01DF91CF91BA
S11340501F910F910895DF92EF92FF920F931F9398
S1134060CF93DF937C01D62E8A01BA01D3DFEC0112
S113407018161906CCF4282F225040E0B801C701C5
S113408001DEA8014C0F5D1FFA013297208130E058
S1134090322F222731964081242B8217930731F443
S11340A0F80180818D1102C0CE0102C08FEF9FEF15
S11340B0DF91CF911F910F91FF90EF90DF900895C2
S11340C04F925F926F927F928F929F92AF92BF9224
S11340D0CF92DF92EF92FF920F931F93CF93DF93D0
S11340E0CDB7DEB7CC57D1090FB6F894DEBF0FBEFB
S11340F0CDBF6C0187E593E00E94F9135C01892B25
S113410021F4F601108A17868BC057DA2BB1122FCF
S1134110147022FD85C0F60127853089A216B306E6
S113412039F0B08AA786638774878587968779C0B4
S1134130F60183849484A584B6842B013C01481839
S113414059086A087B0880902F05912CA12CB12C6A
S1134150481459046A047B0408F463C0108A17865F
S11341606383748385839683AE014B5A5F4F60816A
S1134170C60171DF181619060CF050C0482FBE0195
S11341806B5A7F4FC601AFDD9C0167969FAD679761
S11341902115310571F0122FF60180818983905821
S11341A09A832B8343E0BE016F5F7F4FC60164DEB9
S11341B038C068964FAD689750E0542F44276996ED
S11341C08FAD6997480F511DF60192839630E1F047
S11341D0903161F0933029F58E010F5F1F4F6B967C
S11341E02FAD6B976081C601C8DE18C0CE01019661
S11341F07C018E010B5A1F4F6B962FAD6B97F60106
S11342006081C6014CDE0AC08E010F5F1F4F9E0104
S11342102B5A3F4FF6016081C6017ADE182F01C088
S113422010E0812FC458DF4F0FB6F894DEBF0FBEE5
S1134230CDBFDF91CF911F910F91FF90EF90DF9051
S1134240CF90BF90AF909F908F907F906F905F9032
S11342504F90089508951F920F920FB60F92112454
S11342602F933F934F935F936F937F938F939F937A
S1134270AF93BF93EF93FF93E0910801F09109018D
S11342800995FF91EF91BF91AF919F918F917F918C
S11342906F915F914F913F912F910F900FBE0F90AF
S11342A01F90189597FB072E16F4009406D077FDFF
S11342B008D033D007FC05D03EF4909581959F4FEC
S11342C00895709561957F4F0895A1E21A2EAA1B57
S11342D0BB1BFD010DC0AA1FBB1FEE1FFF1FA217B2
S11342E0B307E407F50720F0A21BB30BE40BF50BAF
S11342F0661F771F881F991F1A9469F76095709538
S1134300809590959B01AC01BD01CF010895EE0FFE
S1134310FF1F0590F491E02D0994AA1BBB1B51E1EA
S113432007C0AA1FBB1FA617B70710F0A61BB70B21
S1134330881F991F5A95A9F780959095BC01CD01C6
S113434008955058BB27AA270ED075C166D130F006
S11343506BD120F031F49F3F11F41EF45BC10EF4D5
S1134360E095E7FB51C1E92F77D180F3BA176207D3
S113437073078407950718F071F49EF58FC10EF446
S1134380E0950B2EBA2FA02D0B01B90190010C0161
S1134390CA01A0011124FF27591B99F0593F50F479
S11343A0503E68F11A16F040A22F232F342F4427D1
S11343B0585FF3CF469537952795A795F0405395C9
S11343C0C9F77EF41F16BA0B620B730B840BBAF099
S11343D09150A1F0FF0FBB1F661F771F881FC2F704
S11343E00EC0BA0F621F731F841F48F48795779518
S11343F06795B795F7959E3F08F0B3CF9395880FCF
S113440008F09927EE0F979587950895D9D008F469
S113441081E008950CD00FC107D140F0FED030F0F8
S113442021F45F3F19F0F0C0511139C1F3C014D128
S113443098F39923C9F35523B1F3951B550BBB2767
S1134440AA2762177307840738F09F5F5F4F220F14
S1134450331F441FAA1FA9F333D00E2E3AF0E0E80D
S113446030D091505040E695001CCAF729D0FE2F59
S113447027D0660F771F881FBB1F261737074807EB
S1134480AB07B0E809F0BB0B802DBF01FF279358A1
S11344905F4F2AF09E3F510568F0B6C000C15F3FF0
S11344A0ECF3983EDCF3869577956795B795F79589
S11344B09F5FC9F7880F911D9695879597F9089581
S11344C0E1E0660F771F881FBB1F6217730784071D
S11344D0BA0720F0621B730B840BBA0BEE1F88F72C
S11344E0E095089504D06894B111D9C00895BCD062
S11344F088F09F5790F0B92F9927B751A0F0D1F0C9
S1134500660F771F881F991F1AF0BA95C9F712C052
S1134510B13081F0C3D0B1E00895C0C0672F782FC7
S11345208827B85F39F0B93FCCF3869577956795BE
S1134530B395D9F73EF490958095709561957F4F2A
S11345408F4F9F4F0895E89409C097FB3EF49095D0
S11345508095709561957F4F8F4F9F4F9923A9F058
S1134560F92F96E9BB279395F695879577956795E7
S1134570B795F111F8CFFAF4BB0F11F460FF1BC02B
S11345806F5F7F4F8F4F9F4F16C0882311F096E9BE
S113459011C0772321F09EE8872F762F05C066236C
S11345A071F096E8862F70E060E02AF09A95660F25
S11345B0771F881FDAF7880F9695879597F90895DE
S11345C0990F0008550FAA0BE0E8FEEF1616170620
S11345D0E807F907C0F012161306E407F50798F088
S11345E0621B730B840B950B39F40A2661F0232BA1
S11345F0242B252B21F408950A2609F4A140A6951D
S11346008FEF811D811D089597F99F6780E870E001
S113461060E008959FEF80EC089500240A94161634
S1134620170618060906089500240A94121613069C
S1134630140605060895092E0394000C11F488232A
S113464052F0BB0F40F4BF2B11F460FF04C06F5F46
S11346507F4F8F4F9F4F089557FD9058440F551F1C
S113466059F05F3F71F04795880F97FB991F61F0F0
S11346709F3F79F087950895121613061406551F67
S1134680F2CF4695F1DF08C0161617061806991FD3
S1134690F1CF86957105610508940895E894BB27C8
S11346A066277727CB0197F908958ADF08F48FEFFF
S11346B008950AD029ED3BE54EED5EE345C00EF0CA
S11346C065C1A8CF6894A0CFCFDFC8F39923D1F3F5
S11346D0C6F3DF93CF931F930F93FF92C92FDD2768
S11346E088232AF02197660F771F881FDAF720E0C6
S11346F030E040E85FEB9FE3883920F0803E30F003
S113470021968F771FDEE4E8F0E003C01BDEE1EBC7
S1134710F0E051D18B01BE01EC01FB2E6F57710902
S11347207595771F880B990B10DF28E132E741E379
S11347305FE316D0AF2D9801AE01FF900F911F914A
S1134740CF91DF9110DE77CF0BD075CF66DF28F0E5
S11347506BDF18F0952309F057CF5CCF11249FCF5E
S11347607BDFA0F3959FD1F3950F50E0551F629F17
S1134770F001729FBB27F00DB11D639FAA27F00DB6
S1134780B11DAA1F649F6627B00DA11D661F829FDD
S11347902227B00DA11D621F739FB00DA11D621FC2
S11347A0839FA00D611D221F749F3327A00D611DDF
S11347B0231F849F600D211D822F762F6A2F1124C1
S11347C09F5750408AF0E1F088234AF0EE0FFF1F14
S11347D0BB1F661F771F881F91505040A9F79E3F4B
S11347E0510570F011CF5BCF5F3FECF3983EDCF3E3
S11347F0869577956795B795F795E7959F5FC1F788
S1134800FE2B880F911D9695879597F90895FA01C7
S1134810EE0FFF1F30962105310599F161157105E1
S113482061F48038BFE39B0749F1689490388105AF
S113483061F08038BFEF9B0741F0992342F5FF3FB9
S1134840E1053105210511F1E8940894E795D901B2
S1134850AA2329F4AB2FBE2FF85FD0F310C0FF5F5B
S113486070F4A695E0F7F73950F019F0FF3A38F4F0
S11348709F779F930CD00F9007FC905808953EF0BB
S1134880C9CE60E070E080E89FE308954FE79F772A
S11348905F934F933F932F9317DF2F913F914F9146
S11348A05F9152DF47C011F40EF4B4CE6FC0DCDE6A
S11348B0D0F39923D9F3CEF39F57550B87FF74D0C8
S11348C00024A0E640EA900180585695979528F474
S11348D0805C660F771F881F20F02617370748076C
S11348E030F4621B730B840B202931294A2BA695C3
S11348F017940794202531254A2758F7660F771F08
S1134900881F20F026173707480730F4620B730B13
S1134910840B200D311D411DA09581F7B901842F11
S11349209158880F96958795089519F40EF06CCEDA
S1134930B5CE70CE99DEC8F39638C0F707F80F925B
S1134940E8942BE33AEA48EB5FE70CDF0F920F920F
S11349500F924DB75EB70F9290D0EEEDF0E02BD0F2
S11349604F915F91EF91FF91E595EE1FFF1F49F085
S1134970FE57E0684427EE0F441FFA95E1F741958E
S1134980550B47D00F9007FE3BC008959F3F31F071
S1134990915020F4879577956795B795880F911D69
S11349A09695879597F9089591505040660F771F13
S11349B0881FD2F70895DF93CF931F930F93FF922D
S11349C0EF92DF927B018C01689405C0DA2EEF012F
S11349D0C7DEFE01E894A591259135914591559145
S11349E0AEF3EF01C0DCFE019701A801DA9479F778
S11349F0DF90EF90FF900F911F91CF91DF91089579
S1134A009B01AC0160E070E080E89FE303CDFCCD46
S1134A10BDCF2ADEE8F39923D9F3940F511DBBF3DC
S1134A209150504094F059F0882332F0660F771F6C
S1134A30881F91505040C1F79E3F510544F7880F9D
S1134A40911D9695879597F908955F3FACF0983E30
S1134A509CF0BB27869577956795B79508F4B16068
S1134A609395C1F7BB0F58F711F460FFE8CF6F5F60
S1134A707F4F8F4F9F4FE3CF12CEFA01DC01AA0F75
S1134A80BB1F9B01AC01BF5728F4222733274427BF
S1134A9050781FC0B75188F4AB2F00244695379542
S1134AA02795011CA395D2F3002069F0220F331F30
S1134AB0441FB395DAF30DD044CC61307105A0E8FE
S1134AC08A07B94630F49B01AC016627772788270B
S1134AD09078309621F02083318342835383089564
S1134AE0F999FECF92BD81BDF89A992780B50895B2
S1134AF0262FF999FECF1FBA92BD81BD20BD0FB6F6
S1134B00F894FA9AF99A0FBE01960895F894FFCF93
S1134B1028073F88130101FF2A216009C01280255C
S1134B204038004B0096C0DA0000003F0000003F10
S1134B300000003F8FC2F53C8FC2F53C8FC2F53CAC
S1134B40000000005314E115F91328140C14481440
S1134B5000000000BF199319311939194D195C1956
S9030000FC
