:10000000ADC000000C94741F0C94A11FCFC0000061
:10001000CDC00000CBC00000C9C000000C94DF1CA4
:10002000C5C00000C3C000000C94ED230C94042351
:100030000C94CB240C941928B9C00000B7C0000060
:100040000C943021B3C000000C94321B0C94731B31
:100050000C940526ABC00000A9C00000A7C000009A
:100060000C944A1EA3C0000044184A184C184F189C
:100070006318221A8E18A9189018AB18F318F718DD
:10008000221A2D1908000000BE922449123EABAA84
:10009000AA2ABECDCCCC4C3E00000080BEABAAAAA2
:1000A000AA3E00000000BF000000803F00000000EA
:1000B00000084178D3BB4387D1133D190E3CC3BD23
:1000C0004282AD2B3E68EC8276BED98FE1A93E4CD0
:1000D00080EFFFBE01C4FF7F3F0000000000076308
:1000E0004236B79BD8A71A39685618AEBAAB558CAA
:1000F0001D3CB7CC5763BD6DEDFD753EF6177231F3
:10010000BF000000803F0200000007000201000065
:1001100003040600000000000000000102040810B3
:10012000204080010204081020010204081020046D
:10013000040404040404040202020202020303038E
:1001400003030300000000250028002B000000002E
:1001500000240027002A0000371C2D2111241FBE77
:10016000CFEFD8E0DEBFCDBF11E0A0E0B1E0ECEE14
:10017000F8E502C005900D92AE34B107D9F725E03D
:10018000AEE4B1E001C01D92A637B207E1F710E07E
:10019000CEEAD0E004C02197FE010E947528CC3A37
:1001A000D107C9F70E94731C0C94742C29CF0C94AE
:1001B0005E2C0C94662CCF92DF92EF92FF920F93FD
:1001C0001F93CF93DF93E1E0E0936D01E0E7F2E06E
:1001D000C0EDD2E0A0EACA2EA2E0DA2E61937193BC
:1001E000819391932993399349935993D601ED9231
:1001F000FD920D931D936D01B2E0E438FB0771F79A
:10020000EBEFF1E0A3E1B2E06193719381939193FD
:10021000AE17BF07C9F7E7E1F2E0AFE2B2E0219322
:10022000319341935193AE17BF07C9F7E3E3F2E06F
:10023000ABE4B2E0E192F19201931193AE17BF07E4
:10024000C9F76093500270935102809352029093C9
:100250005302209354023093550240935602509318
:100260005702E0925802F092590200935A021093FA
:100270005B02DF91CF911F910F91FF90EF90DF9084
:10028000CF90089580914F028F5F863018F480934D
:100290004F0202C010924F0220914F02A0E6B2E03E
:1002A00084E0289F9001112480E090E04D915D91C1
:1002B0006D917D91FC01E20FF31FE550FE4F4083ED
:1002C0005183628373834C968435910579F7089541
:1002D0008F929F92AF92BF92CF92DF92EF92FF9256
:1002E00080916A018111EEC0C0901903D0901A0369
:1002F000E0901B03F0901C0320E030E0A901C7014F
:10030000B6010E94F42887FF09C080918B03909169
:100310008C03816090938C0380938B0320E030E406
:100320004CE955E4C701B6010E94432A18164CF463
:1003300080918B0390918C03826090938C038093C7
:100340008B0320E030E44CE156E4C701B6010E9483
:10035000432A181654F020E030E048EC52ECC70174
:10036000B6010E94F42887FF09C080918B03909109
:100370008C03846090938C0380938B03C09015034F
:10038000D0901603E0901703F090180320E030E0BF
:1003900040E752ECC701B6010E94F42887FF09C06C
:1003A00080918B0390918C03886090938C03809351
:1003B0008B0320E030E040EA52E4C701B6010E941E
:1003C000432A18164CF480918B0390918C03806122
:1003D00090938C0380938B03C0905603D090570367
:1003E000E0905803F09059036091550370E080E06D
:1003F00090E00E949329A70196010E94F42887FFAC
:1004000009C080918B0390918C03806490938C033E
:1004100080938B036091540370E080E090E00E9431
:1004200093299B01AC01C701B6010E94432A18160B
:100430004CF480918B0390918C03806890938C0393
:1004400080938B0360914F0370E080E090E00E9406
:1004500093294B015C01C0905003D0905103E09070
:100460005203F0905303A70196010E94432A1816E5
:100470004CF480918B0390918C03986090938C0343
:1004800080938B03A7019601C501B4010E94F42853
:1004900087FF18C060914E0370E080E090E00E94FA
:1004A00093299B01AC01C701B6010E94F42887FF84
:1004B00009C080918B0390918C03906190938C0381
:1004C00080938B0380910803882349F080918B03EC
:1004D00090918C03906290938C0380938B03FF9098
:1004E000EF90DF90CF90BF90AF909F908F90089546
:1004F0002F923F924F925F926F927F928F929F9234
:10050000AF92BF92CF92DF92EF92FF920F931F9321
:10051000CF93DF93CDB7DEB728970FB6F894DEBF41
:100520000FBECDBF80E692E09A838983E0E5F2E0DA
:10053000F887EF8381E291E09C838B83E5E1F1E032
:10054000FE83ED833BEF232E31E0332EE12CF12CA3
:10055000612C80E5782E93EC892E27E4922EA12C35
:10056000B12C0AE714ECF101EE0DFF1D5080C180A3
:10057000D28043809501A801652D7C2D8D2D942D71
:100580000E94432A181624F4A52CBC2C0D2D142DE2
:100590009301A401652D7C2D8D2D942D0E94F428AE
:1005A00087FF04C0652C7C2C8D2C942CF4E0EF0E7E
:1005B000F11C24E1E216F104B1F6EF81F885C08068
:1005C000D180E280F38024EA30E74DE75FE3B301B6
:1005D000C4010E94922AA70196010E94F42887FF75
:1005E00011C02EEA37E441E85FE3B501C8010E947B
:1005F000922AA70196010E94432A18161CF4EB8147
:10060000FC8102C0ED81FE8180809180A280B38058
:10061000E981FA816191719181919191FA83E983E4
:10062000A70196010E948F28A50194010E94922A99
:10063000A70196010E949028EF81F885619371933C
:1006400081939193F887EF838B819C8104969C839F
:100650008B83ED81FE813496FE83ED83FCE12F0ECA
:10066000311C89819A818C56924009F06FCF28966F
:100670000FB6F894DEBF0FBECDBFDF91CF911F91B3
:100680000F91FF90EF90DF90CF90BF90AF909F9031
:100690008F907F906F905F904F903F902F90089534
:1006A0000FB6F894A89580916000886180936000EF
:1006B000109260000FBE98E088E10FB6F894A895FC
:1006C000809360000FBE90936000FFCF8091DF01A8
:1006D0009091E001A091E101B091E2014091D3013C
:1006E0005091D4016091D5017091D601841B950B76
:1006F000A60BB70B89389341A105B10558F098E0D6
:1007000088E10FB6F894A895809360000FBE90938F
:100710006000FFCF08950F931F938091DF019091A8
:10072000E001A091E101B091E2014091D701509127
:10073000D8016091D9017091DA018C019D01041BEF
:10074000150B260B370BB901A801453F5140610538
:10075000710578F08093D7019093D801A093D901C7
:10076000B093DA0180916B01811103C081E0809325
:100770006B011F910F910895FC018FEF21E3662318
:1007800069F09191892798E087FF03C0880F82273D
:1007900001C0880F9150C1F76150F1CF08952F9299
:1007A0003F924F925F926F927F928F929F92AF9201
:1007B000BF92CF92DF92EF92FF920F931F93CF934E
:1007C000DF93A0911D03E4E0AE9FE0011124FE0140
:1007D000E059FD4F6083718382839383FE01E05370
:1007E000FD4F2083318342835383FE01E056FD4F4A
:1007F000E082F1820283138381E08A0F853018F44E
:1008000080931D0302C010921D03C0E7D2E000EDEB
:1008100012E080EA282E82E0382EC12CD12C7601FD
:100820004601570126013701299139914991599182
:10083000C301B2010E9490282B013C01F8012191D3
:100840003191419151918F01C501B4010E949028CD
:100850004B015C01F10121913191419151911F01B5
:10086000C701B6010E9490286B017C01F2E0C438F8
:10087000DF07D1F62DEC3CEC4CE45EE3C301B201A2
:100880000E94922A609360027093610280936202D8
:10089000909363022DEC3CEC4CE45EE3C501B401A3
:1008A0000E94922A609364027093650280936602AC
:1008B000909367022DEC3CEC4CE45EE3C701B6017B
:1008C0000E94922A609368027093690280936A0280
:1008D00090936B02DF91CF911F910F91FF90EF905A
:1008E000DF90CF90BF90AF909F908F907F906F9050
:1008F0005F904F903F902F9008950F931F93E0913A
:10090000EE01E150E73050F4F0E0EE0FFF1FE95F39
:10091000FE4F4081518160E070E004C040E855E244
:1009200060E070E08091ED01813011F026E001C0BF
:1009300026E230E009EE13E080E993E00E942025F2
:100940006FED76E080E993E00E94B125809103018C
:10095000809390031F910F910895CF93DF9300D060
:1009600000D0CDB7DEB769837A838B839C8350E058
:10097000440F551FFE01E40FF51F828190E0982F70
:100980008827FE01E40FF51F2181822B0F900F9025
:100990000F900F90DF91CF9108951F93CF93DF9326
:1009A000162FC82FD0E0CE0102DC811731F08F3F27
:1009B00021F4612FCE01FDDB812FDF91CF911F91BB
:1009C00008957F928F929F92AF92BF92CF92DF92C3
:1009D000EF92FF920F931F93CF93DF9300D000D03D
:1009E000CDB7DEB77A018B016C015E0185E0A80E00
:1009F000B11CFE0131964F01712CC601D8DBF50107
:100A000082935F01C601D3DB8F3F09F47394FFEF3C
:100A1000CF1ADF0AA814B90481F784E0781629F008
:100A200049815A813B812C8103C0A701302F212F9E
:100A3000BA01832F922F0F900F900F900F90DF919C
:100A4000CF911F910F91FF90EF90DF90CF90BF90CB
:100A5000AF909F908F907F900895FF920F931F9378
:100A6000CF93DF938C01F62ED72FA1DBC82FC801BF
:100A700001969DDBCF3F29F48F3F19F48F2D9D2FD9
:100A800002C08C2B90E0DF91CF911F910F91FF90CE
:100A900008951F93CF93DF93EC01172F8ADB612F0B
:100AA000CE010196DF91CF911F9183CB0F931F93BE
:100AB000CF93DF938C017BDBC82FC801019677DBD6
:100AC000D0E0D82BCF3F8FEFD80711F4C0E0D0E0B3
:100AD000C80102966CDB811102C0CE0104C08827D8
:100AE00099278C1B9D0BDF91CF911F910F9108953A
:100AF000CF92DF92EF92FF9261E084E64EDF809327
:100B0000030163E085E649DF8093EE0160E086E65D
:100B100044DF8093ED0169E672E088E690E09DDFB6
:100B20009093EA018093E90160E089E636DF8093E3
:100B3000EB016AEA7AEA8AE690E08FDF9093F201AD
:100B40008093F1016AEA7AEA8CE690E086DF90937E
:100B5000F0018093EF0160E080E71FDF8093EC01FC
:100B600060E081E71ADF80938D014BEC51EA65EC80
:100B700070E482E890E025DF6093E5017093E60180
:100B80008093E7019093E80165E886E806DF8093AB
:100B9000550360E587E801DF809354036CE388E840
:100BA000FCDE80934E0362E389E8F7DE80934F0317
:100BB0008AE890E07BDFBC01990F880B990B0E94BB
:100BC00093292DEC3CEC4CEC5DE30E94922A60935F
:100BD00088017093890180938A0190938B018DE83D
:100BE00090E064DFBC01990F880B990B0E94932958
:100BF0002AE037ED43E25CE30E94922A609384018D
:100C000070938501809386019093870180E990E03D
:100C10004DDFBC01990F880B990B0E9493292FE699
:100C200032E143E85AE30E94922A6B017C0120E002
:100C300030E0A9010E94F428882349F0C092800185
:100C4000D0928101E0928201F09283010CC080E099
:100C500090E0A0E8BFE38093800190938101A0938E
:100C60008201B093830161E084E997DE80937F0184
:100C700064E185E992DE80937E0166E373E386E9B1
:100C800090E0EBDE90937D0180937C0166E676E058
:100C900088E990E0E2DE90937B0180937A0183E320
:100CA0009AEFA1EDBAE38093760190937701A09338
:100CB0007801B093790140E050E060EA71EC8AE994
:100CC00090E07FDE609372017093730180937401F2
:100CD0009093750160E08FE960DE80938D03FF9053
:100CE000EF90DF90CF9008950FB6F894A89580917B
:100CF0006000886180936000109260000FBE9FE0EA
:100D000088E10FB6F894A895809360000FBE909389
:100D10006000EEDE61E082E00E949A2260E082E004
:100D20000E94D62261E083E00E949A2261E085E081
:100D30000E949A2261E086E00E949A2260E086E0AA
:100D40000E94D622DADD62E370E080E090E00E944B
:100D5000AB2180EC94E00E949A2040EA56E861E0E2
:100D600070E080EC94E00E94A9204AE050E060E04E
:100D700070E080EC94E00E94A61CA8950895FF9274
:100D80000F931F93CF93DF938C01EB0177FF06C086
:100D9000D195C195D109FF24F39401C0F12C6C2F9A
:100DA000C80107DA6D2FC801019603DA6F2DC8015B
:100DB0000296DF91CF911F910F91FF90FAC92F9268
:100DC0003F924F925F926F927F928F929F92AF92DB
:100DD000BF92CF92DF92EF92FF920F931F93CF9328
:100DE000DF9300D000D000D0CDB7DEB77C01962EC7
:100DF0001A01690180919203BB24B394803119F0E8
:100E0000863009F0B12C8091DF019091E001A09132
:100E1000E101B091E2018093D3019093D401A093BA
:100E2000D501B093D6018D2C092D172FAA24A39498
:100E3000C6010D2C000CAA0BBB0B89839A83AB83D4
:100E4000BC83402F902F9919A92FB0E0BE83AD83AA
:100E5000A215B30514F00C94B9140536110509F464
:100E60009FC70CF03CC20D31110509F4AEC50CF062
:100E70001CC10E30110509F4AFC40CF08BC0063054
:100E8000110509F419C40CF044C00230110509F42D
:100E9000CBC30CF50115110509F4AEC301301105E2
:100EA00011F00C94AA142D813E81220F331F2E0DB8
:100EB0003F1D3E832D836091820370918303809157
:100EC00084039091850341E048DDAD81BE818D931F
:100ED0009C930C94B5140430110509F4BDC30CF0B7
:100EE000D3C3ED81FE81EE0FFF1FEE0DFF1DFE83CC
:100EF000ED8360917E0370917F03809180039091D8
:100F0000810341E02ADDAD81BE818D939C930C94D9
:100F1000B5140A30110509F417C4F4F408301105AA
:100F200009F4E2C30CF0F8C3ED81FE81EE0FFF1F60
:100F3000EE0DFF1DFE83ED836091860370918703A4
:100F4000809188039091890341E007DDAD81BE81E6
:100F50008D939C930C94B5140C30110509F40CC4BA
:100F60000CF022C4ED81FE81EE0FFF1FEE0DFF1D80
:100F7000FE83ED836091720370917303809174031B
:100F80009091750341E0E9DCAD81BE818D939C9326
:100F90000C94B5140531110509F486C40CF044C055
:100FA0000131110509F448C40CF50F30110509F49D
:100FB0002BC40031110511F00C94AA14ED81FE81AF
:100FC000EE0FFF1FEE0DFF1DFE83ED8360915A03B0
:100FD00070915B0380915C0390915D0340E0BDDC08
:100FE000AD81BE818D939C930C94B5146091560392
:100FF0007091570380915803909159030331110563
:1010000009F432C40CF040C4ED81FE81EE0FFF1FE5
:10101000EE0DFF1DFE83ED8340E09FDCAD81BE81C0
:101020008D939C930C94B5140931110509F484C473
:10103000F4F40731110509F44FC40CF065C4ED81D7
:10104000FE81EE0FFF1FEE0DFF1DFE83ED8360910D
:10105000500370915103809152039091530340E0EB
:101060007CDCAD81BE818D939C930C94B5140B31C7
:10107000110509F47AC40CF090C4ED81FE81EE0FE5
:10108000FF1FEE0DFF1DFE83ED8360913203709113
:101090003303809134039091350340E05EDCAD81F1
:1010A000BE818D939C930C94B5140634110509F4FC
:1010B00094C50CF09AC00033110509F4FEC40CF07D
:1010C00049C00832110509F4B0C40CF50E31110500
:1010D00009F493C40F31110511F00C94AA14ED8199
:1010E000FE81EE0FFF1FEE0DFF1DFE83ED8360916D
:1010F000360370913703809138039091390341E0B2
:101100002CDCAD81BE818D939C930C94B5140A3276
:10111000110509F4BAC40CF4A0C40B32110511F086
:101120000C94AA14ED81FE81EE0FFF1FEE0DFF1D42
:10113000FE83ED836091260370912703809128033D
:101140009091290341E009DCAD81BE818D939C9390
:101150000C94B5140C33110509F4F7C41CF50A33CB
:10116000110509F4C2C40CF0D8C40133110511F003
:101170000C94AA14ED81FE81EE0FFF1FEE0DFF1DF2
:10118000FE83ED8360910D0370910E0380910F0338
:101190009091100341E0E1DBAD81BE818D939C9382
:1011A0000C94B5140E33110509F4FFC40CF4E5C416
:1011B0000F33110511F00C94AA14ED81FE81EE0F8E
:1011C000FF1FEE0DFF1DFE83ED83609142037091C2
:1011D0004303809144039091450341E0BEDBAD8120
:1011E000BE818D939C930C94B5140E34110509F4B3
:1011F00084C50CF041C00A34110509F436C5F4F475
:101200000834110509F401C50CF017C5ED81FE8104
:10121000EE0FFF1FEE0DFF1DFE83ED83609119039E
:1012200070911A0380911B0390911C0341E095DBA0
:10123000AD81BE818D939C930C94B5140C34110533
:1012400009F42BC50CF041C5ED81FE81EE0FFF1FA7
:10125000EE0DFF1DFE83ED8360916E0370916F03B1
:10126000809170039091710341E077DBAD81BE8185
:101270008D939C930C94B5140235110509F462C545
:10128000ACF40035110509F444C50CF04EC52D81B0
:101290003E81220F331F2E0D3F1D809167019091DB
:1012A0006801D9018D939C930C94B51403361105F4
:1012B00009F455C50CF05CC50335110511F00C940B
:1012C000AA142D813E81220F331F2E0D3F1D8091C8
:1012D0008A0390E0D9018D939C930C94B5140C393A
:1012E000110511F40C9453130CF089C00938110541
:1012F00009F4C4C60CF048C00F36110509F4E2C564
:1013000034F50936110509F48EC554F40636110575
:1013100009F45BC50836110509F46DC50C94AA14CF
:101320000B36110509F4B1C50CF493C50E36110541
:1013300011F00C94AA14ED81FE81EE0FFF1FEE0D4B
:10134000FF1D25E030E0318320830C94B514033871
:10135000110509F41EC664F40137110509F4D8C556
:101360000CF4BCC50238110509F4EBC50C94AA14A1
:101370000738110509F459C60CF06CC6063811057A
:1013800009F43FC60C94AA140439110511F40C9405
:10139000E811DCF40C38110509F4FDC654F40A38E0
:1013A000110509F480C60B38110509F4B8C60C9470
:1013B000AA140E38110509F481C70CF428C70F3898
:1013C000110509F4CCC70C94AA140839110511F4BD
:1013D0000C94C31254F40639110511F40C946512DF
:1013E00014F40C9427120C94A7120A39110511F465
:1013F0000C94231314F40C94EB120C943B13083C40
:10140000110511F40C94DE130CF06CC00C3B1105AB
:1014100011F40C94A7136CF50A3B11058CF4043BF2
:10142000110514F00C948B130D39110511F40C9463
:101430005F130E39110511F40C946D130C94AA145A
:101440000A3B110511F40C949A130B3B110511F092
:101450000C94AA142D813E81220F331F2E0D3F1DA7
:101460008091040390910503D9018D939C930C9472
:10147000B514043C1105CCF4023C110514F00C9495
:10148000C6130D3B110511F00C94B4132D813E8150
:10149000220F331F2E0D3F1D8091000390910103F9
:1014A000D9018D939C930C94B514063C110514F04E
:1014B0000C94AA14ED81FE81EE0FFF1FEE0DFF1DAF
:1014C000FE83ED83445C6091F3017091F40180919F
:1014D000F5019091F60141DAAD81BE818D939C9327
:1014E0000C94B5140231E2E01E0711F40C941B14A5
:1014F0000CF040C0073B21E012070CF5003931E049
:10150000130714F00C940C140A3C110511F40C94FC
:10151000F81314F40C94EB130F3881E0180711F052
:101520000C94AA14ED81FE81EE0FFF1FEE0DFF1D3E
:101530008091630190E0918380830C94B514C8017D
:10154000825C91408731910510F00C94AA14ED81D2
:10155000FE81EE0FFF1FEE0DFF1DFE83ED83FC01EC
:10156000EE56FE4F808190E0AD81BE818D939C93BD
:101570000C94B514023592E0190711F40C9463141D
:101580003CF50431B2E01B0711F40C944B1414F435
:101590000C9433140531F2E01F0711F00C94AA14D7
:1015A000ED81FE81EE0FFF1FEE0DFF1DFE83ED832B
:1015B00060911103709112038091130390911403B1
:1015C00041E0CBD9AD81BE818D939C930C94B51431
:1015D000003223E0120711F40C948B14043833E02A
:1015E000130711F40C94A314083582E0180711F0C6
:1015F0000C94AA140C947414AD81BE81AA0FBB1F65
:10160000AE0DBF1DBE83AD836091820370918303D5
:10161000809184039091850340E09FD9ED81FE8104
:10162000918380830C94B514ED81FE81EE0FFF1F32
:10163000EE0DFF1DFE83ED8360917E0370917F03AD
:10164000809180039091810340E087D9AD81BE8174
:101650008D939C930C94B514ED81FE81EE0FFF1FCA
:10166000EE0DFF1DFE83ED8360917A0370917B0385
:1016700080917C0390917D0340E06FD9AD81BE8164
:101680008D939C930C94B514ED81FE81EE0FFF1F9A
:10169000EE0DFF1DFE83ED8360917A0370917B0355
:1016A00080917C0390917D0341E057D9AD81BE814B
:1016B0008D939C930C94B514ED81FE81EE0FFF1F6A
:1016C000EE0DFF1DFE83ED8360918603709187030D
:1016D000809188039091890340E03FD9AD81BE811C
:1016E0008D939C930C94B514ED81FE81EE0FFF1F3A
:1016F000EE0DFF1DFE83ED836091760370917703FD
:10170000809178039091790340E027D9AD81BE8123
:101710008D939C930C94B514ED81FE81EE0FFF1F09
:10172000EE0DFF1DFE83ED836091760370917703CC
:10173000809178039091790341E00FD9AD81BE810A
:101740008D939C930C94B514ED81FE81EE0FFF1FD9
:10175000EE0DFF1DFE83ED836091720370917303A4
:10176000809174039091750340E0F7D8AD81BE81FC
:101770008D939C930C94B514ED81FE81EE0FFF1FA9
:10178000EE0DFF1DFE83ED83609162037091630394
:10179000809164039091650340E0DFD8AD81BE8104
:1017A0008D939C930C94B514ED81FE81EE0FFF1F79
:1017B000EE0DFF1DFE83ED83609162037091630364
:1017C000809164039091650341E0C7D8AD81BE81EB
:1017D0008D939C930C94B514ED81FE81EE0FFF1F49
:1017E000EE0DFF1DFE83ED8360915E0370915F033C
:1017F000809160039091610340E0AFD8AD81BE81DC
:101800008D939C930C94B514ED81FE81EE0FFF1F18
:10181000EE0DFF1DFE83ED8360915E0370915F030B
:10182000809160039091610341E097D8AD81BE81C2
:101830008D939C930C94B514ED81FE81EE0FFF1FE8
:10184000EE0DFF1DFE83ED8360915A0370915B03E3
:1018500080915C0390915D0341E07FD8AD81BE81B2
:101860008D939C930C94B514ED81FE81EE0FFF1FB8
:10187000EE0DFF1DFE83ED8341E06FD8AD81BE818B
:101880008D939C930C94B514ED81FE81EE0FFF1F98
:10189000EE0DFF1DFE83ED8340E05FD8AD81BE817C
:1018A0008D939C930C94B514ED81FE81EE0FFF1F78
:1018B000EE0DFF1DFE83ED8360915603709157037B
:1018C000809158039091590341E047D8AD81BE8182
:1018D0008D939C930C94B514ED81FE81EE0FFF1F48
:1018E000EE0DFF1DFE83ED83609150037091510357
:1018F000809152039091530341E02FD8AD81BE8176
:101900008D939C930C94B514ED81FE81EE0FFF1F17
:10191000EE0DFF1DFE83ED8360912E0370912F036A
:10192000809130039091310340E017D8AD81BE81A2
:101930008D939C930C94B514ED81FE81EE0FFF1FE7
:10194000EE0DFF1DFE83ED8360912E0370912F033A
:10195000809130039091310341E00E94AD04AD814C
:10196000BE818D939C930C94B514ED81FE81EE0F96
:10197000FF1FEE0DFF1DFE83ED836091320370911A
:101980003303809134039091350341E00E94AD040C
:10199000AD81BE818D939C93E8C7ED81FE81EE0FF2
:1019A000FF1FEE0DFF1DFE83ED8360911E037091FE
:1019B0001F03809120039091210340E00E94AD0419
:1019C000AD81BE818D939C93D0C7ED81FE81EE0FDA
:1019D000FF1FEE0DFF1DFE83ED8360911E037091CE
:1019E0001F03809120039091210341E00E94AD04E8
:1019F000AD81BE818D939C93B8C7ED81FE81EE0FC2
:101A0000FF1FEE0DFF1DFE83ED8360913603709185
:101A10003703809138039091390340E00E94AD0470
:101A2000AD81BE818D939C93A0C7ED81FE81EE0FA9
:101A3000FF1FEE0DFF1DFE83ED8360912A03709161
:101A40002B0380912C0390912D0340E00E94AD0464
:101A5000AD81BE818D939C9388C7ED81FE81EE0F91
:101A6000FF1FEE0DFF1DFE83ED8360912A03709131
:101A70002B0380912C0390912D0341E00E94AD0433
:101A8000AD81BE818D939C9370C7ED81FE81EE0F79
:101A9000FF1FEE0DFF1DFE83ED8360912603709105
:101AA0002703809128039091290340E00E94AD0410
:101AB000AD81BE818D939C9358C7ED81FE81EE0F61
:101AC000FF1FEE0DFF1DFE83ED8360910D037091EE
:101AD0000E0380910F039091100340E00E94AD042B
:101AE000AD81BE818D939C9340C7ED81FE81EE0F49
:101AF000FF1FEE0DFF1DFE83ED8360914A03709181
:101B00004B0380914C0390914D0340E00E94AD0443
:101B1000AD81BE818D939C9328C7ED81FE81EE0F30
:101B2000FF1FEE0DFF1DFE83ED8360914A03709150
:101B30004B0380914C0390914D0341E00E94AD0412
:101B4000AD81BE818D939C9310C7ED81FE81EE0F18
:101B5000FF1FEE0DFF1DFE83ED8360914603709124
:101B60004703809148039091490340E00E94AD04EF
:101B7000AD81BE818D939C93F8C6ED81FE81EE0F01
:101B8000FF1FEE0DFF1DFE83ED83609146037091F4
:101B90004703809148039091490341E00E94AD04BE
:101BA000AD81BE818D939C93E0C6ED81FE81EE0FE9
:101BB000FF1FEE0DFF1DFE83ED83609142037091C8
:101BC0004303809144039091450340E00E94AD049B
:101BD000AD81BE818D939C93C8C6ED81FE81EE0FD1
:101BE000FF1FEE0DFF1DFE83ED83609119037091C1
:101BF0001A0380911B0390911C0340E00E94AD04E6
:101C0000AD81BE818D939C93B0C6ED81FE81EE0FB8
:101C1000FF1FEE0DFF1DFE83ED8360911503709194
:101C20001603809117039091180340E00E94AD04C1
:101C3000AD81BE818D939C9398C6ED81FE81EE0FA0
:101C4000FF1FEE0DFF1DFE83ED8360911503709164
:101C50001603809117039091180341E00E94AD0490
:101C6000AD81BE818D939C9380C6ED81FE81EE0F88
:101C7000FF1FEE0DFF1DFE83ED8360916E037091DB
:101C80006F03809170039091710340E00E94AD0456
:101C9000AD81BE818D939C9368C6ED81FE81EE0F70
:101CA000FF1FEE0DFF1DFE83ED8360916A037091AF
:101CB0006B0380916C0390916D0340E00E94AD0432
:101CC000AD81BE818D939C9350C6ED81FE81EE0F58
:101CD000FF1FEE0DFF1DFE83ED8360916A0370917F
:101CE0006B0380916C0390916D0341E00E94AD0401
:101CF000AD81BE818D939C9338C6ED81FE81EE0F40
:101D0000FF1FEE0DFF1D8091690190E0918380839C
:101D10002CC6ED81FE81EE0FFF1FEE0DFF1D8091A1
:101D20006A0190E09183808320C62D813E81220F3D
:101D3000331F2E0D3F1D8091660190E0D9018D93D8
:101D40009C9313C6ED81FE81EE0FFF1FEE0DFF1D6C
:101D500080916401909165019183808306C6ED8135
:101D6000FE81EE0FFF1FEE0DFF1DD182C082FDC56B
:101D7000BB2049F0C0920301C09290036C2D84E611
:101D800090E00E94D9002D813E81220F331F2E0D3D
:101D90003F1D8091030190E0D9018D939C93E5C58F
:101DA000BB2039F0C092EE016C2D85E690E00E94D8
:101DB000D900ED81FE81EE0FFF1FEE0DFF1D80911A
:101DC000EE0190E091838083D0C5BB2039F0C092B2
:101DD000ED016C2D86E690E00E94D9002D813E81B8
:101DE000220F331F2E0D3F1D8091ED0190E0D90190
:101DF0008D939C93BAC5BB2049F0D092EA01C09262
:101E0000E901B60188E690E00E944905ED81FE8176
:101E1000EE0FFF1FEE0DFF1D8091E9019091EA0189
:101E200091838083A2C5BB2039F0C092EB016C2D59
:101E300089E690E00E94D9002D813E81220F331F58
:101E40002E0D3F1D8091EB0190E0D9018D939C9365
:101E50008CC5BB2069F08091D201882349F0D092D3
:101E6000F001C092EF01B6018CE690E00E944905B6
:101E70008091EF019091F001ED81FE81EE0FFF1F47
:101E8000EE0DFF1D9183808370C5BB2069F08091AA
:101E9000D201882349F0D092F201C092F101B6013B
:101EA0008AE690E00E9449058091F1019091F2014B
:101EB0002D813E81220F331F2E0D3F1DD9018D93A1
:101EC0009C9353C58D819E81880F991F8E0D9F1DF8
:101ED000EFE0F0E0DC01ED93FC9347C5BB2059F047
:101EE0008091D201882339F0C092EC016C2D80E7FB
:101EF00090E00E94D9002D813E81220F331F2E0DCC
:101F00003F1D8091EC0190E0D9018D939C932DC5EC
:101F1000BB2059F08091D201882339F0C0928D0105
:101F20006C2D81E790E00E94D900ED81FE81EE0FDB
:101F3000FF1FEE0DFF1D80918D0190E09183808346
:101F400014C5BB2071F08091D201882351F0682D17
:101F500084E890E00E94D9006C2D85E890E00E9412
:101F6000D9002D813E81220F331F2E0D3F1D3E8350
:101F70002D836091E5017091E6018091E7019091D8
:101F8000E80140E00E94AD04AD81BE818D939C9339
:101F9000ECC4BB20F1F08091D2018823D1F0682DF0
:101FA00082E890E00E94D9006C2D83E890E00E94C6
:101FB000D9004BEC51EA65EC70E482E890E00E94B5
:101FC000E1046093E5017093E6018093E70190934B
:101FD000E801ED81FE81EE0FFF1FEE0DFF1DFE8378
:101FE000ED836091E5017091E6018091E7019091A8
:101FF000E80141E00E94AD04AD81BE818D939C93C8
:10200000B4C4BB2031F06091550386E890E00E9493
:10201000D900ED81FE81EE0FFF1FEE0DFF1D8091B7
:10202000550390E091838083A0C4BB2031F0609180
:10203000540387E890E00E94D9002D813E81220F51
:10204000331F2E0D3F1D8091540390E0D9018D93D5
:102050009C938BC4BB2031F060914E0388E890E0E4
:102060000E94D900ED81FE81EE0FFF1FEE0DFF1DD6
:1020700080914E0390E09183808377C4BB2031F040
:1020800060914F0389E890E00E94D9002D813E8144
:10209000220F331F2E0D3F1D80914F0390E0D90179
:1020A0008D939C9362C4BB20E9F08091D201882378
:1020B000C9F069817A818B819C810E9493292DECE2
:1020C0003CEC4CEC5DE30E94922A60938801709393
:1020D000890180938A0190938B01B6018AE890E090
:1020E0000E94BF06ED81FE81EE0FFF1FEE0DFF1D6A
:1020F000FE83ED8320E030E040E251E4609188010E
:102100007091890180918A0190918B010E94922A9D
:102110000E946029AD81BE816D937C9326C4BB2053
:10212000E9F08091D2018823C9F069817A818B819D
:102130009C810E9493292AE037ED43E25CE30E94F0
:10214000922A609384017093850180938601909315
:102150008701B6018DE890E00E94BF06ED81FE8107
:10216000EE0FFF1FEE0DFF1DFE83ED8320E030E03C
:1021700048EC52E460918401709185018091860160
:10218000909187010E94922A0E946029AD81BE81B0
:102190006D937C93EAC3BB20E9F08091D201882340
:1021A000C9F069817A818B819C810E9493292FE6F5
:1021B00032E143E85AE30E94922A609380017093CF
:1021C00081018093820190938301B60180E990E0C0
:1021D0000E94BF06ED81FE81EE0FFF1FEE0DFF1D79
:1021E000FE83ED8320E030E04AE754E46091800113
:1021F0007091810180918201909183010E94922AC5
:102200000E946029AD81BE816D937C93AEC3BB20DB
:10221000C1F18091D2018823A1F169817A818B81FA
:102220009C810E9493292AE037ED43E25CE30E94FF
:10223000922A20918401309185014091860150912C
:1022400087010E948F282091660330916703409197
:102250006803509169030E94F8286093800170938D
:102260008101809382019093830120E030E04AE76E
:1022700054E40E94922A0E94602980E990E00E9422
:10228000BF06ED81FE81EE0FFF1FEE0DFF1DFE83E9
:10229000ED8320E030E04AE754E4609180017091E2
:1022A000810180918201909183010E94922A0E9473
:1022B0006029AD81BE816D937C9357C3BB2091F1A2
:1022C0008091D201882371F12091660330916703D8
:1022D0004091680350916903609180017091810180
:1022E00080918201909183010E94922A9B01AC010E
:1022F0006AE077ED83E29CE30E948F28609384017B
:1023000070938501809386019093870120E030E0EF
:1023100048EC52E40E94922A0E9460298DE890E0E5
:102320000E94BF06ED81FE81EE0FFF1FEE0DFF1D27
:10233000FE83ED8320E030E048EC52E460918401BC
:102340007091850180918601909187010E94922A67
:102350000E946029AD81BE816D937C9306C3BB2032
:1023600071F18091D201882351F110928401109271
:102370008501109286011092870160E070E08DE87F
:1023800090E00E94BF0680E090E0A0E8BFE3809369
:10239000800190938101A0938201B093830168EE44
:1023A00073E080E990E00E94BF06ED81FE81EE0FB0
:1023B000FF1FEE0DFF1DA1E0B0E0B183A083ED8112
:1023C000FE81EE0FFF1FEE0DFF1D11821082CDC2A8
:1023D000BB2081F18091D201882361F1C0927F01FD
:1023E0006C2D84E990E00E94D90080917E0160917B
:1023F0007F0170E0680F711D072E000C880B990B90
:102400000E9493292B013C0160917C0170917D0118
:1024100080E090E00E9491299B01AC01C301B201D0
:102420000E94F82860937601709377018093780179
:10243000909379012D813E81220F331F2E0D3F1D78
:1024400080917F0190E0D9018D939C938EC2BB2037
:1024500081F18091D201882361F1C0927E016C2DBF
:1024600085E990E00E94D90080917E0160917F0112
:1024700070E0680F711D072E000C880B990B0E94ED
:1024800093292B013C0160917C0170917D0180E0DA
:1024900090E00E9491299B01AC01C301B2010E940E
:1024A000F828609376017093770180937801909378
:1024B0007901ED81FE81EE0FFF1FEE0DFF1D809172
:1024C0007E0190E09183808350C2BB2091F1809186
:1024D000D201882371F1D0927D01C0927C01B601B6
:1024E00086E990E00E94490580917E0160917F011C
:1024F00070E0680F711D072E000C880B990B0E946D
:1025000093292B013C0160917C0170917D0180E059
:1025100090E00E9491299B01AC01C301B2010E948D
:10252000F8286093760170937701809378019093F7
:1025300079012D813E81220F331F2E0D3F1D809189
:102540007C0190917D01D9018D939C930EC2BB209B
:1025500069F08091D201882349F0D0927B01C0922A
:102560007A01B60186E990E00E944905ED81FE817D
:10257000EE0FFF1FEE0DFF1D80917A0190917B0100
:1025800091838083F2C1BB2071F08091D2018823B6
:1025900051F0682D8CE990E00E94D9006C2D8DE9F6
:1025A00090E00E94D9002D813E81220F331F2E0D15
:1025B0003F1D3E832D836091720170917301809164
:1025C00074019091750140E00E94AD04AD81BE811F
:1025D0008D939C93CAC1BB20F1F08091D2018823D6
:1025E000D1F0682D8AE990E00E94D9006C2D8BE92A
:1025F00090E00E94D90040E050E060EA71EC8AE986
:1026000090E00E94E10460937201709373018093E3
:10261000740190937501ED81FE81EE0FFF1FEE0DA9
:10262000FF1DFE83ED8360917201709173018091B3
:1026300074019091750141E00E94AD04AD81BE81AD
:102640008D939C9392C1ED81FE81EE0FFF1FEE0DE5
:10265000FF1DFE83ED8360916E0170916F0180918B
:1026600070019091710140E00E94AD04AD81BE8186
:102670008D939C937AC1ED81FE81EE0FFF1FEE0DCD
:10268000FF1DFE83ED8360916E0170916F0180915B
:1026900070019091710141E00E94AD04AD81BE8155
:1026A0008D939C9362C1ED81FE81EE0FFF1FEE0DB5
:1026B000FF1D8091620190E09183808356C18091DB
:1026C0008E0390918F032D813E81220F331F2E0D9B
:1026D0003F1DD9018D939C9348C1BB2081F080910F
:1026E000D201882361F06C2D8FE990E00E94D9001F
:1026F000C0928D0360E070E083E00E941422ED81BF
:10270000FE81EE0FFF1FEE0DFF1D80918D0390E007
:10271000918380832AC12D813E81220F331F2E0D8C
:102720003F1DF801E656FF4F808190E0D9018D935F
:102730009C931BC1ED81FE81EE0FFF1FEE0DFF1D6F
:102740008091060390910703918380830EC1ED81F0
:10275000FE81EE0FFF1FEE0DFF1D80910203909191
:1027600003039183808301C1ED81FE81EE0FFF1F82
:10277000EE0DFF1DFE83ED83F801E656FF4F8081CD
:1027800090E0AD81BE818D939C93EFC0ED81FE8181
:10279000EE0FFF1FEE0DFF1DFE83ED83425C609187
:1027A000F7017091F8018091F9019091FA010E946E
:1027B000AD04AD81BE818D939C93D7C080918B0376
:1027C00090918C03ED81FE81EE0FFF1FEE0DFF1D3A
:1027D00091838083CAC0BB2009F4C7C0F1E0CF1643
:1027E000D10409F0C2C010928C0310928B03BDC0BB
:1027F000BB2041F021E0C216D10421F4A092E401F3
:10280000A092E3018D819E81880F991F8E0D9F1DDF
:10281000DC011D921C92A9C02D813E81220F331F25
:102820002E0D3F1DF801E65EFF4F808190E0D9013B
:102830008D939C939AC0ED81FE81EE0FFF1FEE0DEC
:10284000FF1DFE83ED836091090370910A0380915F
:102850000B0390910C0340E00E94AD04AD81BE815A
:102860008D939C9382C0ED81FE81EE0FFF1FEE0DD4
:10287000FF1DFE83ED836091090370910A0380912F
:102880000B0390910C0341E00E94AD04AD81BE8129
:102890008D939C936AC0ED81FE81EE0FFF1FEE0DBC
:1028A000FF1DFE83ED8360911103709112038091EF
:1028B00013039091140340E00E94AD04AD81BE81EA
:1028C0008D939C9352C0BB2031F0B1E0CB16D10464
:1028D00011F4A092E401ED81FE81EE0FFF1FEE0DD9
:1028E000FF1D1182108241C0BB2031F0F1E0CF16F4
:1028F000D10411F4A0928C0180918C012D813E8134
:10290000220F331F2E0D3F1D90E0880F991FD90114
:102910008D939C932AC0BB2051F0B2EACB16B8E04D
:10292000DB0619F4A092D20102C01092D201ED810F
:10293000FE81EE0FFF1FEE0DFF1D8091D20190E092
:102940009183808312C0F894E0910101F09102011B
:1029500009950BC02D813E81220F331F2E0D3F1D87
:10296000EFEFFFEFD901ED93FC930F5F1F4F0C9436
:10297000210726960FB6F894DEBF0FBECDBFDF91BC
:10298000CF911F910F91FF90EF90DF90CF90BF906C
:10299000AF909F908F907F906F905F904F903F90FF
:1029A0002F9008954F925F926F927F928F929F9295
:1029B000AF92BF92CF92DF92EF92FF92CF93DF93CD
:1029C00000D000D0CDB7DEB7209166033091670309
:1029D0004091680350916903609180017091810179
:1029E00080918201909183010E94922A209184011A
:1029F0003091850140918601509187010E94902875
:102A000060930D0370930E0380930F039093100354
:102A10002AE037ED43E25CE30E94F42887FF10C010
:102A20008AE097EDA3E2BCE380930D0390930E033D
:102A3000A0930F03B093100381E08093080302C0BA
:102A400010920803C0906203D0906303E090640387
:102A5000F090650322EA3CEE42EF50E4C701B60174
:102A60000E94922A4B015C012FEE39EB40E753E4C0
:102A7000C701B6010E9490289B01AC01C501B401B9
:102A80000E94F8289B01AC0160E070E080E291E4D4
:102A90000E94F52A22EE39EB43EC50E40E94922A80
:102AA0004B015C0160933E0370933F0380934003AE
:102AB0009093410380910D0390910E03A0910F0319
:102AC000B091100389839A83AB83BC839C01AD01D1
:102AD000C501B4010E94922A2AE037ED43E25CE38B
:102AE0000E94922A6B017C0160933A0370933B032E
:102AF00080933C0390933D0322EE39EB43EC50E48A
:102B00000E94F8280E94472A9B01AC0162EA7CEEF1
:102B100082EF90E40E94F82820E030E040E85FE394
:102B20000E948F289B01AC016FEE79EB80E793E464
:102B30000E94F8282B013C0120E030E042E852ECF2
:102B40000E94F42887FD09C0409236035092370353
:102B500060923803709239030CC080E090E0A2E8E4
:102B6000B2EC8093360390933703A0933803B0936D
:102B70003903209136033091370340913803509147
:102B800039036AEE7DE385E19CE30E948F2820E80B
:102B90003DE048E85BE30E94922A9B01AC016DE4B2
:102BA0007EE984EA9FE30E948F280E94452B27EB51
:102BB00038E241E95FE30E948F2820E83DE048E0E9
:102BC0005BE30E94F8282B013C0120E030E0A901E2
:102BD0000E94432A18164CF040921E0350921F0385
:102BE000609220037092210308C010921E0310927D
:102BF0001F03109220031092210340906E03509007
:102C00006F03609070037090710320E030E048EC37
:102C100052E469817A818B819C810E94922AA3016E
:102C200092010E94F8289B01AC01609322037093EB
:102C300023038093240390932503C501B4010E94CC
:102C4000922A2AE037ED43E25CE30E94922A22EEC8
:102C500039EB43EC50E40E94F8280E94472A9B017C
:102C6000AC0162EA7CEE82EF90E40E94F82820E05A
:102C700030E040E85FE30E948F289B01AC016FEEDB
:102C800079EB80E793E40E94F8289B01AC01609304
:102C900032037093330380933403909335036AEEC9
:102CA0007DE385E19CE30E948F2820E83DE048E831
:102CB0005BE30E94922A9B01AC016DE47EE984EA09
:102CC0009FE30E948F280E94452B27EB38E241E9C1
:102CD0005FE30E948F2820E83DE048E05BE30E942C
:102CE000F8284B015C0120E030E0A9010E94432A52
:102CF00018164CF080922E0390922F03A09230036E
:102D0000B092310308C010922E0310922F0310923C
:102D100030031092310320E034E244E759E4C70164
:102D2000B6010E94922A4B015C0120E030E040E2B3
:102D300051E4C301B2010E94922AA70196010E94A8
:102D40008F289B01AC01C501B4010E94F828609353
:102D50002A0370932B0380932C0390932D032BE471
:102D60003FE140E951E40E94922A2CE53FE042E134
:102D700053E40E94F82860932603709327038093FE
:102D80002803909329030F900F900F900F90DF91DD
:102D9000CF91FF90EF90DF90CF90BF90AF909F903A
:102DA0008F907F906F905F904F9008950F931F9337
:102DB000CF93DF9364E470E080EC94E00E94B6204F
:102DC00064E280EC94E00E945C2060E080EC94E09F
:102DD0000E945C2080EC94E00E942B2180938A0367
:102DE00086E990E00E94CF2180918A0381117AC008
:102DF00046E064E480EC94E00E942921CEE4D1E036
:102E000004E511E080EC94E00E94D61F89930C1732
:102E10001D07C1F7C091500162E08EE491E00E946D
:102E2000BC03C81721F088E580938A035BC0C0917A
:102E3000530162E081E591E00E94BC03C813F3CF27
:102E400060914E0170E0762F662780914F01680FE8
:102E5000711D70930503609304038091510190E00C
:102E6000982F882720915201EC01C20FD11DD093D9
:102E70000703C093060380E090E00E94912920E0C0
:102E800030E04FE253E40E94922A20E03FEF4FE708
:102E900057E40E94F82820E030E044E352E40E9426
:102EA0008F286093090370930A0380930B03909318
:102EB0000C03BE0180E090E00E94912920E030E008
:102EC00048EC52E40E94922A20E03FEF4FE757E49B
:102ED0000E94F828609311037093120380931303E8
:102EE00090931403DF91CF911F910F910895CF928A
:102EF000DF92EF92FF92CF93DF936091000180EC1D
:102F000094E00E94AC2060E580EC94E00E945C209C
:102F100080EC94E00E942B2180936A0181118EC085
:102F200044E06091000180EC94E00E942921C8E512
:102F3000D1E080EC94E00E94D61F899381E0CC35EB
:102F4000D807B9F7609158016F7370E0762F662744
:102F500080915901682B7093030360930203809161
:102F60007A0190917B01681B790B80E090E00E94D0
:102F7000912920917601309177014091780150910B
:102F800079010E94922A6B017C0160917F0170E0BF
:102F900080E090E00E9493299B01AC01C701B6013B
:102FA0000E948F2820E030E048EC52E40E94922AF0
:102FB00020E030E048EC52E40E9490286093F70152
:102FC0007093F8018093F9019093FA0160915A018E
:102FD00088E0689FB001112480915B0182958695FD
:102FE0008770682B709301036093000380E090E08A
:102FF0000E94912920E030E048E453E40E94922AA4
:1030000020E030EE4FEF54E40E94F8282091880130
:103010003091890140918A0150918B010E94902842
:1030200020E030E048E452E40E948F286093F301EE
:103030007093F4018093F5019093F60186E990E096
:10304000DF91CF91FF90EF90DF90CF900C94CF2144
:103050004F925F926F927F928F929F92AF92BF92A8
:10306000CF92DF92EF92FF920F931F93E0916B014B
:103070008E2F90E0FC013197EE30F10508F0E2C1AF
:10308000EC5CFF4F0C94752861E086E00E94D6222C
:1030900082E0E0C083E0DEC02ADF84E0DBC085E0C0
:1030A00080936B018091DF019091E001A091E1019B
:1030B000B091E20180938E0190938F01A0939001D3
:1030C000B0939101BFC18091DF019091E001A09187
:1030D000E101B091E20140918E0150918F01609128
:1030E0009001709191018C019D01041B150B260B21
:1030F000370B053611052105310508F4A3C12091D0
:10310000EC01213011F487E0A5C080938E019093EB
:103110008F01A0939001B09391011BC047DE19C0AD
:103120008091DF019091E001A091E101B091E20175
:1031300040918E0150918F016091900170919101A9
:10314000841B950BA60BB70BC397A105B10508F41B
:1031500079C18AE07FC060E086E00E94D62280913B
:103160006A01811122C08091690181111EC0809184
:103170006D0181111AC0E0901103F09012030091CB
:103180001303109114032091F3013091F401409145
:10319000F5015091F6016091F7017091F80180916D
:1031A000F9019091FA010E94DB000E946801E09011
:1031B0001103F09012030091130310911403209156
:1031C000F3013091F4014091F5015091F6016091C5
:1031D000F7017091F8018091F9019091FA010E9434
:1031E000CF038BE037C00E9442018CE033C00E94C5
:1031F00078028091500290915102A0915202B091B8
:10320000530280936E0390936F03A0937003B09367
:1032100071038091540290915502A0915602B09191
:10322000570280936A0390936B03A0936C03B0934F
:103230006D038091580290915902A0915A02B09169
:103240005B028093660390936703A0936803B09337
:1032500069038EE080936B01F5C0C0906E03D0903F
:103260006F03E0907003F09071032AE037ED43E2C2
:103270005CE3C701B6010E94922A4B015C01609396
:1032800082037093830380938403909385032DECD2
:103290003CEC4CEC5DE30E94922A60937E037093B9
:1032A0007F03809380039093810320E030E04AE71E
:1032B00054E4C701B6010E94922A60937A03709386
:1032C0007B0380937C0390937D03C0928603D0920E
:1032D0008703E0928803F092890327ED34E844E104
:1032E0005EE3C701B6010E94922A60937603709351
:1032F000770380937803909379032DEC3CEC4CECAE
:103300005DE3C701B6010E94922A60937203709335
:1033100073038093740390937503C0906A03D090F5
:103320006B03E0906C03F0906D03C0926203D09247
:103330006303E0926403F092650323E333E948E812
:1033400053E4C701B6010E9490282B013C01609311
:103350005E0370935F03809360039093610326E69E
:1033600036E646EE5FE3C701B6010E94922A20E0EE
:1033700030E040E052E40E94902860935A0370933A
:103380005B0380935C0390935D03A301920163E36D
:1033900073E982E993E40E94F828A50194010E9450
:1033A000922A6B017C0160935003709351038093C8
:1033B00052039093530320E030E040E85FE30E9423
:1033C0008F2860934A0370934B0380934C03909330
:1033D0004D032DEC3CEC4CEC5DE3C701B6010E94C3
:1033E000922A609346037093470380934803909317
:1033F00049032DEC3CEC4CEC5DE30E948F2860937C
:103400004203709343038093440390934503A701C1
:1034100096016091E5017091E6018091E70190913C
:10342000E8010E94922A6093560370935703809399
:103430005803909359038091EC01813009F4B2DA7A
:1034400010926B011F910F91FF90EF90DF90CF9042
:10345000BF90AF909F908F907F906F905F904F90B4
:1034600008950F931F938091DF019091E001A09147
:10347000E101B091E2014091DB015091DC016091EA
:10348000DD017091DE018C019D01041B150B260BE3
:10349000370B093711052105310570F08093DB01E9
:1034A0009093DC01A093DD01B093DE01D1DD80912A
:1034B000E40181110E9450031F910F9108951AD7C2
:1034C0006093DF017093E0018093E1019093E2014A
:1034D00020918C01213071F422E020938C010FB6F1
:1034E000F894A895209160002861209360001092C4
:1034F00060000FBE693B7B408105910538F08091EB
:103500006C01811103C081E080936C0180916C019A
:10351000882349F00E9466030E948B03A2DF80E9A2
:1035200093E00E945A27A8950895FC0124853585CB
:10353000F901E05CFF4F80819181329620813181D9
:10354000805C9F4F821B930B60E470E00C944028DA
:10355000DC011C96ED91FC911D97DF01A05CBF4F33
:103560002D913C91119712968D919C91119728174E
:10357000390739F08D919C91E80FF91F808190E017
:1035800008958FEF9FEF0895FC01A485B585FD0197
:10359000E05CFF4F20813181329680819181281734
:1035A000390779F080819181A80FB91F8C91208112
:1035B00031812F5F3F4F2F7333273183208390E07A
:1035C00008958FEF9FEF0895FC0181A1882329F0D2
:1035D000A489B5898C9186FFFBCF11A208950F9322
:1035E0001F93CF93DF93FC01A685B7858D01005C07
:1035F0001F4FE8018881998101968F739927AD014A
:103600004E5B5F4FEA012881398182179307D1F31E
:10361000E80128813981A20FB31F6C93A685B78575
:10362000A05CBF4F11969C938E93A689B7892C916D
:1036300081E090E0078C02C0880F991F0A94E2F79E
:10364000822B8C9381E081A30488F589E02D808111
:103650008064808381E090E0DF91CF911F910F9192
:10366000089508951F920F920FB60F9211242F9371
:103670004F935F938F939F93EF93FF938091C0003D
:1036800082FD1CC02091C6008091430490914404A7
:1036900001968F73992740914504509146048417F1
:1036A000950771F0E0914304F0914404ED5FFB4F06
:1036B0002083909344048093430402C08091C60009
:1036C000FF91EF919F918F915F914F912F910F906B
:1036D0000FBE0F901F9018958DE993E026DF892B80
:1036E00009F0BFCF08951F920F920FB60F921124C9
:1036F0002F933F938F939F93EF93FF932091FF031B
:103700003091000480910104909102042817390738
:1037100031F48091C1008F7D8093C10014C0E0918D
:103720000104F0910204E154FC4F208180910104D6
:103730009091020401968F739927909302048093CD
:1037400001042093C600FF91EF919F918F913F91CB
:103750002F910F900FBE0F901F901895CF92DF9270
:10376000EF92FF921F93CF93DF93EC016A017B01ED
:10377000122F4115514E6105710509F1EC89FD8942
:1037800081E090E008A002C0880F991F0A94E2F738
:10379000808360E079E08DE390E0A70196010E94CC
:1037A0005328DA01C9010197A109B109B695A79576
:1037B000979587959C01211580E13807A8F0EC8941
:1037C000FD89108260E874E88EE190E0A70196011F
:1037D0000E945328DA01C9010197A109B109B695E0
:1037E000A795979587959C01E889F9893083EA899F
:1037F000FB892083E88DF98D1083EE89FF89408154
:1038000081E090E09C010C8C02C0220F331F0A94CF
:10381000E2F7242B2083EE89FF8940819C010D8CE7
:1038200002C0220F331F0A94E2F7242B2083EE8973
:10383000FF8940819C010E8C02C0220F331F0A9425
:10384000E2F7242B2083EE89FF8920810F8C02C0B0
:10385000880F991F0A94E2F7809582238083DF9175
:10386000CF911F91FF90EF90DF90CF900895EDE9F9
:10387000F3E01382128288EE93E0A0E0B0E084834C
:103880009583A683B78381E391E09183808383E06E
:1038900094E0958784878FEB93E09787868785EC04
:1038A00090E0918B808B84EC90E0938B828B80EC0A
:1038B00090E0958B848B81EC90E0978B868B82ECEB
:1038C00090E0918F808F86EC90E0938F828F84E0E0
:1038D000848F83E0858F87E0868F85E0878F81E006
:1038E00080A30895089565D5FDDF0E947406CCE697
:1038F000DBE1E5DD2097E9F3EFDEFBCFCF92DF924E
:10390000EF92FF920F931F93CF93DF936C01EB0124
:103910007B01E40EF51E00E010E0CE15DF0561F03E
:103920006991D601ED91FC910190F081E02DC601E5
:103930000995080F191FF1CFC801DF91CF911F9191
:103940000F91FF90EF90DF90CF900895FC0144839A
:103950005583668377830895813039F018F082307B
:1039600051F0089510926E00089580916F008D7F40
:1039700080936F000895809170008D7F8093700018
:1039800081E08093B0008091B100887F8460809353
:10399000B1001092B3000895CF93C82F8091040115
:1039A000C81307C0E6E0F1E084919FEF9093040113
:1039B00001C08FEFD1DF60E08C2FCF91F7C51F9250
:1039C0000F920FB60F9211242F933F934F935F9353
:1039D0006F937F938F939F93AF93BF93EF93FF93D7
:1039E00080914A0490914B04A0914C04B0914D04F5
:1039F000892B8A2B8B2B51F190914704E09148043D
:103A0000F091490480818927808380914A049091B4
:103A10004B04A0914C04B0914D04181619061A06D7
:103A20001B06BCF480914A0490914B04A0914C0475
:103A3000B0914D040197A109B10980934A04909374
:103A40004B04A0934C04B0934D0403C08091040137
:103A5000A3DFFF91EF91BF91AF919F918F917F91E4
:103A60006F915F914F913F912F910F900FBE0F90EB
:103A70001F9018951092BB0481E08093B9041092B6
:103A8000B80461E082E192D561E083E18FD5E9EB92
:103A9000F0E080818E7F808380818D7F808388E4C9
:103AA0008093B80085E48093BC0008959B01AC012D
:103AB00060E074E284EF90E00E945328DA01C901CB
:103AC0004097A109B109B695A795979587958093D9
:103AD000B8000895413208F043C09091BB049111A1
:103AE000FCCF91E09093BB042093B9042FEF209377
:103AF0004E0410929304240F209392049093BA04DE
:103B00009091BA04880F892B8093BA048091B804ED
:103B1000813061F41092B8048091BA048093BB00A4
:103B20008091BC0083FDF8CF85EC01C085EE8093C9
:103B3000BC008091BB048130E1F380919304841731
:103B400010F440919304A4E9B4E0962FFB018E2F6A
:103B5000891B841718F48D918193F9CF842F0895D0
:103B600080E008950F93413208F04AC09091BB0461
:103B70009111FCCF32E03093BB040093B9043FEFC6
:103B800030934E041092930440939204562FA4E96C
:103B9000B4E0FB013E2F351B341718F431913D93EF
:103BA000F9CF1092BA043091BA04880F832B809316
:103BB000BA048091B804813061F41092B804809105
:103BC000BA048093BB008091BC0083FDF8CF85ECE4
:103BD00001C085EE8093BC00222321F08091BB04BC
:103BE0008230D1F380914E048F3F79F080914E0462
:103BF000803241F080914E04803331F094E005C072
:103C000091E003C092E001C093E0892F0F910895E5
:103C100040917004262F30E0240F311D21323105F0
:103C2000DCF42091BB042430C9F4FC0180E090E076
:103C3000861758F4309170042191DC01AE58BB4FC7
:103C4000A30FB11D2C930196F3CF80917004680FE0
:103C50006093700480E0089581E0089582E0089503
:103C60009093B5048093B40408959093B70480931F
:103C7000B604089585ED8093BC008091BC0084FD5E
:103C8000FCCF1092BB04089585EC8093BC00109289
:103C9000BB0408951F920F920FB60F9211242F9319
:103CA0003F934F935F936F937F938F939F93AF93C4
:103CB000BF93EF93FF938091B900887F803609F41A
:103CC0009DC070F5883209F45CC090F4803109F42D
:103CD00055C038F4882309F4F3C0883009F44EC085
:103CE000F2C0883109F44DC0803209F45EC0EBC0E7
:103CF000803409F469C050F4803309F456C0883325
:103D000009F0E1C080934E04BFDFDDC0803509F4C7
:103D10004FC0883509F45DC0883409F0D4C0D2C0E2
:103D2000883909F4C3C0A8F4883709F467C038F4A7
:103D3000883609F463C0803709F460C0C4C088388D
:103D400009F4B4C0803909F45FC0803809F0BBC001
:103D50005BC0803B09F482C038F4803A09F466C045
:103D6000883A09F47BC0AFC0803C09F4A3C0883C0A
:103D700009F4A0C0883B09F486C0A5C08091BA04AC
:103D800010C09091930480919204981770F5E0917F
:103D9000930481E08E0F80939304F0E0EC56FB4F88
:103DA00080818093BB0085EC82C080934E048AC0E2
:103DB000E091930481E08E0F809393048091BB0087
:103DC000F0E0EC56FB4F8083909193048091920435
:103DD0006AC0E091930481E08E0F809393048091F8
:103DE000BB00F0E0EC56FB4F80838091B904811159
:103DF00069C081E08093B80484EA5DC083E0809369
:103E0000BB0410924F04CFCF80914F04803208F052
:103E10004DC0E0914F0481E08E0F80934F0480915C
:103E2000BB00F0E0E05BFB4F8083BDCF2DDF8091D6
:103E30004F04803230F4E0914F04F0E0E05BFB4F40
:103E4000108260914F0470E0E091B404F091B504E9
:103E500080E594E0099510924F0435C084E080938A
:103E6000BB041092710410927004E091B604F091BA
:103E7000B704099580917004811105C081E0809399
:103E8000700410927204E091710481E08E0F8093AF
:103E90007104F0E0EE58FB4F80818093BB0090915D
:103EA000710480917004981708F47DCF85E88093A1
:103EB000BC0009C085EC8093BC001092BB0403C019
:103EC00010924E04D7DEFF91EF91BF91AF919F9179
:103ED0008F917F916F915F914F913F912F910F90B3
:103EE0000FBE0F901F9018951F920F920FB60F9252
:103EF00011242F933F934F935F936F937F938F93EF
:103F00009F93AF93BF93EF93FF938091BC049091E5
:103F1000BD04892B29F0E091BC04F091BD04099502
:103F2000FF91EF91BF91AF919F918F917F916F9191
:103F30005F914F913F912F910F900FBE0F901F9067
:103F400018951F920F920FB60F9211242F933F9343
:103F50004F935F936F937F938F939F93AF93BF9391
:103F6000EF93FF938091BE049091BF04892B29F0B9
:103F7000E091BE04F091BF040995FF91EF91BF91CC
:103F8000AF919F918F917F916F915F914F913F91F1
:103F90002F910F900FBE0F901F9018958091F404F1
:103FA00090E02091F504821B910908959091F50409
:103FB0008091F404981750F4E92FF0E0EA50FB4F99
:103FC000208130E09F5F9093F50402C02FEF3FEF18
:103FD000C9010895E091F5048091F404E81730F4E4
:103FE000F0E0EA50FB4F808190E008958FEF9FEF63
:103FF00008950895CF93DF93EC01E091CC04F09104
:10400000CD043097F1F09091F5048091F404981765
:10401000C0F090E0292F30E02617370754F4DE0176
:10402000A20FB31F4C91D901AA50BB4F4C939F5F75
:10403000F1CF1092F5046093F404CB01DF91CF919E
:104040000994DF91CF910895E091CE04F091CF04CF
:10405000309729F01092D2041092D1040994089557
:10406000CF92DF92EF92FF920F931F93CF93DF9344
:104070007C01CB018A012091D004222389F0EB013D
:104080006B01C40ED51ECC15DD0561F06991D70119
:10409000ED91FC910190F081E02DC7010995F3CFDE
:1040A000642FB6DDC801DF91CF911F910F91FF9072
:1040B000EF90DF90CF900895CF93DF931F92CDB70D
:1040C000DEB769832091D0042223D1F02091D1045E
:1040D000203240F021E030E0FC013383228380E095
:1040E00090E014C08091D204E82FF0E0ED52FB4F35
:1040F000998190838F5F8093D2048093D10404C010
:1041000061E0CE01019684DD81E090E00F90DF91C7
:10411000CF910895FC011382128288EE93E0A0E013
:10412000B0E084839583A683B78381E491E0918393
:10413000808308951092F5041092F4041092D20432
:104140001092D10497DC84E290E28FDD8AEF9FE148
:1041500087CDCB01BA01AACC81E08093D0046093D3
:10416000F3041092D2041092D1040895F5CF0F9366
:10417000062F21E04091D10463ED74E08091F304B7
:10418000F1DC1092D2041092D1041092D0040F915D
:1041900008954F925F926F927F92AF92BF92CF92AB
:1041A000EF92FF920F931F93CF93DF935C01F62E54
:1041B000D42F28013901EE2011F1CEDFCE2DC430ED
:1041C00008F0C3E0C150C0F028E0C29FC001112434
:1041D000A301920104C056954795379527958A9576
:1041E000D2F7CA01B901D501ED91FC910190F0819E
:1041F000E02DC5010995E6CF60E0C501B8DF4D2F80
:10420000D13208F040E22C2D66EF74E08F2D62DC95
:104210001092F5048093F404DF91CF911F910F91D8
:10422000FF90EF90CF90BF90AF907F906F905F9096
:104230004F900895CF92EF920F931F93C22EE12CCF
:1042400000E010E09801A5DF1F910F91EF90CF9053
:10425000089521E0EFCF61E08ACF80EC94E05ACF5F
:104260001F920F920FB60F9211242F933F938F93AB
:104270009F93AF93BF938091170590911805A091DC
:104280001905B0911A053091160523E0230F2D373B
:1042900020F40196A11DB11D05C026E8230F02964A
:1042A000A11DB11D20931605809317059093180545
:1042B000A0931905B0931A0580911B0590911C05D8
:1042C000A0911D05B0911E050196A11DB11D809301
:1042D0001B0590931C05A0931D05B0931E05BF916F
:1042E000AF919F918F913F912F910F900FBE0F90A3
:1042F0001F9018952FB7F8946091170570911805C5
:104300008091190590911A052FBF08953FB7F89431
:1043100080911B0590911C05A0911D05B0911E0573
:1043200026B5A89B05C02F3F19F00196A11DB11D10
:104330003FBFBA2FA92F982F8827820F911DA11D4B
:10434000B11DBC01CD0142E0660F771F881F991F88
:104350004A95D1F70895CF92DF92EF92FF92CF93D3
:10436000DF936B017C01D2DFEB01C114D104E104C6
:10437000F10471F0CBDF6C1B7D0B683E7340A8F33A
:1043800081E0C81AD108E108F108C851DC4FEDCF2F
:10439000DF91CF91FF90EF90DF90CF90089501973C
:1043A00039F0880F991F880F991F02970197F1F72D
:1043B0000895789484B5826084BD84B5816084BD9D
:1043C00085B5826085BD85B5816085BDEEE6F0E08E
:1043D000808181608083E1E8F0E0108280818260EA
:1043E0008083808181608083E0E8F0E0808181606B
:1043F0008083E1EBF0E0808184608083E0EBF0E09B
:10440000808181608083EAE7F0E08081846080833E
:1044100080818260808380818160808380818068E8
:1044200080831092C10008951F93CF93DF93182FBC
:10443000EB0161E07FD0209711F460E004C0CF3F32
:10444000D10531F461E0812FDF91CF911F91AEC092
:10445000E12FF0E0E95FFE4FE491E330F9F048F43A
:10446000E130B9F0E230A1F584B5806284BDC8BD09
:1044700034C0E630E9F0E73019F1E43049F58091D5
:104480008000806280938000D0938B00C0938A006C
:1044900024C084B5806884BDC7BD1FC080918000E2
:1044A000806880938000D0938900C093880015C0F5
:1044B0008091B00080688093B000C093B3000DC0BD
:1044C0008091B00080628093B000C093B40005C0BA
:1044D000C038D1050CF0B6CFB0CFDF91CF911F918E
:1044E0000895833081F028F4813099F08230A1F072
:1044F00008958630A9F08730B9F08430D1F48091E6
:1045000080008F7D03C0809180008F778093800032
:10451000089584B58F7702C084B58F7D84BD0895DA
:104520008091B0008F7703C08091B0008F7D809321
:10453000B0000895CF93DF9390E0FC01E55EFE4F5D
:104540002491FC01E15DFE4F8491882361F190E0AC
:10455000880F991FFC01E35BFE4FC591D491FC01CC
:10456000ED5BFE4FA591B491611109C09FB7F8941E
:104570008881209582238883EC912E230BC06230A2
:1045800061F49FB7F8948881322F30958323888314
:10459000EC912E2B2C939FBF06C08FB7F894E88127
:1045A0002E2B28838FBFDF91CF9108951F93CF9338
:1045B000DF93282F30E0F901E95FFE4F8491F90184
:1045C000E55EFE4FD491F901E15DFE4FC491CC232D
:1045D000B9F0162F811185DFEC2FF0E0EE0FFF1FF1
:1045E000ED5BFE4FA591B4919FB7F894111104C0F3
:1045F0008C91D095D82302C0EC91DE2BDC939FBF29
:10460000DF91CF911F9108951F920F920FB60F92D5
:1046100011242F933F934F935F936F937F938F93C7
:104620009F93AF93BF93CF93DF93EF93FF939091BB
:104630003F05A0913E05209188003091890080912E
:104640002305482F50E0C0917305D0917405B091B7
:104650003D05E92FF0E04E175F07ECF02C0F3D1FF2
:10466000EA2FE170A6959F5FEB1799F38091800088
:10467000EE2311F0806C02C08F7B806880938000F5
:104680003093890020938800E0933D05A0933E0578
:1046900090933F058FC090912105911105C0EA01CB
:1046A0002196EC17FD0729F0EA012296EC17FD0789
:1046B000A1F48D5F80933F0580918000806C809392
:1046C0008000609122054091730550917405649FAC
:1046D000C001659F900D112467C04F5F5F4FE417C5
:1046E000F507C9F48E5F80933F0580912405B817C4
:1046F00009F456C0882321F080918000806C04C0AA
:10470000809180008F7B8068809380008091240559
:1047100080933D0545C080913C05E0913B058E139B
:104720000DC010923F05809180008F7380938000B0
:1047300080916F008D7F80936F003CC081E08093FB
:104740003F05EF5FE43108F0E0E0E0933B05F0E087
:10475000EB5DFA4F808180933E0510923D059923D1
:10476000C9F0082E82958025082E8695869580258D
:104770008F5F81FB662760F970E041E050E0923086
:1047800011F040E050E081E06417750709F080E027
:1047900080932405809180008F7B806880938000C7
:1047A0008091730590917405280F391F309389000B
:1047B00020938800FF91EF91DF91CF91BF91AF914E
:1047C0009F918F917F916F915F914F913F912F9129
:1047D0000F900FBE0F901F9018951F920F920FB65B
:1047E0000F9211241F932F933F934F935F936F93D7
:1047F0007F938F939F93AF93BF93CF93DF93EF9369
:10480000FF932091860030918700909170058091F0
:104810008100992331F08F7B809381001092700585
:1048200006C080648093810080E880937005809149
:104830007205811123C091119AC080916C059091ED
:104840006D05820F931F90938B0080938A0084E004
:1048500086BB80916F00846080936F0080917305A8
:1048600090917405280F391F96958795280F391F49
:1048700030936F0520936E0581E074C040916E0502
:1048800050916F05C091230570917005909171054D
:10489000A0917305B0917405D091200510911F056A
:1048A000241B350B37FD58C0882321F0C81710F0A2
:1048B0009695972B4A0F5B1F8F5F8D1708F446C0A4
:1048C0009093710580916F008B7F80936F00909122
:1048D00021059923F9F080917105082E8295802594
:1048E000082E8695869580258F5F81FBEE27E0F95F
:1048F000F0E021E030E0923011F020E030E081E0A3
:1049000090E0E217F30711F080E090E070E0861786
:10491000970791F480916B058F5F883230F5909105
:104920006A05891749F0E82FF0E090917105E05C85
:10493000FA4F908380936B05809181008F7B8093E9
:104940008100109270051092720511C0811708F451
:10495000672F2A1B3B0BA6CF9093710550936F05D1
:1049600040936E058093720502C080E0D8CFFF911E
:10497000EF91DF91CF91BF91AF919F918F917F91F7
:104980006F915F914F913F912F911F910F900FBEAB
:104990000F901F9018951F920F920FB60F9211242F
:1049A0002F934F935F936F937F938F939F93EF9387
:1049B000FF9380916F008B7F80936F0080918100C7
:1049C0008F7B809381008091720520917005205823
:1049D0004091230550E090917105682F70E04617D3
:1049E000570724F09695922B8F5FF7CF9093710520
:1049F00080916B058F5F883208F080E020916A0516
:104A0000821739F0E82FF0E0E05CFA4F9083809352
:104A10006B0510927205809181008F7B80938100DD
:104A200010927005FF91EF919F918F917F916F91FF
:104A30005F914F912F910F900FBE0F901F9018957F
:104A40000F931F93CF93DF93EC0140E855E260E0B2
:104A500070E08DE993E00E94AE1BE1ECF0E0808114
:104A6000806480831E830D8384E080937505DF91CD
:104A7000CF911F910F9108958FEF9FEF4217A8F4E8
:104A8000FB01E40FF11D3081832738E0FC01E17068
:104A9000FF2796958795EF2B21F051E0852750EA67
:104AA0009527315099F74F5FE9CF982789279827A5
:104AB00008951F93CF93DF93EB01142F242F40E031
:104AC000DBDFFE01E10FF11D90831F5FC10FD11DE0
:104AD0008883DF91CF911F910895FB01418143307D
:104AE000A9F0463029F0403189F081E090E0089546
:104AF000228130E0322F22274381240F311DFC0117
:104B0000858196812817390718F528C0248130E05F
:104B1000322F22275581250F311D433021F040319E
:104B200011F040E001C04EE021153105A1F050E048
:104B30004217530780F0228130E0322F2227438131
:104B4000240F311DFC01858196818217930730F473
:104B500082E090E0089583E090E0089580E090E0A6
:104B60000895FC017483638308950F931F93CF937B
:104B7000DF93DB01BA01A9019801EC01EB81FC8113
:104B8000CD01DF91CF911F910F9109946F927F9288
:104B90008F929F92AF92BF92CF92DF92EF92FF924D
:104BA0000F931F93CF93DF935C014B016A0139018F
:104BB0007A01C0E0D0E082E0E80EF11CF6018581C8
:104BC00090E0C817D90788F4F701058110E0102F8D
:104BD00000278681082BAE01480D591D21E030E0E9
:104BE000B301C501C2DF2196E6CFCE01DF91CF919F
:104BF0001F910F91FF90EF90DF90CF90BF90AF90FB
:104C00009F908F907F906F9008951F920F920FB694
:104C10000F9211245A980F900FBE0F901F90189565
:104C2000EF92FF920F931F93CF93DF938091C00079
:104C300080648093C0008FB7F8945A9A8FBFEB01BD
:104C4000042F10E07B01E00EF11ECE15DF0531F0E0
:104C500069918DE993E00E94EF1AF7CFC801DF91C7
:104C6000CF911F910F91FF90EF900895EF92FF92D7
:104C70000F931F93CF938C017B01C42F1ADF42E067
:104C80004C0FB701C801CF911F910F91FF90EF908A
:104C9000C7CFCF92DF92EF92FF920F931F93CF93E4
:104CA000DF93CDB7DEB728970FB6F894DEBF0FBEFF
:104CB000CDBF6C01842F752FA801698390E19A8381
:104CC0007B838C831D822E839701682FC6015EDF54
:104CD000892B39F046E0BE016F5F7F4FC601C6DF0A
:104CE00002C080E090E028960FB6F894DEBF0FBEB9
:104CF000CDBFDF91CF911F910F91FF90EF90DF908B
:104D0000CF900895EF92FF920F931F93CF93DF936D
:104D1000CDB7DEB728970FB6F894DEBF0FBECDBF74
:104D20007C01C801F9010481158110270127102792
:104D3000698326E02A835B834C831D830E8321E0F5
:104D400030E0BC01C70111DF46E0BE016F5F7F4F5D
:104D5000C7018CDF28960FB6F894DEBF0FBECDBF1B
:104D6000DF91CF911F910F91FF90EF900895AF9237
:104D7000BF92CF92DF92EF92FF920F931F93CF9348
:104D8000DF93CDB7DEB7A8970FB6F894DEBF0FBE9E
:104D9000CDBF6C015801698383E08A83822F880F1D
:104DA0008B83E22EF12C00E010E09701B501C601E3
:104DB000DCDED501FE01319680E090E0BF01329645
:104DC0008E159F0548F42C9111963C9111971296DF
:104DD000318322830196F3CFA701440F551F4D5F06
:104DE0005F4FC60143DFA8960FB6F894DEBF0FBE33
:104DF000CDBFDF91CF911F910F91FF90EF90DF908A
:104E0000CF90BF90AF9008950F931F93CF93DF93F0
:104E10008B01C0E0D0E08DE993E00E94951A892BC8
:104E200071F08DE993E00E94C41AF80181938F011B
:104E30002196C632D10579F78FEF9FEF01C0CE01E1
:104E4000DF91CF911F910F910895DF92EF92FF9222
:104E50000F931F93CF93DF937C01D62E8A01BA0163
:104E6000D3DFEC0118161906CCF4282F225040E0AD
:104E7000B801C70101DEA8014C0F5D1FFA0132978E
:104E8000208130E0322F222731964081242B821757
:104E9000930731F4F80180818D1102C0CE0102C068
:104EA0008FEF9FEFDF91CF911F910F91FF90EF90C8
:104EB000DF9008958F929F92AF92BF92CF92DF9230
:104EC000EF92FF920F931F93CF93DF93CDB7DEB78F
:104ED000CC57D1090FB6F894DEBF0FBECDBF6C0121
:104EE0008DE993E00E94951A5C01892B21F4F6016B
:104EF0001486138687C0FED92BB1122F147022FDA1
:104F000081C0F60123853485A216B30639F0B48634
:104F1000A386678370878187928775C0F601878033
:104F20009084A184B284DC01CB0188199909AA0973
:104F3000BB0980907505912CA12CB12C8815990581
:104F4000AA05BB0508F45FC014861386AE014B5A50
:104F50005F4F6081C60179DF181619060CF050C04A
:104F6000482FBE016B5A7F4FC601B7DD9C01679683
:104F70009FAD67972115310571F0122FF6018081E1
:104F8000898390589A832B8343E0BE016F5F7F4FE4
:104F9000C6016CDE38C068964FAD689750E0542F5C
:104FA000442769968FAD6997480F511DF60192838A
:104FB0009630E1F0903161F0933029F58E010F5F6A
:104FC0001F4F6B962FAD6B976081C601D0DE18C066
:104FD000CE0101967C018E010B5A1F4F6B962FADAF
:104FE0006B97F6016081C60154DE0AC08E010F5F27
:104FF0001F4F9E012B5A3F4FF6016081C60182DE92
:10500000182F01C010E0812FC458DF4F0FB6F8945D
:10501000DEBF0FBECDBFDF91CF911F910F91FF90EB
:10502000EF90DF90CF90BF90AF909F908F900895BA
:1050300008951F920F920FB60F9211242F933F9352
:105040004F935F936F937F938F939F93AF93BF9390
:10505000EF93FF93E0910501F09106010995FF910F
:10506000EF91BF91AF919F918F917F916F915F91E0
:105070004F913F912F910F900FBE0F901F90189559
:1050800097FB072E16F4009406D077FD08D033D096
:1050900007FC05D03EF4909581959F4F089570953B
:1050A00061957F4F0895A1E21A2EAA1BBB1BFD013B
:1050B0000DC0AA1FBB1FEE1FFF1FA217B307E407F7
:1050C000F50720F0A21BB30BE40BF50B661F771F4F
:1050D000881F991F1A9469F760957095809590952F
:1050E0009B01AC01BD01CF010895EE0FFF1F05909C
:1050F000F491E02D0994AA1BBB1B51E107C0AA1F24
:10510000BB1FA617B70710F0A61BB70B881F991F68
:105110005A95A9F780959095BC01CD0108955058F6
:10512000BB27AA270ED075C166D130F06BD120F015
:1051300031F49F3F11F41EF45BC10EF4E095E7FBE0
:1051400051C1E92F77D180F3BA176207730784073B
:10515000950718F071F49EF58FC10EF4E0950B2EB3
:10516000BA2FA02D0B01B90190010C01CA01A001B9
:105170001124FF27591B99F0593F50F4503E68F114
:105180001A16F040A22F232F342F4427585FF3CF55
:10519000469537952795A795F0405395C9F77EF426
:1051A0001F16BA0B620B730B840BBAF09150A1F06F
:1051B000FF0FBB1F661F771F881FC2F70EC0BA0FF5
:1051C000621F731F841F48F4879577956795B7957D
:1051D000F7959E3F08F0B3CF9395880F08F0992775
:1051E000EE0F979587950895D9D008F481E008953A
:1051F0000CD00FC107D140F0FED030F021F45F3F5A
:1052000019F0F0C0511139C1F3C014D198F39923AA
:10521000C9F35523B1F3951B550BBB27AA2762177A
:105220007307840738F09F5F5F4F220F331F441FBF
:10523000AA1FA9F333D00E2E3AF0E0E830D09150F7
:105240005040E695001CCAF729D0FE2F27D0660FE4
:10525000771F881FBB1F261737074807AB07B0E823
:1052600009F0BB0B802DBF01FF2793585F4F2AF039
:105270009E3F510568F0B6C000C15F3FECF3983E19
:10528000DCF3869577956795B795F7959F5FC9F796
:10529000880F911D9695879597F90895E1E0660F1F
:1052A000771F881FBB1F621773078407BA0720F098
:1052B000621B730B840BBA0BEE1F88F7E095089501
:1052C00004D06894B111D9C00895BCD088F09F571C
:1052D00090F0B92F9927B751A0F0D1F0660F771F42
:1052E000881F991F1AF0BA95C9F712C0B13081F022
:1052F000C3D0B1E00895C0C0672F782F8827B85F6A
:1053000039F0B93FCCF3869577956795B395D9F782
:105310003EF490958095709561957F4F8F4F9F4F8C
:105320000895E89409C097FB3EF490958095709598
:1053300061957F4F8F4F9F4F9923A9F0F92F96E9E1
:10534000BB279395F695879577956795B795F11156
:10535000F8CFFAF4BB0F11F460FF1BC06F5F7F4FF3
:105360008F4F9F4F16C0882311F096E911C0772305
:1053700021F09EE8872F762F05C0662371F096E80E
:10538000862F70E060E02AF09A95660F771F881FDD
:10539000DAF7880F9695879597F90895990F000881
:1053A000550FAA0BE0E8FEEF16161706E807F907F7
:1053B000C0F012161306E407F50798F0621B730B92
:1053C000840B950B39F40A2661F0232B242B252B13
:1053D00021F408950A2609F4A140A6958FEF811DB6
:1053E000811D089597F99F6780E870E060E0089557
:1053F0009FEF80EC089500240A94161617061806ED
:105400000906089500240A941216130614060506C8
:105410000895092E0394000C11F4882352F0BB0F59
:1054200040F4BF2B11F460FF04C06F5F7F4F8F4FBC
:105430009F4F089557FD9058440F551F59F05F3FF7
:1054400071F04795880F97FB991F61F09F3F79F0A6
:1054500087950895121613061406551FF2CF469528
:10546000F1DF08C0161617061806991FF1CF8695AA
:105470007105610508940895E894BB27662777278E
:10548000CB0197F908958ADF08F48FEF08950AD0C9
:1054900029ED3BE54EED5EE345C00EF065C1A8CFBA
:1054A0006894A0CFCFDFC8F39923D1F3C6F3DF937D
:1054B000CF931F930F93FF92C92FDD2788232AF0E4
:1054C0002197660F771F881FDAF720E030E040E869
:1054D0005FEB9FE3883920F0803E30F021968F7794
:1054E0001FDEE4E8F0E003C01BDEE1EBF0E051D1A9
:1054F0008B01BE01EC01FB2E6F5771097595771F6B
:10550000880B990B10DF28E132E741E35FE316D007
:10551000AF2D9801AE01FF900F911F91CF91DF91B8
:1055200010DE77CF0BD075CF66DF28F06BDF18F079
:10553000952309F057CF5CCF11249FCF7BDFA0F3D9
:10554000959FD1F3950F50E0551F629FF001729F18
:10555000BB27F00DB11D639FAA27F00DB11DAA1F37
:10556000649F6627B00DA11D661F829F2227B00D84
:10557000A11D621F739FB00DA11D621F839FA00D0F
:10558000611D221F749F3327A00D611D231F849F5F
:10559000600D211D822F762F6A2F11249F575040B6
:1055A0008AF0E1F088234AF0EE0FFF1FBB1F661F51
:1055B000771F881F91505040A9F79E3F510570F00A
:1055C00011CF5BCF5F3FECF3983EDCF38695779588
:1055D0006795B795F795E7959F5FC1F7FE2B880F05
:1055E000911D9695879597F90895FA01EE0FFF1F83
:1055F00030962105310599F16115710561F4803806
:10560000BFE39B0749F168949038810561F08038C9
:10561000BFEF9B0741F0992342F5FF3FE1053105BC
:10562000210511F1E8940894E795D901AA2329F4FA
:10563000AB2FBE2FF85FD0F310C0FF5F70F4A695BC
:10564000E0F7F73950F019F0FF3A38F49F779F935D
:105650000CD00F9007FC905808953EF0C9CE60E042
:1056600070E080E89FE308954FE79F775F934F9343
:105670003F932F9317DF2F913F914F915F9152DF0F
:1056800047C011F40EF4B4CE6FC0DCDED0F3992322
:10569000D9F3CEF39F57550B87FF74D00024A0E6B3
:1056A00040EA900180585695979528F4805C660FE3
:1056B000771F881F20F026173707480730F4621B32
:1056C000730B840B202931294A2BA6951794079434
:1056D000202531254A2758F7660F771F881F20F0AD
:1056E00026173707480730F4620B730B840B200D25
:1056F000311D411DA09581F7B901842F9158880F64
:1057000096958795089519F40EF06CCEB5CE70CEAF
:1057100099DEC8F39638C0F707F80F92E8942BE3A8
:105720003AEA48EB5FE70CDF0F920F920F924DB70A
:105730005EB70F9290D0EEEDF0E02BD04F915F91DD
:10574000EF91FF91E595EE1FFF1F49F0FE57E068CE
:105750004427EE0F441FFA95E1F74195550B47D0CA
:105760000F9007FE3BC008959F3F31F0915020F409
:10577000879577956795B795880F911D969587952D
:1057800097F9089591505040660F771F881FD2F700
:105790000895DF93CF931F930F93FF92EF92DF92C1
:1057A0007B018C01689405C0DA2EEF01C7DEFE0193
:1057B000E894A5912591359145915591AEF3EF016E
:1057C000C0DCFE019701A801DA9479F7DF90EF9031
:1057D000FF900F911F91CF91DF9108959B01AC0134
:1057E00060E070E080E89FE303CDFCCDBDCF2ADE12
:1057F000E8F39923D9F3940F511DBBF39150504016
:1058000094F059F0882332F0660F771F881F91506B
:105810005040C1F79E3F510544F7880F911D969562
:10582000879597F908955F3FACF0983E9CF0BB27B1
:10583000869577956795B79508F4B1609395C1F70C
:10584000BB0F58F711F460FFE8CF6F5F7F4F8F4FAA
:105850009F4FE3CF12CEFA01DC01AA0FBB1F9B01C1
:10586000AC01BF5728F422273327442750781FC0A4
:10587000B75188F4AB2F0024469537952795011C26
:10588000A395D2F3002069F0220F331F441FB39574
:10589000DAF30DD044CC61307105A0E88A07B9462F
:1058A00030F49B01AC0166277727882790783096E3
:1058B00021F020833183428353830895F999FECFE9
:1058C00092BD81BDF89A992780B50895262FF99940
:1058D000FECF1FBA92BD81BD20BD0FB6F894FA9AD3
:0C58E000F99A0FBE01960895F894FFCFCE
:1058EC0028073F01FF18286009C0128025403800A6
:1058FC004B0096C0DA0000003F0000003F000000A3
:10590C003F8FC2F53C8FC2F53C8FC2F53C000000C6
:10591C0000EF1A7E1C951AC41AA81AE41A0000008B
:0E592C00005C203020CE1FD61FEA1FF91F009E
:00000001FF
