:100000006DC000000C94DB1C0C94081D8FC0000018
:100010008DC000008BC0000089C000000C94461AFF
:1000200085C0000083C000000C9453210C946A200A
:100030000C9431220C945C2679C0000077C000003B
:100040000C94961E73C000000C949A180C94DB1844
:100050000C946B236BC0000069C0000067C00000F7
:100060000C94B11B63C000004015461548154B1594
:100070005F158A178A15CB15B11518166016641608
:100080008A179A160200000007000201000003040C
:1000900006000000000000000001020408102040DB
:1000A0008001020408102001020408102004040446
:1000B0000404040404020202020202030303030311
:1000C0000300000000250028002B00000000002491
:1000D0000027002A000014149F19931E11241FBE2C
:1000E000CFEFD8E0DEBFCDBF11E0A0E0B1E0EAE0A5
:1000F000F2E502C005900D92AE34B107D9F725E0C4
:10010000AEE4B1E001C01D92A237B207E1F710E002
:10011000CEE6D0E004C02197FE010E94B826CB367F
:10012000D107C9F70E94DB190C94032969CF0C94FD
:10013000ED280C94F528CF92DF92EF92FF920F9367
:100140001F93CF93DF93E1E0E0936301E6E6F2E0F3
:10015000C6ECD2E0A6E9CA2EA2E0DA2E6193719332
:10016000819391932993399349935993D601ED92B1
:10017000FD920D931D936D01B2E0EA37FB0771F715
:10018000E1EFF1E0A9E0B2E0619371938193919383
:10019000AE17BF07C9F7EDE0F2E0A5E2B2E02193A8
:1001A000319341935193AE17BF07C9F7E9E2F2E0EB
:1001B000A1E4B2E0E192F19201931193AE17BF076F
:1001C000C9F7609346027093470280934802909368
:1001D000490220934A0230934B0240934C025093C1
:1001E0004D02E0924E02F0924F02009350021093A3
:1001F0005102DF91CF911F910F91FF90EF90DF900F
:10020000CF900895809145028F5F863018F48093D7
:10021000450202C01092450220914502A6E5B2E0D7
:1002200084E0289F9001112480E090E04D915D9141
:100230006D917D91FC01E20FF31FEF50FE4F408363
:100240005183628373834C968435910579F70895C1
:100250008F929F92AF92BF92CF92DF92EF92FF92D6
:10026000809160018111EEC0C0900703D090080317
:10027000E0900903F0900A0320E030E0A901C701F3
:10028000B6010E94372787FF09C080916D039091C6
:100290006E03816090936E0380936D0320E030E4E1
:1002A0004CE955E4C701B6010E94862818164CF4A3
:1002B00080916D0390916E03826090936E038093A2
:1002C0006D0320E030E44CE156E4C701B6010E9422
:1002D0008628181654F020E030E048EC52ECC701B4
:1002E000B6010E94372787FF09C080916D03909166
:1002F0006E03846090936E0380936D03C09003033C
:10030000D0900403E0900503F090060320E030E075
:1003100040E752ECC701B6010E94372787FF09C0AA
:1003200080916D0390916E03886090936E0380932B
:100330006D0320E030E040EA52E4C701B6010E94BC
:10034000862818164CF480916D0390916E0380619D
:1003500090936E0380936D03C0903803D09039035F
:10036000E0903A03F0903B036091370370E080E047
:1003700090E00E94D627A70196010E94372787FFA9
:1003800009C080916D0390916E03806490936E0319
:1003900080936D036091360370E080E090E00E94EE
:1003A000D6279B01AC01C701B6010E94862818160A
:1003B0004CF480916D0390916E03806890936E036E
:1003C00080936D036091310370E080E090E00E94C3
:1003D000D6274B015C01C0903203D0903303E090EC
:1003E0003403F0903503A70196010E948628181661
:1003F0004CF480916D0390916E03986090936E031E
:1004000080936D03A7019601C501B4010E943727AF
:1004100087FF18C06091300370E080E090E00E9498
:10042000D6279B01AC01C701B6010E94372787FF81
:1004300009C080916D0390916E03906190936E035B
:1004400080936D0380916C038823E9F080916D03A4
:1004500090916E03926090936E0380936D0380E0A1
:1004600090E0A8ECB2EC8093FF0290930003A0937D
:100470000103B09302038093F7029093F802A093D4
:10048000F902B093FA028091F602882349F0809134
:100490006D0390916E03906290936E0380936D0351
:1004A000FF90EF90DF90CF90BF90AF909F908F9094
:1004B00008952F923F924F925F926F927F928F9208
:1004C0009F92AF92BF92CF92DF92EF92FF920F93E3
:1004D0001F93CF93DF93CDB7DEB728970FB6F8946D
:1004E000DEBF0FBECDBF86E592E09A838983E6E446
:1004F000F2E0F887EF8381E291E09C838B83E5E172
:10050000F1E0FE83ED8331EF232E31E0332EE12C39
:10051000F12C612C80E5782E93EC892E27E4922E25
:10052000A12CB12C0AE714ECF101EE0DFF1D508057
:10053000C180D28043809501A801652D7C2D8D2D31
:10054000942D0E948628181624F4A52CBC2C0D2D61
:10055000142D9301A401652D7C2D8D2D942D0E94C9
:10056000372787FF04C0652C7C2C8D2C942CF4E05D
:10057000EF0EF11C24E1E216F104B1F6EF81F885EB
:10058000C080D180E280F38024EA30E74DE75FE36A
:10059000B301C4010E948A28A70196010E9437274F
:1005A00087FF11C02EEA37E441E85FE3B501C801D7
:1005B0000E948A28A70196010E94862818161CF41A
:1005C000EB81FC8102C0ED81FE8180809180A28060
:1005D000B380E981FA816191719181919191FA835E
:1005E000E983A70196010E94D226A50194010E94E9
:1005F0008A28A70196010E94D326EF81F88561938E
:10060000719381939193F887EF838B819C810496FA
:100610009C838B83ED81FE813496FE83ED83FCE128
:100620002F0E311C89819A818256924009F06FCF3A
:1006300028960FB6F894DEBF0FBECDBFDF91CF91E5
:100640001F910F91FF90EF90DF90CF90BF90AF90F0
:100650009F908F907F906F905F904F903F902F90E2
:1006600008950FB6F894A8958091600088618093F2
:100670006000109260000FBE98E088E10FB6F89419
:10068000A895809360000FBE90936000FFCF80918B
:10069000D5019091D601A091D701B091D801409198
:1006A000C9015091CA016091CB017091CC01841BAA
:1006B000950BA60BB70B89389341A105B10558F0EE
:1006C00098E088E10FB6F894A895809360000FBE7B
:1006D00090936000FFCF08950F931F938091D501F1
:1006E0009091D601A091D701B091D8014091CD0150
:1006F0005091CE016091CF017091D0018C019D018C
:10070000041B150B260B370BB901A801453F5140BF
:100710006105710578F08093CD019093CE01A0938F
:10072000CF01B093D00180916101811103C081E0BC
:10073000809361011F910F9108952F923F924F92E4
:100740005F926F927F928F929F92AF92BF92CF9261
:10075000DF92EF92FF920F931F93CF93DF93A091BD
:100760000B03E4E0AE9FE0011124FE01EA59FD4FC6
:100770006083718382839383FE01EA53FD4F20835C
:10078000318342835383FE01EA56FD4FE082F182BA
:100790000283138381E08A0F853018F480930B0362
:1007A00002C010920B03C6E6D2E006EC12E086E926
:1007B000282E82E0382EC12CD12C7601460157011B
:1007C000260137012991399149915991C301B2010B
:1007D0000E94D3262B013C01F801219131914191D6
:1007E00051918F01C501B4010E94D3264B015C01D8
:1007F000F10121913191419151911F01C701B60140
:100800000E94D3266B017C01F2E0CA37DF07D1F6E4
:100810002DEC3CEC4CE45EE3C301B2010E948A285B
:100820006093560270935702809358029093590236
:100830002DEC3CEC4CE45EE3C501B4010E948A2837
:1008400060935A0270935B0280935C0290935D0206
:100850002DEC3CEC4CE45EE3C701B6010E948A2813
:1008600060935E0270935F028093600290936102D6
:10087000DF91CF911F910F91FF90EF90DF90CF907C
:10088000BF90AF909F908F907F906F905F904F90B0
:100890003F902F9008950F931F93E091E401E15052
:1008A000E73050F4F0E0EE0FFF1FE95FFE4F4081AC
:1008B000518160E070E004C040E855E260E070E023
:1008C0008091E301813011F026E001C026E230E0A2
:1008D00009EE13E08CE893E00E94862264E776E05C
:1008E0008CE893E00E94172381E080938C038CEBCB
:1008F00094E00E94011E40EA56E861E070E08CEB53
:1009000094E00E94101E4AE050E060E070E08CEB42
:1009100094E01F910F910C940D1ACF93DF9300D0A8
:1009200000D0CDB7DEB769837A838B839C8350E098
:10093000440F551FFE01E40FF51F828190E0982FB0
:100940008827FE01E40FF51F2181822B0F900F9065
:100950000F900F90DF91CF9108951F93CF93DF9366
:10096000162FC82FD0E0CE01E2DB811731F08F3F88
:1009700021F4612FCE01DDDB812FDF91CF911F911B
:1009800008957F928F929F92AF92BF92CF92DF9203
:10099000EF92FF920F931F93CF93DF9300D000D07D
:1009A000CDB7DEB77A018B016C015E0185E0A80E40
:1009B000B11CFE0131964F01712CC601B8DBF50167
:1009C00082935F01C601B3DB8F3F09F47394FFEF9D
:1009D000CF1ADF0AA814B90481F784E0781629F049
:1009E00049815A813B812C8103C0A701302F212FDF
:1009F000BA01832F922F0F900F900F900F90DF91DD
:100A0000CF911F910F91FF90EF90DF90CF90BF900B
:100A1000AF909F908F907F900895FF920F931F93B8
:100A2000CF93DF938C01F62ED72F81DBC82FC8011F
:100A300001967DDBCF3F29F48F3F19F48F2D9D2F39
:100A400002C08C2B90E0DF91CF911F910F91FF900E
:100A500008951F93CF93DF93EC01172F6ADB612F6B
:100A6000CE010196DF91CF911F9163CB0F931F931E
:100A7000CF93DF938C015BDBC82FC801019657DB56
:100A8000D0E0D82BCF3F8FEFD80711F4C0E0D0E0F3
:100A9000C80102964CDB811102C0CE0104C0882738
:100AA00099278C1B9D0BDF91CF911F910F9108957A
:100AB000CF92DF92EF92FF9261E084E64EDF809367
:100AC000030163E085E649DF8093E40160E086E6A8
:100AD00044DF8093E30169E672E088E690E09DDF01
:100AE0009093E0018093DF0160E089E636DF809338
:100AF000E1016AEA7AEA8AE690E08FDF9093E80102
:100B00008093E7016AEA7AEA8CE690E086DF9093C8
:100B1000E6018093E50160E080E71FDF8093E2015A
:100B200060E081E71ADF809383014BEC51EA65ECCA
:100B300070E482E890E025DF6093DB017093DC01D4
:100B40008093DD019093DE0165E886E806DF8093FF
:100B5000370360E587E801DF809336036CE388E8BC
:100B6000FCDE8093300362E389E8F7DE8093310393
:100B70008AE890E07BDFBC01990F880B990B0E94FB
:100B8000D6272DEC3CEC4CEC5DE30E948A28609368
:100B90007E0170937F0180938001909381018DE8A5
:100BA00090E064DFBC01990F880B990B0E94D62757
:100BB0002AE037ED43E25CE30E948A2860937A01E1
:100BC00070937B0180937C0190937D0180E990E09C
:100BD0004DDFBC01990F880B990B0E94D6272FE699
:100BE00032E143E85AE30E948A286B017C0120E04D
:100BF00030E0A9010E943727882349F0C09276018E
:100C0000D0927701E0927801F09279010CC080E0F7
:100C100090E0A0E8BFE38093760190937701A093E2
:100C20007801B093790161E084E997DE80937501E2
:100C300064E185E992DE8093740166E373E386E9FB
:100C400090E0EBDE909373018093720166E676E0AC
:100C500088E990E0E2DE909371018093700183E374
:100C60009AEFA1EDBAE380936C0190936D01A0938C
:100C70006E01B0936F0140E050E060EA71EC8AE9E8
:100C800090E07FDE609368017093690180936A0150
:100C900090936B0160E08FE960DE80936F03FF90BB
:100CA000EF90DF90CF900895FF920F931F93CF9313
:100CB000DF938C01EB0177FF06C0D195C195D10977
:100CC000FF24F39401C0F12C6C2FC80132DA6D2F90
:100CD000C80101962EDA6F2DC8010296DF91CF91DF
:100CE0001F910F91FF9025CA2F923F924F925F92D2
:100CF0006F927F928F929F92AF92BF92CF92DF922C
:100D0000EF92FF920F931F93CF93DF9300D000D009
:100D100000D0CDB7DEB77C01962E1A016901809113
:100D20008E03BB24B394803119F0863009F0B12CC6
:100D30008091D5019091D601A091D701B091D801B1
:100D40008093C9019093CA01A093CB01B093CC01C9
:100D50008D2C092D172FAA24A394C6010D2C000C4D
:100D6000AA0BBB0B89839A83AB83BC83402F902F44
:100D70009919A92FB0E0BE83AD83A215B30514F075
:100D80000C94FB130335110509F46FC70CF03EC238
:100D90000C31110509F49EC50CF01FC10D30110571
:100DA00009F495C40CF08EC00630110509F417C47F
:100DB0000CF044C00230110509F4C9C30CF501154B
:100DC000110509F4ACC30130110511F00C94EC13BA
:100DD0002D813E81220F331F2E0D3F1D3E832D831B
:100DE000609164037091650380916603909167033D
:100DF00041E093DDAD81BE818D939C930C94F713FC
:100E00000430110509F4BBC30CF0D1C3ED81FE81A0
:100E1000EE0FFF1FEE0DFF1DFE83ED83609160035B
:100E200070916103809162039091630341E075DDED
:100E3000AD81BE818D939C930C94F71309301105FD
:100E400009F4FDC30CF50730110509F4E0C30830BF
:100E5000110511F00C94EC13ED81FE81EE0FFF1FD4
:100E6000EE0DFF1DFE83ED836091580370915903D1
:100E700080915A0390915B0340E04FDDAD81BE81CC
:100E80008D939C930C94F7130B30110509F4EFC369
:100E90000CF005C4ED81FE81EE0FFF1FEE0DFF1D6E
:100EA000FE83ED8360915403709155038091560346
:100EB0009091570340E031DDAD81BE818D939C93CD
:100EC0000C94F7130431110509F479C40CF044C0F3
:100ED0000031110509F42BC40CF50E30110509F48D
:100EE0000EC40F30110511F00C94EC13ED81FE814E
:100EF000EE0FFF1FEE0DFF1DFE83ED83609140039B
:100F000070914103809142039091430341E005DDDC
:100F1000AD81BE818D939C930C94F7130231110522
:100F200009F41DC40CF033C4ED81FE81EE0FFF1FE8
:100F3000EE0DFF1DFE83ED8360913C0370913D0338
:100F400080913E0390913F0341E0E7DCAD81BE819B
:100F50008D939C930C94F7130831110509F475C413
:100F6000F4F40631110509F442C40CF057C4ED81C4
:100F7000FE81EE0FFF1FEE0DFF1DFE83ED836091DE
:100F800038037091390380913A0390913B0341E01B
:100F9000C4DCAD81BE818D939C930C94F7130A3110
:100FA000110509F469C40CF07EC4ED81FE81EE0FD9
:100FB000FF1FEE0DFF1DFE83ED83609118037091FE
:100FC000190380911A0390911B0341E0A6DCAD81C7
:100FD000BE818D939C930C94F7130E33110509F485
:100FE00068C50CF093C00B32110509F4EAC40CF08B
:100FF00049C00F31110509F49CC40CF50D311105E0
:1010000009F47FC40E31110511F00C94EC13ED813D
:10101000FE81EE0FFF1FEE0DFF1DFE83ED8360913D
:10102000200370912103809122039091230340E0DB
:1010300074DCAD81BE818D939C930C94F7130932BF
:10104000110509F48EC40CF0A4C40832110511F086
:101050000C94EC13ED81FE81EE0FFF1FEE0DFF1DD2
:10106000FE83ED8360911403709115038091160344
:101070009091170340E051DCAD81BE818D939C932C
:101080000C94F7130A33110509F4CBC40CF50033A3
:10109000110509F4AEC40133110511F00C94EC13E1
:1010A000ED81FE81EE0FFF1FEE0DFF1DFE83ED8330
:1010B0006091FB027091FC028091FD029091FE0212
:1010C00041E02BDCAD81BE818D939C930C94F71392
:1010D0000C33110509F4BDC40CF0D3C4ED81FE81BD
:1010E000EE0FFF1FEE0DFF1DFE83ED8360912C03BD
:1010F00070912D0380912E0390912F0341E00DDC20
:10110000AD81BE818D939C930C94F7130B34110524
:1011100009F447C50CF044C00734110509F4F9C4BB
:101120000CF50F33110509F4DCC40634110511F078
:101130000C94EC13ED81FE81EE0FFF1FEE0DFF1DF1
:10114000FE83ED836091070370910803809109038A
:1011500090910A0340E0E1DBAD81BE818D939C93C9
:101160000C94F7130934110509F4EBC40CF001C514
:10117000ED81FE81EE0FFF1FEE0DFF1DFE83ED835F
:10118000609103037091040380910503909106031D
:1011900040E0C3DBAD81BE818D939C930C94F7132B
:1011A0000F34110509F439C5F4F40D34110509F4AF
:1011B00010C50CF026C5ED81FE81EE0FFF1FEE0D70
:1011C000FF1DFE83ED8360914C0370914D03809170
:1011D0004E0390914F0340E0A0DBAD81BE818D9323
:1011E0009C930C94F7130135110509F424C50CF0F8
:1011F0002FC5ED81FE81EE0FFF1FEE0DFF1D8091CB
:10120000600190E0918380830C94F71308391105F5
:1012100011F40C9456120CF083C00338110509F434
:101220004BC60CF046C00A36110509F4A5C5DCF41E
:101230000536110509F447C554F40336110509F4C0
:1012400021C50436110509F426C50C94EC130836A3
:10125000110509F463C50CF079C50636110509F4CA
:1012600047C50C94EC130F36110509F4BEC5ACF458
:101270000B36110509F49CC50E36110511F00C94BE
:10128000EC13ED81FE81EE0FFF1FEE0DFF1D25E03B
:1012900030E0318320830C94F7130137110509F4F2
:1012A000CAC50CF4AEC50238110509F4DDC50C94AD
:1012B000EC130C38110509F401C7B4F40838110512
:1012C00009F45BC654F40638110509F42DC6073835
:1012D000110509F43DC60C94EC130A38110509F404
:1012E00075C60CF45EC6AEC60439110511F40C9433
:1012F0007B1164F40E38110509F473C70CF41AC796
:101300000F38110509F4BEC70C94EC13063911050A
:1013100011F40C94F81114F40C94BA110C943A12C0
:10132000093C110511F40C942D130CF072C0023C11
:101330001105E4F50E3B110514F00C9406130B395E
:10134000110511F40C94B61214F50939110511F4B4
:101350000C947E120A39110511F00C94EC13ED81F6
:10136000FE81EE0FFF1FEE0DFF1DFE83ED836091EA
:10137000640170916501809166019091670140E080
:10138000CCDAAD81BE818D939C930C94F7130D390B
:10139000110511F40C94DA1214F40C94CE120E39D7
:1013A000110511F40C94E8120C94EC13063C110591
:1013B000ECF4043C110514F00C941513ED81FE813E
:1013C000EE0FFF1FEE0DFF1DFE83ED83425C60916B
:1013D000ED017091EE018091EF019091F0019DDAA5
:1013E000AD81BE818D939C930C94F713083C11053D
:1013F00011F00C94EC1380916D0390916E03ED81CC
:10140000FE81EE0FFF1FEE0DFF1D918380830C9474
:10141000F7130231E2E01E0711F40C945D13ECF5B2
:10142000073B21E01207F4F4003931E0130714F010
:101430000C944E130A3C110511F40C943A130F3816
:1014400081E0180711F00C94EC13ED81FE81EE0F92
:10145000FF1FEE0DFF1D8091590190E09183808365
:101460000C94F713C801825C91408731910510F00C
:101470000C94EC13ED81FE81EE0FFF1FEE0DFF1DAE
:10148000FE83ED83FC01E857FE4F808190E0AD8143
:10149000BE818D939C930C94F713023592E019074B
:1014A00011F40C94A5133CF50431B2E01B0711F4C0
:1014B0000C948D1314F40C9475130531F2E01F078E
:1014C00011F00C94EC13ED81FE81EE0FFF1FEE0D79
:1014D000FF1DFE83ED836091FF02709100038091F8
:1014E00001039091020341E018DAAD81BE818D9332
:1014F0009C930C94F713003223E0120711F40C9420
:10150000CD13043833E0130711F40C94E5130835B8
:1015100082E0180711F00C94EC130C94B613AD8113
:10152000BE81AA0FBB1FAE0DBF1DBE83AD836091F0
:10153000640370916503809166039091670340E0B6
:10154000ECD9ED81FE81918380830C94F713ED81BA
:10155000FE81EE0FFF1FEE0DFF1DFE83ED836091F8
:10156000600370916103809162039091630340E096
:10157000D4D9AD81BE818D939C930C94F713ED81EA
:10158000FE81EE0FFF1FEE0DFF1DFE83ED836091C8
:101590005C0370915D0380915E0390915F0340E076
:1015A000BCD9AD81BE818D939C930C94F713ED81D2
:1015B000FE81EE0FFF1FEE0DFF1DFE83ED83609198
:1015C0005C0370915D0380915E0390915F0341E045
:1015D000A4D9AD81BE818D939C930C94F713ED81BA
:1015E000FE81EE0FFF1FEE0DFF1DFE83ED83609168
:1015F00068037091690380916A0390916B0340E0E6
:101600008CD9AD81BE818D939C930C94F713ED81A1
:10161000FE81EE0FFF1FEE0DFF1DFE83ED83609137
:1016200068037091690380916A0390916B0341E0B4
:1016300074D9AD81BE818D939C930C94F713ED8189
:10164000FE81EE0FFF1FEE0DFF1DFE83ED83609107
:1016500058037091590380915A0390915B0341E0C4
:101660005CD9AD81BE818D939C930C94F713ED8171
:10167000FE81EE0FFF1FEE0DFF1DFE83ED836091D7
:10168000540370915503809156039091570341E0A4
:1016900044D9AD81BE818D939C930C94F713ED8159
:1016A000FE81EE0FFF1FEE0DFF1DFE83ED836091A7
:1016B000440370914503809146039091470340E0B5
:1016C0002CD9AD81BE818D939C930C94F713ED8141
:1016D000FE81EE0FFF1FEE0DFF1DFE83ED83609177
:1016E000440370914503809146039091470341E084
:1016F00014D9AD81BE818D939C930C94F713ED8129
:10170000FE81EE0FFF1FEE0DFF1DFE83ED83609146
:10171000400370914103809142039091430340E064
:10172000FCD8AD81BE818D939C930C94F713ED8111
:10173000FE81EE0FFF1FEE0DFF1DFE83ED83609116
:101740003C0370913D0380913E0390913F0340E044
:10175000E4D8AD81BE818D939C930C94F713ED81F9
:10176000FE81EE0FFF1FEE0DFF1DFE83ED836091E6
:1017700038037091390380913A0390913B0340E024
:10178000CCD8AD81BE818D939C930C94F713ED81E1
:10179000FE81EE0FFF1FEE0DFF1DFE83ED836091B6
:1017A00038037091390380913A0390913B0341E0F3
:1017B000B4D8AD81BE818D939C930C94F713ED81C9
:1017C000FE81EE0FFF1FEE0DFF1DFE83ED83609186
:1017D00038037091390380913A0390913B0340E0C4
:1017E0009CD8AD81BE818D939C930C94F713ED81B1
:1017F000FE81EE0FFF1FEE0DFF1DFE83ED83609156
:10180000320370913303809134039091350340E0AB
:1018100084D8AD81BE818D939C93E9C7ED81FE8113
:10182000EE0FFF1FEE0DFF1DFE83ED83609132036F
:1018300070913303809134039091350341E06DD86A
:10184000AD81BE818D939C93D2C7ED81FE81EE0F59
:10185000FF1FEE0DFF1DFE83ED8360911803709155
:10186000190380911A0390911B0340E056D8AD8173
:10187000BE818D939C93BBC7ED81FE81EE0FFF1F50
:10188000EE0DFF1DFE83ED8360911C0370911D031F
:1018900080911E0390911F0340E03FD8AD81BE812F
:1018A0008D939C93A4C7ED81FE81EE0FFF1FEE0D7B
:1018B000FF1DFE83ED8360911C0370911D038091D9
:1018C0001E0390911F0341E028D8AD81BE818D9306
:1018D0009C938DC7ED81FE81EE0FFF1FEE0DFF1D66
:1018E000FE83ED8360910C0370910D0380910E03D4
:1018F00090910F0340E011D8AD81BE818D939C93F0
:1019000076C7ED81FE81EE0FFF1FEE0DFF1DFE83FA
:10191000ED8360910C0370910D0380910E03909103
:101920000F0341E00E948D04AD81BE818D939C9395
:101930005EC7ED81FE81EE0FFF1FEE0DFF1DFE83E2
:10194000ED83609120037091210380912203909197
:10195000230341E00E948D04AD81BE818D939C9351
:1019600046C7ED81FE81EE0FFF1FEE0DFF1DFE83CA
:10197000ED8360911403709115038091160390918B
:10198000170341E00E948D04AD81BE818D939C932D
:101990002EC7ED81FE81EE0FFF1FEE0DFF1DFE83B2
:1019A000ED83609110037091110380911203909167
:1019B000130340E00E948D04AD81BE818D939C9302
:1019C00016C7ED81FE81EE0FFF1FEE0DFF1DFE839A
:1019D000ED83609110037091110380911203909137
:1019E000130341E00E948D04AD81BE818D939C93D1
:1019F000FEC6ED81FE81EE0FFF1FEE0DFF1DFE8383
:101A0000ED836091FB027091FC028091FD02909148
:101A1000FE0240E00E948D04AD81BE818D939C93B7
:101A2000E6C6ED81FE81EE0FFF1FEE0DFF1DFE836A
:101A3000ED8360912C0370912D0380912E03909182
:101A40002F0340E00E948D04AD81BE818D939C9355
:101A5000CEC6ED81FE81EE0FFF1FEE0DFF1DFE8352
:101A6000ED83609128037091290380912A0390915E
:101A70002B0340E00E948D04AD81BE818D939C9329
:101A8000B6C6ED81FE81EE0FFF1FEE0DFF1DFE833A
:101A9000ED83609128037091290380912A0390912E
:101AA0002B0341E00E948D04AD81BE818D939C93F8
:101AB0009EC6ED81FE81EE0FFF1FEE0DFF1DFE8322
:101AC000ED8360912403709125038091260390910A
:101AD000270340E00E948D04AD81BE818D939C93CD
:101AE00086C6ED81FE81EE0FFF1FEE0DFF1DFE830A
:101AF000ED836091240370912503809126039091DA
:101B0000270341E00E948D04AD81BE818D939C939B
:101B10006EC6ED81FE81EE0FFF1FEE0DFF1DFE83F1
:101B2000ED83609107037091080380910903909100
:101B30000A0341E00E948D04AD81BE818D939C9388
:101B400056C6ED81FE81EE0FFF1FEE0DFF1DFE83D9
:101B5000ED836091030370910403809105039091DC
:101B6000060341E00E948D04AD81BE818D939C935C
:101B70003EC6ED81FE81EE0FFF1FEE0DFF1DFE83C1
:101B8000ED836091500370915103809152039091C5
:101B9000530340E00E948D04AD81BE818D939C93E0
:101BA00026C6ED81FE81EE0FFF1FEE0DFF1DFE83A9
:101BB000ED83609150037091510380915203909195
:101BC000530341E00E948D04AD81BE818D939C93AF
:101BD0000EC6ED81FE81EE0FFF1FEE0DFF1DFE8391
:101BE000ED8360914C0370914D0380914E03909171
:101BF0004F0341E00E948D04AD81BE818D939C9383
:101C0000F6C5ED81FE81EE0FFF1FEE0DFF1D8091E9
:101C10005F0190E091838083EAC52D813E81220F90
:101C2000331F2E0D3F1D80915D0190915E01D90102
:101C30008D939C93DCC52D813E81220F331F2E0D89
:101C40003F1D80915C0190E0D9018D939C93CFC59D
:101C5000ED81FE81EE0FFF1FEE0DFF1D80915A01F9
:101C600090915B0191838083C2C52D813E81220FBB
:101C7000331F2E0D3F1D80916C0390E0D9018D9391
:101C80009C93B5C5ED81FE81EE0FFF1FEE0DFF1D8C
:101C9000D182C082ACC5BB2049F0C0920301C09282
:101CA0008C036C2D84E690E00E9499002D813E818A
:101CB000220F331F2E0D3F1D8091030190E0D901AB
:101CC0008D939C9394C5BB2039F0C092E4016C2D98
:101CD00085E690E00E949900ED81FE81EE0FFF1FE6
:101CE000EE0DFF1D8091E40190E0918380837FC51C
:101CF000BB2039F0C092E3016C2D86E690E00E9493
:101D000099002D813E81220F331F2E0D3F1D8091A2
:101D1000E30190E0D9018D939C9369C5BB2049F004
:101D2000D092E001C092DF01B60188E690E00E9407
:101D30002905ED81FE81EE0FFF1FEE0DFF1D809145
:101D4000DF019091E0019183808351C5BB2039F080
:101D5000C092E1016C2D89E690E00E9499002D81EE
:101D60003E81220F331F2E0D3F1D8091E10190E037
:101D7000D9018D939C933BC5BB2069F08091C8012C
:101D8000882349F0D092E601C092E501B6018CE6C5
:101D900090E00E9429058091E5019091E601ED8196
:101DA000FE81EE0FFF1FEE0DFF1D918380831FC587
:101DB000BB2069F08091C801882349F0D092E801E6
:101DC000C092E701B6018AE690E00E942905809161
:101DD000E7019091E8012D813E81220F331F2E0DE6
:101DE0003F1DD9018D939C9302C58D819E81880FE3
:101DF000991F8E0D9F1DEFE0F0E0DC01ED93FC9349
:101E0000F6C4BB2059F08091C801882339F0C092F4
:101E1000E2016C2D80E790E00E9499002D813E81C7
:101E2000220F331F2E0D3F1D8091E20190E0D9015A
:101E30008D939C93DCC4BB2059F08091C80188230A
:101E400039F0C09283016C2D81E790E00E949900E7
:101E5000ED81FE81EE0FFF1FEE0DFF1D80918301CE
:101E600090E091838083C3C4BB2071F08091C8014E
:101E7000882351F0682D84E890E00E9499006C2D31
:101E800085E890E00E9499002D813E81220F331F4A
:101E90002E0D3F1D3E832D836091DB017091DC018F
:101EA0008091DD019091DE0140E00E948D04AD81C2
:101EB000BE818D939C939BC4BB20F1F08091C8019F
:101EC0008823D1F0682D82E890E00E9499006C2D63
:101ED00083E890E00E9499004BEC51EA65EC70E4D5
:101EE00082E890E00E94C1046093DB017093DC0102
:101EF0008093DD019093DE01ED81FE81EE0FFF1FE7
:101F0000EE0DFF1DFE83ED836091DB017091DC011E
:101F10008091DD019091DE0141E00E948D04AD8150
:101F2000BE818D939C9363C4BB2031F060913703D5
:101F300086E890E00E949900ED81FE81EE0FFF1F80
:101F4000EE0DFF1D8091370390E0918380834FC495
:101F5000BB2031F06091360387E890E00E94990041
:101F60002D813E81220F331F2E0D3F1D80913603A0
:101F700090E0D9018D939C933AC4BB2031F06091DD
:101F8000300388E890E00E949900ED81FE81EE0F19
:101F9000FF1FEE0DFF1D8091300390E09183808341
:101FA00026C4BB2031F06091310389E890E00E94A3
:101FB00099002D813E81220F331F2E0D3F1D8091F0
:101FC000310390E0D9018D939C9311C4BB20E9F0BB
:101FD0008091C8018823C9F069817A818B819C81B5
:101FE0000E94D6272DEC3CEC4CEC5DE30E948A2845
:101FF00060937E0170937F018093800190938101B3
:10200000B6018AE890E00E945406ED81FE81EE0F51
:10201000FF1FEE0DFF1DFE83ED8320E030E040E268
:1020200051E460917E0170917F01809180019091D7
:1020300081010E948A280E94A327AD81BE816D93F1
:102040007C93D5C3BB20E9F08091C8018823C9F0F7
:1020500069817A818B819C810E94D6272AE037EDA5
:1020600043E25CE30E948A2860937A0170937B01CB
:1020700080937C0190937D01B6018DE890E00E94F1
:102080005406ED81FE81EE0FFF1FEE0DFF1DFE8356
:10209000ED8320E030E048EC52E460917A017091E9
:1020A0007B0180917C0190917D010E948A280E9491
:1020B000A327AD81BE816D937C9399C3BB20E9F0CA
:1020C0008091C8018823C9F069817A818B819C81C4
:1020D0000E94D6272FE632E143E85AE30E948A287D
:1020E00060937601709377018093780190937901E2
:1020F000B60180E990E00E945406ED81FE81EE0F6A
:10210000FF1FEE0DFF1DFE83ED8320E030E04AE768
:1021100054E46091760170917701809178019091FB
:1021200079010E948A280E94A327AD81BE816D9308
:102130007C935DC3BB20C1F18091C8018823A1F1CC
:1021400069817A818B819C810E94D6272AE037EDB4
:1021500043E25CE30E948A2820917A0130917B015E
:1021600040917C0150917D010E94D226209148032C
:102170003091490340914A0350914B030E943B2701
:102180006093760170937701809378019093790141
:1021900020E030E04AE754E40E948A280E94A32706
:1021A00080E990E00E945406ED81FE81EE0FFF1F52
:1021B000EE0DFF1DFE83ED8320E030E04AE754E49E
:1021C0006091760170917701809178019091790109
:1021D0000E948A280E94A327AD81BE816D937C93C3
:1021E00006C3BB2091F18091C801882371F1209131
:1021F00048033091490340914A0350914B03609149
:1022000076017091770180917801909179010E9417
:102210008A289B01AC016AE077ED83E29CE30E948F
:10222000D22660937A0170937B0180937C01909316
:102230007D0120E030E048EC52E40E948A280E94B0
:10224000A3278DE890E00E945406ED81FE81EE0FF9
:10225000FF1FEE0DFF1DFE83ED8320E030E048EC14
:1022600052E460917A0170917B0180917C019091A0
:102270007D010E948A280E94A327AD81BE816D93B3
:102280007C93B5C2BB2071F18091C801882351F1C4
:1022900010927A0110927B0110927C0110927D01C4
:1022A00060E070E08DE890E00E94540680E090E0ED
:1022B000A0E8BFE38093760190937701A093780123
:1022C000B093790168EE73E080E990E00E945406D3
:1022D000ED81FE81EE0FFF1FEE0DFF1DA1E0B0E0CE
:1022E000B183A083ED81FE81EE0FFF1FEE0DFF1D78
:1022F000118210827CC2BB2081F18091C8018823A9
:1023000061F1C09275016C2D84E990E00E94990002
:10231000809174016091750170E0680F711D072E46
:10232000000C880B990B0E94D6272B013C01609171
:1023300072017091730180E090E00E94D4279B01AC
:10234000AC01C301B2010E943B2760936C01709302
:102350006D0180936E0190936F012D813E81220F5C
:10236000331F2E0D3F1D8091750190E0D9018D9393
:102370009C933DC2BB2081F18091C801882361F10B
:10238000C09274016C2D85E990E00E9499008091C3
:1023900074016091750170E0680F711D072E000CCB
:1023A000880B990B0E94D6272B013C01609172018A
:1023B0007091730180E090E00E94D4279B01AC01F2
:1023C000C301B2010E943B2760936C0170936D01C1
:1023D00080936E0190936F01ED81FE81EE0FFF1FE0
:1023E000EE0DFF1D8091740190E091838083FFC109
:1023F000BB2091F18091C801882371F1D0927301C3
:10240000C0927201B60186E990E00E942905809190
:1024100074016091750170E0680F711D072E000C4A
:10242000880B990B0E94D6272B013C016091720109
:102430007091730180E090E00E94D4279B01AC0171
:10244000C301B2010E943B2760936C0170936D0140
:1024500080936E0190936F012D813E81220F331F77
:102460002E0D3F1D8091720190917301D9018D93C2
:102470009C93BDC1BB2069F08091C801882349F0BD
:10248000D0927101C0927001B60186E990E00E947D
:102490002905ED81FE81EE0FFF1FEE0DFF1D8091DE
:1024A00070019091710191838083A1C1BB2071F073
:1024B0008091C801882351F0682D8CE990E00E943A
:1024C00099006C2D8DE990E00E9499002D813E814C
:1024D000220F331F2E0D3F1D3E832D836091680117
:1024E0007091690180916A0190916B0140E00E94B6
:1024F0008D04AD81BE818D939C9379C1BB20F1F099
:102500008091C8018823D1F0682D8AE990E00E946B
:1025100099006C2D8BE990E00E94990040E050E01A
:1025200060EA71EC8AE990E00E94C104609368015E
:102530007093690180936A0190936B01ED81FE8134
:10254000EE0FFF1FEE0DFF1DFE83ED83609168010E
:102550007091690180916A0190916B0141E00E9444
:102560008D04AD81BE818D939C9341C1ED81FE812F
:10257000EE0FFF1FEE0DFF1DFE83ED8360916401E2
:1025800070916501809166019091670141E00E9420
:102590008D04AD81BE818D939C9329C1ED81FE8117
:1025A000EE0FFF1FEE0DFF1D8091580190E091830B
:1025B00080831DC180917003909171032D813E81B4
:1025C000220F331F2E0D3F1DD9018D939C930FC1F8
:1025D000BB2081F08091C801882361F06C2D8FE9C8
:1025E00090E00E949900C0926F0360E070E083E089
:1025F0000E947A1FED81FE81EE0FFF1FEE0DFF1D81
:1026000080916F0390E091838083F1C02D813E81A2
:10261000220F331F2E0D3F1DF801E057FF4F808121
:1026200090E0D9018D939C93E2C0ED81FE81EE0F85
:10263000FF1FEE0DFF1DFE83ED83445C6091E901F9
:102640007091EA018091EB019091EC010E948D0460
:10265000AD81BE818D939C93CAC0BB2009F4C7C0D5
:10266000F1E0CF16D10409F0C2C010926E031092AF
:102670006D03BDC0BB2041F021E0C216D10421F49E
:10268000A092DA01A092D9018D819E81880F991FB5
:102690008E0D9F1DDC011D921C92A9C02D813E81D3
:1026A000220F331F2E0D3F1DF801E05FFF4F808189
:1026B00090E0D9018D939C939AC0ED81FE81EE0F3D
:1026C000FF1FEE0DFF1DFE83ED836091F7027091F9
:1026D000F8028091F9029091FA0240E00E948D0484
:1026E000AD81BE818D939C9382C0ED81FE81EE0F02
:1026F000FF1FEE0DFF1DFE83ED836091F7027091C9
:10270000F8028091F9029091FA0241E00E948D0452
:10271000AD81BE818D939C936AC0ED81FE81EE0FE9
:10272000FF1FEE0DFF1DFE83ED836091FF02709190
:102730000003809101039091020340E00E948D0408
:10274000AD81BE818D939C9352C0BB2031F0B1E02E
:10275000CB16D10411F4A092DA01ED81FE81EE0FC7
:10276000FF1FEE0DFF1D1182108241C0BB2031F012
:10277000F1E0CF16D10411F4A09282018091820180
:102780002D813E81220F331F2E0D3F1D90E0880FBB
:10279000991FD9018D939C932AC0BB2051F0B2EAB6
:1027A000CB16B8E0DB0619F4A092C80102C0109263
:1027B000C801ED81FE81EE0FFF1FEE0DFF1D809120
:1027C000C80190E09183808312C0F894E0910101E8
:1027D000F091020109950BC02D813E81220F331F1C
:1027E0002E0D3F1DEFEFFFEFD901ED93FC930F5F2F
:1027F0001F4F0C94B60626960FB6F894DEBF0FBE98
:10280000CDBFDF91CF911F910F91FF90EF90DF909F
:10281000CF90BF90AF909F908F907F906F905F9080
:102820004F903F902F90089582E793E00C94852578
:102830000FB6F894A895809160008861809360003D
:10284000109260000FBE9FE088E10FB6F894A89543
:10285000809360000FBE909360000E94580561E075
:1028600082E00E94002060E082E00E943C2061E063
:1028700083E00E94002061E085E00E94002061E08A
:1028800086E00E94002060E086E00E943C200E94DA
:102890004B0462E370E080E090E00E94111F61E071
:1028A00089E993E004D462E089E993E000D463E02D
:1028B00089E993E0FCD31092E201A8950895CF92A4
:1028C000DF92EF92FF920F931F93CF93DF9360916C
:1028D00000018CEB94E00E94131E60E58CEB94E009
:1028E0000E94C31D8CEB94E00E94911E80936001B6
:1028F0008111A1C044E0609100018CEB94E00E9442
:102900008F1ECEE4D1E002E511E08CEB94E00E9452
:102910003D1D89930C171D07C1F760914E016F7320
:1029200070E0762F662780914F01682B072E000CF0
:10293000880B990B0E94D6276B017C016091700176
:102940007091710180E090E00E94D4279B01AC015E
:10295000C701B6010E94D22620916C0130916D0111
:1029600040916E0150916F010E948A286B017C0199
:102970006091750170E080E090E00E94D6279B0195
:10298000AC01C701B6010E94D22620E030E048EC3D
:1029900052E40E948A2820E030E048EC52E40E9491
:1029A000D3266093ED017093EE018093EF01909335
:1029B000F0016091500188E0689FB001112480917E
:1029C0005101829586958770682B072E000C880B25
:1029D000990B0E94D62720E030E048E453E40E949F
:1029E0008A2820E030EE4FEF54E40E943B272091EC
:1029F0007E0130917F0140918001509181010E94C0
:102A0000D32620E030E048E452E40E94D2266093CE
:102A1000E9017093EA018093EB019093EC0186E960
:102A200090E0DF91CF911F910F91FF90EF90DF9099
:102A3000CF900C94351FDF91CF911F910F91FF9094
:102A4000EF90DF90CF9008954F925F926F927F92B8
:102A50008F929F92AF92BF92CF92DF92EF92FF92AE
:102A60000F931F93E09161018E2F90E0FC0131974D
:102A7000EE30F10508F04EC2EC5CFF4F0C94B82626
:102A800061E086E00E943C2082E051C183E04FC1BA
:102A900016DF84E04CC185E0809361018091D5010F
:102AA0009091D601A091D701B091D8018093840173
:102AB00090938501A0938601B09387012BC28091EA
:102AC000D5019091D601A091D701B091D801409144
:102AD00084015091850160918601709187018C017C
:102AE0009D01041B150B260B370B0536110521051F
:102AF000310508F40FC22091E201213011F487E082
:102B000016C18093840190938501A0938601B093B0
:102B100087018CC082E793E00E94D125811119C002
:102B200080915C018F5F80935C0120915A0130910C
:102B30005B012F5F3F4F30935B0120935A018B3035
:102B400008F474C084E180935C0181E080936C039D
:102B50006DC088E08093610110925C0110926C035B
:102B6000D9C18091D5019091D601A091D701B091A2
:102B7000D801409184015091850160918601709146
:102B80008701841B950BA60BB70BC397A105B10555
:102B900008F04CC0BFC161E082E793E00E940A26C2
:102BA000609187037091880380E090E00E94D427B1
:102BB00028EC30E048EC5AE30E948A286093FF0238
:102BC0007093000380930103909302036091890343
:102BD00070918A0380E090E00E94D4272FEA30E0D1
:102BE0004FE25BE30E948A2820E030E044E352E4B5
:102BF0000E94D2269B01AC016093F7027093F80209
:102C00008093F9029093FA0260917E0170917F01A6
:102C100080918001909181010E94D32660930303EB
:102C20007093040380930503909306038AE07FC0AA
:102C300060E086E00E943C2080916001811122C00A
:102C400080915F0181111EC08091630181111AC0C2
:102C5000E090FF02F0900003009101031091020345
:102C60002091E9013091EA014091EB015091EC0192
:102C70006091ED017091EE018091EF019091F00172
:102C80000E949B000E942801E090FF02F090000348
:102C900000910103109102032091E9013091EA01B2
:102CA0004091EB015091EC016091ED017091EE01CA
:102CB0008091EF019091F0010E949D038BE037C05D
:102CC0000E9402018CE033C00E94590280914602AA
:102CD00090914702A0914802B0914902809350031D
:102CE00090935103A0935203B093530380914A02EF
:102CF00090914B02A0914C02B0914D0280934C03F5
:102D000090934D03A0934E03B0934F0380914E02D6
:102D100090914F02A0915002B091510280934803CC
:102D200090934903A0934A03B0934B038EE08093A2
:102D30006101F0C0C0905003D0905103E090520365
:102D4000F09053032AE037ED43E25CE3C701B6019C
:102D50000E948A284B015C016093640370936503B1
:102D600080936603909367032DEC3CEC4CEC5DE3A1
:102D70000E948A28609360037093610380936203CA
:102D80009093630320E030E04AE754E4C701B601C2
:102D90000E948A2860935C0370935D0380935E03B6
:102DA00090935F03C0926803D0926903E0926A0334
:102DB000F0926B0327ED34E844E15EE3C701B6010E
:102DC0000E948A28609358037093590380935A0392
:102DD00090935B032DEC3CEC4CEC5DE3C701B6013A
:102DE0000E948A286093540370935503809356037E
:102DF00090935703C0904C03D0904D03E0904E0346
:102E0000F0904F03C0924403D0924503E0924603F2
:102E1000F092470323E333E948E853E4C701B601DE
:102E20000E94D3262B013C01609340037093410321
:102E3000809342039093430326E636E646EE5FE333
:102E4000C701B6010E948A2820E030E040E052E449
:102E50000E94D32660933C0370933D0380933E030E
:102E600090933F03A301920163E373E982E993E442
:102E70000E943B27A50194010E948A286B017C01D6
:102E8000609332037093330380933403909335033C
:102E900020E030E040E85FE30E94D22660932C03FC
:102EA00070932D0380932E0390932F032DEC3CEC15
:102EB0004CEC5DE3C701B6010E948A2860932803A9
:102EC0007093290380932A0390932B032DEC3CEC01
:102ED0004CEC5DE30E94D22660932403709325039B
:102EE0008093260390932703A70196016091DB014D
:102EF0007091DC018091DD019091DE010E948A28B1
:102F0000609338037093390380933A0390933B03A3
:102F1000109261011F910F91FF90EF90DF90CF9081
:102F2000BF90AF909F908F907F906F905F904F90E9
:102F300008950F931F938091D5019091D601A09190
:102F4000D701B091D8014091D1015091D201609147
:102F5000D3017091D4018C019D01041B150B260B2C
:102F6000370B093711052105310570F08093D10128
:102F70009093D201A093D301B093D40165DD8091E9
:102F8000DA0181110E9431031F910F91089518D722
:102F90006093D5017093D6018093D7019093D801A7
:102FA00020918201213071F422E0209382010FB63A
:102FB000F894A895209160002861209360001092F9
:102FC00060000FBE693B7B408105910538F0809120
:102FD0006201811103C081E08093620180916201EE
:102FE000882349F00E9447030E946C03A2DF8CE80B
:102FF00093E00E94C024A8950895FC01248535859E
:10300000F901E05CFF4F808191813296208131810E
:10301000805C9F4F821B930B60E470E00C948326CE
:10302000DC011C96ED91FC911D97DF01A05CBF4F68
:103030002D913C91119712968D919C911197281783
:10304000390739F08D919C91E80FF91F808190E04C
:1030500008958FEF9FEF0895FC01A485B585FD01CC
:10306000E05CFF4F20813181329680819181281769
:10307000390779F080819181A80FB91F8C91208147
:1030800031812F5F3F4F2F7333273183208390E0AF
:1030900008958FEF9FEF0895FC0181A1882329F007
:1030A000A489B5898C9186FFFBCF11A208950F9357
:1030B0001F93CF93DF93FC01A685B7858D01005C3C
:1030C0001F4FE8018881998101968F739927AD017F
:1030D0004E5B5F4FEA012881398182179307D1F354
:1030E000E80128813981A20FB31F6C93A685B785AB
:1030F000A05CBF4F11969C938E93A689B7892C91A3
:1031000081E090E0078C02C0880F991F0A94E2F7D3
:10311000822B8C9381E081A30488F589E02D808146
:103120008064808381E090E0DF91CF911F910F91C7
:10313000089508951F920F920FB60F9211242F93A6
:103140004F935F938F939F93EF93FF938091C00072
:1031500082FD1CC02091C60080913F0490914004E4
:1031600001968F739927409141045091420484172E
:10317000950771F0E0913F04F0914004E150FC4F5D
:1031800020839093400480933F0402C08091C60046
:10319000FF91EF919F918F915F914F912F910F90A0
:1031A0000FBE0F901F90189589E993E026DF892BB9
:1031B00009F0BFCF08951F920F920FB60F921124FE
:1031C0002F933F938F939F93EF93FF932091FB0354
:1031D0003091FC038091FD039091FE03281739077D
:1031E00031F48091C1008F7D8093C10014C0E091C3
:1031F000FD03F091FE03E554FC4F20818091FD0317
:103200009091FE0301968F7399279093FE0380930C
:10321000FD032093C600FF91EF919F918F913F9105
:103220002F910F900FBE0F901F901895CF92DF92A5
:10323000EF92FF921F93CF93DF93EC016A017B0122
:10324000122F4115514E6105710509F1EC89FD8977
:1032500081E090E008A002C0880F991F0A94E2F76D
:10326000808360E079E08DE390E0A70196010E9401
:103270009626DA01C9010197A109B109B695A7956A
:10328000979587959C01211580E13807A8F0EC8976
:10329000FD89108260E874E88EE190E0A701960154
:1032A0000E949626DA01C9010197A109B109B695D4
:1032B000A795979587959C01E889F9893083EA89D4
:1032C000FB892083E88DF98D1083EE89FF89408189
:1032D00081E090E09C010C8C02C0220F331F0A9405
:1032E000E2F7242B2083EE89FF8940819C010D8C1D
:1032F00002C0220F331F0A94E2F7242B2083EE89A9
:10330000FF8940819C010E8C02C0220F331F0A945A
:10331000E2F7242B2083EE89FF8920810F8C02C0E5
:10332000880F991F0A94E2F7809582238083DF91AA
:10333000CF911F91FF90EF90DF90CF900895E9E932
:10334000F3E01382128288EE93E0A0E0B0E0848381
:103350009583A683B78381E391E0918380838FEF88
:1033600093E0958784878BEB93E09787868785EC3E
:1033700090E0918B808B84EC90E0938B828B80EC3F
:1033800090E0958B848B81EC90E0978B868B82EC20
:1033900090E0918F808F86EC90E0938F828F84E015
:1033A000848F83E0858F87E0868F85E0878F81E03B
:1033B00080A30895089563D5FDDF3ADAC4EDD8E11E
:1033C000E6DD2097E9F3F0DEFBCFCF92DF92EF92BC
:1033D000FF920F931F93CF93DF936C01EB017B015F
:1033E000E40EF51E00E010E0CE15DF0561F06991F6
:1033F000D601ED91FC910190F081E02DC601099577
:10340000080F191FF1CFC801DF91CF911F910F91C4
:10341000FF90EF90DF90CF900895FC014483558397
:10342000668377830895813039F018F0823051F047
:10343000089510926E00089580916F008D7F8093A3
:103440006F000895809170008D7F8093700081E0FF
:103450008093B0008091B100887F84608093B10038
:103460001092B3000895CF93C82F80910401C81320
:1034700007C0E4E8F0E084919FEF9093040101C05D
:103480008FEFD1DF60E08C2FCF91F6C51F920F92A6
:103490000FB60F9211242F933F934F935F936F9327
:1034A0007F938F939F93AF93BF93EF93FF938091FD
:1034B000460490914704A0914804B0914904892B97
:1034C0008A2B8B2B51F190914304E0914404F091AD
:1034D0004504808189278083809146049091470428
:1034E000A0914804B0914904181619061A061B0643
:1034F000BCF48091460490914704A0914804B09197
:1035000049040197A109B1098093460490934704A7
:10351000A0934804B093490403C080910401A3DF41
:10352000FF91EF91BF91AF919F918F917F916F919B
:103530005F914F913F912F910F900FBE0F901F9071
:1035400018951092B70481E08093B5041092B404EA
:1035500061E082E191D561E083E18ED5E9EBF0E0B5
:1035600080818E7F808380818D7F808388E48093BB
:10357000B80085E48093BC0008959B01AC0160E035
:1035800074E284EF90E00E949626DA01C901409728
:10359000A109B109B695A795979587958093B8002D
:1035A0000895413208F043C09091B7049111FCCFC7
:1035B00091E09093B7042093B5042FEF20934A0431
:1035C00010928F04240F20938E049093B604909150
:1035D000B604880F892B8093B6048091B40481309F
:1035E00061F41092B4048091B6048093BB00809182
:1035F000BC0083FDF8CF85EC01C085EE8093BC0054
:103600008091B7048130E1F380918F04841710F426
:1036100040918F04A0E9B4E0962FFB018E2F891B07
:10362000841718F48D918193F9CF842F089580E049
:1036300008950F93413208F04AC09091B704911158
:10364000FCCF32E03093B7040093B5043FEF3093E2
:103650004A0410928F0440938E04562FA0E9B4E0E0
:10366000FB013E2F351B341718F431913D93F9CFF0
:103670001092B6043091B604880F832B8093B60461
:103680008091B404813061F41092B4048091B60446
:103690008093BB008091BC0083FDF8CF85EC01C016
:1036A00085EE8093BC00222321F08091B704823004
:1036B000D1F380914A048F3F79F080914A0480329F
:1036C00041F080914A04803331F094E005C091E0EC
:1036D00003C092E001C093E0892F0F9108954091BB
:1036E0006C04262F30E0240F311D21323105DCF42B
:1036F0002091B7042430C9F4FC0180E090E08617E3
:1037000058F430916C042191DC01A259BB4FA30FF6
:10371000B11D2C930196F3CF80916C04680F6093D8
:103720006C0480E0089581E0089582E0089590930C
:10373000B1048093B00408959093B3048093B204CD
:10374000089585ED8093BC008091BC0084FDFCCF82
:103750001092B704089585EC8093BC001092B704D2
:1037600008951F920F920FB60F9211242F933F933B
:103770004F935F936F937F938F939F93AF93BF9379
:10378000EF93FF938091B900887F803609F49DC044
:1037900070F5883209F45CC090F4803109F455C0AA
:1037A00038F4882309F4F3C0883009F44EC0F2C01D
:1037B000883109F44DC0803209F45EC0EBC080341A
:1037C00009F469C050F4803309F456C0883309F015
:1037D000E1C080934A04BFDFDDC0803509F44FC0EB
:1037E000883509F45DC0883409F0D4C0D2C0883966
:1037F00009F4C3C0A8F4883709F467C038F48836E0
:1038000009F463C0803709F460C0C4C0883809F483
:10381000B4C0803909F45FC0803809F0BBC05BC018
:10382000803B09F482C038F4803A09F466C0883AD3
:1038300009F47BC0AFC0803C09F4A3C0883C09F404
:10384000A0C0883B09F486C0A5C08091B60410C012
:1038500090918F0480918E04981770F5E0918F04F9
:1038600081E08E0F80938F04F0E0E057FB4F808162
:103870008093BB0085EC82C080934A048AC0E091AB
:103880008F0481E08E0F80938F048091BB00F0E065
:10389000E057FB4F808390918F0480918E046AC023
:1038A000E0918F0481E08E0F80938F048091BB00A4
:1038B000F0E0E057FB4F80838091B504811169C02F
:1038C00081E08093B40484EA5DC083E08093B70410
:1038D00010924B04CFCF80914B04803208F04DC042
:1038E000E0914B0481E08E0F80934B048091BB00EC
:1038F000F0E0E45BFB4F8083BDCF2DDF80914B0474
:10390000803230F4E0914B04F0E0E45BFB4F108236
:1039100060914B0470E0E091B004F091B1048CE44C
:1039200094E0099510924B0435C084E08093B7046D
:1039300010926D0410926C04E091B204F091B30403
:10394000099580916C04811105C081E080936C041D
:1039500010926E04E0916D0481E08E0F80936D04EF
:10396000F0E0E259FB4F80818093BB0090916D04A1
:1039700080916C04981708F47DCF85E88093BC0093
:1039800009C085EC8093BC001092B70403C010926C
:103990004A04D7DEFF91EF91BF91AF919F918F9134
:1039A0007F916F915F914F913F912F910F900FBE3B
:1039B0000F901F9018951F920F920FB60F9211241F
:1039C0002F933F934F935F936F937F938F939F9327
:1039D000AF93BF93EF93FF938091B8049091B90494
:1039E000892B29F0E091B804F091B9040995FF9171
:1039F000EF91BF91AF919F918F917F916F915F9167
:103A00004F913F912F910F900FBE0F901F901895DF
:103A10001F920F920FB60F9211242F933F934F9343
:103A20005F936F937F938F939F93AF93BF93EF9326
:103A3000FF938091BA049091BB04892B29F0E09107
:103A4000BA04F091BB040995FF91EF91BF91AF913A
:103A50009F918F917F916F915F914F913F912F91A6
:103A60000F900FBE0F901F9018958091F00490E07A
:103A70002091F104821B910908959091F1048091A5
:103A8000F004981750F4E92FF0E0EE50FB4F20813E
:103A900030E09F5F9093F10402C02FEF3FEFC90128
:103AA0000895E091F1048091F004E81730F4F0E01B
:103AB000EE50FB4F808190E008958FEF9FEF0895C7
:103AC0000895CF93DF93EC01E091C804F091C9040D
:103AD0003097F1F09091F1048091F0049817C0F0C4
:103AE00090E0292F30E02617370754F4DE01A20FAB
:103AF000B31F4C91D901AE50BB4F4C939F5FF1CF98
:103B00001092F1046093F004CB01DF91CF910994FE
:103B1000DF91CF910895E091CA04F091CB043097E2
:103B200029F01092CE041092CD0409940895CF92FA
:103B3000DF92EF92FF920F931F93CF93DF937C015D
:103B4000CB018A012091CC04222389F0EB016B0187
:103B5000C40ED51ECC15DD0561F06991D701ED913C
:103B6000FC910190F081E02DC7010995F3CF642FFE
:103B7000B6DDC801DF91CF911F910F91FF90EF90BB
:103B8000DF90CF900895CF93DF931F92CDB7DEB72C
:103B900069832091CC042223D1F02091CD042032DE
:103BA00040F021E030E0FC013383228380E090E0AC
:103BB00014C08091CE04E82FF0E0E153FB4F9981CF
:103BC00090838F5F8093CE048093CD0404C061E026
:103BD000CE01019684DD81E090E00F90DF91CF91DE
:103BE0000895FC011382128288EE93E0A0E0B0E019
:103BF00084839583A683B78381E491E09183808356
:103C000008951092F1041092F0041092CE041092D4
:103C1000CD0497DC8BE89DE18FDD81E69DE187CDCA
:103C2000CB01BA01AACC81E08093CC046093EF046D
:103C30001092CE041092CD0408950F93062F21E028
:103C40004091CD046FEC74E08091EF04F2DC1092AF
:103C5000CE041092CD041092CC040F9108954F928F
:103C60005F926F927F92AF92BF92CF92EF92FF924C
:103C70000F931F93CF93DF935C01F62ED42F28016F
:103C80003901EE2011F1CFDFCE2DC43008F0C3E0B2
:103C9000C150C0F028E0C29FC0011124A3019201CD
:103CA00004C056954795379527958A95D2F7CA014E
:103CB000B901D501ED91FC910190F081E02DC50194
:103CC0000995E6CF60E0C501B8DF4D2FD13208F08D
:103CD00040E22C2D62EF74E08F2D63DC1092F10432
:103CE0008093F004DF91CF911F910F91FF90EF909F
:103CF000CF90BF90AF907F906F905F904F9008955E
:103D0000CF92EF920F931F93C22EE12C00E010E0B0
:103D10009801A5DF1F910F91EF90CF90089521E0BA
:103D2000EFCF61E08ACF8CEB94E05BCF1F920F92D4
:103D30000FB60F9211242F933F938F939F93AF93BE
:103D4000BF938091130590911405A0911505B09132
:103D500016053091120523E0230F2D3720F401962C
:103D6000A11DB11D05C026E8230F0296A11DB11D9E
:103D7000209312058093130590931405A0931505C5
:103D8000B09316058091170590911805A09119051B
:103D9000B0911A050196A11DB11D8093170590934E
:103DA0001805A0931905B0931A05BF91AF919F9183
:103DB0008F913F912F910F900FBE0F901F901895EC
:103DC0002FB7F89460911305709114058091150533
:103DD000909116052FBF08953FB7F894809117056D
:103DE00090911805A0911905B0911A0526B5A89BC8
:103DF00005C02F3F19F00196A11DB11D3FBFBA2F7D
:103E0000A92F982F8827820F911DA11DB11DBC01DC
:103E1000CD0142E0660F771F881F991F4A95D1F7A1
:103E20000895CF92DF92EF92FF92CF93DF936B01D1
:103E30007C01D2DFEB01C114D104E104F10471F083
:103E4000CBDF6C1B7D0B683E7340A8F381E0C81A82
:103E5000D108E108F108C851DC4FEDCFDF91CF91D7
:103E6000FF90EF90DF90CF900895019739F0880F81
:103E7000991F880F991F02970197F1F70895789479
:103E800084B5826084BD84B5816084BD85B582605F
:103E900085BD85B5816085BDEEE6F0E080818160FD
:103EA0008083E1E8F0E010828081826080838081FD
:103EB00081608083E0E8F0E0808181608083E1EBD5
:103EC000F0E0808184608083E0EBF0E080818160BD
:103ED0008083EAE7F0E08081846080838081826073
:103EE000808380818160808380818068808310925C
:103EF000C10008951F93CF93DF93182FEB0161E06A
:103F00007FD0209711F460E004C0CF3FD10531F499
:103F100061E0812FDF91CF911F91AEC0E12FF0E0E2
:103F2000EB57FF4FE491E330F9F048F4E130B9F09A
:103F3000E230A1F584B5806284BDC8BD34C0E630EE
:103F4000E9F0E73019F1E43049F5809180008062B2
:103F500080938000D0938B00C0938A0024C084B5E6
:103F6000806884BDC7BD1FC0809180008068809339
:103F70008000D0938900C093880015C08091B00064
:103F800080688093B000C093B3000DC08091B000F2
:103F900080628093B000C093B40005C0C038D105E2
:103FA0000CF0B6CFB0CFDF91CF911F910895833041
:103FB00081F028F4813099F08230A1F008958630A4
:103FC000A9F08730B9F08430D1F4809180008F7DE2
:103FD00003C0809180008F7780938000089584B51E
:103FE0008F7702C084B58F7D84BD08958091B00025
:103FF0008F7703C08091B0008F7D8093B0000895CB
:10400000CF93DF9390E0FC01E756FF4F2491FC0132
:10401000E355FF4F8491882361F190E0880F991F49
:10402000FC01E553FF4FC591D491FC01EF53FF4FC5
:10403000A591B491611109C09FB7F894888120952A
:1040400082238883EC912E230BC0623061F49FB7EA
:10405000F8948881322F309583238883EC912E2B1E
:104060002C939FBF06C08FB7F894E8812E2B28832E
:104070008FBFDF91CF9108951F93CF93DF93282FA8
:1040800030E0F901EB57FF4F8491F901E756FF4FFC
:10409000D491F901E355FF4FC491CC23B9F0162F09
:1040A000811185DFEC2FF0E0EE0FFF1FEF53FF4F84
:1040B000A591B4919FB7F894111104C08C91D0953B
:1040C000D82302C0EC91DE2BDC939FBFDF91CF9110
:1040D0001F9108951F920F920FB60F9211242F93E4
:1040E0003F934F935F936F937F938F939F93AF9380
:1040F000BF93CF93DF93EF93FF9390913B05A091F4
:104100003A05209188003091890080911F05482F41
:1041100050E0C0916F05D0917005B0913905E92F3D
:10412000F0E04E175F07ECF02C0F3D1FEA2FE17017
:10413000A6959F5FEB1799F380918000EE2311F015
:10414000806C02C08F7B80688093800030938900F0
:1041500020938800E0933905A0933A0590933B059E
:104160008FC090911D05911105C0EA012196EC17B1
:10417000FD0729F0EA012296EC17FD07A1F48D5FF7
:1041800080933B0580918000806C809380006091DB
:104190001E0540916F0550917005649FC001659F99
:1041A000900D112467C04F5F5F4FE417F507C9F406
:1041B0008E5F80933B0580912005B81709F456C0A7
:1041C000882321F080918000806C04C08091800061
:1041D0008F7B8068809380008091200580933905D3
:1041E00045C080913805E09137058E130DC01092BF
:1041F0003B05809180008F738093800080916F00D9
:104200008D7F80936F003CC081E080933B05EF5F22
:10421000E43108F0E0E0E0933705F0E0EF5DFA4FBD
:10422000808180933A05109239059923C9F0082EB0
:1042300082958025082E8695869580258F5F81FB47
:10424000662760F970E041E050E0923011F040E004
:1042500050E081E06417750709F080E08093200545
:10426000809180008F7B80688093800080916F05B3
:1042700090917005280F391F309389002093880092
:10428000FF91EF91DF91CF91BF91AF919F918F916E
:104290007F916F915F914F913F912F910F900FBE42
:1042A0000F901F9018951F920F920FB60F92112426
:1042B0001F932F933F934F935F936F937F938F93AE
:1042C0009F93AF93BF93CF93DF93EF93FF9320918F
:1042D00086003091870090916C0580918100992330
:1042E00031F08F7B8093810010926C0506C0806452
:1042F0008093810080E880936C0580916E05811128
:1043000023C091119AC08091680590916905820F30
:10431000931F90938B0080938A0084E086BB8091EA
:104320006F00846080936F0080916F05909170059D
:10433000280F391F96958795280F391F30936B05E5
:1043400020936A0581E074C040916A0550916B0525
:10435000C0911F0570916C0590916D05A0916F053E
:10436000B0917005D0911C0510911B05241B350BD5
:1043700037FD58C0882321F0C81710F09695972B69
:104380004A0F5B1F8F5F8D1708F446C090936D0531
:1043900080916F008B7F80936F0090911D05992312
:1043A000F9F080916D05082E82958025082E86955E
:1043B000869580258F5F81FBEE27E0F9F0E021E014
:1043C00030E0923011F020E030E081E090E0E21740
:1043D000F30711F080E090E070E08617970791F402
:1043E000809167058F5F883230F590916605891757
:1043F00049F0E82FF0E090916D05E45CFA4F90836E
:1044000080936705809181008F7B8093810010925B
:104410006C0510926E0511C0811708F4672F2A1BD6
:104420003B0BA6CF90936D0550936B0540936A05A7
:1044300080936E0502C080E0D8CFFF91EF91DF91AD
:10444000CF91BF91AF919F918F917F916F915F912C
:104450004F913F912F911F910F900FBE0F901F9082
:1044600018951F920F920FB60F9211242F934F930E
:104470005F936F937F938F939F93EF93FF938091BD
:104480006F008B7F80936F00809181008F7B809382
:10449000810080916E0520916C05205840911F0588
:1044A00050E090916D05682F70E04617570724F093
:1044B0009695922B8F5FF7CF90936D05809167054E
:1044C0008F5F883208F080E020916605821739F00E
:1044D000E82FF0E0E45CFA4F908380936705109238
:1044E0006E05809181008F7B8093810010926C0516
:1044F000FF91EF919F918F917F916F915F914F917C
:104500002F910F900FBE0F901F9018950F931F9330
:10451000CF93DF93EC0140E855E260E070E089E979
:1045200093E00E941619E1ECF0E0808180648083C2
:104530001E830D8384E080937105DF91CF911F91DD
:104540000F9108958FEF9FEF4217A8F4FB01E40F3E
:10455000F11D3081832738E0FC01E170FF2796953B
:104560008795EF2B21F051E0852750EA95273150B0
:1045700099F74F5FE9CF98278927982708951F93C8
:10458000CF93DF93EB01142F242F40E0DBDFFE01FC
:10459000E10FF11D90831F5FC10FD11D8883DF9153
:1045A000CF911F910895FB0141814330A9F046301E
:1045B00029F0403189F081E090E00895228130E0D7
:1045C000322F22274381240F311DFC0185819681E2
:1045D0002817390718F528C0248130E0322F222708
:1045E0005581250F311D433021F0403111F040E05D
:1045F00001C04EE021153105A1F050E042175307EC
:1046000080F0228130E0322F22274381240F311D98
:10461000FC01858196818217930730F482E090E057
:10462000089583E090E0089580E090E00895FC0113
:104630007483638308950F931F93CF93DF93DB01FC
:10464000BA01A9019801EC01EB81FC81CD01DF9158
:10465000CF911F910F9109946F927F928F929F92A9
:10466000AF92BF92CF92DF92EF92FF920F931F9380
:10467000CF93DF935C014B016A0139017A01C0E0FD
:10468000D0E082E0E80EF11CF601858190E0C817C9
:10469000D90788F4F701058110E0102F00278681E3
:1046A000082BAE01480D591D21E030E0B301C501D2
:1046B000C2DF2196E6CFCE01DF91CF911F910F91FE
:1046C000FF90EF90DF90CF90BF90AF909F908F9032
:1046D0007F906F9008951F920F920FB60F92112442
:1046E0005A980F900FBE0F901F901895EF92FF925F
:1046F0000F931F93CF93DF938091C00080648093CA
:10470000C0008FB7F8945A9A8FBFEB01042F10E0C6
:104710007B01E00EF11ECE15DF0531F0699189E9CC
:1047200093E00E945718F7CFC801DF91CF911F91F6
:104730000F91FF90EF900895EF92FF920F931F93C8
:10474000CF938C017B01C42F1ADF42E04C0FB701DD
:10475000C801CF911F910F91FF90EF90C7CFCF92DB
:10476000DF92EF92FF920F931F93CF93DF93CDB71A
:10477000DEB728970FB6F894DEBF0FBECDBF6C0131
:10478000842F752FA801698390E19A837B838C83A2
:104790001D822E839701682FC6015EDF892B39F0B9
:1047A00046E0BE016F5F7F4FC601C6DF02C080E0FA
:1047B00090E028960FB6F894DEBF0FBECDBFDF9114
:1047C000CF911F910F91FF90EF90DF90CF900895C0
:1047D000EF92FF920F931F93CF93DF93CDB7DEB786
:1047E00028970FB6F894DEBF0FBECDBF7C01C8017D
:1047F000F90104811581102701271027698326E01C
:104800002A835B834C831D830E8321E030E0BC014F
:10481000C70111DF46E0BE016F5F7F4FC7018CDF2C
:1048200028960FB6F894DEBF0FBECDBFDF91CF91B3
:104830001F910F91FF90EF900895AF92BF92CF928A
:10484000DF92EF92FF920F931F93CF93DF93CDB739
:10485000DEB7A8970FB6F894DEBF0FBECDBF6C01D0
:104860005801698383E08A83822F880F8B83E22E2D
:10487000F12C00E010E09701B501C601DCDED501A6
:10488000FE01319680E090E0BF0132968E159F05C3
:1048900048F42C9111963C91119712963183228302
:1048A0000196F3CFA701440F551F4D5F5F4FC6011F
:1048B00043DFA8960FB6F894DEBF0FBECDBFDF91E1
:1048C000CF911F910F91FF90EF90DF90CF90BF900D
:1048D000AF9008950F931F93CF93DF938B01C0E0A8
:1048E000D0E089E993E00E94FD17892B71F089E9F6
:1048F00093E00E942C18F80181938F012196C63213
:10490000D10579F78FEF9FEF01C0CE01DF91CF91F5
:104910001F910F910895DF92EF92FF920F931F93D3
:10492000CF93DF937C01D62E8A01BA01D3DFEC014D
:1049300018161906CCF4282F225040E0B801C70100
:1049400001DEA8014C0F5D1FFA013297208130E093
:10495000322F222731964081242B8217930731F47E
:10496000F80180818D1102C0CE0102C08FEF9FEF50
:10497000DF91CF911F910F91FF90EF90DF900895FD
:104980008F929F92AF92BF92CF92DF92EF92FF925F
:104990000F931F93CF93DF93CDB7DEB7CC57D109D9
:1049A0000FB6F894DEBF0FBECDBF6C0189E993E06E
:1049B0000E94FD175C01892B21F4F60114861386F1
:1049C00087C0FED92BB1122F147022FD81C0F601D1
:1049D00023853485A216B30639F0B486A38667838F
:1049E00070878187928775C0F60187809084A18443
:1049F000B284DC01CB0188199909AA09BB0980900E
:104A00007105912CA12CB12C88159905AA05BB051F
:104A100008F45FC014861386AE014B5A5F4F608165
:104A2000C60179DF181619060CF050C0482FBE01D8
:104A30006B5A7F4FC601B7DD9C0167969FAD6797A4
:104A40002115310571F0122FF6018081898390586C
:104A50009A832B8343E0BE016F5F7F4FC6016CDEFC
:104A600038C068964FAD689750E0542F4427699638
:104A70008FAD6997480F511DF60192839630E1F092
:104A8000903161F0933029F58E010F5F1F4F6B96C7
:104A90002FAD6B976081C601D0DE18C0CE010196A4
:104AA0007C018E010B5A1F4F6B962FAD6B97F60151
:104AB0006081C60154DE0AC08E010F5F1F4F9E0148
:104AC0002B5A3F4FF6016081C60182DE182F01C0CC
:104AD00010E0812FC458DF4F0FB6F894DEBF0FBE31
:104AE000CDBFDF91CF911F910F91FF90EF90DF909D
:104AF000CF90BF90AF909F908F900895DC01ED9183
:104B0000FC910190F081E02D0994FC011282148245
:104B1000158216821782108E178A168A158A1382BA
:104B20001486158616861786108A118A128A138AA9
:104B3000148A118E0895FB018FEF21E3442369F05D
:104B40009191892798E087FF03C0880F822701C0D1
:104B5000880F9150C1F74150F1CF08950F931F93E3
:104B6000CF93DF93EC018B016A81888199815BD8B7
:104B7000612F70E088819981C1DFB8017727888132
:104B80009981BCDF88819981CCD8882321F081E884
:104B9000898F80E001C081E0DF91CF911F910F915B
:104BA000089560E074E2DACFEF92FF920F931F93C3
:104BB000CF93DF937C01C62F8A01462FDC0112962A
:104BC0006C9112978D919C91AAD890E06C2F70E017
:104BD0008617970791F4E801080F191FC017D1072E
:104BE00089F0F70180819181DC01ED91FC910680D3
:104BF000F781E02D09958993F1CF82E8F701818F44
:104C000080E001C081E0DF91CF911F910F91FF9073
:104C1000EF900895EF92FF920F931F93CF93DF933E
:104C200000D000D000D0CDB7DEB78C01E62EAE01AB
:104C30004F5F5F4F66E0B8DFF82E882371F1E11017
:104C400019C0EB8042E0BE016F5F7F4FC80173DF88
:104C5000E81611F085E80AC0EE8042E0BE016C5F04
:104C60007F4FC80168DFE81629F086E8F801818FD8
:104C7000F12C13C0898190E0982F88272A81820F18
:104C8000911DF801908F878B8C8190E0982F882759
:104C90002D81820F911D968B858B8F2D26960FB6B9
:104CA000F894DEBF0FBECDBFDF91CF911F910F9162
:104CB000FF90EF90089508951F920F920FB60F92F4
:104CC00011242F933F934F935F936F937F938F9311
:104CD0009F93AF93BF93EF93FF93E0910501F09102
:104CE00006010995FF91EF91BF91AF919F918F912F
:104CF0007F916F915F914F913F912F910F900FBED8
:104D00000F901F90189597FB072E16F4009406D06D
:104D100077FD08D033D007FC05D03EF490958195FF
:104D20009F4F0895709561957F4F0895A1E21A2EC7
:104D3000AA1BBB1BFD010DC0AA1FBB1FEE1FFF1F3F
:104D4000A217B307E407F50720F0A21BB30BE40B8F
:104D5000F50B661F771F881F991F1A9469F76095D6
:104D60007095809590959B01AC01BD01CF01089590
:104D7000EE0FFF1F0590F491E02D0994AA1BBB1BB9
:104D800051E107C0AA1FBB1FA617B70710F0A61B4B
:104D9000B70B881F991F5A95A9F780959095BC016C
:104DA000CD0108955058BB27AA270ED075C166D1F2
:104DB00030F06BD120F031F49F3F11F41EF45BC151
:104DC0000EF4E095E7FB51C1E92F77D180F3BA17D4
:104DD000620773078407950718F071F49EF58FC179
:104DE0000EF4E0950B2EBA2FA02D0B01B901900106
:104DF0000C01CA01A0011124FF27591B99F0593F4A
:104E000050F4503E68F11A16F040A22F232F342F91
:104E10004427585FF3CF469537952795A795F040DF
:104E20005395C9F77EF41F16BA0B620B730B840BF4
:104E3000BAF09150A1F0FF0FBB1F661F771F881FAC
:104E4000C2F70EC0BA0F621F731F841F48F4879504
:104E500077956795B795F7959E3F08F0B3CF9395F3
:104E6000880F08F09927EE0F979587950895D9D068
:104E700008F481E008950CD00FC107D140F0FED0B6
:104E800030F021F45F3F19F0F0C0511139C1F3C087
:104E900014D198F39923C9F35523B1F3951B550BFE
:104EA000BB27AA2762177307840738F09F5F5F4FFD
:104EB000220F331F441FAA1FA9F333D00E2E3AF03E
:104EC000E0E830D091505040E695001CCAF729D058
:104ED000FE2F27D0660F771F881FBB1F26173707A7
:104EE0004807AB07B0E809F0BB0B802DBF01FF27D7
:104EF00093585F4F2AF09E3F510568F0B6C000C13D
:104F00005F3FECF3983EDCF3869577956795B79510
:104F1000F7959F5FC9F7880F911D9695879597F92B
:104F20000895E1E0660F771F881FBB1F62177307A4
:104F30008407BA0720F0621B730B840BBA0BEE1FB9
:104F400088F7E095089504D06894B111D9C0089508
:104F5000BCD088F09F5790F0B92F9927B751A0F097
:104F6000D1F0660F771F881F991F1AF0BA95C9F7FD
:104F700012C0B13081F0C3D0B1E00895C0C0672F36
:104F8000782F8827B85F39F0B93FCCF386957795AD
:104F90006795B395D9F73EF4909580957095619596
:104FA0007F4F8F4F9F4F0895E89409C097FB3EF4C1
:104FB00090958095709561957F4F8F4F9F4F992366
:104FC000A9F0F92F96E9BB279395F69587957795E4
:104FD0006795B795F111F8CFFAF4BB0F11F460FFA4
:104FE0001BC06F5F7F4F8F4F9F4F16C0882311F0FC
:104FF00096E911C0772321F09EE8872F762F05C010
:10500000662371F096E8862F70E060E02AF09A95AA
:10501000660F771F881FDAF7880F9695879597F99F
:105020000895990F0008550FAA0BE0E8FEEF161639
:105030001706E807F907C0F012161306E407F5078C
:1050400098F0621B730B840B950B39F40A2661F000
:10505000232B242B252B21F408950A2609F4A140A3
:10506000A6958FEF811D811D089597F99F6780E8B0
:1050700070E060E008959FEF80EC089500240A94AA
:105080001616170618060906089500240A94121623
:105090001306140605060895092E0394000C11F456
:1050A000882352F0BB0F40F4BF2B11F460FF04C003
:1050B0006F5F7F4F8F4F9F4F089557FD9058440F5C
:1050C000551F59F05F3F71F04795880F97FB991F67
:1050D00061F09F3F79F08795089512161306140624
:1050E000551FF2CF4695F1DF08C0161617061806B1
:1050F000991FF1CF86957105610508940895E8948C
:10510000BB2766277727CB0197F908958ADF08F434
:105110008FEF08950BD0C0CFB1DF28F0B6DF18F0C5
:10512000952309F0A2CFA7CF1124EACFC6DFA0F3C1
:10513000959FD1F3950F50E0551F629FF001729F2C
:10514000BB27F00DB11D639FAA27F00DB11DAA1F4B
:10515000649F6627B00DA11D661F829F2227B00D98
:10516000A11D621F739FB00DA11D621F839FA00D23
:10517000611D221F749F3327A00D611D231F849F73
:10518000600D211D822F762F6A2F11249F575040CA
:105190008AF0E1F088234AF0EE0FFF1FBB1F661F65
:1051A000771F881F91505040A9F79E3F510570F01E
:1051B0005CCFA6CF5F3FECF3983EDCF38695779506
:1051C0006795B795F795E7959F5FC1F7FE2B880F19
:1051D000911D9695879597F90895F999FECF92BDFF
:1051E00081BDF89A992780B50895262FF999FECFA9
:1051F0001FBA92BD81BD20BD0FB6F894FA9AF99AF4
:0A5200000FBE01960895F894FFCF49
:10520A0028073F01FF5B266009C01280254038004D
:10521A004B0096C0DA0000003F0000003F0000008B
:10522A003F8FC2F53C8FC2F53C8FC2F53C000000AF
:10523A00005718E519FD172C1810184C1800000013
:0E524A0000C31D971D351D3D1D511D601D002B
:00000001FF
