:100000006DC000000C94EC1C0C94191D8FC00000F6
:100010008DC000008BC0000089C000000C94571AEE
:1000200085C0000083C000000C9464210C947B20E8
:100030000C9442220C94CE2679C0000077C00000B8
:100040000C94A71E73C000000C94AB180C94EC1811
:100050000C947C236BC0000069C0000067C00000E6
:100060000C94C21B63C000005115571559155C153F
:1000700070159B179B15DC15C21529167116751680
:100080009B17AB16020000000700020100000304EA
:1000900006000000000000000001020408102040DB
:1000A0008001020408102001020408102004040446
:1000B0000404040404020202020202030303030311
:1000C0000300000000250028002B00000000002491
:1000D0000027002A00001414B019A41E11241FBE0A
:1000E000CFEFD8E0DEBFCDBF11E0A0E0B1E0EEEE93
:1000F000F2E502C005900D92AE34B107D9F725E0C4
:10010000AEE4B1E001C01D92A437B207E1F710E000
:10011000CEE6D0E004C02197FE010E942A27CB360C
:10012000D107C9F70E94EC190C94752969CF0C947A
:100130005F290C946729CF92DF92EF92FF920F9381
:100140001F93CF93DF93E1E0E0936301E8E6F2E0F1
:10015000C8ECD2E0A8E9CA2EA2E0DA2E619371932E
:10016000819391932993399349935993D601ED92B1
:10017000FD920D931D936D01B2E0EC37FB0771F713
:10018000E3EFF1E0ABE0B2E061937193819391937F
:10019000AE17BF07C9F7EFE0F2E0A7E2B2E02193A4
:1001A000319341935193AE17BF07C9F7EBE2F2E0E9
:1001B000A3E4B2E0E192F19201931193AE17BF076D
:1001C000C9F7609348027093490280934A02909362
:1001D0004B0220934C0230934D0240934E025093B9
:1001E0004F02E0925002F09251020093520210939B
:1001F0005302DF91CF911F910F91FF90EF90DF900D
:10020000CF900895809147028F5F863018F48093D5
:10021000470202C01092470220914702A8E5B2E0CF
:1002200084E0289F9001112480E090E04D915D9141
:100230006D917D91FC01E20FF31FED50FE4F408365
:100240005183628373834C968435910579F70895C1
:100250008F929F92AF92BF92CF92DF92EF92FF92D6
:10026000809160018111EEC0C0900903D0900A0313
:10027000E0900B03F0900C0320E030E0A901C701EF
:10028000B6010E94A92787FF09C080916F03909152
:10029000700381609093700380936F0320E030E4DB
:1002A0004CE955E4C701B6010E94F82818164CF431
:1002B00080916F039091700382609093700380939C
:1002C0006F0320E030E44CE156E4C701B6010E9420
:1002D000F828181654F020E030E048EC52ECC70142
:1002E000B6010E94A92787FF09C080916F039091F2
:1002F000700384609093700380936F03C090050334
:10030000D0900603E0900703F090080320E030E06F
:1003100040E752ECC701B6010E94A92787FF09C038
:1003200080916F0390917003886090937003809325
:100330006F0320E030E040EA52E4C701B6010E94BA
:10034000F82818164CF480916F0390917003806127
:100350009093700380936F03C0903A03D0903B0357
:10036000E0903C03F0903D036091390370E080E041
:1003700090E00E944828A70196010E94A92787FFC4
:1003800009C080916F039091700380649093700313
:1003900080936F036091380370E080E090E00E94EA
:1003A00048289B01AC01C701B6010E94F828181625
:1003B0004CF480916F039091700380689093700368
:1003C00080936F036091330370E080E090E00E94BF
:1003D00048284B015C01C0903403D0903503E09075
:1003E0003603F0903703A70196010E94F8281816EB
:1003F0004CF480916F039091700398609093700318
:1004000080936F03A7019601C501B4010E94A9273B
:1004100087FF18C06091320370E080E090E00E9496
:1004200048289B01AC01C701B6010E94A92787FF9C
:1004300009C080916F039091700390619093700355
:1004400080936F0380916E038823E9F080916F039E
:100450009091700392609093700380936F0380E09B
:1004600090E0A8ECB2EC8093010390930203A09378
:100470000303B09304038093F9029093FA02A093CC
:10048000FB02B093FC028091F802882349F080912E
:100490006F039091700390629093700380936F0349
:1004A000FF90EF90DF90CF90BF90AF909F908F9094
:1004B00008952F923F924F925F926F927F928F9208
:1004C0009F92AF92BF92CF92DF92EF92FF920F93E3
:1004D0001F93CF93DF93CDB7DEB728970FB6F8946D
:1004E000DEBF0FBECDBF88E592E09A838983E8E442
:1004F000F2E0F887EF8381E291E09C838B83E5E172
:10050000F1E0FE83ED8333EF232E31E0332EE12C37
:10051000F12C612C80E5782E93EC892E27E4922E25
:10052000A12CB12C0AE714ECF101EE0DFF1D508057
:10053000C180D28043809501A801652D7C2D8D2D31
:10054000942D0E94F828181624F4A52CBC2C0D2DEF
:10055000142D9301A401652D7C2D8D2D942D0E94C9
:10056000A92787FF04C0652C7C2C8D2C942CF4E0EB
:10057000EF0EF11C24E1E216F104B1F6EF81F885EB
:10058000C080D180E280F38024EA30E74DE75FE36A
:10059000B301C4010E94FC28A70196010E94A9276B
:1005A00087FF11C02EEA37E441E85FE3B501C801D7
:1005B0000E94FC28A70196010E94F82818161CF436
:1005C000EB81FC8102C0ED81FE8180809180A28060
:1005D000B380E981FA816191719181919191FA835E
:1005E000E983A70196010E944427A50194010E9476
:1005F000FC28A70196010E944527EF81F8856193A9
:10060000719381939193F887EF838B819C810496FA
:100610009C838B83ED81FE813496FE83ED83FCE128
:100620002F0E311C89819A818456924009F06FCF38
:1006300028960FB6F894DEBF0FBECDBFDF91CF91E5
:100640001F910F91FF90EF90DF90CF90BF90AF90F0
:100650009F908F907F906F905F904F903F902F90E2
:1006600008950FB6F894A8958091600088618093F2
:100670006000109260000FBE98E088E10FB6F89419
:10068000A895809360000FBE90936000FFCF80918B
:10069000D7019091D801A091D901B091DA01409190
:1006A000CB015091CC016091CD017091CE01841BA2
:1006B000950BA60BB70B89389341A105B10558F0EE
:1006C00098E088E10FB6F894A895809360000FBE7B
:1006D00090936000FFCF08950F931F938091D701EF
:1006E0009091D801A091D901B091DA014091CF0148
:1006F0005091D0016091D1017091D2018C019D0186
:10070000041B150B260B370BB901A801453F5140BF
:100710006105710578F08093CF019093D001A0938B
:10072000D101B093D20180916101811103C081E0B8
:10073000809361011F910F9108952F923F924F92E4
:100740005F926F927F928F929F92AF92BF92CF9261
:10075000DF92EF92FF920F931F93CF93DF93A091BD
:100760000D03E4E0AE9FE0011124FE01E859FD4FC6
:100770006083718382839383FE01E853FD4F20835E
:10078000318342835383FE01E856FD4FE082F182BC
:100790000283138381E08A0F853018F480930D0360
:1007A00002C010920D03C8E6D2E008EC12E088E91E
:1007B000282E82E0382EC12CD12C7601460157011B
:1007C000260137012991399149915991C301B2010B
:1007D0000E9445272B013C01F80121913191419163
:1007E00051918F01C501B4010E9445274B015C0165
:1007F000F10121913191419151911F01C701B60140
:100800000E9445276B017C01F2E0CC37DF07D1F66F
:100810002DEC3CEC4CE45EE3C301B2010E94FC28E9
:10082000609358027093590280935A0290935B022E
:100830002DEC3CEC4CE45EE3C501B4010E94FC28C5
:1008400060935C0270935D0280935E0290935F02FE
:100850002DEC3CEC4CE45EE3C701B6010E94FC28A1
:1008600060936002709361028093620290936302CE
:10087000DF91CF911F910F91FF90EF90DF90CF907C
:10088000BF90AF909F908F907F906F905F904F90B0
:100890003F902F9008950F931F93E091E601E15050
:1008A000E73050F4F0E0EE0FFF1FE95FFE4F4081AC
:1008B000518160E070E004C040E855E260E070E023
:1008C0008091E501813011F026E001C026E230E0A0
:1008D00009EE13E08EE893E00E94972264E776E049
:1008E0008EE893E00E94282381E080938E038EEBB4
:1008F00094E00E94121E40EA56E861E070E08EEB40
:1009000094E00E94211E4AE050E060E070E08EEB2F
:1009100094E01F910F910C941E1ACF93DF9300D097
:1009200000D0CDB7DEB769837A838B839C8350E098
:10093000440F551FFE01E40FF51F828190E0982FB0
:100940008827FE01E40FF51F2181822B0F900F9065
:100950000F900F90DF91CF9108951F93CF93DF9366
:10096000162FC82FD0E0CE01E2DB811731F08F3F88
:1009700021F4612FCE01DDDB812FDF91CF911F911B
:1009800008957F928F929F92AF92BF92CF92DF9203
:10099000EF92FF920F931F93CF93DF9300D000D07D
:1009A000CDB7DEB77A018B016C015E0185E0A80E40
:1009B000B11CFE0131964F01712CC601B8DBF50167
:1009C00082935F01C601B3DB8F3F09F47394FFEF9D
:1009D000CF1ADF0AA814B90481F784E0781629F049
:1009E00049815A813B812C8103C0A701302F212FDF
:1009F000BA01832F922F0F900F900F900F90DF91DD
:100A0000CF911F910F91FF90EF90DF90CF90BF900B
:100A1000AF909F908F907F900895FF920F931F93B8
:100A2000CF93DF938C01F62ED72F81DBC82FC8011F
:100A300001967DDBCF3F29F48F3F19F48F2D9D2F39
:100A400002C08C2B90E0DF91CF911F910F91FF900E
:100A500008951F93CF93DF93EC01172F6ADB612F6B
:100A6000CE010196DF91CF911F9163CB0F931F931E
:100A7000CF93DF938C015BDBC82FC801019657DB56
:100A8000D0E0D82BCF3F8FEFD80711F4C0E0D0E0F3
:100A9000C80102964CDB811102C0CE0104C0882738
:100AA00099278C1B9D0BDF91CF911F910F9108957A
:100AB000CF92DF92EF92FF9261E084E64EDF809367
:100AC000030163E085E649DF8093E60160E086E6A6
:100AD00044DF8093E50169E672E088E690E09DDFFF
:100AE0009093E2018093E10160E089E636DF809334
:100AF000E3016AEA7AEA8AE690E08FDF9093EA01FE
:100B00008093E9016AEA7AEA8CE690E086DF9093C6
:100B1000E8018093E70160E080E71FDF8093E40154
:100B200060E081E71ADF809385014BEC51EA65ECC8
:100B300070E482E890E025DF6093DD017093DE01D0
:100B40008093DF019093E00165E886E806DF8093FB
:100B5000390360E587E801DF809338036CE388E8B8
:100B6000FCDE8093320362E389E8F7DE809333038F
:100B70008AE890E07BDFBC01990F880B990B0E94FB
:100B800048282DEC3CEC4CEC5DE30E94FC28609383
:100B900080017093810180938201909383018DE89D
:100BA00090E064DFBC01990F880B990B0E944828E4
:100BB0002AE037ED43E25CE30E94FC2860937C016D
:100BC00070937D0180937E0190937F0180E990E096
:100BD0004DDFBC01990F880B990B0E9448282FE626
:100BE00032E143E85AE30E94FC286B017C0120E0DB
:100BF00030E0A9010E94A927882349F0C09278011A
:100C0000D0927901E0927A01F0927B010CC080E0F1
:100C100090E0A0E8BFE38093780190937901A093DE
:100C20007A01B0937B0161E084E997DE80937701DC
:100C300064E185E992DE8093760166E373E386E9F9
:100C400090E0EBDE909375018093740166E676E0A8
:100C500088E990E0E2DE909373018093720183E370
:100C60009AEFA1EDBAE380936E0190936F01A09388
:100C70007001B093710140E050E060EA71EC8AE9E4
:100C800090E07FDE609368017093690180936A0150
:100C900090936B0160E08FE960DE80937103FF90B9
:100CA000EF90DF90CF900895FF920F931F93CF9313
:100CB000DF938C01EB0177FF06C0D195C195D10977
:100CC000FF24F39401C0F12C6C2FC80132DA6D2F90
:100CD000C80101962EDA6F2DC8010296DF91CF91DF
:100CE0001F910F91FF9025CA2F923F924F925F92D2
:100CF0006F927F928F929F92AF92BF92CF92DF922C
:100D0000EF92FF920F931F93CF93DF9300D000D009
:100D100000D0CDB7DEB77C01962E1A016901809113
:100D20009003BB24B394803119F0863009F0B12CC4
:100D30008091D7019091D801A091D901B091DA01A9
:100D40008093CB019093CC01A093CD01B093CE01C1
:100D50008D2C092D172FAA24A394C6010D2C000C4D
:100D6000AA0BBB0B89839A83AB83BC83402F902F44
:100D70009919A92FB0E0BE83AD83A215B30514F075
:100D80000C94FB130335110509F46FC70CF03EC238
:100D90000C31110509F49EC50CF01FC10D30110571
:100DA00009F495C40CF08EC00630110509F417C47F
:100DB0000CF044C00230110509F4C9C30CF501154B
:100DC000110509F4ACC30130110511F00C94EC13BA
:100DD0002D813E81220F331F2E0D3F1D3E832D831B
:100DE0006091660370916703809168039091690335
:100DF00041E093DDAD81BE818D939C930C94F713FC
:100E00000430110509F4BBC30CF0D1C3ED81FE81A0
:100E1000EE0FFF1FEE0DFF1DFE83ED836091620359
:100E200070916303809164039091650341E075DDE7
:100E3000AD81BE818D939C930C94F71309301105FD
:100E400009F4FDC30CF50730110509F4E0C30830BF
:100E5000110511F00C94EC13ED81FE81EE0FFF1FD4
:100E6000EE0DFF1DFE83ED8360915A0370915B03CD
:100E700080915C0390915D0340E04FDDAD81BE81C8
:100E80008D939C930C94F7130B30110509F4EFC369
:100E90000CF005C4ED81FE81EE0FFF1FEE0DFF1D6E
:100EA000FE83ED8360915603709157038091580340
:100EB0009091590340E031DDAD81BE818D939C93CB
:100EC0000C94F7130431110509F479C40CF044C0F3
:100ED0000031110509F42BC40CF50E30110509F48D
:100EE0000EC40F30110511F00C94EC13ED81FE814E
:100EF000EE0FFF1FEE0DFF1DFE83ED836091420399
:100F000070914303809144039091450341E005DDD6
:100F1000AD81BE818D939C930C94F7130231110522
:100F200009F41DC40CF033C4ED81FE81EE0FFF1FE8
:100F3000EE0DFF1DFE83ED8360913E0370913F0334
:100F4000809140039091410341E0E7DCAD81BE8197
:100F50008D939C930C94F7130831110509F475C413
:100F6000F4F40631110509F442C40CF057C4ED81C4
:100F7000FE81EE0FFF1FEE0DFF1DFE83ED836091DE
:100F80003A0370913B0380913C0390913D0341E013
:100F9000C4DCAD81BE818D939C930C94F7130A3110
:100FA000110509F469C40CF07EC4ED81FE81EE0FD9
:100FB000FF1FEE0DFF1DFE83ED8360911A037091FC
:100FC0001B0380911C0390911D0341E0A6DCAD81C1
:100FD000BE818D939C930C94F7130E33110509F485
:100FE00068C50CF093C00B32110509F4EAC40CF08B
:100FF00049C00F31110509F49CC40CF50D311105E0
:1010000009F47FC40E31110511F00C94EC13ED813D
:10101000FE81EE0FFF1FEE0DFF1DFE83ED8360913D
:10102000220370912303809124039091250340E0D3
:1010300074DCAD81BE818D939C930C94F7130932BF
:10104000110509F48EC40CF0A4C40832110511F086
:101050000C94EC13ED81FE81EE0FFF1FEE0DFF1DD2
:10106000FE83ED836091160370911703809118033E
:101070009091190340E051DCAD81BE818D939C932A
:101080000C94F7130A33110509F4CBC40CF50033A3
:10109000110509F4AEC40133110511F00C94EC13E1
:1010A000ED81FE81EE0FFF1FEE0DFF1DFE83ED8330
:1010B0006091FD027091FE028091FF029091000309
:1010C00041E02BDCAD81BE818D939C930C94F71392
:1010D0000C33110509F4BDC40CF0D3C4ED81FE81BD
:1010E000EE0FFF1FEE0DFF1DFE83ED8360912E03BB
:1010F00070912F03809130039091310341E00DDC1A
:10110000AD81BE818D939C930C94F7130B34110524
:1011100009F447C50CF044C00734110509F4F9C4BB
:101120000CF50F33110509F4DCC40634110511F078
:101130000C94EC13ED81FE81EE0FFF1FEE0DFF1DF1
:10114000FE83ED836091090370910A0380910B0384
:1011500090910C0340E0E1DBAD81BE818D939C93C7
:101160000C94F7130934110509F4EBC40CF001C514
:10117000ED81FE81EE0FFF1FEE0DFF1DFE83ED835F
:101180006091050370910603809107039091080315
:1011900040E0C3DBAD81BE818D939C930C94F7132B
:1011A0000F34110509F439C5F4F40D34110509F4AF
:1011B00010C50CF026C5ED81FE81EE0FFF1FEE0D70
:1011C000FF1DFE83ED8360914E0370914F0380916C
:1011D00050039091510340E0A0DBAD81BE818D931F
:1011E0009C930C94F7130135110509F424C50CF0F8
:1011F0002FC5ED81FE81EE0FFF1FEE0DFF1D8091CB
:10120000600190E0918380830C94F71308391105F5
:1012100011F40C9456120CF083C00338110509F434
:101220004BC60CF046C00A36110509F4A5C5DCF41E
:101230000536110509F447C554F40336110509F4C0
:1012400021C50436110509F426C50C94EC130836A3
:10125000110509F463C50CF079C50636110509F4CA
:1012600047C50C94EC130F36110509F4BEC5ACF458
:101270000B36110509F49CC50E36110511F00C94BE
:10128000EC13ED81FE81EE0FFF1FEE0DFF1D25E03B
:1012900030E0318320830C94F7130137110509F4F2
:1012A000CAC50CF4AEC50238110509F4DDC50C94AD
:1012B000EC130C38110509F401C7B4F40838110512
:1012C00009F45BC654F40638110509F42DC6073835
:1012D000110509F43DC60C94EC130A38110509F404
:1012E00075C60CF45EC6AEC60439110511F40C9433
:1012F0007B1164F40E38110509F473C70CF41AC796
:101300000F38110509F4BEC70C94EC13063911050A
:1013100011F40C94F81114F40C94BA110C943A12C0
:10132000093C110511F40C942D130CF072C0023C11
:101330001105E4F50E3B110514F00C9406130B395E
:10134000110511F40C94B61214F50939110511F4B4
:101350000C947E120A39110511F00C94EC13ED81F6
:10136000FE81EE0FFF1FEE0DFF1DFE83ED836091EA
:10137000640170916501809166019091670140E080
:10138000CCDAAD81BE818D939C930C94F7130D390B
:10139000110511F40C94DA1214F40C94CE120E39D7
:1013A000110511F40C94E8120C94EC13063C110591
:1013B000ECF4043C110514F00C941513ED81FE813E
:1013C000EE0FFF1FEE0DFF1DFE83ED83425C60916B
:1013D000EF017091F0018091F1019091F2019DDA9D
:1013E000AD81BE818D939C930C94F713083C11053D
:1013F00011F00C94EC1380916F0390917003ED81C8
:10140000FE81EE0FFF1FEE0DFF1D918380830C9474
:10141000F7130231E2E01E0711F40C945D13ECF5B2
:10142000073B21E01207F4F4003931E0130714F010
:101430000C944E130A3C110511F40C943A130F3816
:1014400081E0180711F00C94EC13ED81FE81EE0F92
:10145000FF1FEE0DFF1D8091590190E09183808365
:101460000C94F713C801825C91408731910510F00C
:101470000C94EC13ED81FE81EE0FFF1FEE0DFF1DAE
:10148000FE83ED83FC01E657FE4F808190E0AD8145
:10149000BE818D939C930C94F713023592E019074B
:1014A00011F40C94A5133CF50431B2E01B0711F4C0
:1014B0000C948D1314F40C9475130531F2E01F078E
:1014C00011F00C94EC13ED81FE81EE0FFF1FEE0D79
:1014D000FF1DFE83ED8360910103709102038091F3
:1014E00003039091040341E018DAAD81BE818D932E
:1014F0009C930C94F713003223E0120711F40C9420
:10150000CD13043833E0130711F40C94E5130835B8
:1015100082E0180711F00C94EC130C94B613AD8113
:10152000BE81AA0FBB1FAE0DBF1DBE83AD836091F0
:10153000660370916703809168039091690340E0AE
:10154000ECD9ED81FE81918380830C94F713ED81BA
:10155000FE81EE0FFF1FEE0DFF1DFE83ED836091F8
:10156000620370916303809164039091650340E08E
:10157000D4D9AD81BE818D939C930C94F713ED81EA
:10158000FE81EE0FFF1FEE0DFF1DFE83ED836091C8
:101590005E0370915F03809160039091610340E06E
:1015A000BCD9AD81BE818D939C930C94F713ED81D2
:1015B000FE81EE0FFF1FEE0DFF1DFE83ED83609198
:1015C0005E0370915F03809160039091610341E03D
:1015D000A4D9AD81BE818D939C930C94F713ED81BA
:1015E000FE81EE0FFF1FEE0DFF1DFE83ED83609168
:1015F0006A0370916B0380916C0390916D0340E0DE
:101600008CD9AD81BE818D939C930C94F713ED81A1
:10161000FE81EE0FFF1FEE0DFF1DFE83ED83609137
:101620006A0370916B0380916C0390916D0341E0AC
:1016300074D9AD81BE818D939C930C94F713ED8189
:10164000FE81EE0FFF1FEE0DFF1DFE83ED83609107
:101650005A0370915B0380915C0390915D0341E0BC
:101660005CD9AD81BE818D939C930C94F713ED8171
:10167000FE81EE0FFF1FEE0DFF1DFE83ED836091D7
:10168000560370915703809158039091590341E09C
:1016900044D9AD81BE818D939C930C94F713ED8159
:1016A000FE81EE0FFF1FEE0DFF1DFE83ED836091A7
:1016B000460370914703809148039091490340E0AD
:1016C0002CD9AD81BE818D939C930C94F713ED8141
:1016D000FE81EE0FFF1FEE0DFF1DFE83ED83609177
:1016E000460370914703809148039091490341E07C
:1016F00014D9AD81BE818D939C930C94F713ED8129
:10170000FE81EE0FFF1FEE0DFF1DFE83ED83609146
:10171000420370914303809144039091450340E05C
:10172000FCD8AD81BE818D939C930C94F713ED8111
:10173000FE81EE0FFF1FEE0DFF1DFE83ED83609116
:101740003E0370913F03809140039091410340E03C
:10175000E4D8AD81BE818D939C930C94F713ED81F9
:10176000FE81EE0FFF1FEE0DFF1DFE83ED836091E6
:101770003A0370913B0380913C0390913D0340E01C
:10178000CCD8AD81BE818D939C930C94F713ED81E1
:10179000FE81EE0FFF1FEE0DFF1DFE83ED836091B6
:1017A0003A0370913B0380913C0390913D0341E0EB
:1017B000B4D8AD81BE818D939C930C94F713ED81C9
:1017C000FE81EE0FFF1FEE0DFF1DFE83ED83609186
:1017D0003A0370913B0380913C0390913D0340E0BC
:1017E0009CD8AD81BE818D939C930C94F713ED81B1
:1017F000FE81EE0FFF1FEE0DFF1DFE83ED83609156
:10180000340370913503809136039091370340E0A3
:1018100084D8AD81BE818D939C93E9C7ED81FE8113
:10182000EE0FFF1FEE0DFF1DFE83ED83609134036D
:1018300070913503809136039091370341E06DD864
:10184000AD81BE818D939C93D2C7ED81FE81EE0F59
:10185000FF1FEE0DFF1DFE83ED8360911A03709153
:101860001B0380911C0390911D0340E056D8AD816D
:10187000BE818D939C93BBC7ED81FE81EE0FFF1F50
:10188000EE0DFF1DFE83ED8360911E0370911F031B
:10189000809120039091210340E03FD8AD81BE812B
:1018A0008D939C93A4C7ED81FE81EE0FFF1FEE0D7B
:1018B000FF1DFE83ED8360911E0370911F038091D5
:1018C00020039091210341E028D8AD81BE818D9302
:1018D0009C938DC7ED81FE81EE0FFF1FEE0DFF1D66
:1018E000FE83ED8360910E0370910F0380911003CE
:1018F0009091110340E011D8AD81BE818D939C93EE
:1019000076C7ED81FE81EE0FFF1FEE0DFF1DFE83FA
:10191000ED8360910E0370910F03809110039091FD
:10192000110341E00E948D04AD81BE818D939C9393
:101930005EC7ED81FE81EE0FFF1FEE0DFF1DFE83E2
:10194000ED83609122037091230380912403909191
:10195000250341E00E948D04AD81BE818D939C934F
:1019600046C7ED81FE81EE0FFF1FEE0DFF1DFE83CA
:10197000ED83609116037091170380911803909185
:10198000190341E00E948D04AD81BE818D939C932B
:101990002EC7ED81FE81EE0FFF1FEE0DFF1DFE83B2
:1019A000ED83609112037091130380911403909161
:1019B000150340E00E948D04AD81BE818D939C9300
:1019C00016C7ED81FE81EE0FFF1FEE0DFF1DFE839A
:1019D000ED83609112037091130380911403909131
:1019E000150341E00E948D04AD81BE818D939C93CF
:1019F000FEC6ED81FE81EE0FFF1FEE0DFF1DFE8383
:101A0000ED836091FD027091FE028091FF02909142
:101A1000000340E00E948D04AD81BE818D939C93B4
:101A2000E6C6ED81FE81EE0FFF1FEE0DFF1DFE836A
:101A3000ED8360912E0370912F038091300390917C
:101A4000310340E00E948D04AD81BE818D939C9353
:101A5000CEC6ED81FE81EE0FFF1FEE0DFF1DFE8352
:101A6000ED8360912A0370912B0380912C03909158
:101A70002D0340E00E948D04AD81BE818D939C9327
:101A8000B6C6ED81FE81EE0FFF1FEE0DFF1DFE833A
:101A9000ED8360912A0370912B0380912C03909128
:101AA0002D0341E00E948D04AD81BE818D939C93F6
:101AB0009EC6ED81FE81EE0FFF1FEE0DFF1DFE8322
:101AC000ED83609126037091270380912803909104
:101AD000290340E00E948D04AD81BE818D939C93CB
:101AE00086C6ED81FE81EE0FFF1FEE0DFF1DFE830A
:101AF000ED836091260370912703809128039091D4
:101B0000290341E00E948D04AD81BE818D939C9399
:101B10006EC6ED81FE81EE0FFF1FEE0DFF1DFE83F1
:101B2000ED836091090370910A0380910B039091FA
:101B30000C0341E00E948D04AD81BE818D939C9386
:101B400056C6ED81FE81EE0FFF1FEE0DFF1DFE83D9
:101B5000ED836091050370910603809107039091D6
:101B6000080341E00E948D04AD81BE818D939C935A
:101B70003EC6ED81FE81EE0FFF1FEE0DFF1DFE83C1
:101B8000ED836091520370915303809154039091BF
:101B9000550340E00E948D04AD81BE818D939C93DE
:101BA00026C6ED81FE81EE0FFF1FEE0DFF1DFE83A9
:101BB000ED8360915203709153038091540390918F
:101BC000550341E00E948D04AD81BE818D939C93AD
:101BD0000EC6ED81FE81EE0FFF1FEE0DFF1DFE8391
:101BE000ED8360914E0370914F038091500390916B
:101BF000510341E00E948D04AD81BE818D939C9381
:101C0000F6C5ED81FE81EE0FFF1FEE0DFF1D8091E9
:101C10005F0190E091838083EAC52D813E81220F90
:101C2000331F2E0D3F1D80915D0190915E01D90102
:101C30008D939C93DCC52D813E81220F331F2E0D89
:101C40003F1D80915C0190E0D9018D939C93CFC59D
:101C5000ED81FE81EE0FFF1FEE0DFF1D80915A01F9
:101C600090915B0191838083C2C52D813E81220FBB
:101C7000331F2E0D3F1D80916E0390E0D9018D938F
:101C80009C93B5C5ED81FE81EE0FFF1FEE0DFF1D8C
:101C9000D182C082ACC5BB2049F0C0920301C09282
:101CA0008E036C2D84E690E00E9499002D813E8188
:101CB000220F331F2E0D3F1D8091030190E0D901AB
:101CC0008D939C9394C5BB2039F0C092E6016C2D96
:101CD00085E690E00E949900ED81FE81EE0FFF1FE6
:101CE000EE0DFF1D8091E60190E0918380837FC51A
:101CF000BB2039F0C092E5016C2D86E690E00E9491
:101D000099002D813E81220F331F2E0D3F1D8091A2
:101D1000E50190E0D9018D939C9369C5BB2049F002
:101D2000D092E201C092E101B60188E690E00E9403
:101D30002905ED81FE81EE0FFF1FEE0DFF1D809145
:101D4000E1019091E2019183808351C5BB2039F07C
:101D5000C092E3016C2D89E690E00E9499002D81EC
:101D60003E81220F331F2E0D3F1D8091E30190E035
:101D7000D9018D939C933BC5BB2069F08091CA012A
:101D8000882349F0D092E801C092E701B6018CE6C1
:101D900090E00E9429058091E7019091E801ED8192
:101DA000FE81EE0FFF1FEE0DFF1D918380831FC587
:101DB000BB2069F08091CA01882349F0D092EA01E2
:101DC000C092E901B6018AE690E00E94290580915F
:101DD000E9019091EA012D813E81220F331F2E0DE2
:101DE0003F1DD9018D939C9302C58D819E81880FE3
:101DF000991F8E0D9F1DEFE0F0E0DC01ED93FC9349
:101E0000F6C4BB2059F08091CA01882339F0C092F2
:101E1000E4016C2D80E790E00E9499002D813E81C5
:101E2000220F331F2E0D3F1D8091E40190E0D90158
:101E30008D939C93DCC4BB2059F08091CA01882308
:101E400039F0C09285016C2D81E790E00E949900E5
:101E5000ED81FE81EE0FFF1FEE0DFF1D80918501CC
:101E600090E091838083C3C4BB2071F08091CA014C
:101E7000882351F0682D84E890E00E9499006C2D31
:101E800085E890E00E9499002D813E81220F331F4A
:101E90002E0D3F1D3E832D836091DD017091DE018B
:101EA0008091DF019091E00140E00E948D04AD81BE
:101EB000BE818D939C939BC4BB20F1F08091CA019D
:101EC0008823D1F0682D82E890E00E9499006C2D63
:101ED00083E890E00E9499004BEC51EA65EC70E4D5
:101EE00082E890E00E94C1046093DD017093DE01FE
:101EF0008093DF019093E001ED81FE81EE0FFF1FE3
:101F0000EE0DFF1DFE83ED836091DD017091DE011A
:101F10008091DF019091E00141E00E948D04AD814C
:101F2000BE818D939C9363C4BB2031F060913903D3
:101F300086E890E00E949900ED81FE81EE0FFF1F80
:101F4000EE0DFF1D8091390390E0918380834FC493
:101F5000BB2031F06091380387E890E00E9499003F
:101F60002D813E81220F331F2E0D3F1D809138039E
:101F700090E0D9018D939C933AC4BB2031F06091DD
:101F8000320388E890E00E949900ED81FE81EE0F17
:101F9000FF1FEE0DFF1D8091320390E0918380833F
:101FA00026C4BB2031F06091330389E890E00E94A1
:101FB00099002D813E81220F331F2E0D3F1D8091F0
:101FC000330390E0D9018D939C9311C4BB20E9F0B9
:101FD0008091CA018823C9F069817A818B819C81B3
:101FE0000E9448282DEC3CEC4CEC5DE30E94FC2860
:101FF00060938001709381018093820190938301AB
:10200000B6018AE890E00E945406ED81FE81EE0F51
:10201000FF1FEE0DFF1DFE83ED8320E030E040E268
:1020200051E46091800170918101809182019091D1
:1020300083010E94FC280E941528AD81BE816D930A
:102040007C93D5C3BB20E9F08091CA018823C9F0F5
:1020500069817A818B819C810E9448282AE037ED32
:1020600043E25CE30E94FC2860937C0170937D0155
:1020700080937E0190937F01B6018DE890E00E94ED
:102080005406ED81FE81EE0FFF1FEE0DFF1DFE8356
:10209000ED8320E030E048EC52E460917C017091E7
:1020A0007D0180917E0190917F010E94FC280E9419
:1020B0001528AD81BE816D937C9399C3BB20E9F057
:1020C0008091CA018823C9F069817A818B819C81C2
:1020D0000E9448282FE632E143E85AE30E94FC2898
:1020E000609378017093790180937A0190937B01DA
:1020F000B60180E990E00E945406ED81FE81EE0F6A
:10210000FF1FEE0DFF1DFE83ED8320E030E04AE768
:1021100054E4609178017091790180917A019091F5
:102120007B010E94FC280E941528AD81BE816D9321
:102130007C935DC3BB20C1F18091CA018823A1F1CA
:1021400069817A818B819C810E9448282AE037ED41
:1021500043E25CE30E94FC2820917C0130917D01E8
:1021600040917E0150917F010E94442720914A03B3
:1021700030914B0340914C0350914D030E94AD2789
:10218000609378017093790180937A0190937B0139
:1021900020E030E04AE754E40E94FC280E94152821
:1021A00080E990E00E945406ED81FE81EE0FFF1F52
:1021B000EE0DFF1DFE83ED8320E030E04AE754E49E
:1021C000609178017091790180917A0190917B0101
:1021D0000E94FC280E941528AD81BE816D937C93DE
:1021E00006C3BB2091F18091CA01882371F120912F
:1021F0004A0330914B0340914C0350914D03609141
:1022000078017091790180917A0190917B010E940F
:10221000FC289B01AC016AE077ED83E29CE30E941D
:10222000442760937C0170937D0180937E0190939D
:102230007F0120E030E048EC52E40E94FC280E943C
:1022400015288DE890E00E945406ED81FE81EE0F86
:10225000FF1FEE0DFF1DFE83ED8320E030E048EC14
:1022600052E460917C0170917D0180917E0190919A
:102270007F010E94FC280E941528AD81BE816D93CC
:102280007C93B5C2BB2071F18091CA01882351F1C2
:1022900010927C0110927D0110927E0110927F01BC
:1022A00060E070E08DE890E00E94540680E090E0ED
:1022B000A0E8BFE38093780190937901A0937A011D
:1022C000B0937B0168EE73E080E990E00E945406D1
:1022D000ED81FE81EE0FFF1FEE0DFF1DA1E0B0E0CE
:1022E000B183A083ED81FE81EE0FFF1FEE0DFF1D78
:1022F000118210827CC2BB2081F18091CA018823A7
:1023000061F1C09277016C2D84E990E00E94990000
:10231000809176016091770170E0680F711D072E42
:10232000000C880B990B0E9448282B013C016091FE
:1023300074017091750180E090E00E9446289B0135
:10234000AC01C301B2010E94AD2760936E0170938E
:102350006F0180937001909371012D813E81220F56
:10236000331F2E0D3F1D8091770190E0D9018D9391
:102370009C933DC2BB2081F18091CA01882361F109
:10238000C09276016C2D85E990E00E9499008091C1
:1023900076016091770170E0680F711D072E000CC7
:1023A000880B990B0E9448282B013C016091740115
:1023B0007091750180E090E00E9446289B01AC017D
:1023C000C301B2010E94AD2760936E0170936F014B
:1023D0008093700190937101ED81FE81EE0FFF1FDC
:1023E000EE0DFF1D8091760190E091838083FFC107
:1023F000BB2091F18091CA01882371F1D0927501BF
:10240000C0927401B60186E990E00E94290580918E
:1024100076016091770170E0680F711D072E000C46
:10242000880B990B0E9448282B013C016091740194
:102430007091750180E090E00E9446289B01AC01FC
:10244000C301B2010E94AD2760936E0170936F01CA
:1024500080937001909371012D813E81220F331F73
:102460002E0D3F1D8091740190917501D9018D93BE
:102470009C93BDC1BB2069F08091CA01882349F0BB
:10248000D0927301C0927201B60186E990E00E9479
:102490002905ED81FE81EE0FFF1FEE0DFF1D8091DE
:1024A00072019091730191838083A1C1BB2071F06F
:1024B0008091CA01882351F0682D8CE990E00E9438
:1024C00099006C2D8DE990E00E9499002D813E814C
:1024D000220F331F2E0D3F1D3E832D836091680117
:1024E0007091690180916A0190916B0140E00E94B6
:1024F0008D04AD81BE818D939C9379C1BB20F1F099
:102500008091CA018823D1F0682D8AE990E00E9469
:1025100099006C2D8BE990E00E94990040E050E01A
:1025200060EA71EC8AE990E00E94C104609368015E
:102530007093690180936A0190936B01ED81FE8134
:10254000EE0FFF1FEE0DFF1DFE83ED83609168010E
:102550007091690180916A0190916B0141E00E9444
:102560008D04AD81BE818D939C9341C1ED81FE812F
:10257000EE0FFF1FEE0DFF1DFE83ED8360916401E2
:1025800070916501809166019091670141E00E9420
:102590008D04AD81BE818D939C9329C1ED81FE8117
:1025A000EE0FFF1FEE0DFF1D8091580190E091830B
:1025B00080831DC180917203909173032D813E81B0
:1025C000220F331F2E0D3F1DD9018D939C930FC1F8
:1025D000BB2081F08091CA01882361F06C2D8FE9C6
:1025E00090E00E949900C092710360E070E083E087
:1025F0000E948B1FED81FE81EE0FFF1FEE0DFF1D70
:102600008091710390E091838083F1C02D813E81A0
:10261000220F331F2E0D3F1DF801E057FF4F808121
:1026200090E0D9018D939C93E2C0ED81FE81EE0F85
:10263000FF1FEE0DFF1DFE83ED83445C6091EB01F7
:102640007091EC018091ED019091EE010E948D045A
:10265000AD81BE818D939C93CAC0BB2009F4C7C0D5
:10266000F1E0CF16D10409F0C2C0109270031092AD
:102670006F03BDC0BB2041F021E0C216D10421F49C
:10268000A092DC01A092DB018D819E81880F991FB1
:102690008E0D9F1DDC011D921C92A9C02D813E81D3
:1026A000220F331F2E0D3F1DF801EE5EFF4F80817C
:1026B00090E0D9018D939C939AC0ED81FE81EE0F3D
:1026C000FF1FEE0DFF1DFE83ED836091F9027091F7
:1026D000FA028091FB029091FC0240E00E948D047E
:1026E000AD81BE818D939C9382C0ED81FE81EE0F02
:1026F000FF1FEE0DFF1DFE83ED836091F9027091C7
:10270000FA028091FB029091FC0241E00E948D044C
:10271000AD81BE818D939C936AC0ED81FE81EE0FE9
:10272000FF1FEE0DFF1DFE83ED836091010370918D
:102730000203809103039091040340E00E948D0402
:10274000AD81BE818D939C9352C0BB2031F0B1E02E
:10275000CB16D10411F4A092DC01ED81FE81EE0FC5
:10276000FF1FEE0DFF1D1182108241C0BB2031F012
:10277000F1E0CF16D10411F4A0928401809184017C
:102780002D813E81220F331F2E0D3F1D90E0880FBB
:10279000991FD9018D939C932AC0BB2051F0B2EAB6
:1027A000CB16B8E0DB0619F4A092CA0102C0109261
:1027B000CA01ED81FE81EE0FFF1FEE0DFF1D80911E
:1027C000CA0190E09183808312C0F894E0910101E6
:1027D000F091020109950BC02D813E81220F331F1C
:1027E0002E0D3F1DEFEFFFEFD901ED93FC930F5F2F
:1027F0001F4F0C94B60626960FB6F894DEBF0FBE98
:10280000CDBFDF91CF911F910F91FF90EF90DF909F
:10281000CF90BF90AF909F908F907F906F905F9080
:102820004F903F902F90089584E793E00C94962565
:102830000FB6F894A895809160008861809360003D
:10284000109260000FBE9FE088E10FB6F894A89543
:10285000809360000FBE909360000E94580561E075
:1028600082E00E94112060E082E00E944D2061E041
:1028700083E00E94112061E085E00E94112061E068
:1028800086E00E94112060E086E00E944D200E94B8
:102890004B0462E370E080E090E00E94221F61E060
:1028A0008BE993E015D462E08BE993E011D463E007
:1028B0008BE993E00DD48091E401813079F44EEB03
:1028C00054E064E484E793E00E94F52584E793E014
:1028D0000E94432690936D0180936C01A895089502
:1028E000CF92DF92EF92FF920F931F93CF93DF93DC
:1028F000609100018EEB94E00E94241E60E58EEB57
:1029000094E00E94D41D8EEB94E00E94A21E80935E
:1029100060018111A1C044E0609100018EEB94E060
:102920000E94A01ECEE4D1E002E511E08EEB94E01F
:102930000E944E1D89930C171D07C1F760914E012F
:102940006F7370E0762F662780914F01682B072EFA
:10295000000C880B990B0E9448286B017C01609148
:1029600072017091730180E090E00E9446289B0103
:10297000AC01C701B6010E94442720916E0130913D
:102980006F0140917001509171010E94FC286B0110
:102990007C016091770170E080E090E00E9448281F
:1029A0009B01AC01C701B6010E94442720E030E042
:1029B00048EC52E40E94FC2820E030E048EC52E46D
:1029C0000E9445276093EF017093F0018093F1011D
:1029D0009093F2016091500188E0689FB00111244A
:1029E00080915101829586958770682B072E000C87
:1029F000880B990B0E94482820E030E048E453E41B
:102A00000E94FC2820E030EE4FEF54E40E94AD27F6
:102A10002091800130918101409182015091830188
:102A20000E94452720E030E048E452E40E94442719
:102A30006093EB017093EC018093ED019093EE01B4
:102A400086E990E0DF91CF911F910F91FF90EF9079
:102A5000DF90CF900C94461FDF91CF911F910F9183
:102A6000FF90EF90DF90CF9008954F925F926F921A
:102A70007F928F929F92AF92BF92CF92DF92EF920E
:102A8000FF920F931F93E09161018E2F90E0FC0164
:102A90003197EE30F10508F04EC2EC5CFF4F0C941C
:102AA0002A2761E086E00E944D2082E051C183E048
:102AB0004FC116DF84E04CC185E0809361018091B5
:102AC000D7019091D801A091D901B091DA018093FA
:102AD000860190938701A0938801B09389012BC24E
:102AE0008091D7019091D801A091D901B091DA01DC
:102AF0004091860150918701609188017091890110
:102B00008C019D01041B150B260B370B0536110597
:102B10002105310508F40FC22091E401213011F4A0
:102B200087E016C18093860190938701A093880166
:102B3000B09389018CC084E793E00E940A2681113A
:102B400019C080915C018F5F80935C0120915A01D4
:102B500030915B012F5F3F4F30935B0120935A010F
:102B60008B3008F474C084E180935C0181E0809331
:102B70006E036DC088E08093610110925C01109239
:102B80006E03D9C18091D7019091D801A091D9014C
:102B9000B091DA01409186015091870160918801DE
:102BA00070918901841B950BA60BB70BC397A105E8
:102BB000B10508F04CC0BFC161E084E793E00E941A
:102BC0007C266091890370918A0380E090E00E94E6
:102BD000462828EC30E048EC5AE30E94FC28609339
:102BE00001037093020380930303909304036091A5
:102BF0008B0370918C0380E090E00E9446282FEABE
:102C000030E04FE25BE30E94FC2820E030E044E348
:102C100052E40E9444279B01AC016093F902709337
:102C2000FA028093FB029093FC0260918001709104
:102C3000810180918201909183010E9445276093D8
:102C400005037093060380930703909308038AE0BB
:102C50007FC060E086E00E944D208091600181117C
:102C600022C080915F0181111EC08091630181119A
:102C70001AC0E0900103F090020300910303109149
:102C800004032091EB013091EC014091ED01509152
:102C9000EE016091EF017091F0018091F10190914E
:102CA000F2010E949B000E942801E0900103F09035
:102CB000020300910303109104032091EB01309172
:102CC000EC014091ED015091EE016091EF017091A6
:102CD000F0018091F1019091F2010E949D038BE03F
:102CE00037C00E9402018CE033C00E9459028091DB
:102CF000480290914902A0914A02B0914B02809300
:102D0000520390935303A0935403B09355038091BF
:102D10004C0290914D02A0914E02B0914F028093CF
:102D20004E0390934F03A0935003B09351038091AF
:102D3000500290915102A0915202B091530280939F
:102D40004A0390934B03A0934C03B0934D038EE042
:102D500080936101F0C0C0905203D0905303E09083
:102D60005403F09055032AE037ED43E25CE3C701DA
:102D7000B6010E94FC284B015C01609366037093CE
:102D8000670380936803909369032DEC3CEC4CEC53
:102D90005DE30E94FC286093620370936303809359
:102DA00064039093650320E030E04AE754E4C701F0
:102DB000B6010E94FC2860935E0370935F038093CA
:102DC000600390936103C0926A03D0926B03E09218
:102DD0006C03F0926D0327ED34E844E15EE3C70134
:102DE000B6010E94FC2860935A0370935B038093A2
:102DF0005C0390935D032DEC3CEC4CEC5DE3C70170
:102E0000B6010E94FC286093560370935703809389
:102E1000580390935903C0904E03D0904F03E09015
:102E20005003F0905103C0924603D0924703E092C2
:102E30004803F092490323E333E948E853E4C70128
:102E4000B6010E9445272B013C0160934203709319
:102E50004303809344039093450326E636E646EE0B
:102E60005FE3C701B6010E94FC2820E030E040E0AB
:102E700052E40E94452760933E0370933F03809382
:102E8000400390934103A301920163E373E982E954
:102E900093E40E94AD27A50194010E94FC286B01D8
:102EA0007C016093340370933503809336039093D1
:102EB000370320E030E040E85FE30E94442760935E
:102EC0002E0370932F0380933003909331032DECE6
:102ED0003CEC4CEC5DE3C701B6010E94FC2860931A
:102EE0002A0370932B0380932C0390932D032DECD6
:102EF0003CEC4CEC5DE30E94442760932603709306
:102F000027038093280390932903A70196016091DA
:102F1000DD017091DE018091DF019091E0010E945E
:102F2000FC2860933A0370933B0380933C03909397
:102F30003D03109261011F910F91FF90EF90DF9080
:102F4000CF90BF90AF909F908F907F906F905F9049
:102F50004F9008950F931F938091D7019091D801BE
:102F6000A091D901B091DA014091D3015091D401DF
:102F70006091D5017091D6018C019D01041B150B48
:102F8000260B370B093711052105310570F08093A9
:102F9000D3019093D401A093D501B093D60165DD00
:102FA0008091DC0181110E9431031F910F910895DE
:102FB00018D76093D7017093D8018093D90190936B
:102FC000DA0120918401213071F422E02093840100
:102FD0000FB6F894A89520916000286120936000B6
:102FE000109260000FBE693B7B408105910538F06F
:102FF00080916201811103C081E080936201809120
:103000006201882349F00E9447030E946C03A2DFFB
:103010008EE893E00E94D124A8950895FC012485B0
:103020003585F901E05CFF4F8081918132962081E6
:103030003181805C9F4F821B930B60E470E00C94A5
:10304000F526DC011C96ED91FC911D97DF01A05C3B
:10305000BF4F2D913C91119712968D919C91119794
:103060002817390739F08D919C91E80FF91F80815D
:1030700090E008958FEF9FEF0895FC01A485B5853A
:10308000FD01E05CFF4F208131813296808191818A
:103090002817390779F080819181A80FB91F8C9189
:1030A000208131812F5F3F4F2F733327318320835E
:1030B00090E008958FEF9FEF0895FC0181A1882390
:1030C00029F0A489B5898C9186FFFBCF11A20895C0
:1030D0000F931F93CF93DF93FC01A685B7858D01D6
:1030E000005C1F4FE8018881998101968F739927B1
:1030F000AD014E5B5F4FEA0128813981821793074A
:10310000D1F3E80128813981A20FB31F6C93A68502
:10311000B785A05CBF4F11969C938E93A689B78903
:103120002C9181E090E0078C02C0880F991F0A94CF
:10313000E2F7822B8C9381E081A30488F589E02D4E
:1031400080818064808381E090E0DF91CF911F9146
:103150000F91089508951F920F920FB60F921124A8
:103160002F934F935F938F939F93EF93FF93809150
:10317000C00082FD1CC02091C60080914104909146
:10318000420401968F73992740914304509144045F
:103190008417950771F0E0914104F0914204EF5FCC
:1031A000FB4F2083909342048093410402C080919E
:1031B000C600FF91EF919F918F915F914F912F9159
:1031C0000F900FBE0F901F9018958BE993E026DFAC
:1031D000892B09F0BFCF08951F920F920FB60F925F
:1031E00011242F933F938F939F93EF93FF932091FD
:1031F000FD033091FE038091FF0390910004281796
:10320000390731F48091C1008F7D8093C10014C0D3
:10321000E091FF03F0910004E354FC4F2081809182
:10322000FF039091000401968F73992790930004F7
:103230008093FF032093C600FF91EF919F918F91A0
:103240003F912F910F900FBE0F901F901895CF9226
:10325000DF92EF92FF921F93CF93DF93EC016A010D
:103260007B01122F4115514E6105710509F1EC8961
:10327000FD8981E090E008A002C0880F991F0A94A0
:10328000E2F7808360E079E08DE390E0A7019601AA
:103290000E940827DA01C9010197A109B109B69571
:1032A000A795979587959C01211580E13807A8F08F
:1032B000EC89FD89108260E874E88EE190E0A70156
:1032C00096010E940827DA01C9010197A109B109F5
:1032D000B695A795979587959C01E889F9893083DC
:1032E000EA89FB892083E88DF98D1083EE89FF89B7
:1032F000408181E090E09C010C8C02C0220F331FC2
:103300000A94E2F7242B2083EE89FF8940819C01F7
:103310000D8C02C0220F331F0A94E2F7242B208366
:10332000EE89FF8940819C010E8C02C0220F331F61
:103330000A94E2F7242B2083EE89FF8920810F8CE9
:1033400002C0880F991F0A94E2F780958223808338
:10335000DF91CF911F91FF90EF90DF90CF90089574
:10336000EBE9F3E01382128288EE93E0A0E0B0E094
:1033700084839583A683B78381E391E091838083DF
:1033800081E094E0958784878DEB93E0978786872B
:1033900085EC90E0918B808B84EC90E0938B828B1A
:1033A00080EC90E0958B848B81EC90E0978B868B02
:1033B00082EC90E0918F808F86EC90E0938F828FEB
:1033C00084E0848F83E0858F87E0868F85E0878F18
:1033D00081E080A30895089563D5FDDF29DAC5EE65
:1033E000D8E1E6DD2097E9F3F0DEFBCFCF92DF9264
:1033F000EF92FF920F931F93CF93DF936C01EB013A
:103400007B01E40EF51E00E010E0CE15DF0561F053
:103410006991D601ED91FC910190F081E02DC601FA
:103420000995080F191FF1CFC801DF91CF911F91A6
:103430000F91FF90EF90DF90CF900895FC014483AF
:103440005583668377830895813039F018F0823090
:1034500051F0089510926E00089580916F008D7F55
:1034600080936F000895809170008D7F809370002D
:1034700081E08093B0008091B100887F8460809368
:10348000B1001092B3000895CF93C82F809104012A
:10349000C81307C0E4E8F0E084919FEF9093040123
:1034A00001C08FEFD1DF60E08C2FCF91F6C51F9266
:1034B0000F920FB60F9211242F933F934F935F9368
:1034C0006F937F938F939F93AF93BF93EF93FF93EC
:1034D0008091480490914904A0914A04B0914B0412
:1034E000892B8A2B8B2B51F190914504E091460456
:1034F000F0914704808189278083809148049091CE
:103500004904A0914A04B0914B04181619061A06F2
:103510001B06BCF48091480490914904A0914A0490
:10352000B0914B040197A109B1098093480490938D
:103530004904A0934A04B0934B0403C08091040152
:10354000A3DFFF91EF91BF91AF919F918F917F91F9
:103550006F915F914F913F912F910F900FBE0F9000
:103560001F9018951092B90481E08093B7041092CF
:10357000B60461E082E191D561E083E18ED5E9EBAB
:10358000F0E080818E7F808380818D7F808388E4DE
:103590008093B80085E48093BC0008959B01AC0142
:1035A00060E074E284EF90E00E940827DA01C9012C
:1035B0004097A109B109B695A795979587958093EE
:1035C000B8000895413208F043C09091B9049111B8
:1035D000FCCF91E09093B9042093B7042FEF209390
:1035E0004C0410929104240F209390049093B804FB
:1035F0009091B804880F892B8093B8048091B60409
:10360000813061F41092B6048091B8048093BB00BD
:103610008091BC0083FDF8CF85EC01C085EE8093DE
:10362000BC008091B9048130E1F38091910484174A
:1036300010F440919104A2E9B4E0962FFB018E2F83
:10364000891B841718F48D918193F9CF842F0895E5
:1036500080E008950F93413208F04AC09091B90478
:103660009111FCCF32E03093B9040093B7043FEFDF
:1036700030934C041092910440939004562FA2E989
:10368000B4E0FB013E2F351B341718F431913D9304
:10369000F9CF1092B8043091B804880F832B80932F
:1036A000B8048091B604813061F41092B604809120
:1036B000B8048093BB008091BC0083FDF8CF85ECFB
:1036C00001C085EE8093BC00222321F08091B904D3
:1036D0008230D1F380914C048F3F79F080914C047B
:1036E000803241F080914C04803331F094E005C089
:1036F00091E003C092E001C093E0892F0F910895FB
:1037000040916E04262F30E0240F311D2132310507
:10371000DCF42091B9042430C9F4FC0180E090E08D
:10372000861758F430916E042191DC01A059BB4FEB
:10373000A30FB11D2C930196F3CF80916E04680FF7
:1037400060936E0480E0089581E0089582E008951A
:103750009093B3048093B20408959093B50480933A
:10376000B404089585ED8093BC008091BC0084FD75
:10377000FCCF1092B904089585EC8093BC001092A0
:10378000B90408951F920F920FB60F9211242F9330
:103790003F934F935F936F937F938F939F93AF93D9
:1037A000BF93EF93FF938091B900887F803609F42F
:1037B0009DC070F5883209F45CC090F4803109F442
:1037C00055C038F4882309F4F3C0883009F44EC09A
:1037D000F2C0883109F44DC0803209F45EC0EBC0FC
:1037E000803409F469C050F4803309F456C088333A
:1037F00009F0E1C080934C04BFDFDDC0803509F4DF
:103800004FC0883509F45DC0883409F0D4C0D2C0F7
:10381000883909F4C3C0A8F4883709F467C038F4BC
:10382000883609F463C0803709F460C0C4C08838A2
:1038300009F4B4C0803909F45FC0803809F0BBC016
:103840005BC0803B09F482C038F4803A09F466C05A
:10385000883A09F47BC0AFC0803C09F4A3C0883C1F
:1038600009F4A0C0883B09F486C0A5C08091B804C3
:1038700010C09091910480919004981770F5E09198
:10388000910481E08E0F80939104F0E0EE56FB4F9F
:1038900080818093BB0085EC82C080934C048AC0F9
:1038A000E091910481E08E0F809391048091BB00A0
:1038B000F0E0EE56FB4F808390919104809190044C
:1038C0006AC0E091910481E08E0F80939104809111
:1038D000BB00F0E0EE56FB4F80838091B70481116E
:1038E00069C081E08093B60484EA5DC083E0809380
:1038F000B90410924D04CFCF80914D04803208F06E
:103900004DC0E0914D0481E08E0F80934D04809175
:10391000BB00F0E0E25BFB4F8083BDCF2DDF8091E9
:103920004D04803230F4E0914D04F0E0E25BFB4F57
:10393000108260914D0470E0E091B204F091B30404
:103940008EE494E0099510924D0435C084E0809394
:10395000B90410926F0410926E04E091B404F091D7
:10396000B504099580916E04811105C081E08093B2
:103970006E0410927004E0916F0481E08E0F8093CA
:103980006F04F0E0E059FB4F80818093BB00909181
:103990006F0480916E04981708F47DCF85E88093BA
:1039A000BC0009C085EC8093BC001092B90403C030
:1039B00010924C04D7DEFF91EF91BF91AF919F9190
:1039C0008F917F916F915F914F913F912F910F90C8
:1039D0000FBE0F901F9018951F920F920FB60F9267
:1039E00011242F933F934F935F936F937F938F9304
:1039F0009F93AF93BF93EF93FF938091BA049091FD
:103A0000BB04892B29F0E091BA04F091BB0409951D
:103A1000FF91EF91BF91AF919F918F917F916F91A6
:103A20005F914F913F912F910F900FBE0F901F907C
:103A300018951F920F920FB60F9211242F933F9358
:103A40004F935F936F937F938F939F93AF93BF93A6
:103A5000EF93FF938091BC049091BD04892B29F0D2
:103A6000E091BC04F091BD040995FF91EF91BF91E5
:103A7000AF919F918F917F916F915F914F913F9106
:103A80002F910F900FBE0F901F9018958091F20408
:103A900090E02091F304821B910908959091F30422
:103AA0008091F204981750F4E92FF0E0EC50FB4FAE
:103AB000208130E09F5F9093F30402C02FEF3FEF2F
:103AC000C9010895E091F3048091F204E81730F4FD
:103AD000F0E0EC50FB4F808190E008958FEF9FEF76
:103AE00008950895CF93DF93EC01E091CA04F0911B
:103AF000CB043097F1F09091F3048091F204981781
:103B0000C0F090E0292F30E02617370754F4DE018B
:103B1000A20FB31F4C91D901AC50BB4F4C939F5F88
:103B2000F1CF1092F3046093F204CB01DF91CF91B7
:103B30000994DF91CF910895E091CC04F091CD04E8
:103B4000309729F01092D0041092CF040994089570
:103B5000CF92DF92EF92FF920F931F93CF93DF9359
:103B60007C01CB018A012091CE04222389F0EB0154
:103B70006B01C40ED51ECC15DD0561F06991D7012E
:103B8000ED91FC910190F081E02DC7010995F3CFF3
:103B9000642FB6DDC801DF91CF911F910F91FF9087
:103BA000EF90DF90CF900895CF93DF931F92CDB722
:103BB000DEB769832091CE042223D1F02091CF0477
:103BC000203240F021E030E0FC013383228380E0AA
:103BD00090E014C08091D004E82FF0E0EF52FB4F4A
:103BE000998190838F5F8093D0048093CF0404C029
:103BF00061E0CE01019684DD81E090E00F90DF91DD
:103C0000CF910895FC011382128288EE93E0A0E028
:103C1000B0E084839583A683B78381E491E09183A8
:103C2000808308951092F3041092F2041092D0044D
:103C30001092CF0497DC8CE99DE18FDD82E79DE156
:103C400087CDCB01BA01AACC81E08093CE046093EA
:103C5000F1041092D0041092CF0408950F93062F10
:103C600021E04091CF0461ED74E08091F104F2DC39
:103C70001092D0041092CF041092CE040F910895A8
:103C80004F925F926F927F92AF92BF92CF92EF92DC
:103C9000FF920F931F93CF93DF935C01F62ED42FE7
:103CA00028013901EE2011F1CFDFCE2DC43008F00C
:103CB000C3E0C150C0F028E0C29FC0011124A3019D
:103CC000920104C056954795379527958A95D2F766
:103CD000CA01B901D501ED91FC910190F081E02D6F
:103CE000C5010995E6CF60E0C501B8DF4D2FD1329F
:103CF00008F040E22C2D64EF74E08F2D63DC10920D
:103D0000F3048093F204DF91CF911F910F91FF9004
:103D1000EF90CF90BF90AF907F906F905F904F905B
:103D20000895CF92EF920F931F93C22EE12C00E0E3
:103D300010E09801A5DF1F910F91EF90CF900895AB
:103D400021E0EFCF61E08ACF8EEB94E05BCF1F9252
:103D50000F920FB60F9211242F933F938F939F933F
:103D6000AF93BF938091150590911605A09117050B
:103D7000B09118053091140523E0230F2D3720F45E
:103D80000196A11DB11D05C026E8230F0296A11DB5
:103D9000B11D209314058093150590931605A093EB
:103DA0001705B09318058091190590911A05A091F7
:103DB0001B05B0911C050196A11DB11D809319052D
:103DC00090931A05A0931B05B0931C05BF91AF916A
:103DD0009F918F913F912F910F900FBE0F901F9049
:103DE00018952FB7F894609115057091160580917C
:103DF0001705909118052FBF08953FB7F89480914B
:103E0000190590911A05A0911B05B0911C0526B5C6
:103E1000A89B05C02F3F19F00196A11DB11D3FBF02
:103E2000BA2FA92F982F8827820F911DA11DB11D90
:103E3000BC01CD0142E0660F771F881F991F4A958C
:103E4000D1F70895CF92DF92EF92FF92CF93DF9355
:103E50006B017C01D2DFEB01C114D104E104F10458
:103E600071F0CBDF6C1B7D0B683E7340A8F381E0E3
:103E7000C81AD108E108F108C851DC4FEDCFDF9135
:103E8000CF91FF90EF90DF90CF900895019739F098
:103E9000880F991F880F991F02970197F1F70895CE
:103EA000789484B5826084BD84B5816084BD85B515
:103EB000826085BD85B5816085BDEEE6F0E08081DC
:103EC00081608083E1E8F0E01082808182608083FD
:103ED000808181608083E0E8F0E080818160808380
:103EE000E1EBF0E0808184608083E0EBF0E08081B2
:103EF00081608083EAE7F0E0808184608083808154
:103F000082608083808181608083808180688083FB
:103F10001092C10008951F93CF93DF93182FEB01E8
:103F200061E07FD0209711F460E004C0CF3FD1055D
:103F300031F461E0812FDF91CF911F91AEC0E12F6D
:103F4000F0E0EB57FF4FE491E330F9F048F4E13053
:103F5000B9F0E230A1F584B5806284BDC8BD34C03B
:103F6000E630E9F0E73019F1E43049F5809180005E
:103F7000806280938000D0938B00C0938A0024C01D
:103F800084B5806884BDC7BD1FC0809180008068F3
:103F900080938000D0938900C093880015C08091E1
:103FA000B00080688093B000C093B3000DC08091D2
:103FB000B00080628093B000C093B40005C0C038E8
:103FC000D1050CF0B6CFB0CFDF91CF911F910895FE
:103FD000833081F028F4813099F08230A1F0089587
:103FE0008630A9F08730B9F08430D1F48091800018
:103FF0008F7D03C0809180008F778093800008952B
:1040000084B58F7702C084B58F7D84BD089580917B
:10401000B0008F7703C08091B0008F7D8093B00097
:104020000895CF93DF9390E0FC01E756FF4F249172
:10403000FC01E355FF4F8491882361F190E0880FE4
:10404000991FFC01E553FF4FC591D491FC01EF533B
:10405000FF4FA591B491611109C09FB7F894888171
:10406000209582238883EC912E230BC0623061F46B
:104070009FB7F8948881322F309583238883EC9101
:104080002E2B2C939FBF06C08FB7F894E8812E2B60
:1040900028838FBFDF91CF9108951F93CF93DF9334
:1040A000282F30E0F901EB57FF4F8491F901E756D3
:1040B000FF4FD491F901E355FF4FC491CC23B9F0E0
:1040C000162F811185DFEC2FF0E0EE0FFF1FEF536D
:1040D000FF4FA591B4919FB7F894111104C08C9132
:1040E000D095D82302C0EC91DE2BDC939FBFDF91EB
:1040F000CF911F9108951F920F920FB60F92112426
:104100002F933F934F935F936F937F938F939F93DF
:10411000AF93BF93CF93DF93EF93FF9390913D05C0
:10412000A0913C0520918800309189008091210563
:10413000482F50E0C0917105D0917205B0913B05B8
:10414000E92FF0E04E175F07ECF02C0F3D1FEA2F30
:10415000E170A6959F5FEB1799F380918000EE23A5
:1041600011F0806C02C08F7B806880938000309358
:10417000890020938800E0933B05A0933C05909331
:104180003D058FC090911F05911105C0EA01219650
:10419000EC17FD0729F0EA012296EC17FD07A1F4C0
:1041A0008D5F80933D0580918000806C80938000BE
:1041B000609120054091710550917205649FC00186
:1041C000659F900D112467C04F5F5F4FE417F5079F
:1041D000C9F48E5F80933D0580912205B81709F4DC
:1041E00056C0882321F080918000806C04C08091AB
:1041F00080008F7B8068809380008091220580936F
:104200003B0545C080913A05E09139058E130DC0FC
:1042100010923D05809180008F7380938000809183
:104220006F008D7F80936F003CC081E080933D05DF
:10423000EF5FE43108F0E0E0E0933905F0E0ED5D98
:10424000FA4F808180933C0510923B059923C9F079
:10425000082E82958025082E8695869580258F5F6D
:1042600081FB662760F970E041E050E0923011F088
:1042700040E050E081E06417750709F080E080932A
:104280002205809180008F7B8068809380008091E0
:10429000710590917205280F391F30938900209382
:1042A0008800FF91EF91DF91CF91BF91AF919F91E6
:1042B0008F917F916F915F914F913F912F910F90CF
:1042C0000FBE0F901F9018951F920F920FB60F926E
:1042D00011241F932F933F934F935F936F937F937B
:1042E0008F939F93AF93BF93CF93DF93EF93FF93FE
:1042F000209186003091870090916E058091810019
:10430000992331F08F7B8093810010926E0506C057
:1043100080648093810080E880936E0580917005B1
:10432000811123C091119AC080916A0590916B050B
:10433000820F931F90938B0080938A0084E086BB4A
:1043400080916F00846080936F00809171059091DF
:104350007205280F391F96958795280F391F3093BE
:104360006D0520936C0581E074C040916C055091FF
:104370006D05C091210570916E0590916F05A0911A
:104380007105B0917205D0911E0510911D05241B79
:10439000350B37FD58C0882321F0C81710F09695CB
:1043A000972B4A0F5B1F8F5F8D1708F446C09093C1
:1043B0006F0580916F008B7F80936F0090911F0538
:1043C0009923F9F080916F05082E82958025082E9B
:1043D0008695869580258F5F81FBEE27E0F9F0E0DA
:1043E00021E030E0923011F020E030E081E090E018
:1043F000E217F30711F080E090E070E0861797076E
:1044000091F4809169058F5F883230F5909168054D
:10441000891749F0E82FF0E090916F05E25CFA4FC0
:10442000908380936905809181008F7B80938100C8
:1044300010926E051092700511C0811708F4672F55
:104440002A1B3B0BA6CF90936F0550936D054093AD
:104450006C058093700502C080E0D8CFFF91EF918A
:10446000DF91CF91BF91AF919F918F917F916F918C
:104470005F914F913F912F911F910F900FBE0F9021
:104480001F9018951F920F920FB60F9211242F9321
:104490004F935F936F937F938F939F93EF93FF93CC
:1044A00080916F008B7F80936F00809181008F7B64
:1044B000809381008091700520916E052058409175
:1044C000210550E090916F05682F70E0461757075F
:1044D00024F09695922B8F5FF7CF90936F05809184
:1044E00069058F5F883208F080E0209168058217A7
:1044F00039F0E82FF0E0E25CFA4F90838093690591
:1045000010927005809181008F7B809381001092C2
:104510006E05FF91EF919F918F917F916F915F91C8
:104520004F912F910F900FBE0F901F9018950F93E2
:104530001F93CF93DF93EC0140E855E260E070E019
:104540008BE993E00E942719E1ECF0E08081806420
:1045500080831E830D8384E080937305DF91CF9168
:104560001F910F9108958FEF9FEF4217A8F4FB0161
:10457000E40FF11D3081832738E0FC01E170FF2753
:1045800096958795EF2B21F051E0852750EA9527E6
:10459000315099F74F5FE9CF9827892798270895D9
:1045A0001F93CF93DF93EB01142F242F40E0DBDF29
:1045B000FE01E10FF11D90831F5FC10FD11D8883A4
:1045C000DF91CF911F910895FB0141814330A9F004
:1045D000463029F0403189F081E090E00895228151
:1045E00030E0322F22274381240F311DFC018581C9
:1045F00096812817390718F528C0248130E0322F1A
:1046000022275581250F311D433021F0403111F013
:1046100040E001C04EE021153105A1F050E0421705
:10462000530780F0228130E0322F22274381240F6C
:10463000311DFC01858196818217930730F482E059
:1046400090E0089583E090E0089580E090E0089580
:10465000FC017483638308950F931F93CF93DF93BB
:10466000DB01BA01A9019801EC01EB81FC81CD01CC
:10467000DF91CF911F910F9109946F927F928F924A
:104680009F92AF92BF92CF92DF92EF92FF920F93E1
:104690001F93CF93DF935C014B016A0139017A01CB
:1046A000C0E0D0E082E0E80EF11CF601858190E0E8
:1046B000C817D90788F4F701058110E0102F0027EB
:1046C0008681082BAE01480D591D21E030E0B30171
:1046D000C501C2DF2196E6CFCE01DF91CF911F91B8
:1046E0000F91FF90EF90DF90CF90BF90AF909F9091
:1046F0008F907F906F9008951F920F920FB60F9238
:1047000011245A980F900FBE0F901F901895EF929A
:10471000FF920F931F93CF93DF938091C00080642B
:104720008093C0008FB7F8945A9A8FBFEB01042F83
:1047300010E07B01E00EF11ECE15DF0531F069912E
:104740008BE993E00E946818F7CFC801DF91CF9101
:104750001F910F91FF90EF900895EF92FF920F93AA
:104760001F93CF938C017B01C42F1ADF42E04C0FC3
:10477000B701C801CF911F910F91FF90EF90C7CF64
:10478000CF92DF92EF92FF920F931F93CF93DF931D
:10479000CDB7DEB728970FB6F894DEBF0FBECDBFFA
:1047A0006C01842F752FA801698390E19A837B8324
:1047B0008C831D822E839701682FC6015EDF892BB3
:1047C00039F046E0BE016F5F7F4FC601C6DF02C011
:1047D00080E090E028960FB6F894DEBF0FBECDBF04
:1047E000DF91CF911F910F91FF90EF90DF90CF90CD
:1047F0000895EF92FF920F931F93CF93DF93CDB75E
:10480000DEB728970FB6F894DEBF0FBECDBF7C0190
:10481000C801F90104811581102701271027698338
:1048200026E02A835B834C831D830E8321E030E0E6
:10483000BC01C70111DF46E0BE016F5F7F4FC701BA
:104840008CDF28960FB6F894DEBF0FBECDBFDF9188
:10485000CF911F910F91FF90EF900895AF92BF926B
:10486000CF92DF92EF92FF920F931F93CF93DF933C
:10487000CDB7DEB7A8970FB6F894DEBF0FBECDBF99
:104880006C015801698383E08A83822F880F8B83B0
:10489000E22EF12C00E010E09701B501C601DCDE4C
:1048A000D501FE01319680E090E0BF0132968E1571
:1048B0009F0548F42C9111963C91119712963183E3
:1048C00022830196F3CFA701440F551F4D5F5F4F21
:1048D000C60143DFA8960FB6F894DEBF0FBECDBF6A
:1048E000DF91CF911F910F91FF90EF90DF90CF90CC
:1048F000BF90AF9008950F931F93CF93DF938B01D9
:10490000C0E0D0E08BE993E00E940E18892B71F093
:104910008BE993E00E943D18F80181938F01219665
:10492000C632D10579F78FEF9FEF01C0CE01DF913D
:10493000CF911F910F910895DF92EF92FF920F9305
:104940001F93CF93DF937C01D62E8A01BA01D3DF68
:10495000EC0118161906CCF4282F225040E0B801BB
:10496000C70101DEA8014C0F5D1FFA0132972081BB
:1049700030E0322F222731964081242B8217930773
:1049800031F4F80180818D1102C0CE0102C08FEF99
:104990009FEFDF91CF911F910F91FF90EF90DF90EC
:1049A00008958F929F92AF92BF92CF92DF92EF9233
:1049B000FF920F931F93CF93DF93CDB7DEB7CC5702
:1049C000D1090FB6F894DEBF0FBECDBF6C018BE9E5
:1049D00093E00E940E185C01892B21F4F6011486E5
:1049E000138687C0FED92BB1122F147022FD81C00F
:1049F000F60123853485A216B30639F0B486A38662
:104A0000678370878187928775C0F601878090845D
:104A1000A184B284DC01CB0188199909AA09BB09D8
:104A200080907305912CA12CB12C88159905AA05AD
:104A3000BB0508F45FC014861386AE014B5A5F4F66
:104A40006081C60179DF181619060CF050C0482F96
:104A5000BE016B5A7F4FC601B7DD9C0167969FADC3
:104A600067972115310571F0122FF6018081898336
:104A700090589A832B8343E0BE016F5F7F4FC6013E
:104A80006CDE38C068964FAD689750E0542F4427CD
:104A900069968FAD6997480F511DF6019283963044
:104AA000E1F0903161F0933029F58E010F5F1F4FD7
:104AB0006B962FAD6B976081C601D0DE18C0CE011A
:104AC00001967C018E010B5A1F4F6B962FAD6B9791
:104AD000F6016081C60154DE0AC08E010F5F1F4FD0
:104AE0009E012B5A3F4FF6016081C60182DE182FCE
:104AF00001C010E0812FC458DF4F0FB6F894DEBF1D
:104B00000FBECDBFDF91CF911F910F91FF90EF901E
:104B1000DF90CF90BF90AF909F908F900895DC0171
:104B2000ED91FC910190F081E02D0994FC0112823D
:104B30001482158216821782108E178A168A158A99
:104B400013821486158616861786108A118A128A91
:104B5000138A148A118E0895FB018FEF21E34423F9
:104B600069F09191892798E087FF03C0880F822719
:104B700001C0880F9150C1F74150F1CF08950F93B4
:104B80001F93CF93DF93EC018B016A818881998118
:104B90005BD8612F70E088819981C1DFB8017727E8
:104BA00088819981BCDF88819981CCD8882321F0C4
:104BB00081E8898F80E001C081E0DF91CF911F9172
:104BC0000F910895611103C062EA70E302C066E0CC
:104BD00070E0D5DF882339F061E070E080E090E09C
:104BE00031D981E0089580E00895CF93DF93EC01FF
:104BF0008CEB860F823050F4CA016A835983488354
:104C000011D860E0CE01DF91CF91DCCF80E0DF9161
:104C1000CF91089560E074E2B2CFEF92FF920F93CC
:104C20001F93CF93DF937C01C62F8A01462FDC01AF
:104C300012966C9112978D919C9182D890E06C2F76
:104C400070E08617970791F4E801080F191FC01745
:104C5000D10789F0F70180819181DC01ED91FC9110
:104C60000680F781E02D09958993F1CF82E8F7015D
:104C7000818F80E001C081E0DF91CF911F910F9182
:104C8000FF90EF900895FF920F931F93CF93DF93C0
:104C900000D01F92CDB7DEB78C0119821A821B8219
:104CA0006DE273EF6CDF8823A1F0AE014F5F5F4FC1
:104CB00063E0C801B2DF882361F0FB8042E0BE01FF
:104CC0006F5F7F4FC80148DFF81631F087E8F801C1
:104CD000818F8FEF9FEF07C0898190E0982F882701
:104CE0002A81820F911D0F900F900F90DF91CF912D
:104CF0001F910F91FF900895EF92FF920F931F93D2
:104D0000CF93DF9300D000D000D0CDB7DEB78C01B9
:104D1000E62EAE014F5F5F4F66E07FDFF82E8823FF
:104D200071F1E11019C0EB8042E0BE016F5F7F4F6F
:104D3000C80112DFE81611F085E80AC0EE8042E0F3
:104D4000BE016C5F7F4FC80107DFE81629F086E8D7
:104D5000F801818FF12C13C0898190E0982F88276A
:104D60002A81820F911DF801908F878B8C8190E0B2
:104D7000982F88272D81820F911D968B858B8F2DE3
:104D800026960FB6F894DEBF0FBECDBFDF91CF9150
:104D90001F910F91FF90EF90089508951F920F9229
:104DA0000FB60F9211242F933F934F935F936F93FE
:104DB0007F938F939F93AF93BF93EF93FF93E09174
:104DC0000501F09106010995FF91EF91BF91AF9117
:104DD0009F918F917F916F915F914F913F912F9113
:104DE0000F900FBE0F901F90189597FB072E16F48B
:104DF000009406D077FD08D033D007FC05D03EF4F0
:104E0000909581959F4F0895709561957F4F089576
:104E1000A1E21A2EAA1BBB1BFD010DC0AA1FBB1FBE
:104E2000EE1FFF1FA217B307E407F50720F0A21B30
:104E3000B30BE40BF50B661F771F881F991F1A949D
:104E400069F760957095809590959B01AC01BD01C7
:104E5000CF010895EE0FFF1F0590F491E02D099406
:104E6000AA1BBB1B51E107C0AA1FBB1FA617B70790
:104E700010F0A61BB70B881F991F5A95A9F78095AC
:104E80009095BC01CD0108955058BB27AA270ED09C
:104E900075C166D130F06BD120F031F49F3F11F431
:104EA0001EF45BC10EF4E095E7FB51C1E92F77D109
:104EB00080F3BA17620773078407950718F071F437
:104EC0009EF58FC10EF4E0950B2EBA2FA02D0B018D
:104ED000B90190010C01CA01A0011124FF27591B3F
:104EE00099F0593F50F4503E68F11A16F040A22F45
:104EF000232F342F4427585FF3CF469537952795B6
:104F0000A795F0405395C9F77EF41F16BA0B620BB4
:104F1000730B840BBAF09150A1F0FF0FBB1F661FFB
:104F2000771F881FC2F70EC0BA0F621F731F841F3E
:104F300048F4879577956795B795F7959E3F08F064
:104F4000B3CF9395880F08F09927EE0F9795879523
:104F50000895D9D008F481E008950CD00FC107D18D
:104F600040F0FED030F021F45F3F19F0F0C0511155
:104F700039C1F3C014D198F39923C9F35523B1F380
:104F8000951B550BBB27AA2762177307840738F0B8
:104F90009F5F5F4F220F331F441FAA1FA9F333D017
:104FA0000E2E3AF0E0E830D091505040E695001CCB
:104FB000CAF729D0FE2F27D0660F771F881FBB1F87
:104FC000261737074807AB07B0E809F0BB0B802D61
:104FD000BF01FF2793585F4F2AF09E3F510568F0AD
:104FE000B6C000C15F3FECF3983EDCF38695779541
:104FF0006795B795F7959F5FC9F7880F911D9695AF
:10500000879597F90895E1E0660F771F881FBB1F0A
:10501000621773078407BA0720F0621B730B840BB7
:10502000BA0BEE1F88F7E095089504D06894B1118B
:10503000D9C00895BCD088F09F5790F0B92F992718
:10504000B751A0F0D1F0660F771F881F991F1AF093
:10505000BA95C9F712C0B13081F0C3D0B1E008955C
:10506000C0C0672F782F8827B85F39F0B93FCCF3DD
:10507000869577956795B395D9F73EF49095809589
:10508000709561957F4F8F4F9F4F0895E89409C0A9
:1050900097FB3EF490958095709561957F4F8F4F6B
:1050A0009F4F9923A9F0F92F96E9BB279395F69581
:1050B000879577956795B795F111F8CFFAF4BB0FFF
:1050C00011F460FF1BC06F5F7F4F8F4F9F4F16C063
:1050D000882311F096E911C0772321F09EE8872FED
:1050E000762F05C0662371F096E8862F70E060E0A9
:1050F0002AF09A95660F771F881FDAF7880F969522
:10510000879597F90895990F0008550FAA0BE0E8C5
:10511000FEEF16161706E807F907C0F01216130679
:10512000E407F50798F0621B730B840B950B39F4B9
:105130000A2661F0232B242B252B21F408950A261F
:1051400009F4A140A6958FEF811D811D089597F95F
:105150009F6780E870E060E008959FEF80EC08951D
:1051600000240A9416161706180609060895002446
:105170000A9412161306140605060895092E0394C0
:10518000000C11F4882352F0BB0F40F4BF2B11F434
:1051900060FF04C06F5F7F4F8F4F9F4F089557FD93
:1051A0009058440F551F59F05F3F71F04795880F95
:1051B00097FB991F61F09F3F79F08795089512162C
:1051C00013061406551FF2CF4695F1DF08C01616D8
:1051D00017061806991FF1CF869571056105089489
:1051E0000895E894BB2766277727CB0197F90895A0
:1051F0008ADF08F48FEF08950BD0C0CFB1DF28F01D
:10520000B6DF18F0952309F0A2CFA7CF1124EACF7B
:10521000C6DFA0F3959FD1F3950F50E0551F629F15
:10522000F001729FBB27F00DB11D639FAA27F00DFF
:10523000B11DAA1F649F6627B00DA11D661F829F26
:105240002227B00DA11D621F739FB00DA11D621F0B
:10525000839FA00D611D221F749F3327A00D611D28
:10526000231F849F600D211D822F762F6A2F11240A
:105270009F5750408AF0E1F088234AF0EE0FFF1F5D
:10528000BB1F661F771F881F91505040A9F79E3F94
:10529000510570F05CCFA6CF5F3FECF3983EDCF396
:1052A000869577956795B795F795E7959F5FC1F7D1
:1052B000FE2B880F911D9695879597F90895F9997A
:1052C000FECF92BD81BDF89A992780B50895262F0B
:1052D000F999FECF1FBA92BD81BD20BD0FB6F894DB
:0E52E000FA9AF99A0FBE01960895F894FFCF3E
:1052EE0028073F01FFCD266009C0128025403800F7
:1052FE004B0096C0DA0000003F0000003F000000A7
:10530E003F8FC2F53C8FC2F53C8FC2F53C000000CA
:10531E00006818F6190E183D1821185D18000000C7
:0E532E0000D41DA81D461D4E1D621D711D00E0
:00000001FF
