S01100004C44495F41746D656C2E73726563E8
S11300000C9435000C945D000C945D000C945D0020
S11300100C945D000C945D000C945D000C945D00E8
S11300200C945D000C945D000C945D000C945D00D8
S11300300C945D000C945D000C94C9060C945D0056
S11300400C945D000C945D000C9408060C9440061E
S11300500C946B060C945D000C945D000C945D0094
S11300600C945D000C945D00040311241FBECFEFBB
S1130070D8E0DEBFCDBF11E0A0E0B1E0ECEEF6E1E8
S113008002C005900D92A630B107D9F721E0A6E091
S1130090B1E001C01D92AA3BB207E1F710E0C5E34D
S11300A0D0E004C02197FE010E94310BC433D10774
S11300B0C9F70E94EB0A0C94740B0C940000F8949A
S11300C00FB6F894A89580916000886180936000D1
S11300D0109260000FBE1092C1001CBC1092BC00B4
S11300E011248FEF98E09EBF8DBF81E085BF82E031
S11300F085BFE0E0F8E3099508950F931F9380917D
S1130100170190911801A0911901B0911A01409121
S11301100B0150910C0160910D0170910E018C0145
S11301209D01041B150B260B370B04361105210505
S1130130310508F442C080930B0190930C01A09305
S11301400D01B0930E0120911B012223B1F00FB6D3
S1130150F894A89580916000886180936000109263
S113016060000FBE98E088E10FB6F894A8958093DC
S113017060000FBE90936000FFCF40911301509137
S11301801401609115017091160141155105610525
S1130190710599F0841B950BA60BB70BC397A105AA
S11301A0B10558F010921301109214011092150128
S11301B0109216010E945F00FFCF1F910F910895C6
S11301C00E94CD0308950E94890308950E94AB0301
S11301D090931D0180931C01089520910101309199
S11301E0020180911C0190911D012817390751F0DB
S11301F00E94010480911C0190911D0190930201C1
S11302008093010108950F931F9301ED17E026E0F9
S113021040E855E260E070E08EE191E00E9408075A
S113022066E271E08EE191E00E94E80880910001AD
S113023080931E011F910F9108950E9492030895C7
S11302400E944C0B08950E94460B08957F928F9252
S11302509F92AF92BF92CF92DF92EF92FF920F9351
S11302601F93CF93DF936C01EB017A0149018091D5
S1130270170190911801A0911901B0911A0180936E
S11302800F0190931001A0931101B093120180917A
S11302902001803121F0863029F0712C05C07724AB
S11302A0739402C07724739480910601811105C070
S11302B081E0809306010E941D0100E010E00E150C
S11302C01F050CF0E2C0CF3482E0D80709F45FC008
S11302D074F4C732D10571F11CF42097F9F0C8C049
S11302E0C832D105A1F1C436D105D9F1C1C0C43891
S11302F0F3E0DF0709F473C034F4C235E2E0DE074B
S113030009F459C0B5C0C83EF3E0DF0709F492C050
S1130310C93E83E0D80709F4A1C0AAC0F801EE0FD2
S1130320FF1FEC0DFD1D80911C0190911D01918317
S11303308083A7C05801AA0CBB1CAC0CBD1C81E077
S113034090E00E942301F501918380839AC0F80113
S1130350EE0FFF1FEC0DFD1D81E090E09183808383
S113036090C0772049F0C4010197873F910520F49C
S11303708092000180921E01F801EE0FFF1FEC0D28
S1130380FD1D8091000190E0918380837AC07720E5
S113039029F0B40181E090E00E9420015801AA0CE8
S11303A0BB1CAC0CBD1C81E090E00E942301F50154
S11303B09183808366C0772039F0F1E08F16910431
S11303C019F481E080931B01F801EE0FFF1FEC0D7F
S11303D0FD1D80911B0190E09183808352C07720A2
S11303E081F08091170190911801A0911901B091A9
S11303F01A018093130190931401A0931501B093F3
S11304001601F801EE0FFF1FEC0DFD1D8091130185
S113041090911401A0911501B0911601892B8A2B9A
S11304208B2B19F081E090E002C080E090E0918392
S1130430808327C0772029F0B40183E090E00E94F4
S113044020015801AA0CBB1CAC0CBD1C83E090E03D
S11304500E942301F5019183808313C0F801EE0FFC
S1130460FF1FEC0DFD1D8EE594E09183808309C090
S1130470F801EE0FFF1FEC0DFD1D8FEF9FEF918331
S1130480808321960F5F1F4F1ACFDF91CF911F9169
S11304900F91FF90EF90DF90CF90BF90AF909F901F
S11304A08F907F9008950E94990308950F931F934E
S11304B08091170190911801A0911901B0911A012E
S11304C040910701509108016091090170910A015E
S11304D08C019D01041B150B260B370BB901A801D8
S11304E0443F51406105710508F1809307019093E1
S11304F00801A0930901B0930A0140910F015091A2
S113050010016091110170911201841B950BA60BCF
S1130510B70B80319742A105B10510F01092060186
S113052080910601811102C00E9453021F910F9114
S11305300895019739F46F3F7F4F21F48EE191E0E4
S11305400E94F5060895A89584B7877F84BF0FB6E7
S1130550F894A8958091600088618093600010925F
S113056060000FBE9EE088E10FB6F894A8958093D2
S113057060000FBE909360000E94E0000E94E300C0
S1130580809300010E94B1066093170170931801D3
S11305908093190190931A0160930F0170931001D5
S11305A0809311019093120160930B0170930C01DD
S11305B080930D0190930E016093070170930801DD
S11305C08093090190930A010E94E6000E94ED00C5
S11305D00E940301A89508950E94B1066093170133
S11305E0709318018093190190931A010E94E600F8
S11305F00E94ED000E947D000E9456028EE191E06F
S11306000E94310AA89508956FEF7FEF81E090E092
S11306100E9499020895442329F0FC012081622B51
S113062060830895FC0120816095622360830895AE
S1130630482F62E085E290E00E940B0308958BB19D
S113064080618BB900008BB18F7E8BB90000089557
S11306508BB188608BB900008BB1877F8BB90000A8
S113066008958BB188608BB900008BB1877F8BB9FB
S113067000008BB188608BB9000008958BB1877F2F
S11306808BB90895982F80FD02C080E001C080E1FD
S113069091FD886092FD846093FD826094FD816089
S11306A008959C0102C0369527956A95E2F781E08A
S11306B020FF80E008950F931F93CF938C01C7E030
S11306C0CC2354F06C2FC8010E9451030E941803DC
S11306D00E941F03C150F4CFCFE0C83054F06C2FF8
S11306E0C8010E9451030E9418030E941F03C150B5
S11306F0F4CF80E00E9418030E942803CF911F9139
S11307000F91089580912D0190912E010E945B0319
S1130710089586B180958F710E944203811101C0B2
S113072081E00895482F61E085E290E00E940B0388
S1130730089595B181E0892785B908958BB18460C6
S11307408BB908958BB18B7F8BB908958BB182FBE4
S1130750882780F908950F931F93CF930E94310344
S1130760C0E000E010E0C03140F4000F111F4D99CB
S113077001600E941F03CF5FF6CF0E943E030E94D8
S11307808203C801CF911F910F91089590932E0178
S113079080932D010E945B03089587B1807E87B901
S11307A088B18F6188B98AB18E7F8AB98AB186602F
S11307B08AB98BB18E7F8BB98BB18D7F8BB90E9437
S11307C0A2038AB188618AB98AB18F7D8AB98BB153
S11307D0877F8BB98BB18F7E8BB98BB18F7D8BB9B2
S11307E084B1826084B985B18D7F85B984B181601B
S11307F084B980E00E94920380E090E00E94C603E6
S113080008950E94C60308954F925F926F927F925B
S11308108F929F92AF92BF92CF92DF92EF92FF920C
S11308200F931F93CF93DF9300D000D000D0CDB7A8
S1130830DEB73E832D83611571058105910509F4A9
S113084071C0232B09F470C00115110509F46EC0A1
S1130850442331F0C12CD12C76016894C3F805C02F
S1130860C12CD12C76016894C4F8A70196010E948A
S1130870F40A4B015C01672B682B692B09F458C0FF
S113088060E074E284EF90E0A50194010E94040BFF
S113089029833A834B835C83211531054105510536
S11308A009F448C021503109410951092B013C0187
S11308B0440C551C661C771C481459046A047B04B8
S11308C020F429833A834B835C8349805A806B806C
S11308D07C80411420E152066104710468F5AD8105
S11308E0BE814D925C92E981FA81CF01A0E0B0E033
S11308F0BC01CD016F5F7F4F8F4F9F4FA7019601C2
S11309000E94F40A9B01AC0160E074E284EF90E081
S11309100E94040BD8012D933D934D935C93139740
S113092081E00BC080E009C080E007C080E005C022
S113093080E003C080E001C080E026960FB6F89402
S1130940DEBF0FBECDBFDF91CF911F910F91FF90FE
S1130950EF90DF90CF90BF90AF909F908F907F905B
S11309606F905F904F900895BF92CF92DF92EF9275
S1130970FF920F931F93CF93DF93CDB7DEB72C97DE
S11309800FB6F894DEBF0FBECDBF6B017C011A8297
S113099019821C821B821D821E821F821886198660
S11309A01A861B861C868E010B5F1F4F9E012F5FCC
S11309B03F4F40E00E940404B82E0C5F1F4F9E017D
S11309C02D5F3F4F41E0C701B6010E940404C114EA
S11309D001EED006E104F10431F4BB2021F0998149
S11309E02A8180E04FC0BB20F1F18823E1F18D81A1
S11309F09E81AF81B885C816D906EA06FB0628F49D
S1130A008C199D09AE09BF0908C0A7019601281BCE
S1130A10390B4A0B5B0BDA01C90149855A856B8591
S1130A207C85C416D506E606F70648F48A019B01C0
S1130A300C191D092E093F096801790104C0C41A63
S1130A40D50AE60AF70AC816D906EA06FB0610F420
S1130A5081E001C080E0882319F09B812C8112C0C1
S1130A6099812A810FC0882321F09B812C8181E008
S1130A7009C0BB2021F099812A8180E003C090E065
S1130A8020E080E0882321F082E08093C00002C04F
S1130A901092C0002093C5009093C4002C960FB60A
S1130AA0F894DEBF0FBECDBFDF91CF911F910F91A0
S1130AB0FF90EF90DF90CF90BF900895982F96709D
S1130AC0943031F0963031F0923031F090E005C03E
S1130AD094E003C096E001C092E083FD98608073C7
S1130AE0803229F4906281E08093310109C080331F
S1130AF029F4906381E08093310102C010923101A6
S1130B009093C20008950F931F93CF93DF93042F04
S1130B101FB7F894C1ECD0E018820E94B404802F6F
S1130B200E945E0510923501109234011092330137
S1130B3010923201E0ECF0E080818064808388E9E7
S1130B4088831FBFDF91CF911F910F9108958091EA
S1130B50350190913401891B8F730895909135016B
S1130B6080913401981769F090913401E92FF0E0F5
S1130B70EA58FE4F80819F5F9F739093340190E009
S1130B8008958FEF9FEF08959091330120913201E2
S1130B90921B9F739F33C1F3309133012091320133
S1130BA090913301E92FF0E0EA5CFE4F80839F5F70
S1130BB09F7390933301321305C0E0ECF0E0808121
S1130BC080648083E1ECF0E080818062808308951A
S1130BD09C019FB7F8943093300120932F019FBF5D
S1130BE008959FB7F894E0ECF0E0808180648083FE
S1130BF0E1ECF0E08081806480839FBF08959FB71B
S1130C00F894E1ECF0E080818F7B80839FBF0895AE
S1130C101F920F920FB60F9211242F938F939F93CD
S1130C20EF93FF938091C0002091C600982F987194
S1130C30E9F490913101992321F082FD04C080E010
S1130C4003C080E001C081E0811110C080913501B2
S1130C508F5F8F7390913401891741F0E0913501D2
S1130C60F0E0EA58FE4F208380933501FF91EF9125
S1130C709F918F912F910F900FBE0F901F901895F9
S1130C801F920F920FB60F9211248F939F93EF939D
S1130C90FF939091330180913201981306C0E1ECE7
S1130CA0F0E080818F7D80830DC080913201E82F38
S1130CB0F0E0EA5CFE4F90819093C6008F5F8F73E3
S1130CC080933201FF91EF919F918F910F900FBE0E
S1130CD00F901F9018951F920F920FB60F92112428
S1130CE02F933F934F935F936F937F938F939F9330
S1130CF0AF93BF93EF93FF93E1ECF0E080818F7BA0
S1130D008083E0912F01F0913001309709F009952B
S1130D10FF91EF91BF91AF919F918F917F916F91CF
S1130D205F914F913F912F910F900FBE0F901F90A5
S1130D3018959FB7F8941092B6011092B7011092CB
S1130D40B8011092B90114BC15BC16BC82E084BD74
S1130D5029EF27BD85BB80936E0083E085BD9FBFCF
S1130D6008952FB7F8946091B6017091B7018091FE
S1130D70B8019091B9012FBF08959C012150310908
S1130D80892B31F084E090E00197F1F7C901F5CFA8
S1130D9008951F920F920FB60F9211248F939F9371
S1130DA0AF93BF938091B6019091B701A091B80120
S1130DB0B091B9010196A11DB11D8093B601909324
S1130DC0B701A093B801B093B901BF91AF919F91BE
S1130DD08F910F900FBE0F901F90189584E190E0B3
S1130DE00E94BD060E94A2030895FC011082118294
S1130DF0128285E090E094838383168215821086A4
S1130E00178211861286138614861686158608950F
S1130E10CF92DF92EF92FF920F931F93CF93DF93C2
S1130E20EC016A017B01422FC701B6010E948305D0
S1130E308EEE96E00E94E8050E94FF05C114D104DD
S1130E40E104F10429F485E090E09C838B831CC0C9
S1130E5060E47CE980E090E0A70196010E94040B25
S1130E603C832B832230310520F482E090E09C8384
S1130E708B8381E8C81685E2D806E104F10420F4E6
S1130E8085E090E09C838B8318870F83DF91CF915B
S1130E901F910F91FF90EF90DF90CF9008958FEF07
S1130EA09FEF4217B8F4FB01E40FF11D3081832753
S1130EB030E0383068F4FC01E170FF27969587959F
S1130EC0EF2B21F051E0852750EA95273F5FF1CFC2
S1130ED04F5FE7CF98278927982708950F931F938B
S1130EE0F80160834183220F22831F910F9108959B
S1130EF0EF92FF920F93F701608341833283238340
S1130F00148205830F91FF90EF900895EF92FF9262
S1130F100F931F93F70160834183328323831483E8
S1130F2005831F910F91FF90EF9008950F931F93E6
S1130F30F80160834058418322831F910F910895E3
S1130F401F93CF93DF93EB01142F242F40E00E94D3
S1130F504F0721E0210FFE01E10FF11D9083C20F25
S1130F60D11D8883DF91CF911F910895EF92FF9255
S1130F700F931F93CF93DF936115710509F14423F8
S1130F8011F1D42F8B017C01CFB7F8940E949E03FA
S1130F90CFBF88E0F70181838AE090E00E94BD061C
S1130FA00E94F105C0E0CD1740F4F801EC0FF11DEB
S1130FB080810E94C405CF5FF6CF8C2F90E005C0DE
S1130FC080E090E002C080E090E0DF91CF911F913B
S1130FD00F91FF90EF900895EF92FF920F931F935C
S1130FE0CF938C017B01C42F0E94A00742E04C0FD9
S1130FF0B701C8010E94B60780E090E0CF911F912D
S11310000F91FF90EF9008950F931F93CF93DF9369
S11310108B01C0E0D0E00E94A705882369F0C832A4
S1131020D1056CF40E94AE05992364F0F801EC0F2D
S1131030FD1F80832196EFCF8C2F9D2F05C08FEF4E
S11310409FEF02C08C2F9D2FDF91CF911F910F91A5
S11310500895DF92EF92FF920F931F93CF93DF9344
S11310607C01D62E8A01BA010E940408EC011816EC
S1131070190604F582309105FCF0282F225040E037
S1131080B801C7010E944F07A8014C0F5D1FFA0168
S11310903297208130E0322F222731964081242B51
S11310A08217930761F4F80180818D1559F08FEF51
S11310B09FEF0AC09D2F08C08FEF9FEF05C08FEFF1
S11310C09FEF02C08C2F9D2FDF91CF911F910F9125
S11310D0FF90EF90DF900895CF93DF93DC01FB0145
S11310E0483008F452C090E0292F30E02330310515
S11310F04CF4E901CD5FDE4F38812181321721F0B4
S11311009F5FF2CF80E001C081E0882309F440C0F2
S1131110228130E0322F22278381282B17966D916C
S11311207C91189726173707B0F551815630B1F1E5
S1131130848190E0982F8827A5818A2B533021F051
S1131140503121F0A0E003C0AFE001C0AFE0009750
S113115041F1B0E0A817B90738F1621B730B6817A7
S1131160790728F1503131F5493038F12681880F5B
S1131170281326C030E0275F3F4F842F90E02817C4
S1131180390709F580E090E020C083E090E01DC0BD
S113119081E090E01AC082E090E017C080E090E027
S11311A014C083E090E011C083E090E00EC082E0C0
S11311B090E00BC080E090E008C083E090E005C0C0
S11311C083E090E002C083E090E0DF91CF91089546
S11311D0FC017683658308950F931F93CF93DF9368
S11311E0DC011596ED91FC911697309739F0E901E1
S11311F0DA01CB019801AE01BD010995DF91CF91D0
S11312001F910F9108958F929F92AF92BF92CF92A8
S1131210DF92EF92FF920F931F93CF93DF934C01D2
S11312205B017A016901C0E0D0E0F701858190E0BB
S1131230C817D907D0F4FE01EE0FFF1FEE0DFF1DF6
S113124000E01781FE013496EE0FFF1FEE0DFF1D27
S11312508081082BAE014A0D5B1D21E030E0B60110
S1131260C4010E94EC082196E0CFCE01DF91CF911A
S11312701F910F91FF90EF90DF90CF90BF90AF90B0
S11312809F908F9008956F927F928F929F92AF92CA
S1131290BF92CF92DF92EF92FF920F931F93CF935F
S11312A0DF93CDB7DEB728970FB6F894DEBF0FBE35
S11312B0CDBF6C015A0148013701CE0101967C0172
S11312C0022F9A0140E1C6010E9478079301A4010C
S11312D0B501C6010E940309009729F046E0B70151
S11312E0C6010E94EC0728960FB6F894DEBF0FBE25
S11312F0CDBFDF91CF911F910F91FF90EF90DF90C1
S1131300CF90BF90AF909F908F907F906F900895F3
S11313106F927F928F929F92AF92BF92CF92DF9201
S1131320EF92FF920F931F93CF93DF93CDB7DEB766
S113133028970FB6F894DEBF0FBECDBF5C014A01FB
S11313403801F901C480D12CDC2CCC248581C82A35
S1131350CE0101967C0186019A0146E0C5010E94F6
S1131360860721E030E0A401B301C5010E94EC0826
S113137046E0B701C5010E94EC0728960FB6F89421
S1131380DEBF0FBECDBFDF91CF911F910F91FF90B4
S1131390EF90DF90CF90BF90AF909F908F907F9011
S11313A06F9008958F929F92BF92CF92DF92EF92A7
S11313B0FF920F931F93CF93DF93CDB7DEB7A89718
S11313C00FB6F894DEBF0FBECDBF6C014A01B22E3A
S11313D078018E010F5F1F4F43E00E946E072B2D93
S11313E030E000E010E0A401B701C6010E94EC085F
S11313F080E043E050E08B15E0F4E82FF0E0EE0FDE
S1131400FF1FEE0DFF1D90812181E1E0F0E0EC0F64
S1131410FD1FE40FF51F2083FA01319621E030E02F
S11314202C0F3D1FE20FF31F4E5F5F4F90838F5FC2
S1131430E2CFBE016F5F7F4FC6010E94EC07A89602
S11314400FB6F894DEBF0FBECDBFDF91CF911F91D1
S11314500F91FF90EF90DF90CF90BF909F908F906F
S11314600895CF92DF92EF92FF920F931F93CF9341
S1131470DF93CDB7DEB7CD57D1090FB6F894DEBFF1
S11314800FBECDBF6C010E94A705082F10E0011507
S1131490110529F4F60116861586F12C8BC00E94DD
S11314A0A603811180C00E94B106F6012585368508
S11314B02017310741F01687058761877287838774
S11314C09487F12C77C0F601018512852385348534
S11314D0DC01CB01801B910BA20BB30B03811481A4
S11314E020E030E080179107A207B30708F45DC03D
S11314F0168615866081AE014F5F5F4FC6010E945C
S11315002908883091050CF452C0482FBE016F5F42
S11315107F4FC6010E946C08009789F0F82E4A811B
S1131520F60160818E01075D1F4F282FC6010E94BE
S1131530960743E0B801C6010E94EC073BC04B810B
S113154050E0542F44278C81482B8A81F6018283F2
S11315508630E1F0803161F0833059F58E01025D0F
S11315601F4F2E816081C6010E94D209F82E22C02D
S1131570CE018E967C018E010F5F1F4F2E81F601E6
S11315806081C6010E944309F82E14C0F6016081EF
S11315908E01025D1F4F9E012F5F3F4FC6010E94C7
S11315A08809F12C07C0F12C05C0F12C03C0F12CE3
S11315B001C0F12C8F2DC358DF4F0FB6F894DEBF56
S11315C00FBECDBFDF91CF911F910F91FF90EF9090
S11315D0DF90CF900895F8940E94990678940E9421
S11315E0A3020E94EC02FDCFDB018F939F930E9424
S11315F0260BBF91AF91A29F800D911DA39F900DCB
S1131600B29F900D11240895A1E21A2EAA1BBB1BB0
S1131610FD010DC0AA1FBB1FEE1FFF1FA217B307BA
S1131620E407F50720F0A21BB30BE40BF50B661FD0
S1131630771F881F991F1A9469F760957095809594
S113164090959B01AC01BD01CF0108950E94370B19
S1131650A59F900DB49F900DA49F800D911D112402
S11316600895EE0FFF1F0590F491E02D0994A29FB9
S1131670B001B39FC001A39F700D811D1124911D62
S1131680B29F700D811D1124911D0895A8E1B0E051
S113169042E050E00C94540B0196272F0E94630BF8
S11316A00C94620BDC01CB01FC01F999FECF06C05E
S11316B0F2BDE1BDF89A319600B40D92415050400C
S11316C0B8F70895262FF999FECF92BD81BDF89AF7
S11316D0019700B4021639F01FBA20BD0FB6F89472
S10F16E0FA9AF99A0FBE0895F894FFCF0F
S10916EC01FFFF030610DC
S9030000FC
