:100000006CC000000C94771C0C94A41C8EC00000E3
:100010008CC000008AC0000088C000000C94E21967
:1000200084C0000082C000000C94EF200C940620D5
:100030000C94CD210C941B2578C0000076C00000E4
:100040000C94321E72C000000C9436180C94771871
:100050000C9407236AC0000068C0000066C000005E
:100060000C944D1B62C0000029152F153115341555
:10007000481563152817B4159B15B615FE150216FD
:1000800028173816020000000700020100000304D0
:1000900006000000000000000001020408102040DB
:1000A0008001020408102001020408102004040446
:1000B0000404040404020202020202030303030311
:1000C0000300000000250028002B00000000002491
:1000D0000027002A00003B192F1E11241FBECFEF5E
:1000E000D8E0DEBFCDBF11E0A0E0B1E0E8E8FFE47A
:1000F00002C005900D92AE34B107D9F725E0AEE409
:10010000B1E001C01D92A435B207E1F710E0CDE6E1
:10011000D0E004C02197FE010E947725CB36D1079D
:10012000C9F70E9477190C94C2276ACF0C94AC27A8
:100130000C94B427CF92DF92EF92FF920F931F930C
:10014000CF93DF93E1E0E0936301E2E6F2E0C2ECFB
:10015000D2E0A2E9CA2EA2E0DA2E619371938193D4
:1001600091932993399349935993D601ED92FD9236
:100170000D931D936D01B2E0E637FB0771F7EDEECD
:10018000F1E0A5E0B2E06193719381939193AE1792
:10019000BF07C9F7E9E0F2E0A1E2B2E021933193B1
:1001A00041935193AE17BF07C9F7E5E2F2E0ADE323
:1001B000B2E0E192F19201931193AE17BF07C9F734
:1001C00060934202709343028093440290934502ED
:1001D00020934602309347024093480250934902CD
:1001E000E0924A02F0924B0200934C0210934D02AF
:1001F000DF91CF911F910F91FF90EF90DF90CF9003
:100200000895809141028F5F863018F480934102F7
:1002100002C01092410220914102A2E5B2E084E0C6
:10022000289F9001112480E090E04D915D916D91A7
:100230007D91FC01E20FF31FE351FE4F4083518398
:10024000628373834C968435910579F708958F9274
:100250009F92AF92BF92CF92DF92EF92FF920F9355
:100260001F93809160018111EFC0C0900303D09073
:100270000403E0900503F090060320E030E0A901BC
:10028000C701B6010E94F62587FF09C08091690366
:1002900090916A03816090936A038093690320E0E0
:1002A00030E44CE955E4C701B6010E944527181611
:1002B0004CF48091690390916A03826090936A0381
:1002C0008093690320E030E44CE156E4C701B601B5
:1002D0000E944527181654F020E030E048EC52EC1C
:1002E000C701B6010E94F62587FF09C08091690306
:1002F00090916A03846090936A0380936903C0902D
:10030000FF02D0900003E0900103F090020320E090
:1003100030E040E752ECC701B6010E94F62587FFA6
:1003200009C08091690390916A03886090936A0381
:100330008093690320E030E040EA52E4C701B6014F
:100340000E94452718164CF48091690390916A0326
:10035000806190936A0380936903C0903403D090C6
:100360003503E0903603F09037036091330370E07B
:1003700080E090E00E949526A70196010E94F62554
:1003800087FF09C08091690390916A03806490930C
:100390006A03809369036091320370E080E090E02B
:1003A0000E9495269B01AC01C701B6010E9445271A
:1003B00018164CF48091690390916A0380689093B9
:1003C0006A038093690360912D0370E080E090E000
:1003D0000E9495264B015C01C0902E03D0902F0304
:1003E000E0903003F0903103A70196010E94452769
:1003F00018164CF48091690390916A039860909369
:100400006A0380936903A7019601C501B4010E94A4
:10041000F62587FF48C060912C0370E080E090E0F3
:100420000E9495269B01AC01C701B6010E94F625EA
:1004300087FF39C08091690390916A03906190931E
:100440006A03809369032FC0813069F582E080934D
:1004500060018091690390916A03806290936A03BE
:100460008093690380E090E0A8ECB2EC8093E9010E
:100470009093EA01A093EB01B093EC018093E50126
:100480009093E601A093E701B093E801E090FB02AE
:10049000F090FC020091FD021091FE029C01AD0162
:1004A000BC01CD0147DE809168038823E9F080918B
:1004B000690390916A03926090936A038093690341
:1004C00080E090E0A8ECB2EC8093FB029093FC02F9
:1004D000A093FD02B093FE028093F3029093F40286
:1004E000A093F502B093F6028091F202882349F0BE
:1004F0008091690390916A03906290936A0380935C
:1005000069031F910F91FF90EF90DF90CF90BF9004
:10051000AF909F908F9008952F923F924F925F924D
:100520006F927F928F929F92AF92BF92CF92DF9203
:10053000EF92FF920F931F93CF93DF93CDB7DEB768
:1005400028970FB6F894DEBF0FBECDBF82E592E0CC
:100550009A838983E2E4F2E0F887EF8381E291E015
:100560009C838B83E5E1F1E0FE83ED833DEE232E5A
:1005700031E0332EE12CF12C612C80E5782E93ECC8
:10058000892E27E4922EA12CB12C0AE714ECF1015C
:10059000EE0DFF1D5080C180D28043809501A801DF
:1005A000652D7C2D8D2D942D0E944527181624F441
:1005B000A52CBC2C0D2D142D9301A401652D7C2D93
:1005C0008D2D942D0E94F62587FF04C0652C7C2C70
:1005D0008D2C942CF4E0EF0EF11C24E1E216F104D2
:1005E000B1F6EF81F885C080D180E280F38024EA03
:1005F00030E74DE75FE3B301C4010E944927A7013B
:1006000096010E94F62587FF11C02EEA37E441E8E3
:100610005FE3B501C8010E944927A70196010E9426
:10062000452718161CF4EB81FC8102C0ED81FE8188
:1006300080809180A280B380E981FA81619171917B
:1006400081919191FA83E983A70196010E949125F6
:10065000A50194010E944927A70196010E949225B5
:10066000EF81F8856193719381939193F887EF837C
:100670008B819C8104969C838B83ED81FE813496D3
:10068000FE83ED83FCE12F0E311C89819A818E550A
:10069000924009F06FCF28960FB6F894DEBF0FBED8
:1006A000CDBFDF91CF911F910F91FF90EF90DF9021
:1006B000CF90BF90AF909F908F907F906F905F9002
:1006C0004F903F902F9008950FB6F894A895809181
:1006D0006000886180936000109260000FBE98E017
:1006E00088E10FB6F894A895809360000FBE9093B0
:1006F0006000FFCF0F931F938091D1019091D201A1
:10070000A091D301B091D4014091C9015091CA0187
:100710006091CB017091CC018C019D01041B150BE4
:10072000260B370BB901A801453F51406105710502
:1007300078F08093C9019093CA01A093CB01B09344
:10074000CC0180916101811103C081E0809361013E
:100750001F910F9108952F923F924F925F926F9247
:100760007F928F929F92AF92BF92CF92DF92EF9241
:10077000FF920F931F93CF93DF93A0910703E4E0C1
:10078000AE9FE0011124FE01EE59FD4F608371839D
:1007900082839383FE01EE53FD4F20833183428396
:1007A0005383FE01EE56FD4FE082F18202831383F4
:1007B00081E08A0F853018F48093070302C01092FD
:1007C0000703C2E6D2E002EC12E082E9282E82E0C2
:1007D000382EC12CD12C7601460157012601370154
:1007E0002991399149915991C301B2010E949225F1
:1007F0002B013C01F80121913191419151918F01DF
:10080000C501B4010E9492254B015C01F1012191C7
:100810003191419151911F01C701B6010E9492256A
:100820006B017C01F2E0C637DF07D1F62DEC3CEC22
:100830004CE45EE3C301B2010E9449276093520277
:100840007093530280935402909355022DEC3CEC2C
:100850004CE45EE3C501B4010E944927609356024F
:100860007093570280935802909359022DEC3CEC00
:100870004CE45EE3C701B6010E94492760935A0227
:1008800070935B0280935C0290935D02DF91CF9145
:100890001F910F91FF90EF90DF90CF90BF90AF909E
:1008A0009F908F907F906F905F904F903F902F9090
:1008B00008950F931F93E091E001E150E73050F469
:1008C000F0E0EE0FFF1FE95FFE4F4081518160E0D5
:1008D00070E004C040E855E260E070E08091DF0124
:1008E000813011F026E001C026E230E009EE13E08D
:1008F0008EE693E00E94222262E876E08EE693E0A4
:100900000E94B32281E080936E038EE994E00E94FE
:100910009D1D40EA56E861E070E08EE994E00E9497
:10092000AC1D4AE050E060E070E08EE994E01F9179
:100930000F910C94A919CF93DF9300D000D0CDB7BD
:10094000DEB769837A838B839C8350E0440F551F05
:10095000FE01E40FF51F828190E0982F8827FE01A9
:10096000E40FF51F2181822B0F900F900F900F90B5
:10097000DF91CF9108951F93CF93DF93162FC82F48
:10098000D0E0CE01D3DB811731F08F3F21F4612F0E
:10099000CE01CEDB812FDF91CF911F9108957F9201
:1009A0008F929F92AF92BF92CF92DF92EF92FF927F
:1009B0000F931F93CF93DF9300D000D0CDB7DEB756
:1009C0007A018B016C015E0185E0A80EB11CFE016D
:1009D00031964F01712CC601A9DBF50182935F01AD
:1009E000C601A4DB8F3F09F47394FFEFCF1ADF0A2F
:1009F000A814B90481F784E0781629F049815A8156
:100A00003B812C8103C0A701302F212FBA01832FF6
:100A1000922F0F900F900F900F90DF91CF911F9119
:100A20000F91FF90EF90DF90CF90BF90AF909F908D
:100A30008F907F900895FF920F931F93CF93DF9332
:100A40008C01F62ED72F72DBC82FC80101966EDB02
:100A5000CF3F29F48F3F19F48F2D9D2F02C08C2B8F
:100A600090E0DF91CF911F910F91FF9008951F9318
:100A7000CF93DF93EC01172F5BDB612FCE01019643
:100A8000DF91CF911F9154CB0F931F93CF93DF939F
:100A90008C014CDBC82FC801019648DBD0E0D82B75
:100AA000CF3F8FEFD80711F4C0E0D0E0C801029625
:100AB0003DDB811102C0CE0104C0882799278C1B21
:100AC0009D0BDF91CF911F910F910895CF92DF92EF
:100AD000EF92FF9261E084E64EDF8093030163E0D2
:100AE00085E649DF8093E00160E086E644DF80939D
:100AF000DF0169E672E088E690E09DDF9093DC011B
:100B00008093DB0160E089E636DF8093DD016AEAED
:100B10007AEA8AE690E08FDF9093E4018093E30124
:100B20006AEA7AEA8CE690E086DF9093E2018093AD
:100B3000E10160E080E71FDF8093DE0160E081E794
:100B40001ADF809383014BEC51EA65EC70E482E894
:100B500090E025DF6093D7017093D8018093D9018D
:100B60009093DA0165E886E806DF8093330360E559
:100B700087E801DF809332036CE388E8FCDE809332
:100B80002C0362E389E8F7DE80932D038AE890E086
:100B90007BDFBC01990F880B990B0E9495262DECE9
:100BA0003CEC4CEC5DE30E94492760937E0170931E
:100BB0007F0180938001909381018DE890E064DF54
:100BC000BC01990F880B990B0E9495262AE037EDFE
:100BD00043E25CE30E94492760937A0170937B01B2
:100BE00080937C0190937D0180E990E04DDFBC0112
:100BF000990F880B990B0E9495262FE632E143E866
:100C00005AE30E9449276B017C0120E030E0A901F2
:100C10000E94F625882349F0C0927601D092770190
:100C2000E0927801F09279010CC080E090E0A0E8B9
:100C3000BFE38093760190937701A0937801B093FE
:100C4000790161E084E997DE8093750164E185E9CB
:100C500092DE8093740166E373E386E990E0EBDE55
:100C6000909373018093720166E676E088E990E0E4
:100C7000E2DE909371018093700183E39AEFA1ED1E
:100C8000BAE380936C0190936D01A0936E01B093D1
:100C90006F0140E050E060EA71EC8AE990E07FDEAD
:100CA000609368017093690180936A0190936B016E
:100CB00060E08FE960DE80936B03FF90EF90DF9040
:100CC000CF900895FF920F931F93CF93DF938C01E2
:100CD000EB0177FF06C0D195C195D109FF24F394AC
:100CE00001C0F12C6C2FC80123DA6D2FC8010196C9
:100CF0001FDA6F2DC8010296DF91CF911F910F91DE
:100D0000FF9016CA2F923F924F925F926F927F92FE
:100D10008F929F92AF92BF92CF92DF92EF92FF920B
:100D20000F931F93CF93DF9300D000D000D0CDB7A7
:100D3000DEB77C01962E1A01690180917003BB24F5
:100D4000B394803119F0863009F0B12C8D2C092D27
:100D5000172FAA24A394C6010D2C000CAA0BBB0BC1
:100D600089839A83AB83BC83402F902F9919A92F35
:100D7000B0E0BE83AD83A215B30514F00C94F71355
:100D80000335110509F46DC70CF03EC20C31110595
:100D900009F49DC50CF01FC10D30110509F495C46F
:100DA0000CF08EC00630110509F417C40CF044C0D5
:100DB0000230110509F4C9C30CF50115110509F438
:100DC000ACC30130110511F00C94E8132D813E8164
:100DD000220F331F2E0D3F1D3E832D836091600334
:100DE00070916103809162039091630341E0A3DD00
:100DF000AD81BE818D939C930C94F3130430110547
:100E000009F4BBC30CF0D1C3ED81FE81EE0FFF1FCF
:100E1000EE0DFF1DFE83ED8360915C0370915D0319
:100E200080915E0390915F0341E085DDAD81BE81DD
:100E30008D939C930C94F3130930110509F4FDC3B1
:100E40000CF50730110509F4E0C30830110511F065
:100E50000C94E813ED81FE81EE0FFF1FEE0DFF1DD8
:100E6000FE83ED8360915403709155038091560386
:100E70009091570340E05FDDAD81BE818D939C93DF
:100E80000C94F3130B30110509F4EFC30CF005C4F7
:100E9000ED81FE81EE0FFF1FEE0DFF1DFE83ED8342
:100EA00060915003709151038091520390915303CC
:100EB00040E041DDAD81BE818D939C930C94F31392
:100EC0000431110509F479C40CF044C00031110556
:100ED00009F42BC40CF50E30110509F40EC40F30C3
:100EE000110511F00C94E813ED81FE81EE0FFF1F48
:100EF000EE0DFF1DFE83ED8360913C0370913D0379
:100F000080913E0390913F0341E015DDAD81BE81AC
:100F10008D939C930C94F3130231110509F41DC4B5
:100F20000CF033C4ED81FE81EE0FFF1FEE0DFF1DAF
:100F3000FE83ED83609138037091390380913A0309
:100F400090913B0341E0F7DCAD81BE818D939C9392
:100F50000C94F3130831110509F474C4F4F4063148
:100F6000110509F441C40CF056C4ED81FE81EE0F69
:100F7000FF1FEE0DFF1DFE83ED8360913403709122
:100F80003503809136039091370341E0D4DCAD8185
:100F9000BE818D939C930C94F3130A31110509F4CF
:100FA00068C40CF07DC4ED81FE81EE0FFF1FEE0DD5
:100FB000FF1DFE83ED8360911403709115038091F2
:100FC00016039091170341E0B6DCAD81BE818D938D
:100FD0009C930C94F3130E33110509F466C50CF0C1
:100FE00093C00B32110509F4E8C40CF049C00F316D
:100FF000110509F49AC40CF50D31110509F47EC4EC
:101000000E31110511F00C94E813ED81FE81EE0F05
:10101000FF1FEE0DFF1DFE83ED8360911C03709199
:101020001D0380911E0390911F0340E084DCAD817D
:10103000BE818D939C930C94F3130932110509F42E
:101040008CC40CF0A2C40832110511F00C94E81302
:10105000ED81FE81EE0FFF1FEE0DFF1DFE83ED8380
:10106000609110037091110380911203909113030A
:1010700040E061DCAD81BE818D939C930C94F313B1
:101080000A33110509F4C9C40CF50033110509F43C
:10109000ACC40133110511F00C94E813ED81FE810D
:1010A000EE0FFF1FEE0DFF1DFE83ED836091F70233
:1010B0007091F8028091F9029091FA0241E03BDCD4
:1010C000AD81BE818D939C930C94F3130C33110569
:1010D00009F4BBC40CF0D1C4ED81FE81EE0FFF1FFB
:1010E000EE0DFF1DFE83ED836091280370912903AF
:1010F00080912A0390912B0341E01DDCAD81BE81DC
:101100008D939C930C94F3130B34110509F445C58E
:101110000CF044C00734110509F4F7C40CF50F3383
:10112000110509F4DAC40634110511F00C94E81322
:10113000ED81FE81EE0FFF1FEE0DFF1DFE83ED839F
:10114000609103037091040380910503909106035D
:1011500040E0F1DBAD81BE818D939C930C94F31341
:101160000934110509F4E9C40CF0FFC4ED81FE81D6
:10117000EE0FFF1FEE0DFF1DFE83ED836091FF025A
:1011800070910003809101039091020340E0D3DB52
:10119000AD81BE818D939C930C94F3130F34110594
:1011A00009F437C5F4F40D34110509F40EC50CF03B
:1011B00024C5ED81FE81EE0FFF1FEE0DFF1DFE83A6
:1011C000ED83609148037091490380914A039091A7
:1011D0004B0340E0B0DBAD81BE818D939C930C94BA
:1011E000F3130135110509F422C50CF02DC5ED816D
:1011F000FE81EE0FFF1FEE0DFF1D8091600190E05C
:10120000918380830C94F3130839110511F40C9425
:1012100052120CF083C00338110509F449C60CF0D2
:1012200046C00A36110509F4A3C5DCF405361105DC
:1012300009F445C554F40336110509F41FC50436F5
:10124000110509F424C50C94E8130836110509F4B6
:1012500061C50CF077C50636110509F445C50C9437
:10126000E8130F36110509F4BCC5ACF40B361105B3
:1012700009F49AC50E36110511F00C94E813ED81AE
:10128000FE81EE0FFF1FEE0DFF1D25E030E03183E4
:1012900020830C94F3130137110509F4C8C50CF42D
:1012A000ACC50238110509F4DBC50C94E8130C3801
:1012B000110509F4FFC6B4F40838110509F459C63C
:1012C00054F40638110509F42BC60738110509F442
:1012D0003BC60C94E8130A38110509F473C60CF4E4
:1012E0005CC6ACC60439110511F40C94771164F492
:1012F0000E38110509F471C70CF418C70F38110521
:1013000009F4BCC70C94E8130639110511F40C94C8
:10131000F41114F40C94B6110C943612093C110516
:1013200011F40C9429130CF072C0023C1105E4F581
:101330000E3B110514F00C9402130B39110511F436
:101340000C94B21214F50939110511F40C947A12A7
:101350000A39110511F00C94E813ED81FE81EE0FAE
:10136000FF1FEE0DFF1DFE83ED8360916401709100
:101370006501809166019091670140E0DCDAAD8102
:10138000BE818D939C930C94F3130D39110511F4C8
:101390000C94D61214F40C94CA120E39110511F4DF
:1013A0000C94E4120C94E813063C1105ECF4043C94
:1013B000110514F00C941113ED81FE81EE0FFF1F47
:1013C000EE0DFF1DFE83ED83425C6091E90170919B
:1013D000EA018091EB019091EC01ADDAAD81BE8123
:1013E0008D939C930C94F313083C110511F00C940D
:1013F000E8138091690390916A03ED81FE81EE0FFD
:10140000FF1FEE0DFF1D918380830C94F3130231B7
:10141000E2E01E0711F40C945913ECF5073B21E0B0
:101420001207F4F4003931E0130714F00C944A1356
:101430000A3C110511F40C9436130F3881E018079B
:1014400011F00C94E813ED81FE81EE0FFF1FEE0DFD
:10145000FF1D8091590190E0918380830C94F313D8
:10146000C801825C91408731910510F00C94E8131B
:10147000ED81FE81EE0FFF1FEE0DFF1DFE83ED835C
:10148000FC01E857FE4F808190E0AD81BE818D93D5
:101490009C930C94F313023592E0190711F40C9409
:1014A000A1133CF50431B2E01B0711F40C9489132D
:1014B00014F40C9471130531F2E01F0711F00C9431
:1014C000E813ED81FE81EE0FFF1FEE0DFF1DFE8381
:1014D000ED836091FB027091FC028091FD0290917E
:1014E000FE0241E028DAAD81BE818D939C930C947D
:1014F000F313003223E0120711F40C94C9130438DB
:1015000033E0130711F40C94E113083582E0180757
:1015100011F00C94E8130C94B213AD81BE81AA0FA4
:10152000BB1FAE0DBF1DBE83AD8360916003709184
:101530006103809162039091630340E0FCD9ED81E7
:10154000FE81918380830C94F313ED81FE81EE0F75
:10155000FF1FEE0DFF1DFE83ED8360915C03709114
:101560005D0380915E0390915F0340E0E4D9AD811B
:10157000BE818D939C930C94F313ED81FE81EE0F4D
:10158000FF1FEE0DFF1DFE83ED83609158037091E8
:10159000590380915A0390915B0340E0CCD9AD810F
:1015A000BE818D939C930C94F313ED81FE81EE0F1D
:1015B000FF1FEE0DFF1DFE83ED83609158037091B8
:1015C000590380915A0390915B0341E0B4D9AD81F6
:1015D000BE818D939C930C94F313ED81FE81EE0FED
:1015E000FF1FEE0DFF1DFE83ED836091640370917C
:1015F0006503809166039091670340E09CD9AD81BB
:10160000BE818D939C930C94F313ED81FE81EE0FBC
:10161000FF1FEE0DFF1DFE83ED836091640370914B
:101620006503809166039091670341E084D9AD81A1
:10163000BE818D939C930C94F313ED81FE81EE0F8C
:10164000FF1FEE0DFF1DFE83ED836091540370912B
:101650005503809156039091570341E06CD9AD81B9
:10166000BE818D939C930C94F313ED81FE81EE0F5C
:10167000FF1FEE0DFF1DFE83ED83609150037091FF
:101680005103809152039091530341E054D9AD81AD
:10169000BE818D939C930C94F313ED81FE81EE0F2C
:1016A000FF1FEE0DFF1DFE83ED83609140037091DF
:1016B0004103809142039091430340E03CD9AD81C6
:1016C000BE818D939C930C94F313ED81FE81EE0FFC
:1016D000FF1FEE0DFF1DFE83ED83609140037091AF
:1016E0004103809142039091430341E024D9AD81AD
:1016F000BE818D939C930C94F313ED81FE81EE0FCC
:10170000FF1FEE0DFF1DFE83ED8360913C03709182
:101710003D0380913E0390913F0340E00CD9AD81A1
:10172000BE818D939C930C94F313ED81FE81EE0F9B
:10173000FF1FEE0DFF1DFE83ED8360913803709156
:10174000390380913A0390913B0340E0F4D8AD8196
:10175000BE818D939C930C94F313ED81FE81EE0F6B
:10176000FF1FEE0DFF1DFE83ED836091340370912A
:101770003503809136039091370340E0DCD8AD818A
:10178000BE818D939C930C94F313ED81FE81EE0F3B
:10179000FF1FEE0DFF1DFE83ED83609134037091FA
:1017A0003503809136039091370341E0C4D8AD8171
:1017B000BE818D939C930C94F313ED81FE81EE0F0B
:1017C000FF1FEE0DFF1DFE83ED83609134037091CA
:1017D0003503809136039091370340E0ACD8AD815A
:1017E000BE818D939C93FFC7ED81FE81EE0FFF1F9D
:1017F000EE0DFF1DFE83ED8360912E0370912F038C
:10180000809130039091310340E095D8AD81BE8145
:101810008D939C93E8C7ED81FE81EE0FFF1FEE0DC7
:10182000FF1DFE83ED8360912E0370912F03809145
:1018300030039091310341E07ED8AD81BE818D931C
:101840009C93D1C7ED81FE81EE0FFF1FEE0DFF1DB2
:10185000FE83ED836091140370911503809116034C
:101860009091170340E067D8AD81BE818D939C9322
:10187000BAC7ED81FE81EE0FFF1FEE0DFF1DFE8347
:10188000ED83609118037091190380911A03909170
:101890001B0340E050D8AD81BE818D939C93A3C7BC
:1018A000ED81FE81EE0FFF1FEE0DFF1DFE83ED8328
:1018B000609118037091190380911A0390911B0392
:1018C00041E039D8AD81BE818D939C938CC7ED8169
:1018D000FE81EE0FFF1FEE0DFF1DFE83ED83609175
:1018E00008037091090380910A0390910B0340E073
:1018F00022D8AD81BE818D939C9375C7ED81FE8109
:10190000EE0FFF1FEE0DFF1DFE83ED8360910803B8
:101910007091090380910A0390910B0341E00BD869
:10192000AD81BE818D939C935EC7ED81FE81EE0FEC
:10193000FF1FEE0DFF1DFE83ED8360911C03709170
:101940001D0380911E0390911F0341E00E949B04A0
:10195000AD81BE818D939C9346C7ED81FE81EE0FD4
:10196000FF1FEE0DFF1DFE83ED836091100370914C
:101970001103809112039091130341E00E949B0494
:10198000AD81BE818D939C932EC7ED81FE81EE0FBC
:10199000FF1FEE0DFF1DFE83ED8360910C03709120
:1019A0000D0380910E0390910F0340E00E949B0471
:1019B000AD81BE818D939C9316C7ED81FE81EE0FA4
:1019C000FF1FEE0DFF1DFE83ED8360910C037091F0
:1019D0000D0380910E0390910F0341E00E949B0440
:1019E000AD81BE818D939C93FEC6ED81FE81EE0F8D
:1019F000FF1FEE0DFF1DFE83ED836091F7027091D6
:101A0000F8028091F9029091FA0240E00E949B0452
:101A1000AD81BE818D939C93E6C6ED81FE81EE0F74
:101A2000FF1FEE0DFF1DFE83ED8360912803709173
:101A3000290380912A0390912B0340E00E949B048C
:101A4000AD81BE818D939C93CEC6ED81FE81EE0F5C
:101A5000FF1FEE0DFF1DFE83ED8360912403709147
:101A60002503809126039091270340E00E949B0468
:101A7000AD81BE818D939C93B6C6ED81FE81EE0F44
:101A8000FF1FEE0DFF1DFE83ED8360912403709117
:101A90002503809126039091270341E00E949B0437
:101AA000AD81BE818D939C939EC6ED81FE81EE0F2C
:101AB000FF1FEE0DFF1DFE83ED83609120037091EB
:101AC0002103809122039091230340E00E949B0414
:101AD000AD81BE818D939C9386C6ED81FE81EE0F14
:101AE000FF1FEE0DFF1DFE83ED83609120037091BB
:101AF0002103809122039091230341E00E949B04E3
:101B0000AD81BE818D939C936EC6ED81FE81EE0FFB
:101B1000FF1FEE0DFF1DFE83ED83609103037091A7
:101B20000403809105039091060341E00E949B0409
:101B3000AD81BE818D939C9356C6ED81FE81EE0FE3
:101B4000FF1FEE0DFF1DFE83ED836091FF0270917C
:101B50000003809101039091020341E00E949B04E5
:101B6000AD81BE818D939C933EC6ED81FE81EE0FCB
:101B7000FF1FEE0DFF1DFE83ED8360914C037091FE
:101B80004D0380914E0390914F0340E00E949B04CF
:101B9000AD81BE818D939C9326C6ED81FE81EE0FB3
:101BA000FF1FEE0DFF1DFE83ED8360914C037091CE
:101BB0004D0380914E0390914F0341E00E949B049E
:101BC000AD81BE818D939C930EC6ED81FE81EE0F9B
:101BD000FF1FEE0DFF1DFE83ED83609148037091A2
:101BE000490380914A0390914B0341E00E949B047A
:101BF000AD81BE818D939C93F6C5ED81FE81EE0F84
:101C0000FF1FEE0DFF1D80915F0190E091838083A7
:101C1000EAC52D813E81220F331F2E0D3F1D80917D
:101C20005D0190915E01D9018D939C93DCC52D815E
:101C30003E81220F331F2E0D3F1D80915C0190E0ED
:101C4000D9018D939C93CFC5ED81FE81EE0FFF1FCF
:101C5000EE0DFF1D80915A0190915B01918380836D
:101C6000C2C52D813E81220F331F2E0D3F1D809155
:101C7000680390E0D9018D939C93B5C5ED81FE81F9
:101C8000EE0FFF1FEE0DFF1DD182C082ACC5BB2041
:101C900049F0C0920301C0926E036C2D84E690E07F
:101CA0000E9498002D813E81220F331F2E0D3F1D73
:101CB0008091030190E0D9018D939C9394C5BB2042
:101CC00039F0C092E0016C2D85E690E00E9498000A
:101CD000ED81FE81EE0FFF1FEE0DFF1D8091E001F3
:101CE00090E0918380837FC5BB2039F0C092DF01F3
:101CF0006C2D86E690E00E9498002D813E81220F97
:101D0000331F2E0D3F1D8091DF0190E0D9018D938F
:101D10009C9369C5BB2049F0D092DC01C092DB01E5
:101D2000B60188E690E00E943705ED81FE81EE0F56
:101D3000FF1FEE0DFF1D8091DB019091DC0191836F
:101D4000808351C5BB2039F0C092DD016C2D89E63E
:101D500090E00E9498002D813E81220F331F2E0DAE
:101D60003F1D8091DD0190E0D9018D939C933BC58F
:101D7000BB2069F08091C801882349F0D092E2012C
:101D8000C092E101B6018CE690E00E943705809197
:101D9000E1019091E201ED81FE81EE0FFF1FEE0D5A
:101DA000FF1D918380831FC5BB2069F08091C8010E
:101DB000882349F0D092E401C092E301B6018AE69B
:101DC00090E00E9437058091E3019091E4012D811C
:101DD0003E81220F331F2E0D3F1DD9018D939C9301
:101DE00002C58D819E81880F991F8E0D9F1DEFE08A
:101DF000F0E0DC01ED93FC93F6C4BB2059F0809138
:101E0000C801882339F0C092DE016C2D80E790E094
:101E10000E9498002D813E81220F331F2E0D3F1D01
:101E20008091DE0190E0D9018D939C93DCC4BB20AE
:101E300059F08091C801882339F0C09283016C2D3C
:101E400081E790E00E949800ED81FE81EE0FFF1F78
:101E5000EE0DFF1D8091830190E091838083C3C4C8
:101E6000BB2071F08091C801882351F0682D84E86F
:101E700090E00E9498006C2D85E890E00E94980008
:101E80002D813E81220F331F2E0D3F1D3E832D835A
:101E90006091D7017091D8018091D9019091DA01B8
:101EA00040E00E949B04AD81BE818D939C939BC4B6
:101EB000BB20F1F08091C8018823D1F0682D82E821
:101EC00090E00E9498006C2D83E890E00E949800BA
:101ED0004BEC51EA65EC70E482E890E00E94CF049C
:101EE0006093D7017093D8018093D9019093DA0160
:101EF000ED81FE81EE0FFF1FEE0DFF1DFE83ED83D2
:101F00006091D7017091D8018091D9019091DA0147
:101F100041E00E949B04AD81BE818D939C9363C47C
:101F2000BB2031F06091330386E890E00E94980076
:101F3000ED81FE81EE0FFF1FEE0DFF1D809133033B
:101F400090E0918380834FC4BB2031F060913203D5
:101F500087E890E00E9498002D813E81220F331F78
:101F60002E0D3F1D8091320390E0D9018D939C93FB
:101F70003AC4BB2031F060912C0388E890E00E94C5
:101F80009800ED81FE81EE0FFF1FEE0DFF1D809189
:101F90002C0390E09183808326C4BB2031F06091B4
:101FA0002D0389E890E00E9498002D813E81220F48
:101FB000331F2E0D3F1D80912D0390E0D9018D938D
:101FC0009C9311C4BB20E9F08091C8018823C9F01B
:101FD00069817A818B819C810E9495262DEC3CEC55
:101FE0004CEC5DE30E94492760937E0170937F0172
:101FF0008093800190938101B6018AE890E00E946D
:102000006206ED81FE81EE0FFF1FEE0DFF1DFE83C8
:10201000ED8320E030E040E251E460917E01709178
:102020007F0180918001909181010E9449270E9447
:102030006226AD81BE816D937C93D5C3BB20E9F050
:102040008091C8018823C9F069817A818B819C8144
:102050000E9495262AE037ED43E25CE30E9449277F
:1020600060937A0170937B0180937C0190937D0152
:10207000B6018DE890E00E946206ED81FE81EE0FD0
:10208000FF1FEE0DFF1DFE83ED8320E030E048ECE6
:1020900052E460917A0170917B0180917C01909172
:1020A0007D010E9449270E946226AD81BE816D9309
:1020B0007C9399C3BB20E9F08091C8018823C9F0C3
:1020C00069817A818B819C810E9495262FE632E17D
:1020D00043E85AE30E9449276093760170937701A1
:1020E0008093780190937901B60180E990E00E9495
:1020F0006206ED81FE81EE0FFF1FEE0DFF1DFE83D8
:10210000ED8320E030E04AE754E46091760170917D
:10211000770180917801909179010E9449270E946E
:102120006226AD81BE816D937C935DC3BB20C1F1FE
:102130008091C8018823A1F169817A818B819C817A
:102140000E9495262AE037ED43E25CE30E9449278E
:1021500020917A0130917B0140917C0150917D0169
:102160000E949125209144033091450340914603FC
:10217000509147030E94FA2560937601709377018E
:10218000809378019093790120E030E04AE754E4AD
:102190000E9449270E94622680E990E00E94620620
:1021A000ED81FE81EE0FFF1FEE0DFF1DFE83ED831F
:1021B00020E030E04AE754E46091760170917701C5
:1021C00080917801909179010E9449270E946226AE
:1021D000AD81BE816D937C9306C3BB2091F180914C
:1021E000C801882371F12091440330914503409147
:1021F0004603509147036091760170917701809179
:102200007801909179010E9449279B01AC016AE015
:1022100077ED83E29CE30E94912560937A017093AD
:102220007B0180937C0190937D0120E030E048ECBD
:1022300052E40E9449270E9462268DE890E00E94A5
:102240006206ED81FE81EE0FFF1FEE0DFF1DFE8386
:10225000ED8320E030E048EC52E460917A01709127
:102260007B0180917C0190917D010E9449270E9411
:102270006226AD81BE816D937C93B5C2BB2071F1A6
:102280008091C801882351F110927A0110927B014C
:1022900010927C0110927D0160E070E08DE890E08A
:1022A0000E94620680E090E0A0E8BFE380937601A0
:1022B00090937701A0937801B093790168EE73E071
:1022C00080E990E00E946206ED81FE81EE0FFF1F23
:1022D000EE0DFF1DA1E0B0E0B183A083ED81FE8192
:1022E000EE0FFF1FEE0DFF1D118210827CC2BB207E
:1022F00081F18091C801882361F1C09275016C2D34
:1023000084E990E00E9498008091740160917501C9
:1023100070E0680F711D072E000C880B990B0E944E
:1023200095262B013C01609172017091730180E050
:1023300090E00E9493269B01AC01C301B2010E9470
:10234000FA2560936C0170936D0180936E019093F8
:102350006F012D813E81220F331F2E0D3F1D809175
:10236000750190E0D9018D939C933DC2BB2081F112
:102370008091C801882361F1C09274016C2D85E9B8
:1023800090E00E949800809174016091750170E066
:10239000680F711D072E000C880B990B0E94952663
:1023A0002B013C01609172017091730180E090E01B
:1023B0000E9493269B01AC01C301B2010E94FA2541
:1023C00060936C0170936D0180936E0190936F0127
:1023D000ED81FE81EE0FFF1FEE0DFF1D8091740158
:1023E00090E091838083FFC1BB2091F18091C8016F
:1023F000882371F1D0927301C0927201B60186E90F
:1024000090E00E943705809174016091750170E041
:10241000680F711D072E000C880B990B0E949526E2
:102420002B013C01609172017091730180E090E09A
:102430000E9493269B01AC01C301B2010E94FA25C0
:1024400060936C0170936D0180936E0190936F01A6
:102450002D813E81220F331F2E0D3F1D8091720171
:1024600090917301D9018D939C93BDC1BB2069F0FC
:102470008091C801882349F0D0927101C092700107
:10248000B60186E990E00E943705ED81FE81EE0FEE
:10249000FF1FEE0DFF1D80917001909171019183DE
:1024A0008083A1C1BB2071F08091C801882351F0C5
:1024B000682D8CE990E00E9498006C2D8DE990E0E9
:1024C0000E9498002D813E81220F331F2E0D3F1D4B
:1024D0003E832D83609168017091690180916A014A
:1024E00090916B0140E00E949B04AD81BE818D9371
:1024F0009C9379C1BB20F1F08091C8018823D1F071
:10250000682D8AE990E00E9498006C2D8BE990E09C
:102510000E94980040E050E060EA71EC8AE990E0A7
:102520000E94CF04609368017093690180936A01EF
:1025300090936B01ED81FE81EE0FFF1FEE0DFF1DED
:10254000FE83ED83609168017091690180916A0159
:1025500090916B0141E00E949B04AD81BE818D93FF
:102560009C9341C1ED81FE81EE0FFF1FEE0DFF1D1B
:10257000FE83ED8360916401709165018091660135
:102580009091670141E00E949B04AD81BE818D93D3
:102590009C9329C1ED81FE81EE0FFF1FEE0DFF1D03
:1025A0008091580190E0918380831DC180916C03DC
:1025B00090916D032D813E81220F331F2E0D3F1D03
:1025C000D9018D939C930FC1BB2081F08091C801EC
:1025D000882361F06C2D8FE990E00E949800C092F2
:1025E0006B0360E070E083E00E94161FED81FE81C6
:1025F000EE0FFF1FEE0DFF1D80916B0390E09183A6
:102600008083F1C02D813E81220F331F2E0D3F1D8F
:10261000F801E057FF4F808190E0D9018D939C93A2
:10262000E2C0ED81FE81EE0FFF1FEE0DFF1DFE8368
:10263000ED83445C6091E5017091E6018091E701D2
:102640009091E8010E949B04AD81BE818D939C9383
:10265000CAC0BB2009F4C7C0F1E0CF16D10409F00D
:10266000C2C010926A0310926903BDC0BB2041F042
:1026700021E0C216D10421F4A092D601A092D50186
:102680008D819E81880F991F8E0D9F1DDC011D92EB
:102690001C92A9C02D813E81220F331F2E0D3F1D9C
:1026A000F801E05FFF4F808190E0D9018D939C930A
:1026B0009AC0ED81FE81EE0FFF1FEE0DFF1DFE8320
:1026C000ED836091F3027091F4028091F502909194
:1026D000F60240E00E949B04AD81BE818D939C93E5
:1026E00082C0ED81FE81EE0FFF1FEE0DFF1DFE8308
:1026F000ED836091F3027091F4028091F502909164
:10270000F60241E00E949B04AD81BE818D939C93B3
:102710006AC0ED81FE81EE0FFF1FEE0DFF1DFE83EF
:10272000ED836091FB027091FC028091FD0290911B
:10273000FE0240E00E949B04AD81BE818D939C937C
:1027400052C0BB2031F0B1E0CB16D10411F4A092FD
:10275000D601ED81FE81EE0FFF1FEE0DFF1D1182F0
:10276000108241C0BB2031F0F1E0CF16D10411F44A
:10277000A0928201809182012D813E81220F331F20
:102780002E0D3F1D90E0880F991FD9018D939C93CA
:102790002AC0BB2051F0B2EACB16B8E0DB0619F430
:1027A000A092C80102C01092C801ED81FE81EE0F17
:1027B000FF1FEE0DFF1D8091C80190E09183808383
:1027C00012C0F894E0910101F091020109950BC04B
:1027D0002D813E81220F331F2E0D3F1DEFEFFFEFA6
:1027E000D901ED93FC930F5F1F4F0C94B40626960E
:1027F0000FB6F894DEBF0FBECDBFDF91CF911F9112
:102800000F91FF90EF90DF90CF90BF90AF909F908F
:102810008F907F906F905F904F903F902F90089592
:102820000FB6F894A895809160008861809360004D
:10283000109260000FBE9FE088E10FB6F894A89553
:10284000809360000FBE909360000E94660561E077
:1028500082E00E949C1F60E082E00E94D81F61E03D
:1028600083E00E949C1F61E085E00E949C1F61E064
:1028700086E00E949C1F60E086E00E94D81F0E94B4
:10288000590462E370E080E090E00E94AD1E61E0D8
:102890008BE793E0A8D362E08BE793E0A4D363E0F7
:1028A0008BE793E0A0D3A8950895CF92DF92EF92A3
:1028B000FF920F931F93CF93DF93609100018EE9F6
:1028C00094E00E94AF1D60E58EE994E00E945F1DD8
:1028D0008EE994E00E942D1E44E0609100018EE993
:1028E00094E00E942B1ECEE4D1E002E511E08EE9D7
:1028F00094E00E94D91C89930C171D07C1F76091C1
:102900004E016F7370E0762F662780914F01682B20
:10291000072E000C880B990B0E9495266B017C01F9
:10292000609170017091710180E090E00E949326A7
:102930009B01AC01C701B6010E94912520916C0159
:1029400030916D0140916E0150916F010E944927B5
:102950006B017C016091750170E080E090E00E9465
:1029600095269B01AC01C701B6010E94912520E08C
:1029700030E048EC52E40E94492720E030E048EC87
:1029800052E40E9492256093E9017093EA018093DA
:10299000EB019093EC016091500188E0689FB001D9
:1029A000112480915101829586958770682B072E9E
:1029B000000C880B990B0E94952620E030E048E43B
:1029C00053E40E94492720E030EE4FEF54E40E9488
:1029D000FA2520917E0130917F0140918001509134
:1029E00081010E94922520E030E048E452E40E94F8
:1029F00091256093E5017093E6018093E701909340
:102A0000E80186E990E0DF91CF911F910F91FF904F
:102A1000EF90DF90CF900C94D11E4F925F926F9207
:102A20007F928F929F92AF92BF92CF92DF92EF925E
:102A3000FF920F931F93E09161018E2F90E0FC01B4
:102A40003197EE30F10508F003C2EC5CFF4F0C94B7
:102A5000772561E086E00E94D81F82E006C183E00E
:102A600004C123DF84E001C185E08093610180918E
:102A7000D1019091D201A091D301B091D401809362
:102A8000840190938501A0938601B0938701E0C1F2
:102A90008091D1019091D201A091D301B091D40144
:102AA0004091840150918501609186017091870168
:102AB000841B950BA60BB70B85369105A105B105B7
:102AC00008F4C6C151C080915901811118C080918C
:102AD0005F018F5F80935F0120915D0130915E0106
:102AE0002F5F3F4F30935E0120935D018B3058F094
:102AF00084E180935F0181E08093600104C01092C3
:102B0000600110925F018091DE01813011F487E055
:102B1000ACC08091D1019091D201A091D301B0912C
:102B2000D4018093840190938501A0938601B09392
:102B3000870189E09AC08091D1019091D201A09142
:102B4000D301B091D40140918401509185016091ED
:102B5000860170918701841B950BA60BB70BC39759
:102B6000A105B10508F474C18AE07FC060E086E089
:102B70000E94D81F80916001811122C080915F0165
:102B800081111EC08091630181111AC0E090FB0287
:102B9000F090FC020091FD021091FE022091E501EF
:102BA0003091E6014091E7015091E8016091E9011F
:102BB0007091EA018091EB019091EC010E949A00E2
:102BC0000E942701E090FB02F090FC020091FD02C0
:102BD0001091FE022091E5013091E6014091E7015C
:102BE0005091E8016091E9017091EA018091EB0157
:102BF0009091EC010E94AB038BE037C00E94010171
:102C00008CE033C00E948C0280914202909143027A
:102C1000A0914402B091450280934C0390934D03E0
:102C2000A0934E03B0934F038091460290914702C8
:102C3000A0914802B09149028093480390934903C0
:102C4000A0934A03B0934B0380914A0290914B02A8
:102C5000A0914C02B0914D028093440390934503A0
:102C6000A0934603B09347038EE080936101F0C0C8
:102C7000C0904C03D0904D03E0904E03F0904F0372
:102C80002AE037ED43E25CE3C701B6010E94492721
:102C90004B015C0160936003709361038093620356
:102CA000909363032DEC3CEC4CEC5DE30E944927D0
:102CB00060935C0370935D0380935E0390935F0366
:102CC00020E030E04AE754E4C701B6010E944927FA
:102CD000609358037093590380935A0390935B0356
:102CE000C0926403D0926503E0926603F09267039A
:102CF00027ED34E844E15EE3C701B6010E944927AD
:102D00006093540370935503809356039093570335
:102D10002DEC3CEC4CEC5DE3C701B6010E94492769
:102D20006093500370935103809352039093530325
:102D3000C0904803D0904903E0904A03F0904B03C1
:102D4000C0924003D0924103E0924203F0924303C9
:102D500023E333E948E853E4C701B6010E94922512
:102D60002B013C0160933C0370933D0380933E0331
:102D700090933F0326E636E646EE5FE3C701B601D1
:102D80000E94492720E030E040E052E40E94922572
:102D9000609338037093390380933A0390933B0315
:102DA000A301920163E373E982E993E40E94FA25A7
:102DB000A50194010E9449276B017C0160932E03B9
:102DC00070932F03809330039093310320E030E021
:102DD00040E85FE30E9491256093280370932903E4
:102DE00080932A0390932B032DEC3CEC4CEC5DE399
:102DF000C701B6010E9449276093240370932503FD
:102E000080932603909327032DEC3CEC4CEC5DE380
:102E10000E949125609320037093210380932203E5
:102E200090932303A70196016091D7017091D80177
:102E30008091D9019091DA010E944927609334036F
:102E4000709335038093360390933703109261019A
:102E50001F910F91FF90EF90DF90CF90BF90AF90B8
:102E60009F908F907F906F905F904F9008950F93F9
:102E70001F938091D1019091D201A091D301B09183
:102E8000D4014091CD015091CE016091CF0170915C
:102E9000D0018C019D01041B150B260B370B093744
:102EA00011052105310570F08093CD019093CE017D
:102EB000A093CF01B093D001B0DD8091D6018111F4
:102EC0000E9464031F910F91089516D76093D1015A
:102ED0007093D2018093D3019093D4012091820109
:102EE000213071F422E0209382010FB6F894A89566
:102EF00020916000286120936000109260000FBE56
:102F0000693B7B408105910538F080916201811118
:102F100003C081E08093620180916201882339F0CF
:102F20000E947A03A4DF8EE693E00E945C24A895B9
:102F30000895FC0124853585F901E05CFF4F80810F
:102F40009181329620813181805C9F4F821B930B4F
:102F500060E470E00C944225DC011C96ED91FC913C
:102F60001D97DF01A05CBF4F2D913C9111971296E8
:102F70008D919C9111972817390739F08D919C916B
:102F8000E80FF91F808190E008958FEF9FEF08957B
:102F9000FC01A485B585FD01E05CFF4F20813181F6
:102FA0003296808191812817390779F0808191814B
:102FB000A80FB91F8C91208131812F5F3F4F2F7354
:102FC00033273183208390E008958FEF9FEF08959A
:102FD000FC0181A1882329F0A489B5898C9186FF01
:102FE000FBCF11A208950F931F93CF93DF93FC01A2
:102FF000A685B7858D01005C1F4FE8018881998106
:1030000001968F739927AD014E5B5F4FEA012881CE
:10301000398182179307D1F3E80128813981A20F02
:10302000B31F6C93A685B785A05CBF4F11969C9388
:103030008E93A689B7892C9181E090E0078C02C01D
:10304000880F991F0A94E2F7822B8C9381E081A369
:103050000488F589E02D80818064808381E090E0A0
:10306000DF91CF911F910F91089508951F920F92B4
:103070000FB60F9211242F934F935F938F939F93CB
:10308000EF93FF938091C00082FD1CC02091C60089
:10309000809121049091220401968F739927409189
:1030A0002304509124048417950771F0E0912104C2
:1030B000F0912204EF51FC4F2083909322048093DF
:1030C000210402C08091C600FF91EF919F918F91E2
:1030D0005F914F912F910F900FBE0F901F901895F9
:1030E0008BE793E026DF892B09F0BFCF08951F926D
:1030F0000F920FB60F9211242F933F938F939F93AC
:10310000EF93FF932091DD033091DE038091DF0385
:103110009091E0032817390731F48091C1008F7D29
:103120008093C10014C0E091DF03F091E003E35607
:10313000FC4F20818091DF039091E00301968F7313
:1031400099279093E0038093DF032093C600FF91BB
:10315000EF919F918F913F912F910F900FBE0F9004
:103160001F901895CF92DF92EF92FF921F93CF930B
:10317000DF93EC016A017B01122F4115514E61056D
:10318000710509F1EC89FD8981E090E008A002C099
:10319000880F991F0A94E2F7808360E079E08DE35D
:1031A00090E0A70196010E945525DA01C901019717
:1031B000A109B109B695A795979587959C01211509
:1031C00080E13807A8F0EC89FD89108260E874E896
:1031D0008EE190E0A70196010E945525DA01C90110
:1031E0000197A109B109B695A795979587959C0177
:1031F000E889F9893083EA89FB892083E88DF98D94
:103200001083EE89FF89408181E090E09C010C8C65
:1032100002C0220F331F0A94E2F7242B2083EE8989
:10322000FF8940819C010D8C02C0220F331F0A943C
:10323000E2F7242B2083EE89FF8940819C010E8CCC
:1032400002C0220F331F0A94E2F7242B2083EE8959
:10325000FF8920810F8C02C0880F991F0A94E2F722
:10326000809582238083DF91CF911F91FF90EF9013
:10327000DF90CF900895EBE7F3E01382128288EE9F
:1032800093E0A0E0B0E084839583A683B78381E3D5
:1032900091E09183808381EE93E0958784878DE927
:1032A00093E09787868785EC90E0918B808B84EC08
:1032B00090E0938B828B80EC90E0958B848B81ECFB
:1032C00090E0978B868B82EC90E0918F808F86ECDC
:1032D00090E0938F828F84E0848F83E0858F87E0F6
:1032E000868F85E0878F81E080A30895089563D558
:1032F000FDDF96DAC0E7D8E1E8DD2097E9F3F0DEFC
:10330000FBCFCF92DF92EF92FF920F931F93CF9359
:10331000DF936C01EB017B01E40EF51E00E010E091
:10332000CE15DF0561F06991D601ED91FC91019018
:10333000F081E02DC6010995080F191FF1CFC801D2
:10334000DF91CF911F910F91FF90EF90DF90CF9081
:103350000895FC0144835583668377830895813003
:1033600039F018F0823051F0089510926E000895EF
:1033700080916F008D7F80936F0008958091700021
:103380008D7F8093700081E08093B0008091B100C8
:10339000887F84608093B1001092B3000895CF932A
:1033A000C82F80910401C81307C0E4E8F0E08491BD
:1033B0009FEF9093040101C08FEFD1DF60E08C2F6D
:1033C000CF91F6C51F920F920FB60F9211242F9333
:1033D0003F934F935F936F937F938F939F93AF939D
:1033E000BF93EF93FF938091280490912904A091BB
:1033F0002A04B0912B04892B8A2B8B2B51F19091AD
:103400002504E0912604F091270480818927808398
:103410008091280490912904A0912A04B0912B0452
:10342000181619061A061B06BCF480912804909100
:103430002904A0912A04B0912B040197A109B10994
:103440008093280490932904A0932A04B0932B041A
:1034500003C080910401A3DFFF91EF91BF91AF9171
:103460009F918F917F916F915F914F913F912F919C
:103470000F900FBE0F901F9018951092990481E045
:10348000809397041092960461E082E191D561E007
:1034900083E18ED5E9EBF0E080818E7F80838081AF
:1034A0008D7F808388E48093B80085E48093BC009E
:1034B00008959B01AC0160E074E284EF90E00E940B
:1034C0005525DA01C9014097A109B109B695A7951B
:1034D000979587958093B8000895413208F043C0CE
:1034E000909199049111FCCF91E0909399042093CD
:1034F00097042FEF20932C0410927104240F209333
:1035000070049093980490919804880F892B80936D
:10351000980480919604813061F410929604809111
:1035200098048093BB008091BC0083FDF8CF85ECAC
:1035300001C085EE8093BC00809199048130E1F355
:1035400080917104841710F440917104A2E7B4E0F3
:10355000962FFB018E2F891B841718F48D91819370
:10356000F9CF842F089580E008950F93413208F039
:103570004AC0909199049111FCCF32E030939904A4
:10358000009397043FEF30932C0410927104409302
:103590007004562FA2E7B4E0FB013E2F351B341711
:1035A00018F431913D93F9CF10929804309198041A
:1035B000880F832B8093980480919604813061F466
:1035C00010929604809198048093BB008091BC0077
:1035D00083FDF8CF85EC01C085EE8093BC002223EB
:1035E00021F0809199048230D1F380912C048F3F97
:1035F00079F080912C04803241F080912C0480334A
:1036000031F094E005C091E003C092E001C093E086
:10361000892F0F91089540914E04262F30E0240FFA
:10362000311D21323105DCF4209199042430C9F494
:10363000FC0180E090E0861758F430914E0421910F
:10364000DC01A05BBB4FA30FB11D2C930196F3CF00
:1036500080914E04680F60934E0480E0089581E0ED
:10366000089582E0089590939304809392040895BE
:103670009093950480939404089585ED8093BC0005
:103680008091BC0084FDFCCF10929904089585ECD4
:103690008093BC001092990408951F920F920FB668
:1036A0000F9211242F933F934F935F936F937F93C8
:1036B0008F939F93AF93BF93EF93FF938091B90044
:1036C000887F803609F49DC070F5883209F45CC0AB
:1036D00090F4803109F455C038F4882309F4F3C01C
:1036E000883009F44EC0F2C0883109F44DC08032F0
:1036F00009F45EC0EBC0803409F469C050F4803333
:1037000009F456C0883309F0E1C080932C04BFDF70
:10371000DDC0803509F44FC0883509F45DC08834B8
:1037200009F0D4C0D2C0883909F4C3C0A8F48837DE
:1037300009F467C038F4883609F463C0803709F4A7
:1037400060C0C4C0883809F4B4C0803909F45FC0CF
:10375000803809F0BBC05BC0803B09F482C038F4FC
:10376000803A09F466C0883A09F47BC0AFC0803C57
:1037700009F4A3C0883C09F4A0C0883B09F486C0C2
:10378000A5C08091980410C090917104809170043C
:10379000981770F5E091710481E08E0F80937104A9
:1037A000F0E0EE58FB4F80818093BB0085EC82C037
:1037B00080932C048AC0E091710481E08E0F809385
:1037C00071048091BB00F0E0EE58FB4F8083909134
:1037D0007104809170046AC0E091710481E08E0FE1
:1037E000809371048091BB00F0E0EE58FB4F808322
:1037F00080919704811169C081E08093960484EAE6
:103800005DC083E08093990410922D04CFCF809106
:103810002D04803208F04DC0E0912D0481E08E0F20
:1038200080932D048091BB00F0E0E25DFB4F80832C
:10383000BDCF2DDF80912D04803230F4E0912D0436
:10384000F0E0E25DFB4F108260912D0470E0E091AA
:103850009204F09193048EE294E0099510922D0465
:1038600035C084E08093990410924F0410924E0466
:10387000E0919404F0919504099580914E04811192
:1038800005C081E080934E0410925004E0914F04F3
:1038900081E08E0F80934F04F0E0E05BFB4F80816E
:1038A0008093BB0090914F0480914E04981708F4C8
:1038B0007DCF85E88093BC0009C085EC8093BC0077
:1038C0001092990403C010922C04D7DEFF91EF915F
:1038D000BF91AF919F918F917F916F915F914F9128
:1038E0003F912F910F900FBE0F901F9018951F9230
:1038F0000F920FB60F9211242F933F934F935F9324
:103900006F937F938F939F93AF93BF93EF93FF93A7
:1039100080919A0490919B04892B29F0E0919A045C
:10392000F0919B040995FF91EF91BF91AF919F9109
:103930008F917F916F915F914F913F912F910F9058
:103940000FBE0F901F9018951F920F920FB60F92F7
:1039500011242F933F934F935F936F937F938F9394
:103960009F93AF93BF93EF93FF9380919C049091AB
:103970009D04892B29F0E0919C04F0919D04099508
:10398000FF91EF91BF91AF919F918F917F916F9137
:103990005F914F913F912F910F900FBE0F901F900D
:1039A00018958091D20490E02091D304821B910954
:1039B00008959091D3048091D204981750F4E92F80
:1039C000F0E0EC52FB4F208130E09F5F9093D304F6
:1039D00002C02FEF3FEFC9010895E091D304809119
:1039E000D204E81730F4F0E0EC52FB4F808190E015
:1039F00008958FEF9FEF08950895CF93DF93EC0123
:103A0000E091AA04F091AB043097F1F09091D304C7
:103A10008091D2049817C0F090E0292F30E026174B
:103A2000370754F4DE01A20FB31F4C91D901AC52F9
:103A3000BB4F4C939F5FF1CF1092D3046093D2049D
:103A4000CB01DF91CF910994DF91CF910895E0915F
:103A5000AC04F091AD04309729F01092B0041092AC
:103A6000AF0409940895CF92DF92EF92FF920F93E3
:103A70001F93CF93DF937C01CB018A012091AE0489
:103A8000222389F0EB016B01C40ED51ECC15DD0598
:103A900061F06991D701ED91FC910190F081E02DE9
:103AA000C7010995F3CF642FB6DDC801DF91CF912F
:103AB0001F910F91FF90EF90DF90CF900895CF93DB
:103AC000DF931F92CDB7DEB769832091AE04222326
:103AD000D1F02091AF04203240F021E030E0FC0131
:103AE0003383228380E090E014C08091B004E82FFB
:103AF000F0E0EF54FB4F998190838F5F8093B00487
:103B00008093AF0404C061E0CE01019684DD81E0C2
:103B100090E00F90DF91CF910895FC011382128203
:103B200088EE93E0A0E0B0E084839583A683B7831A
:103B300081E491E09183808308951092D3041092E0
:103B4000D2041092B0041092AF0497DC87E29DE19A
:103B50008FDD8DEF9CE187CDCB01BA01AACC81E04E
:103B60008093AE046093D1041092B0041092AF041D
:103B700008950F93062F21E04091AF0461EB74E0AC
:103B80008091D104F2DC1092B0041092AF04109234
:103B9000AE040F9108954F925F926F927F92AF9211
:103BA000BF92CF92EF92FF920F931F93CF93DF9329
:103BB0005C01F62ED42F28013901EE2011F1CFDF60
:103BC000CE2DC43008F0C3E0C150C0F028E0C29F41
:103BD000C0011124A301920104C056954795379561
:103BE00027958A95D2F7CA01B901D501ED91FC91CB
:103BF0000190F081E02DC5010995E6CF60E0C50197
:103C0000B8DF4D2FD13208F040E22C2D64ED74E086
:103C10008F2D63DC1092D3048093D204DF91CF9177
:103C20001F910F91FF90EF90CF90BF90AF907F903A
:103C30006F905F904F900895CF92EF920F931F93E4
:103C4000C22EE12C00E010E09801A5DF1F910F913A
:103C5000EF90CF90089521E0EFCF61E08ACF8EE919
:103C600094E05BCF1F920F920FB60F9211242F9307
:103C70003F938F939F93AF93BF938091F50490915F
:103C8000F604A091F704B091F8043091F40423E015
:103C9000230F2D3720F40196A11DB11D05C026E884
:103CA000230F0296A11DB11D2093F4048093F50407
:103CB0009093F604A093F704B093F8048091F9046C
:103CC0009091FA04A091FB04B091FC040196A11D0F
:103CD000B11D8093F9049093FA04A093FB04B09370
:103CE000FC04BF91AF919F918F913F912F910F90C5
:103CF0000FBE0F901F9018952FB7F8946091F504A0
:103D00007091F6048091F7049091F8042FBF089504
:103D10003FB7F8948091F9049091FA04A091FB04C4
:103D2000B091FC0426B5A89B05C02F3F19F0019661
:103D3000A11DB11D3FBFBA2FA92F982F8827820F31
:103D4000911DA11DB11DBC01CD0142E0660F771F81
:103D5000881F991F4A95D1F70895CF92DF92EF926D
:103D6000FF92CF93DF936B017C01D2DFEB01C11493
:103D7000D104E104F10471F0CBDF6C1B7D0B683ED4
:103D80007340A8F381E0C81AD108E108F108C851CE
:103D9000DC4FEDCFDF91CF91FF90EF90DF90CF9090
:103DA0000895019739F0880F991F880F991F02977E
:103DB0000197F1F70895789484B5826084BD84B545
:103DC000816084BD85B5826085BD85B5816085BD16
:103DD000EEE6F0E0808181608083E1E8F0E010822F
:103DE000808182608083808181608083E0E8F0E070
:103DF000808181608083E1EBF0E08081846080835A
:103E0000E0EBF0E0808181608083EAE7F0E0808190
:103E100084608083808182608083808181608083F0
:103E20008081806880831092C10008951F93CF9392
:103E3000DF93182FEB0161E07FD0209711F460E051
:103E400004C0CF3FD10531F461E0812FDF91CF91E4
:103E50001F91AEC0E12FF0E0EB57FF4FE491E3304C
:103E6000F9F048F4E130B9F0E230A1F584B58062B0
:103E700084BDC8BD34C0E630E9F0E73019F1E43064
:103E800049F580918000806280938000D0938B0000
:103E9000C0938A0024C084B5806884BDC7BD1FC09C
:103EA00080918000806880938000D0938900C093C7
:103EB000880015C08091B00080688093B000C093E6
:103EC000B3000DC08091B00080628093B000C093B9
:103ED000B40005C0C038D1050CF0B6CFB0CFDF912B
:103EE000CF911F910895833081F028F4813099F0AB
:103EF0008230A1F008958630A9F08730B9F084307F
:103F0000D1F4809180008F7D03C0809180008F77F5
:103F100080938000089584B58F7702C084B58F7D2B
:103F200084BD08958091B0008F7703C08091B00068
:103F30008F7D8093B0000895CF93DF9390E0FC01D4
:103F4000E756FF4F2491FC01E355FF4F84918823EE
:103F500061F190E0880F991FFC01E553FF4FC59177
:103F6000D491FC01EF53FF4FA591B491611109C0A9
:103F70009FB7F8948881209582238883EC912E2323
:103F80000BC0623061F49FB7F8948881322F30956E
:103F900083238883EC912E2B2C939FBF06C08FB771
:103FA000F894E8812E2B28838FBFDF91CF9108955D
:103FB0001F93CF93DF93282F30E0F901EB57FF4F8A
:103FC0008491F901E756FF4FD491F901E355FF4F72
:103FD000C491CC23B9F0162F811185DFEC2FF0E0CE
:103FE000EE0FFF1FEF53FF4FA591B4919FB7F894C9
:103FF000111104C08C91D095D82302C0EC91DE2B16
:10400000DC939FBFDF91CF911F9108951F920F9274
:104010000FB60F9211242F933F934F935F936F939B
:104020007F938F939F93AF93BF93CF93DF93EF9340
:10403000FF9390911D05A0911C052091880030915F
:10404000890080910105482F50E0C0915105D09121
:104050005205B0911B05E92FF0E04E175F07ECF019
:104060002C0F3D1FEA2FE170A6959F5FEB1799F388
:1040700080918000EE2311F0806C02C08F7B8068FD
:10408000809380003093890020938800E0931B0583
:10409000A0931C0590931D058FC09091FF04911172
:1040A00005C0EA012196EC17FD0729F0EA012296E6
:1040B000EC17FD07A1F48D5F80931D0580918000B2
:1040C000806C809380006091000540915105509173
:1040D0005205649FC001659F900D112467C04F5F1A
:1040E0005F4FE417F507C9F48E5F80931D0580913B
:1040F0000205B81709F456C0882321F0809180008A
:10410000806C04C0809180008F7B806880938000E9
:104110008091020580931B0545C080911A05E091AE
:1041200019058E130DC010921D05809180008F73AC
:104130008093800080916F008D7F80936F003CC0E2
:1041400081E080931D05EF5FE43108F0E0E0E0934B
:104150001905F0E0ED5FFA4F808180931C05109205
:104160001B059923C9F0082E82958025082E869577
:10417000869580258F5F81FB662760F970E041E0BE
:1041800050E0923011F040E050E081E06417750794
:1041900009F080E080930205809180008F7B806829
:1041A000809380008091510590915205280F391F0E
:1041B0003093890020938800FF91EF91DF91CF9198
:1041C000BF91AF919F918F917F916F915F914F912F
:1041D0003F912F910F900FBE0F901F9018951F9237
:1041E0000F920FB60F9211241F932F933F934F936B
:1041F0005F936F937F938F939F93AF93BF93CF936F
:10420000DF93EF93FF932091860030918700909188
:104210004E0580918100992331F08F7B809381003E
:1042200010924E0506C080648093810080E88093E0
:104230004E0580915005811123C091119AC0809143
:104240004A0590914B05820F931F90938B008093AA
:104250008A0084E086BB80916F00846080936F0049
:104260008091510590915205280F391F9695879599
:10427000280F391F30934D0520934C0581E074C001
:1042800040914C0550914D05C091010570914E052E
:1042900090914F05A0915105B0915205D091FE0427
:1042A0001091FD04241B350B37FD58C0882321F0E5
:1042B000C81710F09695972B4A0F5B1F8F5F8D17CD
:1042C00008F446C090934F0580916F008B7F8093D8
:1042D0006F009091FF049923F9F080914F05082E0B
:1042E00082958025082E8695869580258F5F81FB97
:1042F000EE27E0F9F0E021E030E0923011F020E02C
:1043000030E081E090E0E217F30711F080E090E008
:1043100070E08617970791F4809149058F5F883286
:1043200030F590914805891749F0E82FF0E0909119
:104330004F05E25EFA4F908380934905809181009A
:104340008F7B8093810010924E051092500511C012
:10435000811708F4672F2A1B3B0BA6CF90934F05BC
:1043600050934D0540934C058093500502C080E06A
:10437000D8CFFF91EF91DF91CF91BF91AF919F91F6
:104380008F917F916F915F914F913F912F911F91ED
:104390000F900FBE0F901F9018951F920F920FB69F
:1043A0000F9211242F934F935F936F937F938F936B
:1043B0009F93EF93FF9380916F008B7F80936F00AB
:1043C000809181008F7B80938100809150052091A6
:1043D0004E0520584091010550E090914F05682FFF
:1043E00070E04617570724F09695922B8F5FF7CF12
:1043F00090934F05809149058F5F883208F080E0E7
:1044000020914805821739F0E82FF0E0E25EFA4F7C
:1044100090838093490510925005809181008F7B95
:104420008093810010924E05FF91EF919F918F91A3
:104430007F916F915F914F912F910F900FBE0F90D1
:104440001F9018950F931F93CF93DF93EC0140E8D3
:1044500055E260E070E08BE793E00E94B218E1EC77
:10446000F0E08081806480831E830D8384E08093EC
:104470005305DF91CF911F910F9108958FEF9FEF1B
:104480004217A8F4FB01E40FF11D3081832738E0C7
:10449000FC01E170FF2796958795EF2B21F051E005
:1044A000852750EA9527315099F74F5FE9CF982734
:1044B0008927982708951F93CF93DF93EB01142F3B
:1044C000242F40E0DBDFFE01E10FF11D90831F5F31
:1044D000C10FD11D8883DF91CF911F910895FB01FA
:1044E00041814330A9F0463029F0403189F081E024
:1044F00090E00895228130E0322F22274381240F5B
:10450000311DFC01858196812817390718F528C0CF
:10451000248130E0322F22275581250F311D433071
:1045200021F0403111F040E001C04EE0211531058D
:10453000A1F050E04217530780F0228130E0322F83
:1045400022274381240F311DFC018581968182172A
:10455000930730F482E090E0089583E090E00895BE
:1045600080E090E00895FC017483638308950F93C5
:104570001F93CF93DF93DB01BA01A9019801EC01EE
:10458000EB81FC81CD01DF91CF911F910F910994B7
:104590006F927F928F929F92AF92BF92CF92DF9253
:1045A000EF92FF920F931F93CF93DF935C014B0128
:1045B0006A0139017A01C0E0D0E082E0E80EF11C26
:1045C000F601858190E0C817D90788F4F7010581C5
:1045D00010E0102F00278681082BAE01480D591DD1
:1045E00021E030E0B301C501C2DF2196E6CFCE0164
:1045F000DF91CF911F910F91FF90EF90DF90CF90BF
:10460000BF90AF909F908F907F906F9008951F9272
:104610000F920FB60F9211245A980F900FBE0F9061
:104620001F901895EF92FF920F931F93CF93DF93F4
:104630008091C00080648093C0008FB7F8945A9A2C
:104640008FBFEB01042F10E07B01E00EF11ECE15B1
:10465000DF0531F069918BE793E00E94F317F7CF04
:10466000C801DF91CF911F910F91FF90EF900895B6
:10467000EF92FF920F931F93CF938C017B01C42F76
:104680001ADF42E04C0FB701C801CF911F910F9183
:10469000FF90EF90C7CFCF92DF92EF92FF920F93F0
:1046A0001F93CF93DF93CDB7DEB728970FB6F8945B
:1046B000DEBF0FBECDBF6C01842F752FA8016983AB
:1046C00090E19A837B838C831D822E839701682FD0
:1046D000C6015EDF892B39F046E0BE016F5F7F4F78
:1046E000C601C6DF02C080E090E028960FB6F894BD
:1046F000DEBF0FBECDBFDF91CF911F910F91FF9015
:10470000EF90DF90CF900895EF92FF920F931F9359
:10471000CF93DF93CDB7DEB728970FB6F894DEBFFF
:104720000FBECDBF7C01C801F9010481158110279E
:1047300001271027698326E02A835B834C831D832E
:104740000E8321E030E0BC01C70111DF46E0BE016D
:104750006F5F7F4FC7018CDF28960FB6F894DEBFDE
:104760000FBECDBFDF91CF911F910F91FF90EF90C2
:104770000895AF92BF92CF92DF92EF92FF920F9384
:104780001F93CF93DF93CDB7DEB7A8970FB6F894FA
:10479000DEBF0FBECDBF6C015801698383E08A8301
:1047A000822F880F8B83E22EF12C00E010E097011E
:1047B000B501C601DCDED501FE01319680E090E056
:1047C000BF0132968E159F0548F42C9111963C91AD
:1047D00011971296318322830196F3CFA701440FDC
:1047E000551F4D5F5F4FC60143DFA8960FB6F89483
:1047F000DEBF0FBECDBFDF91CF911F910F91FF9014
:10480000EF90DF90CF90BF90AF9008950F931F93DC
:10481000CF93DF938B01C0E0D0E08BE793E00E9461
:104820009917892B71F08BE793E00E94C817F80164
:1048300081938F012196C632D10579F78FEF9FEFD3
:1048400001C0CE01DF91CF911F910F910895DF92AA
:10485000EF92FF920F931F93CF93DF937C01D62E9D
:104860008A01BA01D3DFEC0118161906CCF4282FFF
:10487000225040E0B801C70101DEA8014C0F5D1FC6
:10488000FA013297208130E0322F22273196408181
:10489000242B8217930731F4F80180818D1102C017
:1048A000CE0102C08FEF9FEFDF91CF911F910F914B
:1048B000FF90EF90DF9008958F929F92AF92BF92FA
:1048C000CF92DF92EF92FF920F931F93CF93DF93DC
:1048D000CDB7DEB7CC57D1090FB6F894DEBF0FBE07
:1048E000CDBF6C018BE793E00E9499175C01892B87
:1048F00021F4F6011486138687C0FED92BB1122F3E
:10490000147022FD81C0F60123853485A216B306FA
:1049100039F0B486A386678370878187928775C0D4
:10492000F60187809084A184B284DC01CB018819D0
:104930009909AA09BB0980905305912CA12CB12C8F
:1049400088159905AA05BB0508F45FC0148613866F
:10495000AE014B5A5F4F6081C60179DF1816190608
:104960000CF050C0482FBE016B5A7F4FC601B7DD17
:104970009C0167969FAD67972115310571F0122F45
:10498000F6018081898390589A832B8343E0BE018E
:104990006F5F7F4FC6016CDE38C068964FAD689779
:1049A00050E0542F442769968FAD6997480F511DE9
:1049B000F60192839630E1F0903161F0933029F561
:1049C0008E010F5F1F4F6B962FAD6B976081C601F5
:1049D000D0DE18C0CE0101967C018E010B5A1F4F0C
:1049E0006B962FAD6B97F6016081C60154DE0AC04D
:1049F0008E010F5F1F4F9E012B5A3F4FF6016081C2
:104A0000C60182DE182F01C010E0812FC458DF4F8D
:104A10000FB6F894DEBF0FBECDBFDF91CF911F91CF
:104A20000F91FF90EF90DF90CF90BF90AF909F904D
:104A30008F90089508951F920F920FB60F92112430
:104A40002F933F934F935F936F937F938F939F9396
:104A5000AF93BF93EF93FF93E0910501F0910601AF
:104A60000995FF91EF91BF91AF919F918F917F91A8
:104A70006F915F914F913F912F910F900FBE0F90CB
:104A80001F90189597FB072E16F4009406D077FD1B
:104A900008D033D007FC05D03EF4909581959F4F08
:104AA0000895709561957F4F0895A1E21A2EAA1B73
:104AB000BB1BFD010DC0AA1FBB1FEE1FFF1FA217CE
:104AC000B307E407F50720F0A21BB30BE40BF50BCB
:104AD000661F771F881F991F1A9469F76095709554
:104AE000809590959B01AC01BD01CF010895EE0F1B
:104AF000FF1F0590F491E02D0994AA1BBB1B51E107
:104B000007C0AA1FBB1FA617B70710F0A61BB70B3D
:104B1000881F991F5A95A9F780959095BC01CD01E2
:104B200008955058BB27AA270ED075C166D130F022
:104B30006BD120F031F49F3F11F41EF45BC10EF4F1
:104B4000E095E7FB51C1E92F77D180F3BA176207EF
:104B500073078407950718F071F49EF58FC10EF462
:104B6000E0950B2EBA2FA02D0B01B90190010C017D
:104B7000CA01A0011124FF27591B99F0593F50F495
:104B8000503E68F11A16F040A22F232F342F4427ED
:104B9000585FF3CF469537952795A795F0405395E5
:104BA000C9F77EF41F16BA0B620B730B840BBAF0B5
:104BB0009150A1F0FF0FBB1F661F771F881FC2F720
:104BC0000EC0BA0F621F731F841F48F48795779534
:104BD0006795B795F7959E3F08F0B3CF9395880FEB
:104BE00008F09927EE0F979587950895D9D008F486
:104BF00081E008950CD00FC107D140F0FED030F015
:104C000021F45F3F19F0F0C0511139C1F3C014D144
:104C100098F39923C9F35523B1F3951B550BBB2783
:104C2000AA2762177307840738F09F5F5F4F220F30
:104C3000331F441FAA1FA9F333D00E2E3AF0E0E829
:104C400030D091505040E695001CCAF729D0FE2F75
:104C500027D0660F771F881FBB1F26173707480707
:104C6000AB07B0E809F0BB0B802DBF01FF279358BD
:104C70005F4F2AF09E3F510568F0B6C000C15F3F0C
:104C8000ECF3983EDCF3869577956795B795F795A5
:104C90009F5FC9F7880F911D9695879597F908959D
:104CA000E1E0660F771F881FBB1F62177307840739
:104CB000BA0720F0621B730B840BBA0BEE1F88F748
:104CC000E095089504D06894B111D9C00895BCD07E
:104CD00088F09F5790F0B92F9927B751A0F0D1F0E5
:104CE000660F771F881F991F1AF0BA95C9F712C06F
:104CF000B13081F0C3D0B1E00895C0C0672F782FE4
:104D00008827B85F39F0B93FCCF3869577956795DA
:104D1000B395D9F73EF490958095709561957F4F46
:104D20008F4F9F4F0895E89409C097FB3EF49095EC
:104D30008095709561957F4F8F4F9F4F9923A9F074
:104D4000F92F96E9BB279395F69587957795679503
:104D5000B795F111F8CFFAF4BB0F11F460FF1BC047
:104D60006F5F7F4F8F4F9F4F16C0882311F096E9DA
:104D700011C0772321F09EE8872F762F05C0662388
:104D800071F096E8862F70E060E02AF09A95660F41
:104D9000771F881FDAF7880F9695879597F90895FA
:104DA000990F0008550FAA0BE0E8FEEF161617063C
:104DB000E807F907C0F012161306E407F50798F0A4
:104DC000621B730B840B950B39F40A2661F0232BBD
:104DD000242B252B21F408950A2609F4A140A69539
:104DE0008FEF811D811D089597F99F6780E870E01E
:104DF00060E008959FEF80EC089500240A94161651
:104E0000170618060906089500240A9412161306B8
:104E1000140605060895092E0394000C11F4882346
:104E200052F0BB0F40F4BF2B11F460FF04C06F5F62
:104E30007F4F8F4F9F4F089557FD9058440F551F38
:104E400059F05F3F71F04795880F97FB991F61F00C
:104E50009F3F79F087950895121613061406551F83
:104E6000F2CF4695F1DF08C0161617061806991FEF
:104E7000F1CF86957105610508940895E894BB27E4
:104E800066277727CB0197F908958ADF08F48FEF1B
:104E900008950BD0C0CFB1DF28F0B6DF18F095230E
:104EA00009F0A2CFA7CF1124EACFC6DFA0F3959FC8
:104EB000D1F3950F50E0551F629FF001729FBB2701
:104EC000F00DB11D639FAA27F00DB11DAA1F649FAD
:104ED0006627B00DA11D661F829F2227B00DA11D60
:104EE000621F739FB00DA11D621F839FA00D611DE6
:104EF000221F749F3327A00D611D231F849F600D07
:104F0000211D822F762F6A2F11249F5750408AF03F
:104F1000E1F088234AF0EE0FFF1FBB1F661F771FCB
:104F2000881F91505040A9F79E3F510570F05CCF0B
:104F3000A6CF5F3FECF3983EDCF3869577956795B7
:104F4000B795F795E7959F5FC1F7FE2B880F911DE9
:104F50009695879597F90895F999FECF92BD81BDF1
:104F6000F89A992780B50895262FF999FECF1FBA90
:104F700092BD81BD20BD0FB6F894FA9AF99A0FBE82
:084F800001960895F894FFCF9B
:104F880028073F01FF1A256009C012802540380014
:104F98004B0096C0DA0000003F0000003F00000010
:104FA8003F8FC2F53C8FC2F53C8FC2F53C00000034
:104FB80000F31781199917C817AC17E817000000F4
:0E4FC800005F1D331DD11CD91CED1CFC1C000C
:00000001FF
