:100000000C945D000C9485000C9485000C94850084
:100010000C9485000C9485000C9485000C9485004C
:100020000C9485000C9485000C9485000C9485003C
:100030000C9485000C9485000C9485000C9485002C
:100040000C944A030C9485000C9418030C94F2024F
:100050000C9494030C9485000C9485000C948500FA
:100060000C9485000C94850000000008000201003B
:100070000003040700000000000000000000000072
:10008000250028002B0000000000240027002A0083
:10009000040404040404040402020202020203032E
:1000A0000303030301020408102040800102040836
:1000B0001020010204081020000711241FBECFEFFA
:1000C000D8E0DEBFCDBF11E0A0E0B1E0EAE6FEE09F
:1000D00002C005900D92A231B107D9F721E0A2E14B
:1000E000B1E001C01D92AC3DB207E1F710E0CDE5F3
:1000F000D0E004C02197FE010E942D07CC35D10726
:10010000C9F70E949F030C9433070C94000090E001
:10011000FC01EC55FF4F249180579F4FFC018491C7
:10012000882399F090E0880F991FFC01EA57FF4F50
:10013000A591B491FC01E458FF4F859194918FB73C
:10014000F894EC91E22BEC938FBF0895AF92BF929D
:10015000CF92DF92EF92FF920F931F93CF93DF9393
:100160006C017B018B01040F151FEB015E01AE18C2
:10017000BF08C017D10759F06991D601ED91FC91E4
:100180000190F081E02DC6010995892B79F7C50111
:10019000DF91CF911F910F91FF90EF90DF90CF9063
:1001A000BF90AF900895FC01538D448D252F30E012
:1001B000842F90E0821B930B541710F0CF96089574
:1001C00001970895FC01918D828D981761F0A28DA1
:1001D000AE0FBF2FB11D5D968C91928D9F5F9F7367
:1001E000928F90E008958FEF9FEF0895FC01918D1D
:1001F000828D981731F0828DE80FF11D858D90E08A
:1002000008958FEF9FEF0895FC01918D228D892F26
:1002100090E0805C9F4F821B91098F73992708950E
:1002200082E391E00E94040121E0892B09F420E09F
:10023000822F089580E090E0892B29F00E94100120
:1002400081110C9400000895FC01A48DA80FB92F12
:10025000B11DA35ABF4F2C91848D90E001968F73EE
:100260009927848FA689B7892C93A089B1898C910D
:10027000837080648C93938D848D981306C002885C
:10028000F389E02D80818F7D80830895EF92FF9226
:100290000F931F93CF93DF93EC0181E0888F9B8DA9
:1002A0008C8D98131AC0E889F989808185FF15C063
:1002B0009FB7F894EE89FF896083E889F989808186
:1002C0008370806480839FBF81E090E0DF91CF9155
:1002D0001F910F91FF90EF900895F62E0B8D10E077
:1002E0000F5F1F4F0F731127E02E8C8D8E110CC0E6
:1002F0000FB607FCFACFE889F989808185FFF5CF31
:10030000CE010E942401F1CFEB8DEC0FFD2FF11DEA
:10031000E35AFF4FF0829FB7F8940B8FEA89FB896D
:1003200080818062CFCF0F931F93CF93DF938C0197
:10033000FC012FEF3FEFD82F4191242748E0D9014E
:10034000A170BB2736952795AB2B21F051E02527CF
:1003500050EA3527415099F74E2F481B461760F356
:10036000322723273227FC01E60FF11D308331E0CD
:10037000360F830F911DFC012083C2E0C60F8091D0
:10038000C00080648093C0008FB7F8945A9A8FBFE2
:10039000F80161918F0182E391E00E944601802F74
:1003A0008D1B8C17A8F38C2F90E0DF91CF911F91BC
:1003B0000F910895CF93DF93EC01888D8823B9F0D6
:1003C000AA89BB89E889F9898C9185FD03C0808160
:1003D00086FD0DC00FB607FCF7CF8C9185FFF2CFDD
:1003E000808185FFEDCFCE010E942401E9CFDF910E
:1003F000CF91089590E0FC01E859FF4F2491FC0152
:10040000EC55FF4F3491FC01E057FF4FE491EE2390
:10041000C9F0222339F0233001F1A8F4213019F179
:10042000223029F1F0E0EE0FFF1FE458FF4FA591B5
:10043000B4918FB7F894EC91611126C030953E23AA
:100440003C938FBF08952730A9F02830C9F024309D
:1004500049F7809180008F7D03C0809180008F7765
:1004600080938000DFCF84B58F7784BDDBCF84B5E8
:100470008F7DFBCF8091B0008F778093B000D2CF7B
:100480008091B0008F7DF9CF3E2BDACF6F927F92B3
:100490008F929F92AF92BF92CF92DF92EF92FF9294
:1004A0000F931F93CF93DF938C01862ED72E7A0163
:1004B000722E80912E0190912F01A0913001B09168
:1004C00031018093210190932201A0932301B093E5
:1004D00024018091D10199249394803119F08630C0
:1004E00009F0912C80912001811107C081E0809357
:1004F000200161E08EE00E94FA01C82DDD2DAA24C2
:10050000AA94BA2C6624639467E0C62E6FE3D62EB5
:100510008C2F881990E08E159F050CF042C0C434D2
:10052000E2E0DE0769F074F4C130D10521F1C33097
:10053000D10561F1209779F49920E9F070921F01BB
:100540002196E6CFC23522E0D20741F164F4CE34E1
:10055000F2E0DF07ACF7880F991FF801E80FF91FE9
:10056000B182A082EDCFC43823E0D207A1F7F8947E
:10057000F6010995E5CF880F991FF801E80FF91FDB
:100580008091190190E091838083DACF880F991FC1
:10059000F801E80FF91F11821082D2CF6092180182
:1005A000CFCFDF91CF911F910F91FF90EF90DF9010
:1005B000CF90BF90AF909F908F907F906F90089555
:1005C0008E50806480937C0080917A008064809358
:1005D0007A0080917A0086FDFCCF8091780090911E
:1005E000790008951F920F920FB60F9211242F9346
:1005F0003F934F935F936F937F938F939F93AF93AB
:10060000BF93EF93FF9382E391E00E942401FF9157
:10061000EF91BF91AF919F918F917F916F915F917A
:100620004F913F912F910F900FBE0F901F901895F3
:100630001F920F920FB60F9211242F938F939F93B7
:10064000EF93FF93E0914201F09143018081E091AB
:100650004801F091490182FD1BC0908180914B01BE
:100660008F5F8F7320914C01821741F0E0914B0115
:10067000F0E0EE5CFE4F958F80934B01FF91EF9180
:100680009F918F912F910F900FBE0F901F901895F3
:100690008081F4CF1F920F920FB60F9211242F93E7
:1006A0003F938F939F93AF93BF9380912901909134
:1006B0002A01A0912B01B0912C013091160123E069
:1006C000230F2D3758F50196A11DB11D209316015A
:1006D0008093290190932A01A0932B01B0932C01C0
:1006E0008091120190911301A0911401B091150114
:1006F0000196A11DB11D8093120190931301A09347
:100700001401B0931501BF91AF919F918F913F91CB
:100710002F910F900FBE0F901F90189526E8230F72
:100720000296A11DB11DD2CF1F920F920FB60F924C
:1007300011245A980F900FBE0F901F901895CF93C9
:10074000DF93CDB7DEB7C45AD1090FB6F894DEBF38
:100750000FBECDBF789484B5826084BD84B58160BE
:1007600084BD85B5826085BD85B5816085BD80917C
:100770006E00816080936E001092810080918100F4
:1007800082608093810080918100816080938100EC
:10079000809180008160809380008091B1008460AE
:1007A0008093B1008091B00081608093B00080910F
:1007B0007A00846080937A0080917A0082608093CE
:1007C0007A0080917A00816080937A0080917A002B
:1007D000806880937A001092C1000FB6F894A895B3
:1007E00080916000886180936000109260000FBE6D
:1007F00088E19FE00FB6F894A895809360000FBE43
:100800009093600083E10E94E002853F91402CF0CC
:100810008091170181608093170182E10E94E002BC
:10082000853F91402CF080911701826080931701E1
:1008300081E10E94E002853F91402CF080911701F8
:1008400084608093170180E10E94E002853F91401F
:100850002CF0809117018860809317018FE00E942F
:10086000E002853F91402CF08091170180618093D8
:10087000170180911701811103C081E08093170156
:1008800013E0812F0E94870060E0812F0E94FA010F
:100890001F5F1B30B1F7E0914201F091430182E00C
:1008A0008083E0913E01F0913F011082E091400190
:1008B000F09141018FEC808310924A01E091460152
:1008C000F091470186E08083E0914401F091450179
:1008D000808180618083E0914401F09145018081B5
:1008E00088608083E0914401F091450180818068B7
:1008F0008083E0914401F091450180818F7D808368
:100900008091C10080648093C10089EE93E0909350
:10091000D5018093D40184E080932D0186E492E098
:100920009093D3018093D201809117018093CF01DE
:1009300082E00E94870060E082E00E94FA018EE07F
:100940000E94870060E08EE00E94FA0180912E01F3
:1009500090912F01A0913001B0913101809321013C
:1009600090932201A0932301B0932401A895B0E0B5
:10097000EB2EB0E0FB2E8FB7F89480902901909079
:100980002A01A0902B01B0902C018FBF80922E01E4
:1009900090922F01A0923001B092310180911A0102
:1009A00090911B01A0911C01B0911D01A501940122
:1009B000281B390B4A0B5B0BDA01C90185369105FF
:1009C000A105B10508F438C080921A0190921B016C
:1009D000A0921C01B0921D01D0901F0180911901BD
:1009E0008D1581F0D09219011AE001E08D2D802340
:1009F00061E009F460E0812F0E94FA011150000FBC
:100A00001230A1F7809118018823B1F00FB6F89445
:100A1000A8958091600088618093600010926000CA
:100A20000FBE88E198E00FB6F894A8958093600017
:100A30000FBE90936000FFCF809125019091260119
:100A4000A0912701B0912801A5019401281B390B21
:100A50004A0B5B0BDA01C901853F9140A105B10545
:100A600068F18092250190922601A0922701B09210
:100A700028018091210190912201A0912301B09140
:100A80002401881A990AAA0ABB0A41E1841647E29E
:100A90009406A104B10420F01092200110921F01CD
:100AA0008091200181110AC061E080911E018111B5
:100AB00060E060931E018EE00E94FA0182E391E003
:100AC0000E940401009789F41092DB011092DA0170
:100AD000A895E114F10409F44ECF0E941001882377
:100AE00009F449CF0E94000046CF2FB7F8944091F7
:100AF000290150912A0160912B0170912C012FBF87
:100B00002BB1E22FE470BE2E22FDE2CF2091DA015C
:100B10003091DB018217930769F09093DB0180939A
:100B2000DA014093D6015093D7016093D8017093B6
:100B3000D901CECF8091D6019091D701A091D80153
:100B4000B091D901481B590B6A0B7B0B80912D0189
:100B500090E0B0E0A0E0481759076A077B0708F467
:100B6000B7CF1092DB011092DA01A090CF018E0175
:100B700003581F4F4801D12CC12C82E391E00E9401
:100B80000401892B79F082E391E00E94E200F401F4
:100B900081934F01FFEFCF1ADF0A26E2C216D1047C
:100BA00061F796CFC114D10409F492CF3EEF3C0D0A
:100BB000F8018FEF9FEF2E2F201B231788F4219130
:100BC000822728E0AC014170552796958795452BE3
:100BD00021F041E0842740EA9427215099F7EBCF98
:100BE000EBE7F0E0EC0FFD1FEC0DFD1D2081ECE7C5
:100BF000F0E0EC0FFD1FEC0DFD1D308123273227A7
:100C000023279827892798272817390709F060CFC5
:100C1000F8018081A8125CCF8181833039F0863061
:100C200009F46BC091E0803109F078C0F8012481AB
:100C300030E0322F22279581290F311D833011F0AA
:100C4000803111F45EE0B52E2115310509F472C032
:100C5000B216130608F46EC0F801228130E0322F7C
:100C600022279381290F311D4091D4015091D50144
:100C70004217530708F451C0F801C280D12CDC2C74
:100C8000CC249381C90ED11C8093D101863009F404
:100C900093C0803109F459C0833009F019CF058120
:100CA0009091CF0166969FAF669767968FAF6797D3
:100CB000802F880F68968FAF689710E0E091D2017F
:100CC000F091D30130E020E0A801B601CE010196F9
:100CD0000995DE011196FE01EB5AFF4F90E080E08E
:100CE00032968017910740F52C9111963C911197FF
:100CF0001296318322830196F3CFF801228130E0EE
:100D0000322F22279381290F311D4091D401509118
:100D1000D5012417350708F4AFCF92E02091CF0119
:100D2000298380588A839B8363E0CE0101960E94C9
:100D30009301CECE93E0F2CFB801660F771F6D5FBF
:100D40007F4FCE018B5A9F4FF2CFA5809091CF015C
:100D500066969FAF669767968FAF67976896DFAE88
:100D600068976996CFAE69976A961FAE6A976B9639
:100D7000AFAE6B97912C812CB12C0E5F1F4F8A1454
:100D80009B04A8F4F80125818681322F282FB60113
:100D9000680D791DE091D201F091D30141E050E05E
:100DA000CE0101960995FFEF8F1A9F0AE6CFAB2877
:100DB00009F48ECE66E0C5CF248135813227232702
:100DC00032279091CF0166969FAF669767968FAF57
:100DD00067976896DFAE68976996CFAE69976A960F
:100DE0003FAF6A976B962FAF6B97E091D201F0916E
:100DF000D30141E050E0B601CE0101960995DACF6A
:100E0000E2E3F1E01382128288EE93E0A0E0B0E02A
:100E100084839583A683B78384E091E09183808364
:100E200085EC90E09587848784EC90E097878687AF
:100E300080EC90E0918B808B81EC90E0938B828BA7
:100E400082EC90E0958B848B86EC90E0978B868B80
:100E5000118E128E138E148E0895EE0FFF1F0590C3
:0A0E6000F491E02D0994F894FFCFFF
:100E6A00000000004601A600D300DA010401E200F6
:020E7A00F60080
:00000001FF
