:0200000280007C
:10000000280D002025030800210308002103080013
:10001000210308002103080021030800000000005C
:1000200000000000000000000000000021030800A4
:100030002103080000000000210308001107080048
:100040002103080021030800210308002103080000
:1000500021030800210308002103080021030800F0
:10006000210308002103080000000000210308000C
:1000700021030800210308002103080000000000FC
:1000800000000000210308002103080021030800EC
:1000900021030800210308002103080021030800B0
:1000A00021030800000000002103080021030800CC
:1000B0002103080021030800210308002103080090
:1000C0002103080021030800210308002103080080
:1000D0002103080021030800210308002103080070
:1000E0002103080021030800210308002103080060
:1000F0002103080010B5054C237833B9044B13B124
:100100000448AFF300800123237010BD5408002081
:1001100000000000D01B08000C4B43B10C4810B588
:100120000C49AFF300800C48036823B910BD0A489E
:10013000036833B97047094B002BF7D0BDE8104076
:100140001847064B002BF5D0184700BF00000000F1
:10015000D01B080058080020D01B08000000000039
:1001600070B582B0184B984700224FF416511748CB
:10017000174CA04700224FF416511648A047002202
:100180004FF416511448A04700224FF4165113485B
:10019000A04700224FF4E1311148124B9847124812
:1001A000124B9847124D00240094032322464FF42B
:1001B000165128460F4EB0472246032128460E4BC3
:1001C000984702B070BD00BF0D0208009C080020D7
:1001D0003D0E0800A4080020AC080020B408002050
:1001E00008000020650E0800BC0800207D0F0800F4
:1001F00070080020890C0800290C080008B50120AF
:10020000014B984708BD00BFE90D080038B5002133
:100210000220404DA84701210320A84701210520C5
:10022000A84701210620A84701211720A84701213E
:100230000A20A84701213020A84701211820A847FB
:1002400001212820A84701212920A84701212D208C
:10025000A84701213620A84701213D20A8470021B9
:100260003D202D4CA04701213620A0470021182019
:10027000A04701210320A04701210520A04701211B
:100280000620A04701211720A04701210A20A047EE
:1002900001213020A04700212D20A04701212D2041
:1002A000A84701210720A84701210820A8470121CC
:1002B0000920A84700212D20A04700210720A047A2
:1002C00000210820A04700210920A0476420134DE9
:1002D000A84701212D20A0476420A847012107201D
:1002E000A0476420A84701210820A0476420A84710
:1002F00001210920A0476420A84700212D20A04704
:1003000000210720A04700210820A0470021092044
:10031000A04738BDBD0C0800D90C0800E90D080045
:10032000FEE7000008B5114B114A9A4209D00F4B65
:100330000F4A03E011681960043304320D498B42FF
:10034000F8D30D4B02E000221A6004330B4A9342AB
:10035000F9D30B4B23F0604323F07F03094A9360EA
:10036000094B9847094B9847FEE700BF0000002063
:10037000D01B080054080020540800202809002041
:100380000000080000ED00E029100800A10C0800A2
:100390003E4B1B6B03F00303032B3FD8DFE803F056
:1003A00002112D2D3A4B5B6913F0800F04D04FF4EE
:1003B0000042384B1A6031E04FF4FA42354B1A6074
:1003C0002CE0324B1B6A13F0807F03D0324A314B52
:1003D0001A6023E0314A2F4B1A602C4B1B6A03F042
:1003E0007003102B05D0202B18D12B4A294B1A60F3
:1003F00014E02B4A274B1A6010E0244B1B6A13F0C1
:10040000807F1AD0244A234B1A60204B1B6B03F0C9
:100410000303022B24D0234A1E4B1A601B4B1B6B79
:1004200003F07003702B29D0184B1A6BC2F3021221
:1004300018490B68D3400B607047184A154B1A6077
:10044000124B1B6A03F07003102B05D0202BDCD15C
:10045000114A104B1A60D8E7114A0E4B1A60D4E7C4
:100460000A48826AC2F30A420A490B6802FB033354
:10047000826AD2B2B3FBF2F30B60CFE7054A13688E
:100480000949A1FB03135B081360704700060E4087
:10049000101A0E4004000020001BB70000093D00A8
:1004A00000127A00001C4E0EABAAAAAA00230F2B42
:1004B00009D81A0105498A58824201D00133F6E76A
:1004C00001EB031070470020704700BFA41908001B
:1004D0001F2807D92038012303FA00F0044BC3F882
:1004E00000017047012303FA00F0014B18617047C7
:1004F00000060E4038B50D46114B984798B104469A
:10050000C068104B98476368A2681A606368A26865
:100510005A64012D08D06368A2685A61022D0AD07E
:100520006368A2681A6638BD6368A2681A66636861
:10053000A2681A6138BD6368A2685A6638BD00BFF8
:10054000AD040800D104080038B50D46074B9847A4
:1005500038B10446C068064B98471DB96368A26865
:100560005A6338BD6368A2681A6338BDAD040800D9
:10057000D10408001F2807D92038012303FA00F00E
:10058000044BC3F800017047012303FA00F0014B4C
:100590001861704700060E4070B504460D461E46B1
:1005A0001046074B9847656425662EB9236F23EAEA
:1005B00005032367656070BD236F2B432367F9E74D
:1005C00075050800034600B9064B074A1068184431
:1005D0000138B0FBF3F000B90120FF2800D9FF205B
:1005E000704700BF00093D0004000020022809D028
:1005F000032805D0012801D0022070470020704751
:100600000120704703207047084B1B6913F0010F4E
:100610000AD082B0054B9B680193019B034B1B6979
:1006200013F0010FF6D102B0704700BF0080004008
:1006300038B505460068054B9847000284B26879D2
:10064000034B98472043034B186338BDC50508008A
:10065000ED0508000080004030B583B0174B984787
:100660001820174B9847174D00230B224FF00071AD
:100670002846154CA04700230B224FF080612846E6
:10068000A04700230B224FF000612846A0470F4CE3
:100690008023236023600E4B63600E4B0093002386
:1006A0008DF804308DF8053068460B4B98470B4B9E
:1006B00098470123236003B030BD00BF91030800B9
:1006C00075050800000E0E409905080000800040E6
:1006D00011000E0000093D0031060800090608005F
:1006E0000A4B1B6913F0020F01D100BFF8E740F479
:1006F0006020064BD860054B1B6913F0010F01D138
:1007000000BFF8E7014B9868C0B270470080004016
:10071000024A136801331360704700BF7408002059
:1007200008B5114B9847114B1B68114AA2FB0323D4
:100730009B0913D0013BB3F1807F0AD20D4A53606D
:10074000F0210D4B83F823100023936007211160E3
:1007500000E0012323B92BB100BFFDE70123FAE735
:100760000123F8E708BD00BF910308000400002042
:10077000D34D621010E000E000ED00E0014B18687E
:10078000704700BF7408002038B50546054B9847F0
:100790000446044B9847001BA84201D200BFF8E76B
:1007A00038BD00BF7D070800032805D800EB4000D6
:1007B000030102481844704700207047A41A08003B
:1007C0001F2807D92038012303FA00F0044BC3F88F
:1007D00000017047012303FA00F0014B18617047D4
:1007E00000060E4010B5044680680D4B98472368FC
:1007F00062685A64236862681A66237B4BB9226870
:10080000136F616823EA01031367236862685A6003
:1008100010BD2268136F61680B431367F5E700BFD3
:10082000C1070800012804D0022805D04FF4006059
:1008300070474FF40070704700207047012804D0C3
:10084000022805D04FF4006070474FF400707047E5
:1008500000207047034640B1054A10681B01B0FBF9
:10086000F3F008B90120704770470120704700BFBE
:1008700004000020F8B50F461646194B9847F8B10A
:1008800004461030174DA84704F12000A847E0683F
:10089000154B98473846154B98470546237883B142
:1008A000A4684FF4D67323604FF0FF33E360304603
:1008B0000F4B984740F0C0006060256250232360D2
:1008C000F8BD6468AC2323604FF0FF33E36030462B
:1008D000084B98476060256250232360F8BD00BF35
:1008E000A9070800E5070800C10708005508080027
:1008F0003D0808002508080010B50C460B4B98472A
:1009000098B10346027842B95A68516911F0020F52
:1009100001D100BFF8E7D46110BD9A68516911F0A8
:10092000020F01D100BFF8E7D46110BDA90708008C
:10093000012800D0704708B54FF6FF73994200D0E8
:1009400008BD0248024B9847FAE700BF780800202C
:100950006909080008B54FF6FF710120014B98475F
:1009600008BD00BF3109080000220260704710B4C2
:100970000170427083709DF80430C37010BC7047E2
:10098000012800D070474FF6FF739942FAD110B595
:1009900082B0002100910B460A460248024CA04753
:1009A00002B010BD940800206F09080008B54FF68A
:1009B000FF710120014B984708BD00BF8109080065
:1009C0000A23037070470000012800D0704708B563
:1009D0004FF6FF73994200D008BD0248024B98477A
:1009E000FAE700BF98080020C109080008B54FF6D3
:1009F000FF710120014B984708BD00BFC9090800DD
:100A0000C0B27047C0F307207047034608B94FF4DF
:100A100016531B014FF46100B0FBF3F0704749001F
:100A2000C9B208437047000008B508460121014BD0
:100A3000984708BDD90C080008B508460021014BAD
:100A4000984708BDD90C08002DE9F04182B0054651
:100A50000F4690461E4600231A4611496846114C1F
:100A6000A047114C69462046104B9847314628460E
:100A70000F4B98479DF8201038460E4B984701467B
:100A800020460D4FB84741462046B84731462846D4
:100A90000A4B984720460A4B984702B0BDE8F081C0
:100AA00000093D00A10E0800BC080020990F0800B5
:100AB000390A08001F0A0800D10E0800290A080098
:100AC000CD0E08002DE9F04182B0054616461F46BE
:100AD00008460F4B984780460097334680221821DE
:100AE00028460C4CA04740460B4B9847009733468E
:100AF000024600212846A0474046084B98470097E9
:100B00003346024608212846A04702B0BDE8F081DE
:100B10000B0A0800490A0800010A0800050A080033
:100B20002DE9F04182B0064617461C469DF820503C
:100B30002B462246DFF86880C047012F1ED0022FC7
:100B400024D000952346032218213046134FB8477E
:100B500000952346312278213046104FB847009542
:100B60002346062210213046B8470095234601222D
:100B700010213046B84702B0BDE8F0810095234609
:100B80000B2218213046054FB847E1E70095234670
:100B90001B2218213046014FB847D9E7490A0800FF
:100BA000C50A08002DE9F04182B005460F461646F9
:100BB000984600231A4613496846134CA047134C25
:100BC00069462046124B984731462846114B9847B4
:100BD00041463846104B984760F07F01C9B2204625
:100BE0000E4FB847FF212046B847074631462846F2
:100BF0000B4B984720460B4B9847384602B0BDE850
:100C0000F08100BF00093D00A10E0800BC080020D3
:100C1000990F0800390A08001F0A0800D10E0800C1
:100C2000290A0800CD0E0800F0B583B006460C4630
:100C3000154600920B4655223821074FB8472B46E0
:100C4000224638213046054CA047552814BF0020C5
:100C5000012003B0F0BD00BF490A0800A50B080041
:100C6000F0B583B005461E469DF820400094044F21
:100C7000B847224631462846024B984703B0F0BD9C
:100C8000210B0800290C080010B582B09DF8104017
:100C90000094024CA04702B010BD00BF610C0800D8
:100CA00008B5034B9847034B9847034B9847FCE71D
:100CB0002107080061010800FD01080008B50129AD
:100CC00005D0022900D00021024B984708BD012120
:100CD000FAE700BFF504080008B5014B984708BDC6
:100CE0004905080070477047012800D070472DE97A
:100CF000F8434FF6FF73994201D0BDE8F883164CD4
:100D000000212046154FB847154EDFF86480324663
:100D100041462046134DA84704F1080901214846E1
:100D2000B847324641464846A84704F11009022117
:100D30004846B847324641464846A847183403213A
:100D40002046B847324641462046A8473246064923
:100D50000648A847D1E700BF9C080020190E0800EC
:100D600000000020FD0F0800E70C0800080000202C
:100D7000E50C080010B504460821024B98472046B0
:100D800010BD00BF0910080010B504460821024B31
:100D90009847204610BD00BF0910080008B54FF65F
:100DA000FF710120014B984708BD00BFE90C080006
:100DB000012800D0704708B54FF6FF73994200D064
:100DC00008BD0248024B9847FAE700BFBC08002064
:100DD000B90E080008B54FF6FF710120014B984786
:100DE00008BD00BFB10D080008B5014B984708BD0C
:100DF0008907080003790BB1012070470020704774
:100E000008B543790BB9002008BD0079014B98471C
:100E1000012008BDF9080800024A026001710022A1
:100E2000427170476C1B0800012905D0022901D0CE
:100E300000207047022070470120704770B50446BB
:100E40000E4605791146054B98470246314628461D
:100E5000034B98470123637170BD00BF290E080042
:100E600075080800012303717047030943EA001065
:100E7000C0B2830803F03303800000F0CC000343CA
:100E8000580800F055005B0003F0AA0318437047B0
:100E9000024A0260002202714271704700093D005F
:100EA00010B401600271437110BC70470068704754
:100EB000007970474079704710B50446024B984757
:100EC00000232372204610BD910E080070470000D9
:100ED0000346007A88B110B50C461846074B984770
:100EE000012803D02046064B984710BD2046054CEC
:100EF000A047034B9847A04710BD7047B10E0800AC
:100F0000E10608006B0E0800022909D0032905D06C
:100F1000012901D00020704701207047032070474D
:100F20000220704770B504460E4615461046074B22
:100F300098472060002323712846054B98470146B7
:100F40003046044B98476071204670BDAD0E0800D6
:100F5000B50E0800090F080000B583B0014602462F
:100F60006846044B98476846034B984703B05DF8C2
:100F700004FB00BF250F08003106080010B5044629
:100F8000034B98472046034B98470123237210BD1B
:100F900059060800590F080008B50B6803608B88D4
:100FA0008380037A03B908BD014B9847FBE700BF74
:100FB000590F08006846704738B50C4B1B6853B191
:100FC0000A4B1D682C180A4B9847844207D2074BDE
:100FD0001C60284638BD074A044B1A60F0E7064BF0
:100FE00098470C2303604FF0FF3038BDC80800203D
:100FF000B50F0800280F00201D1008000B46014601
:10100000184600F005B800BF00F000B800F03CB88A
:1010100013460A460146022000F0FEBA014B18684A
:10102000704700BF1000002070B50F4E0F4D761BAB
:10103000B61018BF002405D0013455F8043B98477A
:10104000A642F9D10A4E0B4D00F0A2FD761BB61058
:1010500018BF002406D0013455F8043B9847A64237
:10106000F9D170BD70BD00BF9C1B08009C1B08001F
:10107000B81B08009C1B0800024B0146186800F0D2
:101080000BB800BF10000020024B0146186800F0AA
:101090009FBB00BF100000202DE9F04F01F10B06AF
:1010A000162E83B0054640F29E8036F0070600F10A
:1010B000BD80B14200F2BA8000F090FAB6F5FC7F34
:1010C000C0F08582730A00F0B880042B00F26C81B6
:1010D000B30903F1390003F1380EC100B84F3944A8
:1010E0004C680839A14206D10CE0002A80F2AB809E
:1010F000E468A14206D0636823F003039A1B0F2A19
:10110000F3DD70463C69DFF8CCE2744500F09E8167
:10111000636823F003039A1B0F2A00F38381002ADC
:10112000C7F814E0C7F810E080F29180B3F5007FB3
:1011300080F054810122DB0879684FEAA30C134444
:1011400057F8338002FA0CF207EBC30C0A43ACF1F8
:101150000801E160C4F808807A6047F83340C8F8B5
:101160000C40012483109C4094427DD8144206D147
:1011700020F003006400144200F10400FAD007EBF1
:10118000C009CC468046DCF80C309C4507D15FE1B5
:10119000002A80F26D81DB689C4500F05981596816
:1011A00021F003018A1B0F2AF2DDDC68D3F808C0A6
:1011B00046F0010828461E4442F00105C3F80480A9
:1011C000CCF80C40C4F808C07E613E61C6F80CE063
:1011D000C6F808E075605A50009300F005FA009BCD
:1011E00003F108041EE0102920D800F0F7F91026BA
:1011F00018230220724F3B445C68A3F1080294421A
:1012000000F02F816368E16823F0030323445A68E8
:10121000A66842F00102F16028468E605A6000F034
:10122000E3F90834204603B0BDE8F08F00240C2316
:1012300020462B6003B0BDE8F08F40204FF40071D2
:101240004FF03F0E4AE723445A68E168E0E7234441
:101250005A68284642F001025A60083400F0C4F986
:10126000204603B0BDE8F08FBC68636823F0030834
:10127000B04504D3A8EB06030F2B00F38580DFF8FD
:101280005891504BD9F800201B680132334404EBCD
:10129000080A00F0548103F580530F3323F47F6B69
:1012A0002BF00F0B5946284600F0A4F9411C0246CA
:1012B00000F0FB80824500F2F680434B19685944E8
:1012C000196000F04C81D9F8000001301BBFA2EB7F
:1012D0000A0A5144C9F80020196012F0070100F011
:1012E0001481C1F10800C1F580510244083102EBBC
:1012F0000B09C9F30B09A1EB0909494628460193DB
:10130000009200F077F9431C9DE80C0000F0428148
:10131000801A484440F001001968BC424944BA6050
:101320001960506017D0B8F10F0F40F2FA804FF0FB
:10133000050C6268A8F10C0020F0070002F0010221
:1013400004EB000E02430F286260CEF804C0CEF812
:1013500008C000F216811D4BBC681A68914288BF14
:1013600019601B4B1A689142626888BF196022F0AD
:1013700003029642A2EB060301D80F2B04DC284699
:1013800000F032F900244DE746F0010243F001037A
:10139000264462602846BE600834736000F024F979
:1013A000204603B0BDE8F08F142B70D9542B00F207
:1013B000A280330B03F16F0003F16E0EC1008DE6C6
:1013C00040040020FC080020CC080020F408002085
:1013D000F808002048040020480800205A0A042A7F
:1013E0005BD9142A00F2AE8002F15C01C9005B32C5
:1013F00007EB010C7958ACF1080C8C4500F08880A3
:101400004A6822F00302934273D289688C45F7D16F
:10141000DCF80C307A68E360C4F808C09C60CCF853
:101420000C409EE646F0010C42F001012644C4F84F
:1014300004C028467E613E61C6F80CE0C6F808E0AC
:101440007160E25000F0D0F80834EBE67A6888E684
:1014500008F1010818F0030F0CF1080C7FF493AEAB
:101460002DE0DC68A34208BF02303FF44BAEC9E672
:101470001C4619444A68DB6854F8086F42F00102C0
:101480004A602846F3609E6000F0AEF8CAE603F1B9
:101490005C0003F15B0EC10020E69A0902F13901FC
:1014A000C9003832A4E7BC4254D0BC68626822F05C
:1014B00003025EE759F80839994540F0868010F03C
:1014C000030F00F1FF30F5D17B6823EA04037B6052
:1014D00064009C423FF6C8AE002C3FF4C5AE1C42EF
:1014E00040467FF44CAE64001C4200F10400FAD088
:1014F00045E68C468CE7B3F5AA7F15D8F30B03F1CC
:10150000780003F1770EC100E8E54FF48051EEE674
:1015100001217B68921001FA02F21A437A60634655
:1015200079E7012353602AE740F25452934222D8CC
:10153000B30C03F17D0003F17C0EC100CEE503F195
:10154000100BAFE6542A29D81A0B02F16F01C9001B
:101550006E324DE7204B196859441960B3E6CAF35F
:101560000B0000287FF4AFAE08EB0B03BA6843F022
:1015700001035360EFE67F204FF47E714FF07E0E43
:10158000ACE504F108012846009300F021F9009B26
:101590001968E0E601204FF00009BDE6B2F5AA7F28
:1015A00005D8DA0B02F17801C900773220E740F262
:1015B00054518A4205D89A0C02F17D01C9007C324F
:1015C00016E74FF47E717E2212E77B6880E7F00811
:1015D00006F108030EE600BFCC080020014800F029
:1015E000DDB900BF10090020014800F0D9B900BFE3
:1015F0001009002038B50023064C05460846236034
:10160000FFF7DAFC431C00D038BD2368002BFBD069
:101610002B6038BD240900202DE9F8432C4D0646E7
:10162000286898460F46914600F0B8F9294B1C6887
:10163000D4F84831002B3ED05A681F2A1CDC02F136
:10164000010E76B1012103EB8204C4F88890D3F82F
:10165000880191400843022EC3F88801C4F808812C
:1016600023D00232C3F804E0286843F8227000F067
:1016700097F90020BDE8F883174B0BB34FF4C870FF
:10168000FFF7FAFC0346D8B10020D4F848114FF018
:10169000010E586019600246C4F84831C3F8880149
:1016A000C3F88C01002EDCD0CCE7D3F88C010143C9
:1016B000C3F88C11D5E704F5A673C4F84831BBE72D
:1016C000286800F06DF94FF0FF30BDE8F88300BFE7
:1016D000500800208C1B080079100800024B13B141
:1016E000024800F005B8704700000000FD16080031
:1016F000002301461A461846FFF78EBF38B50A4C3C
:101700000A4D641BA4100AD004F18043013B05EB91
:101710008305013C55F804399847002CF9D1BDE800
:10172000384000F049BA00BFC81B0800C41B0800BD
:10173000F8B50C46234F0646FFF750FFBB68C4F5CB
:101740007E615D680F3125F00305294421F47F6136
:1017500021F00F01A1F58054B4F5805F07DB002173
:101760003046FFF747FFBB682B44984204D0304611
:10177000FFF73AFF0020F8BD61423046FFF73AFF1D
:1017800001300DD0104BBA6819682D1B45F00105CA
:101790003046091B55601960FFF726FF0120F8BD90
:1017A00000213046FFF726FFBA68831A0F2BDEDDD3
:1017B000064C0549246843F00103001B5360086090
:1017C000D5E700BF40040020CC08002048080020D6
:1017D000002944D02DE9F0410D468046FFF7FEFE7A
:1017E00055F8047C6949A5F1080427F00103E218C3
:1017F0008E685068B24220F003005ED0FE07506051
:101800000BD455F8087C01F1080EE41BA5683B4495
:1018100075456DD0E768EF60BD6015186D68ED0720
:101820003ED543F001026260E350B3F5007F17D26A
:101830000122DB0898104D68134451F83370824040
:1018400001EBC3002A430838E060A7604A6041F812
:101850003340FC604046BDE8F041FFF7C5BE70472D
:101860005A0A042A52D89A0902F13907FF0002F1F4
:101870003805C819CA59083890424FD0516821F02C
:1018800003018B4232D292689042F7D1C368A060C4
:10189000E3609C60C4604046BDE8F041FFF7A4BE31
:1018A00095683B4F0344BD4240D0D06843F00102ED
:1018B000E86085606260E350B7E7FF07034407D440
:1018C00055F8085C641BE268A0682B44C260906015
:1018D000304A43F001001268606093428C60B9D3D3
:1018E0002D4B40461968FFF723FFB3E71046CDE7BD
:1018F00011184968C90744D491680344D26843F079
:101900000100CA6091606060E350A3E7142A16D812
:1019100002F15C07FF0002F15B05AAE70123AA10B0
:101920004D6893402B434B600346B0E743F0010200
:101930004C610C61E560A5606260E3508AE7542A5F
:1019400006D81A0B02F16F07FF0002F16E0590E74F
:10195000B2F5AA7F06D8DA0B02F17807FF0002F190
:10196000770586E740F25450824206D89A0C02F17D
:101970007D07FF0002F17C057BE74FF47E777E2533
:1019800077E743F001016160136063E740040020E2
:10199000480400204C080020FC080020704700BFCD
:1019A000704700BF0200000000100E40000000025F
:1019B0000C0000000300000000120E4000000010A8
:1019C0000D0000000500000000120E4000000002A3
:1019D0000D0000000600000000120E400000000193
:1019E0000D0000000700000000120E400000800003
:1019F0000D0000000800000000120E400000400032
:101A00000D0000000900000000120E400000200040
:101A10000D0000000A00000000120E40000000202F
:101A20000D00000017000000000E0E4000400000F6
:101A30000B00000018000000000E0E4000800000A7
:101A40000B0000002800000000120E400001000002
:101A50000D0000002900000000120E4000020000EE
:101A60000D0000002D00000000120E4000000400D8
:101A70000D0000003000000000120E400080000049
:101A80000D00000036000000000E0E4000000100B6
:101A90000B0000003D000000000E0E40040000009E
:101AA0000B0000000000000000080E4000000000D5
:101AB00008000000000E0E40000100000B000000B6
:101AC00000000000000E0E40000200000B000000AD
:101AD000000000000100000000000000008009403C
:101AE00011000000000E0E40000400000B0000007A
:101AF00000000000000E0E40000800000B00000077
:101B000000000000010000000000000000C00940CB
:101B100012000000000E0E40001000000B0000003C
:101B200000000000000E0E40002000000B0000002E
:101B300000000000010000000000000000400A401A
:101B40001400000000140E40200000000E000000F1
:101B50000100000000140E40100000000E00000004
:101B6000010000000000000000000000E50C08007B
:101B7000750D0800010E08000000000000000000C4
:101B8000E70C0800890D0800F50D0800180000207A
:101B9000F8B500BFF8BC08BC9E467047DD160800CB
:101BA0001901080055090800AD090800ED090800F1
:101BB0009D0D0800D50D0800F8B500BFF8BC08BCA5
:081BC0009E467047F500080085
:081BC80034F4FF7F010000006E
:101BD0000000000000093D00801B0800000000001C
:101BE0001800002000000000000000000403002096
:101BF0006C030020D403002000000000000000005F
:101C000000000000000000000000000000000000D4
:101C100000000000000000000000000000000000C4
:101C200000000000000000000000000000000000B4
:101C300000000000000000000000000000000000A4
:101C40000000000000000000000000000000000094
:101C50000000000000000000000000000000000084
:101C60000000000000000000000000000000000074
:101C70000000000000000000000000000000000064
:101C80000000000000000000000000000000000054
:101C900001000000000000000E33CDAB34126DE6F1
:101CA000ECDE05000B00000000000000000000005A
:101CB0000000000000000000000000000000000024
:101CC0000000000000000000000000000000000014
:101CD0000000000000000000000000000000000004
:101CE00000000000000000000000000000000000F4
:1020100000000000000000004004002040040020F8
:1020200048040020480400205004002050040020F0
:1020300058040020580400206004002060040020A0
:102040006804002068040020700400207004002050
:102050007804002078040020800400208004002000
:1020600088040020880400209004002090040020B0
:102070009804002098040020A0040020A004002060
:10208000A8040020A8040020B0040020B004002010
:10209000B8040020B8040020C0040020C0040020C0
:1020A000C8040020C8040020D0040020D004002070
:1020B000D8040020D8040020E0040020E004002020
:1020C000E8040020E8040020F0040020F0040020D0
:1020D000F8040020F804002000050020000500207E
:1020E000080500200805002010050020100500202C
:1020F00018050020180500202005002020050020DC
:10210000280500202805002030050020300500208B
:10211000380500203805002040050020400500203B
:1021200048050020480500205005002050050020EB
:10213000580500205805002060050020600500209B
:10214000680500206805002070050020700500204B
:1021500078050020780500208005002080050020FB
:1021600088050020880500209005002090050020AB
:102170009805002098050020A0050020A00500205B
:10218000A8050020A8050020B0050020B00500200B
:10219000B8050020B8050020C0050020C0050020BB
:1021A000C8050020C8050020D0050020D00500206B
:1021B000D8050020D8050020E0050020E00500201B
:1021C000E8050020E8050020F0050020F0050020CB
:1021D000F8050020F8050020000600200006002079
:1021E0000806002008060020100600201006002027
:1021F00018060020180600202006002020060020D7
:102200002806002028060020300600203006002086
:102210003806002038060020400600204006002036
:1022200048060020480600205006002050060020E6
:102230005806002058060020600600206006002096
:102240006806002068060020700600207006002046
:1022500078060020780600208006002080060020F6
:1022600088060020880600209006002090060020A6
:102270009806002098060020A0060020A006002056
:10228000A8060020A8060020B0060020B006002006
:10229000B8060020B8060020C0060020C0060020B6
:1022A000C8060020C8060020D0060020D006002066
:1022B000D8060020D8060020E0060020E006002016
:1022C000E8060020E8060020F0060020F0060020C6
:1022D000F8060020F8060020000700200007002074
:1022E0000807002008070020100700201007002022
:1022F00018070020180700202007002020070020D2
:102300002807002028070020300700203007002081
:102310003807002038070020400700204007002031
:1023200048070020480700205007002050070020E1
:102330005807002058070020600700206007002091
:102340006807002068070020700700207007002041
:1023500078070020780700208007002080070020F1
:1023600088070020880700209007002090070020A1
:102370009807002098070020A0070020A007002051
:10238000A8070020A8070020B0070020B007002001
:10239000B8070020B8070020C0070020C0070020B1
:1023A000C8070020C8070020D0070020D007002061
:1023B000D8070020D8070020E0070020E007002011
:1023C000E8070020E8070020F0070020F0070020C1
:1023D000F8070020F807002000080020000800206F
:1023E000080800200808002010080020100800201D
:1023F00018080020180800202008002020080020CD
:10240000280800202808002030080020300800207C
:102410003808002038080020FFFFFFFF00000200FE
:04242000000900208F
:040000038000000079
:00000001FF
