:0200000280007C
:10000000A00F0020F5020800F1020800F10208002C
:10001000F1020800F1020800F102080000000000EF
:10002000000000000000000000000000F1020800D5
:10003000F102080000000000F102080001070800BA
:10004000F1020800F1020800F1020800F1020800C4
:10005000F1020800F1020800F1020800F1020800B4
:10006000F1020800F102080000000000F10208009F
:10007000F1020800F1020800F1020800000000008F
:1000800000000000F1020800F1020800F10208007F
:10009000F1020800F1020800F1020800F102080074
:1000A000F102080000000000F1020800F10208005F
:1000B000F1020800F1020800F1020800F102080054
:1000C000F1020800F1020800F1020800F102080044
:1000D000F1020800F1020800F1020800F102080034
:1000E00009120800F1020800F1020800F1020800FC
:1000F000F102080010B5054C237833B9044B13B155
:100100000448AFF300800123237010BD9408002041
:1001100000000000902408000C4B43B10C4810B5BF
:100120000C49AFF300800C48036823B910BD0A489E
:10013000036833B97047094B002BF7D0BDE8104076
:100140001847064B002BF5D0184700BF00000000F1
:100150009024080098080020902408000000000067
:1001600010B5104B984700224FF416510E480F4C13
:10017000A04700224FF416510D48A04700224FF42B
:1001800016510C48A04700224FF416510A48A047C8
:1001900000224FF4E1310948094B984709480A4BBE
:1001A000984710BDDD010800140B002091150800D0
:1001B0001C0B0020240B00202C0B00204C000020E6
:1001C000BD160800340B00205916080008B50120A0
:1001D000014B984708BD00BFED14080038B5002159
:1001E0000220404DA84701210320A84701210520F6
:1001F000A84701210620A84701211720A84701216F
:100200000A20A84701213020A84701211820A8472B
:1002100001212820A84701212920A84701212D20BC
:10022000A84701213620A84701213D20A8470021E9
:100230003D202D4CA04701213620A0470021182049
:10024000A04701210320A04701210520A04701214B
:100250000620A04701211720A04701210A20A0471E
:1002600001213020A04700212D20A04701212D2071
:10027000A84701210720A84701210820A8470121FC
:100280000920A84700212D20A04700210720A047D2
:1002900000210820A04700210920A0476420134D19
:1002A000A84701212D20A0476420A847012107204D
:1002B000A0476420A84701210820A0476420A84740
:1002C00001210920A0476420A84700212D20A04734
:1002D00000210720A04700210820A0470021092075
:1002E000A04738BDE513080001140800ED1408000C
:1002F000FEE7000008B5114B114A9A4209D00F4B96
:100300000F4A03E011681960043304320D498B422F
:10031000F8D30D4B02E000221A6004330B4A9342DB
:10032000F9D30B4B23F0604323F07F03094A93601A
:10033000094B9847094B9847FEE700BF0000002093
:10034000902408009408002094080020A00B0020AE
:100350000000080000ED00E021170800C9130800A4
:100360003E4B1B6B03F00303032B3FD8DFE803F086
:1003700002112D2D3A4B5B6913F0800F04D04FF41E
:100380000042384B1A6031E04FF4FA42354B1A60A4
:100390002CE0324B1B6A13F0807F03D0324A314B82
:1003A0001A6023E0314A2F4B1A602C4B1B6A03F072
:1003B0007003102B05D0202B18D12B4A294B1A6023
:1003C00014E02B4A274B1A6010E0244B1B6A13F0F1
:1003D000807F1AD0244A234B1A60204B1B6B03F0FA
:1003E0000303022B24D0234A1E4B1A601B4B1B6BAA
:1003F00003F07003702B29D0184B1A6BC2F3021252
:1004000018490B68D3400B607047184A154B1A60A7
:10041000124B1B6A03F07003102B05D0202BDCD18C
:10042000114A104B1A60D8E7114A0E4B1A60D4E7F4
:100430000A48826AC2F30A420A490B6802FB033384
:10044000826AD2B2B3FBF2F30B60CFE7054A1368BE
:100450000949A1FB03135B081360704700060E40B7
:10046000101A0E4038000020001BB70000093D00A4
:1004700000127A00001C4E0EABAAAAAA00230F2B72
:1004800009D81A0105498A58824201D00133F6E79A
:1004900001EB031070470020704700BF882108005F
:1004A0001F2807D92038012303FA00F0044BC3F8B2
:1004B00000017047012303FA00F0014B18617047F7
:1004C00000060E4038B50D46114B984798B10446CA
:1004D000C068104B98476368A2681A606368A26896
:1004E0005A64012D08D06368A2685A61022D0AD0AF
:1004F0006368A2681A6638BD6368A2681A66636892
:10050000A2681A6138BD6368A2685A6638BD00BF28
:100510007D040800A104080038B50D46074B984734
:1005200038B10446C068064B98471DB96368A26895
:100530005A6338BD6368A2681A6338BD7D04080039
:10054000A1040800034600B90123014A1360704763
:100550003C0000204FF0FF32014B1A60704700BF93
:100560003C00002008B5094B1B68002B0ADB074B39
:100570001B68002B03DD054A1368013B1360034B26
:100580001B6803B108BD024B984700BF3C00002028
:10059000010000201F2807D92038012303FA00F0AA
:1005A000044BC3F800017047012303FA00F0014B2C
:1005B0001861704700060E4070B504460D461E4691
:1005C0001046074B9847656425662EB9236F23EACA
:1005D00005032367656070BD236F2B432367F9E72D
:1005E00095050800034600B9064B074A10681844F1
:1005F0000138B0FBF3F000B90120FF2800D9FF203B
:10060000704700BF00093D0038000020022809D0D3
:10061000032805D0012801D0022070470020704730
:100620000120704703207047084B1B6913F0010F2E
:100630000AD082B0054B9B680193019B034B1B6959
:1006400013F0010FF6D102B0704700BF00800040E8
:1006500038B505460068054B9847000284B26879B2
:10066000034B98472043034B186338BDE50508004A
:100670000D0608000080004030B583B0174B984746
:100680001820174B9847174D00230B224FF000718D
:100690002846154CA04700230B224FF080612846C6
:1006A000A04700230B224FF000612846A0470F4CC3
:1006B0008023236023600E4B63600E4B0093002366
:1006C0008DF804308DF8053068460B4B98470B4B7E
:1006D00098470123236003B030BD00BF61030800C9
:1006E00095050800000E0E40B90508000080004086
:1006F00011000E0000093D005106080029060800FF
:1007000008B5034A136801331360024B984708BDCC
:10071000B00800206505080008B5114B9847114B3B
:100720001B68114AA2FB03239B0913D0013BB3F1C1
:10073000807F0AD20D4A5360F0210D4B83F82310BD
:10074000002393600721116000E0012323B92BB13E
:1007500000BFFDE70123FAE70123F8E708BD00BF6A
:100760006103080038000020D34D621010E000E063
:1007700000ED00E0014B1868704700BFB008002092
:1007800038B50546054B98470446044B9847001B6F
:10079000A84201D200BFF8E738BD00BF75070800C6
:1007A000032805D800EB40000301024818447047B5
:1007B00000207047882208001F2807D9203801230D
:1007C00003FA00F0044BC3F800017047012303FA59
:1007D00000F0014B1861704700060E4010B504464A
:1007E00080680D4B9847236862685A642368626882
:1007F0001A66237B4BB92268136F616823EA0103F1
:100800001367236862685A6010BD2268136F6168BD
:100810000B431367F5E700BFB9070800012804D0B0
:10082000022805D04FF4006070474FF40070704705
:1008300000207047012804D0022805D04FF4006042
:1008400070474FF40070704700207047034640B176
:10085000054A10681B01B0FBF3F008B9012070478E
:1008600070470120704700BF38000020F8B50F46E0
:100870001646194B9847F8B104461030174DA84753
:1008800004F12000A847E068154B98473846154BFF
:1008900098470546237883B1A4684FF4D673236044
:1008A0004FF0FF33E36030460F4B984740F0C000F5
:1008B0006060256250232360F8BD6468AC23236028
:1008C0004FF0FF33E3603046084B98476060256285
:1008D00050232360F8BD00BFA1070800DD07080012
:1008E000B90708004D080800350808001D08080071
:1008F00010B50C460B4B984798B10346027842B9A5
:100900005A68516911F0020F01D100BFF8E7D461B4
:1009100010BD9A68516911F0020F01D100BFF8E7CC
:10092000D46110BDA107080010B14FF400707047EA
:10093000402070470023084A934205D802680A42C3
:1009400007D100BF0133F6E70122044B1A600020F3
:1009500070470120704700BF9F860100B408002047
:100960001F2807D92038012303FA00F0044BC3F8ED
:1009700000017047012303FA00F0014B1861704732
:1009800000060E4008B52820074B98474FF4441244
:10099000064BDA61054B9B6E13F0400FFAD0012233
:1009A000024B9A6308BD00BF6109080000060E40B3
:1009B000064BD3F8002842F00072C3F80028D3F8A1
:1009C000002822F08072C3F80028704700C00A4057
:1009D00008B50C4BD3F8002842F48052C3F8002825
:1009E000D3F8002842F40042C3F80028D3F80028C6
:1009F00022F48042C3F800284FF480410248034BA0
:100A0000984708BD00C00A4004C80A4035090800DC
:100A10004C30034B53F82000C0F30A50704700BF1E
:100A200000C00A40084B00F15802022143F822108E
:100A300000F188024FF4804143F82210034B03EB8E
:100A4000800000234360704700C00A40B4080020C3
:100A5000084B00F15802012143F8221000F18802EE
:100A60004FF4804143F82210034B03EB8000002336
:100A70004361704700C00A40B408002000F5804080
:100A80003030C0037047000010B50446054B98474E
:100A9000054B03EB84035A68805C5A6801325A6044
:100AA00010BD00BF7D0A0800B408002070B50546DF
:100AB0000E4614460A4B98470023A34208D2094A1F
:100AC00002EB850252681A44825CF2540133F4E767
:100AD000044B03EB85056B681C446C6070BD00BF64
:100AE0007D0A0800B408002038B505460C46054BC1
:100AF0009847054B03EB85035A6984545A690132C0
:100B00005A6138BD7D0A0800B40800202DE9F84379
:100B100004460F469046284B984706462046274BEA
:100B20009847814600251EE0254B03EB84030022F5
:100B30005A6181452CD248462AE0184628E0204BCD
:100B400003EB84035A6902445A6105444CB91C4BB7
:100B500003EB84035B69994501D0002302E0012384
:100B600000E001230BBB454523D20121154800EBD2
:100B70008400154B9847E0B1A8EB0500002CD3D1B9
:100B80000F4B03EB84035B69A9EB03039842D4D8B2
:100B900000239842D3D90A4A02EB840252691A44CC
:100BA000E918795CB1540133F3E72046074B9847C5
:100BB000D9E72846BDE8F8837D0A0800290908001E
:100BC000B408002030C10A4035090800510A080065
:100BD00008B50020014B984708BD00BF510A080026
:100BE0000222034BC3F860210022024B5A60704777
:100BF00000C00A40B40800200422034BC3F860215F
:100C00000022024B5A60704700C00A40B40800201E
:100C10004FF40022014BC3F8F021704700C00A4096
:100C2000024BD3F8300100F00400704700C00A40C6
:100C300038B505460C4602210748084B984708B9C5
:100C4000002038BD224629460020054B9847054B19
:100C50009847204638BD00BF30C10A40350908001A
:100C6000AD0A0800E10B080008B50A46014600205D
:100C7000014B984708BD00BF0D0B080018B330B5F5
:100C800091B00446012920D90222207880B1531C5A
:100C90003F2B0DD88B420BD2013410AD154405F813
:100CA000400C023210A80344002003F8400CECE78B
:100CB0008DF8002003238DF8013011466846044B5F
:100CC000984711B030BD002070470020F9E700BF01
:100CD000690C080008B504210148024B984708BD7B
:100CE00048230800690C080030B597B00446092372
:100CF0008DF800300D4641B307238DF801304B23AA
:100D0000ADF8023002238DF8043001238DF8053050
:100D100000238DF80630C0238DF80730FA238DF8B4
:100D2000083003AB9DE8070003C31A707DB142226F
:100D30000B490DF115000B4B98474A2C0EDC214650
:100D400003A8094B984717B030BD0223D5E74222CC
:100D500006490DF11500034B9847EEE74B24EEE7EB
:100D60004C230800D51C0800690C080090230800DB
:100D700008B5C378022B09D0072B0CD0012B0FD05C
:100D8000062B24D0032B2BD0002008BD0021C088C7
:100D9000214B984708BD0121C0881F4B984708BDCB
:100DA0001E4B5B6A5BB11E4BC188082909D01A78BB
:100DB00090B2914209DA18461A4B984708BD1A4B6F
:100DC000F2E70120154A5062F1E70146F3E7C188D6
:100DD000092903DC1548134B984708BD0A21F9E798
:100DE00083783BB1012B08D0022B0BD0032B0ED004
:100DF000002008BD0E4B984708BDC1880D480E4B1A
:100E0000984708BDC1880D480B4B984708BDC1885D
:100E10000B48094B984708BDE90C0800B4080020AE
:100E2000D4230800690C0800E8230800FC2308000C
:100E3000D50C0800082408007D0C080010240800C8
:100E40001C24080070B502200E4B984788B10E4B49
:100E50009C6A0134C4F30804DB6A9C4209D00A4D41
:100E6000AE6A0220094B98472E4486F83000AC62E7
:100E7000E9E70220034B984700B170BD0220044B04
:100E80009847FAE7110A0800B4080020890A080008
:100E9000250A080010B40D4B00F1400243F822105F
:100EA000D969012484402143D96153F8221041F0CB
:100EB000020143F822104C3053F8203013F4802FF5
:100EC00002D10122024B1A6010BC704700C00A40D8
:100ED000B40800203220704741F63210704710B934
:100EE00041F23600704741F26600704710B941F296
:100EF0003610704741F266107047000038B50F4B4E
:100F00009847014600200E4CA0470E4D0423C5F81B
:100F1000F0310D4B984701460120A04701200B4BB3
:100F2000984701460220A0470120094B98470146F7
:100F30000320A0470223C5F8F83138BDD50E0800BC
:100F4000950E080000C00A40D90E0800DF0E080008
:100F5000ED0E080010B5094C236823F07F032360D1
:100F6000236843F080032360054B98470022054B1C
:100F7000C3F830220823A36010BD00BF00C00A40A0
:100F8000FD0E0800B408002000B583B00378A12B43
:100F900005D0212B1FD0002003B05DF804FB427860
:100FA000212AF6D12B4B1A6800921A798DF8042069
:100FB0005A798DF805209A798DF80620DB798DF81D
:100FC000073007216846244B9847072801D00020A6
:100FD000E2E70120E0E74378202B05D0222B19D04F
:100FE000232B2ED00020D7E7072168461B4B9847BC
:100FF000072801D00020CFE7164B009A1A609DF811
:1010000004201A719DF805205A719DF806209A71E6
:101010000120C1E782780F4BDA711B68B3F5966F38
:1010200001D00120B8E70B4BDB7913F0010F04D19D
:10103000FA200B4B98470120AEE70A4B9847012056
:10104000AAE7C278837843EA0223024A9360012028
:10105000A2E700BF40000020690C0800310C080026
:10106000450508005505080010B582B0474B984764
:1010700008B902B010BD082269460020444B9847C9
:10108000444B98479DF90030002B1DDB424B98479D
:101090009DF8002012F0600F69D19DF80130C3B1B6
:1010A000012B1FD0032B1DD0052B21D0062B31D0B7
:1010B000072B65D0082B33D0092B3AD00A2B46D00A
:1010C0000B2B4DD0002055E001213448344B98477C
:1010D000DEE700210846334CA04700210846A04720
:1010E000012047E0002108462E4B9847012041E0AF
:1010F00001212A482A4B98472B490B6823F07F038C
:101100009DF8022002F07F02134343F080030B603E
:1011100001202FE06846254B984778B3012029E04D
:10112000234BD3F83012C9B200201E4B9847012040
:1011300020E012F01F0F01D000201BE01D4B98474C
:101140009DF802201A4BC3F83022012012E0184B00
:10115000D3F83412C9B20020124B9847012009E09D
:101160009DF80220124BC3F83422012002E06846A9
:10117000114B984730B1084B98477AE70020F9E7C0
:101180000020F7E70D4B984773E700BF210C0800DC
:10119000AD0A0800F90B0800D10B080030C10A4065
:1011A00035090800E90A080000C00A40710D08006E
:1011B000B4080020FD0E0800890F0800110C08007B
:1011C00010B50D4B5C6814F0080F0CD114F4804F6F
:1011D00005D0094BD3F8383113F0020F06D114F4BF
:1011E000805F06D110BD054B9847EFE7044B984749
:1011F000F5E7044B9847F5E700C00A40550F080093
:10120000450E08006910080008B5014B984708BD55
:10121000C111080038B51A4BD3F838324BBB002245
:10122000032A07D8164B03EB82030021596159604A
:101230000132F5E7124C0025A562E5622560C4F88D
:101240003052104B9847104B9847104B9847104B13
:1012500083F828534FF480725A600E4B08229A612B
:101260004FF480529A614FF480429A610123C4F88E
:101270003832084A136823F48073136038BD00BF06
:10128000B408002085090800B1090800D109080048
:1012900000E100E000C00A40044BDB7913F0030FCB
:1012A00001D1002070470120704700BF400000209E
:1012B000C0B138B50546B9B10C460C4BD3F8303245
:1012C0001BB9012343B1002038BD094B984708B131
:1012D0000023F7E70123F5E7224629460320054BC3
:1012E000984738BD00207047084638BDB408002034
:1012F000991208000D0B0800012800D0704708B5AE
:101300004FF6FF73994200D008BD0248024B984740
:10131000FAE700BFF00A00203113080008B54FF6C5
:10132000FF710120014B984708BD00BFF91208006A
:1013300000220260704710B40170427083709DF803
:101340000430C37010BC7047012800D070474FF6BE
:10135000FF739942FAD110B582B0002100910B467B
:101360000A460248024CA04702B010BD0C0B0020F8
:101370003713080008B54FF6FF710120014B98475D
:1013800008BD00BF491308000A230370704700001E
:10139000012800D0704708B54FF6FF73994200D07E
:1013A00008BD0248024B9847FAE700BF100B002027
:1013B0008913080008B54FF6FF710120014B9847CB
:1013C00008BD00BF9113080008B5034B9847034BB5
:1013D0009847034B9847FCE719070800610108008C
:1013E000CD01080008B5012905D0022900D000214F
:1013F000024B984708BD0121FAE700BFC504080069
:1014000008B5014B984708BD190508007047000052
:10141000012800D070472DE9F8434FF6FF73994239
:1014200001D0BDE8F883144C00212046134EB0478C
:10143000134FDFF854803A4641462046114DA847E5
:1014400004F1080901214846B0473A46414648465A
:10145000A84704F1100902214846B0473A464146E0
:101460004846A847183403212046B0473A4641462B
:101470002046A847D5E700BF140B00206D150800D3
:1014800034000020F51608000D14080010B50446BD
:101490000821024B9847204610BD00BF01170800E5
:1014A00008B54FF6FF710120014B984708BD00BFFA
:1014B00011140800012800D0704708B54FF6FF73DB
:1014C000994200D008BD0248024B9847FAE700BF96
:1014D000340B0020D115080008B54FF6FF7101202C
:1014E000014B984708BD00BFB514080008B5014B73
:1014F000984708BD8107080070470000012800D008
:10150000704708B54FF6FF73994200D008BD034AF3
:1015100003490448044B9847F8E700BF3400002013
:10152000F91408004C000020F516080010B5044618
:101530000421024B9847204610BD00BF0117080048
:1015400008B54FF6FF710120014B984708BD00BF59
:10155000FD14080008B543790BB9002008BD0079D7
:10156000014B9847012008BDF1080800024A0260BB
:10157000017100224271704728240800012905D01A
:10158000022901D0002070470220704701207047D7
:1015900070B504460E4605791146054B984702463C
:1015A00031462846034B98470123637170BD00BF45
:1015B0007D1508006D080800024A026000220271D1
:1015C0004271704700093D000068704740797047DC
:1015D00010B50446024B984700232372204610BDE5
:1015E000B9150800022909D0032905D0012901D025
:1015F0000020704701207047032070470220704789
:1016000070B504460E4615461046074B98472060B5
:10161000002323712846054B984701463046044B6A
:1016200098476071204670BDC9150800CD150800A7
:10163000E515080000B583B0014602466846044B34
:1016400098476846034B984703B05DF804FB00BF1A
:10165000011608005106080010B50446034B9847D0
:101660002046034B98470123237210BD79060800DA
:10167000351608006846704738B50C4B1B6853B1E7
:101680000A4B1D682C180A4B9847844207D2074B17
:101690001C60284638BD074A044B1A60F0E7064B29
:1016A00098470C2303604FF0FF3038BD400B0020FB
:1016B00075160800A01100201517080008B5014B89
:1016C000984708BD1512080008B508461146014B99
:1016D000984708BDB112080000B583B002AB03F80B
:1016E000011D01221946024B984703B05DF804FB27
:1016F000C91608000B460146184600F005B800BFA1
:1017000000F000B800F03CB813460A46014602203B
:1017100000F074BB014B1868704700BF50000020F8
:1017200070B50F4E0F4D761BB61018BF002405D0B4
:10173000013455F8043B9847A642F9D10A4E0B4DA7
:1017400000F084FE761BB61018BF002406D00134CA
:1017500055F8043B9847A642F9D170BD70BD00BF53
:101760005824080058240800782408005824080049
:10177000024B0146186800F00BB800BF5000002073
:10178000024B0146186800F015BC00BF5000002055
:101790002DE9F04F01F10B06162E83B0054640F2FD
:1017A0009E8036F0070600F1BD80B14200F2BA809B
:1017B00000F006FBB6F5FC7FC0F08582730A00F0EE
:1017C000B880042B00F26C81B30903F1390003F1F6
:1017D000380EC100B84F39444C680839A14206D1CF
:1017E0000CE0002A80F2AB80E468A14206D0636876
:1017F00023F003039A1B0F2AF3DD70463C69DFF8E0
:10180000CCE2744500F09E81636823F003039A1BC9
:101810000F2A00F38381002AC7F814E0C7F810E00C
:1018200080F29180B3F5007F80F054810122DB08C3
:1018300079684FEAA30C134457F8338002FA0CF28C
:1018400007EBC30C0A43ACF10801E160C4F808805F
:101850007A6047F83340C8F80C40012483109C405C
:1018600094427DD8144206D120F003006400144253
:1018700000F10400FAD007EBC009CC468046DCF842
:101880000C309C4507D15FE1002A80F26D81DB6856
:101890009C4500F05981596821F003018A1B0F2AE9
:1018A000F2DDDC68D3F808C046F0010828461E4483
:1018B00042F00105C3F80480CCF80C40C4F808C01D
:1018C0007E613E61C6F80CE0C6F808E075605A50CB
:1018D000009300F07BFA009B03F108041EE010293E
:1018E00020D800F06DFA102618230220724F3B44D6
:1018F0005C68A3F10802944200F02F816368E168FC
:1019000023F0030323445A68A66842F00102F16001
:1019100028468E605A6000F059FA0834204603B019
:10192000BDE8F08F00240C2320462B6003B0BDE8F7
:10193000F08F40204FF400714FF03F0E4AE72344F0
:101940005A68E168E0E723445A68284642F00102F9
:101950005A60083400F03AFA204603B0BDE8F08F30
:10196000BC68636823F00308B04504D3A8EB060302
:101970000F2B00F38580DFF85891504BD9F80020E9
:101980001B680132334404EB080A00F0548103F56C
:1019900080530F3323F47F6B2BF00F0B59462846EF
:1019A00000F01AFA411C024600F0FB80824500F26A
:1019B000F680434B19685944196000F04C81D9F8FE
:1019C000000001301BBFA2EB0A0A5144C9F80020F5
:1019D000196012F0070100F01481C1F10800C1F58F
:1019E00080510244083102EB0B09C9F30B09A1EB4A
:1019F0000909494628460193009200F0EDF9431C7D
:101A00009DE80C0000F04281801A484440F001003B
:101A10001968BC424944BA601960506017D0B8F1E7
:101A20000F0F40F2FA804FF0050C6268A8F10C002D
:101A300020F0070002F0010204EB000E02430F2821
:101A40006260CEF804C0CEF808C000F216811D4BCB
:101A5000BC681A68914288BF19601B4B1A68914292
:101A6000626888BF196022F003029642A2EB060367
:101A700001D80F2B04DC284600F0A8F900244DE71C
:101A800046F0010243F00103264462602846BE602E
:101A90000834736000F09AF9204603B0BDE8F08F77
:101AA000142B70D9542B00F2A280330B03F16F007A
:101AB00003F16E0EC1008DE680040020740B00203F
:101AC000440B00206C0B0020700B002088040020C9
:101AD000880800205A0A042A5BD9142A00F2AE8032
:101AE00002F15C01C9005B3207EB010C7958ACF1E3
:101AF000080C8C4500F088804A6822F0030293426B
:101B000073D289688C45F7D1DCF80C307A68E360D1
:101B1000C4F808C09C60CCF80C409EE646F0010C6E
:101B200042F001012644C4F804C028467E613E61AB
:101B3000C6F80CE0C6F808E07160E25000F046F923
:101B40000834EBE67A6888E608F1010818F0030F1C
:101B50000CF1080C7FF493AE2DE0DC68A34208BFC3
:101B600002303FF44BAEC9E61C4619444A68DB68B4
:101B700054F8086F42F001024A602846F3609E6004
:101B800000F024F9CAE603F15C0003F15B0EC1002A
:101B900020E69A0902F13901C9003832A4E7BC42B3
:101BA00054D0BC68626822F003025EE759F8083935
:101BB000994540F0868010F0030F00F1FF30F5D119
:101BC0007B6823EA04037B6064009C423FF6C8AE56
:101BD000002C3FF4C5AE1C4240467FF44CAE64007E
:101BE0001C4200F10400FAD045E68C468CE7B3F5C0
:101BF000AA7F15D8F30B03F1780003F1770EC1002B
:101C0000E8E54FF48051EEE601217B68921001FA7D
:101C100002F21A437A60634679E7012353602AE7A8
:101C200040F25452934222D8B30C03F17D0003F1E9
:101C30007C0EC100CEE503F1100BAFE6542A29D883
:101C40001A0B02F16F01C9006E324DE7204B196883
:101C500059441960B3E6CAF30B0000287FF4AFAE15
:101C600008EB0B03BA6843F001035360EFE67F20F3
:101C70004FF47E714FF07E0EACE504F1080128466A
:101C8000009300F097F9009B1968E0E601204FF0FF
:101C90000009BDE6B2F5AA7F05D8DA0B02F178019A
:101CA000C900773220E740F254518A4205D89A0C95
:101CB00002F17D01C9007C3216E74FF47E717E226D
:101CC00012E77B6880E7F00806F108030EE600BF24
:101CD000440B0020844641EA000313F0030349D17A
:101CE000403A23D30B6803604B6843608B68836082
:101CF000CB68C3600B6903614B6943618B69836186
:101D0000CB69C3610B6A03624B6A43628B6A83626D
:101D1000CB6AC3620B6B03634B6B43638B6B836355
:101D2000CB6BC36340304031403ADBD230320BD30F
:101D30000B6803604B6843608B688360CB68C3604B
:101D400010301031103AF3D20C3205D351F8043B65
:101D500040F8043B043AF9D2043208D0D2071CBF41
:101D600011F8013B00F8013B01D30B88038060466A
:101D7000704700BF082A13D38B07B1D010F00303BC
:101D8000AED0C3F10403D21ADB071CBF11F8013B2C
:101D900000F8013BA4D331F8023B20F8023B9FE757
:101DA000043AD9D3013A11F8013B00F8013BF9D2CA
:101DB0000B7803704B7843708B7883706046704764
:101DC000014800F0DDB900BF880B0020014800F099
:101DD000D9B900BF880B002038B50023064C054652
:101DE00008462360FFF748FC431C00D038BD236839
:101DF000002BFBD02B6038BD9C0B00202DE9F84355
:101E00002C4D0646286898460F46914600F0B8F9D2
:101E1000294B1C68D4F84831002B3ED05A681F2A41
:101E20001CDC02F1010E76B1012103EB8204C4F83F
:101E30008890D3F8880191400843022EC3F88801A6
:101E4000C4F8088123D00232C3F804E0286843F8BC
:101E5000227000F097F90020BDE8F883174B0BB310
:101E60004FF4C870FFF784FC0346D8B10020D4F8C3
:101E700048114FF0010E586019600246C4F848310D
:101E8000C3F88801C3F88C01002EDCD0CCE7D3F86E
:101E90008C010143C3F88C11D5E704F5A673C4F88F
:101EA0004831BBE7286800F06DF94FF0FF30BDE81E
:101EB000F88300BF9008002048240800711708002C
:101EC000024B13B1024800F005B870470000000053
:101ED000E11E0800002301461A461846FFF78EBF90
:101EE00038B50A4C0A4D641BA4100AD004F1804393
:101EF000013B05EB8305013C55F804399847002C5C
:101F0000F9D1BDE8384000F0B7BA00BF8824080016
:101F100084240800F8B50C46234F0646FFF750FF0F
:101F2000BB68C4F57E615D680F3125F00305294467
:101F300021F47F6121F00F01A1F58054B4F5805F99
:101F400007DB00213046FFF747FFBB682B44984270
:101F500004D03046FFF73AFF0020F8BD614230461A
:101F6000FFF73AFF01300DD0104BBA6819682D1BEE
:101F700045F001053046091B55601960FFF726FF43
:101F80000120F8BD00213046FFF726FFBA68831A0A
:101F90000F2BDEDD064C0549246843F00103001BCE
:101FA00053600860D5E700BF80040020440B002088
:101FB00088080020002944D02DE9F0410D468046D4
:101FC000FFF7FEFE55F8047C6949A5F1080427F0E7
:101FD0000103E2188E685068B24220F003005ED020
:101FE000FE0750600BD455F8087C01F1080EE41B85
:101FF000A5683B4475456DD0E768EF60BD60151876
:102000006D68ED073ED543F001026260E350B3F521
:10201000007F17D20122DB0898104D68134451F855
:102020003370824001EBC3002A430838E060A760A8
:102030004A6041F83340FC604046BDE8F041FFF79C
:10204000C5BE70475A0A042A52D89A0902F13907C4
:10205000FF0002F13805C819CA59083890424FD01C
:10206000516821F003018B4232D292689042F7D13D
:10207000C368A060E3609C60C4604046BDE8F04176
:10208000FFF7A4BE95683B4F0344BD4240D0D068E3
:1020900043F00102E86085606260E350B7E7FF0744
:1020A000034407D455F8085C641BE268A0682B441D
:1020B000C2609060304A43F0010012686060934251
:1020C0008C60B9D32D4B40461968FFF723FFB3E767
:1020D0001046CDE711184968C90744D491680344F4
:1020E000D26843F00100CA6091606060E350A3E7EA
:1020F000142A16D802F15C07FF0002F15B05AAE77B
:102100000123AA104D6893402B434B600346B0E770
:1021100043F001024C610C61E560A5606260E35030
:102120008AE7542A06D81A0B02F16F07FF0002F162
:102130006E0590E7B2F5AA7F06D8DA0B02F17807B0
:10214000FF0002F1770586E740F25450824206D83C
:102150009A0C02F17D07FF0002F17C057BE74FF44A
:102160007E777E2577E743F001016160136063E7C6
:1021700080040020880400208C080020740B0020BC
:10218000704700BF704700BF0200000000100E4003
:10219000000000020C0000000300000000120E40CE
:1021A000000000100D0000000500000000120E40AD
:1021B000000000020D0000000600000000120E40AA
:1021C000000000010D0000000700000000120E409A
:1021D000000080000D0000000800000000120E400A
:1021E000000040000D0000000900000000120E4039
:1021F000000020000D0000000A00000000120E4048
:10220000000000200D00000017000000000E0E402E
:10221000004000000B00000018000000000E0E40FF
:10222000008000000B0000002800000000120E409B
:10223000000100000D0000002900000000120E4007
:10224000000200000D0000002D00000000120E40F2
:10225000000004000D0000003000000000120E40DD
:10226000008000000D00000036000000000E0E404F
:10227000000001000B0000003D000000000E0E40B9
:10228000040000000B0000000000000000080E40E9
:102290000000000008000000000E0E4000010000D9
:1022A0000B00000000000000000E0E4000020000C5
:1022B0000B00000000000000010000000000000012
:1022C0000080094011000000000E0E4000040000D4
:1022D0000B00000000000000000E0E40000800008F
:1022E0000B000000000000000100000000000000E2
:1022F00000C0094012000000000E0E400010000057
:102300000B00000000000000000E0E400020000046
:102310000B000000000000000100000000000000B1
:1023200000400A401400000000140E40200000008D
:102330000E0000000100000000140E40100000001C
:102340000E0000000100000004030904080B000255
:10235000020201000904000001020200000524003D
:1023600010010524010101042402060524060001D0
:102370000705810310001009040100020A00000093
:10238000070583024000000705020240000000002C
:10239000080B000202020100090400000102020011
:1023A0000005240010010524010101042402060592
:1023B0002406000107058103100010090401000232
:1023C0000A00000007058302000200070502020060
:1023D0000200000012010002EF02014041233E0012
:1023E0000001010203010000120100020000004090
:1023F00041233E0000010102030100000A06000221
:102400000000004001000000494741530000000067
:102410004C43502042617369630000004C435000FC
:1024200000000000000000000D1408008D140800DA
:10243000551508000000000000000000F914080015
:102440002D150800D916080058000020F8B500BF67
:10245000F8BC08BC9E467047C11E08001901080060
:102460001D13080075130800B5130800A114080017
:10247000D914080041150800F8B500BFF8BC08BC25
:082480009E467047F5000800BC
:082488006CF2FF7F010000006F
:1024900072B6084B9B6813F0010FFAD0064A054B41
:1024A0005A60044B9B6813F0010FFAD0034A044BA7
:1024B0001A60FEE7000A0E400C01005A050000A554
:1024C000001A0E400000000000093D00FFFFFFFF62
:1024D00000E1000000000800FFFFFFFF3C240800AF
:1024E000580000200000000000000000440300200D
:1024F000AC030020140400200000000000000000D5
:1025000000000000000000000000000000000000CB
:1025100000000000000000000000000000000000BB
:1025200000000000000000000000000000000000AB
:10253000000000000000000000000000000000009B
:10254000000000000000000000000000000000008B
:10255000000000000000000000000000000000007B
:10256000000000000000000000000000000000006B
:10257000000000000000000000000000000000005B
:10258000000000000000000000000000000000004B
:1025900001000000000000000E33CDAB34126DE6E8
:1025A000ECDE05000B000000000000000000000051
:1025B000000000000000000000000000000000001B
:1025C000000000000000000000000000000000000B
:1025D00000000000000000000000000000000000FB
:1025E00000000000000000000000000000000000EB
:10291000000000000000000080040020800400206F
:1029200088040020880400209004002090040020E7
:102930009804002098040020A0040020A004002097
:10294000A8040020A8040020B0040020B004002047
:10295000B8040020B8040020C0040020C0040020F7
:10296000C8040020C8040020D0040020D0040020A7
:10297000D8040020D8040020E0040020E004002057
:10298000E8040020E8040020F0040020F004002007
:10299000F8040020F80400200005002000050020B5
:1029A0000805002008050020100500201005002063
:1029B0001805002018050020200500202005002013
:1029C00028050020280500203005002030050020C3
:1029D0003805002038050020400500204005002073
:1029E0004805002048050020500500205005002023
:1029F00058050020580500206005002060050020D3
:102A00006805002068050020700500207005002082
:102A10007805002078050020800500208005002032
:102A200088050020880500209005002090050020E2
:102A30009805002098050020A0050020A005002092
:102A4000A8050020A8050020B0050020B005002042
:102A5000B8050020B8050020C0050020C0050020F2
:102A6000C8050020C8050020D0050020D0050020A2
:102A7000D8050020D8050020E0050020E005002052
:102A8000E8050020E8050020F0050020F005002002
:102A9000F8050020F80500200006002000060020B0
:102AA000080600200806002010060020100600205E
:102AB000180600201806002020060020200600200E
:102AC00028060020280600203006002030060020BE
:102AD000380600203806002040060020400600206E
:102AE000480600204806002050060020500600201E
:102AF00058060020580600206006002060060020CE
:102B0000680600206806002070060020700600207D
:102B1000780600207806002080060020800600202D
:102B200088060020880600209006002090060020DD
:102B30009806002098060020A0060020A00600208D
:102B4000A8060020A8060020B0060020B00600203D
:102B5000B8060020B8060020C0060020C0060020ED
:102B6000C8060020C8060020D0060020D00600209D
:102B7000D8060020D8060020E0060020E00600204D
:102B8000E8060020E8060020F0060020F0060020FD
:102B9000F8060020F80600200007002000070020AB
:102BA0000807002008070020100700201007002059
:102BB0001807002018070020200700202007002009
:102BC00028070020280700203007002030070020B9
:102BD0003807002038070020400700204007002069
:102BE0004807002048070020500700205007002019
:102BF00058070020580700206007002060070020C9
:102C00006807002068070020700700207007002078
:102C10007807002078070020800700208007002028
:102C200088070020880700209007002090070020D8
:102C30009807002098070020A0070020A007002088
:102C4000A8070020A8070020B0070020B007002038
:102C5000B8070020B8070020C0070020C0070020E8
:102C6000C8070020C8070020D0070020D007002098
:102C7000D8070020D8070020E0070020E007002048
:102C8000E8070020E8070020F0070020F0070020F8
:102C9000F8070020F80700200008002000080020A6
:102CA0000808002008080020100800201008002054
:102CB0001808002018080020200800202008002004
:102CC00028080020280800203008002030080020B4
:102CD0003808002038080020400800204008002064
:102CE0004808002048080020500800205008002014
:102CF00058080020580800206008002060080020C4
:102D00006808002068080020700800207008002073
:102D10007808002078080020FFFFFFFF0000020075
:042D2000780B00200C
:040000038000000079
:00000001FF
