:10000000ADC000000C94501B0C947D1BCFC00000B1
:10001000CDC00000CBC00000C9C000000C94BB18CC
:10002000C5C00000C3C000000C94AA1F0C94C11EE0
:100030000C9488200C94D723B9C00000B7C00000EE
:100040000C940C1DB3C000000C94FC160C943D17CE
:100050000C94C321ABC00000A9C00000A7C00000E1
:100060000C94261AA3C000002014261428142B1464
:100070003F14FE156A1485146C148714CF14D3141E
:10008000FE15091508000000BE922449123EABAAD5
:10009000AA2ABECDCCCC4C3E00000080BEABAAAAA2
:1000A000AA3E00000000BF000000803F00000000EA
:1000B00000084178D3BB4387D1133D190E3CC3BD23
:1000C0004282AD2B3E68EC8276BED98FE1A93E4CD0
:1000D00080EFFFBE01C4FF7F3F0000000000076308
:1000E0004236B79BD8A71A39685618AEBAAB558CAA
:1000F0001D3CB7CC5763BD6DEDFD753EF6177231F3
:10010000BF000000803F0200000007000201000065
:1001100003040600000000000000000102040810B3
:10012000204080010204081020010204081020046D
:10013000040404040404040202020202020303038E
:1001400003030300000000250028002B000000002E
:1001500000240027002A00000118091D11241FBED9
:10016000CFEFD8E0DEBFCDBF11E0A0E0B1E0ECE31F
:10017000F0E502C005900D92AE37B107D9F725E042
:10018000AEE7B1E001C01D92AB37B207E1F710E076
:10019000CEEAD0E004C02197FE010E943324CC3A7D
:1001A000D107C9F70E943D180C941C2829CFCF9283
:1001B000DF92EF92FF920F931F93CF93DF93E1E0D3
:1001C000E0939F01E8E7F2E0C8EDD2E0A8EACA2E8A
:1001D000A2E0DA2E619371938193919329933993DD
:1001E00049935993D601ED92FD920D931D936D01A4
:1001F000B2E0EC38FB0771F7E3E0F2E0ABE1B2E02C
:100200006193719381939193AE17BF07C9F7EFE1A3
:10021000F2E0A7E3B2E02193319341935193AE17FB
:10022000BF07C9F7EBE3F2E0A3E5B2E0E192F19298
:1002300001931193AE17BF07C9F7609358027093EB
:10024000590280935A0290935B0220935C02309390
:100250005D0240935E0250935F02E0926002F09272
:1002600061020093620210936302DF91CF911F91AC
:100270000F91FF90EF90DF90CF90089580915702FB
:100280008F5F863018F48093570202C01092570295
:1002900020915702A8E6B2E084E0289F9001112443
:1002A00080E090E04D915D916D917D91FC01E20FB8
:1002B000F31FED5FFD4F40835183628373834C9640
:1002C0008435910579F708958F929F92AF92BF92EE
:1002D000CF92DF92EF92FF9280919A018111EDC04F
:1002E000C0902103D0902203E0902303F0902403D8
:1002F00020E030E0A901C701B6010E94B22487FFC7
:1003000009C080918F039091900381609093900336
:1003100080938F0320E030E44CE955E4C701B60137
:100320000E94012618164CF480918F03909190033F
:1003300082609093900380938F0320E030E44CE13F
:1003400056E4C701B6010E940126181654F020E0B9
:1003500030E048EC52ECC701B6010E94B22487FF9E
:1003600009C080918F0390919003846090939003D3
:1003700080938F03C0901D03D0901E03E0901F0355
:10038000F090200320E030E040E752ECC701B601D6
:100390000E94B22487FF09C080918F03909190033F
:1003A00088609093900380938F0320E030E040EAD0
:1003B00052E4C701B6010E94012618164CF4809140
:1003C0008F039091900380619093900380938F03AB
:1003D000C0905A03D0905B03E0905C03F0905D0303
:1003E00060916B0170E080E090E00E945125A701D0
:1003F00096010E94B22487FF09C080918F039091DB
:10040000900380649093900380938F032091670101
:10041000309168014091690150916A01C701B601AC
:100420000E94012618164CF480918F03909190033E
:1004300080689093900380938F03C0905603D09070
:100440005703E0905803F090590380905F0190901B
:100450006001A0906101B0906201A5019401C70103
:10046000B6010E94B22487FF09C080918F0390914A
:10047000900398609093900380938F03A50194015B
:10048000C701B6010E9401261816BCF42091630131
:10049000309164014091650150916601C701B60138
:1004A0000E94B22487FF09C080918F03909190032E
:1004B00090619093900380938F0380911003882321
:1004C00049F080918F0390919003906290939003F4
:1004D00080938F03FF90EF90DF90CF90BF90AF900D
:1004E0009F908F9008952F923F924F925F926F92BC
:1004F0007F928F929F92AF92BF92CF92DF92EF92B4
:10050000FF920F931F93CF93DF93CDB7DEB728975A
:100510000FB6F894DEBF0FBECDBF88E692E09A8397
:100520008983E8E5F2E0F887EF838EE191E09C8330
:100530008B83E2E1F1E0FE83ED8333E0232E32E0B2
:10054000332EE12CF12C612C80E5782E93EC892E52
:1005500027E4922EA12CB12C0AE714ECF101EE0D48
:10056000FF1D5080C180D28043809501A801652D78
:100570007C2D8D2D942D0E940126181624F4A52C77
:10058000BC2C0D2D142D9301A401652D7C2D8D2DDA
:10059000942D0E94B22487FF04C0652C7C2C8D2CE6
:1005A000942CF4E0EF0EF11C24E1E216F104B1F614
:1005B000EF81F885C080D180E280F38024EA30E7C3
:1005C0004DE75FE3B301C4010E945026A7019601E5
:1005D0000E94B22487FF11C02EEA37E441E85FE3AE
:1005E000B501C8010E945026A70196010E9401266C
:1005F00018161CF4EB81FC8102C0ED81FE81808025
:100600009180A280B380E981FA8161917191819199
:100610009191FA83E983A70196010E944D24A501D7
:1006200094010E945026A70196010E944E24EF815A
:10063000F8856193719381939193F887EF838B8110
:100640009C8104969C838B83ED81FE813496FE838E
:10065000ED83FCE12F0E311C89819A8184579240F1
:1006600009F06FCF28960FB6F894DEBF0FBECDBF4E
:10067000DF91CF911F910F91FF90EF90DF90CF907E
:10068000BF90AF909F908F907F906F905F904F90B2
:100690003F902F9008950FB6F894A8958091600030
:1006A000886180936000109260000FBE98E088E13E
:1006B0000FB6F894A895809360000FBE90936000E9
:1006C000FFCF4091F2015091F3016091F4017091DC
:1006D000F5018091940390919503A0919603B091B8
:1006E0009703481B590B6A0B7B0B80917601909105
:1006F0007701A0E0B0E084179507A607B70758F484
:1007000098E088E10FB6F894A895809360000FBE3A
:1007100090936000FFCF08950F931F938091F20193
:100720009091F301A091F401B091F5014091EA019B
:100730005091EB016091EC017091ED018C019D01F4
:10074000041B150B260B370BB901A801453F51407F
:1007500061057105C0F08093EA019093EB01A093CD
:10076000EC01B093ED0180919B01811103C081E008
:1007700080939B0180919C0190919D0101969093A3
:100780009D0180939C011F910F910895FC018FEFB3
:1007900021E3662369F09191892798E087FF03C0E0
:1007A000880F822701C0880F9150C1F76150F1CFA7
:1007B00008952F923F924F925F926F927F928F9205
:1007C0009F92AF92BF92CF92DF92EF92FF920F93E0
:1007D0001F93CF93DF93A0912503E4E0AE9FE00148
:1007E0001124FE01E858FD4F608371838283938357
:1007F000FE01E852FD4F2083318342835383FE0183
:10080000E855FD4FE082F1820283138381E08A0F75
:10081000853018F48093250302C010922503C8E7A1
:10082000D2E008ED12E088EA282E82E0382EC12CB2
:10083000D12C7601460157012601370129913991C2
:1008400049915991C301B2010E944E242B013C01F0
:10085000F80121913191419151918F01C501B4016C
:100860000E944E244B015C01F10121913191419193
:1008700051911F01C701B6010E944E246B017C01FA
:10088000F2E0CC38DF07D1F62DEC3CEC4CE45EE333
:10089000C301B2010E9450266093680270936902FE
:1008A00080936A0290936B022DEC3CEC4CE45EE387
:1008B000C501B4010E94502660936C0270936D02D2
:1008C00080936E0290936F022DEC3CEC4CE45EE35F
:1008D000C701B6010E9450266093700270937102A6
:1008E0008093720290937302DF91CF911F910F91C9
:1008F000FF90EF90DF90CF90BF90AF909F908F9040
:100900007F906F905F904F903F902F9008950F933E
:100910001F93E0917501E150E73050F4F0E0EE0FE5
:10092000FF1FEC5FFE4F4081518160E070E004C02A
:1009300040E855E260E070E080917401813011F090
:1009400026E001C026E230E009EE13E081E993E001
:100950000E94DD2067ED74E081E993E00E946F2141
:1009600080917C01809391031F910F910895CF9303
:10097000DF9300D000D0CDB7DEB769837A838B8355
:100980009C8350E0440F551FFE01E40FF51F828148
:1009900090E0982F8827FE01E40FF51F2181822B1C
:1009A0000F900F900F900F90DF91CF9108952F929D
:1009B0003F924F925F926F927F928F929F92AF92EF
:1009C000BF92CF92DF92EF92FF920F931F93CF933C
:1009D000DF93CDB7DEB764970FB6F894DEBF0FBED6
:1009E000CDBF7C01A62E5A83498369018091930370
:1009F000BB24B394803119F0863009F0B12C80917A
:100A0000F2019091F301A091F401B091F50180936E
:100A1000940390939503A0939603B09397030A2DA4
:100A2000172F80917401282F30E03C832B83809115
:100A30004A01E82FF0E0FE83ED83209176013091AA
:100A4000770138872F8340904B0150904C01052C43
:100A5000000C660877084B865C866D867E868091E2
:100A60005201E82FF0E0FA87E98720907801309072
:100A7000790180907A0190907B012F86388A898A4B
:100A80009A8A402FF02FFA192F2F30E03C8B2B8BB6
:100A900089819A812817390714F00C944B10063677
:100AA000110509F4A2C70CF035C20E31110509F485
:100AB000CCC50CF019C10E30110509F4C2C40CF0FC
:100AC0008BC00630110509F432C40CF044C002306A
:100AD000110509F4E7C30CF50115110509F4CBC3A1
:100AE0000130110511F00C943C102B893C89220F28
:100AF000331F2E0D3F1D3C8B2B8B60918603709115
:100B00008703809188039091890341E030DFEB896E
:100B1000FC89918380830C9447100430110509F4FB
:100B2000D8C30CF0EDC32B893C89220F331F2E0D47
:100B30003F1D3C8B2B8B60918203709183038091CE
:100B400084039091850341E012DFEB89FC89918356
:100B500080830C9447100A30110509F42DC4F4F475
:100B60000830110509F4FAC30CF00FC42B893C8935
:100B7000220F331F2E0D3F1D3C8B2B8B60918A0360
:100B800070918B0380918C0390918D0341E0EFDE97
:100B9000EB89FC89918380830C9447100C301105FC
:100BA00009F421C40CF036C42B893C89220F331F71
:100BB0002E0D3F1D3C8B2B8B60917603709177033C
:100BC000809178039091790341E0D1DEEB89FC8933
:100BD000918380830C9447100631110509F4ABC44E
:100BE0000CF041C00231110509F470C4F4F4003175
:100BF000110509F43DC40CF052C42B893C89220F25
:100C0000331F2E0D3F1D3C8B2B8B60916203709127
:100C10006303809164039091650341E0A8DEEB8952
:100C2000FC89918380830C94471060915A037091E2
:100C30005B0380915C0390915D030431110509F41D
:100C40005CC40CF069C42B893C89220F331F2E0D24
:100C50003F1D3C8B2B8B41E08ADEEB89FC89918325
:100C600080830C9447100A31110509F4A9C4F4F4E7
:100C70000831110509F476C40CF08BC42B893C892A
:100C8000220F331F2E0D3F1D3C8B2B8B6091560383
:100C900070915703809158039091590341E067DEAA
:100CA000EB89FC89918380830C9447100C311105EA
:100CB00009F49DC40CF0B2C42B893C89220F331F68
:100CC0002E0D3F1D3C8B2B8B60913A0370913B03A3
:100CD00080913C0390913D0341E049DEEB89FC8922
:100CE000918380830C9447100734110509F4AAC539
:100CF0000CF09AC00133110509F41AC50CF049C073
:100D00000932110509F4CFC40CF50F31110509F4AE
:100D1000B3C40832110511F00C943C102B893C89A6
:100D2000220F331F2E0D3F1D3C8B2B8B6091320306
:100D300070913303809134039091350340E017DEC6
:100D4000EB89FC89918380830C9447100B32110549
:100D500009F4D7C40CF4BEC40033110511F00C948F
:100D60003C102B893C89220F331F2E0D3F1D3C8BDD
:100D70002B8B60911503709116038091170390914E
:100D8000180340E0F4DDEB89FC89918380830C94A7
:100D900047100D33110509F410C51CF50B3311056F
:100DA00009F4DDC40CF0F2C40A33110511F00C94FF
:100DB0003C102B893C89220F331F2E0D3F1D3C8B8D
:100DC0002B8B609152037091530380915403909147
:100DD000550340E0CCDDEB89FC89918380830C9442
:100DE00047100F33110509F416C50CF4FDC4063481
:100DF000110511F00C943C102B893C89220F331FF4
:100E00002E0D3F1D3C8B2B8B609121037091220393
:100E1000809123039091240340E0A9DDEB89FC89B4
:100E2000918380830C9447100F34110509F48AC50F
:100E30000CF041C00B34110509F449C5F4F4093430
:100E4000110509F416C50CF02BC52B893C89220F1E
:100E5000331F2E0D3F1D3C8B2B8B60911D0370911A
:100E60001E0380911F039091200340E080DDEB89F9
:100E7000FC89918380830C9447100D34110509F48B
:100E80003DC50CF052C52B893C89220F331F2E0D16
:100E90003F1D3C8B2B8B60916E0370916F03809193
:100EA00070039091710340E062DDEB89FC899183CE
:100EB00080830C9447100335110509F46CC5A4F424
:100EC0000135110509F44CC50CF057C52B893C8937
:100ED000220F331F2E0D3F1D80919A0190E0F901E2
:100EE000918380830C9447100436110509F460C582
:100EF0000CF06EC50336110511F00C943C102B89D3
:100F00003C89220F331F2E0D3F1DF901D182C08273
:100F10000C9447100E39110509F45AC70CF0CDC0D6
:100F20000A38110509F44DC60CF055C000371105FB
:100F300009F4B6C54CF50A36110509F489C554F40F
:100F40000836110509F45DC50936110509F470C5A7
:100F50000C943C100E36110509F488C50CF093C5AD
:100F60000B36110511F00C943C102B893C89220F93
:100F7000331F2E0D3F1D8091720190917301F90175
:100F8000918380830C9447100638110509F4BBC582
:100F9000DCF40238110509F490C50338110509F491
:100FA0009EC50137110511F00C943C102B893C892A
:100FB000220F331F2E0D3F1D80916C0190E0F9012F
:100FC000918380830C9447100838110509F4C5C536
:100FD0000CF4A9C5DCC50639110509F49CC6ACF5AD
:100FE0000E38110509F444C624F50C38110509F42E
:100FF00005C60CF020C62B893C89220F331F2E0D0D
:101000003F1D3C8B2B8B20E030E048EC52E460919C
:101010005701709158018091590190915A010E9495
:1010200050260E941E25EB89FC89718360830C94F5
:1010300047100439110509F452C60CF05CC60F388C
:10104000110509F432C60C943C100A39110509F453
:101050009AC6ACF40839110509F46BC60CF07DC6CC
:101060002B893C89220F331F2E0D3F1D80914D018E
:1010700090914E01F901918380830C9447100C39B3
:10108000110509F498C614F00C9447102B893C897B
:10109000220F331F2E0D3F1D3C8B2B8B6091A00127
:1010A0007091A1018091A2019091A30141E05FDCC8
:1010B000EB89FC8991838083EAC7093C110509F417
:1010C0000AC70CF05CC00D3B110509F4C6C65CF5FF
:1010D0000A3B1105A4F4043B11050CF090C6013A3B
:1010E000110509F0C9C78B899C89880F991F8E0D3E
:1010F0009F1D2F813885FC0131832083C8C70B3B9E
:10110000110509F48EC60CF09AC62B893C89220F72
:10111000331F2E0D3F1D80910E0390910F03F90197
:1011200091838083B4C7043C11059CF4023C1105F3
:101130000CF0A1C62B893C89220F331F2E0D3F1DB9
:10114000F801E653FF4F808190E0F901918380839D
:101150009EC7063C11050CF4A6C6083C110509F013
:101160008BC780918F03909190032B893C89220F2C
:10117000331F2E0D3F1DF9019183808388C70331F2
:1011800092E0190709F4E7C60CF045C0073BF1E00F
:101190001F07DCF4003921E012070CF0BEC60A3C40
:1011A000110509F4A5C60F3831E0130709F064C72B
:1011B0002B893C89220F331F2E0D3F1D80919301F7
:1011C00090E0F9019183808362C7023C81E01807B7
:1011D0000CF452C7093D91E019070CF4ADC6023179
:1011E000E2E01E0709F048C72B893C89220F331F14
:1011F0002E0D3F1D3C8B2B8B6091110370911203C0
:10120000809113039091140340E0B1DBEB89FC89DA
:10121000918380833CC70835F2E01F0709F4F6C6C6
:101220006CF4053132E0130709F4C5C60CF4ABC603
:10123000023592E0190709F4D6C61EC70032E3E072
:101240001E0709F4FBC60438F3E01F0709F410C7B2
:10125000093023E0120709F00FC72B893C89220FC0
:10126000331F2E0D3F1D80919C0190919D01F9012E
:10127000918380830CC78B899C89880F991F8E0D61
:101280009F1D9C8B8B8B609186037091870380914F
:1012900088039091890340E06ADBEB89FC899183A4
:1012A0008083F5C62B893C89220F331F2E0D3F1DED
:1012B0003C8B2B8B6091820370918303809184031C
:1012C0009091850340E053DBEB89FC899183808317
:1012D000DEC62B893C89220F331F2E0D3F1D3C8B10
:1012E0002B8B60917E0370917F038091800390919E
:1012F000810340E03CDBEB89FC8991838083C7C696
:101300002B893C89220F331F2E0D3F1D3C8B2B8BCD
:1013100060917E0370917F0380918003909181039F
:1013200041E025DBEB89FC8991838083B0C62B8962
:101330003C89220F331F2E0D3F1D3C8B2B8B609160
:101340008A0370918B0380918C0390918D0340E010
:101350000EDBEB89FC899183808399C62B893C89BC
:10136000220F331F2E0D3F1D3C8B2B8B60917A0378
:1013700070917B0380917C0390917D0340E0F7DACC
:10138000EB89FC899183808382C62B893C89220F5B
:10139000331F2E0D3F1D3C8B2B8B60917A03709178
:1013A0007B0380917C0390917D0341E0E0DAEB893F
:1013B000FC89918380836BC62B893C89220F331F64
:1013C0002E0D3F1D3C8B2B8B609176037091770324
:1013D000809178039091790340E0C9DAEB89FC8928
:1013E0009183808354C62B893C89220F331F2E0D95
:1013F0003F1D3C8B2B8B609166037091670380913E
:1014000068039091690340E0B2DAEB89FC8991832B
:1014100080833DC62B893C89220F331F2E0D3F1D33
:101420003C8B2B8B609166037091670380916803FE
:101430009091690341E09BDAEB89FC899183808379
:1014400026C62B893C89220F331F2E0D3F1D3C8B56
:101450002B8B609162037091630380916403909180
:10146000650340E084DAEB89FC89918380830FC6B1
:101470002B893C89220F331F2E0D3F1D3C8B2B8B5C
:1014800060915E0370915F038091600390916103AE
:1014900040E06DDAEB89FC8991838083F8C52B8964
:1014A0003C89220F331F2E0D3F1D3C8B2B8B6091EF
:1014B0005E0370915F03809160039091610341E04E
:1014C00056DAEB89FC8991838083E1C52B893C89BD
:1014D000220F331F2E0D3F1D3C8B2B8B60915A0327
:1014E00070915B0380915C0390915D0340E03FDA73
:1014F000EB89FC8991838083CAC52B893C89220FA3
:10150000331F2E0D3F1D3C8B2B8B40E030DAEB89D7
:10151000FC8991838083BBC52B893C89220F331FB3
:101520002E0D3F1D3C8B2B8B41E021DAEB89FC8992
:1015300091838083ACC52B893C89220F331F2E0DEC
:101540003F1D3C8B2B8B609156037091570380910C
:1015500058039091590340E00ADAEB89FC899183A2
:10156000808395C52B893C89220F331F2E0D3F1D8B
:101570003C8B2B8B6091360370913703809138033D
:101580009091390340E0F3D9EB89FC899183808302
:101590007EC52B893C89220F331F2E0D3F1D3C8BAE
:1015A0002B8B6091360370913703809138039091B3
:1015B000390341E0DCD9EB89FC899183808367C5DD
:1015C0002B893C89220F331F2E0D3F1D3C8B2B8B0B
:1015D00060913A0370913B0380913C0390913D03ED
:1015E00040E0C5D9EB89FC899183808350C52B8964
:1015F0003C89220F331F2E0D3F1D3C8B2B8B60919E
:10160000260370912703809128039091290340E0DD
:10161000AED9EB89FC899183808339C52B893C89BC
:10162000220F331F2E0D3F1D3C8B2B8B6091260309
:1016300070912703809128039091290341E097D965
:10164000EB89FC899183808322C52B893C89220FF9
:10165000331F2E0D3F1D3C8B2B8B60913E037091F1
:101660003F03809140039091410340E080D9EB8992
:10167000FC89918380830BC52B893C89220F331F02
:101680002E0D3F1D3C8B2B8B60913E0370913F03D1
:10169000809140039091410341E069D9EB89FC8935
:1016A00091838083F4C42B893C89220F331F2E0D34
:1016B0003F1D3C8B2B8B60913203709133038091E3
:1016C00034039091350341E052D9EB89FC89918331
:1016D0008083DDC42B893C89220F331F2E0D3F1DD3
:1016E0003C8B2B8B60912E0370912F0380913003E4
:1016F0009091310340E03BD9EB89FC899183808351
:10170000C6C42B893C89220F331F2E0D3F1D3C8BF5
:101710002B8B60912E0370912F0380913003909159
:10172000310341E024D9EB89FC8991838083AFC4E4
:101730002B893C89220F331F2E0D3F1D3C8B2B8B99
:10174000609115037091160380911703909118030F
:1017500041E00DD9EB89FC899183808398C42B8962
:101760003C89220F331F2E0D3F1D3C8B2B8B60912C
:10177000520370915303809154039091550341E0BB
:10178000F6D8EB89FC899183808381C42B893C89BD
:10179000220F331F2E0D3F1D3C8B2B8B60914E0370
:1017A00070914F03809150039091510340E0DFD836
:1017B000EB89FC89918380836AC42B893C89220F41
:1017C000331F2E0D3F1D3C8B2B8B60914E03709170
:1017D0004F03809150039091510341E0C8D8EB89A9
:1017E000FC899183808353C42B893C89220F331F4A
:1017F0002E0D3F1D3C8B2B8B60914A0370914B0348
:1018000080914C0390914D0340E0B1D8EB89FC8965
:10181000918380833CC42B893C89220F331F2E0D7A
:101820003F1D3C8B2B8B60914A0370914B03809141
:101830004C0390914D0341E09AD8EB89FC89918348
:10184000808325C42B893C89220F331F2E0D3F1D19
:101850003C8B2B8B60912103709122038091230399
:101860009091240341E083D8EB89FC8991838083A4
:101870000EC42B893C89220F331F2E0D3F1D3C8B3C
:101880002B8B60911D0370911E0380911F0390911B
:10189000200341E06CD8EB89FC8991838083F7C3F6
:1018A0002B893C89220F331F2E0D3F1D3C8B2B8B28
:1018B000609172037091730380917403909175032A
:1018C00040E055D8EB89FC8991838083E0C32B8964
:1018D0003C89220F331F2E0D3F1D3C8B2B8B6091BB
:1018E000720370917303809174039091750341E0CA
:1018F0003ED8EB89FC8991838083C9C32B893C89BD
:10190000220F331F2E0D3F1D3C8B2B8B60916E03DE
:1019100070916F03809170039091710341E027D81B
:10192000EB89FC8991838083B2C32B893C89220F88
:10193000331F2E0D3F1D8091990190E0F901918395
:101940008083A5C32B893C89220F331F2E0D3F1D99
:101950008091970190919801F9019183808397C3B9
:101960002B893C89220F331F2E0D3F1D809196013C
:1019700090E0F901918380838AC32B893C89220FEF
:10198000331F2E0D3F1D8091940190919501F90117
:10199000918380837CC32B893C89220F331F2E0DBA
:1019A0003F1D80918E0390E0F901918380836FC386
:1019B00080917C01B110809391032B893C89220F87
:1019C000331F2E0D3F1D90E0F901918380835FC38B
:1019D0002B893C89220F331F2E0D3F1D80917501ED
:1019E00090E0F9019183808352C32B893C89220FB7
:1019F000331F2E0D3F1DF9012B813C813183208344
:101A000046C3BB2021F0D092F901C092F8018B8926
:101A10009C89880F991F8E0D9F1D9C8B8B8B8091AD
:101A2000F8019091F901EB89FC89918380832FC3A0
:101A3000B110C092FA012B893C89220F331F2E0D61
:101A40003F1D8091FA0190E0F901918380831FC3CB
:101A50002B893C89220F331F2E0D3F1D8091700171
:101A600090917101F9019183808311C32B893C8985
:101A7000220F331F2E0D3F1D80916F0190E0F90161
:101A80009183808304C32B893C89220F331F2E0D41
:101A90003F1D80916E0190E0F90191838083F7C230
:101AA0002B893C89220F331F2E0D3F1D80916D0124
:101AB00090E0F90191838083EAC22B893C89220F4F
:101AC000331F2E0D3F1D3C8B2B8B40E0B101C40119
:101AD0000E94B704EB89FC8991838083D8C22B894B
:101AE0003C89220F331F2E0D3F1D3C8B2B8B41E079
:101AF0006F85788989899A890E94B704EB89FC8966
:101B000091838083C4C2BB2009F4C1C22B893C8964
:101B1000220F331F2E0D3F1D80916B0190E0F901C4
:101B200091838083B4C2BB2009F4B1C22B893C8964
:101B3000220F331F2E0D3F1D3C8B2B8B60916701B5
:101B4000709168018091690190916A010E941E253F
:101B5000EB89FC89718360839AC2BB2009F497C228
:101B60002B893C89220F331F2E0D3F1D3C8B2B8B65
:101B700060916301709164018091650190916601AB
:101B80000E941E25EB89FC897183608380C2BB2083
:101B900009F47DC22B893C89220F331F2E0D3F1D76
:101BA0003C8B2B8B60915F01709160018091610192
:101BB000909162010E941E25EB89FC8971836083EC
:101BC00066C22B893C89220F331F2E0D3F1D3C8B93
:101BD0002B8B20E030E040E251E460915B0170919A
:101BE0005C0180915D0190915E010E9450260E94EF
:101BF0001E25EB89FC897183608349C22B893C894E
:101C0000220F331F2E0D3F1D3C8B2B8B20E030E02D
:101C10004AE754E460915301709154018091550159
:101C2000909156010E9450260E941E25EB89FC8946
:101C3000718360832CC22B893C89220F331F2E0DA8
:101C40003F1D3C8B2B8B20E030E04AE754E4609151
:101C500053017091540180915501909156010E9459
:101C600050260E941E25EB89FC89718360830FC278
:101C70002B893C89220F331F2E0D3F1D3C8B2B8B54
:101C800020E030E048EC52E4609157017091580137
:101C90008091590190915A010E9450260E941E2560
:101CA000EB89FC8971836083F2C1BB2071F0809164
:101CB000E901882351F0EB89FC89EE0FFF1FEE0D3F
:101CC000FF1D81E090E0918380832B893C89220F66
:101CD000331F2E0D3F1DF90111821082D8C12B89AF
:101CE0003C89220F331F2E0D3F1DF90129853A85AE
:101CF00031832083CCC18B899C89880F991F8E0DDD
:101D00009F1D9C8B8B8B8091510190E0EB89FC890E
:101D100091838083BCC12B893C89220F331F2E0DF8
:101D20003F1D80914F0190915001F9019183808373
:101D3000AEC12B893C89220F331F2E0D3F1D3C8BDA
:101D40002B8BC301B2010E94512540E00E94B704D1
:101D5000EB89FC89918380839AC12B893C89220F6E
:101D6000331F2E0D3F1D3C8B2B8B6B857C858D850A
:101D70009E850E94512541E00E94B704EB89FC89B1
:101D80009183808384C12B893C89220F331F2E0DC0
:101D90003F1D3C8B2B8B6091A0017091A101809124
:101DA000A2019091A30140E00E94B704EB89FC8955
:101DB000918380836CC12B893C89220F331F2E0DA8
:101DC0003F1D8091920190E0F901918380835FC172
:101DD000BB2049F08091E901882329F060E070E0A0
:101DE00083E00E94D11D2B893C89220F331F2E0DC9
:101DF0003F1DF9012D813E813183208348C18B89AC
:101E00009C89880F991F8E0D9F1D9C8B8B8BF801D1
:101E1000E653FF4F808190E0EB89FC8991838083BA
:101E200036C12B893C89220F331F2E0D3F1D809117
:101E30000C0390910D03F9019183808328C12B89B4
:101E40003C89220F331F2E0D3F1D80910A03909174
:101E50000B03F901918380831AC12B893C89220FDE
:101E6000331F2E0D3F1D8091080390910903F90146
:101E7000918380830CC12B893C89220F331F2E0D47
:101E80003F1D3C8B2B8B425C6091FF0170910002E7
:101E900080910102909102020E94B704EB89FC89B3
:101EA00091838083F4C02B893C89220F331F2E0D30
:101EB0003F1D3C8B2B8B445C6091FB017091FC01BE
:101EC0008091FD019091FE010E94B704EB89FC898D
:101ED00091838083DCC0BB2009F4D9C0F1E0CF1628
:101EE000D10409F0D4C01092900310928F03CFC098
:101EF000BB2049F021E0C216D10429F481E080938F
:101F0000F7018093F6018B899C89880F991F8E0DAC
:101F10009F1DFC0111821082BAC02B893C89220FBF
:101F2000331F2E0D3F1DF801EF5CFF4F808190E0C5
:101F3000F90191838083ABC02B893C89220F331F29
:101F40002E0D3F1DF801E951F040808190E0F9012C
:101F5000918380839CC02B893C89220F331F2E0DD7
:101F60003F1D3C8B2B8B609111037091120380916C
:101F700013039091140341E00E94B704EB89FC899C
:101F80009183808384C02B893C89220F331F2E0DBF
:101F90003F1D3C8B2B8B6091190370911A0380912C
:101FA0001B0390911C0340E00E94B704EB89FC895D
:101FB000918380836CC02B893C89220F331F2E0DA7
:101FC0003F1D3C8B2B8B6091190370911A038091FC
:101FD0001B0390911C0341E00E94B704EB89FC892C
:101FE0009183808354C0BB2039F0F1E0CF16D10437
:101FF00019F481E08093F7012B893C89220F331F6C
:102000002E0D3F1DF9011182108241C0BB2039F015
:10201000F1E0CF16D10419F481E08093A4018091FE
:10202000A4012B893C89220F331F2E0D3F1D90E008
:10203000880F991FF9019183808329C0BB2059F033
:10204000F2EACF16F8E0DF0621F481E08093E9019F
:1020500002C01092E9012B893C89220F331F2E0DFB
:102060003F1D8091E90190E0F901918380830FC0C9
:10207000F8940C94003E0BC02B893C89220F331F2F
:102080002E0D3F1D8FEF9FEFF901918380830F5F2E
:102090001F4F0C94410564960FB6F894DEBF0FBE37
:1020A000CDBFDF91CF911F910F91FF90EF90DF9007
:1020B000CF90BF90AF909F908F907F906F905F90E8
:1020C0004F903F902F9008954F925F926F927F9222
:1020D0008F929F92AF92BF92CF92DF92EF92FF9238
:1020E000CF93DF9300D000D0CDB7DEB720916A0345
:1020F00030916B0340916C0350916D0360915301DB
:102100007091540180915501909156010E94502682
:1021100020915701309158014091590150915A0135
:102120000E944E2460931503709316038093170347
:10213000909318032AE037ED43E25CE30E94B22457
:1021400087FF10C08AE097EDA3E2BCE380931503FC
:1021500090931603A0931703B093180381E0809324
:10216000100302C010921003C0906603D090670362
:10217000E0906803F090690322EA3CEE42EF50E4FD
:10218000C701B6010E9450264B015C012FEE39EBCE
:1021900040E753E4C701B6010E944E249B01AC0105
:1021A000C501B4010E94B6249B01AC0160E070E05F
:1021B00080E291E40E94B32622EE39EB43EC50E436
:1021C0000E9450264B015C016093460370934703C5
:1021D00080934803909349038091150390911603CF
:1021E000A0911703B091180389839A83AB83BC83B2
:1021F0009C01AD01C501B4010E9450262AE037EDD3
:1022000043E25CE30E9450266B017C016093420331
:1022100070934303809344039093450322EE39EB7C
:1022200043EC50E40E94B6240E9405269B01AC01B9
:1022300062EA7CEE82EF90E40E94B62420E030E077
:1022400040E85FE30E944D249B01AC016FEE79EB07
:1022500080E793E40E94B6242B013C0120E030E0AB
:1022600042E852EC0E94B22487FD09C040923E032E
:1022700050923F0360924003709241030CC080E093
:1022800090E0A2E8B2EC80933E0390933F03A093CA
:102290004003B093410320913E0330913F034091AE
:1022A0004003509141036AEE7DE385E19CE30E9487
:1022B0004D2420E83DE048E85BE30E9450269B0166
:1022C000AC016DE47EE984EA9FE30E944D240E9404
:1022D000032727EB38E241E95FE30E944D2420E821
:1022E0003DE048E05BE30E94B6242B013C0120E086
:1022F00030E0A9010E94012618164CF040922603F6
:1023000050922703609228037092290308C010920C
:10231000260310922703109228031092290340905D
:10232000720350907303609074037090750320E003
:1023300030E048EC52E469817A818B819C810E9473
:102340005026A30192010E94B6249B01AC01609328
:102350002A0370932B0380932C0390932D03C501C4
:10236000B4010E9450262AE037ED43E25CE30E946C
:10237000502622EE39EB43EC50E40E94B6240E9432
:1023800005269B01AC0162EA7CEE82EF90E40E949C
:10239000B62420E030E040E85FE30E944D249B013A
:1023A000AC016FEE79EB80E793E40E94B6249B01C9
:1023B000AC0160933A0370933B0380933C0390938A
:1023C0003D036AEE7DE385E19CE30E944D2420E815
:1023D0003DE048E85BE30E9450269B01AC016DE4C0
:1023E0007EE984EA9FE30E944D240E94032727EBA5
:1023F00038E241E95FE30E944D2420E83DE048E0F7
:102400005BE30E94B6244B015C0120E030E0A901AF
:102410000E94012618164CF08092360390923703E2
:10242000A0923803B092390308C01092360310927C
:102430003703109238031092390320E034E244E766
:1024400059E4C701B6010E9450264B015C0120E00F
:1024500030E040E251E4C301B2010E945026A701DE
:1024600096010E944D249B01AC01C501B4010E945C
:10247000B6246093320370933303809334039093B4
:1024800035032BE43FE140E951E40E9450262CE55E
:102490003FE042E153E40E94B62460932E03709320
:1024A0002F0380933003909331030F900F900F9080
:1024B0000F90DF91CF91FF90EF90DF90CF90BF9082
:1024C000AF909F908F907F906F905F904F90089506
:1024D000CF93A8959FE088E10FB6F894A8958093D4
:1024E00060000FBE9093600062E370E080E090E0D7
:1024F0000E94871D61E082E00E94571E60E082E03A
:102500000E94931E61E083E00E94571E61E085E017
:102510000E94571E61E086E00E94571E60E086E040
:102520000E94931E0E948704E0ECF0E080818064AA
:1025300080838FB7F8945A9A8FBF0E94870462E312
:1025400070E080E090E00E94871DC0917C016C2FBC
:1025500082EA93E00ED46C2F82EA93E00AD462E31D
:1025600070E080E090E00E94871D85EC94E00E947E
:10257000761C40EA56E861E070E085EC94E00E9449
:10258000851C4AE050E060E070E085EC94E0BAD54C
:102590000E94561D60939403709395038093960355
:1025A00090939703A895CF9108950F931F93CF937E
:1025B000DF9364E470E085EC94E00E94921C64E296
:1025C00085EC94E00E94381C60E085EC94E00E9469
:1025D000381C85EC94E00E94071D80938E0386E9E9
:1025E00090E00E94AB1D80918E0381117AC046E07D
:1025F00064E485EC94E00E94051DCEE7D1E004E898
:1026000011E085EC94E00E94B21B89930C171D0722
:10261000C1F7C091800162E08EE791E00E94C6039D
:10262000C81721F088E580938E035BC0C0918301B9
:1026300062E081E891E00E94C603C813F3CF609185
:102640007E0170E0762F662780917F01680F711DF3
:1026500070930D0360930C038091810190E0982F9B
:10266000882720918201EC01C20FD11DD0930F0366
:10267000C0930E0380E090E00E944F2520E030E000
:102680004FE253E40E94502620E03FEF4FE757E42B
:102690000E94B62420E030E044E352E40E944D243E
:1026A00060931103709312038093130390931403A8
:1026B000BE0180E090E00E944F2520E030E048EC31
:1026C00052E40E94502620E03FEF4FE757E40E947B
:1026D000B6246093190370931A0380931B0390939D
:1026E0001C03DF91CF911F910F910895CF93DF933A
:1026F0006091000185EC94E00E94881C60E585EC07
:1027000094E00E94381C85EC94E00E94071D8093A1
:102710009A01811173C044E06091000185EC94E05E
:102720000E94051DC8E8D1E085EC94E00E94B21B30
:10273000899381E0CC38D807B9F7609188016F732D
:1027400070E0762F662780918901682B70930B03C8
:1027500060930A036656764080E090E00E944F2521
:1027600023E33AEF41ED5AE30E94502620E030E0A7
:1027700040E85FE30E944D2420E030E048EC52E462
:102780000E94502620E030E048EC52E40E944E24A3
:102790006093FF0170930002809301029093020204
:1027A00060918A0188E0689FB001112480918B01BB
:1027B000829586958770682B709309036093080350
:1027C00080E090E00E944F2520E030E048E453E4B0
:1027D0000E94502620E030EE4FEF54E40E94B624D1
:1027E00020E030E048E452E40E944D246093FB0175
:1027F0007093FC018093FD019093FE0186E990E0C7
:10280000DF91CF910C94AB1D4F925F926F927F92AC
:102810008F929F92AF92BF92CF92DF92EF92FF92F0
:102820000F931F93E0919B018E2F90E0FC01319755
:10283000EE30F10508F0E2C1EC5CFF4F0C9433245C
:1028400061E086E00E94931E82E0E0C083E0DEC08B
:102850004DDF84E0DBC085E080939B018091F20135
:102860009091F301A091F401B091F5018093A5013D
:102870009093A601A093A701B093A801BFC1809136
:10288000F2019091F301A091F401B091F501409112
:10289000A5015091A6016091A7017091A8018C013A
:1028A0009D01041B150B260B370B05361105210561
:1028B000310508F4A3C120916D01213011F487E0A6
:1028C000A5C08093A5019093A601A093A701B09302
:1028D000A8011BC06ADE19C08091F2019091F3013A
:1028E000A091F401B091F5014091A5015091A6018C
:1028F0006091A7017091A801841B950BA60BB70BE3
:10290000C397A105B10508F479C18AE07FC060E0F2
:1029100086E00E94931E80919A01811122C08091CD
:10292000990181111EC080919F0181111AC0E09010
:102930001903F0901A0300911B0310911C032091BE
:10294000FB013091FC014091FD015091FE0160912D
:10295000FF017091000280910102909102020E9499
:10296000D7000E946401E0901903F0901A030091CF
:102970001B0310911C032091FB013091FC0140913D
:10298000FD015091FE016091FF0170910002809164
:102990000102909102020E94D9038BE037C00E948D
:1029A0003E018CE033C00E947302809158029091E6
:1029B0005902A0915A02B0915B02809372039093E6
:1029C0007303A0937403B093750380915C0290919C
:1029D0005D02A0915E02B0915F0280936E039093BE
:1029E0006F03A0937003B093710380916002909184
:1029F0006102A0916202B091630280936A03909396
:102A00006B03A0936C03B0936D038EE080939B01E6
:102A1000F5C0C0907203D0907303E0907403F090FF
:102A200075032AE037ED43E25CE3C701B6010E947B
:102A300050264B015C01609386037093870380935B
:102A40008803909389032DEC3CEC4CEC5DE30E94F1
:102A50005026609382037093830380938403909342
:102A6000850320E030E04AE754E4C701B6010E9444
:102A7000502660937E0370937F038093800390932E
:102A80008103C0928A03D0928B03E0928C03F09270
:102A90008D0327ED34E844E15EE3C701B6010E94EF
:102AA000502660937A0370937B0380937C0390930A
:102AB0007D032DEC3CEC4CEC5DE3C701B6010E94BC
:102AC00050266093760370937703809378039093F6
:102AD0007903C0906E03D0906F03E0907003F09084
:102AE0007103C0926603D0926703E0926803F0928C
:102AF000690323E333E948E853E4C701B6010E94C0
:102B00004E242B013C016093620370936303809316
:102B100064039093650326E636E646EE5FE3C7015D
:102B2000B6010E94502620E030E040E052E40E94CE
:102B30004E2460935E0370935F03809360039093D1
:102B40006103A301920163E373E982E993E40E94C4
:102B5000B624A50194010E9450266B017C0160936C
:102B6000560370935703809358039093590320E0C2
:102B700030E040E85FE30E944D246093520370937D
:102B8000530380935403909355032DEC3CEC4CEC91
:102B90005DE3C701B6010E94502660934E03709317
:102BA0004F0380935003909351032DEC3CEC4CEC7D
:102BB0005DE30E944D2460934A0370934B0380931E
:102BC0004C0390934D03A701960160917801709199
:102BD000790180917A0190917B010E945026609347
:102BE0005A0370935B0380935C0390935D03809121
:102BF0006D01813009F468DA10929B011F910F91E9
:102C0000FF90EF90DF90CF90BF90AF909F908F900C
:102C10007F906F905F904F9008950F931F938091D6
:102C2000F2019091F301A091F401B091F50140916E
:102C3000EE015091EF016091F0017091F1018C0172
:102C40009D01041B150B260B370B093711052105B8
:102C5000310570F08093EE019093EF01A093F001A5
:102C6000B093F101D1DD8091F70181110E944B03F6
:102C70001F910F9108951AD76093F2017093F30199
:102C80008093F4019093F501693B7B4081059105A8
:102C900038F080919E01811103C081E080939E01F4
:102CA00080919E01882349F00E9461030E948C0359
:102CB000B4DF81E993E00E941823A8950895FC01F0
:102CC00024853585F901E05CFF4F80819181329642
:102CD00020813181805C9F4F821B930B60E470E008
:102CE0000C94FE23DC011C96ED91FC911D97DF01F5
:102CF000A05CBF4F2D913C91119712968D919C91A4
:102D000011972817390739F08D919C91E80FF91F19
:102D1000808190E008958FEF9FEF0895FC01A485D6
:102D2000B585FD01E05CFF4F2081318132968081C5
:102D300091812817390779F080819181A80FB91FF7
:102D40008C91208131812F5F3F4F2F733327318347
:102D5000208390E008958FEF9FEF0895FC0181A1FB
:102D6000882329F0A489B5898C9186FFFBCF11A215
:102D700008950F931F93CF93DF93FC01A685B7852A
:102D80008D01005C1F4FE8018881998101968F7346
:102D90009927AD014E5B5F4FEA0128813981821787
:102DA0009307D1F3E80128813981A20FB31F6C93F7
:102DB000A685B785A05CBF4F11969C938E93A6897C
:102DC000B7892C9181E090E0078C02C0880F991F91
:102DD0000A94E2F7822B8C9381E081A30488F58921
:102DE000E02D80818064808381E090E0DF91CF914D
:102DF0001F910F91089508951F920F920FB60F9291
:102E000011242F934F935F938F939F93EF93FF938F
:102E10008091C00082FD1CC02091C60080914804B2
:102E20009091490401968F73992740914A045091DB
:102E30004B048417950771F0E0914804F091490420
:102E4000E85FFB4F2083909349048093480402C0BD
:102E50008091C600FF91EF919F918F915F914F916B
:102E60002F910F900FBE0F901F90189582EA93E05C
:102E700026DF892B09F0BFCF08951F920F920FB65E
:102E80000F9211242F933F938F939F93EF93FF9370
:102E90002091040430910504809106049091070468
:102EA0002817390731F48091C1008F7D8093C100CC
:102EB00014C0E0910604F0910704EC53FC4F20810C
:102EC000809106049091070401968F73992790933F
:102ED0000704809306042093C600FF91EF919F9111
:102EE0008F913F912F910F900FBE0F901F901895CB
:102EF000CF92DF92EF92FF921F93CF93DF93EC017B
:102F00006A017B01122F4115514E6105710509F1CE
:102F1000EC89FD8981E090E008A002C0880F991F2C
:102F20000A94E2F7808360E079E08DE390E0A70106
:102F300096010E941124DA01C9010197A109B10982
:102F4000B695A795979587959C01211580E138073F
:102F5000A8F0EC89FD89108260E874E88EE190E0C9
:102F6000A70196010E941124DA01C9010197A10964
:102F7000B109B695A795979587959C01E889F98938
:102F80003083EA89FB892083E88DF98D1083EE89EF
:102F9000FF89408181E090E09C010C8C02C0220FEF
:102FA000331F0A94E2F7242B2083EE89FF894081A6
:102FB0009C010D8C02C0220F331F0A94E2F7242BD0
:102FC0002083EE89FF8940819C010E8C02C0220F74
:102FD000331F0A94E2F7242B2083EE89FF89208196
:102FE0000F8C02C0880F991F0A94E2F78095822304
:102FF0008083DF91CF911F91FF90EF90DF90CF9072
:103000000895E2EAF3E01382128288EE93E0A0E0F2
:10301000B0E084839583A683B7838EE291E09183A9
:10302000808388E094E09587848784EC93E0978799
:10303000868785EC90E0918B808B84EC90E0938B7D
:10304000828B80EC90E0958B848B81EC90E0978B69
:10305000868B82EC90E0918F808F86EC90E0938F4E
:10306000828F84E0848F83E0858F87E0868F85E080
:10307000878F81E080A308950895A8959FE088E157
:103080000FB6F894A895809360000FBE90936000EF
:103090001092BC001092C0001092C1001092C200A9
:1030A00064D5EADF15DAC6E3D7E1E5DD2097E9F379
:1030B000DDDEFBCFCF92DF92EF92FF920F931F9353
:1030C000CF93DF936C01EB017B01E40EF51E00E072
:1030D00010E0CE15DF0561F06991D601ED91FC910C
:1030E0000190F081E02DC6010995080F191FF1CF5D
:1030F000C801DF91CF911F910F91FF90EF90DF906A
:10310000CF900895FC0144835583668377830895A7
:10311000813039F018F0823051F0089510926E002D
:10312000089580916F008D7F80936F000895809146
:1031300070008D7F8093700081E08093B00080915B
:10314000B100887F84608093B1001092B30008952D
:10315000CF93C82F80910101C81307C0E6E0F1E0CA
:1031600084919FEF9093010101C08FEFD1DF60E068
:103170008C2FCF91D8C51F920F920FB60F921124AA
:103180002F933F934F935F936F937F938F939F936F
:10319000AF93BF93EF93FF9380914F0490915004AE
:1031A000A0915104B0915204892B8A2B8B2B51F1A1
:1031B00090914C04E0914D04F0914E048081892758
:1031C000808380914F0490915004A0915104B0915C
:1031D0005204181619061A061B06BCF480914F04F7
:1031E00090915004A0915104B09152040197A1090B
:1031F000B10980934F0490935004A0935104B0936D
:10320000520403C080910101A3DFFF91EF91BF91B0
:10321000AF919F918F917F916F915F914F913F916E
:103220002F910F900FBE0F901F9018951092C00411
:1032300081E08093BE041092BD0461E082E173D509
:1032400061E083E170D5E9EBF0E080818E7F8083DF
:1032500080818D7F808388E48093B80085E48093AB
:10326000BC0008959B01AC0160E074E284EF90E043
:103270000E941124DA01C9014097A109B109B6954C
:10328000A795979587958093B8000895413208F0E7
:1032900043C09091C0049111FCCF91E09093C00481
:1032A0002093BE042FEF2093530410929804240F10
:1032B000209397049093BF049091BF04880F892BAB
:1032C0008093BF048091BD04813061F41092BD04ED
:1032D0008091BF048093BB008091BC0083FDF8CF38
:1032E00085EC01C085EE8093BC008091C0048130E4
:1032F000E1F380919804841710F440919804A9E9AF
:10330000B4E0962FFB018E2F891B841718F48D9142
:103310008193F9CF842F089580E008950F9341326F
:1033200008F04AC09091C0049111FCCF32E0309374
:10333000C0040093BE043FEF3093530410929804EE
:1033400040939704562FA9E9B4E0FB013E2F351BAB
:10335000341718F431913D93F9CF1092BF04309196
:10336000BF04880F832B8093BF048091BD048130FC
:1033700061F41092BD048091BF048093BB008091E2
:10338000BC0083FDF8CF85EC01C085EE8093BC00C6
:10339000222321F08091C0048230D1F38091530424
:1033A0008F3F79F080915304803241F08091530433
:1033B000803331F094E005C091E003C092E001C099
:1033C00093E0892F0F91089540917504262F30E0E6
:1033D000240F311D21323105DCF42091C00424304A
:1033E000C9F4FC0180E090E0861758F43091750430
:1033F0002191DC01A958BB4FA30FB11D2C9301965D
:10340000F3CF80917504680F6093750480E0089590
:1034100081E0089582E008959093BA048093B904FE
:1034200008959093BC048093BB04089585ED809328
:10343000BC008091BC0084FDFCCF1092C0040895B4
:1034400085EC8093BC001092C00408951F920F92E7
:103450000FB60F9211242F933F934F935F936F9367
:103460007F938F939F93AF93BF93EF93FF9380913D
:10347000B900887F803609F49DC070F5883209F460
:103480005CC090F4803109F455C038F4882309F405
:10349000F3C0883009F44EC0F2C0883109F44DC041
:1034A000803209F45EC0EBC0803409F469C050F486
:1034B000803309F456C0883309F0E1C08093530487
:1034C000BFDFDDC0803509F44FC0883509F45DC029
:1034D000883409F0D4C0D2C0883909F4C3C0A8F434
:1034E000883709F467C038F4883609F463C0803738
:1034F00009F460C0C4C0883809F4B4C0803909F444
:103500005FC0803809F0BBC05BC0803B09F482C05B
:1035100038F4803A09F466C0883A09F47BC0AFC039
:10352000803C09F4A3C0883C09F4A0C0883B09F49E
:1035300086C0A5C08091BF0410C09091980480916E
:103540009704981770F5E091980481E08E0F8093AE
:103550009804F0E0E756FB4F80818093BB0085EC38
:1035600082C0809353048AC0E091980481E08E0F5A
:10357000809398048091BB00F0E0E756FB4F808376
:1035800090919804809197046AC0E091980481E03A
:103590008E0F809398048091BB00F0E0E756FB4FBC
:1035A00080838091BE04811169C081E08093BD0455
:1035B00084EA5DC083E08093C00410925404CFCFAE
:1035C00080915404803208F04DC0E091540481E0B1
:1035D0008E0F809354048091BB00F0E0EB5AFB4FB8
:1035E0008083BDCF2DDF80915404803230F4E09190
:1035F0005404F0E0EB5AFB4F10826091540470E0E9
:10360000E091B904F091BA0485E594E0099510922F
:10361000540435C084E08093C00410927604109264
:103620007504E091BB04F091BC0409958091750488
:10363000811105C081E08093750410927704E091B8
:10364000760481E08E0F80937604F0E0E958FB4F1A
:1036500080818093BB0090917604809175049817C7
:1036600008F47DCF85E88093BC0009C085EC809389
:10367000BC001092C00403C010925304D7DEFF9127
:10368000EF91BF91AF919F918F917F916F915F91DA
:103690004F913F912F910F900FBE0F901F90189553
:1036A0001F920F920FB60F9211242F933F934F93B7
:1036B0005F936F937F938F939F93AF93BF93EF939A
:1036C000FF938091C1049091C204892B29F0E0916D
:1036D000C104F091C2040995FF91EF91BF91AF91A0
:1036E0009F918F917F916F915F914F913F912F911A
:1036F0000F900FBE0F901F9018951F920F920FB64C
:103700000F9211242F933F934F935F936F937F9367
:103710008F939F93AF93BF93EF93FF938091C304D5
:103720009091C404892B29F0E091C304F091C40462
:103730000995FF91EF91BF91AF919F918F917F91EB
:103740006F915F914F913F912F910F900FBE0F900E
:103750001F9018958091F90490E02091FA04821B43
:10376000910908959091FA048091F904981750F402
:10377000E92FF0E0E550FB4F208130E09F5F909310
:10378000FA0402C02FEF3FEFC9010895E091FA0457
:103790008091F904E81730F4F0E0E550FB4F8081A8
:1037A00090E008958FEF9FEF08950895CF93DF93F2
:1037B000EC01E091D104F091D2043097F1F09091B6
:1037C000FA048091F9049817C0F090E0292F30E0B6
:1037D0002617370754F4DE01A20FB31F4C91D9010D
:1037E000A550BB4F4C939F5FF1CF1092FA046093AA
:1037F000F904CB01DF91CF910994DF91CF91089526
:10380000E091D304F091D404309729F01092D704BA
:103810001092D60409940895CF92DF92EF92FF920E
:103820000F931F93CF93DF937C01CB018A012091EB
:10383000D504222389F0EB016B01C40ED51ECC15F3
:10384000DD0561F06991D701ED91FC910190F08166
:10385000E02DC7010995F3CF642FB6DDC801DF91D4
:10386000CF911F910F91FF90EF90DF90CF9008952F
:10387000CF93DF931F92CDB7DEB769832091D50434
:103880002223D1F02091D604203240F021E030E014
:10389000FC013383228380E090E014C08091D70440
:1038A000E82FF0E0E852FB4F998190838F5F80937F
:1038B000D7048093D60404C061E0CE01019684DD74
:1038C00081E090E00F90DF91CF910895FC01138289
:1038D000128288EE93E0A0E0B0E084839583A68313
:1038E000B7838EE391E09183808308951092FA0468
:1038F0001092F9041092D7041092D60497DC80E05D
:103900009CE18FDD86ED9BE187CDCB01BA01AACC8E
:1039100081E08093D5046093F8041092D70410924C
:10392000D6040895F5CF0F93062F21E04091D604D9
:1039300068ED74E08091F804F1DC1092D7041092E5
:10394000D6041092D5040F9108954F925F926F9212
:103950007F92AF92BF92CF92EF92FF920F931F93FD
:10396000CF93DF935C01F62ED42F28013901EE208E
:1039700011F1CEDFCE2DC43008F0C3E0C150C0F04D
:1039800028E0C29FC0011124A301920104C05695F2
:103990004795379527958A95D2F7CA01B901D50180
:1039A000ED91FC910190F081E02DC5010995E6CFE4
:1039B00060E0C501B8DF4D2FD13208F040E22C2D78
:1039C0006BEF74E08F2D62DC1092FA048093F9049F
:1039D000DF91CF911F910F91FF90EF90CF90BF900B
:1039E000AF907F906F905F904F900895CF92EF923D
:1039F0000F931F93C22EE12C00E010E09801A5DF89
:103A00001F910F91EF90CF90089521E0EFCF61E0EB
:103A10008ACF85EC94E05ACF1F920F920FB60F9287
:103A200011242F933F938F939F93AF93BF938091D4
:103A30001C0590911D05A0911E05B0911F053091A8
:103A40001B0523E0230F2D3720F40196A11DB11D86
:103A500005C026E8230F0296A11DB11D20931B056A
:103A600080931C0590931D05A0931E05B0931F0520
:103A70008091200590912105A0912205B091230508
:103A80000196A11DB11D8093200590932105A0935F
:103A90002205B0932305BF91AF919F918F913F91E4
:103AA0002F910F900FBE0F901F9018952FB7F8947D
:103AB00060911C0570911D0580911E0590911F0558
:103AC0002FBF08953FB7F89480912005909121056C
:103AD000A0912205B091230526B5A89B05C02F3FD4
:103AE00019F00196A11DB11D3FBFBA2FA92F982F24
:103AF0008827820F911DA11DB11DBC01CD0142E09F
:103B0000660F771F881F991F4A95D1F70895CF92A6
:103B1000DF92EF92FF92CF93DF936B017C01D2DFB4
:103B2000EB01C114D104E104F10471F0CBDF6C1B93
:103B30007D0B683E7340A8F381E0C81AD108E10804
:103B4000F108C851DC4FEDCFDF91CF91FF90EF909E
:103B5000DF90CF900895019739F0880F991F880F53
:103B6000991F02970197F1F70895789484B58260C0
:103B700084BD84B5816084BD85B5826085BD85B511
:103B8000816085BDEEE6F0E08081816080831092E7
:103B90007A0010927B008FEF80937E001092C1001C
:103BA00008951F93CF93DF93182FEB0161E07FD02F
:103BB000209711F460E004C0CF3FD10531F461E0FB
:103BC000812FDF91CF911F91AEC0E12FF0E0E95F2F
:103BD000FE4FE491E330F9F048F4E130B9F0E2301F
:103BE000A1F584B5806284BDC8BD34C0E630E9F07B
:103BF000E73019F1E43049F58091800080628093CC
:103C00008000D0938B00C0938A0024C084B5806864
:103C100084BDC7BD1FC080918000806880938000F4
:103C2000D0938900C093880015C08091B00080684F
:103C30008093B000C093B3000DC08091B00080624B
:103C40008093B000C093B40005C0C038D1050CF01B
:103C5000B6CFB0CFDF91CF911F910895833081F01F
:103C600028F4813099F08230A1F008958630A9F0CF
:103C70008730B9F08430D1F4809180008F7D03C00B
:103C8000809180008F7780938000089584B58F772E
:103C900002C084B58F7D84BD08958091B0008F7778
:103CA00003C08091B0008F7D8093B0000895CF93C2
:103CB000DF9390E0FC01E55EFE4F2491FC01E15DA5
:103CC000FE4F8491882361F190E0880F991FFC01D9
:103CD000E35BFE4FC591D491FC01ED5BFE4FA591D6
:103CE000B491611109C09FB7F8948881209582230F
:103CF0008883EC912E230BC0623061F49FB7F89457
:103D00008881322F309583238883EC912E2B2C933E
:103D10009FBF06C08FB7F894E8812E2B28838FBFF2
:103D2000DF91CF9108951F93CF93DF93282F30E039
:103D3000F901E95FFE4F8491F901E55EFE4FD491F0
:103D4000F901E15DFE4FC491CC23B9F0162F81112A
:103D500085DFEC2FF0E0EE0FFF1FED5BFE4FA5912E
:103D6000B4919FB7F894111104C08C91D095D823C9
:103D700002C0EC91DE2BDC939FBFDF91CF911F91AE
:103D800008951F920F920FB60F9211242F933F9315
:103D90004F935F936F937F938F939F93AF93BF9353
:103DA000CF93DF93EF93FF9390914405A091430548
:103DB000209188003091890080912805482F50E09B
:103DC000C0917805D0917905B0914205E92FF0E0D6
:103DD0004E175F07ECF02C0F3D1FEA2FE170A69500
:103DE0009F5FEB1799F380918000EE2311F0806CB8
:103DF00002C08F7B8068809380003093890020937D
:103E00008800E0934205A0934305909344058FC03A
:103E100090912605911105C0EA012196EC17FD0746
:103E200029F0EA012296EC17FD07A1F48D5F80933B
:103E3000440580918000806C80938000609127050C
:103E40004091780550917905649FC001659F900D60
:103E5000112467C04F5F5F4FE417F507C9F48E5F09
:103E60008093440580912905B81709F456C088232A
:103E700021F080918000806C04C0809180008F7B55
:103E8000806880938000809129058093420545C019
:103E900080914105E09140058E130DC010924405BC
:103EA000809180008F738093800080916F008D7F60
:103EB00080936F003CC081E080934405EF5FE43164
:103EC00008F0E0E0E0934005F0E0E65DFA4F808125
:103ED00080934305109242059923C9F0082E8295DC
:103EE0008025082E8695869580258F5F81FB662725
:103EF00060F970E041E050E0923011F040E050E0B5
:103F000081E06417750709F080E0809329058091AE
:103F100080008F7B806880938000809178059091ED
:103F20007905280F391F3093890020938800FF916D
:103F3000EF91DF91CF91BF91AF919F918F917F9141
:103F40006F915F914F913F912F910F900FBE0F9006
:103F50001F9018951F920F920FB60F9211241F9366
:103F60002F933F934F935F936F937F938F939F9381
:103F7000AF93BF93CF93DF93EF93FF93209186008E
:103F8000309187009091750580918100992331F0DF
:103F90008F7B809381001092750506C080648093AA
:103FA000810080E88093750580917705811123C099
:103FB00091119AC08091710590917205820F931FA3
:103FC00090938B0080938A0084E086BB80916F0081
:103FD000846080936F008091780590917905280F17
:103FE000391F96958795280F391F309374052093B4
:103FF000730581E074C04091730550917405C091C0
:1040000028057091750590917605A0917805B0917D
:104010007905D091250510912405241B350B37FD1A
:1040200058C0882321F0C81710F09695972B4A0F97
:104030005B1F8F5F8D1708F446C0909376058091C3
:104040006F008B7F80936F00909126059923F9F084
:1040500080917605082E82958025082E8695869576
:1040600080258F5F81FBEE27E0F9F0E021E030E072
:10407000923011F020E030E081E090E0E217F307A9
:1040800011F080E090E070E08617970791F480913E
:1040900070058F5F883230F590916F05891749F070
:1040A000E82FF0E090917605EB5BFA4F90838093D8
:1040B0007005809181008F7B80938100109275053F
:1040C0001092770511C0811708F4672F2A1B3B0B4C
:1040D000A6CF909376055093740540937305809313
:1040E000770502C080E0D8CFFF91EF91DF91CF91AB
:1040F000BF91AF919F918F917F916F915F914F9100
:104100003F912F911F910F900FBE0F901F90189508
:104110001F920F920FB60F9211242F934F935F931C
:104120006F937F938F939F93EF93FF9380916F0093
:104130008B7F80936F00809181008F7B80938100C3
:10414000809177052091750520584091280550E011
:1041500090917605682F70E04617570724F09695E2
:10416000922B8F5FF7CF90937605809170058F5FCC
:10417000883208F080E020916F05821739F0E82F2F
:10418000F0E0EB5BFA4F9083809370051092770517
:10419000809181008F7B8093810010927505FF9143
:1041A000EF919F918F917F916F915F914F912F919F
:1041B0000F900FBE0F901F9018950F931F93CF93E2
:1041C000DF93EC0126E040E855E260E070E082EA2F
:1041D00093E00E947817E1ECF0E0808180648083B6
:1041E0001A87098784E080937A05DF91CF911F9128
:1041F0000F9108958FEF9FEF4217A8F4FB01E40F92
:10420000F11D3081832738E0FC01E170FF2796958E
:104210008795EF2B21F051E0852750EA9527315003
:1042200099F74F5FE9CF98278927982708951F931B
:10423000CF93DF93EB01142F242F40E0DBDFFE014F
:10424000E10FF11D90831F5FC10FD11D8883DF91A6
:10425000CF911F910895FB0141814330A9F0463071
:1042600029F0403189F081E090E00895228130E02A
:10427000322F22274381240F311DFC018185928535
:104280002817390718F528C0248130E0322F22275B
:104290005581250F311D433021F0403111F040E0B0
:1042A00001C04EE021153105A1F050E0421753073F
:1042B00080F0228130E0322F22274381240F311DEC
:1042C000FC01818592858217930730F482E090E0AB
:1042D000089583E090E0089580E090E00895FC0167
:1042E0007087678308950F931F93CF93DF93DB014C
:1042F000BA01A9019801EC01EF81F885CD01DF91A8
:10430000CF911F910F9109946F927F928F929F92FC
:10431000AF92BF92CF92DF92EF92FF920F931F93D3
:10432000CF93DF935C014B016A0139017A01C0E050
:10433000D0E082E0E80EF11CF601858190E0C8171C
:10434000D90788F4F701058110E0102F0027868136
:10435000082BAE01480D591D21E030E0B301C50125
:10436000C2DF2196E6CFCE01DF91CF911F910F9151
:10437000FF90EF90DF90CF90BF90AF909F908F9085
:104380007F906F9008951F920F920FB60F92112495
:104390005A980F900FBE0F901F901895EF92FF92B2
:1043A0000F931F93CF93DF938091C000806480931D
:1043B000C0008FB7F8945A9A8FBFEB01042F10E01A
:1043C0007B01E00EF11ECE15DF0531F0699182EA26
:1043D00093E00E94B916F7CFC801DF91CF911F91EA
:1043E0000F91FF90EF900895EF92FF920F931F931C
:1043F000CF938C017B01C42F1ADF42E04C0FB70131
:10440000C801CF911F910F91FF90EF90C7CFCF922E
:10441000DF92EF92FF920F931F93CF93DF93CDB76D
:10442000DEB728970FB6F894DEBF0FBECDBF6C0184
:10443000842F752FA801698390E19A837B838C83F5
:104440001D822E839701682FC6015EDF892B39F00C
:1044500046E0BE016F5F7F4FC601C6DF02C080E04D
:1044600090E028960FB6F894DEBF0FBECDBFDF9167
:10447000CF911F910F91FF90EF90DF90CF90089513
:10448000EF92FF920F931F93CF93DF93CDB7DEB7D9
:1044900028970FB6F894DEBF0FBECDBF7C01C801D0
:1044A000F90104811581102701271027698326E06F
:1044B0002A835B834C831D830E8321E030E0BC01A3
:1044C000C70111DF46E0BE016F5F7F4FC7018CDF80
:1044D00028960FB6F894DEBF0FBECDBFDF91CF9107
:1044E0001F910F91FF90EF900895AF92BF92CF92DE
:1044F000DF92EF92FF920F931F93CF93DF93CDB78D
:10450000DEB7A8970FB6F894DEBF0FBECDBF6C0123
:104510005801698383E08A83822F880F8B83E22E80
:10452000F12C00E010E09701B501C601DCDED501F9
:10453000FE01319680E090E0BF0132968E159F0516
:1045400048F42C9111963C91119712963183228355
:104550000196F3CFA701440F551F4D5F5F4FC60172
:1045600043DFA8960FB6F894DEBF0FBECDBFDF9134
:10457000CF911F910F91FF90EF90DF90CF90BF9060
:10458000AF9008950F931F93CF93DF938B01C0E0FB
:10459000D0E082EA93E00E945F16892B71F082EAF4
:1045A00093E00E948E16F80181938F012196C63206
:1045B000D10579F78FEF9FEF01C0CE01DF91CF9149
:1045C0001F910F910895DF92EF92FF920F931F9327
:1045D000CF93DF937C01D62E8A01BA01D3DFEC01A1
:1045E00018161906CCF4282F225040E0B801C70154
:1045F00001DEA8014C0F5D1FFA013297208130E0E7
:10460000322F222731964081242B8217930731F4D1
:10461000F80180818D1102C0CE0102C08FEF9FEFA3
:10462000DF91CF911F910F91FF90EF90DF90089550
:104630008F929F92AF92BF92CF92DF92EF92FF92B2
:104640000F931F93CF93DF93CDB7DEB7CC57D1092C
:104650000FB6F894DEBF0FBECDBF6C0182EA93E0C7
:104660000E945F165C01892B21F4F601108A1786DF
:1046700087C01CDA2BB1122F147022FD81C0F60105
:1046800027853089A216B30639F0B08AA7866387DA
:1046900074878587968775C0F60183849484A58482
:1046A000B684DC01CB0188199909AA09BB0980905D
:1046B0007A05912CA12CB12C88159905AA05BB056A
:1046C00008F45FC0108A1786AE014B5A5F4F6081B5
:1046D000C60179DF181619060CF050C0482FBE012C
:1046E0006B5A7F4FC601B7DD9C0167969FAD6797F8
:1046F0002115310571F0122FF601808189839058C0
:104700009A832B8343E0BE016F5F7F4FC6016CDE4F
:1047100038C068964FAD689750E0542F442769968B
:104720008FAD6997480F511DF60192839630E1F0E5
:10473000903161F0933029F58E010F5F1F4F6B961A
:104740002FAD6B976081C601D0DE18C0CE010196F7
:104750007C018E010B5A1F4F6B962FAD6B97F601A4
:104760006081C60154DE0AC08E010F5F1F4F9E019B
:104770002B5A3F4FF6016081C60182DE182F01C01F
:1047800010E0812FC458DF4F0FB6F894DEBF0FBE84
:10479000CDBFDF91CF911F910F91FF90EF90DF90F0
:1047A000CF90BF90AF909F908F90089508951F92E3
:1047B0000F920FB60F9211242F933F934F935F9355
:1047C0006F937F938F939F93AF93BF93EF93FF93D9
:1047D000E0910201F09103010995FF91EF91BF91E2
:1047E000AF919F918F917F916F915F914F913F9189
:1047F0002F910F900FBE0F901F90189597FB072ECB
:1048000016F4009406D077FD08D033D007FC05D00D
:104810003EF4909581959F4F0895709561957F4FD7
:104820000895A1E21A2EAA1BBB1BFD010DC0AA1FF1
:10483000BB1FEE1FFF1FA217B307E407F50720F009
:10484000A21BB30BE40BF50B661F771F881F991F84
:104850001A9469F760957095809590959B01AC01CD
:10486000BD01CF010895EE0FFF1F0590F491E02DDB
:104870000994AA1BBB1B51E107C0AA1FBB1FA617A7
:10488000B70710F0A61BB70B881F991F5A95A9F7F9
:1048900080959095BC01CD0108955058BB27AA275B
:1048A0000ED075C166D130F06BD120F031F49F3F4E
:1048B00011F41EF45BC10EF4E095E7FB51C1E92F42
:1048C00077D180F3BA17620773078407950718F04A
:1048D00071F49EF58FC10EF4E0950B2EBA2FA02D2A
:1048E0000B01B90190010C01CA01A0011124FF279D
:1048F000591B99F0593F50F4503E68F11A16F04098
:10490000A22F232F342F4427585FF3CF4695379596
:104910002795A795F0405395C9F77EF41F16BA0B5B
:10492000620B730B840BBAF09150A1F0FF0FBB1F09
:10493000661F771F881FC2F70EC0BA0F621F731F52
:10494000841F48F4879577956795B795F7959E3FAF
:1049500008F0B3CF9395880F08F09927EE0F97953D
:1049600087950895D9D008F481E008950CD00FC13F
:1049700007D140F0FED030F021F45F3F19F0F0C0D5
:10498000511139C1F3C014D198F39923C9F35523B8
:10499000B1F3951B550BBB27AA2762177307840732
:1049A00038F09F5F5F4F220F331F441FAA1FA9F3E8
:1049B00033D00E2E3AF0E0E830D091505040E695DA
:1049C000001CCAF729D0FE2F27D0660F771F881F3B
:1049D000BB1F261737074807AB07B0E809F0BB0B2A
:1049E000802DBF01FF2793585F4F2AF09E3F51054E
:1049F00068F0B6C000C15F3FECF3983EDCF38695EB
:104A000077956795B795F7959F5FC9F7880F911DC3
:104A10009695879597F90895E1E0660F771F881FAF
:104A2000BB1F621773078407BA0720F0621B730B62
:104A3000840BBA0BEE1F88F7E095089504D06894B4
:104A4000B111D9C00895BCD088F09F5790F0B92F0C
:104A50009927B751A0F0D1F0660F771F881F991FD3
:104A60001AF0BA95C9F712C0B13081F0C3D0B1E0E5
:104A70000895C0C0672F782F8827B85F39F0B93FF5
:104A8000CCF3869577956795B395D9F73EF49095D5
:104A90008095709561957F4F8F4F9F4F0895E89453
:104AA00009C097FB3EF490958095709561957F4F76
:104AB0008F4F9F4F9923A9F0F92F96E9BB27939524
:104AC000F695879577956795B795F111F8CFFAF434
:104AD000BB0F11F460FF1BC06F5F7F4F8F4F9F4F65
:104AE00016C0882311F096E911C0772321F09EE8C3
:104AF000872F762F05C0662371F096E8862F70E029
:104B000060E02AF09A95660F771F881FDAF7880F02
:104B10009695879597F90895990F0008550FAA0B58
:104B2000E0E8FEEF16161706E807F907C0F01216C0
:104B30001306E407F50798F0621B730B840B950BC3
:104B400039F40A2661F0232B242B252B21F4089518
:104B50000A2609F4A140A6958FEF811D811D0895B5
:104B600097F99F6780E870E060E008959FEF80EC20
:104B7000089500240A9416161706180609060895C3
:104B800000240A9412161306140605060895092E29
:104B90000394000C11F4882352F0BB0F40F4BF2B98
:104BA00011F460FF04C06F5F7F4F8F4F9F4F0895D8
:104BB00057FD9058440F551F59F05F3F71F04795CE
:104BC000880F97FB991F61F09F3F79F087950895B3
:104BD000121613061406551FF2CF4695F1DF08C0D2
:104BE000161617061806991FF1CF869571056105EF
:104BF00008940895E894BB2766277727CB0197F997
:104C000008958ADF08F48FEF08950AD029ED3BE577
:104C10004EED5EE345C00EF065C1A8CF6894A0CF0D
:104C2000CFDFC8F39923D1F3C6F3DF93CF931F935C
:104C30000F93FF92C92FDD2788232AF02197660F53
:104C4000771F881FDAF720E030E040E85FEB9FE352
:104C5000883920F0803E30F021968F771FDEE4E81F
:104C6000F0E003C01BDEE1EBF0E051D18B01BE01AF
:104C7000EC01FB2E6F5771097595771F880B990B07
:104C800010DF28E132E741E35FE316D0AF2D980152
:104C9000AE01FF900F911F91CF91DF9110DE77CF82
:104CA0000BD075CF66DF28F06BDF18F0952309F085
:104CB00057CF5CCF11249FCF7BDFA0F3959FD1F31B
:104CC000950F50E0551F629FF001729FBB27F00DBA
:104CD000B11D639FAA27F00DB11DAA1F649F66270F
:104CE000B00DA11D661F829F2227B00DA11D621F5E
:104CF000739FB00DA11D621F839FA00D611D221F18
:104D0000749F3327A00D611D231F849F600D211DFB
:104D1000822F762F6A2F11249F5750408AF0E1F09E
:104D200088234AF0EE0FFF1FBB1F661F771F881FE7
:104D300091505040A9F79E3F510570F011CF5BCFC5
:104D40005F3FECF3983EDCF3869577956795B795D2
:104D5000F795E7959F5FC1F7FE2B880F911D9695FC
:104D6000879597F90895FA01EE0FFF1F30962105F8
:104D7000310599F16115710561F48038BFE39B0736
:104D800049F168949038810561F08038BFEF9B0746
:104D900041F0992342F5FF3FE1053105210511F16D
:104DA000E8940894E795D901AA2329F4AB2FBE2FE4
:104DB000F85FD0F310C0FF5F70F4A695E0F7F73905
:104DC00050F019F0FF3A38F49F779F930CD00F9072
:104DD00007FC905808953EF0C9CE60E070E080E88E
:104DE0009FE308954FE79F775F934F933F932F93F0
:104DF00017DF2F913F914F915F9152DF47C011F420
:104E00000EF4B4CE6FC0DCDED0F39923D9F3CEF329
:104E10009F57550B87FF74D00024A0E640EA90010D
:104E200080585695979528F4805C660F771F881FE9
:104E300020F026173707480730F4621B730B840BEA
:104E4000202931294A2BA69517940794202531252E
:104E50004A2758F7660F771F881F20F02617370755
:104E6000480730F4620B730B840B200D311D411D7C
:104E7000A09581F7B901842F9158880F9695879551
:104E8000089519F40EF06CCEB5CE70CE99DEC8F34D
:104E90009638C0F707F80F92E8942BE33AEA48EB0C
:104EA0005FE70CDF0F920F920F924DB75EB70F9234
:104EB00090D0EEEDF0E02BD04F915F91EF91FF910C
:104EC000E595EE1FFF1F49F0FE57E0684427EE0FFF
:104ED000441FFA95E1F74195550B47D00F9007FE17
:104EE0003BC008959F3F31F0915020F4879577950E
:104EF0006795B795880F911D9695879597F90895B1
:104F000091505040660F771F881FD2F70895DF93A6
:104F1000CF931F930F93FF92EF92DF927B018C014F
:104F2000689405C0DA2EEF01C7DEFE01E894A59172
:104F30002591359145915591AEF3EF01C0DCFE010D
:104F40009701A801DA9479F7DF90EF90FF900F9125
:104F50001F91CF91DF9108959B01AC0160E070E05B
:104F600080E89FE303CDFCCDBDCF2ADEE8F3992393
:104F7000D9F3940F511DBBF39150504094F059F068
:104F8000882332F0660F771F881F91505040C1F779
:104F90009E3F510544F7880F911D9695879597F987
:104FA00008955F3FACF0983E9CF0BB2786957795BF
:104FB0006795B79508F4B1609395C1F7BB0F58F7A3
:104FC00011F460FFE8CF6F5F7F4F8F4F9F4FE3CFAC
:104FD00012CEFA01DC01AA0FBB1F9B01AC01BF5727
:104FE00028F422273327442750781FC0B75188F46C
:104FF000AB2F0024469537952795011CA395D2F336
:10500000002069F0220F331F441FB395DAF30DD04F
:1050100044CC61307105A0E88A07B94630F49B01A1
:10502000AC016627772788279078309621F0208377
:0C5030003183428353830895F894FFCF2E
:10503C0028FFD6236009C01280254038004B00960B
:10504C00C0DA0000003F0000003F0000003F8FC2AC
:10505C00F53C8FC2F53C8FC2F53C00000000B91640
:10506C005A185F168E167216AE1600000000381C09
:10507C000C1CAA1BB21BC61BD51B00ECFF6606360C
:10508C0033140100000000000000000000000000CC
:10509C00004842000070420000A042850000666596
:0E50AC00AAAAAAAA00038813CBA1C5400A0035
:00000001FF
